{
  "contractName": "SafeStakeRegistry",
  "abi": [
    {
      "inputs": [],
      "name": "AddressUsedByOperator",
      "type": "error"
    },
    {
      "inputs": [],
      "name": "AddressUsedByValidator",
      "type": "error"
    },
    {
      "inputs": [],
      "name": "CallerNotInitiatorOwner",
      "type": "error"
    },
    {
      "inputs": [],
      "name": "ExceedRegisteredOperatorsByAccountLimit",
      "type": "error"
    },
    {
      "inputs": [],
      "name": "ExceedValidatorLimit",
      "type": "error"
    },
    {
      "inputs": [],
      "name": "InitiatorIsNotOperator",
      "type": "error"
    },
    {
      "inputs": [],
      "name": "InitiatorNotExist",
      "type": "error"
    },
    {
      "inputs": [],
      "name": "InvalidPublicKeyLength",
      "type": "error"
    },
    {
      "inputs": [],
      "name": "NoEnoughParaStateDaoOperator",
      "type": "error"
    },
    {
      "inputs": [],
      "name": "NotEnoughParaStateDaoOperators",
      "type": "error"
    },
    {
      "inputs": [],
      "name": "OessDataStructureInvalid",
      "type": "error"
    },
    {
      "inputs": [],
      "name": "OperatorDeleted",
      "type": "error"
    },
    {
      "inputs": [],
      "name": "OperatorNotFound",
      "type": "error"
    },
    {
      "inputs": [],
      "name": "ValidatorAlreadyExists",
      "type": "error"
    },
    {
      "anonymous": false,
      "inputs": [
        {
          "indexed": false,
          "internalType": "uint8",
          "name": "version",
          "type": "uint8"
        }
      ],
      "name": "Initialized",
      "type": "event"
    },
    {
      "anonymous": false,
      "inputs": [
        {
          "indexed": false,
          "internalType": "uint32",
          "name": "initiatorId",
          "type": "uint32"
        },
        {
          "indexed": false,
          "internalType": "bytes",
          "name": "validatorPublicKey",
          "type": "bytes"
        },
        {
          "indexed": false,
          "internalType": "address",
          "name": "minipoolAddress",
          "type": "address"
        }
      ],
      "name": "InitiatorMiniPoolCreated",
      "type": "event"
    },
    {
      "anonymous": false,
      "inputs": [
        {
          "indexed": false,
          "internalType": "uint32",
          "name": "initiatorId",
          "type": "uint32"
        }
      ],
      "name": "InitiatorMiniPoolReady",
      "type": "event"
    },
    {
      "anonymous": false,
      "inputs": [
        {
          "indexed": false,
          "internalType": "uint32",
          "name": "initiatorId",
          "type": "uint32"
        },
        {
          "indexed": false,
          "internalType": "address",
          "name": "ownerAddress",
          "type": "address"
        },
        {
          "indexed": false,
          "internalType": "uint32[]",
          "name": "operatorIds",
          "type": "uint32[]"
        }
      ],
      "name": "InitiatorRegistration",
      "type": "event"
    },
    {
      "anonymous": false,
      "inputs": [
        {
          "indexed": false,
          "internalType": "uint32",
          "name": "operatorId",
          "type": "uint32"
        },
        {
          "indexed": true,
          "internalType": "address",
          "name": "ownerAddress",
          "type": "address"
        }
      ],
      "name": "OperatorRemoval",
      "type": "event"
    },
    {
      "anonymous": false,
      "inputs": [
        {
          "indexed": true,
          "internalType": "address",
          "name": "previousOwner",
          "type": "address"
        },
        {
          "indexed": true,
          "internalType": "address",
          "name": "newOwner",
          "type": "address"
        }
      ],
      "name": "OwnershipTransferred",
      "type": "event"
    },
    {
      "inputs": [],
      "name": "owner",
      "outputs": [
        {
          "internalType": "address",
          "name": "",
          "type": "address"
        }
      ],
      "stateMutability": "view",
      "type": "function"
    },
    {
      "inputs": [],
      "name": "renounceOwnership",
      "outputs": [],
      "stateMutability": "nonpayable",
      "type": "function"
    },
    {
      "inputs": [
        {
          "internalType": "address",
          "name": "newOwner",
          "type": "address"
        }
      ],
      "name": "transferOwnership",
      "outputs": [],
      "stateMutability": "nonpayable",
      "type": "function"
    },
    {
      "inputs": [
        {
          "internalType": "uint256",
          "name": "operatorFee",
          "type": "uint256"
        }
      ],
      "name": "initialize",
      "outputs": [],
      "stateMutability": "nonpayable",
      "type": "function"
    },
    {
      "inputs": [
        {
          "internalType": "string",
          "name": "name",
          "type": "string"
        },
        {
          "internalType": "address",
          "name": "ownerAddress",
          "type": "address"
        },
        {
          "internalType": "bytes",
          "name": "publicKey",
          "type": "bytes"
        }
      ],
      "name": "registerOperator",
      "outputs": [
        {
          "internalType": "uint32",
          "name": "operatorId",
          "type": "uint32"
        }
      ],
      "stateMutability": "nonpayable",
      "type": "function"
    },
    {
      "inputs": [
        {
          "internalType": "uint32",
          "name": "operatorId",
          "type": "uint32"
        }
      ],
      "name": "removeOperator",
      "outputs": [],
      "stateMutability": "nonpayable",
      "type": "function"
    },
    {
      "inputs": [
        {
          "internalType": "uint32",
          "name": "operatorId",
          "type": "uint32"
        }
      ],
      "name": "certifyOperatorFromDao",
      "outputs": [],
      "stateMutability": "nonpayable",
      "type": "function"
    },
    {
      "inputs": [
        {
          "internalType": "uint64",
          "name": "fee",
          "type": "uint64"
        }
      ],
      "name": "updateOperatorFee",
      "outputs": [],
      "stateMutability": "nonpayable",
      "type": "function"
    },
    {
      "inputs": [
        {
          "internalType": "uint32",
          "name": "operatorId",
          "type": "uint32"
        },
        {
          "internalType": "uint32",
          "name": "score",
          "type": "uint32"
        }
      ],
      "name": "updateOperatorScore",
      "outputs": [],
      "stateMutability": "nonpayable",
      "type": "function"
    },
    {
      "inputs": [
        {
          "internalType": "address",
          "name": "ownerAddress",
          "type": "address"
        },
        {
          "internalType": "bytes",
          "name": "publicKey",
          "type": "bytes"
        },
        {
          "internalType": "uint32[]",
          "name": "operatorIds",
          "type": "uint32[]"
        },
        {
          "internalType": "bytes[]",
          "name": "sharesPublicKeys",
          "type": "bytes[]"
        },
        {
          "internalType": "bytes[]",
          "name": "sharesEncrypted",
          "type": "bytes[]"
        }
      ],
      "name": "registerValidator",
      "outputs": [],
      "stateMutability": "nonpayable",
      "type": "function"
    },
    {
      "inputs": [
        {
          "internalType": "bytes",
          "name": "publicKey",
          "type": "bytes"
        }
      ],
      "name": "removeValidator",
      "outputs": [],
      "stateMutability": "nonpayable",
      "type": "function"
    },
    {
      "inputs": [
        {
          "internalType": "uint32[]",
          "name": "operatorIds",
          "type": "uint32[]"
        }
      ],
      "name": "registerInitiator",
      "outputs": [
        {
          "internalType": "uint32",
          "name": "initiatorId",
          "type": "uint32"
        }
      ],
      "stateMutability": "nonpayable",
      "type": "function"
    },
    {
      "inputs": [
        {
          "internalType": "address",
          "name": "ownerAddress",
          "type": "address"
        }
      ],
      "name": "enableOwnerValidators",
      "outputs": [],
      "stateMutability": "nonpayable",
      "type": "function"
    },
    {
      "inputs": [
        {
          "internalType": "address",
          "name": "ownerAddress",
          "type": "address"
        }
      ],
      "name": "disableOwnerValidators",
      "outputs": [],
      "stateMutability": "nonpayable",
      "type": "function"
    },
    {
      "inputs": [
        {
          "internalType": "address",
          "name": "ownerAddress",
          "type": "address"
        }
      ],
      "name": "isLiquidated",
      "outputs": [
        {
          "internalType": "bool",
          "name": "",
          "type": "bool"
        }
      ],
      "stateMutability": "view",
      "type": "function"
    },
    {
      "inputs": [
        {
          "internalType": "uint32",
          "name": "operatorId",
          "type": "uint32"
        }
      ],
      "name": "getOperatorById",
      "outputs": [
        {
          "internalType": "string",
          "name": "",
          "type": "string"
        },
        {
          "internalType": "address",
          "name": "",
          "type": "address"
        },
        {
          "internalType": "bytes",
          "name": "",
          "type": "bytes"
        },
        {
          "internalType": "uint256",
          "name": "",
          "type": "uint256"
        },
        {
          "internalType": "uint256",
          "name": "",
          "type": "uint256"
        },
        {
          "internalType": "uint256",
          "name": "",
          "type": "uint256"
        },
        {
          "internalType": "bool",
          "name": "",
          "type": "bool"
        }
      ],
      "stateMutability": "view",
      "type": "function"
    },
    {
      "inputs": [
        {
          "internalType": "address",
          "name": "ownerAddress",
          "type": "address"
        }
      ],
      "name": "getOperatorsByOwnerAddress",
      "outputs": [
        {
          "internalType": "uint32[]",
          "name": "",
          "type": "uint32[]"
        }
      ],
      "stateMutability": "view",
      "type": "function"
    },
    {
      "inputs": [
        {
          "internalType": "bytes",
          "name": "validatorPublicKey",
          "type": "bytes"
        }
      ],
      "name": "getOperatorsByValidator",
      "outputs": [
        {
          "internalType": "uint32[]",
          "name": "operatorIds",
          "type": "uint32[]"
        }
      ],
      "stateMutability": "view",
      "type": "function"
    },
    {
      "inputs": [
        {
          "internalType": "uint32",
          "name": "operatorId",
          "type": "uint32"
        }
      ],
      "name": "getOperatorOwner",
      "outputs": [
        {
          "internalType": "address",
          "name": "",
          "type": "address"
        }
      ],
      "stateMutability": "view",
      "type": "function"
    },
    {
      "inputs": [
        {
          "internalType": "uint32",
          "name": "operatorId",
          "type": "uint32"
        }
      ],
      "name": "getOperatorFee",
      "outputs": [
        {
          "internalType": "uint256",
          "name": "",
          "type": "uint256"
        }
      ],
      "stateMutability": "view",
      "type": "function"
    },
    {
      "inputs": [],
      "name": "activeValidatorCount",
      "outputs": [
        {
          "internalType": "uint32",
          "name": "",
          "type": "uint32"
        }
      ],
      "stateMutability": "view",
      "type": "function"
    },
    {
      "inputs": [
        {
          "internalType": "bytes",
          "name": "publicKey",
          "type": "bytes"
        }
      ],
      "name": "validators",
      "outputs": [
        {
          "internalType": "address",
          "name": "",
          "type": "address"
        },
        {
          "internalType": "bytes",
          "name": "",
          "type": "bytes"
        },
        {
          "internalType": "bool",
          "name": "",
          "type": "bool"
        }
      ],
      "stateMutability": "view",
      "type": "function"
    },
    {
      "inputs": [
        {
          "internalType": "address",
          "name": "ownerAddress",
          "type": "address"
        }
      ],
      "name": "getValidatorsByAddress",
      "outputs": [
        {
          "internalType": "bytes[]",
          "name": "",
          "type": "bytes[]"
        }
      ],
      "stateMutability": "view",
      "type": "function"
    },
    {
      "inputs": [
        {
          "internalType": "bytes",
          "name": "publicKey",
          "type": "bytes"
        }
      ],
      "name": "getValidatorOwner",
      "outputs": [
        {
          "internalType": "address",
          "name": "",
          "type": "address"
        }
      ],
      "stateMutability": "view",
      "type": "function"
    },
    {
      "inputs": [
        {
          "internalType": "uint32",
          "name": "operatorId",
          "type": "uint32"
        }
      ],
      "name": "validatorsPerOperatorCount",
      "outputs": [
        {
          "internalType": "uint32",
          "name": "",
          "type": "uint32"
        }
      ],
      "stateMutability": "view",
      "type": "function"
    },
    {
      "inputs": [],
      "name": "version",
      "outputs": [
        {
          "internalType": "uint32",
          "name": "",
          "type": "uint32"
        }
      ],
      "stateMutability": "pure",
      "type": "function"
    },
    {
      "inputs": [
        {
          "internalType": "uint32",
          "name": "initiatorId",
          "type": "uint32"
        }
      ],
      "name": "getInitiatorById",
      "outputs": [
        {
          "internalType": "address",
          "name": "ownerAddress",
          "type": "address"
        },
        {
          "internalType": "uint32[]",
          "name": "operatorIds",
          "type": "uint32[]"
        },
        {
          "internalType": "bytes",
          "name": "validatorPublicKey",
          "type": "bytes"
        },
        {
          "internalType": "address",
          "name": "minipoolAddress",
          "type": "address"
        },
        {
          "internalType": "enum ISafeStakeRegistry.InitiatorStatus",
          "name": "status",
          "type": "uint8"
        },
        {
          "internalType": "bool",
          "name": "active",
          "type": "bool"
        }
      ],
      "stateMutability": "view",
      "type": "function"
    },
    {
      "inputs": [
        {
          "internalType": "uint32",
          "name": "initiatorId",
          "type": "uint32"
        },
        {
          "internalType": "bytes",
          "name": "validatorPublicKey",
          "type": "bytes"
        },
        {
          "internalType": "address",
          "name": "miniPoolAddress",
          "type": "address"
        }
      ],
      "name": "initiatorPreStake",
      "outputs": [],
      "stateMutability": "nonpayable",
      "type": "function"
    },
    {
      "inputs": [
        {
          "internalType": "uint32",
          "name": "initiatorId",
          "type": "uint32"
        }
      ],
      "name": "initiatorReady",
      "outputs": [],
      "stateMutability": "nonpayable",
      "type": "function"
    },
    {
      "inputs": [
        {
          "internalType": "address",
          "name": "ownerAddress",
          "type": "address"
        },
        {
          "internalType": "uint32",
          "name": "initiatorId",
          "type": "uint32"
        }
      ],
      "name": "initiatorStake",
      "outputs": [],
      "stateMutability": "nonpayable",
      "type": "function"
    },
    {
      "inputs": [
        {
          "internalType": "address",
          "name": "ownerAddress",
          "type": "address"
        }
      ],
      "name": "getInitiatorIdsByOwner",
      "outputs": [
        {
          "internalType": "uint32[]",
          "name": "initiatorIds",
          "type": "uint32[]"
        }
      ],
      "stateMutability": "view",
      "type": "function"
    },
    {
      "inputs": [
        {
          "internalType": "uint32",
          "name": "initiatorId",
          "type": "uint32"
        }
      ],
      "name": "getOperatorsByInitiatorId",
      "outputs": [
        {
          "internalType": "uint32[]",
          "name": "operaotrIds",
          "type": "uint32[]"
        }
      ],
      "stateMutability": "view",
      "type": "function"
    }
  ],
  "bytecode": "0x608060405234801561001057600080fd5b50614e60806100206000396000f3fe608060405234801561001057600080fd5b50600436106101f05760003560e01c80636ba03ef31161010f578063b2f569c5116100a2578063e7b2174811610071578063e7b217481461060a578063f2fde38b1461063a578063f8f08d7f14610656578063fe4b84df14610686576101f0565b8063b2f569c51461055e578063b6aae36a1461057a578063c87b3038146105aa578063d379a5f2146105da576101f0565b80638da5cb5b116100de5780638da5cb5b146104d8578063981ef5e4146104f65780639b4ddb5d14610512578063a3b3f6061461052e576101f0565b80636ba03ef3146104505780636c36511a1461046c578063715018a61461049e5780638a62ca56146104a8576101f0565b806327467a181161018757806345413bf41161015657806345413bf4146103de578063459e8b41146103fa57806354fd4d50146104165780635f10ac3014610434576101f0565b806327467a181461036e5780632e1d2f051461038a5780633429295f146103a657806341d2c0cd146103c2576101f0565b80630e32066a116101c35780630e32066a146102c057806318083de7146102f05780631940d387146103205780632340e8d314610350576101f0565b80630260d443146101f5578063053e83491461022b5780630cb6b5861461025b5780630dc1eeff14610290575b600080fd5b61020f600480360381019061020a91906135ac565b6106a2565b6040516102229796959493929190613733565b60405180910390f35b61024560048036038101906102409190613815565b6108c7565b6040516102529190613920565b60405180910390f35b610275600480360381019061027091906135ac565b610975565b604051610287969594939291906139b9565b60405180910390f35b6102aa60048036038101906102a59190613a54565b610b37565b6040516102b79190613920565b60405180910390f35b6102da60048036038101906102d59190613a54565b610bfa565b6040516102e79190613b8d565b60405180910390f35b61030a60048036038101906103059190613c05565b610d15565b6040516103179190613c61565b60405180910390f35b61033a60048036038101906103359190613cd2565b6111b7565b6040516103479190613c61565b60405180910390f35b61035861169f565b6040516103659190613c61565b60405180910390f35b61038860048036038101906103839190613a54565b6116b9565b005b6103a4600480360381019061039f91906135ac565b611824565b005b6103c060048036038101906103bb9190613d67565b61199e565b005b6103dc60048036038101906103d79190613e1b565b611ac9565b005b6103f860048036038101906103f39190613a54565b611b51565b005b610414600480360381019061040f91906135ac565b611cbc565b005b61041e611dc4565b60405161042b9190613c61565b60405180910390f35b61044e60048036038101906104499190613e48565b611dcd565b005b61046a600480360381019061046591906135ac565b611e94565b005b61048660048036038101906104819190613815565b611f23565b60405161049593929190613e88565b60405180910390f35b6104a6611fdd565b005b6104c260048036038101906104bd9190613a54565b612065565b6040516104cf9190613920565b60405180910390f35b6104e0612128565b6040516104ed9190613ec6565b60405180910390f35b610510600480360381019061050b9190613ee1565b612152565b005b61052c60048036038101906105279190613f77565b6121ab565b005b61054860048036038101906105439190613a54565b61273d565b6040516105559190614073565b60405180910390f35b61057860048036038101906105739190613815565b612796565b005b610594600480360381019061058f91906135ac565b612b58565b6040516105a19190613920565b60405180910390f35b6105c460048036038101906105bf9190613815565b612bfe565b6040516105d19190613ec6565b60405180910390f35b6105f460048036038101906105ef91906135ac565b612c4c565b6040516106019190613c61565b60405180910390f35b610624600480360381019061061f91906135ac565b612c88565b6040516106319190613ec6565b60405180910390f35b610654600480360381019061064f9190613a54565b612cd4565b005b610670600480360381019061066b91906135ac565b612dcb565b60405161067d919061408e565b60405180910390f35b6106a0600480360381019061069b91906140d5565b612e15565b005b6060600060606000806000806000606760008a63ffffffff1663ffffffff1681526020019081526020016000209050806000018160020160089054906101000a900473ffffffffffffffffffffffffffffffffffffffff1682600101606760008d63ffffffff1663ffffffff16815260200190815260200160002060030160049054906101000a900463ffffffff1661075c8560020160009054906101000a900467ffffffffffffffff1667ffffffffffffffff16612eab565b85600201601c9054906101000a900463ffffffff168660030160089054906101000a900460ff1686805461078f90614131565b80601f01602080910402602001604051908101604052809291908181526020018280546107bb90614131565b80156108085780601f106107dd57610100808354040283529160200191610808565b820191906000526020600020905b8154815290600101906020018083116107eb57829003601f168201915b5050505050965084805461081b90614131565b80601f016020809104026020016040519081016040528092919081815260200182805461084790614131565b80156108945780601f1061086957610100808354040283529160200191610894565b820191906000526020600020905b81548152906001019060200180831161087757829003601f168201915b505050505094508363ffffffff1693508163ffffffff169150975097509750975097509750975050919395979092949650565b60606000606884846040516108dd9291906141a1565b908152602001604051809103902090508060000180548060200260200160405190810160405280929190818152602001828054801561096757602002820191906000526020600020906000905b82829054906101000a900463ffffffff1663ffffffff168152602001906004019060208260030104928301926001038202915080841161092a5790505b505050505091505092915050565b6000606080600080600080606c60008963ffffffff1663ffffffff16815260200190815260200160002090508060000160009054906101000a900473ffffffffffffffffffffffffffffffffffffffff1681600101826002018360030160009054906101000a900473ffffffffffffffffffffffffffffffffffffffff168460030160149054906101000a900460ff168560030160159054906101000a900460ff1684805480602002602001604051908101604052809291908181526020018280548015610a8e57602002820191906000526020600020906000905b82829054906101000a900463ffffffff1663ffffffff1681526020019060040190602082600301049283019260010382029150808411610a515790505b50505050509450838054610aa190614131565b80601f0160208091040260200160405190810160405280929190818152602001828054610acd90614131565b8015610b1a5780601f10610aef57610100808354040283529160200191610b1a565b820191906000526020600020905b815481529060010190602001808311610afd57829003601f168201915b505050505093509650965096509650965096505091939550919395565b6060606960008373ffffffffffffffffffffffffffffffffffffffff1673ffffffffffffffffffffffffffffffffffffffff168152602001908152602001600020805480602002602001604051908101604052809291908181526020018280548015610bee57602002820191906000526020600020906000905b82829054906101000a900463ffffffff1663ffffffff1681526020019060040190602082600301049283019260010382029150808411610bb15790505b50505050509050919050565b6060606a60008373ffffffffffffffffffffffffffffffffffffffff1673ffffffffffffffffffffffffffffffffffffffff168152602001908152602001600020600101805480602002602001604051908101604052809291908181526020016000905b82821015610d0a578382906000526020600020018054610c7d90614131565b80601f0160208091040260200160405190810160405280929190818152602001828054610ca990614131565b8015610cf65780601f10610ccb57610100808354040283529160200191610cf6565b820191906000526020600020905b815481529060010190602001808311610cd957829003601f168201915b505050505081526020019060010190610c5e565b505050509050919050565b6000610d1f612ed7565b73ffffffffffffffffffffffffffffffffffffffff16610d3d612128565b73ffffffffffffffffffffffffffffffffffffffff1614610d93576040517f08c379a0000000000000000000000000000000000000000000000000000000008152600401610d8a90614206565b60405180910390fd5b610d9d8383612edf565b610dd3576040517fad73560200000000000000000000000000000000000000000000000000000000815260040160405180910390fd5b3373ffffffffffffffffffffffffffffffffffffffff166067600085856000818110610e0257610e01614226565b5b9050602002016020810190610e1791906135ac565b63ffffffff1663ffffffff16815260200190815260200160002060020160089054906101000a900473ffffffffffffffffffffffffffffffffffffffff1673ffffffffffffffffffffffffffffffffffffffff1614610ea2576040517f09757b9f00000000000000000000000000000000000000000000000000000000815260040160405180910390fd5b610eac6066612f92565b610eb66066612fa8565b90506040518060c001604052803373ffffffffffffffffffffffffffffffffffffffff168152602001848480806020026020016040519081016040528093929190818152602001838360200280828437600081840152601f19601f820116905080830192505050505050508152602001600067ffffffffffffffff811115610f4157610f40614255565b5b6040519080825280601f01601f191660200182016040528015610f735781602001600182028036833780820191505090505b508152602001600073ffffffffffffffffffffffffffffffffffffffff16815260200160006003811115610faa57610fa9613942565b5b815260200160011515815250606c60008363ffffffff1663ffffffff16815260200190815260200160002060008201518160000160006101000a81548173ffffffffffffffffffffffffffffffffffffffff021916908373ffffffffffffffffffffffffffffffffffffffff1602179055506020820151816001019080519060200190611038929190613431565b50604082015181600201908161104e9190614430565b5060608201518160030160006101000a81548173ffffffffffffffffffffffffffffffffffffffff021916908373ffffffffffffffffffffffffffffffffffffffff16021790555060808201518160030160146101000a81548160ff021916908360038111156110c1576110c0613942565b5b021790555060a08201518160030160156101000a81548160ff021916908315150217905550905050606b60003373ffffffffffffffffffffffffffffffffffffffff1673ffffffffffffffffffffffffffffffffffffffff1681526020019081526020016000208190806001815401808255809150506001900390600052602060002090600891828204019190066004029091909190916101000a81548163ffffffff021916908363ffffffff1602179055507f3ed0a993c042af686c0f93773269df3a1874729d2b4fc3f71fdaa684bb2d6755813385856040516111a9949392919061458d565b60405180910390a192915050565b60006111c1612ed7565b73ffffffffffffffffffffffffffffffffffffffff166111df612128565b73ffffffffffffffffffffffffffffffffffffffff1614611235576040517f08c379a000000000000000000000000000000000000000000000000000000000815260040161122c90614206565b60405180910390fd5b600a63ffffffff16606960008673ffffffffffffffffffffffffffffffffffffffff1673ffffffffffffffffffffffffffffffffffffffff16815260200190815260200160002080549050106112b7576040517f69765c9500000000000000000000000000000000000000000000000000000000815260040160405180910390fd5b6000606a60008673ffffffffffffffffffffffffffffffffffffffff1673ffffffffffffffffffffffffffffffffffffffff1681526020019081526020016000206001018054905014611336576040517ffa2e916300000000000000000000000000000000000000000000000000000000815260040160405180910390fd5b6113406065612f92565b61134a6065612fa8565b905060405180610120016040528087878080601f016020809104026020016040519081016040528093929190818152602001838380828437600081840152601f19601f82011690508083019250505050505050815260200184848080601f016020809104026020016040519081016040528093929190818152602001838380828437600081840152601f19601f820116905080830192505050505050508152602001600067ffffffffffffffff1681526020018573ffffffffffffffffffffffffffffffffffffffff168152602001600063ffffffff168152602001606960008773ffffffffffffffffffffffffffffffffffffffff1673ffffffffffffffffffffffffffffffffffffffff1681526020019081526020016000208054905063ffffffff168152602001600063ffffffff16815260200160011515815260200160001515815250606760008363ffffffff1663ffffffff16815260200190815260200160002060008201518160000190816114c59190614628565b5060208201518160010190816114db9190614430565b5060408201518160020160006101000a81548167ffffffffffffffff021916908367ffffffffffffffff16021790555060608201518160020160086101000a81548173ffffffffffffffffffffffffffffffffffffffff021916908373ffffffffffffffffffffffffffffffffffffffff160217905550608082015181600201601c6101000a81548163ffffffff021916908363ffffffff16021790555060a08201518160030160006101000a81548163ffffffff021916908363ffffffff16021790555060c08201518160030160046101000a81548163ffffffff021916908363ffffffff16021790555060e08201518160030160086101000a81548160ff0219169083151502179055506101008201518160030160096101000a81548160ff021916908315150217905550905050606960008573ffffffffffffffffffffffffffffffffffffffff1673ffffffffffffffffffffffffffffffffffffffff1681526020019081526020016000208190806001815401808255809150506001900390600052602060002090600891828204019190066004029091909190916101000a81548163ffffffff021916908363ffffffff16021790555095945050505050565b6000606d60009054906101000a900463ffffffff16905090565b6116c1612ed7565b73ffffffffffffffffffffffffffffffffffffffff166116df612128565b73ffffffffffffffffffffffffffffffffffffffff1614611735576040517f08c379a000000000000000000000000000000000000000000000000000000000815260040161172c90614206565b60405180910390fd5b606a60008273ffffffffffffffffffffffffffffffffffffffff1673ffffffffffffffffffffffffffffffffffffffff16815260200190815260200160002060000160009054906101000a900463ffffffff16606d60008282829054906101000a900463ffffffff166117a89190614729565b92506101000a81548163ffffffff021916908363ffffffff1602179055506001606a60008373ffffffffffffffffffffffffffffffffffffffff1673ffffffffffffffffffffffffffffffffffffffff16815260200190815260200160002060000160046101000a81548160ff02191690831515021790555050565b61182c612ed7565b73ffffffffffffffffffffffffffffffffffffffff1661184a612128565b73ffffffffffffffffffffffffffffffffffffffff16146118a0576040517f08c379a000000000000000000000000000000000000000000000000000000000815260040161189790614206565b60405180910390fd5b6000606760008363ffffffff1663ffffffff16815260200190815260200160002090508060030160089054906101000a900460ff1661190b576040517f0f861bc000000000000000000000000000000000000000000000000000000000815260040160405180910390fd5b60008160030160086101000a81548160ff0219169083151502179055508060020160089054906101000a900473ffffffffffffffffffffffffffffffffffffffff1673ffffffffffffffffffffffffffffffffffffffff167f10b90e3d042178ee9b3e99a849224b4bf4145b9855274073c0c6bca9c5113b7b836040516119929190613c61565b60405180910390a25050565b6119a83385612fb6565b8282606c60008763ffffffff1663ffffffff16815260200190815260200160002060020191826119d992919061476c565b5080606c60008663ffffffff1663ffffffff16815260200190815260200160002060030160006101000a81548173ffffffffffffffffffffffffffffffffffffffff021916908373ffffffffffffffffffffffffffffffffffffffff1602179055506001606c60008663ffffffff1663ffffffff16815260200190815260200160002060030160146101000a81548160ff02191690836003811115611a8157611a80613942565b5b02179055507fd37d31a5a66d534ce3b071e3ee6cf8b7d36a6dd20aa4f08e9cec322b27bd770484848484604051611abb9493929190614869565b60405180910390a150505050565b611ad1612ed7565b73ffffffffffffffffffffffffffffffffffffffff16611aef612128565b73ffffffffffffffffffffffffffffffffffffffff1614611b45576040517f08c379a0000000000000000000000000000000000000000000000000000000008152600401611b3c90614206565b60405180910390fd5b611b4e81613067565b50565b611b59612ed7565b73ffffffffffffffffffffffffffffffffffffffff16611b77612128565b73ffffffffffffffffffffffffffffffffffffffff1614611bcd576040517f08c379a0000000000000000000000000000000000000000000000000000000008152600401611bc490614206565b60405180910390fd5b606a60008273ffffffffffffffffffffffffffffffffffffffff1673ffffffffffffffffffffffffffffffffffffffff16815260200190815260200160002060000160009054906101000a900463ffffffff16606d60008282829054906101000a900463ffffffff16611c4091906148a9565b92506101000a81548163ffffffff021916908363ffffffff1602179055506000606a60008373ffffffffffffffffffffffffffffffffffffffff1673ffffffffffffffffffffffffffffffffffffffff16815260200190815260200160002060000160046101000a81548160ff02191690831515021790555050565b611cc4612ed7565b73ffffffffffffffffffffffffffffffffffffffff16611ce2612128565b73ffffffffffffffffffffffffffffffffffffffff1614611d38576040517f08c379a0000000000000000000000000000000000000000000000000000000008152600401611d2f90614206565b60405180910390fd5b6000606760008363ffffffff1663ffffffff16815260200190815260200160002090508060030160089054906101000a900460ff16611da3576040517f0f861bc000000000000000000000000000000000000000000000000000000000815260040160405180910390fd5b60018160030160096101000a81548160ff0219169083151502179055505050565b60006001905090565b611dd5612ed7565b73ffffffffffffffffffffffffffffffffffffffff16611df3612128565b73ffffffffffffffffffffffffffffffffffffffff1614611e49576040517f08c379a0000000000000000000000000000000000000000000000000000000008152600401611e4090614206565b60405180910390fd5b6000606760008463ffffffff1663ffffffff16815260200190815260200160002090508181600201601c6101000a81548163ffffffff021916908363ffffffff160217905550505050565b611e9e3382612fb6565b6002606c60008363ffffffff1663ffffffff16815260200190815260200160002060030160146101000a81548160ff02191690836003811115611ee457611ee3613942565b5b02179055507fc474edb44e2d7e6c7f20261d61afed24712bcbd6a0799ae5b0786626c47da63c81604051611f189190613c61565b60405180910390a150565b6000606060008060688686604051611f3c9291906141a1565b908152602001604051809103902090508060010160009054906101000a900473ffffffffffffffffffffffffffffffffffffffff1686868360010160189054906101000a900460ff1682828080601f016020809104026020016040519081016040528093929190818152602001838380828437600081840152601f19601f820116905080830192505050505050509150909150935093509350509250925092565b611fe5612ed7565b73ffffffffffffffffffffffffffffffffffffffff16612003612128565b73ffffffffffffffffffffffffffffffffffffffff1614612059576040517f08c379a000000000000000000000000000000000000000000000000000000000815260040161205090614206565b60405180910390fd5b612063600061307b565b565b6060606b60008373ffffffffffffffffffffffffffffffffffffffff1673ffffffffffffffffffffffffffffffffffffffff16815260200190815260200160002080548060200260200160405190810160405280929190818152602001828054801561211c57602002820191906000526020600020906000905b82829054906101000a900463ffffffff1663ffffffff16815260200190600401906020826003010492830192600103820291508084116120df5790505b50505050509050919050565b6000603360009054906101000a900473ffffffffffffffffffffffffffffffffffffffff16905090565b61215c8282612fb6565b6003606c60008363ffffffff1663ffffffff16815260200190815260200160002060030160146101000a81548160ff021916908360038111156121a2576121a1613942565b5b02179055505050565b6121b3612ed7565b73ffffffffffffffffffffffffffffffffffffffff166121d1612128565b73ffffffffffffffffffffffffffffffffffffffff1614612227576040517f08c379a000000000000000000000000000000000000000000000000000000000815260040161221e90614206565b60405180910390fd5b6122378888888888888888613141565b600073ffffffffffffffffffffffffffffffffffffffff16606889896040516122619291906141a1565b908152602001604051809103902060010160009054906101000a900473ffffffffffffffffffffffffffffffffffffffff1673ffffffffffffffffffffffffffffffffffffffff16146122e0576040517f8d09a73e00000000000000000000000000000000000000000000000000000000815260040160405180910390fd5b6000606960008b73ffffffffffffffffffffffffffffffffffffffff1673ffffffffffffffffffffffffffffffffffffffff168152602001908152602001600020805490501461235c576040517f2d67851700000000000000000000000000000000000000000000000000000000815260040160405180910390fd5b6040518060800160405280878780806020026020016040519081016040528093929190818152602001838360200280828437600081840152601f19601f8201169050808301925050505050505081526020018a73ffffffffffffffffffffffffffffffffffffffff168152602001606a60008c73ffffffffffffffffffffffffffffffffffffffff1673ffffffffffffffffffffffffffffffffffffffff1681526020019081526020016000206001018054905063ffffffff16815260200160011515815250606889896040516124349291906141a1565b9081526020016040518091039020600082015181600001908051906020019061245e929190613431565b5060208201518160010160006101000a81548173ffffffffffffffffffffffffffffffffffffffff021916908373ffffffffffffffffffffffffffffffffffffffff16021790555060408201518160010160146101000a81548163ffffffff021916908363ffffffff16021790555060608201518160010160186101000a81548160ff021916908315150217905550905050606a60008a73ffffffffffffffffffffffffffffffffffffffff1673ffffffffffffffffffffffffffffffffffffffff16815260200190815260200160002060010188889091806001815401808255809150506001900390600052602060002001600090919290919290919290919250918261256d92919061476c565b5060005b868690508163ffffffff1610156126f5576067600088888463ffffffff1681811061259f5761259e614226565b5b90506020020160208101906125b491906135ac565b63ffffffff1663ffffffff16815260200190815260200160002060030160089054906101000a900460ff16612615576040517f0f861bc000000000000000000000000000000000000000000000000000000000815260040160405180910390fd5b6107d063ffffffff166067600089898563ffffffff1681811061263b5761263a614226565b5b905060200201602081019061265091906135ac565b63ffffffff1663ffffffff168152602001908152602001600020600301600481819054906101000a900463ffffffff16612689906148e1565b91906101000a81548163ffffffff021916908363ffffffff160217905563ffffffff1611156126e4576040517f6df5ab7600000000000000000000000000000000000000000000000000000000815260040160405180910390fd5b806126ee906148e1565b9050612571565b50606d600081819054906101000a900463ffffffff16612714906148e1565b91906101000a81548163ffffffff021916908363ffffffff160217905550505050505050505050565b6000606a60008373ffffffffffffffffffffffffffffffffffffffff1673ffffffffffffffffffffffffffffffffffffffff16815260200190815260200160002060000160049054906101000a900460ff169050919050565b61279e612ed7565b73ffffffffffffffffffffffffffffffffffffffff166127bc612128565b73ffffffffffffffffffffffffffffffffffffffff1614612812576040517f08c379a000000000000000000000000000000000000000000000000000000000815260040161280990614206565b60405180910390fd5b6000606883836040516128269291906141a1565b9081526020016040518091039020905060005b81600001805490508163ffffffff1610156128fc5760676000836000018363ffffffff168154811061286e5761286d614226565b5b90600052602060002090600891828204019190066004029054906101000a900463ffffffff1663ffffffff1663ffffffff168152602001908152602001600020600301600481819054906101000a900463ffffffff166128cd9061490d565b91906101000a81548163ffffffff021916908363ffffffff160217905550806128f5906148e1565b9050612839565b506000606a60008360010160009054906101000a900473ffffffffffffffffffffffffffffffffffffffff1673ffffffffffffffffffffffffffffffffffffffff1673ffffffffffffffffffffffffffffffffffffffff168152602001908152602001600020600101905080600182805490506129799190614936565b8154811061298a57612989614226565b5b90600052602060002001818360010160149054906101000a900463ffffffff1663ffffffff16815481106129c1576129c0614226565b5b9060005260206000200190816129d79190614995565b508160010160149054906101000a900463ffffffff166068828460010160149054906101000a900463ffffffff1663ffffffff1681548110612a1c57612a1b614226565b5b90600052602060002001604051612a339190614b00565b908152602001604051809103902060010160146101000a81548163ffffffff021916908363ffffffff16021790555080805480612a7357612a72614b17565b5b600190038181906000526020600020016000612a8f91906134e1565b9055606d600081819054906101000a900463ffffffff16612aaf9061490d565b91906101000a81548163ffffffff021916908363ffffffff16021790555060688484604051612adf9291906141a1565b908152602001604051809103902060008082016000612afe9190613521565b6001820160006101000a81549073ffffffffffffffffffffffffffffffffffffffff02191690556001820160146101000a81549063ffffffff02191690556001820160186101000a81549060ff0219169055505050505050565b6060606c60008363ffffffff1663ffffffff168152602001908152602001600020600101805480602002602001604051908101604052809291908181526020018280548015612bf257602002820191906000526020600020906000905b82829054906101000a900463ffffffff1663ffffffff1681526020019060040190602082600301049283019260010382029150808411612bb55790505b50505050509050919050565b600060688383604051612c129291906141a1565b908152602001604051809103902060010160009054906101000a900473ffffffffffffffffffffffffffffffffffffffff16905092915050565b6000606760008363ffffffff1663ffffffff16815260200190815260200160002060030160049054906101000a900463ffffffff169050919050565b6000606760008363ffffffff1663ffffffff16815260200190815260200160002060020160089054906101000a900473ffffffffffffffffffffffffffffffffffffffff169050919050565b612cdc612ed7565b73ffffffffffffffffffffffffffffffffffffffff16612cfa612128565b73ffffffffffffffffffffffffffffffffffffffff1614612d50576040517f08c379a0000000000000000000000000000000000000000000000000000000008152600401612d4790614206565b60405180910390fd5b600073ffffffffffffffffffffffffffffffffffffffff168173ffffffffffffffffffffffffffffffffffffffff1603612dbf576040517f08c379a0000000000000000000000000000000000000000000000000000000008152600401612db690614bb8565b60405180910390fd5b612dc88161307b565b50565b6000606760008363ffffffff1663ffffffff16815260200190815260200160002060030160089054906101000a900460ff16612e0a5760009050612e10565b606e5490505b919050565b6000612e216001613203565b90508015612e45576001600060016101000a81548160ff0219169083151502179055505b612e4e826132f3565b8015612ea75760008060016101000a81548160ff0219169083151502179055507f7f26b83ff96e1f2b6a682f133852f6798a09c465da95921460cefb38474024986001604051612e9e9190614c20565b60405180910390a15b5050565b60006298968067ffffffffffffffff168267ffffffffffffffff16612ed09190614c3b565b9050919050565b600033905090565b6000806000905060005b848490508163ffffffff161015612f8057600085858363ffffffff16818110612f1557612f14614226565b5b9050602002016020810190612f2a91906135ac565b9050606760008263ffffffff1663ffffffff16815260200190815260200160002060030160099054906101000a900460ff1615612f6e5782612f6b90614c7d565b92505b5080612f79906148e1565b9050612ee9565b5060028160ff16101591505092915050565b6001816000016000828254019250508190555050565b600081600001549050919050565b6000606c60008363ffffffff1663ffffffff16815260200190815260200160002060000160009054906101000a900473ffffffffffffffffffffffffffffffffffffffff1690508073ffffffffffffffffffffffffffffffffffffffff168373ffffffffffffffffffffffffffffffffffffffff1614613062576040517fcf66da5400000000000000000000000000000000000000000000000000000000815260040160405180910390fd5b505050565b8067ffffffffffffffff16606e8190555050565b6000603360009054906101000a900473ffffffffffffffffffffffffffffffffffffffff16905081603360006101000a81548173ffffffffffffffffffffffffffffffffffffffff021916908373ffffffffffffffffffffffffffffffffffffffff1602179055508173ffffffffffffffffffffffffffffffffffffffff168173ffffffffffffffffffffffffffffffffffffffff167f8be0079c531659141344cd1fd0a4f28419497f9722a3daafe3b4186f6b6457e060405160405180910390a35050565b6030888890501461317e576040517f637297a400000000000000000000000000000000000000000000000000000000815260040160405180910390fd5b83839050868690501415806131995750818190508686905014155b806131a75750600486869050105b806131c2575060016003878790506131bf9190614cd5565b14155b156131f9576040517f9c920ce000000000000000000000000000000000000000000000000000000000815260040160405180910390fd5b5050505050505050565b60008060019054906101000a900460ff161561327a5760018260ff1614801561323257506132303061335c565b155b613271576040517f08c379a000000000000000000000000000000000000000000000000000000000815260040161326890614d78565b60405180910390fd5b600090506132ee565b8160ff1660008054906101000a900460ff1660ff16106132cf576040517f08c379a00000000000000000000000000000000000000000000000000000000081526004016132c690614d78565b60405180910390fd5b816000806101000a81548160ff021916908360ff160217905550600190505b919050565b600060019054906101000a900460ff16613342576040517f08c379a000000000000000000000000000000000000000000000000000000000815260040161333990614e0a565b60405180910390fd5b61334a61337f565b6133526133e0565b80606e8190555050565b6000808273ffffffffffffffffffffffffffffffffffffffff163b119050919050565b600060019054906101000a900460ff166133ce576040517f08c379a00000000000000000000000000000000000000000000000000000000081526004016133c590614e0a565b60405180910390fd5b6133de6133d9612ed7565b61307b565b565b600060019054906101000a900460ff1661342f576040517f08c379a000000000000000000000000000000000000000000000000000000000815260040161342690614e0a565b60405180910390fd5b565b828054828255906000526020600020906007016008900481019282156134d05791602002820160005b8382111561349e57835183826101000a81548163ffffffff021916908363ffffffff160217905550926020019260040160208160030104928301926001030261345a565b80156134ce5782816101000a81549063ffffffff021916905560040160208160030104928301926001030261349e565b505b5090506134dd9190613549565b5090565b5080546134ed90614131565b6000825580601f106134ff575061351e565b601f01602090049060005260206000209081019061351d9190613549565b5b50565b5080546000825560070160089004906000526020600020908101906135469190613549565b50565b5b8082111561356257600081600090555060010161354a565b5090565b600080fd5b600080fd5b600063ffffffff82169050919050565b61358981613570565b811461359457600080fd5b50565b6000813590506135a681613580565b92915050565b6000602082840312156135c2576135c1613566565b5b60006135d084828501613597565b91505092915050565b600081519050919050565b600082825260208201905092915050565b60005b838110156136135780820151818401526020810190506135f8565b60008484015250505050565b6000601f19601f8301169050919050565b600061363b826135d9565b61364581856135e4565b93506136558185602086016135f5565b61365e8161361f565b840191505092915050565b600073ffffffffffffffffffffffffffffffffffffffff82169050919050565b600061369482613669565b9050919050565b6136a481613689565b82525050565b600081519050919050565b600082825260208201905092915050565b60006136d1826136aa565b6136db81856136b5565b93506136eb8185602086016135f5565b6136f48161361f565b840191505092915050565b6000819050919050565b613712816136ff565b82525050565b60008115159050919050565b61372d81613718565b82525050565b600060e082019050818103600083015261374d818a613630565b905061375c602083018961369b565b818103604083015261376e81886136c6565b905061377d6060830187613709565b61378a6080830186613709565b61379760a0830185613709565b6137a460c0830184613724565b98975050505050505050565b600080fd5b600080fd5b600080fd5b60008083601f8401126137d5576137d46137b0565b5b8235905067ffffffffffffffff8111156137f2576137f16137b5565b5b60208301915083600182028301111561380e5761380d6137ba565b5b9250929050565b6000806020838503121561382c5761382b613566565b5b600083013567ffffffffffffffff81111561384a5761384961356b565b5b613856858286016137bf565b92509250509250929050565b600081519050919050565b600082825260208201905092915050565b6000819050602082019050919050565b61389781613570565b82525050565b60006138a9838361388e565b60208301905092915050565b6000602082019050919050565b60006138cd82613862565b6138d7818561386d565b93506138e28361387e565b8060005b838110156139135781516138fa888261389d565b9750613905836138b5565b9250506001810190506138e6565b5085935050505092915050565b6000602082019050818103600083015261393a81846138c2565b905092915050565b7f4e487b7100000000000000000000000000000000000000000000000000000000600052602160045260246000fd5b6004811061398257613981613942565b5b50565b600081905061399382613971565b919050565b60006139a382613985565b9050919050565b6139b381613998565b82525050565b600060c0820190506139ce600083018961369b565b81810360208301526139e081886138c2565b905081810360408301526139f481876136c6565b9050613a03606083018661369b565b613a1060808301856139aa565b613a1d60a0830184613724565b979650505050505050565b613a3181613689565b8114613a3c57600080fd5b50565b600081359050613a4e81613a28565b92915050565b600060208284031215613a6a57613a69613566565b5b6000613a7884828501613a3f565b91505092915050565b600081519050919050565b600082825260208201905092915050565b6000819050602082019050919050565b600082825260208201905092915050565b6000613ac9826136aa565b613ad38185613aad565b9350613ae38185602086016135f5565b613aec8161361f565b840191505092915050565b6000613b038383613abe565b905092915050565b6000602082019050919050565b6000613b2382613a81565b613b2d8185613a8c565b935083602082028501613b3f85613a9d565b8060005b85811015613b7b5784840389528151613b5c8582613af7565b9450613b6783613b0b565b925060208a01995050600181019050613b43565b50829750879550505050505092915050565b60006020820190508181036000830152613ba78184613b18565b905092915050565b60008083601f840112613bc557613bc46137b0565b5b8235905067ffffffffffffffff811115613be257613be16137b5565b5b602083019150836020820283011115613bfe57613bfd6137ba565b5b9250929050565b60008060208385031215613c1c57613c1b613566565b5b600083013567ffffffffffffffff811115613c3a57613c3961356b565b5b613c4685828601613baf565b92509250509250929050565b613c5b81613570565b82525050565b6000602082019050613c766000830184613c52565b92915050565b60008083601f840112613c9257613c916137b0565b5b8235905067ffffffffffffffff811115613caf57613cae6137b5565b5b602083019150836001820283011115613ccb57613cca6137ba565b5b9250929050565b600080600080600060608688031215613cee57613ced613566565b5b600086013567ffffffffffffffff811115613d0c57613d0b61356b565b5b613d1888828901613c7c565b95509550506020613d2b88828901613a3f565b935050604086013567ffffffffffffffff811115613d4c57613d4b61356b565b5b613d58888289016137bf565b92509250509295509295909350565b60008060008060608587031215613d8157613d80613566565b5b6000613d8f87828801613597565b945050602085013567ffffffffffffffff811115613db057613daf61356b565b5b613dbc878288016137bf565b93509350506040613dcf87828801613a3f565b91505092959194509250565b600067ffffffffffffffff82169050919050565b613df881613ddb565b8114613e0357600080fd5b50565b600081359050613e1581613def565b92915050565b600060208284031215613e3157613e30613566565b5b6000613e3f84828501613e06565b91505092915050565b60008060408385031215613e5f57613e5e613566565b5b6000613e6d85828601613597565b9250506020613e7e85828601613597565b9150509250929050565b6000606082019050613e9d600083018661369b565b8181036020830152613eaf81856136c6565b9050613ebe6040830184613724565b949350505050565b6000602082019050613edb600083018461369b565b92915050565b60008060408385031215613ef857613ef7613566565b5b6000613f0685828601613a3f565b9250506020613f1785828601613597565b9150509250929050565b60008083601f840112613f3757613f366137b0565b5b8235905067ffffffffffffffff811115613f5457613f536137b5565b5b602083019150836020820283011115613f7057613f6f6137ba565b5b9250929050565b600080600080600080600080600060a08a8c031215613f9957613f98613566565b5b6000613fa78c828d01613a3f565b99505060208a013567ffffffffffffffff811115613fc857613fc761356b565b5b613fd48c828d016137bf565b985098505060408a013567ffffffffffffffff811115613ff757613ff661356b565b5b6140038c828d01613baf565b965096505060608a013567ffffffffffffffff8111156140265761402561356b565b5b6140328c828d01613f21565b945094505060808a013567ffffffffffffffff8111156140555761405461356b565b5b6140618c828d01613f21565b92509250509295985092959850929598565b60006020820190506140886000830184613724565b92915050565b60006020820190506140a36000830184613709565b92915050565b6140b2816136ff565b81146140bd57600080fd5b50565b6000813590506140cf816140a9565b92915050565b6000602082840312156140eb576140ea613566565b5b60006140f9848285016140c0565b91505092915050565b7f4e487b7100000000000000000000000000000000000000000000000000000000600052602260045260246000fd5b6000600282049050600182168061414957607f821691505b60208210810361415c5761415b614102565b5b50919050565b600081905092915050565b82818337600083830152505050565b60006141888385614162565b935061419583858461416d565b82840190509392505050565b60006141ae82848661417c565b91508190509392505050565b7f4f776e61626c653a2063616c6c6572206973206e6f7420746865206f776e6572600082015250565b60006141f06020836135e4565b91506141fb826141ba565b602082019050919050565b6000602082019050818103600083015261421f816141e3565b9050919050565b7f4e487b7100000000000000000000000000000000000000000000000000000000600052603260045260246000fd5b7f4e487b7100000000000000000000000000000000000000000000000000000000600052604160045260246000fd5b60008190508160005260206000209050919050565b60006020601f8301049050919050565b600082821b905092915050565b6000600883026142e67fffffffffffffffffffffffffffffffffffffffffffffffffffffffffffffffff826142a9565b6142f086836142a9565b95508019841693508086168417925050509392505050565b6000819050919050565b600061432d614328614323846136ff565b614308565b6136ff565b9050919050565b6000819050919050565b61434783614312565b61435b61435382614334565b8484546142b6565b825550505050565b600090565b614370614363565b61437b81848461433e565b505050565b5b8181101561439f57614394600082614368565b600181019050614381565b5050565b601f8211156143e4576143b581614284565b6143be84614299565b810160208510156143cd578190505b6143e16143d985614299565b830182614380565b50505b505050565b600082821c905092915050565b6000614407600019846008026143e9565b1980831691505092915050565b600061442083836143f6565b9150826002028217905092915050565b614439826136aa565b67ffffffffffffffff81111561445257614451614255565b5b61445c8254614131565b6144678282856143a3565b600060209050601f83116001811461449a5760008415614488578287015190505b6144928582614414565b8655506144fa565b601f1984166144a886614284565b60005b828110156144d0578489015182556001820191506020850194506020810190506144ab565b868310156144ed57848901516144e9601f8916826143f6565b8355505b6001600288020188555050505b505050505050565b6000819050919050565b600061451b6020840184613597565b905092915050565b6000602082019050919050565b600061453c838561386d565b935061454782614502565b8060005b858110156145805761455d828461450c565b614567888261389d565b975061457283614523565b92505060018101905061454b565b5085925050509392505050565b60006060820190506145a26000830187613c52565b6145af602083018661369b565b81810360408301526145c2818486614530565b905095945050505050565b60008190508160005260206000209050919050565b601f821115614623576145f4816145cd565b6145fd84614299565b8101602085101561460c578190505b61462061461885614299565b830182614380565b50505b505050565b614631826135d9565b67ffffffffffffffff81111561464a57614649614255565b5b6146548254614131565b61465f8282856145e2565b600060209050601f8311600181146146925760008415614680578287015190505b61468a8582614414565b8655506146f2565b601f1984166146a0866145cd565b60005b828110156146c8578489015182556001820191506020850194506020810190506146a3565b868310156146e557848901516146e1601f8916826143f6565b8355505b6001600288020188555050505b505050505050565b7f4e487b7100000000000000000000000000000000000000000000000000000000600052601160045260246000fd5b600061473482613570565b915061473f83613570565b9250828203905063ffffffff81111561475b5761475a6146fa565b5b92915050565b600082905092915050565b6147768383614761565b67ffffffffffffffff81111561478f5761478e614255565b5b6147998254614131565b6147a48282856143a3565b6000601f8311600181146147d357600084156147c1578287013590505b6147cb8582614414565b865550614833565b601f1984166147e186614284565b60005b82811015614809578489013582556001820191506020850194506020810190506147e4565b868310156148265784890135614822601f8916826143f6565b8355505b6001600288020188555050505b50505050505050565b600061484883856136b5565b935061485583858461416d565b61485e8361361f565b840190509392505050565b600060608201905061487e6000830187613c52565b818103602083015261489181858761483c565b90506148a0604083018461369b565b95945050505050565b60006148b482613570565b91506148bf83613570565b9250828201905063ffffffff8111156148db576148da6146fa565b5b92915050565b60006148ec82613570565b915063ffffffff8203614902576149016146fa565b5b600182019050919050565b600061491882613570565b91506000820361492b5761492a6146fa565b5b600182039050919050565b6000614941826136ff565b915061494c836136ff565b9250828203905081811115614964576149636146fa565b5b92915050565b60008154905061497981614131565b9050919050565b60008190508160005260206000209050919050565b8181036149a3575050614a7b565b6149ac8261496a565b67ffffffffffffffff8111156149c5576149c4614255565b5b6149cf8254614131565b6149da8282856143a3565b6000601f831160018114614a0957600084156149f7578287015490505b614a018582614414565b865550614a74565b601f198416614a1787614980565b9650614a2286614284565b60005b82811015614a4a57848901548255600182019150600185019450602081019050614a25565b86831015614a675784890154614a63601f8916826143f6565b8355505b6001600288020188555050505b5050505050505b565b60008154614a8a81614131565b614a948186614162565b94506001821660008114614aaf5760018114614ac457614af7565b60ff1983168652811515820286019350614af7565b614acd85614284565b60005b83811015614aef57815481890152600182019150602081019050614ad0565b838801955050505b50505092915050565b6000614b0c8284614a7d565b915081905092915050565b7f4e487b7100000000000000000000000000000000000000000000000000000000600052603160045260246000fd5b7f4f776e61626c653a206e6577206f776e657220697320746865207a65726f206160008201527f6464726573730000000000000000000000000000000000000000000000000000602082015250565b6000614ba26026836135e4565b9150614bad82614b46565b604082019050919050565b60006020820190508181036000830152614bd181614b95565b9050919050565b6000819050919050565b600060ff82169050919050565b6000614c0a614c05614c0084614bd8565b614308565b614be2565b9050919050565b614c1a81614bef565b82525050565b6000602082019050614c356000830184614c11565b92915050565b6000614c46826136ff565b9150614c51836136ff565b9250828202614c5f816136ff565b91508282048414831517614c7657614c756146fa565b5b5092915050565b6000614c8882614be2565b915060ff8203614c9b57614c9a6146fa565b5b600182019050919050565b7f4e487b7100000000000000000000000000000000000000000000000000000000600052601260045260246000fd5b6000614ce0826136ff565b9150614ceb836136ff565b925082614cfb57614cfa614ca6565b5b828206905092915050565b7f496e697469616c697a61626c653a20636f6e747261637420697320616c72656160008201527f647920696e697469616c697a6564000000000000000000000000000000000000602082015250565b6000614d62602e836135e4565b9150614d6d82614d06565b604082019050919050565b60006020820190508181036000830152614d9181614d55565b9050919050565b7f496e697469616c697a61626c653a20636f6e7472616374206973206e6f74206960008201527f6e697469616c697a696e67000000000000000000000000000000000000000000602082015250565b6000614df4602b836135e4565b9150614dff82614d98565b604082019050919050565b60006020820190508181036000830152614e2381614de7565b905091905056fea2646970667358221220267b35e61a561b9a38b40867701fa8645fd955cb93d2abcb8d27a8699aa94d0064736f6c63430008110033",
  "immutableReferences": {},
  "source": "// File: contracts/SafeStakeRegistry.sol\n// SPDX-License-Identifier: GPL-3.0-or-later\npragma solidity ^0.8.2;\n\nimport \"@openzeppelin/contracts/utils/Counters.sol\";\nimport \"@openzeppelin/contracts-upgradeable/access/OwnableUpgradeable.sol\";\nimport \"./utils/VersionedContract.sol\";\nimport \"./utils/Types.sol\";\nimport \"./ISafeStakeRegistry.sol\";\n\ncontract SafeStakeRegistry is Initializable, OwnableUpgradeable, ISafeStakeRegistry, VersionedContract {\n    using Counters for Counters.Counter;\n    using Types256 for uint256;\n    using Types64 for uint64;\n    \n    struct Operator {\n        string name;\n        bytes publicKey;\n        uint64 fee;\n        address ownerAddress;\n        uint32 score;\n        uint32 indexInOwner;\n        uint32 validatorCount;\n        bool active;\n        bool fromParaStateDao;\n    }\n\n    struct Validator {\n        uint32[] operatorIds;\n        address ownerAddress;\n        uint32 indexInOwner;\n        bool active;\n    }\n\n    struct OwnerData {\n        uint32 activeValidatorCount;\n        bool validatorsDisabled;\n        bytes[] validators;\n    }\n\n    struct Initiator {\n        address ownerAddress;\n        uint32[] operatorIds;\n        bytes validatorPublicKey;\n        address miniPoolAddress;\n        InitiatorStatus status;\n        bool active;\n    }\n\n    Counters.Counter private _lastOperatorId;\n    Counters.Counter private _lastInitiatorId;\n\n    mapping(uint32 => Operator) private _operators;\n    mapping(bytes => Validator) private _validators;\n    mapping(address => uint32[]) private _operatorsByOwnerAddress;\n    mapping(address => OwnerData) private _owners;\n    mapping(address => uint32[]) private _initiatorsByOwnerAddress;\n    mapping(uint32 => Initiator) private _initiators;\n\n    uint32 private _activeValidatorCount;\n\n    uint32 constant private VALIDATORS_PER_OPERATOR_LIMIT = 2000;\n    uint32 constant private REGISTERED_OPERATORS_PER_ACCOUNT_LIMIT = 10;\n\n    uint256 private _operatorFee;\n    /**\n     * @dev See {ISafeStakeRegistry-initialize}.\n     */\n    function initialize(uint256 operatorFee) external override initializer {\n        __SafeStakeRegistry_init(operatorFee);\n    }\n\n    function __SafeStakeRegistry_init(uint256 operatorFee) internal onlyInitializing {\n        __Ownable_init_unchained();\n        __SafeStakeRegistry_init_unchained();\n        _operatorFee = operatorFee;\n    }\n\n    function __SafeStakeRegistry_init_unchained() internal onlyInitializing {\n    }\n\n    /**\n     * @dev See {ISafeStakeRegistry-registerOperator}.\n     */\n    function registerOperator(\n        string calldata name,\n        address ownerAddress,\n        bytes calldata publicKey\n    ) external onlyOwner override returns (uint32 operatorId) {\n\n        if (_operatorsByOwnerAddress[ownerAddress].length >= REGISTERED_OPERATORS_PER_ACCOUNT_LIMIT) {\n            revert ExceedRegisteredOperatorsByAccountLimit();\n        }\n\n        if (_owners[ownerAddress].validators.length != 0) {\n            revert AddressUsedByValidator();\n        }\n\n        _lastOperatorId.increment();\n        operatorId = uint32(_lastOperatorId.current());\n        _operators[operatorId] = Operator({name: name, ownerAddress: ownerAddress, publicKey: publicKey, score: 0, fee: 0, active: true, indexInOwner: uint32(_operatorsByOwnerAddress[ownerAddress].length), validatorCount: 0, fromParaStateDao: false});\n        _operatorsByOwnerAddress[ownerAddress].push(operatorId);\n         \n    }\n\n    /**\n     * @dev See {ISafeStakeRegistry-removeOperator}.\n     */\n    function removeOperator(\n        uint32 operatorId\n    ) external onlyOwner override {\n        Operator storage operator = _operators[operatorId];\n\n        if (!operator.active) {\n            revert OperatorDeleted();\n        }\n\n        operator.active = false;\n\n        emit OperatorRemoval(operatorId, operator.ownerAddress);\n    }\n\n    /**\n     * @dev See {ISafeStakeRegistry-certifyOperatorFromDao}.\n     */\n    function certifyOperatorFromDao(uint32 operatorId) external onlyOwner override {\n        Operator storage operator = _operators[operatorId];\n        if (!operator.active) {\n            revert OperatorDeleted();\n        }\n\n        operator.fromParaStateDao = true;\n    }\n\n    /**\n     * @dev See {ISafeStakeRegistry-updateOperatorFee}.\n     */\n    function updateOperatorFee(uint64 fee) external onlyOwner override {\n        _updateOperatorFeeUnsafe(fee);\n    }\n\n    /**\n     * @dev See {ISafeStakeRegistry-updateOperatorScore}.\n     */\n    function updateOperatorScore(uint32 operatorId, uint32 score) external onlyOwner override {\n        Operator storage operator = _operators[operatorId];\n        operator.score = score;\n    }\n\n    /**\n     * @dev See {ISafeStakeRegistry-registerValidator}.\n     */\n    function registerValidator(\n        address ownerAddress,\n        bytes calldata publicKey,\n        uint32[] calldata operatorIds,\n        bytes[] calldata sharesPublicKeys,\n        bytes[] calldata sharesEncrypted\n    ) external onlyOwner override {\n        _validateValidatorParams(\n            publicKey,\n            operatorIds,\n            sharesPublicKeys,\n            sharesEncrypted\n        );\n\n        if (_validators[publicKey].ownerAddress != address(0)) {\n            revert ValidatorAlreadyExists();\n        }\n\n        if (_operatorsByOwnerAddress[ownerAddress].length != 0) {\n            revert AddressUsedByOperator();\n        }\n\n        _validators[publicKey] = Validator({\n            operatorIds: operatorIds,\n            ownerAddress: ownerAddress,\n            indexInOwner: uint32(_owners[ownerAddress].validators.length),\n            active: true\n        });\n\n        _owners[ownerAddress].validators.push(publicKey);\n\n        for (uint32 index = 0; index < operatorIds.length; ++index) {\n            if (!_operators[operatorIds[index]].active) {\n                revert OperatorDeleted();\n            }\n\n            if (++_operators[operatorIds[index]].validatorCount > VALIDATORS_PER_OPERATOR_LIMIT) {\n                revert ExceedValidatorLimit();\n            }\n        }\n        ++_activeValidatorCount;\n    }\n\n    /**\n     * @dev See {ISafeStakeRegistry-removeValidator}.\n     */\n    function removeValidator(\n        bytes calldata publicKey\n    ) external onlyOwner override {\n        Validator storage validator = _validators[publicKey];\n\n        for (uint32 index = 0; index < validator.operatorIds.length; ++index) {\n            --_operators[validator.operatorIds[index]].validatorCount;\n        }\n\n        bytes[] storage ownerValidators = _owners[validator.ownerAddress].validators;\n\n        ownerValidators[validator.indexInOwner] = ownerValidators[ownerValidators.length - 1];\n        _validators[ownerValidators[validator.indexInOwner]].indexInOwner = validator.indexInOwner;\n        ownerValidators.pop();\n\n        --_activeValidatorCount;\n\n        delete _validators[publicKey];\n    }\n\n    /**\n     * @dev See {ISafeStakeRegistry-registerInitiator}.\n     */\n    function registerInitiator(\n        uint32[] calldata operatorIds\n    ) external onlyOwner override returns (uint32 initiatorId) {\n        if (!_checkTwoOperatorsFromParaDao(operatorIds)) {\n            revert NotEnoughParaStateDaoOperators();\n        }\n        if (_operators[operatorIds[0]].ownerAddress != msg.sender) {\n            revert InitiatorIsNotOperator();\n        }\n        _lastInitiatorId.increment();\n        initiatorId = uint32(_lastInitiatorId.current());\n        _initiators[initiatorId] = Initiator({\n            ownerAddress: msg.sender,\n            operatorIds: operatorIds,\n            validatorPublicKey: new bytes(0),\n            miniPoolAddress: address(0),\n            status: InitiatorStatus.INITIALIZING,\n            active: true\n        });\n        _initiatorsByOwnerAddress[msg.sender].push(initiatorId);\n        emit InitiatorRegistration(initiatorId, msg.sender, operatorIds);\n    }\n\n    function enableOwnerValidators(address ownerAddress) external onlyOwner override {\n        _activeValidatorCount += _owners[ownerAddress].activeValidatorCount;\n        _owners[ownerAddress].validatorsDisabled = false;\n    }\n\n    function disableOwnerValidators(address ownerAddress) external onlyOwner override {\n        _activeValidatorCount -= _owners[ownerAddress].activeValidatorCount;\n        _owners[ownerAddress].validatorsDisabled = true;\n    }\n\n    function isLiquidated(address ownerAddress) external view override returns (bool) {\n        return _owners[ownerAddress].validatorsDisabled;\n    }\n\n    /**\n     * @dev See {ISafeStakeRegistry-operators}.\n     */\n    function getOperatorById(uint32 operatorId) external view override returns (string memory, address, bytes memory, uint256, uint256, uint256, bool) {\n        Operator storage operator = _operators[operatorId];\n        return (operator.name, operator.ownerAddress, operator.publicKey, _operators[operatorId].validatorCount, operator.fee.expand(), operator.score, operator.active);\n    }\n\n    /**\n     * @dev See {ISafeStakeRegistry-getOperatorsByOwnerAddress}.\n     */\n    function getOperatorsByOwnerAddress(address ownerAddress) external view override returns (uint32[] memory) {\n        return _operatorsByOwnerAddress[ownerAddress];\n    }\n\n    /**\n     * @dev See {ISafeStakeRegistry-getOperatorsByValidator}.\n     */\n    function getOperatorsByValidator(bytes calldata validatorPublicKey) external view override returns (uint32[] memory operatorIds) {\n        Validator storage validator = _validators[validatorPublicKey];\n\n        return validator.operatorIds;\n    }\n\n    /**\n     * @dev See {ISafeStakeRegistry-getOperatorOwner}.\n     */\n    function getOperatorOwner(uint32 operatorId) external view override returns (address) {\n        return _operators[operatorId].ownerAddress;\n    }\n\n    /**\n     * @dev See {ISafeStakeRegistry-getOperatorFee}.\n     */\n    function getOperatorFee(uint32 operatorId) external view override returns (uint256) {\n        if (!_operators[operatorId].active) {\n            return 0;\n        }\n        return _operatorFee;\n    }\n\n    /**\n     * @dev See {ISafeStakeRegistry-activeValidatorCount}.\n     */\n    function activeValidatorCount() external view override returns (uint32) {\n        return _activeValidatorCount;\n    }\n\n    /**\n     * @dev See {ISafeStakeRegistry-validators}.\n     */\n    function validators(bytes calldata publicKey) external view override returns (address, bytes memory, bool) {\n        Validator storage validator = _validators[publicKey];\n\n        return (validator.ownerAddress, publicKey, validator.active);\n    }\n\n    /**\n     * @dev See {ISafeStakeRegistry-getValidatorsByAddress}.\n     */\n    function getValidatorsByAddress(address ownerAddress) external view override returns (bytes[] memory) {\n        return _owners[ownerAddress].validators;\n    }\n\n    /**\n     * @dev See {ISafeStakeRegistry-getValidatorOwner}.\n     */\n    function getValidatorOwner(bytes calldata publicKey) external view override returns (address) {\n        return _validators[publicKey].ownerAddress;\n    }\n\n    /**\n     * @dev See {ISafeStakeRegistry-validatorsPerOperatorCount}.\n     */\n    function validatorsPerOperatorCount(uint32 operatorId) external view override returns (uint32) {\n        return _operators[operatorId].validatorCount;\n    }\n\n    /**\n     * @dev See {ISafeStakeRegistry-updateOperatorFee}.\n     */\n    function _updateOperatorFeeUnsafe(uint64 fee) private {\n        _operatorFee = fee;\n    }\n\n    /**\n     * @dev Validates the paramss for a validator.\n     * @param publicKey Validator public key.\n     * @param operatorIds Operator operatorIds.\n     * @param sharesPublicKeys Shares public keys.\n     * @param encryptedKeys Encrypted private keys.\n     */\n    function _validateValidatorParams(\n        bytes calldata publicKey,\n        uint32[] calldata operatorIds,\n        bytes[] calldata sharesPublicKeys,\n        bytes[] calldata encryptedKeys\n    ) private pure {\n        if (publicKey.length != 48) {\n            revert InvalidPublicKeyLength();\n        }\n        if (\n            operatorIds.length != sharesPublicKeys.length ||\n            operatorIds.length != encryptedKeys.length ||\n            operatorIds.length < 4 || operatorIds.length % 3 != 1\n        ) {\n            revert OessDataStructureInvalid();\n        }\n    }\n\n    function version() external pure override returns (uint32) {\n        return 1;\n    }\n\n    /**\n     * @dev See {ISafeStakeRegistry-getInitiatorById}.\n     */\n    function getInitiatorById(uint32 initiatorId) external view override returns (address ownerAddress, uint32[] memory operatorIds, bytes memory validatorPublicKey, address minipoolAddress, InitiatorStatus status, bool active) {\n        Initiator storage initiator =  _initiators[initiatorId];\n        return (initiator.ownerAddress, initiator.operatorIds, initiator.validatorPublicKey, initiator.miniPoolAddress, initiator.status, initiator.active);\n    }\n\n    /**\n     * @dev See {ISafeStakeRegistry-initiatorPreStatke}.\n     */\n    function initiatorPreStake(\n        uint32 initiatorId,\n        bytes calldata validatorPublicKey,\n        address miniPoolAddress\n    ) external override {\n        _onlyInitiatorOwner(msg.sender, initiatorId);\n        _initiators[initiatorId].validatorPublicKey = validatorPublicKey;\n        _initiators[initiatorId].miniPoolAddress = miniPoolAddress;\n        _initiators[initiatorId].status = InitiatorStatus.WAITING;\n\n        emit InitiatorMiniPoolCreated(initiatorId, validatorPublicKey, miniPoolAddress);\n    }\n\n    function initiatorReady(\n        uint32 initiatorId\n    ) external override {\n        _onlyInitiatorOwner(msg.sender, initiatorId);\n        _initiators[initiatorId].status = InitiatorStatus.READY;\n        emit InitiatorMiniPoolReady(initiatorId);\n    }\n\n    function initiatorStake(\n        address ownerAddress,\n        uint32 initiatorId\n    ) external override {\n        _onlyInitiatorOwner(ownerAddress, initiatorId);\n        _initiators[initiatorId].status = InitiatorStatus.FINISHED;\n    }\n\n    function getInitiatorIdsByOwner(address ownerAddress) external view override returns (uint32[] memory initiatorIds) {\n        return _initiatorsByOwnerAddress[ownerAddress];\n    }\n\n    function _onlyInitiatorOwner(address ownerAddress, uint32 initiatorId) private view {\n        address initiatorOwner = _initiators[initiatorId].ownerAddress;\n\n        if (ownerAddress != initiatorOwner) {\n            revert CallerNotInitiatorOwner();\n        }\n    }\n\n    function _checkTwoOperatorsFromParaDao(uint32[] calldata operatorIds) private view returns (bool) {\n        uint8 count = 0; \n        for (uint32 index = 0; index < operatorIds.length; ++index) {\n            uint32 operatorId = operatorIds[index];\n            if (_operators[operatorId].fromParaStateDao) {\n                ++count;\n            }\n        }\n        return count >= 2;\n    }\n\n    function getOperatorsByInitiatorId(uint32 initiatorId) external view override returns (uint32[] memory operaotrIds) {\n        return _initiators[initiatorId].operatorIds;\n    }\n\n    uint256[50] ______gap;\n}\n",
  "sourcePath": "/Users/jiangjianlin/Github/safestake-tokenomics/contracts/SafeStakeRegistry.sol",
  "compiler": {
    "name": "solc",
    "version": "0.8.17+commit.8df45f5f.Emscripten.clang"
  },
  "schemaVersion": "3.4.10",
  "updatedAt": "2023-03-19T02:09:26.604Z",
  "devdoc": {
    "kind": "dev",
    "methods": {
      "activeValidatorCount()": {
        "details": "See {ISafeStakeRegistry-activeValidatorCount}."
      },
      "certifyOperatorFromDao(uint32)": {
        "details": "See {ISafeStakeRegistry-certifyOperatorFromDao}."
      },
      "getInitiatorById(uint32)": {
        "details": "See {ISafeStakeRegistry-getInitiatorById}."
      },
      "getOperatorById(uint32)": {
        "details": "See {ISafeStakeRegistry-operators}."
      },
      "getOperatorFee(uint32)": {
        "details": "See {ISafeStakeRegistry-getOperatorFee}."
      },
      "getOperatorOwner(uint32)": {
        "details": "See {ISafeStakeRegistry-getOperatorOwner}."
      },
      "getOperatorsByOwnerAddress(address)": {
        "details": "See {ISafeStakeRegistry-getOperatorsByOwnerAddress}."
      },
      "getOperatorsByValidator(bytes)": {
        "details": "See {ISafeStakeRegistry-getOperatorsByValidator}."
      },
      "getValidatorOwner(bytes)": {
        "details": "See {ISafeStakeRegistry-getValidatorOwner}."
      },
      "getValidatorsByAddress(address)": {
        "details": "See {ISafeStakeRegistry-getValidatorsByAddress}."
      },
      "initialize(uint256)": {
        "details": "See {ISafeStakeRegistry-initialize}."
      },
      "initiatorPreStake(uint32,bytes,address)": {
        "details": "See {ISafeStakeRegistry-initiatorPreStatke}."
      },
      "owner()": {
        "details": "Returns the address of the current owner."
      },
      "registerInitiator(uint32[])": {
        "details": "See {ISafeStakeRegistry-registerInitiator}."
      },
      "registerOperator(string,address,bytes)": {
        "details": "See {ISafeStakeRegistry-registerOperator}."
      },
      "registerValidator(address,bytes,uint32[],bytes[],bytes[])": {
        "details": "See {ISafeStakeRegistry-registerValidator}."
      },
      "removeOperator(uint32)": {
        "details": "See {ISafeStakeRegistry-removeOperator}."
      },
      "removeValidator(bytes)": {
        "details": "See {ISafeStakeRegistry-removeValidator}."
      },
      "renounceOwnership()": {
        "details": "Leaves the contract without owner. It will not be possible to call `onlyOwner` functions anymore. Can only be called by the current owner. NOTE: Renouncing ownership will leave the contract without an owner, thereby removing any functionality that is only available to the owner."
      },
      "transferOwnership(address)": {
        "details": "Transfers ownership of the contract to a new account (`newOwner`). Can only be called by the current owner."
      },
      "updateOperatorFee(uint64)": {
        "details": "See {ISafeStakeRegistry-updateOperatorFee}."
      },
      "updateOperatorScore(uint32,uint32)": {
        "details": "See {ISafeStakeRegistry-updateOperatorScore}."
      },
      "validators(bytes)": {
        "details": "See {ISafeStakeRegistry-validators}."
      },
      "validatorsPerOperatorCount(uint32)": {
        "details": "See {ISafeStakeRegistry-validatorsPerOperatorCount}."
      }
    },
    "version": 1
  },
  "userdoc": {
    "errors": {
      "ExceedRegisteredOperatorsByAccountLimit()": [
        {
          "notice": "errors "
        }
      ]
    },
    "kind": "user",
    "methods": {},
    "version": 1
  },
  "db": {
    "callBytecode": {
      "id": "0xe608a28429cf7d3e6d7d5735b767e44743c116b4c20a7ba98469798a815170a1"
    },
    "createBytecode": {
      "id": "0xdfced15a756fde05a5caec49da8b4a36726243c3bc731c0221f561c1a8f26772"
    },
    "contract": {
      "id": "0xc5ce5dd3d5645d4bed8f05cf09ab39a3a08833939cd4b3a2f0f196a8689b6d93"
    }
  }
}