{
  "_format": "hh-sol-artifact-1",
  "contractName": "SafeStakeNetworkV3",
  "sourceName": "contracts/SafeStakeNetworkV3.sol",
  "abi": [
    {
      "anonymous": false,
      "inputs": [
        {
          "indexed": false,
          "internalType": "uint32[]",
          "name": "operatorIds",
          "type": "uint32[]"
        },
        {
          "indexed": false,
          "internalType": "uint32[]",
          "name": "performance",
          "type": "uint32[]"
        },
        {
          "indexed": false,
          "internalType": "uint256",
          "name": "claimValue",
          "type": "uint256"
        },
        {
          "indexed": false,
          "internalType": "uint256[]",
          "name": "lastClaimBlockNumber",
          "type": "uint256[]"
        },
        {
          "indexed": false,
          "internalType": "uint256",
          "name": "claimBlockNumber",
          "type": "uint256"
        }
      ],
      "name": "AccountClaim",
      "type": "event"
    },
    {
      "anonymous": false,
      "inputs": [
        {
          "indexed": false,
          "internalType": "uint256",
          "name": "value",
          "type": "uint256"
        },
        {
          "indexed": true,
          "internalType": "address",
          "name": "ownerAddress",
          "type": "address"
        },
        {
          "indexed": true,
          "internalType": "address",
          "name": "senderAddress",
          "type": "address"
        }
      ],
      "name": "FundsDeposit",
      "type": "event"
    },
    {
      "anonymous": false,
      "inputs": [
        {
          "indexed": false,
          "internalType": "uint256",
          "name": "value",
          "type": "uint256"
        },
        {
          "indexed": true,
          "internalType": "address",
          "name": "ownerAddress",
          "type": "address"
        }
      ],
      "name": "FundsWithdrawal",
      "type": "event"
    },
    {
      "anonymous": false,
      "inputs": [
        {
          "indexed": false,
          "internalType": "uint8",
          "name": "version",
          "type": "uint8"
        }
      ],
      "name": "Initialized",
      "type": "event"
    },
    {
      "anonymous": false,
      "inputs": [
        {
          "indexed": false,
          "internalType": "uint256",
          "name": "oldFee",
          "type": "uint256"
        },
        {
          "indexed": false,
          "internalType": "uint256",
          "name": "newFee",
          "type": "uint256"
        }
      ],
      "name": "NetworkFeeUpdate",
      "type": "event"
    },
    {
      "anonymous": false,
      "inputs": [
        {
          "indexed": false,
          "internalType": "uint256",
          "name": "value",
          "type": "uint256"
        },
        {
          "indexed": false,
          "internalType": "address",
          "name": "recipient",
          "type": "address"
        }
      ],
      "name": "NetworkFeesWithdrawal",
      "type": "event"
    },
    {
      "anonymous": false,
      "inputs": [
        {
          "indexed": true,
          "internalType": "uint32",
          "name": "id",
          "type": "uint32"
        },
        {
          "indexed": false,
          "internalType": "string",
          "name": "name",
          "type": "string"
        },
        {
          "indexed": true,
          "internalType": "address",
          "name": "ownerAddress",
          "type": "address"
        },
        {
          "indexed": false,
          "internalType": "bytes",
          "name": "publicKey",
          "type": "bytes"
        }
      ],
      "name": "OperatorRegistration",
      "type": "event"
    },
    {
      "anonymous": false,
      "inputs": [
        {
          "indexed": false,
          "internalType": "uint32",
          "name": "operatorId",
          "type": "uint32"
        },
        {
          "indexed": false,
          "internalType": "bytes",
          "name": "publicKey",
          "type": "bytes"
        },
        {
          "indexed": false,
          "internalType": "uint256",
          "name": "endBlockNumber",
          "type": "uint256"
        }
      ],
      "name": "OperatorTaskDetail",
      "type": "event"
    },
    {
      "anonymous": false,
      "inputs": [
        {
          "indexed": true,
          "internalType": "address",
          "name": "ownerAddress",
          "type": "address"
        },
        {
          "indexed": false,
          "internalType": "bytes",
          "name": "publicKey",
          "type": "bytes"
        },
        {
          "indexed": false,
          "internalType": "uint32[]",
          "name": "operatorIds",
          "type": "uint32[]"
        },
        {
          "indexed": false,
          "internalType": "bytes[]",
          "name": "sharesPublicKeys",
          "type": "bytes[]"
        },
        {
          "indexed": false,
          "internalType": "bytes[]",
          "name": "encryptedKeys",
          "type": "bytes[]"
        },
        {
          "indexed": false,
          "internalType": "uint256",
          "name": "paidBlockNumber",
          "type": "uint256"
        }
      ],
      "name": "ValidatorRegistration",
      "type": "event"
    },
    {
      "anonymous": false,
      "inputs": [
        {
          "indexed": true,
          "internalType": "address",
          "name": "ownerAddress",
          "type": "address"
        },
        {
          "indexed": false,
          "internalType": "bytes",
          "name": "publicKey",
          "type": "bytes"
        }
      ],
      "name": "ValidatorRemoval",
      "type": "event"
    },
    {
      "inputs": [],
      "name": "ADMIN_ROLE",
      "outputs": [
        {
          "internalType": "bytes32",
          "name": "",
          "type": "bytes32"
        }
      ],
      "stateMutability": "view",
      "type": "function"
    },
    {
      "inputs": [],
      "name": "MANAGING_OPERATORS_PER_ACCOUNT_LIMIT",
      "outputs": [
        {
          "internalType": "uint16",
          "name": "",
          "type": "uint16"
        }
      ],
      "stateMutability": "view",
      "type": "function"
    },
    {
      "inputs": [],
      "name": "NODE_ROLE",
      "outputs": [
        {
          "internalType": "bytes32",
          "name": "",
          "type": "bytes32"
        }
      ],
      "stateMutability": "view",
      "type": "function"
    },
    {
      "inputs": [],
      "name": "SIGNER_ROLE",
      "outputs": [
        {
          "internalType": "bytes32",
          "name": "",
          "type": "bytes32"
        }
      ],
      "stateMutability": "view",
      "type": "function"
    },
    {
      "inputs": [],
      "name": "_SafeStakeRegistryContract",
      "outputs": [
        {
          "internalType": "contract ISafeStakeRegistryV3",
          "name": "",
          "type": "address"
        }
      ],
      "stateMutability": "view",
      "type": "function"
    },
    {
      "inputs": [
        {
          "internalType": "uint32[]",
          "name": "operatorIds",
          "type": "uint32[]"
        },
        {
          "internalType": "uint256",
          "name": "tokenAmount",
          "type": "uint256"
        }
      ],
      "name": "_checkDepositAmount",
      "outputs": [],
      "stateMutability": "view",
      "type": "function"
    },
    {
      "inputs": [
        {
          "internalType": "uint256",
          "name": "",
          "type": "uint256"
        }
      ],
      "name": "_claimNonce",
      "outputs": [
        {
          "internalType": "bool",
          "name": "",
          "type": "bool"
        }
      ],
      "stateMutability": "view",
      "type": "function"
    },
    {
      "inputs": [
        {
          "internalType": "address",
          "name": "",
          "type": "address"
        }
      ],
      "name": "_disbaledOwner",
      "outputs": [
        {
          "internalType": "bool",
          "name": "",
          "type": "bool"
        }
      ],
      "stateMutability": "view",
      "type": "function"
    },
    {
      "inputs": [],
      "name": "_minimumBlocksValidatorPay",
      "outputs": [
        {
          "internalType": "uint64",
          "name": "",
          "type": "uint64"
        }
      ],
      "stateMutability": "view",
      "type": "function"
    },
    {
      "inputs": [
        {
          "internalType": "uint32",
          "name": "",
          "type": "uint32"
        },
        {
          "internalType": "uint256",
          "name": "",
          "type": "uint256"
        }
      ],
      "name": "_operatorInDatas",
      "outputs": [
        {
          "internalType": "bytes",
          "name": "publicKey",
          "type": "bytes"
        },
        {
          "internalType": "uint256",
          "name": "indexInData",
          "type": "uint256"
        }
      ],
      "stateMutability": "view",
      "type": "function"
    },
    {
      "inputs": [
        {
          "internalType": "address",
          "name": "",
          "type": "address"
        },
        {
          "internalType": "uint256",
          "name": "",
          "type": "uint256"
        }
      ],
      "name": "_operatorInUse",
      "outputs": [
        {
          "internalType": "uint32",
          "name": "operatorId",
          "type": "uint32"
        },
        {
          "internalType": "uint256",
          "name": "index",
          "type": "uint256"
        }
      ],
      "stateMutability": "view",
      "type": "function"
    },
    {
      "inputs": [
        {
          "internalType": "uint32",
          "name": "",
          "type": "uint32"
        },
        {
          "internalType": "bytes",
          "name": "",
          "type": "bytes"
        }
      ],
      "name": "_operatorWorkDetail",
      "outputs": [
        {
          "internalType": "uint256",
          "name": "earnings",
          "type": "uint256"
        },
        {
          "internalType": "uint256",
          "name": "lastBlockNumber",
          "type": "uint256"
        }
      ],
      "stateMutability": "view",
      "type": "function"
    },
    {
      "inputs": [],
      "name": "_token",
      "outputs": [
        {
          "internalType": "contract IERC20",
          "name": "",
          "type": "address"
        }
      ],
      "stateMutability": "view",
      "type": "function"
    },
    {
      "inputs": [
        {
          "internalType": "bytes",
          "name": "",
          "type": "bytes"
        }
      ],
      "name": "_validatorDatas",
      "outputs": [
        {
          "internalType": "uint256",
          "name": "startBlockNumber",
          "type": "uint256"
        },
        {
          "internalType": "uint256",
          "name": "endBlockNumber",
          "type": "uint256"
        },
        {
          "internalType": "uint256",
          "name": "lastOperatorFee",
          "type": "uint256"
        },
        {
          "internalType": "uint256",
          "name": "balance",
          "type": "uint256"
        },
        {
          "internalType": "bool",
          "name": "enable",
          "type": "bool"
        }
      ],
      "stateMutability": "view",
      "type": "function"
    },
    {
      "inputs": [
        {
          "internalType": "address",
          "name": "account",
          "type": "address"
        },
        {
          "internalType": "uint32[]",
          "name": "operatorIds",
          "type": "uint32[]"
        },
        {
          "internalType": "uint32[]",
          "name": "performances",
          "type": "uint32[]"
        },
        {
          "internalType": "uint256",
          "name": "nonce",
          "type": "uint256"
        },
        {
          "internalType": "bytes",
          "name": "signature",
          "type": "bytes"
        }
      ],
      "name": "accountClaimFee",
      "outputs": [],
      "stateMutability": "nonpayable",
      "type": "function"
    },
    {
      "inputs": [
        {
          "internalType": "bytes[]",
          "name": "publicKeys",
          "type": "bytes[]"
        },
        {
          "internalType": "uint32[]",
          "name": "operatorIds",
          "type": "uint32[]"
        },
        {
          "internalType": "bytes[][]",
          "name": "sharesPublicKeys",
          "type": "bytes[][]"
        },
        {
          "internalType": "bytes[][]",
          "name": "sharesEncrypteds",
          "type": "bytes[][]"
        },
        {
          "internalType": "uint32",
          "name": "validatorCount",
          "type": "uint32"
        },
        {
          "internalType": "uint256",
          "name": "eachAmount",
          "type": "uint256"
        }
      ],
      "name": "batchRegisterValidator",
      "outputs": [],
      "stateMutability": "nonpayable",
      "type": "function"
    },
    {
      "inputs": [
        {
          "internalType": "bytes32",
          "name": "role",
          "type": "bytes32"
        }
      ],
      "name": "checkRole",
      "outputs": [],
      "stateMutability": "view",
      "type": "function"
    },
    {
      "inputs": [
        {
          "internalType": "bytes[]",
          "name": "publicKeys",
          "type": "bytes[]"
        },
        {
          "internalType": "uint256[]",
          "name": "eachAmounts",
          "type": "uint256[]"
        },
        {
          "internalType": "uint256",
          "name": "totalAmount",
          "type": "uint256"
        }
      ],
      "name": "deposit",
      "outputs": [],
      "stateMutability": "nonpayable",
      "type": "function"
    },
    {
      "inputs": [
        {
          "internalType": "uint32",
          "name": "operatorId",
          "type": "uint32"
        }
      ],
      "name": "getOperatorEarningsById",
      "outputs": [
        {
          "internalType": "uint256",
          "name": "earnings",
          "type": "uint256"
        }
      ],
      "stateMutability": "view",
      "type": "function"
    },
    {
      "inputs": [
        {
          "internalType": "address",
          "name": "owner",
          "type": "address"
        }
      ],
      "name": "getOperatorEarningsByOwner",
      "outputs": [
        {
          "internalType": "uint256",
          "name": "earnings",
          "type": "uint256"
        }
      ],
      "stateMutability": "view",
      "type": "function"
    },
    {
      "inputs": [
        {
          "internalType": "uint32",
          "name": "operatorId",
          "type": "uint32"
        },
        {
          "internalType": "bytes",
          "name": "publicKey",
          "type": "bytes"
        }
      ],
      "name": "getOperatorEarningsByPublicKey",
      "outputs": [
        {
          "internalType": "uint256",
          "name": "earnings",
          "type": "uint256"
        }
      ],
      "stateMutability": "view",
      "type": "function"
    },
    {
      "inputs": [
        {
          "internalType": "bytes32",
          "name": "role",
          "type": "bytes32"
        },
        {
          "internalType": "address",
          "name": "account",
          "type": "address"
        }
      ],
      "name": "grantRole",
      "outputs": [],
      "stateMutability": "nonpayable",
      "type": "function"
    },
    {
      "inputs": [
        {
          "internalType": "bytes32",
          "name": "role",
          "type": "bytes32"
        },
        {
          "internalType": "address",
          "name": "account",
          "type": "address"
        }
      ],
      "name": "hasRole",
      "outputs": [
        {
          "internalType": "bool",
          "name": "",
          "type": "bool"
        }
      ],
      "stateMutability": "view",
      "type": "function"
    },
    {
      "inputs": [
        {
          "internalType": "contract ISafeStakeRegistryV3",
          "name": "registryAddress_",
          "type": "address"
        },
        {
          "internalType": "contract IERC20",
          "name": "token_",
          "type": "address"
        },
        {
          "internalType": "uint64",
          "name": "minimumBlocksValidatorPay_",
          "type": "uint64"
        },
        {
          "internalType": "uint64",
          "name": "_operatorFee",
          "type": "uint64"
        }
      ],
      "name": "initialize",
      "outputs": [],
      "stateMutability": "nonpayable",
      "type": "function"
    },
    {
      "inputs": [
        {
          "internalType": "bool",
          "name": "withNetworkFee",
          "type": "bool"
        }
      ],
      "name": "operatorFee",
      "outputs": [
        {
          "internalType": "uint256",
          "name": "",
          "type": "uint256"
        }
      ],
      "stateMutability": "view",
      "type": "function"
    },
    {
      "inputs": [
        {
          "internalType": "string",
          "name": "name",
          "type": "string"
        },
        {
          "internalType": "bytes",
          "name": "publicKey",
          "type": "bytes"
        }
      ],
      "name": "registerOperator",
      "outputs": [
        {
          "internalType": "uint32",
          "name": "operatorId",
          "type": "uint32"
        }
      ],
      "stateMutability": "nonpayable",
      "type": "function"
    },
    {
      "inputs": [
        {
          "internalType": "bytes",
          "name": "publicKey",
          "type": "bytes"
        },
        {
          "internalType": "uint32[]",
          "name": "operatorIds",
          "type": "uint32[]"
        },
        {
          "internalType": "bytes[]",
          "name": "sharesPublicKeys",
          "type": "bytes[]"
        },
        {
          "internalType": "bytes[]",
          "name": "sharesEncrypted",
          "type": "bytes[]"
        },
        {
          "internalType": "uint256",
          "name": "amount",
          "type": "uint256"
        }
      ],
      "name": "registerValidator",
      "outputs": [],
      "stateMutability": "nonpayable",
      "type": "function"
    },
    {
      "inputs": [
        {
          "internalType": "bytes[]",
          "name": "publicKeys",
          "type": "bytes[]"
        }
      ],
      "name": "removeValidator",
      "outputs": [],
      "stateMutability": "nonpayable",
      "type": "function"
    },
    {
      "inputs": [
        {
          "internalType": "bytes32",
          "name": "role",
          "type": "bytes32"
        },
        {
          "internalType": "address",
          "name": "account",
          "type": "address"
        }
      ],
      "name": "revokeRole",
      "outputs": [],
      "stateMutability": "nonpayable",
      "type": "function"
    },
    {
      "inputs": [],
      "name": "self",
      "outputs": [
        {
          "internalType": "uint256",
          "name": "networkFee",
          "type": "uint256"
        },
        {
          "internalType": "uint256",
          "name": "networkEarnings",
          "type": "uint256"
        },
        {
          "internalType": "uint256",
          "name": "networkClaimed",
          "type": "uint256"
        },
        {
          "internalType": "uint256",
          "name": "networkPenalty",
          "type": "uint256"
        }
      ],
      "stateMutability": "view",
      "type": "function"
    },
    {
      "inputs": [
        {
          "internalType": "address",
          "name": "_addr",
          "type": "address"
        }
      ],
      "name": "setWhiteAddress",
      "outputs": [],
      "stateMutability": "nonpayable",
      "type": "function"
    },
    {
      "inputs": [
        {
          "internalType": "bytes",
          "name": "sig",
          "type": "bytes"
        }
      ],
      "name": "splitSignature",
      "outputs": [
        {
          "internalType": "uint8",
          "name": "v",
          "type": "uint8"
        },
        {
          "internalType": "bytes32",
          "name": "r",
          "type": "bytes32"
        },
        {
          "internalType": "bytes32",
          "name": "s",
          "type": "bytes32"
        }
      ],
      "stateMutability": "pure",
      "type": "function"
    },
    {
      "inputs": [
        {
          "internalType": "bytes32",
          "name": "role",
          "type": "bytes32"
        },
        {
          "internalType": "address",
          "name": "newOwner",
          "type": "address"
        }
      ],
      "name": "transferOwnership",
      "outputs": [],
      "stateMutability": "nonpayable",
      "type": "function"
    },
    {
      "inputs": [
        {
          "internalType": "uint64",
          "name": "newMinimumBlocksValidatorPay",
          "type": "uint64"
        }
      ],
      "name": "updateMinimumBlocksValidatorPay",
      "outputs": [],
      "stateMutability": "nonpayable",
      "type": "function"
    },
    {
      "inputs": [
        {
          "internalType": "uint256",
          "name": "fee",
          "type": "uint256"
        }
      ],
      "name": "updateNetworkFee",
      "outputs": [],
      "stateMutability": "nonpayable",
      "type": "function"
    },
    {
      "inputs": [],
      "name": "version",
      "outputs": [
        {
          "internalType": "uint32",
          "name": "",
          "type": "uint32"
        }
      ],
      "stateMutability": "pure",
      "type": "function"
    },
    {
      "inputs": [],
      "name": "whitelist",
      "outputs": [
        {
          "internalType": "address",
          "name": "",
          "type": "address"
        }
      ],
      "stateMutability": "view",
      "type": "function"
    },
    {
      "inputs": [],
      "name": "withdraw",
      "outputs": [],
      "stateMutability": "nonpayable",
      "type": "function"
    },
    {
      "inputs": [
        {
          "internalType": "uint256",
          "name": "amount",
          "type": "uint256"
        }
      ],
      "name": "withdrawNetworkEarnings",
      "outputs": [],
      "stateMutability": "nonpayable",
      "type": "function"
    }
  ],
  "bytecode": "0x608060405234801561001057600080fd5b50613816806100206000396000f3fe608060405234801561001057600080fd5b50600436106102ad5760003560e01c80638ad868cb1161017b578063cd1b0d07116100d8578063e2f7cb301161008c578063ecd0c0c311610071578063ecd0c0c31461073f578063ef5d6bbb14610752578063fb8957331461076557600080fd5b8063e2f7cb3014610719578063e40cb19d1461072c57600080fd5b8063d2231741116100bd578063d2231741146106e2578063d547741f146106f3578063dcf311421461070657600080fd5b8063cd1b0d07146106bc578063cfa2e8b2146106cf57600080fd5b80639f794d751161012f578063a7bb580311610114578063a7bb58031461061f578063c0cfe6b914610651578063c5b95190146106a957600080fd5b80639f794d75146105e5578063a1ebf35d146105f857600080fd5b806393e59dc11161016057806393e59dc1146105845780639b4400dd146105af5780639d02ae27146105c257600080fd5b80638ad868cb146104d557806391d148541461054b57600080fd5b806342a61122116102295780637104ddb2116101dd578063822145aa116101c2578063822145aa1461048057806385f79d611461049357806388a774a2146104a657600080fd5b80637104ddb21461042357806375b238fc1461045957600080fd5b806354fd4d501161020e57806354fd4d50146103b55780635c5831e9146103ce5780636fa79f4f146103ef57600080fd5b806342a611221461036f5780634bcbb4b01461038257600080fd5b806327104a7b11610280578063325dee9a11610265578063325dee9a146103415780633927fb6a146103545780633ccfd60b1461036757600080fd5b806327104a7b146103135780632f2ff15d1461032e57600080fd5b806307c9a50e146102b25780630f864923146102c75780631a82aa30146102da5780631f1f9fd514610300575b600080fd5b6102c56102c036600461288e565b61078c565b005b6102c56102d5366004612919565b6107f9565b6102ed6102e8366004612a05565b6108d0565b6040519081526020015b60405180910390f35b6102c561030e366004612a22565b6109d5565b61031b603281565b60405161ffff90911681526020016102f7565b6102c561033c366004612a50565b610a05565b6102ed61034f366004612a80565b610a6e565b6102c5610362366004612be3565b610b8f565b6102c5610c0a565b6102ed61037d366004612cc0565b610cb1565b6103a5610390366004612cc0565b60066020526000908152604090205460ff1681565b60405190151581526020016102f7565b614e205b60405163ffffffff90911681526020016102f7565b6103e16103dc366004612cdd565b610d48565b6040516102f7929190612d59565b60095461040a90600160a01b900467ffffffffffffffff1681565b60405167ffffffffffffffff90911681526020016102f7565b600b54600c54600d54600e546104399392919084565b6040805194855260208501939093529183015260608201526080016102f7565b6102ed7f03783fac2efed8fbc9ad443e592ee30e61d65f471140c10ca155e937b435b76081565b6102c561048e366004612d7b565b610e11565b6103b96104a1366004612e6d565b611330565b6104b96104b4366004612ed9565b61145a565b6040805163ffffffff90931683526020830191909152016102f7565b6105216104e3366004612ef7565b805160208183018101805160028083529383019290940191909120929052815460018301549183015460038401546005909401549193909160ff1685565b6040805195865260208601949094529284019190915260608301521515608082015260a0016102f7565b6103a5610559366004612a50565b60009182526001602090815260408084206001600160a01b0393909316845291905290205460ff1690565b600a54610597906001600160a01b031681565b6040516001600160a01b0390911681526020016102f7565b6102c56105bd366004612f34565b61149d565b6103a56105d0366004612a22565b60076020526000908152604090205460ff1681565b6102c56105f3366004612cc0565b611679565b6102ed7f017e667f4b8c174291d1543c466717566e206df1bfd6f30271055ddafdb18f7281565b61063261062d366004612ef7565b6116d3565b6040805160ff90941684526020840192909252908201526060016102f7565b61069461065f366004612f8c565b600360209081526000928352604090922081518083018401805192815290840192909301919091209152805460019091015482565b604080519283526020830191909152016102f7565b6102c56106b7366004612a22565b611702565b6102ed6106ca366004612f8c565b611728565b6102c56106dd366004612fdc565b6118bc565b6102c56106f0366004612a22565b50565b6102c5610701366004612a50565b61194a565b6102c561071436600461301e565b6119af565b600854610597906001600160a01b031681565b6102c561073a3660046130be565b611a17565b600954610597906001600160a01b031681565b6102c5610760366004612a50565b611a3e565b6102ed7f1f675bff07515f5df96737194ea945c36c41e7b4fcef307b7cd4d0e602a6911181565b7f03783fac2efed8fbc9ad443e592ee30e61d65f471140c10ca155e937b435b7606107b681611702565b506009805467ffffffffffffffff909216600160a01b027fffffffff0000000000000000ffffffffffffffffffffffffffffffffffffffff909216919091179055565b6108123361080d63ffffffff8516846131a0565b611a9e565b60005b8263ffffffff168163ffffffff1610156108c3576108b3338c8c8463ffffffff16818110610845576108456131b7565b905060200281019061085791906131cd565b8c8c8c8c8863ffffffff16818110610871576108716131b7565b90506020028101906108839190613214565b8c8c8a63ffffffff1681811061089b5761089b6131b7565b90506020028101906108ad9190613214565b8b611b81565b6108bc8161325e565b9050610815565b5050505050505050505050565b6000811561095957600b546008546040805163d479ad0560e01b815290516001600160a01b039092169163d479ad05916004808201926020929091908290030181865afa158015610925573d6000803e3d6000fd5b505050506040513d601f19601f820116820180604052508101906109499190613281565b610953919061329a565b92915050565b600860009054906101000a90046001600160a01b03166001600160a01b031663d479ad056040518163ffffffff1660e01b8152600401602060405180830381865afa1580156109ac573d6000803e3d6000fd5b505050506040513d601f19601f820116820180604052508101906109539190613281565b919050565b7f03783fac2efed8fbc9ad443e592ee30e61d65f471140c10ca155e937b435b7606109ff81611702565b50600b55565b3360009081527f331bba8513ee4dd5811afc38fa48458378fe9b930e1c5bd9a2e37d456ee8c897602052604090205460ff16610a6a5760008281526001602081815260408084206001600160a01b0386168552909152909120805460ff191690911790555b5050565b6000805b63ffffffff8084166000908152600560205260409020549082161015610b8957610b6b83600560008663ffffffff1663ffffffff1681526020019081526020016000208363ffffffff1681548110610acc57610acc6131b7565b90600052602060002090600202016000018054610ae8906132ad565b80601f0160208091040260200160405190810160405280929190818152602001828054610b14906132ad565b8015610b615780601f10610b3657610100808354040283529160200191610b61565b820191906000526020600020905b815481529060010190602001808311610b4457829003601f168201915b5050505050611728565b610b75908361329a565b915080610b818161325e565b915050610a72565b50919050565b610b993382611a9e565b60005b83518163ffffffff161015610c0457610bf3848263ffffffff1681518110610bc657610bc66131b7565b6020026020010151848363ffffffff1681518110610be657610be66131b7565b6020026020010151612024565b50610bfd8161325e565b9050610b9c565b50505050565b6008546040516303cf703160e01b81523360048201526001600160a01b03909116906303cf7031906024016020604051808303816000875af1158015610c54573d6000803e3d6000fd5b505050506040513d601f19601f82011682018060405250810190610c7891906132e1565b15610caf5760405162461bcd60e51b8152602060048201526002602482015261463160f01b60448201526064015b60405180910390fd5b565b6000805b6001600160a01b03831660009081526004602052604090205463ffffffff82161015610b89576001600160a01b03831660009081526004602052604090208054610d2c919063ffffffff8416908110610d1057610d106131b7565b600091825260209091206002909102015463ffffffff16610a6e565b610d36908361329a565b9150610d418161325e565b9050610cb5565b60056020528160005260406000208181548110610d6457600080fd5b906000526020600020906002020160009150915050806000018054610d88906132ad565b80601f0160208091040260200160405190810160405280929190818152602001828054610db4906132ad565b8015610e015780601f10610dd657610100808354040283529160200191610e01565b820191906000526020600020905b815481529060010190602001808311610de457829003601f168201915b5050505050908060010154905082565b600082815260076020526040902054829060ff1615610e575760405162461bcd60e51b8152602060048201526002602482015261453160f01b6044820152606401610ca6565b6000610ed7898989898989604051602001610e7796959493929190613344565b60408051601f1981840301815282825280516020918201207f19457468657265756d205369676e6564204d6573736167653a0a33320000000084830152603c8085019190915282518085039091018152605c909301909152815191012090565b90506000610ee5828561225f565b6001600160a01b03811660009081527f427c45ac74610ad1057fc3524fc3fecaa3416dd8aa9baf907541659f889ee436602052604090205490915060ff16610f545760405162461bcd60e51b8152602060048201526002602482015261473160f01b6044820152606401610ca6565b60008060005b63ffffffff81168b11156112475760008c8c8363ffffffff16818110610f8257610f826131b7565b9050602002016020810190610f979190612a80565b905060648b8b8463ffffffff16818110610fb357610fb36131b7565b9050602002016020810190610fc89190612a80565b63ffffffff1611156110015760405162461bcd60e51b8152602060048201526002602482015261239960f11b6044820152606401610ca6565b6000805b63ffffffff80841660009081526005602052604090205490821610156111c3576000600560008563ffffffff1663ffffffff1681526020019081526020016000208263ffffffff168154811061105d5761105d6131b7565b90600052602060002090600202016000018054611079906132ad565b80601f01602080910402602001604051908101604052809291908181526020018280546110a5906132ad565b80156110f25780601f106110c7576101008083540402835291602001916110f2565b820191906000526020600020905b8154815290600101906020018083116110d557829003601f168201915b50505050509050600060028260405161110b919061338e565b908152604080516020928190038301812063ffffffff89166000908152600390945291832091935061113e90859061338e565b90815260200160405180910390209050600043836001015411156111625743611168565b82600101545b82546002850154855492935060009261118190856133aa565b61118b91906131a0565b611195919061329a565b6000845543600185015590506111ab818861329a565b96505050505050806111bc9061325e565b9050611005565b50600060648d8d8663ffffffff168181106111e0576111e06131b7565b90506020020160208101906111f59190612a80565b6112059063ffffffff16846131a0565b61120f91906133d3565b905061121b81836133aa565b611225908661329a565b9450611231818761329a565b9550505050806112409061325e565b9050610f5a565b5080600b600301600082825461125d919061329a565b909155505060095460405163a9059cbb60e01b81526001600160a01b038e81166004830152602482018590529091169063a9059cbb906044016020604051808303816000875af11580156112b5573d6000803e3d6000fd5b505050506040513d601f19601f820116820180604052508101906112d991906132e1565b61130a5760405162461bcd60e51b8152602060048201526002602482015261473360f01b6044820152606401610ca6565b5050506000938452505060076020525060409020805460ff191660011790555050505050565b600854604051631940d38760e01b81526000916001600160a01b031690631940d387906113699088908890339089908990600401613410565b6020604051808303816000875af1158015611388573d6000803e3d6000fd5b505050506040513d601f19601f820116820180604052508101906113ac9190613452565b3360008181526004602081815260408084208151808301835263ffffffff8881168083529585528254828601818152600180830186559489529590972091516002909702909101805463ffffffff19169690911695909517855591519390910192909255905192935090917fa837adf7db87879179d994c48f4275ae84c6ea7ba2ff625b1e121b5a6f42317d9061144a90899089908990899061346f565b60405180910390a3949350505050565b6004602052816000526040600020818154811061147657600080fd5b60009182526020909120600290910201805460019091015463ffffffff9091169250905082565b60006114a960016122de565b905080156114c1576000805461ff0019166101001790555b6114c9612340565b6008805473ffffffffffffffffffffffffffffffffffffffff19166001600160a01b0387811691909117909155600980549186167fffffffff0000000000000000000000000000000000000000000000000000000090921691909117600160a01b67ffffffffffffffff861602179055604080516080810190915280606461155285600a6134a1565b61155c91906134cd565b67ffffffffffffffff1681526000602080830182905260408084018390526060938401929092528351600b55830151600c55820151600d550151600e556008546001600160a01b031663da35a26f83336040517fffffffff0000000000000000000000000000000000000000000000000000000060e085901b16815267ffffffffffffffff90921660048301526001600160a01b03166024820152604401600060405180830381600087803b15801561161457600080fd5b505af1158015611628573d6000803e3d6000fd5b505050508015611672576000805461ff0019169055604051600181527f7f26b83ff96e1f2b6a682f133852f6798a09c465da95921460cefb38474024989060200160405180910390a15b5050505050565b7f03783fac2efed8fbc9ad443e592ee30e61d65f471140c10ca155e937b435b7606116a381611702565b50600a805473ffffffffffffffffffffffffffffffffffffffff19166001600160a01b0392909216919091179055565b600080600083516041146116e657600080fd5b5050506020810151604082015160609092015160001a92909190565b600081815260016020908152604080832033845290915290205460ff166106f057600080fd5b60008060028360405161173b919061338e565b90815260200160405180910390206040518060c001604052908160008201548152602001600182015481526020016002820154815260200160038201548152602001600482018054806020026020016040519081016040528092919081815260200182805480156117f757602002820191906000526020600020906000905b82829054906101000a900463ffffffff1663ffffffff16815260200190600401906020826003010492830192600103820291508084116117ba5790505b50505091835250506005919091015460ff16151560209182015263ffffffff86166000908152600390915260408082209051929350909161183990869061338e565b90815260200160405180910390206040518060400160405290816000820154815260200160018201548152505090506000438360200151111561187c5743611882565b82602001515b90508160000151836040015183602001518361189e91906133aa565b6118a891906131a0565b6118b2919061329a565b9695505050505050565b60005b63ffffffff8116821115611945576119353384848463ffffffff168181106118e9576118e96131b7565b90506020028101906118fb91906131cd565b8080601f0160208091040260200160405190810160405280939291908181526020018383808284376000920191909152506123f492505050565b61193e8161325e565b90506118bf565b505050565b3360009081527f331bba8513ee4dd5811afc38fa48458378fe9b930e1c5bd9a2e37d456ee8c897602052604090205460ff1615610a6a5760008281526001602090815260408083206001600160a01b03851684529091529020805460ff191690555050565b6119b960016108d0565b82516009546119d99190600160a01b900467ffffffffffffffff166131a0565b6119e391906131a0565b811015610a6a5760405162461bcd60e51b8152602060048201526002602482015261433160f01b6044820152606401610ca6565b611a213382611a9e565b611a33338a8a8a8a8a8a8a8a8a611b81565b505050505050505050565b81611a4881611702565b6001600160a01b038216611a5b57600080fd5b506000918252600160208181526040808520338652909152808420805460ff199081169091556001600160a01b0393909316845290922080549091169091179055565b60008111611ad35760405162461bcd60e51b8152602060048201526002602482015261443160f01b6044820152606401610ca6565b6009546040516323b872dd60e01b81526001600160a01b03848116600483015230602483015260448201849052909116906323b872dd906064016020604051808303816000875af1158015611b2c573d6000803e3d6000fd5b505050506040513d601f19601f82011682018060405250810190611b5091906132e1565b610a6a5760405162461bcd60e51b8152602060048201526002602482015261221960f11b6044820152606401610ca6565b6001600160a01b038a1660009081526006602052604090205460ff1615611bcf5760405162461bcd60e51b8152602060048201526002602482015261041360f41b6044820152606401610ca6565b60028989604051611be19291906134f4565b9081526040519081900360200190206005015460ff1615611c295760405162461bcd60e51b8152602060048201526002602482015261413160f01b6044820152606401610ca6565b60048614611c3657600080fd5b600a546001600160a01b031615611ce457600a5460405163a348c28960e01b81523360048201526001600160a01b039091169063a348c28990602401602060405180830381865afa158015611c8f573d6000803e3d6000fd5b505050506040513d601f19601f82011682018060405250810190611cb391906132e1565b611ce45760405162461bcd60e51b8152602060048201526002602482015261209960f11b6044820152606401610ca6565b6040518060c00160405280600081526020016000815260200160008152602001600081526020018888808060200260200160405190810160405280939291908181526020018383602002808284376000920191909152505050908252506001602090910152604051600290611d5c908c908c906134f4565b9081526020016040518091039020600082015181600001556020820151816001015560408201518160020155606082015181600301556080820151816004019080519060200190611dae9291906127b2565b5060a091909101516005909101805460ff191691151591909117905560005b63ffffffff8116871115611f0e57600088888363ffffffff16818110611df557611df56131b7565b9050602002016020810190611e0a9190612a80565b6040805180820182526000808252602080830182905263ffffffff8516825260039052829020915192935091611e43908e908e906134f4565b908152604080519182900360209081018320845181559381015160019094019390935563ffffffff84166000908152600584528190206060601f8f018590049094028301840182529082018d815290928291908f908f9081908501838280828437600092018290525093855250505063ffffffff85168152600560209081526040822054928101929092528354600181018555938152208151919260020201908190611eef9082613552565b506020820151816001015550505080611f079061325e565b9050611dcd565b50600854604051639b4ddb5d60e01b81526001600160a01b0390911690639b4ddb5d90611f4f908d908d908d908d908d908d908d908d908d906004016136a4565b600060405180830381600087803b158015611f6957600080fd5b505af1158015611f7d573d6000803e3d6000fd5b505050506000611fc48a8a8080601f016020809104026020016040519081016040528093929190818152602001838380828437600092019190915250869250612024915050565b90508a6001600160a01b03167f610eb3c1fafe229af536e91b7e00486902d54d54d8d3f0de283a467ac8f985bf8b8b8b8b8b8b8b8b8a60405161200f99989796959493929190613714565b60405180910390a25050505050505050505050565b600080600284604051612037919061338e565b908152602001604051809103902090506000816004018054905061205b60016108d0565b61206591906131a0565b61206f90856133d3565b6004830154600b549192509061208590836131a0565b61208f91906131a0565b600c80546000906120a190849061329a565b90915550506004820154600b546120b890836131a0565b6120c291906131a0565b6120cc90856133aa565b8260030160008282546120df919061329a565b90915550600090505b600483015463ffffffff82161015612206576000836004018263ffffffff1681548110612117576121176131b7565b6000918252602080832060088304015460079092166004026101000a90910463ffffffff168083526003909152604080832090519193509061215a908a9061338e565b908152602001604051809103902090506000612176838a611728565b90508082600001600082825461218c919061329a565b90915550504360018301556003860180548291906000906121ae9084906133aa565b909155505060018601546040517fd699389eec7b3216dc5c9fa741af9f2020fcaea48cefed14654d82474e7b0782916121ea9186918d9161377c565b60405180910390a1505050806121ff9061325e565b90506120e8565b50438083556001830154101561222a57612220814361329a565b6001830155612244565b8082600101600082825461223e919061329a565b90915550505b61224e60006108d0565b600283015550600101549392505050565b60008060008061226e856116d3565b6040805160008152602081018083528b905260ff8516918101919091526060810183905260808101829052929550909350915060019060a0016020604051602081039080840390855afa1580156122c9573d6000803e3d6000fd5b5050604051601f190151979650505050505050565b60008054610100900460ff1615612312578160ff1660011480156123015750303b155b61230a57600080fd5b506000919050565b60005460ff80841691161061232657600080fd5b506000805460ff191660ff92909216919091179055600190565b600054610100900460ff1661235457600080fd5b3360009081527f331bba8513ee4dd5811afc38fa48458378fe9b930e1c5bd9a2e37d456ee8c897602090815260408083208054600160ff1991821681179092557f911c709b9be4f1ae2b9f62542e6578f826afdf6fa62cd1aac81cae683df0add2845282852080548216831790557f427c45ac74610ad1057fc3524fc3fecaa3416dd8aa9baf907541659f889ee436909352922080549091169091179055565b60085460405163c0e1e15960e01b81526001600160a01b039091169063c0e1e1599061242690859085906004016137ab565b6020604051808303816000875af1158015612445573d6000803e3d6000fd5b505050506040513d601f19601f8201168201806040525081019061246991906132e1565b151560011461249f5760405162461bcd60e51b8152602060048201526002602482015261423160f01b6044820152606401610ca6565b60006002826040516124b1919061338e565b908152604051908190036020019020600581015490915060ff1615156001146125015760405162461bcd60e51b8152602060048201526002602482015261211960f11b6044820152606401610ca6565b61250c826000612024565b5060005b600482015463ffffffff82161015612623576000826004018263ffffffff168154811061253f5761253f6131b7565b6000918252602080832060088304015460079092166004026101000a90910463ffffffff168083526003909152604080832090519193509061258290879061338e565b90815260200160405180910390209050600043856001015411156125a657436125ac565b84600101545b9050600085600201548360010154836125c591906133aa565b6125cf91906131a0565b9050808360000160008282546125e5919061329a565b90915550504360018401556003860180548291906000906126079084906133aa565b92505081905550505050508061261c9061325e565b9050612510565b506003810154156126e357600954600382015460405163a9059cbb60e01b81526001600160a01b038681166004830152602482019290925291169063a9059cbb906044016020604051808303816000875af1158015612686573d6000803e3d6000fd5b505050506040513d601f19601f820116820180604052508101906126aa91906132e1565b6126db5760405162461bcd60e51b8152602060048201526002602482015261423360f01b6044820152606401610ca6565b600060038201555b6126ed60006108d0565b60028201554360018201819055815560085460405163b2f569c560e01b81526001600160a01b039091169063b2f569c59061272c9085906004016137cd565b600060405180830381600087803b15801561274657600080fd5b505af115801561275a573d6000803e3d6000fd5b50505060058201805460ff19169055506040516001600160a01b038416907f671ada3835502b9498e4a3116c344293ec3a4ef43f90bb42283d7d66a3f772b2906127a59085906137cd565b60405180910390a2505050565b828054828255906000526020600020906007016008900481019282156128515791602002820160005b8382111561281f57835183826101000a81548163ffffffff021916908363ffffffff16021790555092602001926004016020816003010492830192600103026127db565b801561284f5782816101000a81549063ffffffff021916905560040160208160030104928301926001030261281f565b505b5061285d929150612861565b5090565b5b8082111561285d5760008155600101612862565b803567ffffffffffffffff811681146109d057600080fd5b6000602082840312156128a057600080fd5b6128a982612876565b9392505050565b60008083601f8401126128c257600080fd5b50813567ffffffffffffffff8111156128da57600080fd5b6020830191508360208260051b85010111156128f557600080fd5b9250929050565b63ffffffff811681146106f057600080fd5b80356109d0816128fc565b60008060008060008060008060008060c08b8d03121561293857600080fd5b8a3567ffffffffffffffff8082111561295057600080fd5b61295c8e838f016128b0565b909c509a5060208d013591508082111561297557600080fd5b6129818e838f016128b0565b909a50985060408d013591508082111561299a57600080fd5b6129a68e838f016128b0565b909850965060608d01359150808211156129bf57600080fd5b506129cc8d828e016128b0565b90955093506129df905060808c0161290e565b915060a08b013590509295989b9194979a5092959850565b80151581146106f057600080fd5b600060208284031215612a1757600080fd5b81356128a9816129f7565b600060208284031215612a3457600080fd5b5035919050565b6001600160a01b03811681146106f057600080fd5b60008060408385031215612a6357600080fd5b823591506020830135612a7581612a3b565b809150509250929050565b600060208284031215612a9257600080fd5b81356128a9816128fc565b634e487b7160e01b600052604160045260246000fd5b604051601f8201601f1916810167ffffffffffffffff81118282101715612adc57612adc612a9d565b604052919050565b600067ffffffffffffffff821115612afe57612afe612a9d565b5060051b60200190565b600082601f830112612b1957600080fd5b813567ffffffffffffffff811115612b3357612b33612a9d565b612b46601f8201601f1916602001612ab3565b818152846020838601011115612b5b57600080fd5b816020850160208301376000918101602001919091529392505050565b600082601f830112612b8957600080fd5b81356020612b9e612b9983612ae4565b612ab3565b82815260059290921b84018101918181019086841115612bbd57600080fd5b8286015b84811015612bd85780358352918301918301612bc1565b509695505050505050565b600080600060608486031215612bf857600080fd5b833567ffffffffffffffff80821115612c1057600080fd5b818601915086601f830112612c2457600080fd5b81356020612c34612b9983612ae4565b82815260059290921b8401810191818101908a841115612c5357600080fd5b8286015b84811015612c8b57803586811115612c6f5760008081fd5b612c7d8d86838b0101612b08565b845250918301918301612c57565b5097505087013592505080821115612ca257600080fd5b50612caf86828701612b78565b925050604084013590509250925092565b600060208284031215612cd257600080fd5b81356128a981612a3b565b60008060408385031215612cf057600080fd5b8235612cfb816128fc565b946020939093013593505050565b60005b83811015612d24578181015183820152602001612d0c565b50506000910152565b60008151808452612d45816020860160208601612d09565b601f01601f19169290920160200192915050565b604081526000612d6c6040830185612d2d565b90508260208301529392505050565b600080600080600080600060a0888a031215612d9657600080fd5b8735612da181612a3b565b9650602088013567ffffffffffffffff80821115612dbe57600080fd5b612dca8b838c016128b0565b909850965060408a0135915080821115612de357600080fd5b612def8b838c016128b0565b909650945060608a0135935060808a0135915080821115612e0f57600080fd5b50612e1c8a828b01612b08565b91505092959891949750929550565b60008083601f840112612e3d57600080fd5b50813567ffffffffffffffff811115612e5557600080fd5b6020830191508360208285010111156128f557600080fd5b60008060008060408587031215612e8357600080fd5b843567ffffffffffffffff80821115612e9b57600080fd5b612ea788838901612e2b565b90965094506020870135915080821115612ec057600080fd5b50612ecd87828801612e2b565b95989497509550505050565b60008060408385031215612eec57600080fd5b8235612cfb81612a3b565b600060208284031215612f0957600080fd5b813567ffffffffffffffff811115612f2057600080fd5b612f2c84828501612b08565b949350505050565b60008060008060808587031215612f4a57600080fd5b8435612f5581612a3b565b93506020850135612f6581612a3b565b9250612f7360408601612876565b9150612f8160608601612876565b905092959194509250565b60008060408385031215612f9f57600080fd5b8235612faa816128fc565b9150602083013567ffffffffffffffff811115612fc657600080fd5b612fd285828601612b08565b9150509250929050565b60008060208385031215612fef57600080fd5b823567ffffffffffffffff81111561300657600080fd5b613012858286016128b0565b90969095509350505050565b6000806040838503121561303157600080fd5b823567ffffffffffffffff81111561304857600080fd5b8301601f8101851361305957600080fd5b80356020613069612b9983612ae4565b82815260059290921b8301810191818101908884111561308857600080fd5b938201935b838510156130af5784356130a0816128fc565b8252938201939082019061308d565b98969091013596505050505050565b600080600080600080600080600060a08a8c0312156130dc57600080fd5b893567ffffffffffffffff808211156130f457600080fd5b6131008d838e01612e2b565b909b50995060208c013591508082111561311957600080fd5b6131258d838e016128b0565b909950975060408c013591508082111561313e57600080fd5b61314a8d838e016128b0565b909750955060608c013591508082111561316357600080fd5b506131708c828d016128b0565b9a9d999c50979a9699959894979660800135949350505050565b634e487b7160e01b600052601160045260246000fd5b80820281158282048414176109535761095361318a565b634e487b7160e01b600052603260045260246000fd5b6000808335601e198436030181126131e457600080fd5b83018035915067ffffffffffffffff8211156131ff57600080fd5b6020019150368190038213156128f557600080fd5b6000808335601e1984360301811261322b57600080fd5b83018035915067ffffffffffffffff82111561324657600080fd5b6020019150600581901b36038213156128f557600080fd5b600063ffffffff8083168181036132775761327761318a565b6001019392505050565b60006020828403121561329357600080fd5b5051919050565b808201808211156109535761095361318a565b600181811c908216806132c157607f821691505b602082108103610b8957634e487b7160e01b600052602260045260246000fd5b6000602082840312156132f357600080fd5b81516128a9816129f7565b8183526000602080850194508260005b85811015613339578135613321816128fc565b63ffffffff168752958201959082019060010161330e565b509495945050505050565b6001600160a01b03871681526080602082015260006133676080830187896132fe565b828103604084015261337a8186886132fe565b915050826060830152979650505050505050565b600082516133a0818460208701612d09565b9190910192915050565b818103818111156109535761095361318a565b634e487b7160e01b600052601260045260246000fd5b6000826133e2576133e26133bd565b500490565b81835281816020850137506000828201602090810191909152601f909101601f19169091010190565b6060815260006134246060830187896133e7565b6001600160a01b038616602084015282810360408401526134468185876133e7565b98975050505050505050565b60006020828403121561346457600080fd5b81516128a9816128fc565b6040815260006134836040830186886133e7565b82810360208401526134968185876133e7565b979650505050505050565b67ffffffffffffffff8181168382160280821691908281146134c5576134c561318a565b505092915050565b600067ffffffffffffffff808416806134e8576134e86133bd565b92169190910492915050565b8183823760009101908152919050565b601f82111561194557600081815260208120601f850160051c8101602086101561352b5750805b601f850160051c820191505b8181101561354a57828155600101613537565b505050505050565b815167ffffffffffffffff81111561356c5761356c612a9d565b6135808161357a84546132ad565b84613504565b602080601f8311600181146135b5576000841561359d5750858301515b600019600386901b1c1916600185901b17855561354a565b600085815260208120601f198616915b828110156135e4578886015182559484019460019091019084016135c5565b50858210156136025787850151600019600388901b60f8161c191681555b5050505050600190811b01905550565b81835260006020808501808196508560051b810191508460005b878110156136975782840389528135601e1988360301811261364d57600080fd5b8701858101903567ffffffffffffffff81111561366957600080fd5b80360382131561367857600080fd5b6136838682846133e7565b9a87019a955050509084019060010161362c565b5091979650505050505050565b6001600160a01b038a16815260a0602082015260006136c760a083018a8c6133e7565b82810360408401526136da81898b6132fe565b905082810360608401526136ef818789613612565b90508281036080840152613704818587613612565b9c9b505050505050505050505050565b60a08152600061372860a083018b8d6133e7565b828103602084015261373b818a8c6132fe565b9050828103604084015261375081888a613612565b90508281036060840152613765818688613612565b9150508260808301529a9950505050505050505050565b63ffffffff8416815260606020820152600061379b6060830185612d2d565b9050826040830152949350505050565b6001600160a01b0383168152604060208201526000612f2c6040830184612d2d565b6020815260006128a96020830184612d2d56fea2646970667358221220c6862c48f8af003c6f3951d025cf8539f4635ad711c740f5249def8ccdc6ea1864736f6c63430008130033",
  "linkReferences": {},
  "deployedLinkReferences": {}
}