{
  "_format": "hh-sol-artifact-1",
  "contractName": "SafeStakeRegistryV2",
  "sourceName": "contracts/SafeStakeRegistryV2.sol",
  "abi": [
    {
      "anonymous": false,
      "inputs": [
        {
          "indexed": false,
          "internalType": "uint8",
          "name": "version",
          "type": "uint8"
        }
      ],
      "name": "Initialized",
      "type": "event"
    },
    {
      "anonymous": false,
      "inputs": [
        {
          "indexed": false,
          "internalType": "uint32",
          "name": "initiatorId",
          "type": "uint32"
        },
        {
          "indexed": false,
          "internalType": "bytes",
          "name": "validatorPublicKey",
          "type": "bytes"
        },
        {
          "indexed": false,
          "internalType": "address",
          "name": "minipoolAddress",
          "type": "address"
        }
      ],
      "name": "InitiatorMiniPoolCreated",
      "type": "event"
    },
    {
      "anonymous": false,
      "inputs": [
        {
          "indexed": false,
          "internalType": "uint32",
          "name": "initiatorId",
          "type": "uint32"
        }
      ],
      "name": "InitiatorMiniPoolReady",
      "type": "event"
    },
    {
      "anonymous": false,
      "inputs": [
        {
          "indexed": false,
          "internalType": "uint32",
          "name": "initiatorId",
          "type": "uint32"
        },
        {
          "indexed": false,
          "internalType": "address",
          "name": "ownerAddress",
          "type": "address"
        },
        {
          "indexed": false,
          "internalType": "uint32[]",
          "name": "operatorIds",
          "type": "uint32[]"
        }
      ],
      "name": "InitiatorRegistration",
      "type": "event"
    },
    {
      "anonymous": false,
      "inputs": [
        {
          "indexed": false,
          "internalType": "uint32",
          "name": "initiatorId",
          "type": "uint32"
        }
      ],
      "name": "InitiatorRemoval",
      "type": "event"
    },
    {
      "anonymous": false,
      "inputs": [
        {
          "indexed": false,
          "internalType": "uint32",
          "name": "operatorId",
          "type": "uint32"
        }
      ],
      "name": "OperatorCertifiedFromDao",
      "type": "event"
    },
    {
      "anonymous": false,
      "inputs": [
        {
          "indexed": false,
          "internalType": "uint32",
          "name": "operatorId",
          "type": "uint32"
        },
        {
          "indexed": true,
          "internalType": "address",
          "name": "ownerAddress",
          "type": "address"
        }
      ],
      "name": "OperatorRemoval",
      "type": "event"
    },
    {
      "anonymous": false,
      "inputs": [
        {
          "indexed": false,
          "internalType": "uint32",
          "name": "operatorId",
          "type": "uint32"
        }
      ],
      "name": "OperatorVerified",
      "type": "event"
    },
    {
      "inputs": [],
      "name": "ADMIN_ROLE",
      "outputs": [
        {
          "internalType": "bytes32",
          "name": "",
          "type": "bytes32"
        }
      ],
      "stateMutability": "view",
      "type": "function"
    },
    {
      "inputs": [],
      "name": "NODE_ROLE",
      "outputs": [
        {
          "internalType": "bytes32",
          "name": "",
          "type": "bytes32"
        }
      ],
      "stateMutability": "view",
      "type": "function"
    },
    {
      "inputs": [],
      "name": "REGISTERED_OPERATORS_PER_ACCOUNT_LIMIT",
      "outputs": [
        {
          "internalType": "uint32",
          "name": "",
          "type": "uint32"
        }
      ],
      "stateMutability": "view",
      "type": "function"
    },
    {
      "inputs": [],
      "name": "SIGNER_ROLE",
      "outputs": [
        {
          "internalType": "bytes32",
          "name": "",
          "type": "bytes32"
        }
      ],
      "stateMutability": "view",
      "type": "function"
    },
    {
      "inputs": [],
      "name": "VALIDATORS_PER_OPERATOR_LIMIT",
      "outputs": [
        {
          "internalType": "uint32",
          "name": "",
          "type": "uint32"
        }
      ],
      "stateMutability": "view",
      "type": "function"
    },
    {
      "inputs": [],
      "name": "_activeValidatorCount",
      "outputs": [
        {
          "internalType": "uint32",
          "name": "",
          "type": "uint32"
        }
      ],
      "stateMutability": "view",
      "type": "function"
    },
    {
      "inputs": [
        {
          "internalType": "uint32",
          "name": "",
          "type": "uint32"
        }
      ],
      "name": "_initiators",
      "outputs": [
        {
          "internalType": "address",
          "name": "ownerAddress",
          "type": "address"
        },
        {
          "internalType": "bytes",
          "name": "validatorPublicKey",
          "type": "bytes"
        },
        {
          "internalType": "address",
          "name": "miniPoolAddress",
          "type": "address"
        },
        {
          "internalType": "enum ISafeStakeRegistry.InitiatorStatus",
          "name": "status",
          "type": "uint8"
        },
        {
          "internalType": "bool",
          "name": "active",
          "type": "bool"
        }
      ],
      "stateMutability": "view",
      "type": "function"
    },
    {
      "inputs": [
        {
          "internalType": "address",
          "name": "",
          "type": "address"
        },
        {
          "internalType": "uint256",
          "name": "",
          "type": "uint256"
        }
      ],
      "name": "_initiatorsByOwnerAddress",
      "outputs": [
        {
          "internalType": "uint32",
          "name": "",
          "type": "uint32"
        }
      ],
      "stateMutability": "view",
      "type": "function"
    },
    {
      "inputs": [],
      "name": "_lastInitiatorId",
      "outputs": [
        {
          "internalType": "uint256",
          "name": "_value",
          "type": "uint256"
        }
      ],
      "stateMutability": "view",
      "type": "function"
    },
    {
      "inputs": [],
      "name": "_lastOperatorId",
      "outputs": [
        {
          "internalType": "uint256",
          "name": "_value",
          "type": "uint256"
        }
      ],
      "stateMutability": "view",
      "type": "function"
    },
    {
      "inputs": [],
      "name": "_operatorFee",
      "outputs": [
        {
          "internalType": "uint256",
          "name": "",
          "type": "uint256"
        }
      ],
      "stateMutability": "view",
      "type": "function"
    },
    {
      "inputs": [
        {
          "internalType": "uint32",
          "name": "",
          "type": "uint32"
        }
      ],
      "name": "_operators",
      "outputs": [
        {
          "internalType": "string",
          "name": "name",
          "type": "string"
        },
        {
          "internalType": "bytes",
          "name": "publicKey",
          "type": "bytes"
        },
        {
          "internalType": "address",
          "name": "ownerAddress",
          "type": "address"
        },
        {
          "internalType": "uint32",
          "name": "score",
          "type": "uint32"
        },
        {
          "internalType": "uint32",
          "name": "indexInOwner",
          "type": "uint32"
        },
        {
          "internalType": "uint32",
          "name": "validatorCount",
          "type": "uint32"
        },
        {
          "internalType": "bool",
          "name": "active",
          "type": "bool"
        },
        {
          "internalType": "bool",
          "name": "fromParaStateDao",
          "type": "bool"
        },
        {
          "internalType": "bool",
          "name": "verified",
          "type": "bool"
        }
      ],
      "stateMutability": "view",
      "type": "function"
    },
    {
      "inputs": [
        {
          "internalType": "address",
          "name": "",
          "type": "address"
        },
        {
          "internalType": "uint256",
          "name": "",
          "type": "uint256"
        }
      ],
      "name": "_operatorsByOwnerAddress",
      "outputs": [
        {
          "internalType": "uint32",
          "name": "",
          "type": "uint32"
        }
      ],
      "stateMutability": "view",
      "type": "function"
    },
    {
      "inputs": [
        {
          "internalType": "address",
          "name": "",
          "type": "address"
        }
      ],
      "name": "_owners",
      "outputs": [
        {
          "internalType": "uint32",
          "name": "activeValidatorCount",
          "type": "uint32"
        },
        {
          "internalType": "bool",
          "name": "validatorsDisabled",
          "type": "bool"
        }
      ],
      "stateMutability": "view",
      "type": "function"
    },
    {
      "inputs": [
        {
          "internalType": "bytes",
          "name": "",
          "type": "bytes"
        }
      ],
      "name": "_validators",
      "outputs": [
        {
          "internalType": "address",
          "name": "ownerAddress",
          "type": "address"
        },
        {
          "internalType": "uint32",
          "name": "indexInOwner",
          "type": "uint32"
        },
        {
          "internalType": "bool",
          "name": "active",
          "type": "bool"
        }
      ],
      "stateMutability": "view",
      "type": "function"
    },
    {
      "inputs": [],
      "name": "activeValidatorCount",
      "outputs": [
        {
          "internalType": "uint32",
          "name": "",
          "type": "uint32"
        }
      ],
      "stateMutability": "view",
      "type": "function"
    },
    {
      "inputs": [
        {
          "internalType": "uint32",
          "name": "operatorId",
          "type": "uint32"
        }
      ],
      "name": "certifyOperatorFromDao",
      "outputs": [],
      "stateMutability": "nonpayable",
      "type": "function"
    },
    {
      "inputs": [
        {
          "internalType": "bytes32",
          "name": "role",
          "type": "bytes32"
        }
      ],
      "name": "checkRole",
      "outputs": [],
      "stateMutability": "view",
      "type": "function"
    },
    {
      "inputs": [
        {
          "internalType": "address",
          "name": "ownerAddress",
          "type": "address"
        }
      ],
      "name": "disableOwnerValidators",
      "outputs": [],
      "stateMutability": "nonpayable",
      "type": "function"
    },
    {
      "inputs": [
        {
          "internalType": "address",
          "name": "ownerAddress",
          "type": "address"
        }
      ],
      "name": "enableOwnerValidators",
      "outputs": [],
      "stateMutability": "nonpayable",
      "type": "function"
    },
    {
      "inputs": [
        {
          "internalType": "uint32",
          "name": "initiatorId",
          "type": "uint32"
        }
      ],
      "name": "getInitiatorById",
      "outputs": [
        {
          "internalType": "address",
          "name": "ownerAddress",
          "type": "address"
        },
        {
          "internalType": "uint32[]",
          "name": "operatorIds",
          "type": "uint32[]"
        },
        {
          "internalType": "bytes",
          "name": "validatorPublicKey",
          "type": "bytes"
        },
        {
          "internalType": "address",
          "name": "minipoolAddress",
          "type": "address"
        },
        {
          "internalType": "enum ISafeStakeRegistry.InitiatorStatus",
          "name": "status",
          "type": "uint8"
        },
        {
          "internalType": "bool",
          "name": "active",
          "type": "bool"
        }
      ],
      "stateMutability": "view",
      "type": "function"
    },
    {
      "inputs": [
        {
          "internalType": "address",
          "name": "ownerAddress",
          "type": "address"
        }
      ],
      "name": "getInitiatorIdsByOwner",
      "outputs": [
        {
          "internalType": "uint32[]",
          "name": "initiatorIds",
          "type": "uint32[]"
        }
      ],
      "stateMutability": "view",
      "type": "function"
    },
    {
      "inputs": [
        {
          "internalType": "uint32",
          "name": "operatorId",
          "type": "uint32"
        }
      ],
      "name": "getOperatorById",
      "outputs": [
        {
          "internalType": "string",
          "name": "",
          "type": "string"
        },
        {
          "internalType": "address",
          "name": "",
          "type": "address"
        },
        {
          "internalType": "bytes",
          "name": "",
          "type": "bytes"
        },
        {
          "internalType": "uint256",
          "name": "",
          "type": "uint256"
        },
        {
          "internalType": "uint256",
          "name": "",
          "type": "uint256"
        },
        {
          "internalType": "uint256",
          "name": "",
          "type": "uint256"
        },
        {
          "internalType": "bool",
          "name": "",
          "type": "bool"
        }
      ],
      "stateMutability": "view",
      "type": "function"
    },
    {
      "inputs": [
        {
          "internalType": "uint32",
          "name": "operatorId",
          "type": "uint32"
        }
      ],
      "name": "getOperatorFee",
      "outputs": [
        {
          "internalType": "uint256",
          "name": "",
          "type": "uint256"
        }
      ],
      "stateMutability": "view",
      "type": "function"
    },
    {
      "inputs": [
        {
          "internalType": "uint32",
          "name": "operatorId",
          "type": "uint32"
        }
      ],
      "name": "getOperatorOwner",
      "outputs": [
        {
          "internalType": "address",
          "name": "",
          "type": "address"
        }
      ],
      "stateMutability": "view",
      "type": "function"
    },
    {
      "inputs": [
        {
          "internalType": "uint32",
          "name": "initiatorId",
          "type": "uint32"
        }
      ],
      "name": "getOperatorsByInitiatorId",
      "outputs": [
        {
          "internalType": "uint32[]",
          "name": "operaotrIds",
          "type": "uint32[]"
        }
      ],
      "stateMutability": "view",
      "type": "function"
    },
    {
      "inputs": [
        {
          "internalType": "address",
          "name": "ownerAddress",
          "type": "address"
        }
      ],
      "name": "getOperatorsByOwnerAddress",
      "outputs": [
        {
          "internalType": "uint32[]",
          "name": "",
          "type": "uint32[]"
        }
      ],
      "stateMutability": "view",
      "type": "function"
    },
    {
      "inputs": [
        {
          "internalType": "bytes",
          "name": "validatorPublicKey",
          "type": "bytes"
        }
      ],
      "name": "getOperatorsByValidator",
      "outputs": [
        {
          "internalType": "uint32[]",
          "name": "operatorIds",
          "type": "uint32[]"
        }
      ],
      "stateMutability": "view",
      "type": "function"
    },
    {
      "inputs": [
        {
          "internalType": "bytes",
          "name": "publicKey",
          "type": "bytes"
        }
      ],
      "name": "getValidatorOwner",
      "outputs": [
        {
          "internalType": "address",
          "name": "",
          "type": "address"
        }
      ],
      "stateMutability": "view",
      "type": "function"
    },
    {
      "inputs": [
        {
          "internalType": "address",
          "name": "ownerAddress",
          "type": "address"
        }
      ],
      "name": "getValidatorsByAddress",
      "outputs": [
        {
          "internalType": "bytes[]",
          "name": "",
          "type": "bytes[]"
        }
      ],
      "stateMutability": "view",
      "type": "function"
    },
    {
      "inputs": [
        {
          "internalType": "bytes32",
          "name": "role",
          "type": "bytes32"
        },
        {
          "internalType": "address",
          "name": "account",
          "type": "address"
        }
      ],
      "name": "grantRole",
      "outputs": [],
      "stateMutability": "nonpayable",
      "type": "function"
    },
    {
      "inputs": [
        {
          "internalType": "bytes32",
          "name": "role",
          "type": "bytes32"
        },
        {
          "internalType": "address",
          "name": "account",
          "type": "address"
        }
      ],
      "name": "hasRole",
      "outputs": [
        {
          "internalType": "bool",
          "name": "",
          "type": "bool"
        }
      ],
      "stateMutability": "view",
      "type": "function"
    },
    {
      "inputs": [
        {
          "internalType": "bytes",
          "name": "validatorPublicKey",
          "type": "bytes"
        }
      ],
      "name": "ifPkGeneratedByDkg",
      "outputs": [
        {
          "internalType": "bool",
          "name": "",
          "type": "bool"
        }
      ],
      "stateMutability": "view",
      "type": "function"
    },
    {
      "inputs": [
        {
          "internalType": "uint256",
          "name": "operatorFee",
          "type": "uint256"
        },
        {
          "internalType": "address",
          "name": "owner",
          "type": "address"
        }
      ],
      "name": "initialize",
      "outputs": [],
      "stateMutability": "nonpayable",
      "type": "function"
    },
    {
      "inputs": [
        {
          "internalType": "uint32",
          "name": "initiatorId",
          "type": "uint32"
        },
        {
          "internalType": "bytes",
          "name": "validatorPublicKey",
          "type": "bytes"
        },
        {
          "internalType": "address",
          "name": "miniPoolAddress",
          "type": "address"
        },
        {
          "internalType": "bytes",
          "name": "signature",
          "type": "bytes"
        }
      ],
      "name": "initiatorPreStake",
      "outputs": [],
      "stateMutability": "nonpayable",
      "type": "function"
    },
    {
      "inputs": [
        {
          "internalType": "uint32",
          "name": "initiatorId",
          "type": "uint32"
        }
      ],
      "name": "initiatorReady",
      "outputs": [],
      "stateMutability": "nonpayable",
      "type": "function"
    },
    {
      "inputs": [
        {
          "internalType": "address",
          "name": "ownerAddress",
          "type": "address"
        },
        {
          "internalType": "uint32",
          "name": "initiatorId",
          "type": "uint32"
        }
      ],
      "name": "initiatorStake",
      "outputs": [],
      "stateMutability": "nonpayable",
      "type": "function"
    },
    {
      "inputs": [
        {
          "internalType": "address",
          "name": "ownerAddress",
          "type": "address"
        }
      ],
      "name": "isAccountRegisteredOperator",
      "outputs": [
        {
          "internalType": "bool",
          "name": "isOperator",
          "type": "bool"
        }
      ],
      "stateMutability": "view",
      "type": "function"
    },
    {
      "inputs": [
        {
          "internalType": "uint32[]",
          "name": "operatorIds",
          "type": "uint32[]"
        }
      ],
      "name": "registerInitiator",
      "outputs": [
        {
          "internalType": "uint32",
          "name": "initiatorId",
          "type": "uint32"
        }
      ],
      "stateMutability": "nonpayable",
      "type": "function"
    },
    {
      "inputs": [
        {
          "internalType": "string",
          "name": "name",
          "type": "string"
        },
        {
          "internalType": "address",
          "name": "ownerAddress",
          "type": "address"
        },
        {
          "internalType": "bytes",
          "name": "publicKey",
          "type": "bytes"
        }
      ],
      "name": "registerOperator",
      "outputs": [
        {
          "internalType": "uint32",
          "name": "operatorId",
          "type": "uint32"
        }
      ],
      "stateMutability": "nonpayable",
      "type": "function"
    },
    {
      "inputs": [
        {
          "internalType": "address",
          "name": "ownerAddress",
          "type": "address"
        },
        {
          "internalType": "bytes",
          "name": "publicKey",
          "type": "bytes"
        },
        {
          "internalType": "uint32[]",
          "name": "operatorIds",
          "type": "uint32[]"
        },
        {
          "internalType": "bytes[]",
          "name": "sharesPublicKeys",
          "type": "bytes[]"
        },
        {
          "internalType": "bytes[]",
          "name": "sharesEncrypted",
          "type": "bytes[]"
        }
      ],
      "name": "registerValidator",
      "outputs": [],
      "stateMutability": "nonpayable",
      "type": "function"
    },
    {
      "inputs": [
        {
          "internalType": "address",
          "name": "owner",
          "type": "address"
        },
        {
          "internalType": "uint32",
          "name": "initiatorId",
          "type": "uint32"
        }
      ],
      "name": "removeInitiator",
      "outputs": [],
      "stateMutability": "nonpayable",
      "type": "function"
    },
    {
      "inputs": [
        {
          "internalType": "uint32",
          "name": "operatorId",
          "type": "uint32"
        }
      ],
      "name": "removeOperator",
      "outputs": [],
      "stateMutability": "nonpayable",
      "type": "function"
    },
    {
      "inputs": [
        {
          "internalType": "bytes",
          "name": "publicKey",
          "type": "bytes"
        }
      ],
      "name": "removeValidator",
      "outputs": [],
      "stateMutability": "nonpayable",
      "type": "function"
    },
    {
      "inputs": [
        {
          "internalType": "bytes32",
          "name": "role",
          "type": "bytes32"
        },
        {
          "internalType": "address",
          "name": "account",
          "type": "address"
        }
      ],
      "name": "revokeRole",
      "outputs": [],
      "stateMutability": "nonpayable",
      "type": "function"
    },
    {
      "inputs": [
        {
          "internalType": "bytes",
          "name": "sig",
          "type": "bytes"
        }
      ],
      "name": "splitSignature",
      "outputs": [
        {
          "internalType": "uint8",
          "name": "v",
          "type": "uint8"
        },
        {
          "internalType": "bytes32",
          "name": "r",
          "type": "bytes32"
        },
        {
          "internalType": "bytes32",
          "name": "s",
          "type": "bytes32"
        }
      ],
      "stateMutability": "pure",
      "type": "function"
    },
    {
      "inputs": [
        {
          "internalType": "bytes32",
          "name": "role",
          "type": "bytes32"
        },
        {
          "internalType": "address",
          "name": "newOwner",
          "type": "address"
        }
      ],
      "name": "transferOwnership",
      "outputs": [],
      "stateMutability": "nonpayable",
      "type": "function"
    },
    {
      "inputs": [
        {
          "internalType": "uint64",
          "name": "fee",
          "type": "uint64"
        }
      ],
      "name": "updateOperatorFee",
      "outputs": [],
      "stateMutability": "nonpayable",
      "type": "function"
    },
    {
      "inputs": [
        {
          "internalType": "bytes",
          "name": "publicKey",
          "type": "bytes"
        }
      ],
      "name": "validators",
      "outputs": [
        {
          "internalType": "address",
          "name": "",
          "type": "address"
        },
        {
          "internalType": "bytes",
          "name": "",
          "type": "bytes"
        },
        {
          "internalType": "bool",
          "name": "",
          "type": "bool"
        }
      ],
      "stateMutability": "view",
      "type": "function"
    },
    {
      "inputs": [
        {
          "internalType": "uint32",
          "name": "operatorId",
          "type": "uint32"
        }
      ],
      "name": "validatorsPerOperatorCount",
      "outputs": [
        {
          "internalType": "uint32",
          "name": "",
          "type": "uint32"
        }
      ],
      "stateMutability": "view",
      "type": "function"
    },
    {
      "inputs": [
        {
          "internalType": "uint32",
          "name": "operatorId",
          "type": "uint32"
        }
      ],
      "name": "verifyOperator",
      "outputs": [],
      "stateMutability": "nonpayable",
      "type": "function"
    },
    {
      "inputs": [],
      "name": "version",
      "outputs": [
        {
          "internalType": "uint32",
          "name": "",
          "type": "uint32"
        }
      ],
      "stateMutability": "pure",
      "type": "function"
    }
  ],
  "bytecode": "0x608060405234801561001057600080fd5b50613d22806100206000396000f3fe608060405234801561001057600080fd5b506004361061034c5760003560e01c806375935695116101bd578063bf3a5c02116100f9578063da35a26f116100a2578063f7908b621161007c578063f7908b62146108d7578063f8f08d7f146108ea578063fb895733146108fd578063fbff63821461091257600080fd5b8063da35a26f1461087f578063e7b2174814610892578063ef5d6bbb146108c457600080fd5b8063d379a5f2116100d3578063d379a5f214610830578063d479ad0514610863578063d547741f1461086c57600080fd5b8063bf3a5c02146107a3578063c5b95190146107f2578063c87b30381461080557600080fd5b80639b4ddb5d11610166578063a7bb580311610140578063a7bb580314610738578063b2f569c51461076a578063b6aae36a1461077d578063b9d3f1c51461079057600080fd5b80639b4ddb5d146106eb5780639fb54b76146106fe578063a1ebf35d1461071157600080fd5b806391d148541161019757806391d148541461068c57806394b783e2146106c5578063981ef5e4146106d857600080fd5b8063759356951461064857806375b238fc146106525780638a62ca561461067957600080fd5b806327467a181161028c57806345413bf4116102355780635d5dbffe1161020f5780635d5dbffe1461056e5780636ba03ef3146105965780636c36511a146105a957806375202e26146105cb57600080fd5b806345413bf414610541578063459e8b411461055457806354fd4d501461056757600080fd5b80632e1d2f05116102665780632e1d2f05146105085780632f2ff15d1461051b57806341d2c0cd1461052e57600080fd5b806327467a18146104bc5780632c8bc75f146104d15780632ce3d249146104f557600080fd5b80630cb6b586116102f957806318083de7116102d357806318083de7146104755780631940d387146104885780632340e8d31461049b578063263410f2146104a957600080fd5b80630cb6b5861461041d5780630dc1eeff146104425780630e32066a1461045557600080fd5b806302a4df0e1161032a57806302a4df0e146103b257806303cf7031146103c2578063053e8349146103fd57600080fd5b806301a119271461035157806301e72bd7146103745780630260d4431461038c575b600080fd5b61035a6107d081565b60405163ffffffff90911681526020015b60405180910390f35b60025461037e9081565b60405190815260200161036b565b61039f61039a366004612fe4565b61091a565b60405161036b979695949392919061304c565b600a5461035a9063ffffffff1681565b6103ed6103d03660046130c0565b6001600160a01b0316600090815260066020526040902054151590565b604051901515815260200161036b565b61041061040b366004613124565b610b42565b60405161036b91906131a7565b61043061042b366004612fe4565b610be8565b60405161036b969594939291906131f2565b6104106104503660046130c0565b610d5f565b6104686104633660046130c0565b610df7565b60405161036b9190613252565b61035a6104833660046132f9565b610ee9565b61035a61049636600461332f565b611246565b600a5463ffffffff1661035a565b6103ed6104b7366004613124565b611556565b6104cf6104ca3660046130c0565b611585565b005b6104e46104df366004612fe4565b611674565b60405161036b9594939291906133b3565b6104cf6105033660046133ff565b611748565b6104cf610516366004612fe4565b611981565b6104cf610529366004613493565b611a36565b6104cf61053c3660046134bf565b611a97565b6104cf61054f3660046130c0565b611ad1565b6104cf610562366004612fe4565b611b90565b600161035a565b61058161057c366004612fe4565b611c30565b60405161036b999897969594939291906134e9565b6104cf6105a4366004612fe4565b611daa565b6105bc6105b7366004613124565b611e68565b60405161036b93929190613561565b61061c6105d93660046135ab565b80516020818301810180516005825292820191909301209152600101546001600160a01b03811690600160a01b810463ffffffff1690600160c01b900460ff1683565b604080516001600160a01b03909416845263ffffffff909216602084015215159082015260600161036b565b60035461037e9081565b61037e7f03783fac2efed8fbc9ad443e592ee30e61d65f471140c10ca155e937b435b76081565b6104106106873660046130c0565b611ef3565b6103ed61069a366004613493565b60009182526001602090815260408084206001600160a01b0393909316845291905290205460ff1690565b61035a6106d336600461365c565b611f63565b6104cf6106e6366004613686565b611fac565b6104cf6106f93660046136b0565b61207d565b61035a61070c36600461365c565b6123ef565b61037e7f017e667f4b8c174291d1543c466717566e206df1bfd6f30271055ddafdb18f7281565b61074b6107463660046135ab565b61240b565b6040805160ff909416845260208401929092529082015260600161036b565b6104cf610778366004613124565b61243a565b61041061078b366004612fe4565b612728565b6104cf61079e366004612fe4565b612798565b6107d66107b13660046130c0565b60076020526000908152604090205463ffffffff811690640100000000900460ff1682565b6040805163ffffffff909316835290151560208301520161036b565b6104cf610800366004613787565b612831565b610818610813366004613124565b612847565b6040516001600160a01b03909116815260200161036b565b61035a61083e366004612fe4565b63ffffffff908116600090815260046020526040902060020154600160e01b90041690565b61037e600b5481565b6104cf61087a366004613493565b61287f565b6104cf61088d366004613493565b6128dc565b6108186108a0366004612fe4565b63ffffffff166000908152600460205260409020600201546001600160a01b031690565b6104cf6108d2366004613493565b612955565b6104cf6108e5366004613686565b6129b5565b61037e6108f8366004612fe4565b612c39565b61037e600080516020613ccd83398151915281565b61035a600a81565b6060600060606000806000806000600460008a63ffffffff1663ffffffff16815260200190815260200160002060405180610120016040529081600082018054610963906137a0565b80601f016020809104026020016040519081016040528092919081815260200182805461098f906137a0565b80156109dc5780601f106109b1576101008083540402835291602001916109dc565b820191906000526020600020905b8154815290600101906020018083116109bf57829003601f168201915b505050505081526020016001820180546109f5906137a0565b80601f0160208091040260200160405190810160405280929190818152602001828054610a21906137a0565b8015610a6e5780601f10610a4357610100808354040283529160200191610a6e565b820191906000526020600020905b815481529060010190602001808311610a5157829003601f168201915b505050918352505060028201546001600160a01b038116602083015263ffffffff600160a01b820481166040840152600160c01b820481166060840152600160e01b90910416608082015260039091015460ff808216151560a084015261010082048116151560c0808501919091526201000090920416151560e090920191909152600b549082015191925090610b03575060005b81516040830151602084015160a0850151606086015160c090960151939e929d50909b5063ffffffff9081169a50929850919092169550909350915050565b6060600060058484604051610b589291906137da565b9081526040805191829003602090810183208054808302850183019093528284529350839190830182828015610bd957602002820191906000526020600020906000905b82829054906101000a900463ffffffff1663ffffffff1681526020019060040190602082600301049283019260010382029150808411610b9c5790505b50505050509150505b92915050565b63ffffffff8116600090815260096020908152604080832080546003820154600183018054855181880281018801909652808652606096879689968796879691956001600160a01b0391821695909460028801949284169360ff600160a01b8204811694600160a81b90920416929091879190830182828015610cb657602002820191906000526020600020906000905b82829054906101000a900463ffffffff1663ffffffff1681526020019060040190602082600301049283019260010382029150808411610c795790505b50505050509450838054610cc9906137a0565b80601f0160208091040260200160405190810160405280929190818152602001828054610cf5906137a0565b8015610d425780601f10610d1757610100808354040283529160200191610d42565b820191906000526020600020905b815481529060010190602001808311610d2557829003601f168201915b505050505093509650965096509650965096505091939550919395565b6001600160a01b038116600090815260066020908152604091829020805483518184028101840190945280845260609392830182828015610deb57602002820191906000526020600020906000905b82829054906101000a900463ffffffff1663ffffffff1681526020019060040190602082600301049283019260010382029150808411610dae5790505b50505050509050919050565b6001600160a01b0381166000908152600760209081526040808320600101805482518185028101850190935280835260609492939192909184015b82821015610ede578382906000526020600020018054610e51906137a0565b80601f0160208091040260200160405190810160405280929190818152602001828054610e7d906137a0565b8015610eca5780601f10610e9f57610100808354040283529160200191610eca565b820191906000526020600020905b815481529060010190602001808311610ead57829003601f168201915b505050505081526020019060010190610e32565b505050509050919050565b600060048214610ef857600080fd5b336004600085858281610f0d57610f0d6137ea565b9050602002016020810190610f229190612fe4565b63ffffffff1681526020810191909152604001600020600201546001600160a01b031614610f4f57600080fd5b610f5d600380546001019055565b506003546000805b63ffffffff811684111561102d57600085858363ffffffff16818110610f8d57610f8d6137ea565b9050602002016020810190610fa29190612fe4565b9050610fb68686838563ffffffff16612c69565b610fbf57600080fd5b63ffffffff811660009081526004602052604090206003015462010000900460ff16610fea57600080fd5b63ffffffff8116600090815260046020526040902060030154610100900460ff161561101c5761101983613816565b92505b5061102681613835565b9050610f65565b5060028160ff16101561103f57600080fd5b6040518060c00160405280336001600160a01b0316815260200185858080602002602001604051908101604052809392919081815260200183836020028082843760009201829052509385525050604080518381526020808201835280860191909152818501849052606085018490526001608090950185905263ffffffff881684526009815292208451815473ffffffffffffffffffffffffffffffffffffffff19166001600160a01b0390911617815584830151805191946111099490860193500190612eb1565b506040820151600282019061111e90826138a6565b506060820151600380830180546001600160a01b0390931673ffffffffffffffffffffffffffffffffffffffff19841681178255608086015193919274ffffffffffffffffffffffffffffffffffffffffff199092161790600160a01b90849081111561118d5761118d6131ba565b021790555060a091909101516003909101805460ff60a81b1916600160a81b92151592909202919091179055336000818152600860208181526040808420805460018101825590855291909320918104909101805460079092166004026101000a63ffffffff8181021990931692871602919091179055517f3ed0a993c042af686c0f93773269df3a1874729d2b4fc3f71fdaa684bb2d6755916112379185919088908890613966565b60405180910390a15092915050565b6000600080516020613ccd83398151915261126081612831565b6001600160a01b038516600090815260066020526040902054600a10156112b25760405162461bcd60e51b81526020600482015260016024820152606160f81b60448201526064015b60405180910390fd5b6001600160a01b038516600090815260076020526040902060010154156112ff5760405162461bcd60e51b81526020600482015260016024820152603160f91b60448201526064016112a9565b61130d600280546001019055565b600254604080516101406020601f8b01819004028201810190925261012081018981529294509182918a908a9081908501838280828437600092019190915250505090825250604080516020601f88018190048102820181019092528681529181019190879087908190840183828082843760009201829052509385525050506001600160a01b03881660208084018290526040808501849052918352600681528183205463ffffffff908116606086015260808501849052600160a086015260c0850184905260e09094018390529286168252600490925220815181906113f590826138a6565b506020820151600182019061140a90826138a6565b506040828101516002830180546060860151608087015160a08801516001600160a01b0395861677ffffffffffffffffffffffffffffffffffffffffffffffff1990941693909317600160a01b63ffffffff938416021777ffffffffffffffffffffffffffffffffffffffffffffffff16600160c01b918316919091027bffffffffffffffffffffffffffffffffffffffffffffffffffffffff1617600160e01b928216929092029190911790915560c08501516003909401805460e08701516101009788015161ffff1990921696151561ff0019169690961795151587029590951762ff0000191662010000951515959095029490941790935597909716600090815260066020908152978120805460018101825590825297902060088804018054600790981660040290920a80820219909716908416969096029590951790945595945050505050565b6000600c838360405161156a9291906137da565b9081526040519081900360200190205460ff16905092915050565b600080516020613ccd83398151915261159d81612831565b6001600160a01b038216600090815260076020526040902054640100000000900460ff16156115cb57600080fd5b6001600160a01b03821660009081526007602052604090205463ffffffff166115f357600080fd5b6001600160a01b038216600090815260076020526040812054600a805463ffffffff928316939192611627918591166139d0565b825463ffffffff9182166101009390930a928302919092021990911617905550506001600160a01b03166000908152600760205260409020805464ff000000001916640100000000179055565b600960205260009081526040902080546002820180546001600160a01b0390921692916116a0906137a0565b80601f01602080910402602001604051908101604052809291908181526020018280546116cc906137a0565b80156117195780601f106116ee57610100808354040283529160200191611719565b820191906000526020600020905b8154815290600101906020018083116116fc57829003601f168201915b505050600390930154919250506001600160a01b0381169060ff600160a01b8204811691600160a81b90041685565b6117523387612ce0565b600063ffffffff87166000908152600960205260409020600390810154600160a01b900460ff1690811115611789576117896131ba565b1461179357600080fd5b600061180f878787876040516020016117af94939291906139f4565b60408051601f1981840301815282825280516020918201207f19457468657265756d205369676e6564204d6573736167653a0a33320000000084830152603c8085019190915282518085039091018152605c909301909152815191012090565b905060006118538285858080601f016020809104026020016040519081016040528093929190818152602001838380828437600092019190915250612d0f92505050565b6001600160a01b03811660009081527f427c45ac74610ad1057fc3524fc3fecaa3416dd8aa9baf907541659f889ee436602052604090205490915060ff1661189a57600080fd5b63ffffffff881660009081526009602052604090206002016118bd878983613a43565b5063ffffffff8816600090815260096020526040908190206003018054600160a01b74ffffffffffffffffffffffffffffffffffffffffff199091166001600160a01b0389161717905551600190600c9061191b908a908a906137da565b908152604051908190036020018120805492151560ff19909316929092179091557fd37d31a5a66d534ce3b071e3ee6cf8b7d36a6dd20aa4f08e9cec322b27bd77049061196f908a908a908a908a906139f4565b60405180910390a15050505050505050565b63ffffffff81166000908152600460205260409020600381015460ff166119a757600080fd5b60028101546001600160a01b031633146119c057600080fd5b6002810154600160e01b900463ffffffff16156119dc57600080fd5b60038101805460ff19169055600281015460405163ffffffff841681526001600160a01b03909116907f10b90e3d042178ee9b3e99a849224b4bf4145b9855274073c0c6bca9c5113b7b9060200160405180910390a25050565b611a607f03783fac2efed8fbc9ad443e592ee30e61d65f471140c10ca155e937b435b7603361069a565b611a935760008281526001602081815260408084206001600160a01b0386168552909152909120805460ff191690911790555b5050565b7f017e667f4b8c174291d1543c466717566e206df1bfd6f30271055ddafdb18f72611ac181612831565b5067ffffffffffffffff16600b55565b600080516020613ccd833981519152611ae981612831565b6001600160a01b038216600090815260076020526040902054640100000000900460ff16611b1657600080fd5b6001600160a01b038216600090815260076020526040812054600a805463ffffffff928316939192611b4a91859116613b04565b825463ffffffff9182166101009390930a928302919092021990911617905550506001600160a01b03166000908152600760205260409020805464ff0000000019169055565b7f017e667f4b8c174291d1543c466717566e206df1bfd6f30271055ddafdb18f72611bba81612831565b63ffffffff82166000908152600460205260409020600381015460ff16611be057600080fd5b60038101805461ff00191661010017905560405163ffffffff841681527f2dccca8357493e52db64c50629a9bade4fe938bf7e84914bf661947f4f7cba28906020015b60405180910390a1505050565b600460205260009081526040902080548190611c4b906137a0565b80601f0160208091040260200160405190810160405280929190818152602001828054611c77906137a0565b8015611cc45780601f10611c9957610100808354040283529160200191611cc4565b820191906000526020600020905b815481529060010190602001808311611ca757829003601f168201915b505050505090806001018054611cd9906137a0565b80601f0160208091040260200160405190810160405280929190818152602001828054611d05906137a0565b8015611d525780601f10611d2757610100808354040283529160200191611d52565b820191906000526020600020905b815481529060010190602001808311611d3557829003601f168201915b50505050600283015460039093015491926001600160a01b0381169263ffffffff600160a01b830481169350600160c01b8304811692600160e01b9004169060ff808216916101008104821691620100009091041689565b600163ffffffff82166000908152600960205260409020600390810154600160a01b900460ff1690811115611de157611de16131ba565b14611deb57600080fd5b611df53382612ce0565b63ffffffff811660008181526009602090815260409182902060030180547402000000000000000000000000000000000000000060ff60a01b1990911617905590519182527fc474edb44e2d7e6c7f20261d61afed24712bcbd6a0799ae5b0786626c47da63c910160405180910390a150565b6000606060008060058686604051611e819291906137da565b90815260408051602092819003830181206001810154601f8a0185900485028301850190935288825293506001600160a01b0382169289928992600160c01b90910460ff16918490849081908401838280828437600092019190915250969d929c50929a509098505050505050505050565b6001600160a01b038116600090815260086020908152604091829020805483518184028101840190945280845260609392830182828015610deb576000918252602091829020805463ffffffff168452908202830192909160049101808411610dae575094979650505050505050565b60086020528160005260406000208181548110611f7f57600080fd5b9060005260206000209060089182820401919006600402915091509054906101000a900463ffffffff1681565b600080516020613ccd833981519152611fc481612831565b600263ffffffff83166000908152600960205260409020600390810154600160a01b900460ff1690811115611ffb57611ffb6131ba565b1461200557600080fd5b61200f8383612ce0565b63ffffffff8281166000908152600960205260408120600301805460ff60a01b191674030000000000000000000000000000000000000000179055600a8054909261205a9116613835565b91906101000a81548163ffffffff021916908363ffffffff160217905550505050565b600080516020613ccd83398151915261209581612831565b6120a58989898989898989612d8e565b60006001600160a01b031660058a8a6040516120c29291906137da565b908152604051908190036020019020600101546001600160a01b0316146120e857600080fd5b6001600160a01b038a166000908152600660205260409020541561210b57600080fd5b604051806080016040528088888080602002602001604051908101604052809392919081815260200183836020028082843760009201829052509385525050506001600160a01b038d1660208084018290529082526007905260409081902060019081015463ffffffff168284015260609092019190915251600590612194908c908c906137da565b908152602001604051809103902060008201518160000190805190602001906121be929190612eb1565b50602082810151600192830180546040808701516060909701511515600160c01b027fffffffffffffff00ffffffffffffffffffffffffffffffffffffffffffffffff63ffffffff909816600160a01b0277ffffffffffffffffffffffffffffffffffffffffffffffff199093166001600160a01b039586161792909217969096161790558d1660009081526007825292832082018054928301815583529091200161226b898b83613a43565b506001600160a01b038a16600090815260076020526040812080546001929061229b90849063ffffffff16613b04565b92506101000a81548163ffffffff021916908363ffffffff16021790555060005b63ffffffff81168711156123ae57600088888363ffffffff168181106122e4576122e46137ea565b90506020020160208101906122f99190612fe4565b905061230d8989838563ffffffff16612c69565b61231657600080fd5b63ffffffff811660009081526004602052604090206003015460ff1661233b57600080fd5b63ffffffff818116600090815260046020526040902060020180546107d092601c9161236f91600160e01b90910416613835565b91906101000a81548163ffffffff021916908363ffffffff160217905563ffffffff16111561239d57600080fd5b506123a781613835565b90506122bc565b50600a80546000906123c59063ffffffff16613835565b91906101000a81548163ffffffff021916908363ffffffff16021790555050505050505050505050565b60066020528160005260406000208181548110611f7f57600080fd5b6000806000835160411461241e57600080fd5b5050506020810151604082015160609092015160001a92909190565b600080516020613ccd83398151915261245281612831565b6000600584846040516124669291906137da565b9081526020016040518091039020905060005b815463ffffffff82161015612526576000826000018263ffffffff16815481106124a5576124a56137ea565b6000918252602080832060088304015463ffffffff6004600790941684026101000a9091048116808552929091526040909220600201805491935091601c916124f691600160e01b90910416613b21565b91906101000a81548163ffffffff021916908363ffffffff160217905550508061251f90613835565b9050612479565b506001808201546001600160a01b03166000908152600760205260409020808201805491929091829161255891613b41565b81548110612568576125686137ea565b90600052602060002001818460010160149054906101000a900463ffffffff1663ffffffff168154811061259e5761259e6137ea565b9060005260206000200190816125b49190613b54565b5060018301548154600160a01b90910463ffffffff16906005908390839081106125e0576125e06137ea565b906000526020600020016040516125f79190613c27565b908152602001604051809103902060010160146101000a81548163ffffffff021916908363ffffffff1602179055508080548061263657612636613c9d565b6001900381819060005260206000200160006126529190612f60565b90558154600190839060009061266f90849063ffffffff166139d0565b92506101000a81548163ffffffff021916908363ffffffff160217905550600a600081819054906101000a900463ffffffff166126ab90613b21565b91906101000a81548163ffffffff021916908363ffffffff160217905550600586866040516126db9291906137da565b90815260405190819003602001902060006126f68282612f9a565b5060010180547fffffffffffffff00000000000000000000000000000000000000000000000000169055505050505050565b63ffffffff8116600090815260096020908152604091829020600101805483518184028101840190945280845260609392830182828015610deb576000918252602091829020805463ffffffff168452908202830192909160049101808411610dae575094979650505050505050565b7f017e667f4b8c174291d1543c466717566e206df1bfd6f30271055ddafdb18f726127c281612831565b63ffffffff82166000908152600460205260409020600381015460ff166127e857600080fd5b60038101805462ff000019166201000017905560405163ffffffff841681527fca8f71d8827e7ca0102d63640ecb3ba5e416ec781b8f91c0da7355fd00d04d1590602001611c23565b61283b813361069a565b61284457600080fd5b50565b60006005838360405161285b9291906137da565b908152604051908190036020019020600101546001600160a01b0316905092915050565b6128a97f03783fac2efed8fbc9ad443e592ee30e61d65f471140c10ca155e937b435b7603361069a565b15611a935760008281526001602090815260408083206001600160a01b03851684529091529020805460ff191690555050565b60006128e86001612dca565b90508015612900576000805461ff0019166101001790555b600b83905561290e82612e31565b8015612950576000805461ff0019169055604051600181527f7f26b83ff96e1f2b6a682f133852f6798a09c465da95921460cefb384740249890602001611c23565b505050565b8161295f81612831565b6001600160a01b03821661297257600080fd5b506000918252600160208181526040808520338652909152808420805460ff199081169091556001600160a01b0393909316845290922080549091169091179055565b600080516020613ccd8339815191526129cd81612831565b6129d78383612ce0565b63ffffffff821660009081526009602052604090206003810154600160a81b900460ff16612a0457600080fd5b60038101805460ff60a81b191690556000805b6001600160a01b03861660009081526008602052604090205463ffffffff83161015612ab6576001600160a01b0386166000908152600860205260409020805463ffffffff8088169291908516908110612a7357612a736137ea565b6000918252602090912060088204015460079091166004026101000a900463ffffffff1603612aa457506001612ab6565b81612aae81613835565b925050612a17565b80612ac057600080fd5b6001600160a01b03861660009081526008602052604090208054612ae690600190613b41565b81548110612af657612af66137ea565b90600052602060002090600891828204019190066004029054906101000a900463ffffffff1660086000886001600160a01b03166001600160a01b031681526020019081526020016000208363ffffffff1681548110612b5857612b586137ea565b90600052602060002090600891828204019190066004026101000a81548163ffffffff021916908363ffffffff16021790555060086000876001600160a01b03166001600160a01b03168152602001908152602001600020805480612bbf57612bbf613c9d565b600082815260209020600860001990920191820401805463ffffffff600460078516026101000a021916905590556040517f34ecedfa430a18df6cda4bc2313d74d224c6742df8e6a98eca2fda96b69a050d90612c2990879063ffffffff91909116815260200190565b60405180910390a1505050505050565b63ffffffff811660009081526004602052604081206003015460ff16612c6157506000919050565b5050600b5490565b600081612c7581613cb3565b9250505b83821015612cd4578263ffffffff16858584818110612c9a57612c9a6137ea565b9050602002016020810190612caf9190612fe4565b63ffffffff1603612cc257506000612cd8565b81612ccc81613cb3565b925050612c79565b5060015b949350505050565b63ffffffff81166000908152600960205260409020546001600160a01b03908116908316811461295057600080fd5b600080600080612d1e8561240b565b6040805160008152602081018083528b905260ff8516918101919091526060810183905260808101829052929550909350915060019060a0016020604051602081039080840390855afa158015612d79573d6000803e3d6000fd5b5050604051601f190151979650505050505050565b60308714612d9b57600080fd5b8483141580612daa5750848114155b80612db6575060048514155b15612dc057600080fd5b5050505050505050565b60008054610100900460ff1615612dfe578160ff166001148015612ded5750303b155b612df657600080fd5b506000919050565b60005460ff808416911610612e1257600080fd5b506000805460ff191660ff92909216919091179055600190565b919050565b600054610100900460ff16612e4557600080fd5b612e5d600080516020613ccd83398151915233611a36565b612e877f017e667f4b8c174291d1543c466717566e206df1bfd6f30271055ddafdb18f7282611a36565b6128447f03783fac2efed8fbc9ad443e592ee30e61d65f471140c10ca155e937b435b76082611a36565b82805482825590600052602060002090600701600890048101928215612f505791602002820160005b83821115612f1e57835183826101000a81548163ffffffff021916908363ffffffff1602179055509260200192600401602081600301049283019260010302612eda565b8015612f4e5782816101000a81549063ffffffff0219169055600401602081600301049283019260010302612f1e565b505b50612f5c929150612fbb565b5090565b508054612f6c906137a0565b6000825580601f10612f7c575050565b601f0160209004906000526020600020908101906128449190612fbb565b50805460008255600701600890049060005260206000209081019061284491905b5b80821115612f5c5760008155600101612fbc565b803563ffffffff81168114612e2c57600080fd5b600060208284031215612ff657600080fd5b612fff82612fd0565b9392505050565b6000815180845260005b8181101561302c57602081850181015186830182015201613010565b506000602082860101526020601f19601f83011685010191505092915050565b60e08152600061305f60e083018a613006565b6001600160a01b038916602084015282810360408401526130808189613006565b9150508560608301528460808301528360a083015282151560c083015298975050505050505050565b80356001600160a01b0381168114612e2c57600080fd5b6000602082840312156130d257600080fd5b612fff826130a9565b60008083601f8401126130ed57600080fd5b50813567ffffffffffffffff81111561310557600080fd5b60208301915083602082850101111561311d57600080fd5b9250929050565b6000806020838503121561313757600080fd5b823567ffffffffffffffff81111561314e57600080fd5b61315a858286016130db565b90969095509350505050565b600081518084526020808501945080840160005b8381101561319c57815163ffffffff168752958201959082019060010161317a565b509495945050505050565b602081526000612fff6020830184613166565b634e487b7160e01b600052602160045260246000fd5b600481106131ee57634e487b7160e01b600052602160045260246000fd5b9052565b60006001600160a01b03808916835260c0602084015261321560c0840189613166565b83810360408501526132278189613006565b918716606085015250905061323f60808301856131d0565b82151560a0830152979650505050505050565b6000602080830181845280855180835260408601915060408160051b870101925083870160005b828110156132a757603f19888603018452613295858351613006565b94509285019290850190600101613279565b5092979650505050505050565b60008083601f8401126132c657600080fd5b50813567ffffffffffffffff8111156132de57600080fd5b6020830191508360208260051b850101111561311d57600080fd5b6000806020838503121561330c57600080fd5b823567ffffffffffffffff81111561332357600080fd5b61315a858286016132b4565b60008060008060006060868803121561334757600080fd5b853567ffffffffffffffff8082111561335f57600080fd5b61336b89838a016130db565b909750955085915061337f602089016130a9565b9450604088013591508082111561339557600080fd5b506133a2888289016130db565b969995985093965092949392505050565b60006001600160a01b03808816835260a060208401526133d660a0840188613006565b908616604084015290506133ed60608301856131d0565b82151560808301529695505050505050565b6000806000806000806080878903121561341857600080fd5b61342187612fd0565b9550602087013567ffffffffffffffff8082111561343e57600080fd5b61344a8a838b016130db565b909750955085915061345e60408a016130a9565b9450606089013591508082111561347457600080fd5b5061348189828a016130db565b979a9699509497509295939492505050565b600080604083850312156134a657600080fd5b823591506134b6602084016130a9565b90509250929050565b6000602082840312156134d157600080fd5b813567ffffffffffffffff81168114612fff57600080fd5b60006101208083526134fd8184018d613006565b90508281036020840152613511818c613006565b6001600160a01b039a909a166040840152505063ffffffff968716606082015294861660808601529290941660a0840152151560c083015291151560e08201529015156101009091015292915050565b6001600160a01b03841681526060602082015260006135836060830185613006565b90508215156040830152949350505050565b634e487b7160e01b600052604160045260246000fd5b6000602082840312156135bd57600080fd5b813567ffffffffffffffff808211156135d557600080fd5b818401915084601f8301126135e957600080fd5b8135818111156135fb576135fb613595565b604051601f8201601f19908116603f0116810190838211818310171561362357613623613595565b8160405282815287602084870101111561363c57600080fd5b826020860160208301376000928101602001929092525095945050505050565b6000806040838503121561366f57600080fd5b613678836130a9565b946020939093013593505050565b6000806040838503121561369957600080fd5b6136a2836130a9565b91506134b660208401612fd0565b600080600080600080600080600060a08a8c0312156136ce57600080fd5b6136d78a6130a9565b985060208a013567ffffffffffffffff808211156136f457600080fd5b6137008d838e016130db565b909a50985060408c013591508082111561371957600080fd5b6137258d838e016132b4565b909850965060608c013591508082111561373e57600080fd5b61374a8d838e016132b4565b909650945060808c013591508082111561376357600080fd5b506137708c828d016132b4565b915080935050809150509295985092959850929598565b60006020828403121561379957600080fd5b5035919050565b600181811c908216806137b457607f821691505b6020821081036137d457634e487b7160e01b600052602260045260246000fd5b50919050565b8183823760009101908152919050565b634e487b7160e01b600052603260045260246000fd5b634e487b7160e01b600052601160045260246000fd5b600060ff821660ff810361382c5761382c613800565b60010192915050565b600063ffffffff80831681810361384e5761384e613800565b6001019392505050565b601f82111561295057600081815260208120601f850160051c8101602086101561387f5750805b601f850160051c820191505b8181101561389e5782815560010161388b565b505050505050565b815167ffffffffffffffff8111156138c0576138c0613595565b6138d4816138ce84546137a0565b84613858565b602080601f83116001811461390957600084156138f15750858301515b600019600386901b1c1916600185901b17855561389e565b600085815260208120601f198616915b8281101561393857888601518255948401946001909101908401613919565b50858210156139565787850151600019600388901b60f8161c191681555b5050505050600190811b01905550565b60006060820163ffffffff808816845260206001600160a01b03881681860152606060408601528286845260808601905087935060005b878110156139c257836139af86612fd0565b168252938201939082019060010161399d565b509998505050505050505050565b63ffffffff8281168282160390808211156139ed576139ed613800565b5092915050565b63ffffffff85168152606060208201528260608201528284608083013760006080848301015260006080601f19601f86011683010190506001600160a01b038316604083015295945050505050565b67ffffffffffffffff831115613a5b57613a5b613595565b613a6f83613a6983546137a0565b83613858565b6000601f841160018114613aa35760008515613a8b5750838201355b600019600387901b1c1916600186901b178355613afd565b600083815260209020601f19861690835b82811015613ad45786850135825560209485019460019092019101613ab4565b5086821015613af15760001960f88860031b161c19848701351681555b505060018560011b0183555b5050505050565b63ffffffff8181168382160190808211156139ed576139ed613800565b600063ffffffff821680613b3757613b37613800565b6000190192915050565b81810381811115610be257610be2613800565b818103613b5f575050565b613b6982546137a0565b67ffffffffffffffff811115613b8157613b81613595565b613b8f816138ce84546137a0565b6000601f821160018114613bc35760008315613bab5750848201545b600019600385901b1c1916600184901b178455613afd565b600085815260209020601f19841690600086815260209020845b83811015613bfd5782860154825560019586019590910190602001613bdd565b50858310156139565793015460001960f8600387901b161c19169092555050600190811b01905550565b6000808354613c35816137a0565b60018281168015613c4d5760018114613c6257613c91565b60ff1984168752821515830287019450613c91565b8760005260208060002060005b85811015613c885781548a820152908401908201613c6f565b50505082870194505b50929695505050505050565b634e487b7160e01b600052603160045260246000fd5b600060018201613cc557613cc5613800565b506001019056fe1f675bff07515f5df96737194ea945c36c41e7b4fcef307b7cd4d0e602a69111a26469706673582212205396faa41697c5e31ad00f29a49006aa6f67d4ffc83f1d9ff70f40407de6b18d64736f6c63430008130033",
  "linkReferences": {},
  "deployedLinkReferences": {}
}