{
  "contractName": "SafeStakeNetwork",
  "abi": [
    {
      "inputs": [],
      "name": "AccountAlreadyEnabled",
      "type": "error"
    },
    {
      "inputs": [],
      "name": "ApprovalNotWithinTimeframe",
      "type": "error"
    },
    {
      "inputs": [],
      "name": "BelowMinimumBlockPeriod",
      "type": "error"
    },
    {
      "inputs": [],
      "name": "BurnRatePositive",
      "type": "error"
    },
    {
      "inputs": [],
      "name": "CallerNotOperatorOwner",
      "type": "error"
    },
    {
      "inputs": [],
      "name": "CallerNotValidatorOwner",
      "type": "error"
    },
    {
      "inputs": [],
      "name": "ExceedManagingOperatorsPerAccountLimit",
      "type": "error"
    },
    {
      "inputs": [],
      "name": "FeeExceedsIncreaseLimit",
      "type": "error"
    },
    {
      "inputs": [],
      "name": "FeeTooLow",
      "type": "error"
    },
    {
      "inputs": [],
      "name": "NegativeBalance",
      "type": "error"
    },
    {
      "inputs": [],
      "name": "NoEnoughParaStateDaoOperators",
      "type": "error"
    },
    {
      "inputs": [],
      "name": "NoPendingFeeChangeRequest",
      "type": "error"
    },
    {
      "inputs": [],
      "name": "NotEnoughBalance",
      "type": "error"
    },
    {
      "inputs": [],
      "name": "OperatorWithPublicKeyNotExist",
      "type": "error"
    },
    {
      "inputs": [],
      "name": "ValidatorWithPublicKeyNotExist",
      "type": "error"
    },
    {
      "anonymous": false,
      "inputs": [
        {
          "indexed": true,
          "internalType": "address",
          "name": "ownerAddress",
          "type": "address"
        }
      ],
      "name": "AccountDisable",
      "type": "event"
    },
    {
      "anonymous": false,
      "inputs": [
        {
          "indexed": true,
          "internalType": "address",
          "name": "ownerAddress",
          "type": "address"
        }
      ],
      "name": "AccountEnable",
      "type": "event"
    },
    {
      "anonymous": false,
      "inputs": [
        {
          "indexed": false,
          "internalType": "uint256",
          "name": "value",
          "type": "uint256"
        },
        {
          "indexed": true,
          "internalType": "address",
          "name": "ownerAddress",
          "type": "address"
        },
        {
          "indexed": true,
          "internalType": "address",
          "name": "senderAddress",
          "type": "address"
        }
      ],
      "name": "FundsDeposit",
      "type": "event"
    },
    {
      "anonymous": false,
      "inputs": [
        {
          "indexed": false,
          "internalType": "uint256",
          "name": "value",
          "type": "uint256"
        },
        {
          "indexed": true,
          "internalType": "address",
          "name": "ownerAddress",
          "type": "address"
        }
      ],
      "name": "FundsWithdrawal",
      "type": "event"
    },
    {
      "anonymous": false,
      "inputs": [
        {
          "indexed": false,
          "internalType": "uint8",
          "name": "version",
          "type": "uint8"
        }
      ],
      "name": "Initialized",
      "type": "event"
    },
    {
      "anonymous": false,
      "inputs": [
        {
          "indexed": false,
          "internalType": "uint256",
          "name": "oldFee",
          "type": "uint256"
        },
        {
          "indexed": false,
          "internalType": "uint256",
          "name": "newFee",
          "type": "uint256"
        }
      ],
      "name": "NetworkFeeUpdate",
      "type": "event"
    },
    {
      "anonymous": false,
      "inputs": [
        {
          "indexed": false,
          "internalType": "uint256",
          "name": "value",
          "type": "uint256"
        },
        {
          "indexed": false,
          "internalType": "address",
          "name": "recipient",
          "type": "address"
        }
      ],
      "name": "NetworkFeesWithdrawal",
      "type": "event"
    },
    {
      "anonymous": false,
      "inputs": [
        {
          "indexed": true,
          "internalType": "uint32",
          "name": "id",
          "type": "uint32"
        },
        {
          "indexed": false,
          "internalType": "string",
          "name": "name",
          "type": "string"
        },
        {
          "indexed": true,
          "internalType": "address",
          "name": "ownerAddress",
          "type": "address"
        },
        {
          "indexed": false,
          "internalType": "bytes",
          "name": "publicKey",
          "type": "bytes"
        }
      ],
      "name": "OperatorRegistration",
      "type": "event"
    },
    {
      "anonymous": false,
      "inputs": [
        {
          "indexed": false,
          "internalType": "uint32",
          "name": "operatorId",
          "type": "uint32"
        },
        {
          "indexed": true,
          "internalType": "address",
          "name": "ownerAddress",
          "type": "address"
        }
      ],
      "name": "OperatorRemoval",
      "type": "event"
    },
    {
      "anonymous": false,
      "inputs": [
        {
          "indexed": false,
          "internalType": "uint32",
          "name": "operatorId",
          "type": "uint32"
        },
        {
          "indexed": true,
          "internalType": "address",
          "name": "ownerAddress",
          "type": "address"
        },
        {
          "indexed": false,
          "internalType": "uint256",
          "name": "blockNumber",
          "type": "uint256"
        },
        {
          "indexed": false,
          "internalType": "uint256",
          "name": "score",
          "type": "uint256"
        }
      ],
      "name": "OperatorScoreUpdate",
      "type": "event"
    },
    {
      "anonymous": false,
      "inputs": [
        {
          "indexed": true,
          "internalType": "address",
          "name": "previousOwner",
          "type": "address"
        },
        {
          "indexed": true,
          "internalType": "address",
          "name": "newOwner",
          "type": "address"
        }
      ],
      "name": "OwnershipTransferred",
      "type": "event"
    },
    {
      "anonymous": false,
      "inputs": [
        {
          "indexed": true,
          "internalType": "address",
          "name": "ownerAddress",
          "type": "address"
        },
        {
          "indexed": false,
          "internalType": "bytes",
          "name": "publicKey",
          "type": "bytes"
        },
        {
          "indexed": false,
          "internalType": "uint32[]",
          "name": "operatorIds",
          "type": "uint32[]"
        },
        {
          "indexed": false,
          "internalType": "bytes[]",
          "name": "sharesPublicKeys",
          "type": "bytes[]"
        },
        {
          "indexed": false,
          "internalType": "bytes[]",
          "name": "encryptedKeys",
          "type": "bytes[]"
        },
        {
          "indexed": false,
          "internalType": "uint256",
          "name": "paidBlockNumber",
          "type": "uint256"
        }
      ],
      "name": "ValidatorRegistration",
      "type": "event"
    },
    {
      "anonymous": false,
      "inputs": [
        {
          "indexed": true,
          "internalType": "address",
          "name": "ownerAddress",
          "type": "address"
        },
        {
          "indexed": false,
          "internalType": "bytes",
          "name": "publicKey",
          "type": "bytes"
        }
      ],
      "name": "ValidatorRemoval",
      "type": "event"
    },
    {
      "inputs": [],
      "name": "owner",
      "outputs": [
        {
          "internalType": "address",
          "name": "",
          "type": "address"
        }
      ],
      "stateMutability": "view",
      "type": "function",
      "constant": true
    },
    {
      "inputs": [],
      "name": "renounceOwnership",
      "outputs": [],
      "stateMutability": "nonpayable",
      "type": "function"
    },
    {
      "inputs": [
        {
          "internalType": "address",
          "name": "newOwner",
          "type": "address"
        }
      ],
      "name": "transferOwnership",
      "outputs": [],
      "stateMutability": "nonpayable",
      "type": "function"
    },
    {
      "inputs": [
        {
          "internalType": "contract ISafeStakeRegistry",
          "name": "registryAddress_",
          "type": "address"
        },
        {
          "internalType": "contract IERC20",
          "name": "token_",
          "type": "address"
        },
        {
          "internalType": "uint64",
          "name": "minimumBlocksBeforeLiquidation_",
          "type": "uint64"
        },
        {
          "internalType": "uint64",
          "name": "operatorFee",
          "type": "uint64"
        }
      ],
      "name": "initialize",
      "outputs": [],
      "stateMutability": "nonpayable",
      "type": "function"
    },
    {
      "inputs": [
        {
          "internalType": "string",
          "name": "name",
          "type": "string"
        },
        {
          "internalType": "bytes",
          "name": "publicKey",
          "type": "bytes"
        }
      ],
      "name": "registerOperator",
      "outputs": [
        {
          "internalType": "uint32",
          "name": "operatorId",
          "type": "uint32"
        }
      ],
      "stateMutability": "nonpayable",
      "type": "function"
    },
    {
      "inputs": [
        {
          "internalType": "uint32",
          "name": "operatorId",
          "type": "uint32"
        }
      ],
      "name": "removeOperator",
      "outputs": [],
      "stateMutability": "nonpayable",
      "type": "function"
    },
    {
      "inputs": [
        {
          "internalType": "bytes",
          "name": "publicKey",
          "type": "bytes"
        },
        {
          "internalType": "uint32[]",
          "name": "operatorIds",
          "type": "uint32[]"
        },
        {
          "internalType": "bytes[]",
          "name": "sharesPublicKeys",
          "type": "bytes[]"
        },
        {
          "internalType": "bytes[]",
          "name": "sharesEncrypted",
          "type": "bytes[]"
        },
        {
          "internalType": "uint256",
          "name": "amount",
          "type": "uint256"
        }
      ],
      "name": "registerValidator",
      "outputs": [],
      "stateMutability": "nonpayable",
      "type": "function"
    },
    {
      "inputs": [
        {
          "internalType": "bytes",
          "name": "publicKey",
          "type": "bytes"
        }
      ],
      "name": "removeValidator",
      "outputs": [],
      "stateMutability": "nonpayable",
      "type": "function"
    },
    {
      "inputs": [
        {
          "internalType": "address",
          "name": "ownerAddress",
          "type": "address"
        },
        {
          "internalType": "uint256",
          "name": "amount",
          "type": "uint256"
        }
      ],
      "name": "deposit",
      "outputs": [],
      "stateMutability": "nonpayable",
      "type": "function"
    },
    {
      "inputs": [
        {
          "internalType": "uint256",
          "name": "amount",
          "type": "uint256"
        }
      ],
      "name": "withdraw",
      "outputs": [],
      "stateMutability": "nonpayable",
      "type": "function"
    },
    {
      "inputs": [
        {
          "internalType": "address",
          "name": "ownerAddress",
          "type": "address"
        }
      ],
      "name": "disableAddress",
      "outputs": [],
      "stateMutability": "nonpayable",
      "type": "function"
    },
    {
      "inputs": [
        {
          "internalType": "uint256",
          "name": "amount",
          "type": "uint256"
        }
      ],
      "name": "reactivateAccount",
      "outputs": [],
      "stateMutability": "nonpayable",
      "type": "function"
    },
    {
      "inputs": [
        {
          "internalType": "uint256",
          "name": "fee",
          "type": "uint256"
        }
      ],
      "name": "updateNetworkFee",
      "outputs": [],
      "stateMutability": "nonpayable",
      "type": "function"
    },
    {
      "inputs": [
        {
          "internalType": "address",
          "name": "ownerAddress",
          "type": "address"
        }
      ],
      "name": "getAddressBalance",
      "outputs": [
        {
          "internalType": "uint256",
          "name": "",
          "type": "uint256"
        }
      ],
      "stateMutability": "view",
      "type": "function",
      "constant": true
    },
    {
      "inputs": [
        {
          "internalType": "address",
          "name": "ownerAddress",
          "type": "address"
        }
      ],
      "name": "addressNetworkFee",
      "outputs": [
        {
          "internalType": "uint256",
          "name": "",
          "type": "uint256"
        }
      ],
      "stateMutability": "view",
      "type": "function",
      "constant": true
    },
    {
      "inputs": [
        {
          "internalType": "address",
          "name": "ownerAddress",
          "type": "address"
        }
      ],
      "name": "getAddressBurnRate",
      "outputs": [
        {
          "internalType": "uint256",
          "name": "",
          "type": "uint256"
        }
      ],
      "stateMutability": "view",
      "type": "function",
      "constant": true
    },
    {
      "inputs": [
        {
          "internalType": "address",
          "name": "ownerAddress",
          "type": "address"
        }
      ],
      "name": "isLiquidatable",
      "outputs": [
        {
          "internalType": "bool",
          "name": "",
          "type": "bool"
        }
      ],
      "stateMutability": "view",
      "type": "function",
      "constant": true
    },
    {
      "inputs": [],
      "name": "getNetworkFee",
      "outputs": [
        {
          "internalType": "uint256",
          "name": "",
          "type": "uint256"
        }
      ],
      "stateMutability": "view",
      "type": "function",
      "constant": true
    },
    {
      "inputs": [],
      "name": "getMinimumBlocksValidatorShouldPay",
      "outputs": [
        {
          "internalType": "uint256",
          "name": "",
          "type": "uint256"
        }
      ],
      "stateMutability": "view",
      "type": "function",
      "constant": true
    },
    {
      "inputs": [
        {
          "internalType": "address",
          "name": "account",
          "type": "address"
        },
        {
          "internalType": "uint32[]",
          "name": "operatorIds",
          "type": "uint32[]"
        },
        {
          "internalType": "uint32[]",
          "name": "performances",
          "type": "uint32[]"
        }
      ],
      "name": "accountClaimFee",
      "outputs": [],
      "stateMutability": "nonpayable",
      "type": "function"
    },
    {
      "inputs": [
        {
          "internalType": "uint64",
          "name": "fee",
          "type": "uint64"
        }
      ],
      "name": "updateOperatorFee",
      "outputs": [],
      "stateMutability": "nonpayable",
      "type": "function"
    },
    {
      "inputs": [],
      "name": "version",
      "outputs": [
        {
          "internalType": "uint32",
          "name": "",
          "type": "uint32"
        }
      ],
      "stateMutability": "pure",
      "type": "function",
      "constant": true
    },
    {
      "inputs": [
        {
          "internalType": "address",
          "name": "ownerAddress",
          "type": "address"
        }
      ],
      "name": "getOperatorsInUseByOwnerAddress",
      "outputs": [
        {
          "internalType": "uint32[]",
          "name": "",
          "type": "uint32[]"
        }
      ],
      "stateMutability": "view",
      "type": "function",
      "constant": true
    },
    {
      "inputs": [
        {
          "internalType": "uint32",
          "name": "operatorId",
          "type": "uint32"
        }
      ],
      "name": "getOperatorClaimBlock",
      "outputs": [
        {
          "internalType": "uint256",
          "name": "",
          "type": "uint256"
        }
      ],
      "stateMutability": "view",
      "type": "function",
      "constant": true
    },
    {
      "inputs": [
        {
          "internalType": "address",
          "name": "account",
          "type": "address"
        }
      ],
      "name": "getAccountPaidBlockNumber",
      "outputs": [
        {
          "internalType": "uint256",
          "name": "",
          "type": "uint256"
        }
      ],
      "stateMutability": "view",
      "type": "function",
      "constant": true
    }
  ],
  "bytecode": "0x608060405234801561001057600080fd5b5061583b80620000216000396000f3fe608060405234801561001057600080fd5b50600436106101735760003560e01c80635036258b116100de5780638da5cb5b11610097578063e40cb19d11610071578063e40cb19d14610444578063ead1bc5914610460578063f2fde38b14610490578063fc043830146104ac57610173565b80638da5cb5b146103ee5780639b4400dd1461040c578063b2f569c51461042857610173565b80635036258b1461032c57806354fd4d501461034857806356d9a2cc1461036657806357e2b0e214610396578063715018a6146103b457806385f79d61146103be57610173565b80632e1a7d4d116101305780632e1a7d4d1461025c5780632e1d2f0514610278578063350467221461029457806341d2c0cd146102c457806347e7ef24146102e0578063492e8410146102fc57610173565b8063042e02cf146101785780630ec62fe9146101a85780631f1f9fd5146101c45780632563c64e146101e057806327bfcabd146102105780632afe872f14610240575b600080fd5b610192600480360381019061018d9190614273565b6104ca565b60405161019f91906142bb565b60405180910390f35b6101c260048036038101906101bd919061433b565b6104dc565b005b6101de60048036038101906101d99190614406565b61069b565b005b6101fa60048036038101906101f59190614273565b61076c565b6040516102079190614442565b60405180910390f35b61022a60048036038101906102259190614273565b61077e565b604051610237919061452b565b60405180910390f35b61025a60048036038101906102559190614406565b610841565b005b61027660048036038101906102719190614406565b610960565b005b610292600480360381019061028d9190614579565b6109ee565b005b6102ae60048036038101906102a99190614273565b610b78565b6040516102bb9190614442565b60405180910390f35b6102de60048036038101906102d991906145e6565b610b8a565b005b6102fa60048036038101906102f59190614613565b610c1a565b005b61031660048036038101906103119190614579565b610c28565b6040516103239190614442565b60405180910390f35b61034660048036038101906103419190614273565b610c54565b005b610350610d87565b60405161035d9190614662565b60405180910390f35b610380600480360381019061037b9190614273565b610d91565b60405161038d9190614442565b60405180910390f35b61039e610da3565b6040516103ab9190614442565b60405180910390f35b6103bc610dcb565b005b6103d860048036038101906103d39190614729565b610e53565b6040516103e59190614662565b60405180910390f35b6103f6611011565b60405161040391906147b9565b60405180910390f35b61042660048036038101906104219190614850565b61103b565b005b610442600480360381019061043d91906148b7565b6110d7565b005b61045e6004803603810190610459919061495a565b611152565b005b61047a60048036038101906104759190614273565b611180565b6040516104879190614442565b60405180910390f35b6104aa60048036038101906104a59190614273565b6111cc565b005b6104b46112c3565b6040516104c19190614442565b60405180910390f35b60006104d5826112cd565b9050919050565b6104e4611338565b73ffffffffffffffffffffffffffffffffffffffff16610502611011565b73ffffffffffffffffffffffffffffffffffffffff1614610558576040517f08c379a000000000000000000000000000000000000000000000000000000000815260040161054f90614ab3565b60405180910390fd5b6000805b858590508163ffffffff1610156105f1576105d186868363ffffffff1681811061058957610588614ad3565b5b905060200201602081019061059e9190614579565b85858463ffffffff168181106105b7576105b6614ad3565b5b90506020020160208101906105cc9190614579565b611340565b826105dc9190614b31565b915080806105e990614b65565b91505061055c565b50606760009054906101000a900473ffffffffffffffffffffffffffffffffffffffff1673ffffffffffffffffffffffffffffffffffffffff1663a9059cbb87836040518363ffffffff1660e01b815260040161064f929190614b91565b6020604051808303816000875af115801561066e573d6000803e3d6000fd5b505050506040513d601f19601f820116820180604052508101906106929190614be6565b50505050505050565b6106a3611338565b73ffffffffffffffffffffffffffffffffffffffff166106c1611011565b73ffffffffffffffffffffffffffffffffffffffff1614610717576040517f08c379a000000000000000000000000000000000000000000000000000000000815260040161070e90614ab3565b60405180910390fd5b7fb12de2022a8c992455195d1cdfe49c528c96a325adc99e12b6eab59d56654ea26068548260405161074a929190614c13565b60405180910390a161075a6113a8565b6107626113bf565b8060688190555050565b6000610777826113d6565b9050919050565b6060607160008373ffffffffffffffffffffffffffffffffffffffff1673ffffffffffffffffffffffffffffffffffffffff16815260200190815260200160002080548060200260200160405190810160405280929190818152602001828054801561083557602002820191906000526020600020906000905b82829054906101000a900463ffffffff1663ffffffff16815260200190600401906020826003010492830192600103820291508084116107f85790505b50505050509050919050565b606f60003373ffffffffffffffffffffffffffffffffffffffff1673ffffffffffffffffffffffffffffffffffffffff16815260200190815260200160002060050160049054906101000a900460ff166108c7576040517f44fab0e000000000000000000000000000000000000000000000000000000000815260040160405180910390fd5b6108d133826116e1565b6108da33611846565b6108e3336112cd565b1561091a576040517fad3a8b9e00000000000000000000000000000000000000000000000000000000815260040160405180910390fd5b3373ffffffffffffffffffffffffffffffffffffffff167fd2cad6abfa380a10a84c0e561544f8deb6eea7dd29a411fa306f902aa6ac5eca60405160405180910390a250565b8061096a33611b11565b10156109a2576040517fad3a8b9e00000000000000000000000000000000000000000000000000000000815260040160405180910390fd5b6109ab81611c15565b6109b4336112cd565b156109eb576040517fad3a8b9e00000000000000000000000000000000000000000000000000000000815260040160405180910390fd5b50565b806109f881611d60565b6000606660009054906101000a900473ffffffffffffffffffffffffffffffffffffffff1673ffffffffffffffffffffffffffffffffffffffff1663e7b21748846040518263ffffffff1660e01b8152600401610a559190614662565b602060405180830381865afa158015610a72573d6000803e3d6000fd5b505050506040513d601f19601f82011682018060405250810190610a969190614c51565b9050606660009054906101000a900473ffffffffffffffffffffffffffffffffffffffff1673ffffffffffffffffffffffffffffffffffffffff16632e1d2f05846040518263ffffffff1660e01b8152600401610af39190614662565b600060405180830381600087803b158015610b0d57600080fd5b505af1158015610b21573d6000803e3d6000fd5b505050508073ffffffffffffffffffffffffffffffffffffffff167f10b90e3d042178ee9b3e99a849224b4bf4145b9855274073c0c6bca9c5113b7b84604051610b6b9190614662565b60405180910390a2505050565b6000610b8382611b11565b9050919050565b606660009054906101000a900473ffffffffffffffffffffffffffffffffffffffff1673ffffffffffffffffffffffffffffffffffffffff166341d2c0cd826040518263ffffffff1660e01b8152600401610be59190614c8d565b600060405180830381600087803b158015610bff57600080fd5b505af1158015610c13573d6000803e3d6000fd5b5050505050565b610c2482826116e1565b5050565b6000606e60008363ffffffff1663ffffffff168152602001908152602001600020600101549050919050565b610c5c611338565b73ffffffffffffffffffffffffffffffffffffffff16610c7a611011565b73ffffffffffffffffffffffffffffffffffffffff1614610cd0576040517f08c379a0000000000000000000000000000000000000000000000000000000008152600401610cc790614ab3565b60405180910390fd5b606f60008273ffffffffffffffffffffffffffffffffffffffff1673ffffffffffffffffffffffffffffffffffffffff16815260200190815260200160002060050160049054906101000a900460ff16158015610d325750610d3181611f10565b5b15610d8457610d4081611f57565b8073ffffffffffffffffffffffffffffffffffffffff167fbcdf297ed7902fea73305fee14ec4d4704e2588ceffffef11e2543ef396cd79860405160405180910390a25b50565b6000614e20905090565b6000610d9c82612222565b9050919050565b6000606760149054906101000a900467ffffffffffffffff1667ffffffffffffffff16905090565b610dd3611338565b73ffffffffffffffffffffffffffffffffffffffff16610df1611011565b73ffffffffffffffffffffffffffffffffffffffff1614610e47576040517f08c379a0000000000000000000000000000000000000000000000000000000008152600401610e3e90614ab3565b60405180910390fd5b610e516000612330565b565b6000606660009054906101000a900473ffffffffffffffffffffffffffffffffffffffff1673ffffffffffffffffffffffffffffffffffffffff16631940d38786863387876040518663ffffffff1660e01b8152600401610eb8959493929190614d33565b6020604051808303816000875af1158015610ed7573d6000803e3d6000fd5b505050506040513d601f19601f82011682018060405250810190610efb9190614d91565b90506040518060c001604052804381526020014381526020016000815260200160008152602001438152602001600063ffffffff16815250606e60008363ffffffff1663ffffffff168152602001908152602001600020600082015181600001556020820151816001015560408201518160020155606082015181600301556080820151816004015560a08201518160050160006101000a81548163ffffffff021916908363ffffffff1602179055509050503373ffffffffffffffffffffffffffffffffffffffff168163ffffffff167fa837adf7db87879179d994c48f4275ae84c6ea7ba2ff625b1e121b5a6f42317d878787876040516110019493929190614dbe565b60405180910390a3949350505050565b6000603360009054906101000a900473ffffffffffffffffffffffffffffffffffffffff16905090565b600061104760016123f6565b9050801561106b576001600060016101000a81548160ff0219169083151502179055505b611077858585856124e6565b80156110d05760008060016101000a81548160ff0219169083151502179055507f7f26b83ff96e1f2b6a682f133852f6798a09c465da95921460cefb384740249860016040516110c79190614e4b565b60405180910390a15b5050505050565b81816110e3828261258a565b6110eb6113a8565b6110f43361273d565b6111423385858080601f016020809104026020016040519081016040528093929190818152602001838380828437600081840152601f19601f820116905080830192505050505050506127dd565b61114b33611b11565b5050505050565b61115a6113a8565b6111633361273d565b611175338a8a8a8a8a8a8a8a8a6129a0565b505050505050505050565b6000606f60008373ffffffffffffffffffffffffffffffffffffffff1673ffffffffffffffffffffffffffffffffffffffff168152602001908152602001600020600601549050919050565b6111d4611338565b73ffffffffffffffffffffffffffffffffffffffff166111f2611011565b73ffffffffffffffffffffffffffffffffffffffff1614611248576040517f08c379a000000000000000000000000000000000000000000000000000000000815260040161123f90614ab3565b60405180910390fd5b600073ffffffffffffffffffffffffffffffffffffffff168173ffffffffffffffffffffffffffffffffffffffff16036112b7576040517f08c379a00000000000000000000000000000000000000000000000000000000081526004016112ae90614ed8565b60405180910390fd5b6112c081612330565b50565b6000606854905090565b6000606f60008373ffffffffffffffffffffffffffffffffffffffff1673ffffffffffffffffffffffffffffffffffffffff16815260200190815260200160002060050160049054906101000a900460ff16158015611331575061133082611f10565b5b9050919050565b600033905090565b600080606e60008563ffffffff1663ffffffff1681526020019081526020016000209050600060648463ffffffff16836002015461137e9190614ef8565b6113889190614f69565b905060008260020181905550438260010181905550809250505092915050565b6113b0612c89565b606b8190555043606c81905550565b6113c7612d5e565b60698190555043606a81905550565b6000606f60008373ffffffffffffffffffffffffffffffffffffffff1673ffffffffffffffffffffffffffffffffffffffff16815260200190815260200160002060050160049054906101000a900460ff161561143657600090506116dc565b60005b607160008473ffffffffffffffffffffffffffffffffffffffff1673ffffffffffffffffffffffffffffffffffffffff168152602001908152602001600020805490508163ffffffff16101561152d5761150f83607160008673ffffffffffffffffffffffffffffffffffffffff1673ffffffffffffffffffffffffffffffffffffffff1681526020019081526020016000208363ffffffff16815481106114e4576114e3614ad3565b5b90600052602060002090600891828204019190066004029054906101000a900463ffffffff16612d8d565b8261151a9190614b31565b91508061152690614b65565b9050611439565b50606854606f60008473ffffffffffffffffffffffffffffffffffffffff1673ffffffffffffffffffffffffffffffffffffffff16815260200190815260200160002060050160009054906101000a900463ffffffff1663ffffffff166115949190614ef8565b8161159f9190614b31565b90506000606660009054906101000a900473ffffffffffffffffffffffffffffffffffffffff1673ffffffffffffffffffffffffffffffffffffffff16630dc1eeff846040518263ffffffff1660e01b81526004016115fe91906147b9565b600060405180830381865afa15801561161b573d6000803e3d6000fd5b505050506040513d6000823e3d601f19601f8201168201806040525081019061164491906150d8565b905060005b81518163ffffffff1610156116d957611681828263ffffffff168151811061167457611673614ad3565b5b6020026020010151612ea8565b8311611692576000925050506116dc565b6116bb828263ffffffff16815181106116ae576116ad614ad3565b5b6020026020010151612ea8565b836116c69190615121565b9250806116d290614b65565b9050611649565b50505b919050565b606760009054906101000a900473ffffffffffffffffffffffffffffffffffffffff1673ffffffffffffffffffffffffffffffffffffffff166323b872dd3330846040518463ffffffff1660e01b815260040161174093929190615155565b6020604051808303816000875af115801561175f573d6000803e3d6000fd5b505050506040513d601f19601f820116820180604052508101906117839190614be6565b5080606f60008473ffffffffffffffffffffffffffffffffffffffff1673ffffffffffffffffffffffffffffffffffffffff16815260200190815260200160002060000160008282546117d69190614b31565b925050819055503373ffffffffffffffffffffffffffffffffffffffff168273ffffffffffffffffffffffffffffffffffffffff167fb91f78378ad1ce7b5c12301896eac25f50d4603d0301406595e6fdfa6ffd64198360405161183a9190614442565b60405180910390a35050565b61184e6113a8565b6118578161273d565b60005b607160008373ffffffffffffffffffffffffffffffffffffffff1673ffffffffffffffffffffffffffffffffffffffff168152602001908152602001600020805490508163ffffffff161015611a25576000607160008473ffffffffffffffffffffffffffffffffffffffff1673ffffffffffffffffffffffffffffffffffffffff1681526020019081526020016000208263ffffffff168154811061190357611902614ad3565b5b90600052602060002090600891828204019190066004029054906101000a900463ffffffff16905061193481612f85565b6000607060008573ffffffffffffffffffffffffffffffffffffffff1673ffffffffffffffffffffffffffffffffffffffff16815260200190815260200160002060008363ffffffff1663ffffffff168152602001908152602001600020905061199f818584612fc6565b8060020160009054906101000a900463ffffffff16606e60008463ffffffff1663ffffffff16815260200190815260200160002060050160008282829054906101000a900463ffffffff166119f4919061518c565b92506101000a81548163ffffffff021916908363ffffffff160217905550505080611a1e90614b65565b905061185a565b50606660009054906101000a900473ffffffffffffffffffffffffffffffffffffffff1673ffffffffffffffffffffffffffffffffffffffff166345413bf4826040518263ffffffff1660e01b8152600401611a8191906147b9565b600060405180830381600087803b158015611a9b57600080fd5b505af1158015611aaf573d6000803e3d6000fd5b505050506000606f60008373ffffffffffffffffffffffffffffffffffffffff1673ffffffffffffffffffffffffffffffffffffffff16815260200190815260200160002060050160046101000a81548160ff02191690831515021790555050565b600080611b1d83612fef565b606f60008573ffffffffffffffffffffffffffffffffffffffff1673ffffffffffffffffffffffffffffffffffffffff16815260200190815260200160002060000154611b6a9190614b31565b90506000611b77846130ff565b606f60008673ffffffffffffffffffffffffffffffffffffffff1673ffffffffffffffffffffffffffffffffffffffff16815260200190815260200160002060010154611bc49190614b31565b905080821015611c00576040517f5e13ed3100000000000000000000000000000000000000000000000000000000815260040160405180910390fd5b8082611c0c9190615121565b92505050919050565b80606f60003373ffffffffffffffffffffffffffffffffffffffff1673ffffffffffffffffffffffffffffffffffffffff1681526020019081526020016000206001016000828254611c679190614b31565b92505081905550606760009054906101000a900473ffffffffffffffffffffffffffffffffffffffff1673ffffffffffffffffffffffffffffffffffffffff1663a9059cbb33836040518363ffffffff1660e01b8152600401611ccb929190614b91565b6020604051808303816000875af1158015611cea573d6000803e3d6000fd5b505050506040513d601f19601f82011682018060405250810190611d0e9190614be6565b503373ffffffffffffffffffffffffffffffffffffffff167f233f5518707099d7be7f52de7c8094100dae65f0c896a762ebcc5900370d66bc82604051611d559190614442565b60405180910390a250565b6000606660009054906101000a900473ffffffffffffffffffffffffffffffffffffffff1673ffffffffffffffffffffffffffffffffffffffff1663e7b21748836040518263ffffffff1660e01b8152600401611dbd9190614662565b602060405180830381865afa158015611dda573d6000803e3d6000fd5b505050506040513d601f19601f82011682018060405250810190611dfe9190614c51565b9050600073ffffffffffffffffffffffffffffffffffffffff168173ffffffffffffffffffffffffffffffffffffffff1603611e66576040517fd5528c8600000000000000000000000000000000000000000000000000000000815260040160405180910390fd5b8073ffffffffffffffffffffffffffffffffffffffff163373ffffffffffffffffffffffffffffffffffffffff1614158015611ed55750611ea5611011565b73ffffffffffffffffffffffffffffffffffffffff163373ffffffffffffffffffffffffffffffffffffffff1614155b15611f0c576040517fec4de4c900000000000000000000000000000000000000000000000000000000815260040160405180910390fd5b5050565b6000611f1b826113d6565b606760149054906101000a900467ffffffffffffffff1667ffffffffffffffff16611f469190614ef8565b611f4f83611b11565b109050919050565b611f5f6113a8565b611f688161273d565b60005b607160008373ffffffffffffffffffffffffffffffffffffffff1673ffffffffffffffffffffffffffffffffffffffff168152602001908152602001600020805490508163ffffffff161015612136576000607160008473ffffffffffffffffffffffffffffffffffffffff1673ffffffffffffffffffffffffffffffffffffffff1681526020019081526020016000208263ffffffff168154811061201457612013614ad3565b5b90600052602060002090600891828204019190066004029054906101000a900463ffffffff16905061204581612f85565b6000607060008573ffffffffffffffffffffffffffffffffffffffff1673ffffffffffffffffffffffffffffffffffffffff16815260200190815260200160002060008363ffffffff1663ffffffff16815260200190815260200160002090506120b0818584612fc6565b8060020160009054906101000a900463ffffffff16606e60008463ffffffff1663ffffffff16815260200190815260200160002060050160008282829054906101000a900463ffffffff1661210591906151c4565b92506101000a81548163ffffffff021916908363ffffffff16021790555050508061212f90614b65565b9050611f6b565b50606660009054906101000a900473ffffffffffffffffffffffffffffffffffffffff1673ffffffffffffffffffffffffffffffffffffffff166327467a18826040518263ffffffff1660e01b815260040161219291906147b9565b600060405180830381600087803b1580156121ac57600080fd5b505af11580156121c0573d6000803e3d6000fd5b505050506001606f60008373ffffffffffffffffffffffffffffffffffffffff1673ffffffffffffffffffffffffffffffffffffffff16815260200190815260200160002060050160046101000a81548160ff02191690831515021790555050565b6000606f60008373ffffffffffffffffffffffffffffffffffffffff1673ffffffffffffffffffffffffffffffffffffffff16815260200190815260200160002060050160009054906101000a900463ffffffff1663ffffffff16606f60008473ffffffffffffffffffffffffffffffffffffffff1673ffffffffffffffffffffffffffffffffffffffff168152602001908152602001600020600401546122c8612d5e565b6122d29190615121565b6122dc9190614ef8565b606f60008473ffffffffffffffffffffffffffffffffffffffff1673ffffffffffffffffffffffffffffffffffffffff168152602001908152602001600020600301546123299190614b31565b9050919050565b6000603360009054906101000a900473ffffffffffffffffffffffffffffffffffffffff16905081603360006101000a81548173ffffffffffffffffffffffffffffffffffffffff021916908373ffffffffffffffffffffffffffffffffffffffff1602179055508173ffffffffffffffffffffffffffffffffffffffff168173ffffffffffffffffffffffffffffffffffffffff167f8be0079c531659141344cd1fd0a4f28419497f9722a3daafe3b4186f6b6457e060405160405180910390a35050565b60008060019054906101000a900460ff161561246d5760018260ff16148015612425575061242330613339565b155b612464576040517f08c379a000000000000000000000000000000000000000000000000000000000815260040161245b9061526e565b60405180910390fd5b600090506124e1565b8160ff1660008054906101000a900460ff1660ff16106124c2576040517f08c379a00000000000000000000000000000000000000000000000000000000081526004016124b99061526e565b60405180910390fd5b816000806101000a81548160ff021916908360ff160217905550600190505b919050565b60006124f260016123f6565b90508015612516576001600060016101000a81548160ff0219169083151502179055505b61251e61335c565b61252a858585856133bd565b80156125835760008060016101000a81548160ff0219169083151502179055507f7f26b83ff96e1f2b6a682f133852f6798a09c465da95921460cefb3847402498600160405161257a9190614e4b565b60405180910390a15b5050505050565b6000606660009054906101000a900473ffffffffffffffffffffffffffffffffffffffff1673ffffffffffffffffffffffffffffffffffffffff1663c87b303884846040518363ffffffff1660e01b81526004016125e992919061528e565b602060405180830381865afa158015612606573d6000803e3d6000fd5b505050506040513d601f19601f8201168201806040525081019061262a9190614c51565b9050600073ffffffffffffffffffffffffffffffffffffffff168173ffffffffffffffffffffffffffffffffffffffff1603612692576040517f8791c3b400000000000000000000000000000000000000000000000000000000815260040160405180910390fd5b8073ffffffffffffffffffffffffffffffffffffffff163373ffffffffffffffffffffffffffffffffffffffff161415801561270157506126d1611011565b73ffffffffffffffffffffffffffffffffffffffff163373ffffffffffffffffffffffffffffffffffffffff1614155b15612738576040517f11ecf9f200000000000000000000000000000000000000000000000000000000815260040160405180910390fd5b505050565b61274681612222565b606f60008373ffffffffffffffffffffffffffffffffffffffff1673ffffffffffffffffffffffffffffffffffffffff16815260200190815260200160002060030181905550612794612d5e565b606f60008373ffffffffffffffffffffffffffffffffffffffff1673ffffffffffffffffffffffffffffffffffffffff1681526020019081526020016000206004018190555050565b6127e78282613563565b606660009054906101000a900473ffffffffffffffffffffffffffffffffffffffff1673ffffffffffffffffffffffffffffffffffffffff1663b2f569c5826040518263ffffffff1660e01b81526004016128429190615320565b600060405180830381600087803b15801561285c57600080fd5b505af1158015612870573d6000803e3d6000fd5b50505050606f60008373ffffffffffffffffffffffffffffffffffffffff1673ffffffffffffffffffffffffffffffffffffffff16815260200190815260200160002060050160049054906101000a900460ff1661294557606f60008373ffffffffffffffffffffffffffffffffffffffff1673ffffffffffffffffffffffffffffffffffffffff168152602001908152602001600020600501600081819054906101000a900463ffffffff1661292690615342565b91906101000a81548163ffffffff021916908363ffffffff1602179055505b61294e8261371b565b8173ffffffffffffffffffffffffffffffffffffffff167f671ada3835502b9498e4a3116c344293ec3a4ef43f90bb42283d7d66a3f772b2826040516129949190615320565b60405180910390a25050565b606660009054906101000a900473ffffffffffffffffffffffffffffffffffffffff1673ffffffffffffffffffffffffffffffffffffffff16639b4ddb5d8b8b8b8b8b8b8b8b8b6040518a63ffffffff1660e01b8152600401612a0b9998979695949392919061555a565b600060405180830381600087803b158015612a2557600080fd5b505af1158015612a39573d6000803e3d6000fd5b505050506000606f60008c73ffffffffffffffffffffffffffffffffffffffff1673ffffffffffffffffffffffffffffffffffffffff16815260200190815260200160002090504381600601819055508060050160049054906101000a900460ff16612ade5780600501600081819054906101000a900463ffffffff16612abf90614b65565b91906101000a81548163ffffffff021916908363ffffffff1602179055505b60005b888890508163ffffffff161015612bbc57600089898363ffffffff16818110612b0d57612b0c614ad3565b5b9050602002016020810190612b229190614579565b9050612b2d81612f85565b8260050160049054906101000a900460ff16612ba057606e60008263ffffffff1663ffffffff168152602001908152602001600020600501600081819054906101000a900463ffffffff16612b8190614b65565b91906101000a81548163ffffffff021916908363ffffffff1602179055505b612baa8d826137e8565b5080612bb590614b65565b9050612ae1565b506000821115612bd157612bd033836116e1565b5b612bda8b6112cd565b15612c11576040517fad3a8b9e00000000000000000000000000000000000000000000000000000000815260040160405180910390fd5b612c1a8b61371b565b8a73ffffffffffffffffffffffffffffffffffffffff167f610eb3c1fafe229af536e91b7e00486902d54d54d8d3f0de283a467ac8f985bf8b8b8b8b8b8b8b8b8a60060154604051612c74999897969594939291906155d1565b60405180910390a25050505050505050505050565b600080606660009054906101000a900473ffffffffffffffffffffffffffffffffffffffff1673ffffffffffffffffffffffffffffffffffffffff16632340e8d36040518163ffffffff1660e01b8152600401602060405180830381865afa158015612cf9573d6000803e3d6000fd5b505050506040513d601f19601f82011682018060405250810190612d1d9190614d91565b63ffffffff16606854606c5443612d349190615121565b612d3e9190614ef8565b612d489190614ef8565b606b54612d559190614b31565b90508091505090565b6000606854606a5443612d719190615121565b612d7b9190614ef8565b606954612d889190614b31565b905090565b6000607060008473ffffffffffffffffffffffffffffffffffffffff1673ffffffffffffffffffffffffffffffffffffffff16815260200190815260200160002060008363ffffffff1663ffffffff16815260200190815260200160002060020160009054906101000a900463ffffffff1663ffffffff16606660009054906101000a900473ffffffffffffffffffffffffffffffffffffffff1673ffffffffffffffffffffffffffffffffffffffff1663286966086040518163ffffffff1660e01b8152600401602060405180830381865afa158015612e72573d6000803e3d6000fd5b505050506040513d601f19601f82011682018060405250810190612e96919061565d565b612ea09190614ef8565b905092915050565b6000606e60008363ffffffff1663ffffffff16815260200190815260200160002060050160009054906101000a900463ffffffff1663ffffffff16606660009054906101000a900473ffffffffffffffffffffffffffffffffffffffff1673ffffffffffffffffffffffffffffffffffffffff1663286966086040518163ffffffff1660e01b8152600401602060405180830381865afa158015612f50573d6000803e3d6000fd5b505050506040513d601f19601f82011682018060405250810190612f74919061565d565b612f7e9190614ef8565b9050919050565b6000606e60008363ffffffff1663ffffffff1681526020019081526020016000209050612fb1826137f8565b81600201819055504381600001819055505050565b612fd183838361386f565b8360010181905550612fe281613922565b8360000181905550505050565b600080600090506000606660009054906101000a900473ffffffffffffffffffffffffffffffffffffffff1673ffffffffffffffffffffffffffffffffffffffff16630dc1eeff856040518263ffffffff1660e01b815260040161305391906147b9565b600060405180830381865afa158015613070573d6000803e3d6000fd5b505050506040513d6000823e3d601f19601f8201168201806040525081019061309991906150d8565b905060005b81518163ffffffff1610156130f4576130d6828263ffffffff16815181106130c9576130c8614ad3565b5b60200260200101516137f8565b836130e19190614b31565b9250806130ed90614b65565b905061309e565b508192505050919050565b60008061310b83612222565b606f60008573ffffffffffffffffffffffffffffffffffffffff1673ffffffffffffffffffffffffffffffffffffffff168152602001908152602001600020600201546131589190614b31565b905060005b607160008573ffffffffffffffffffffffffffffffffffffffff1673ffffffffffffffffffffffffffffffffffffffff168152602001908152602001600020805490508163ffffffff16101561332f576000607060008673ffffffffffffffffffffffffffffffffffffffff1673ffffffffffffffffffffffffffffffffffffffff1681526020019081526020016000206000607160008873ffffffffffffffffffffffffffffffffffffffff1673ffffffffffffffffffffffffffffffffffffffff1681526020019081526020016000208463ffffffff168154811061324757613246614ad3565b5b90600052602060002090600891828204019190066004029054906101000a900463ffffffff1663ffffffff1663ffffffff16815260200190815260200160002090506133108186607160008973ffffffffffffffffffffffffffffffffffffffff1673ffffffffffffffffffffffffffffffffffffffff1681526020019081526020016000208563ffffffff16815481106132e5576132e4614ad3565b5b90600052602060002090600891828204019190066004029054906101000a900463ffffffff1661386f565b8361331b9190614b31565b9250508061332890614b65565b905061315d565b5080915050919050565b6000808273ffffffffffffffffffffffffffffffffffffffff163b119050919050565b600060019054906101000a900460ff166133ab576040517f08c379a00000000000000000000000000000000000000000000000000000000081526004016133a2906156fc565b60405180910390fd5b6133bb6133b6611338565b612330565b565b600060019054906101000a900460ff1661340c576040517f08c379a0000000000000000000000000000000000000000000000000000000008152600401613403906156fc565b60405180910390fd5b83606660006101000a81548173ffffffffffffffffffffffffffffffffffffffff021916908373ffffffffffffffffffffffffffffffffffffffff16021790555082606760006101000a81548173ffffffffffffffffffffffffffffffffffffffff021916908373ffffffffffffffffffffffffffffffffffffffff16021790555061349782613a21565b606660009054906101000a900473ffffffffffffffffffffffffffffffffffffffff1673ffffffffffffffffffffffffffffffffffffffff1663fe4b84df826040518263ffffffff1660e01b81526004016134f2919061574d565b600060405180830381600087803b15801561350c57600080fd5b505af1158015613520573d6000803e3d6000fd5b5050505061352c6113a8565b6135346113bf565b6064600a826135439190615768565b61354d91906157a5565b67ffffffffffffffff1660688190555050505050565b6000606660009054906101000a900473ffffffffffffffffffffffffffffffffffffffff1673ffffffffffffffffffffffffffffffffffffffff1663053e8349836040518263ffffffff1660e01b81526004016135c09190615320565b600060405180830381865afa1580156135dd573d6000803e3d6000fd5b505050506040513d6000823e3d601f19601f8201168201806040525081019061360691906150d8565b905060005b81518163ffffffff161015613715576000828263ffffffff168151811061363557613634614ad3565b5b6020026020010151905061364881612f85565b606f60008673ffffffffffffffffffffffffffffffffffffffff1673ffffffffffffffffffffffffffffffffffffffff16815260200190815260200160002060050160049054906101000a900460ff166136f957606e60008263ffffffff1663ffffffff168152602001908152602001600020600501600081819054906101000a900463ffffffff166136da90615342565b91906101000a81548163ffffffff021916908363ffffffff1602179055505b6137038582613a4d565b508061370e90614b65565b905061360b565b50505050565b6000613726826113d6565b036137775743606f60008373ffffffffffffffffffffffffffffffffffffffff1673ffffffffffffffffffffffffffffffffffffffff168152602001908152602001600020600601819055506137e5565b613780816113d6565b61378982611b11565b6137939190614f69565b4361379e9190614b31565b606f60008373ffffffffffffffffffffffffffffffffffffffff1673ffffffffffffffffffffffffffffffffffffffff168152602001908152602001600020600601819055505b50565b6137f482826001613a5d565b5050565b600061380382612ea8565b606e60008463ffffffff1663ffffffff16815260200190815260200160002060000154436138319190615121565b61383b9190614ef8565b606e60008463ffffffff1663ffffffff168152602001908152602001600020600201546138689190614b31565b9050919050565b6000606f60008473ffffffffffffffffffffffffffffffffffffffff1673ffffffffffffffffffffffffffffffffffffffff16815260200190815260200160002060050160049054906101000a900460ff16613907578360020160009054906101000a900463ffffffff1663ffffffff1684600001546138ee84613922565b6138f89190615121565b6139029190614ef8565b61390a565b60005b84600101546139199190614b31565b90509392505050565b6000606e60008363ffffffff1663ffffffff16815260200190815260200160002060040154436139529190615121565b606660009054906101000a900473ffffffffffffffffffffffffffffffffffffffff1673ffffffffffffffffffffffffffffffffffffffff1663286966086040518163ffffffff1660e01b8152600401602060405180830381865afa1580156139bf573d6000803e3d6000fd5b505050506040513d601f19601f820116820180604052508101906139e3919061565d565b6139ed9190614ef8565b606e60008463ffffffff1663ffffffff16815260200190815260200160002060030154613a1a9190614b31565b9050919050565b80606760146101000a81548167ffffffffffffffff021916908367ffffffffffffffff16021790555050565b613a5982826000613a5d565b5050565b6000607060008573ffffffffffffffffffffffffffffffffffffffff1673ffffffffffffffffffffffffffffffffffffffff16815260200190815260200160002060008463ffffffff1663ffffffff16815260200190815260200160002090508060020160089054906101000a900460ff1615613f8b57613adf818585612fc6565b8115613b285780600201600081819054906101000a900463ffffffff16613b0590614b65565b91906101000a81548163ffffffff021916908363ffffffff160217905550613f86565b600081600201600081819054906101000a900463ffffffff16613b4a90615342565b91906101000a81548163ffffffff021916908363ffffffff160217905563ffffffff1603613f85578060010154606f60008673ffffffffffffffffffffffffffffffffffffffff1673ffffffffffffffffffffffffffffffffffffffff1681526020019081526020016000206002016000828254613bc89190614b31565b92505081905550607160008573ffffffffffffffffffffffffffffffffffffffff1673ffffffffffffffffffffffffffffffffffffffff1681526020019081526020016000206001607160008773ffffffffffffffffffffffffffffffffffffffff1673ffffffffffffffffffffffffffffffffffffffff16815260200190815260200160002080549050613c5d9190615121565b81548110613c6e57613c6d614ad3565b5b90600052602060002090600891828204019190066004029054906101000a900463ffffffff16607160008673ffffffffffffffffffffffffffffffffffffffff1673ffffffffffffffffffffffffffffffffffffffff1681526020019081526020016000208260020160049054906101000a900463ffffffff1663ffffffff1681548110613cff57613cfe614ad3565b5b90600052602060002090600891828204019190066004026101000a81548163ffffffff021916908363ffffffff1602179055508060020160049054906101000a900463ffffffff16607060008673ffffffffffffffffffffffffffffffffffffffff1673ffffffffffffffffffffffffffffffffffffffff1681526020019081526020016000206000607160008873ffffffffffffffffffffffffffffffffffffffff1673ffffffffffffffffffffffffffffffffffffffff1681526020019081526020016000208460020160049054906101000a900463ffffffff1663ffffffff1681548110613df357613df2614ad3565b5b90600052602060002090600891828204019190066004029054906101000a900463ffffffff1663ffffffff1663ffffffff16815260200190815260200160002060020160046101000a81548163ffffffff021916908363ffffffff160217905550607160008573ffffffffffffffffffffffffffffffffffffffff1673ffffffffffffffffffffffffffffffffffffffff168152602001908152602001600020805480613ea357613ea26157d6565b5b60019003818190600052602060002090600891828204019190066004026101000a81549063ffffffff02191690559055607060008573ffffffffffffffffffffffffffffffffffffffff1673ffffffffffffffffffffffffffffffffffffffff16815260200190815260200160002060008463ffffffff1663ffffffff16815260200190815260200160002060008082016000905560018201600090556002820160006101000a81549063ffffffff02191690556002820160046101000a81549063ffffffff02191690556002820160086101000a81549060ff021916905550505b5b6141fb565b603261ffff16607160008673ffffffffffffffffffffffffffffffffffffffff1673ffffffffffffffffffffffffffffffffffffffff16815260200190815260200160002080549050111561400c576040517f9722180300000000000000000000000000000000000000000000000000000000815260040160405180910390fd5b6040518060a0016040528061402085613922565b815260200160008152602001600163ffffffff168152602001607160008773ffffffffffffffffffffffffffffffffffffffff1673ffffffffffffffffffffffffffffffffffffffff1681526020019081526020016000208054905063ffffffff16815260200160011515815250607060008673ffffffffffffffffffffffffffffffffffffffff1673ffffffffffffffffffffffffffffffffffffffff16815260200190815260200160002060008563ffffffff1663ffffffff168152602001908152602001600020600082015181600001556020820151816001015560408201518160020160006101000a81548163ffffffff021916908363ffffffff16021790555060608201518160020160046101000a81548163ffffffff021916908363ffffffff16021790555060808201518160020160086101000a81548160ff021916908315150217905550905050607160008573ffffffffffffffffffffffffffffffffffffffff1673ffffffffffffffffffffffffffffffffffffffff1681526020019081526020016000208390806001815401808255809150506001900390600052602060002090600891828204019190066004029091909190916101000a81548163ffffffff021916908363ffffffff1602179055505b50505050565b6000604051905090565b600080fd5b600080fd5b600073ffffffffffffffffffffffffffffffffffffffff82169050919050565b600061424082614215565b9050919050565b61425081614235565b811461425b57600080fd5b50565b60008135905061426d81614247565b92915050565b6000602082840312156142895761428861420b565b5b60006142978482850161425e565b91505092915050565b60008115159050919050565b6142b5816142a0565b82525050565b60006020820190506142d060008301846142ac565b92915050565b600080fd5b600080fd5b600080fd5b60008083601f8401126142fb576142fa6142d6565b5b8235905067ffffffffffffffff811115614318576143176142db565b5b602083019150836020820283011115614334576143336142e0565b5b9250929050565b6000806000806000606086880312156143575761435661420b565b5b60006143658882890161425e565b955050602086013567ffffffffffffffff81111561438657614385614210565b5b614392888289016142e5565b9450945050604086013567ffffffffffffffff8111156143b5576143b4614210565b5b6143c1888289016142e5565b92509250509295509295909350565b6000819050919050565b6143e3816143d0565b81146143ee57600080fd5b50565b600081359050614400816143da565b92915050565b60006020828403121561441c5761441b61420b565b5b600061442a848285016143f1565b91505092915050565b61443c816143d0565b82525050565b60006020820190506144576000830184614433565b92915050565b600081519050919050565b600082825260208201905092915050565b6000819050602082019050919050565b600063ffffffff82169050919050565b6144a281614489565b82525050565b60006144b48383614499565b60208301905092915050565b6000602082019050919050565b60006144d88261445d565b6144e28185614468565b93506144ed83614479565b8060005b8381101561451e57815161450588826144a8565b9750614510836144c0565b9250506001810190506144f1565b5085935050505092915050565b6000602082019050818103600083015261454581846144cd565b905092915050565b61455681614489565b811461456157600080fd5b50565b6000813590506145738161454d565b92915050565b60006020828403121561458f5761458e61420b565b5b600061459d84828501614564565b91505092915050565b600067ffffffffffffffff82169050919050565b6145c3816145a6565b81146145ce57600080fd5b50565b6000813590506145e0816145ba565b92915050565b6000602082840312156145fc576145fb61420b565b5b600061460a848285016145d1565b91505092915050565b6000806040838503121561462a5761462961420b565b5b60006146388582860161425e565b9250506020614649858286016143f1565b9150509250929050565b61465c81614489565b82525050565b60006020820190506146776000830184614653565b92915050565b60008083601f840112614693576146926142d6565b5b8235905067ffffffffffffffff8111156146b0576146af6142db565b5b6020830191508360018202830111156146cc576146cb6142e0565b5b9250929050565b60008083601f8401126146e9576146e86142d6565b5b8235905067ffffffffffffffff811115614706576147056142db565b5b602083019150836001820283011115614722576147216142e0565b5b9250929050565b600080600080604085870312156147435761474261420b565b5b600085013567ffffffffffffffff81111561476157614760614210565b5b61476d8782880161467d565b9450945050602085013567ffffffffffffffff8111156147905761478f614210565b5b61479c878288016146d3565b925092505092959194509250565b6147b381614235565b82525050565b60006020820190506147ce60008301846147aa565b92915050565b60006147df82614235565b9050919050565b6147ef816147d4565b81146147fa57600080fd5b50565b60008135905061480c816147e6565b92915050565b600061481d82614235565b9050919050565b61482d81614812565b811461483857600080fd5b50565b60008135905061484a81614824565b92915050565b6000806000806080858703121561486a5761486961420b565b5b6000614878878288016147fd565b94505060206148898782880161483b565b935050604061489a878288016145d1565b92505060606148ab878288016145d1565b91505092959194509250565b600080602083850312156148ce576148cd61420b565b5b600083013567ffffffffffffffff8111156148ec576148eb614210565b5b6148f8858286016146d3565b92509250509250929050565b60008083601f84011261491a576149196142d6565b5b8235905067ffffffffffffffff811115614937576149366142db565b5b602083019150836020820283011115614953576149526142e0565b5b9250929050565b600080600080600080600080600060a08a8c03121561497c5761497b61420b565b5b60008a013567ffffffffffffffff81111561499a57614999614210565b5b6149a68c828d016146d3565b995099505060208a013567ffffffffffffffff8111156149c9576149c8614210565b5b6149d58c828d016142e5565b975097505060408a013567ffffffffffffffff8111156149f8576149f7614210565b5b614a048c828d01614904565b955095505060608a013567ffffffffffffffff811115614a2757614a26614210565b5b614a338c828d01614904565b93509350506080614a468c828d016143f1565b9150509295985092959850929598565b600082825260208201905092915050565b7f4f776e61626c653a2063616c6c6572206973206e6f7420746865206f776e6572600082015250565b6000614a9d602083614a56565b9150614aa882614a67565b602082019050919050565b60006020820190508181036000830152614acc81614a90565b9050919050565b7f4e487b7100000000000000000000000000000000000000000000000000000000600052603260045260246000fd5b7f4e487b7100000000000000000000000000000000000000000000000000000000600052601160045260246000fd5b6000614b3c826143d0565b9150614b47836143d0565b9250828201905080821115614b5f57614b5e614b02565b5b92915050565b6000614b7082614489565b915063ffffffff8203614b8657614b85614b02565b5b600182019050919050565b6000604082019050614ba660008301856147aa565b614bb36020830184614433565b9392505050565b614bc3816142a0565b8114614bce57600080fd5b50565b600081519050614be081614bba565b92915050565b600060208284031215614bfc57614bfb61420b565b5b6000614c0a84828501614bd1565b91505092915050565b6000604082019050614c286000830185614433565b614c356020830184614433565b9392505050565b600081519050614c4b81614247565b92915050565b600060208284031215614c6757614c6661420b565b5b6000614c7584828501614c3c565b91505092915050565b614c87816145a6565b82525050565b6000602082019050614ca26000830184614c7e565b92915050565b82818337600083830152505050565b6000601f19601f8301169050919050565b6000614cd48385614a56565b9350614ce1838584614ca8565b614cea83614cb7565b840190509392505050565b600082825260208201905092915050565b6000614d128385614cf5565b9350614d1f838584614ca8565b614d2883614cb7565b840190509392505050565b60006060820190508181036000830152614d4e818789614cc8565b9050614d5d60208301866147aa565b8181036040830152614d70818486614d06565b90509695505050505050565b600081519050614d8b8161454d565b92915050565b600060208284031215614da757614da661420b565b5b6000614db584828501614d7c565b91505092915050565b60006040820190508181036000830152614dd9818688614cc8565b90508181036020830152614dee818486614d06565b905095945050505050565b6000819050919050565b600060ff82169050919050565b6000819050919050565b6000614e35614e30614e2b84614df9565b614e10565b614e03565b9050919050565b614e4581614e1a565b82525050565b6000602082019050614e606000830184614e3c565b92915050565b7f4f776e61626c653a206e6577206f776e657220697320746865207a65726f206160008201527f6464726573730000000000000000000000000000000000000000000000000000602082015250565b6000614ec2602683614a56565b9150614ecd82614e66565b604082019050919050565b60006020820190508181036000830152614ef181614eb5565b9050919050565b6000614f03826143d0565b9150614f0e836143d0565b9250828202614f1c816143d0565b91508282048414831517614f3357614f32614b02565b5b5092915050565b7f4e487b7100000000000000000000000000000000000000000000000000000000600052601260045260246000fd5b6000614f74826143d0565b9150614f7f836143d0565b925082614f8f57614f8e614f3a565b5b828204905092915050565b7f4e487b7100000000000000000000000000000000000000000000000000000000600052604160045260246000fd5b614fd282614cb7565b810181811067ffffffffffffffff82111715614ff157614ff0614f9a565b5b80604052505050565b6000615004614201565b90506150108282614fc9565b919050565b600067ffffffffffffffff8211156150305761502f614f9a565b5b602082029050602081019050919050565b600061505461504f84615015565b614ffa565b90508083825260208201905060208402830185811115615077576150766142e0565b5b835b818110156150a0578061508c8882614d7c565b845260208401935050602081019050615079565b5050509392505050565b600082601f8301126150bf576150be6142d6565b5b81516150cf848260208601615041565b91505092915050565b6000602082840312156150ee576150ed61420b565b5b600082015167ffffffffffffffff81111561510c5761510b614210565b5b615118848285016150aa565b91505092915050565b600061512c826143d0565b9150615137836143d0565b925082820390508181111561514f5761514e614b02565b5b92915050565b600060608201905061516a60008301866147aa565b61517760208301856147aa565b6151846040830184614433565b949350505050565b600061519782614489565b91506151a283614489565b9250828201905063ffffffff8111156151be576151bd614b02565b5b92915050565b60006151cf82614489565b91506151da83614489565b9250828203905063ffffffff8111156151f6576151f5614b02565b5b92915050565b7f496e697469616c697a61626c653a20636f6e747261637420697320616c72656160008201527f647920696e697469616c697a6564000000000000000000000000000000000000602082015250565b6000615258602e83614a56565b9150615263826151fc565b604082019050919050565b600060208201905081810360008301526152878161524b565b9050919050565b600060208201905081810360008301526152a9818486614d06565b90509392505050565b600081519050919050565b60005b838110156152db5780820151818401526020810190506152c0565b60008484015250505050565b60006152f2826152b2565b6152fc8185614cf5565b935061530c8185602086016152bd565b61531581614cb7565b840191505092915050565b6000602082019050818103600083015261533a81846152e7565b905092915050565b600061534d82614489565b9150600082036153605761535f614b02565b5b600182039050919050565b6000819050919050565b60006153846020840184614564565b905092915050565b6000602082019050919050565b60006153a58385614468565b93506153b08261536b565b8060005b858110156153e9576153c68284615375565b6153d088826144a8565b97506153db8361538c565b9250506001810190506153b4565b5085925050509392505050565b600082825260208201905092915050565b6000819050919050565b600082825260208201905092915050565b600061542e8385615411565b935061543b838584614ca8565b61544483614cb7565b840190509392505050565b600061545c848484615422565b90509392505050565b600080fd5b600080fd5b600080fd5b600080833560016020038436030381126154915761549061546f565b5b83810192508235915060208301925067ffffffffffffffff8211156154b9576154b8615465565b5b6001820236038313156154cf576154ce61546a565b5b509250929050565b6000602082019050919050565b60006154f083856153f6565b93508360208402850161550284615407565b8060005b8781101561554857848403895261551d8284615474565b61552886828461544f565b9550615533846154d7565b935060208b019a505050600181019050615506565b50829750879450505050509392505050565b600060a08201905061556f600083018c6147aa565b8181036020830152615582818a8c614d06565b9050818103604083015261559781888a615399565b905081810360608301526155ac8186886154e4565b905081810360808301526155c18184866154e4565b90509a9950505050505050505050565b600060a08201905081810360008301526155ec818b8d614d06565b9050818103602083015261560181898b615399565b905081810360408301526156168187896154e4565b9050818103606083015261562b8185876154e4565b905061563a6080830184614433565b9a9950505050505050505050565b600081519050615657816143da565b92915050565b6000602082840312156156735761567261420b565b5b600061568184828501615648565b91505092915050565b7f496e697469616c697a61626c653a20636f6e7472616374206973206e6f74206960008201527f6e697469616c697a696e67000000000000000000000000000000000000000000602082015250565b60006156e6602b83614a56565b91506156f18261568a565b604082019050919050565b60006020820190508181036000830152615715816156d9565b9050919050565b600061573761573261572d846145a6565b614e10565b6143d0565b9050919050565b6157478161571c565b82525050565b6000602082019050615762600083018461573e565b92915050565b6000615773826145a6565b915061577e836145a6565b925082820261578c816145a6565b915080821461579e5761579d614b02565b5b5092915050565b60006157b0826145a6565b91506157bb836145a6565b9250826157cb576157ca614f3a565b5b828204905092915050565b7f4e487b7100000000000000000000000000000000000000000000000000000000600052603160045260246000fdfea2646970667358221220e6c9d4c27f59dd8dd678109ddaeda09fa9c59587f7ef85496dce2e2365ac74c864736f6c63430008110033",
  "immutableReferences": {},
  "source": "// File: contracts/SafeStakeNetwork.sol\n// SPDX-License-Identifier: GPL-3.0-or-later\npragma solidity ^0.8.2;\n\nimport \"@openzeppelin/contracts/token/ERC20/IERC20.sol\";\nimport \"@openzeppelin/contracts-upgradeable/access/OwnableUpgradeable.sol\";\nimport \"./utils/VersionedContract.sol\";\nimport \"./utils/Types.sol\";\nimport \"./ISafeStakeNetwork.sol\";\nimport \"./ISafeStakeCount.sol\";\n\ncontract SafeStakeNetwork is OwnableUpgradeable, ISafeStakeNetwork, VersionedContract {\n    using Types256 for uint256;\n    using Types64 for uint64;\n\n    struct OperatorData {\n        uint256 blockNumber;\n        uint256 claimBlockNumber;\n        uint256 earnings;\n        uint256 index;\n        uint256 indexBlockNumber;\n        uint32 activeValidatorCount;\n    }\n\n    struct OwnerData {\n        uint256 deposited;\n        uint256 withdrawn;\n        uint256 used;\n        uint256 networkFee;\n        uint256 networkFeeIndex;\n        uint32 activeValidatorCount;\n        bool validatorsDisabled;\n        uint256 paidBlockNumber;\n    }\n\n    struct OperatorInUse {\n        uint256 index;\n        uint256 used;\n        uint32 validatorCount;\n        uint32 indexInArray;\n        bool exists;\n    }\n\n    // struct FeeChangeRequest {\n    //     uint64 fee;\n    //     uint256 approvalBeginTime;\n    //     uint256 approvalEndTime;\n    // }\n    ISafeStakeCount private _SafeStakeCountContract;\n    ISafeStakeRegistry private _SafeStakeRegistryContract;\n    IERC20 private _token;\n    // uint64 private _minimumBlocksBeforeLiquidation;\n    // uint64 private _operatorMaxFeeIncrease;\n\n    uint64 private _minimumBlocksValidatorPay;\n\n    uint256 private _networkFee;\n    uint256 private _networkFeeIndex;\n    uint256 private _networkFeeIndexBlockNumber;\n    uint256 private _networkEarnings;\n    uint256 private _networkEarningsBlockNumber;\n    uint256 private _withdrawnFromTreasury;\n\n    mapping(uint32 => OperatorData) private _operatorDatas;\n    mapping(address => OwnerData) private _owners;\n    mapping(address => mapping(uint32 => OperatorInUse)) private _operatorsInUseByAddress;\n    mapping(address => uint32[]) private _operatorsInUseList;\n\n    // uint64 private _declareOperatorFeePeriod;\n    // uint64 private _executeOperatorFeePeriod;\n    // mapping(uint32 => FeeChangeRequest) private _feeChangeRequests;\n\n    // uint16 constant private MINIMAL_OPERATOR_FEE = 1000;\n    uint16 constant private MANAGING_OPERATORS_PER_ACCOUNT_LIMIT = 50;\n    // uint16 constant private MINIMAL_LIQUIDATION_THRESHOLD = 6570;\n\n\n    function initialize(\n        ISafeStakeRegistry registryAddress_,\n        IERC20 token_,\n        uint64 minimumBlocksBeforeLiquidation_,\n        // uint64 operatorMaxFeeIncrease_,\n        // uint64 declareOperatorFeePeriod_,\n        // uint64 executeOperatorFeePeriod_,\n        uint64 operatorFee\n    ) external initializer override {\n        // __SafeStakeNetwork_init(registryAddress_, token_, minimumBlocksBeforeLiquidation_, operatorMaxFeeIncrease_, declareOperatorFeePeriod_, executeOperatorFeePeriod_, operatorFee);\n        __SafeStakeNetwork_init(registryAddress_, token_, minimumBlocksBeforeLiquidation_, operatorFee);\n    }\n\n    function __SafeStakeNetwork_init(\n        ISafeStakeRegistry registryAddress_,\n        IERC20 token_,\n        uint64 minimumBlocksBeforeLiquidation_,\n        // uint64 operatorMaxFeeIncrease_,\n        // uint64 declareOperatorFeePeriod_,\n        // uint64 executeOperatorFeePeriod_,\n        uint64 operatorFee\n    ) internal initializer {\n        __Ownable_init_unchained();\n        // __SafeStakeNetwork_init_unchained(registryAddress_, token_, minimumBlocksBeforeLiquidation_, operatorMaxFeeIncrease_, declareOperatorFeePeriod_, executeOperatorFeePeriod_, operatorFee);\n        __SafeStakeNetwork_init_unchained(registryAddress_, token_, minimumBlocksBeforeLiquidation_, operatorFee);\n    }\n\n    function __SafeStakeNetwork_init_unchained(\n        ISafeStakeRegistry registryAddress_,\n        IERC20 token_,\n        uint64 minimumBlocksBeforeLiquidation_,\n        // uint64 operatorMaxFeeIncrease_,\n        // uint64 declareOperatorFeePeriod_,\n        // uint64 executeOperatorFeePeriod_,\n        uint64 operatorFee\n    ) internal onlyInitializing {\n        _SafeStakeRegistryContract = registryAddress_;\n        _token = token_;\n        _updateLiquidationThresholdPeriod(minimumBlocksBeforeLiquidation_);\n        // _updateOperatorFeeIncreaseLimit(operatorMaxFeeIncrease_);\n        // _updateDeclareOperatorFeePeriod(declareOperatorFeePeriod_);\n        // _updateExecuteOperatorFeePeriod(executeOperatorFeePeriod_);\n        _SafeStakeRegistryContract.initialize(operatorFee);\n        _updateNetworkEarnings();\n        _updateNetworkFeeIndex();\n        _networkFee = operatorFee * 10 / 100;\n    }\n\n    modifier onlyValidatorOwnerOrContractOwner(bytes calldata publicKey) {\n        _onlyValidatorOwnerOrContractOwner(publicKey);\n        _;\n    }\n\n    modifier onlyOperatorOwnerOrContractOwner(uint32 operatorId) {\n        _onlyOperatorOwnerOrContractOwner(operatorId);\n        _;\n    }\n\n    // modifier ensureMinimalOperatorFee(uint256 fee) {\n    //     _ensureMinimalOperatorFee(fee.shrink());\n    //     _;\n    // }\n\n    /**\n     * @dev See {ISafeStakeNetwork-registerOperator}.\n     */\n    function registerOperator(\n        string calldata name,\n        bytes calldata publicKey\n    ) external override returns (uint32 operatorId) {\n        operatorId = _SafeStakeRegistryContract.registerOperator(\n            name,\n            msg.sender,\n            publicKey\n        );\n\n        _operatorDatas[operatorId] = OperatorData({ blockNumber: block.number, earnings: 0, index: 0, indexBlockNumber: block.number, claimBlockNumber: block.number, activeValidatorCount: 0 });\n        emit OperatorRegistration(operatorId, name, msg.sender, publicKey);\n    }\n\n    /**\n     * @dev See {ISafeStakeNetwork-removeOperator}.\n     */\n    function removeOperator(uint32 operatorId) onlyOperatorOwnerOrContractOwner(operatorId) external override {\n        address owner = _SafeStakeRegistryContract.getOperatorOwner(operatorId);\n\n        _SafeStakeRegistryContract.removeOperator(operatorId);\n\n        emit OperatorRemoval(operatorId, owner);\n    }\n\n    // function declareOperatorFee(uint32 operatorId, uint256 operatorFee) onlyOperatorOwnerOrContractOwner(operatorId) ensureMinimalOperatorFee(operatorFee) external override {\n    //     if (operatorFee.shrink() > _SafeStakeRegistryContract.getOperatorFee() * (10000 + _operatorMaxFeeIncrease) / 10000) {\n    //         revert FeeExceedsIncreaseLimit();\n    //     }\n    //     _feeChangeRequests[operatorId] = FeeChangeRequest(operatorFee.shrink(), block.timestamp + _declareOperatorFeePeriod, block.timestamp + _declareOperatorFeePeriod + _executeOperatorFeePeriod);\n\n    //     emit OperatorFeeDeclaration(msg.sender, operatorId, block.number, operatorFee);\n    // }\n\n    // function cancelDeclaredOperatorFee(uint32 operatorId) onlyOperatorOwnerOrContractOwner(operatorId) external override {\n    //     delete _feeChangeRequests[operatorId];\n\n    //     emit DeclaredOperatorFeeCancelation(msg.sender, operatorId);\n    // }\n\n    // function executeOperatorFee(uint32 operatorId) onlyOperatorOwnerOrContractOwner(operatorId) external override {\n    //     FeeChangeRequest storage feeChangeRequest = _feeChangeRequests[operatorId];\n\n    //     if(feeChangeRequest.fee == 0) {\n    //         revert NoPendingFeeChangeRequest();\n    //     }\n    //     if(block.timestamp < feeChangeRequest.approvalBeginTime || block.timestamp > feeChangeRequest.approvalEndTime) {\n    //         revert ApprovalNotWithinTimeframe();\n    //     }\n\n    //     _updateOperatorFeeUnsafe(operatorId, feeChangeRequest.fee);\n\n    //     emit OperatorFeeExecution(msg.sender, operatorId, block.number, feeChangeRequest.fee.expand());\n\n    //     delete _feeChangeRequests[operatorId];\n    // }\n\n    // function updateOperatorScore(uint32 operatorId, uint32 score) onlyOwner external override {\n    //     _SafeStakeRegistryContract.updateOperatorScore(operatorId, score);\n\n    //     emit OperatorScoreUpdate(operatorId, msg.sender, block.number, score);\n    // }\n\n    /**\n     * @dev See {ISafeStakeNetwork-registerValidator}.\n     */\n    function registerValidator(\n        bytes calldata publicKey,\n        uint32[] calldata operatorIds,\n        bytes[] calldata sharesPublicKeys,\n        bytes[] calldata sharesEncrypted,\n        uint256 amount\n    ) external override {\n        _updateNetworkEarnings();\n        _updateAddressNetworkFee(msg.sender);\n        _registerValidatorUnsafe(msg.sender, publicKey, operatorIds, sharesPublicKeys, sharesEncrypted, amount);\n    }\n\n    /**\n     * @dev See {ISafeStakeNetwork-registerInitializer}.\n     */\n    // function registerInitializer(\n    //     uint32[] calldata operatorIds\n    // ) external override returns(uint32 initializerId) {\n    //     if (!_checkTwoOperatorsFromParaDao(operatorIds)) {\n    //         revert NoEnoughParaStateDaoOperators();\n    //     }\n    //     initializerId = _SafeStakeRegistryContract.registerInitializer(msg.sender, operatorIds);\n\n    //     emit InitializerRegistration(initializerId, msg.sender, operatorIds);\n    // }\n\n    /**\n     * @dev See {ISafeStakeNetwork-initializerPreStake}.\n     */\n    // function initializerPreStake(\n    //     uint32 initializerId,\n    //     bytes calldata validatorPublicKey,\n    //     address miniPoolAddress\n    // ) external override{\n    //     _onlyInitializerOwner(initializerId);\n    //     _SafeStakeRegistryContract.initializerPreStatke(initializerId, validatorPublicKey, miniPoolAddress);\n    //     emit InitializerMiniPoolCreated(initializerId, validatorPublicKey, miniPoolAddress);\n    // }\n\n    /**\n     * @dev See {ISafeStakeNetwork-initializerMiniPoolReady}.\n     */\n    // function initializerMiniPoolReady(\n    //     uint32 initializerId\n    // ) external override {\n    //     _onlyInitializerOwner(initializerId);\n    //     _SafeStakeRegistryContract.initializerReady(initializerId);\n    //     emit InitializerMiniPoolReady(initializerId);\n    // }\n\n    // function initializerStake(\n    //     uint32 initializerId\n    // ) external override {\n    //     _onlyInitializerOwner(initializerId);\n    //     _SafeStakeRegistryContract.initializerStake(initializerId);\n    // }\n\n\n    /**\n     * @dev See {ISafeStakeNetwork-updateValidator}.\n     */\n    // function updateValidator(\n    //     bytes calldata publicKey,\n    //     uint32[] calldata operatorIds,\n    //     bytes[] calldata sharesPublicKeys,\n    //     bytes[] calldata sharesEncrypted,\n    //     uint256 amount\n    // ) onlyValidatorOwnerOrContractOwner(publicKey) external override {\n    //     _removeValidatorUnsafe(msg.sender, publicKey);\n    //     _registerValidatorUnsafe(msg.sender, publicKey, operatorIds, sharesPublicKeys, sharesEncrypted, amount);\n    // }\n\n    /**\n     * @dev See {ISafeStakeNetwork-removeValidator}.\n     */\n    function removeValidator(bytes calldata publicKey) onlyValidatorOwnerOrContractOwner(publicKey) external override {\n        _updateNetworkEarnings();\n        _updateAddressNetworkFee(msg.sender);\n        _removeValidatorUnsafe(msg.sender, publicKey);\n        _totalBalanceOf(msg.sender); // For assertion\n    }\n\n    function deposit(address ownerAddress, uint256 amount) external override {\n        _deposit(ownerAddress, amount);\n    }\n\n    function withdraw(uint256 amount) external override {\n        if(_totalBalanceOf(msg.sender) < amount) {\n            revert NotEnoughBalance();\n        }\n\n        _withdrawUnsafe(amount);\n\n        if(_liquidatable(msg.sender)) {\n            revert NotEnoughBalance();\n        }\n    }\n\n    // function withdrawAll() external override {\n    //     if(_burnRate(msg.sender) > 0) {\n    //         revert BurnRatePositive();\n    //     }\n\n    //     _withdrawUnsafe(_totalBalanceOf(msg.sender));\n    // }\n\n    // function liquidate(address[] calldata ownerAddresses) external override {\n    //     uint64 balanceToTransfer = 0;\n\n    //     for (uint32 index = 0; index < ownerAddresses.length; ++index) {\n    //         if (_canLiquidate(ownerAddresses[index])) {\n    //             balanceToTransfer += _liquidateUnsafe(ownerAddresses[index]);\n    //         }\n    //     }\n\n    //     _token.transfer(msg.sender, balanceToTransfer.expand());\n    // }\n\n    /**\n     * @dev See {ISafeStakeNetwork-disableAddress}.\n     */\n    function disableAddress(address ownerAddress) onlyOwner external override {\n        if (!_owners[ownerAddress].validatorsDisabled && _overdue(ownerAddress)) {\n            _disableOwnerValidatorsUnsafe(ownerAddress);\n            emit AccountDisable(ownerAddress);\n        }\n    }\n\n    function reactivateAccount(uint256 amount) external override {\n        if (!_owners[msg.sender].validatorsDisabled) {\n            revert AccountAlreadyEnabled();\n        }\n        _deposit(msg.sender, amount);\n        // _SafeStakeCountContract.deposit(msg.sender, amount);\n\n        _enableOwnerValidatorsUnsafe(msg.sender);\n\n        if(_liquidatable(msg.sender)) {\n            revert NotEnoughBalance();\n        }\n\n        emit AccountEnable(msg.sender);\n    }\n\n    // function updateLiquidationThresholdPeriod(uint64 blocks) external onlyOwner override {\n    //     if(blocks < MINIMAL_LIQUIDATION_THRESHOLD) {\n    //         revert BelowMinimumBlockPeriod();\n    //     }\n\n    //     _updateLiquidationThresholdPeriod(blocks);\n    // }\n\n    // function updateOperatorFeeIncreaseLimit(uint64 newOperatorMaxFeeIncrease) external onlyOwner override {\n    //     _updateOperatorFeeIncreaseLimit(newOperatorMaxFeeIncrease);\n    // }\n\n    // function updateDeclareOperatorFeePeriod(uint64 newDeclareOperatorFeePeriod) external onlyOwner override {\n    //     _updateDeclareOperatorFeePeriod(newDeclareOperatorFeePeriod);\n    // }\n\n    // function updateExecuteOperatorFeePeriod(uint64 newExecuteOperatorFeePeriod) external onlyOwner override {\n    //     _updateExecuteOperatorFeePeriod(newExecuteOperatorFeePeriod);\n    // }\n\n    /**\n     * @dev See {ISafeStakeNetwork-updateNetworkFee}.\n     */\n    function updateNetworkFee(uint256 fee) external onlyOwner override {\n        emit NetworkFeeUpdate(_networkFee, fee);\n        _updateNetworkEarnings();\n        _updateNetworkFeeIndex();\n        _networkFee = fee;\n    }\n\n    // function withdrawNetworkEarnings(uint256 amount) external onlyOwner override {\n    //     if(amount.shrink() > _getNetworkEarnings()) {\n    //         revert NotEnoughBalance();\n    //     }\n\n    //     _withdrawnFromTreasury += amount.shrink();\n    //     _token.transfer(msg.sender, amount);\n\n    //     emit NetworkFeesWithdrawal(amount, msg.sender);\n    // }\n\n    function getAddressBalance(address ownerAddress) external override view returns (uint256) {\n        return _totalBalanceOf(ownerAddress);\n    }\n\n    // function isLiquidated(address ownerAddress) external view override returns (bool) {\n    //     return _owners[ownerAddress].validatorsDisabled;\n    // }\n\n    /**\n     * @dev See {ISafeStakeNetwork-getOperatorById}.\n     */\n    // function getOperatorById(uint32 operatorId) external view override returns (string memory, address, bytes memory, uint256, uint256, uint256, bool) {\n    //     return _SafeStakeRegistryContract.getOperatorById(operatorId);\n    // }\n\n    // function getOperatorDeclaredFee(uint32 operatorId) external view override returns (uint256, uint256, uint256) {\n    //     FeeChangeRequest storage feeChangeRequest = _feeChangeRequests[operatorId];\n\n    //     return (feeChangeRequest.fee.expand(), feeChangeRequest.approvalBeginTime, feeChangeRequest.approvalEndTime);\n    // }\n\n    /**\n     * @dev See {ISafeStakeNetwork-getOperatorFee}.\n     */\n    // function getOperatorFee() external view override returns (uint256) {\n    //     return _SafeStakeRegistryContract.getOperatorFee().expand();\n    // }\n\n    /**\n     * @dev See {ISafeStakeNetwork-getOperatorsByValidator}.\n     */\n    // function getOperatorsByValidator(bytes memory publicKey) external view override returns (uint32[] memory) {\n    //     return _SafeStakeRegistryContract.getOperatorsByValidator(publicKey);\n    // }\n\n    /**\n     * @dev See {ISafeStakeNetwork-getValidatorsByAddress}.\n     */\n    // function getValidatorsByOwnerAddress(address ownerAddress) external view override returns (bytes[] memory) {\n    //     return _SafeStakeRegistryContract.getValidatorsByAddress(ownerAddress);\n    // }\n\n    /**\n     * @dev See {ISafeStakeNetwork-addressNetworkFee}.\n     */\n    function addressNetworkFee(address ownerAddress) external view override returns (uint256) {\n        return _addressNetworkFee(ownerAddress);\n    }\n\n    function getAddressBurnRate(address ownerAddress) external view override returns (uint256) {\n        return _burnRate(ownerAddress);\n    }\n\n    function isLiquidatable(address ownerAddress) external view override returns (bool) {\n        return _liquidatable(ownerAddress);\n    }\n\n    function getNetworkFee() external view override returns (uint256) {\n        return _networkFee;\n    }\n\n    // function getNetworkEarnings() external view override returns (uint256) {\n    //     return _getNetworkEarnings().expand();\n    // }\n\n    function getMinimumBlocksValidatorShouldPay() external view override returns (uint256) {\n        return _minimumBlocksValidatorPay;\n    }\n\n    // function getOperatorFeeIncreaseLimit() external view override returns (uint256) {\n    //     return _operatorMaxFeeIncrease;\n    // }\n\n    // function getExecuteOperatorFeePeriod() external view override returns (uint256) {\n    //     return _executeOperatorFeePeriod;\n    // }\n\n    // function getDeclaredOperatorFeePeriod() external view override returns (uint256) {\n    //     return _declareOperatorFeePeriod;\n    // }\n\n    // function validatorsPerOperatorCount(uint32 operatorId) external view returns (uint32) {\n    //     return _SafeStakeRegistryContract.validatorsPerOperatorCount(operatorId);\n    // }\n\n    function _deposit(address ownerAddress, uint256 amount) private {\n        _token.transferFrom(msg.sender, address(this), amount);\n        _owners[ownerAddress].deposited += amount;\n\n        emit FundsDeposit(amount, ownerAddress, msg.sender);\n    }\n\n    function _withdrawUnsafe(uint256 amount) private {\n        _owners[msg.sender].withdrawn += amount;\n        _token.transfer(msg.sender, amount);\n\n        emit FundsWithdrawal(amount, msg.sender);\n    }\n\n    /**\n     * @dev Update paid block number for the address.\n     * @param ownerAddress Owner address.\n     */\n    function _updatePaidBlockNumber(address ownerAddress) private {\n        if (_burnRate(ownerAddress) == 0) {\n            _owners[ownerAddress].paidBlockNumber = block.number;\n        } else {\n            _owners[ownerAddress].paidBlockNumber =  block.number + _totalBalanceOf(ownerAddress) / _burnRate(ownerAddress);\n        }\n        \n    } \n\n    /**\n     * @dev Update network fee for the address.\n     * @param ownerAddress Owner address.\n     */\n    function _updateAddressNetworkFee(address ownerAddress) private {\n        _owners[ownerAddress].networkFee = _addressNetworkFee(ownerAddress);\n        _owners[ownerAddress].networkFeeIndex = _currentNetworkFeeIndex();\n    }\n\n    function _updateOperatorIndex(uint32 operatorId) private {\n        _operatorDatas[operatorId].index = _operatorIndexOf(operatorId);\n    }\n\n    /**\n     * @dev Updates operators's balance.\n     */\n    function _updateOperatorBalance(uint32 operatorId) private {\n        OperatorData storage operatorData = _operatorDatas[operatorId];\n        operatorData.earnings = _operatorEarningsOf(operatorId);\n        operatorData.blockNumber = block.number;\n    }\n\n    function _operatorClaimFee(uint32 operatorId, uint32 performance) private returns (uint256){\n        OperatorData storage operatorData = _operatorDatas[operatorId];\n        uint256 claimed = operatorData.earnings * performance / 100;\n        operatorData.earnings = 0;\n        operatorData.claimBlockNumber = block.number;\n        return claimed;\n    }\n\n    function accountClaimFee(address account, uint32[] calldata operatorIds, uint32[] calldata performances) external onlyOwner override {\n        uint256 total = 0;\n        for(uint32 index = 0; index < operatorIds.length; index++ ) {\n            total += _operatorClaimFee(operatorIds[index], performances[index]);\n        }\n        _token.transfer(account, total);\n    }\n\n    // function _liquidateUnsafe(address ownerAddress) private returns (uint64) {\n    //     _disableOwnerValidatorsUnsafe(ownerAddress);\n\n    //     uint64 balanceToTransfer = _totalBalanceOf(ownerAddress);\n\n    //     _owners[ownerAddress].used += balanceToTransfer;\n\n    //     emit AccountLiquidation(ownerAddress);\n\n    //     return balanceToTransfer;\n    // }\n\n    function _updateNetworkEarnings() private {\n        _networkEarnings = _getTotalNetworkEarnings();\n        _networkEarningsBlockNumber = block.number;\n    }\n\n    function _updateNetworkFeeIndex() private {\n        _networkFeeIndex = _currentNetworkFeeIndex();\n        _networkFeeIndexBlockNumber = block.number;\n    }\n\n    function _registerValidatorUnsafe(\n        address ownerAddress,\n        bytes calldata publicKey,\n        uint32[] calldata operatorIds,\n        bytes[] calldata sharesPublicKeys,\n        bytes[] calldata encryptedKeys,\n        uint256 tokenAmount) private {\n\n        _SafeStakeRegistryContract.registerValidator(\n            ownerAddress,\n            publicKey,\n            operatorIds,\n            sharesPublicKeys,\n            encryptedKeys\n        );\n\n        OwnerData storage owner = _owners[ownerAddress];\n        owner.paidBlockNumber = block.number;\n\n        if (!owner.validatorsDisabled) {\n            ++owner.activeValidatorCount;\n        }\n\n        for (uint32 index = 0; index < operatorIds.length; ++index) {\n            uint32 operatorId = operatorIds[index];\n            _updateOperatorBalance(operatorId);\n\n            if (!owner.validatorsDisabled) {\n                ++_operatorDatas[operatorId].activeValidatorCount;\n            }\n\n            _useOperatorByOwner(ownerAddress, operatorId);\n        }\n        if (tokenAmount > 0) {\n            _deposit(msg.sender, tokenAmount);\n        }\n\n        if(_liquidatable(ownerAddress)) {\n            revert NotEnoughBalance();\n        }\n\n        _updatePaidBlockNumber(ownerAddress);\n\n        emit ValidatorRegistration(ownerAddress, publicKey, operatorIds, sharesPublicKeys, encryptedKeys, owner.paidBlockNumber);\n    }\n\n    function _removeValidatorUnsafe(address ownerAddress, bytes memory publicKey) private {\n        _unregisterValidator(ownerAddress, publicKey);\n        _SafeStakeRegistryContract.removeValidator(publicKey);\n\n        if (!_owners[ownerAddress].validatorsDisabled) {\n            --_owners[ownerAddress].activeValidatorCount;\n        }\n        _updatePaidBlockNumber(ownerAddress);\n        emit ValidatorRemoval(ownerAddress, publicKey);\n    }\n\n    function _unregisterValidator(address ownerAddress, bytes memory publicKey) private {\n        // calculate balances for current operators in use and update their balances\n        uint32[] memory currentOperatorIds = _SafeStakeRegistryContract.getOperatorsByValidator(publicKey);\n        for (uint32 index = 0; index < currentOperatorIds.length; ++index) {\n            uint32 operatorId = currentOperatorIds[index];\n            _updateOperatorBalance(operatorId);\n\n            if (!_owners[ownerAddress].validatorsDisabled) {\n                --_operatorDatas[operatorId].activeValidatorCount;\n            }\n\n            _stopUsingOperatorByOwner(ownerAddress, operatorId);\n        }\n    }\n\n    function _useOperatorByOwner(address ownerAddress, uint32 operatorId) private {\n        _updateUsingOperatorByOwner(ownerAddress, operatorId, true);\n    }\n\n    function _stopUsingOperatorByOwner(address ownerAddress, uint32 operatorId) private {\n        _updateUsingOperatorByOwner(ownerAddress, operatorId, false);\n    }\n\n    // function _updateOperatorFeeUnsafe(uint32 operatorId, uint64 fee) private {\n    //     // OperatorData storage operatorData = _operatorDatas[operatorId];\n    //     _updateOperatorIndex(operatorId);\n    //     _operatorDatas[operatorId].indexBlockNumber = block.number;\n    //     _updateOperatorBalance(operatorId);\n    //     // _SafeStakeRegistryContract.updateOperatorFee(fee);\n    // }\n\n    function updateOperatorFee(uint64 fee) external override {\n        _SafeStakeRegistryContract.updateOperatorFee(fee);\n    }\n\n    /**\n     * @dev Updates the relation between operator and owner\n     * @param ownerAddress Owner address.\n     * @param increase Change value for validators amount.\n     */\n    function _updateUsingOperatorByOwner(address ownerAddress, uint32 operatorId, bool increase) private {\n        OperatorInUse storage operatorInUseData = _operatorsInUseByAddress[ownerAddress][operatorId];\n\n        if (operatorInUseData.exists) {\n            _updateOperatorUsageByOwner(operatorInUseData, ownerAddress, operatorId);\n\n            if (increase) {\n                ++operatorInUseData.validatorCount;\n            } else {\n                if (--operatorInUseData.validatorCount == 0) {\n                    _owners[ownerAddress].used += operatorInUseData.used;\n\n                    // remove from mapping and list;\n\n                    _operatorsInUseList[ownerAddress][operatorInUseData.indexInArray] = _operatorsInUseList[ownerAddress][_operatorsInUseList[ownerAddress].length - 1];\n                    _operatorsInUseByAddress[ownerAddress][_operatorsInUseList[ownerAddress][operatorInUseData.indexInArray]].indexInArray = operatorInUseData.indexInArray;\n                    _operatorsInUseList[ownerAddress].pop();\n\n                    delete _operatorsInUseByAddress[ownerAddress][operatorId];\n                }\n            }\n        } else {\n            if (_operatorsInUseList[ownerAddress].length > MANAGING_OPERATORS_PER_ACCOUNT_LIMIT) {\n                revert ExceedManagingOperatorsPerAccountLimit();\n            }\n\n            _operatorsInUseByAddress[ownerAddress][operatorId] = OperatorInUse({ index: _operatorIndexOf(operatorId), validatorCount: 1, used: 0, exists: true, indexInArray: uint32(_operatorsInUseList[ownerAddress].length) });\n            _operatorsInUseList[ownerAddress].push(operatorId);\n        }\n    }\n\n    function _disableOwnerValidatorsUnsafe(address ownerAddress) private {\n        _updateNetworkEarnings();\n        _updateAddressNetworkFee(ownerAddress);\n\n        for (uint32 index = 0; index < _operatorsInUseList[ownerAddress].length; ++index) {\n            uint32 operatorId = _operatorsInUseList[ownerAddress][index];\n            _updateOperatorBalance(operatorId);\n            OperatorInUse storage operatorInUseData = _operatorsInUseByAddress[ownerAddress][operatorId];\n            _updateOperatorUsageByOwner(operatorInUseData, ownerAddress, operatorId);\n            _operatorDatas[operatorId].activeValidatorCount -= operatorInUseData.validatorCount;\n        }\n\n        _SafeStakeRegistryContract.disableOwnerValidators(ownerAddress);\n\n        _owners[ownerAddress].validatorsDisabled = true;\n    }\n\n    function _enableOwnerValidatorsUnsafe(address ownerAddress) private {\n        _updateNetworkEarnings();\n        _updateAddressNetworkFee(ownerAddress);\n\n        for (uint32 index = 0; index < _operatorsInUseList[ownerAddress].length; ++index) {\n            uint32 operatorId = _operatorsInUseList[ownerAddress][index];\n            _updateOperatorBalance(operatorId);\n            OperatorInUse storage operatorInUseData = _operatorsInUseByAddress[ownerAddress][operatorId];\n            _updateOperatorUsageByOwner(operatorInUseData, ownerAddress, operatorId);\n            _operatorDatas[operatorId].activeValidatorCount += operatorInUseData.validatorCount;\n        }\n\n        _SafeStakeRegistryContract.enableOwnerValidators(ownerAddress);\n\n        _owners[ownerAddress].validatorsDisabled = false;\n    }\n\n    function _updateOperatorUsageByOwner(OperatorInUse storage operatorInUseData, address ownerAddress, uint32 operatorId) private {\n        operatorInUseData.used = _operatorInUseUsageOf(operatorInUseData, ownerAddress, operatorId);\n        operatorInUseData.index = _operatorIndexOf(operatorId);\n    }\n\n    function _updateLiquidationThresholdPeriod(uint64 newMinimumBlocksBeforeLiquidation) private {\n        _minimumBlocksValidatorPay = newMinimumBlocksBeforeLiquidation;\n\n        // emit LiquidationThresholdPeriodUpdate(_minimumBlocksValidatorPay);\n    }\n\n    // function _updateOperatorFeeIncreaseLimit(uint64 newOperatorMaxFeeIncrease) private {\n    //     _operatorMaxFeeIncrease = newOperatorMaxFeeIncrease;\n\n    //     emit OperatorFeeIncreaseLimitUpdate(_operatorMaxFeeIncrease);\n\n    // }\n\n    // function _updateDeclareOperatorFeePeriod(uint64 newDeclareOperatorFeePeriod) private {\n    //     _declareOperatorFeePeriod = newDeclareOperatorFeePeriod;\n\n    //     emit DeclareOperatorFeePeriodUpdate(newDeclareOperatorFeePeriod);\n    // }\n\n    // function _updateExecuteOperatorFeePeriod(uint64 newExecuteOperatorFeePeriod) private {\n    //     _executeOperatorFeePeriod = newExecuteOperatorFeePeriod;\n\n    //     emit ExecuteOperatorFeePeriodUpdate(newExecuteOperatorFeePeriod);\n    // }\n\n    function _expensesOf(address ownerAddress) private view returns(uint256) {\n        uint256 usage =  _owners[ownerAddress].used + _addressNetworkFee(ownerAddress);\n        for (uint32 index = 0; index < _operatorsInUseList[ownerAddress].length; ++index) {\n            OperatorInUse storage operatorInUseData = _operatorsInUseByAddress[ownerAddress][_operatorsInUseList[ownerAddress][index]];\n            usage += _operatorInUseUsageOf(operatorInUseData, ownerAddress, _operatorsInUseList[ownerAddress][index]);\n        }\n\n        return usage;\n    }\n\n    function _totalEarningsOf(address ownerAddress) private view returns (uint256) {\n        uint256 earnings = 0;\n        uint32[] memory operatorsByOwner = _SafeStakeRegistryContract.getOperatorsByOwnerAddress(ownerAddress);\n        for (uint32 index = 0; index < operatorsByOwner.length; ++index) {\n            earnings += _operatorEarningsOf(operatorsByOwner[index]);\n        }\n\n        return earnings;\n    }\n\n    function _totalBalanceOf(address ownerAddress) private view returns (uint256) {\n        uint256 balance = _owners[ownerAddress].deposited + _totalEarningsOf(ownerAddress);\n\n        uint256 usage = _owners[ownerAddress].withdrawn + _expensesOf(ownerAddress);\n\n        if(balance < usage) {\n            revert NegativeBalance();\n        }\n\n        return balance - usage;\n    }\n\n    function _operatorEarnRate(uint32 operatorId) private view returns (uint256) {\n        return _SafeStakeRegistryContract.getOperatorFee() * _operatorDatas[operatorId].activeValidatorCount;\n    }\n\n    /**\n     * @dev See {ISafeStakeNetwork-operatorEarningsOf}.\n     */\n    function _operatorEarningsOf(uint32 operatorId) private view returns (uint256) {\n        return _operatorDatas[operatorId].earnings +\n               uint256(block.number - _operatorDatas[operatorId].blockNumber) *\n               _operatorEarnRate(operatorId);\n    }\n\n    function _addressNetworkFee(address ownerAddress) private view returns (uint256) {\n        return _owners[ownerAddress].networkFee +\n              uint256(_currentNetworkFeeIndex() - _owners[ownerAddress].networkFeeIndex) *\n              _owners[ownerAddress].activeValidatorCount;\n    }\n\n    function _burnRate(address ownerAddress) private view returns (uint256 ownerBurnRate) {\n        if (_owners[ownerAddress].validatorsDisabled) {\n            return 0;\n        }\n\n        for (uint32 index = 0; index < _operatorsInUseList[ownerAddress].length; ++index) {\n            ownerBurnRate += _operatorInUseBurnRateWithNetworkFeeUnsafe(ownerAddress, _operatorsInUseList[ownerAddress][index]);\n        }\n\n        ownerBurnRate += _owners[ownerAddress].activeValidatorCount * _networkFee;\n\n        uint32[] memory operatorsByOwner = _SafeStakeRegistryContract.getOperatorsByOwnerAddress(ownerAddress);\n\n        for (uint32 index = 0; index < operatorsByOwner.length; ++index) {\n            if (ownerBurnRate <= _operatorEarnRate(operatorsByOwner[index])) {\n                return 0;\n            } else {\n                ownerBurnRate -= _operatorEarnRate(operatorsByOwner[index]);\n            }\n        }\n    }\n\n    function _overdue(address ownerAddress) private view returns (bool) {\n        return _totalBalanceOf(ownerAddress) < _minimumBlocksValidatorPay * _burnRate(ownerAddress);\n    }\n\n    /**\n     * @dev liquidatable means whether the validator can pay for the minimal fee.\n     */\n    function _liquidatable(address ownerAddress) private view returns (bool) {\n        return !_owners[ownerAddress].validatorsDisabled && _overdue(ownerAddress);\n    }\n\n    // function _canLiquidate(address ownerAddress) private view returns (bool) {\n    //     return !_owners[ownerAddress].validatorsDisabled && (msg.sender == ownerAddress || _overdue(ownerAddress));\n    // }\n\n    function _getTotalNetworkEarnings() private view returns (uint256) {\n        uint256 result = _networkEarnings + (block.number - _networkEarningsBlockNumber) * _networkFee * _SafeStakeRegistryContract.activeValidatorCount();\n        return result;\n    }\n\n    function _getNetworkEarnings() private view returns (uint256) {\n        return _getTotalNetworkEarnings() - _withdrawnFromTreasury;\n    }\n\n    /**\n     * @dev Get operator index by address.\n     */\n    function _operatorIndexOf(uint32 operatorId) private view returns (uint256) {\n        return _operatorDatas[operatorId].index +\n               _SafeStakeRegistryContract.getOperatorFee() *\n               (block.number - _operatorDatas[operatorId].indexBlockNumber);\n    }\n\n    function _operatorInUseUsageOf(OperatorInUse storage operatorInUseData, address ownerAddress, uint32 operatorId) private view returns (uint256) {\n        return operatorInUseData.used + (\n                _owners[ownerAddress].validatorsDisabled ? 0 :\n                (_operatorIndexOf(operatorId) - operatorInUseData.index) * operatorInUseData.validatorCount\n               );\n    }\n\n    function _operatorInUseBurnRateWithNetworkFeeUnsafe(address ownerAddress, uint32 operatorId) private view returns (uint256) {\n        // OperatorInUse storage operatorInUseData = _operatorsInUseByAddress[ownerAddress][operatorId];\n        return _SafeStakeRegistryContract.getOperatorFee() * _operatorsInUseByAddress[ownerAddress][operatorId].validatorCount;\n    }\n\n    /**\n     * @dev Returns the current network fee index\n     */\n    function _currentNetworkFeeIndex() private view returns(uint256) {\n        return _networkFeeIndex + (block.number - _networkFeeIndexBlockNumber) * _networkFee;\n    }\n\n    function _onlyValidatorOwnerOrContractOwner(bytes calldata publicKey) private view {\n        address validatorOwner = _SafeStakeRegistryContract.getValidatorOwner(publicKey);\n        if (validatorOwner == address(0)) {\n            revert ValidatorWithPublicKeyNotExist();\n        }\n        if (msg.sender != validatorOwner && msg.sender != owner()) {\n            revert CallerNotValidatorOwner();\n        }\n    }\n\n    function _onlyOperatorOwnerOrContractOwner(uint32 operatorId) private view {\n        address operatorOwner = _SafeStakeRegistryContract.getOperatorOwner(operatorId);\n\n        if(operatorOwner == address(0)) {\n            revert OperatorWithPublicKeyNotExist();\n        }\n\n        if(msg.sender != operatorOwner && msg.sender != owner()) {\n            revert CallerNotOperatorOwner();\n        }\n    }\n\n    // function _onlyInitializerOwner(uint32 initializerId) private view {\n    //     address initializerOwner = _SafeStakeRegistryContract.getInitializerOwner(initializerId);\n\n    //     if (initializerOwner == address(0)) {\n    //         revert InitializerNotExist();\n    //     }\n\n    //     if (msg.sender != initializerOwner) {\n    //         revert CallerNotInitializerOwner();\n    //     }\n    // }\n\n    // function _ensureMinimalOperatorFee(uint64 fee) private pure {\n    //     if (fee < MINIMAL_OPERATOR_FEE) {\n    //         revert FeeTooLow();\n    //     }\n    // }\n\n    // function _checkTwoOperatorsFromParaDao(uint32[] calldata operatorIds) private view returns (bool) {\n    //     return  _SafeStakeRegistryContract.ifEnoughOperatorsFromParaStateDao(operatorIds);\n    // }\n\n\n    function version() external pure override returns (uint32) {\n        return 20000;\n    }\n\n    // function certifyOperatorFromDao(uint32 operatorId) external onlyOwner override {\n    //     _SafeStakeRegistryContract.certifyOperatorFromDao(operatorId);\n    // }\n\n    function getOperatorsInUseByOwnerAddress(address ownerAddress)\n        external override view\n        returns (uint32[] memory) {\n            return _operatorsInUseList[ownerAddress];\n    }\n\n    function getOperatorClaimBlock(uint32 operatorId) external view override returns (uint256) {\n        return _operatorDatas[operatorId].claimBlockNumber;\n    }\n\n    function getAccountPaidBlockNumber(address account) external view override returns (uint256) {\n        return _owners[account].paidBlockNumber;\n    }\n\n    uint256[50] ______gap;\n}",
  "sourcePath": "/Users/jiangjianlin/Github/safestake-tokenomics/contracts/SafeStakeNetwork.sol",
  "compiler": {
    "name": "solc",
    "version": "0.8.17+commit.8df45f5f.Emscripten.clang"
  },
  "schemaVersion": "3.4.10",
  "updatedAt": "2023-01-14T11:59:35.458Z",
  "networkType": "ethereum",
  "devdoc": {
    "kind": "dev",
    "methods": {
      "addressNetworkFee(address)": {
        "details": "See {ISafeStakeNetwork-addressNetworkFee}."
      },
      "disableAddress(address)": {
        "details": "See {ISafeStakeNetwork-disableAddress}."
      },
      "getAddressBalance(address)": {
        "details": "Gets total balance for an owner.",
        "params": {
          "ownerAddress": "Owner's address."
        }
      },
      "getMinimumBlocksValidatorShouldPay()": {
        "details": "Returns the number of blocks left for an owner before they can be liquidated."
      },
      "getOperatorsInUseByOwnerAddress(address)": {
        "details": "Returns operators for owner which are in use.",
        "params": {
          "ownerAddress": "Owner's address."
        }
      },
      "initialize(address,address,uint64,uint64)": {
        "details": "Initializes the contract.",
        "params": {
          "minimumBlocksBeforeLiquidation_": "The minimum blocks before liquidation.",
          "registryAddress_": "The registry address.",
          "token_": "The network token."
        }
      },
      "isLiquidatable(address)": {
        "details": "Check if an owner is liquidatable.",
        "params": {
          "ownerAddress": "Owner's address."
        }
      },
      "owner()": {
        "details": "Returns the address of the current owner."
      },
      "reactivateAccount(uint256)": {
        "details": "Enables msg.sender account.",
        "params": {
          "amount": "Tokens amount."
        }
      },
      "registerOperator(string,bytes)": {
        "details": "See {ISafeStakeNetwork-registerOperator}."
      },
      "registerValidator(bytes,uint32[],bytes[],bytes[],uint256)": {
        "details": "See {ISafeStakeNetwork-registerValidator}."
      },
      "removeOperator(uint32)": {
        "details": "See {ISafeStakeNetwork-removeOperator}."
      },
      "removeValidator(bytes)": {
        "details": "See {ISafeStakeNetwork-removeValidator}."
      },
      "renounceOwnership()": {
        "details": "Leaves the contract without owner. It will not be possible to call `onlyOwner` functions anymore. Can only be called by the current owner. NOTE: Renouncing ownership will leave the contract without an owner, thereby removing any functionality that is only available to the owner."
      },
      "transferOwnership(address)": {
        "details": "Transfers ownership of the contract to a new account (`newOwner`). Can only be called by the current owner."
      },
      "updateNetworkFee(uint256)": {
        "details": "See {ISafeStakeNetwork-updateNetworkFee}."
      }
    },
    "version": 1
  },
  "userdoc": {
    "errors": {
      "ValidatorWithPublicKeyNotExist()": [
        {
          "notice": "errors "
        }
      ]
    },
    "kind": "user",
    "methods": {},
    "version": 1
  },
  "db": {
    "callBytecode": {
      "id": "0xc5c6b062262f4e90fe19964ebf366f4a182832f9a9f2043f79effdc78c7fada3"
    },
    "createBytecode": {
      "id": "0x8a9e73297a700624ee7f07fcbfd90e9618de4baf5e4bb46b0cc5bc18cba80b1f"
    },
    "contract": {
      "id": "0x567030d1c7668b45442fc0761685ae36e508a18a56eb9aabd0313597c4feb32b"
    }
  }
}