{
  "_format": "hh-sol-artifact-1",
  "contractName": "SafeStakeNetworkV2",
  "sourceName": "contracts/SafeStakeNetworkV2.sol",
  "abi": [
    {
      "anonymous": false,
      "inputs": [
        {
          "indexed": false,
          "internalType": "uint32[]",
          "name": "operatorIds",
          "type": "uint32[]"
        },
        {
          "indexed": false,
          "internalType": "uint32[]",
          "name": "performance",
          "type": "uint32[]"
        },
        {
          "indexed": false,
          "internalType": "uint256",
          "name": "claimValue",
          "type": "uint256"
        },
        {
          "indexed": false,
          "internalType": "uint256[]",
          "name": "lastClaimBlockNumber",
          "type": "uint256[]"
        },
        {
          "indexed": false,
          "internalType": "uint256",
          "name": "claimBlockNumber",
          "type": "uint256"
        }
      ],
      "name": "AccountClaim",
      "type": "event"
    },
    {
      "anonymous": false,
      "inputs": [
        {
          "indexed": false,
          "internalType": "uint256",
          "name": "value",
          "type": "uint256"
        },
        {
          "indexed": true,
          "internalType": "address",
          "name": "ownerAddress",
          "type": "address"
        },
        {
          "indexed": true,
          "internalType": "address",
          "name": "senderAddress",
          "type": "address"
        }
      ],
      "name": "FundsDeposit",
      "type": "event"
    },
    {
      "anonymous": false,
      "inputs": [
        {
          "indexed": false,
          "internalType": "uint256",
          "name": "value",
          "type": "uint256"
        },
        {
          "indexed": true,
          "internalType": "address",
          "name": "ownerAddress",
          "type": "address"
        }
      ],
      "name": "FundsWithdrawal",
      "type": "event"
    },
    {
      "anonymous": false,
      "inputs": [
        {
          "indexed": false,
          "internalType": "uint8",
          "name": "version",
          "type": "uint8"
        }
      ],
      "name": "Initialized",
      "type": "event"
    },
    {
      "anonymous": false,
      "inputs": [
        {
          "indexed": false,
          "internalType": "uint256",
          "name": "oldFee",
          "type": "uint256"
        },
        {
          "indexed": false,
          "internalType": "uint256",
          "name": "newFee",
          "type": "uint256"
        }
      ],
      "name": "NetworkFeeUpdate",
      "type": "event"
    },
    {
      "anonymous": false,
      "inputs": [
        {
          "indexed": false,
          "internalType": "uint256",
          "name": "value",
          "type": "uint256"
        },
        {
          "indexed": false,
          "internalType": "address",
          "name": "recipient",
          "type": "address"
        }
      ],
      "name": "NetworkFeesWithdrawal",
      "type": "event"
    },
    {
      "anonymous": false,
      "inputs": [
        {
          "indexed": true,
          "internalType": "uint32",
          "name": "id",
          "type": "uint32"
        },
        {
          "indexed": false,
          "internalType": "string",
          "name": "name",
          "type": "string"
        },
        {
          "indexed": true,
          "internalType": "address",
          "name": "ownerAddress",
          "type": "address"
        },
        {
          "indexed": false,
          "internalType": "bytes",
          "name": "publicKey",
          "type": "bytes"
        }
      ],
      "name": "OperatorRegistration",
      "type": "event"
    },
    {
      "anonymous": false,
      "inputs": [
        {
          "indexed": true,
          "internalType": "address",
          "name": "ownerAddress",
          "type": "address"
        },
        {
          "indexed": false,
          "internalType": "bytes",
          "name": "publicKey",
          "type": "bytes"
        },
        {
          "indexed": false,
          "internalType": "uint32[]",
          "name": "operatorIds",
          "type": "uint32[]"
        },
        {
          "indexed": false,
          "internalType": "bytes[]",
          "name": "sharesPublicKeys",
          "type": "bytes[]"
        },
        {
          "indexed": false,
          "internalType": "bytes[]",
          "name": "encryptedKeys",
          "type": "bytes[]"
        },
        {
          "indexed": false,
          "internalType": "uint256",
          "name": "paidBlockNumber",
          "type": "uint256"
        }
      ],
      "name": "ValidatorRegistration",
      "type": "event"
    },
    {
      "anonymous": false,
      "inputs": [
        {
          "indexed": true,
          "internalType": "address",
          "name": "ownerAddress",
          "type": "address"
        },
        {
          "indexed": false,
          "internalType": "bytes",
          "name": "publicKey",
          "type": "bytes"
        }
      ],
      "name": "ValidatorRemoval",
      "type": "event"
    },
    {
      "inputs": [],
      "name": "ADMIN_ROLE",
      "outputs": [
        {
          "internalType": "bytes32",
          "name": "",
          "type": "bytes32"
        }
      ],
      "stateMutability": "view",
      "type": "function"
    },
    {
      "inputs": [],
      "name": "MANAGING_OPERATORS_PER_ACCOUNT_LIMIT",
      "outputs": [
        {
          "internalType": "uint16",
          "name": "",
          "type": "uint16"
        }
      ],
      "stateMutability": "view",
      "type": "function"
    },
    {
      "inputs": [],
      "name": "NODE_ROLE",
      "outputs": [
        {
          "internalType": "bytes32",
          "name": "",
          "type": "bytes32"
        }
      ],
      "stateMutability": "view",
      "type": "function"
    },
    {
      "inputs": [],
      "name": "SIGNER_ROLE",
      "outputs": [
        {
          "internalType": "bytes32",
          "name": "",
          "type": "bytes32"
        }
      ],
      "stateMutability": "view",
      "type": "function"
    },
    {
      "inputs": [],
      "name": "_SafeStakeRegistryContract",
      "outputs": [
        {
          "internalType": "contract ISafeStakeRegistry",
          "name": "",
          "type": "address"
        }
      ],
      "stateMutability": "view",
      "type": "function"
    },
    {
      "inputs": [],
      "name": "_minimumBlocksValidatorPay",
      "outputs": [
        {
          "internalType": "uint64",
          "name": "",
          "type": "uint64"
        }
      ],
      "stateMutability": "view",
      "type": "function"
    },
    {
      "inputs": [],
      "name": "_networkEarnings",
      "outputs": [
        {
          "internalType": "uint256",
          "name": "",
          "type": "uint256"
        }
      ],
      "stateMutability": "view",
      "type": "function"
    },
    {
      "inputs": [],
      "name": "_networkEarningsBlockNumber",
      "outputs": [
        {
          "internalType": "uint256",
          "name": "",
          "type": "uint256"
        }
      ],
      "stateMutability": "view",
      "type": "function"
    },
    {
      "inputs": [],
      "name": "_networkFee",
      "outputs": [
        {
          "internalType": "uint256",
          "name": "",
          "type": "uint256"
        }
      ],
      "stateMutability": "view",
      "type": "function"
    },
    {
      "inputs": [],
      "name": "_networkFeeIndex",
      "outputs": [
        {
          "internalType": "uint256",
          "name": "",
          "type": "uint256"
        }
      ],
      "stateMutability": "view",
      "type": "function"
    },
    {
      "inputs": [],
      "name": "_networkFeeIndexBlockNumber",
      "outputs": [
        {
          "internalType": "uint256",
          "name": "",
          "type": "uint256"
        }
      ],
      "stateMutability": "view",
      "type": "function"
    },
    {
      "inputs": [
        {
          "internalType": "uint32",
          "name": "",
          "type": "uint32"
        }
      ],
      "name": "_operatorDatas",
      "outputs": [
        {
          "internalType": "uint256",
          "name": "blockNumber",
          "type": "uint256"
        },
        {
          "internalType": "uint256",
          "name": "claimBlockNumber",
          "type": "uint256"
        },
        {
          "internalType": "uint256",
          "name": "earnings",
          "type": "uint256"
        },
        {
          "internalType": "uint256",
          "name": "index",
          "type": "uint256"
        },
        {
          "internalType": "uint256",
          "name": "indexBlockNumber",
          "type": "uint256"
        },
        {
          "internalType": "uint32",
          "name": "activeValidatorCount",
          "type": "uint32"
        }
      ],
      "stateMutability": "view",
      "type": "function"
    },
    {
      "inputs": [],
      "name": "_operatorPenalty",
      "outputs": [
        {
          "internalType": "uint256",
          "name": "",
          "type": "uint256"
        }
      ],
      "stateMutability": "view",
      "type": "function"
    },
    {
      "inputs": [
        {
          "internalType": "address",
          "name": "",
          "type": "address"
        },
        {
          "internalType": "uint32",
          "name": "",
          "type": "uint32"
        }
      ],
      "name": "_operatorsInUseByAddress",
      "outputs": [
        {
          "internalType": "uint256",
          "name": "index",
          "type": "uint256"
        },
        {
          "internalType": "uint256",
          "name": "used",
          "type": "uint256"
        },
        {
          "internalType": "uint256",
          "name": "validatorCount",
          "type": "uint256"
        },
        {
          "internalType": "uint32",
          "name": "indexInArray",
          "type": "uint32"
        },
        {
          "internalType": "bool",
          "name": "exists",
          "type": "bool"
        }
      ],
      "stateMutability": "view",
      "type": "function"
    },
    {
      "inputs": [
        {
          "internalType": "address",
          "name": "",
          "type": "address"
        },
        {
          "internalType": "uint256",
          "name": "",
          "type": "uint256"
        }
      ],
      "name": "_operatorsInUseList",
      "outputs": [
        {
          "internalType": "uint32",
          "name": "",
          "type": "uint32"
        }
      ],
      "stateMutability": "view",
      "type": "function"
    },
    {
      "inputs": [
        {
          "internalType": "address",
          "name": "",
          "type": "address"
        }
      ],
      "name": "_owners",
      "outputs": [
        {
          "internalType": "uint256",
          "name": "deposited",
          "type": "uint256"
        },
        {
          "internalType": "uint256",
          "name": "withdrawn",
          "type": "uint256"
        },
        {
          "internalType": "uint256",
          "name": "used",
          "type": "uint256"
        },
        {
          "internalType": "uint256",
          "name": "networkFee",
          "type": "uint256"
        },
        {
          "internalType": "uint256",
          "name": "networkFeeIndex",
          "type": "uint256"
        },
        {
          "internalType": "uint256",
          "name": "activeValidatorCount",
          "type": "uint256"
        },
        {
          "internalType": "bool",
          "name": "validatorsDisabled",
          "type": "bool"
        },
        {
          "internalType": "uint256",
          "name": "paidBlockNumber",
          "type": "uint256"
        }
      ],
      "stateMutability": "view",
      "type": "function"
    },
    {
      "inputs": [],
      "name": "_token",
      "outputs": [
        {
          "internalType": "contract IERC20",
          "name": "",
          "type": "address"
        }
      ],
      "stateMutability": "view",
      "type": "function"
    },
    {
      "inputs": [],
      "name": "_withdrawnFromTreasury",
      "outputs": [
        {
          "internalType": "uint256",
          "name": "",
          "type": "uint256"
        }
      ],
      "stateMutability": "view",
      "type": "function"
    },
    {
      "inputs": [
        {
          "internalType": "address",
          "name": "account",
          "type": "address"
        },
        {
          "internalType": "uint32[]",
          "name": "operatorIds",
          "type": "uint32[]"
        },
        {
          "internalType": "uint32[]",
          "name": "performances",
          "type": "uint32[]"
        }
      ],
      "name": "accountClaimFee",
      "outputs": [],
      "stateMutability": "nonpayable",
      "type": "function"
    },
    {
      "inputs": [
        {
          "internalType": "address",
          "name": "ownerAddress",
          "type": "address"
        }
      ],
      "name": "addressNetworkFee",
      "outputs": [
        {
          "internalType": "uint256",
          "name": "",
          "type": "uint256"
        }
      ],
      "stateMutability": "view",
      "type": "function"
    },
    {
      "inputs": [
        {
          "internalType": "bytes[]",
          "name": "publicKeys",
          "type": "bytes[]"
        },
        {
          "internalType": "uint32[]",
          "name": "operatorIds",
          "type": "uint32[]"
        },
        {
          "internalType": "bytes[][]",
          "name": "sharesPublicKeys",
          "type": "bytes[][]"
        },
        {
          "internalType": "bytes[][]",
          "name": "sharesEncrypteds",
          "type": "bytes[][]"
        },
        {
          "internalType": "uint32",
          "name": "validatorCount",
          "type": "uint32"
        },
        {
          "internalType": "uint256",
          "name": "eachAmount",
          "type": "uint256"
        }
      ],
      "name": "batchRegisterValidator",
      "outputs": [],
      "stateMutability": "nonpayable",
      "type": "function"
    },
    {
      "inputs": [
        {
          "internalType": "bytes32",
          "name": "role",
          "type": "bytes32"
        }
      ],
      "name": "checkRole",
      "outputs": [],
      "stateMutability": "view",
      "type": "function"
    },
    {
      "inputs": [
        {
          "internalType": "address",
          "name": "ownerAddress",
          "type": "address"
        },
        {
          "internalType": "uint256",
          "name": "amount",
          "type": "uint256"
        }
      ],
      "name": "deposit",
      "outputs": [],
      "stateMutability": "nonpayable",
      "type": "function"
    },
    {
      "inputs": [
        {
          "internalType": "address",
          "name": "ownerAddress",
          "type": "address"
        }
      ],
      "name": "disableOwnerValidators",
      "outputs": [],
      "stateMutability": "nonpayable",
      "type": "function"
    },
    {
      "inputs": [
        {
          "internalType": "address",
          "name": "ownerAddress",
          "type": "address"
        },
        {
          "internalType": "uint256",
          "name": "tokenAmount",
          "type": "uint256"
        }
      ],
      "name": "enableOwnerValidators",
      "outputs": [],
      "stateMutability": "nonpayable",
      "type": "function"
    },
    {
      "inputs": [
        {
          "internalType": "address",
          "name": "ownerAddress",
          "type": "address"
        }
      ],
      "name": "getAddressBalance",
      "outputs": [
        {
          "internalType": "uint256",
          "name": "",
          "type": "uint256"
        }
      ],
      "stateMutability": "view",
      "type": "function"
    },
    {
      "inputs": [
        {
          "internalType": "address",
          "name": "ownerAddress",
          "type": "address"
        }
      ],
      "name": "getAddressBurnRate",
      "outputs": [
        {
          "internalType": "uint256",
          "name": "ownerBurnRate",
          "type": "uint256"
        }
      ],
      "stateMutability": "view",
      "type": "function"
    },
    {
      "inputs": [],
      "name": "getNetworkEarnings",
      "outputs": [
        {
          "internalType": "uint256",
          "name": "",
          "type": "uint256"
        }
      ],
      "stateMutability": "view",
      "type": "function"
    },
    {
      "inputs": [
        {
          "internalType": "bytes32",
          "name": "role",
          "type": "bytes32"
        },
        {
          "internalType": "address",
          "name": "account",
          "type": "address"
        }
      ],
      "name": "grantRole",
      "outputs": [],
      "stateMutability": "nonpayable",
      "type": "function"
    },
    {
      "inputs": [
        {
          "internalType": "bytes32",
          "name": "role",
          "type": "bytes32"
        },
        {
          "internalType": "address",
          "name": "account",
          "type": "address"
        }
      ],
      "name": "hasRole",
      "outputs": [
        {
          "internalType": "bool",
          "name": "",
          "type": "bool"
        }
      ],
      "stateMutability": "view",
      "type": "function"
    },
    {
      "inputs": [
        {
          "internalType": "contract ISafeStakeRegistry",
          "name": "registryAddress_",
          "type": "address"
        },
        {
          "internalType": "contract IERC20",
          "name": "token_",
          "type": "address"
        },
        {
          "internalType": "uint64",
          "name": "minimumBlocksValidatorPay_",
          "type": "uint64"
        },
        {
          "internalType": "uint64",
          "name": "operatorFee",
          "type": "uint64"
        }
      ],
      "name": "initialize",
      "outputs": [],
      "stateMutability": "nonpayable",
      "type": "function"
    },
    {
      "inputs": [
        {
          "internalType": "uint32",
          "name": "initiatorId",
          "type": "uint32"
        },
        {
          "internalType": "uint256",
          "name": "tokenAmount",
          "type": "uint256"
        },
        {
          "internalType": "bytes",
          "name": "publicKey",
          "type": "bytes"
        },
        {
          "internalType": "bytes[]",
          "name": "sharesPublicKeys",
          "type": "bytes[]"
        },
        {
          "internalType": "bytes[]",
          "name": "sharesEncrypted",
          "type": "bytes[]"
        }
      ],
      "name": "initiatorStake",
      "outputs": [],
      "stateMutability": "nonpayable",
      "type": "function"
    },
    {
      "inputs": [
        {
          "internalType": "string",
          "name": "name",
          "type": "string"
        },
        {
          "internalType": "bytes",
          "name": "publicKey",
          "type": "bytes"
        }
      ],
      "name": "registerOperator",
      "outputs": [
        {
          "internalType": "uint32",
          "name": "operatorId",
          "type": "uint32"
        }
      ],
      "stateMutability": "nonpayable",
      "type": "function"
    },
    {
      "inputs": [
        {
          "internalType": "bytes",
          "name": "publicKey",
          "type": "bytes"
        },
        {
          "internalType": "uint32[]",
          "name": "operatorIds",
          "type": "uint32[]"
        },
        {
          "internalType": "bytes[]",
          "name": "sharesPublicKeys",
          "type": "bytes[]"
        },
        {
          "internalType": "bytes[]",
          "name": "sharesEncrypted",
          "type": "bytes[]"
        },
        {
          "internalType": "uint256",
          "name": "amount",
          "type": "uint256"
        }
      ],
      "name": "registerValidator",
      "outputs": [],
      "stateMutability": "nonpayable",
      "type": "function"
    },
    {
      "inputs": [
        {
          "internalType": "uint32",
          "name": "initiatorId",
          "type": "uint32"
        }
      ],
      "name": "removeInitiator",
      "outputs": [],
      "stateMutability": "nonpayable",
      "type": "function"
    },
    {
      "inputs": [
        {
          "internalType": "bytes",
          "name": "publicKey",
          "type": "bytes"
        }
      ],
      "name": "removeValidator",
      "outputs": [],
      "stateMutability": "nonpayable",
      "type": "function"
    },
    {
      "inputs": [
        {
          "internalType": "bytes",
          "name": "publicKey",
          "type": "bytes"
        }
      ],
      "name": "removeValidatorByAdmin",
      "outputs": [],
      "stateMutability": "nonpayable",
      "type": "function"
    },
    {
      "inputs": [
        {
          "internalType": "bytes32",
          "name": "role",
          "type": "bytes32"
        },
        {
          "internalType": "address",
          "name": "account",
          "type": "address"
        }
      ],
      "name": "revokeRole",
      "outputs": [],
      "stateMutability": "nonpayable",
      "type": "function"
    },
    {
      "inputs": [
        {
          "internalType": "bytes32",
          "name": "role",
          "type": "bytes32"
        },
        {
          "internalType": "address",
          "name": "newOwner",
          "type": "address"
        }
      ],
      "name": "transferOwnership",
      "outputs": [],
      "stateMutability": "nonpayable",
      "type": "function"
    },
    {
      "inputs": [
        {
          "internalType": "uint64",
          "name": "newMinimumBlocksValidatorPay",
          "type": "uint64"
        }
      ],
      "name": "updateMinimumBlocksValidatorPay",
      "outputs": [],
      "stateMutability": "nonpayable",
      "type": "function"
    },
    {
      "inputs": [
        {
          "internalType": "uint256",
          "name": "fee",
          "type": "uint256"
        }
      ],
      "name": "updateNetworkFee",
      "outputs": [],
      "stateMutability": "nonpayable",
      "type": "function"
    },
    {
      "inputs": [],
      "name": "version",
      "outputs": [
        {
          "internalType": "uint32",
          "name": "",
          "type": "uint32"
        }
      ],
      "stateMutability": "pure",
      "type": "function"
    },
    {
      "inputs": [
        {
          "internalType": "uint256",
          "name": "amount",
          "type": "uint256"
        }
      ],
      "name": "withdraw",
      "outputs": [],
      "stateMutability": "nonpayable",
      "type": "function"
    },
    {
      "inputs": [
        {
          "internalType": "uint256",
          "name": "amount",
          "type": "uint256"
        }
      ],
      "name": "withdrawNetworkEarnings",
      "outputs": [],
      "stateMutability": "nonpayable",
      "type": "function"
    },
    {
      "inputs": [
        {
          "internalType": "uint256",
          "name": "amount",
          "type": "uint256"
        }
      ],
      "name": "withdrawOperatorPenalty",
      "outputs": [],
      "stateMutability": "nonpayable",
      "type": "function"
    }
  ],
  "bytecode": "0x608060405234801561001057600080fd5b506140a3806100206000396000f3fe608060405234801561001057600080fd5b50600436106102fe5760003560e01c80638086b7f51161019c578063c5b95190116100ee578063e2f7cb3011610097578063ecd0c0c311610071578063ecd0c0c3146107e4578063ef5d6bbb146107f7578063fb8957331461080a57600080fd5b8063e2f7cb301461079d578063e40cb19d146107c8578063e5036486146107db57600080fd5b8063d2231741116100c8578063d22317411461076e578063d547741f14610781578063d8a302f41461079457600080fd5b8063c5b951901461073f578063cdd01b4814610752578063d201a2211461075b57600080fd5b8063a1ebf35d11610150578063be19b1981161012a578063be19b19814610685578063bf3a5c0214610698578063c398db9c1461072c57600080fd5b8063a1ebf35d14610638578063b2f569c51461065f578063be1472d61461067257600080fd5b806385f79d611161018157806385f79d61146105c957806391d14854146105dc5780639b4400dd1461062557600080fd5b80638086b7f5146105ad5780638448dbb9146105c057600080fd5b8063350467221161025557806356751420116102095780636fa79f4f116101e35780636fa79f4f1461054a57806375b238fc1461057e578063777915cb146105a557600080fd5b8063567514201461043857806356d9a2cc146104b45780636846b30f146104c757600080fd5b806347e7ef241161023a57806347e7ef24146103f9578063549e2d0a1461040c57806354fd4d501461041f57600080fd5b806335046722146103dd578063431f3306146103f057600080fd5b80631f1f9fd5116102b757806327467a181161029157806327467a18146103a45780632e1a7d4d146103b75780632f2ff15d146103ca57600080fd5b80631f1f9fd5146103635780632563c64e1461037657806327104a7b1461038957600080fd5b80630ec62fe9116102e85780630ec62fe9146103345780630f8649231461034757806316d082211461035a57600080fd5b80626749591461030357806307c9a50e1461031f575b600080fd5b61030c600a5481565b6040519081526020015b60405180910390f35b61033261032d36600461326f565b610831565b005b6103326103423660046132f2565b61089e565b610332610355366004613392565b610bca565b61030c60075481565b610332610371366004613470565b610c99565b61030c610384366004613489565b610d15565b610391603281565b60405161ffff9091168152602001610316565b6103326103b2366004613489565b610ded565b6103326103c5366004613470565b610ed5565b6103326103d83660046134a6565b610f7e565b61030c6103eb366004613489565b610fe7565b61030c60045481565b6103326104073660046134d6565b61106f565b61033261041a3660046134d6565b611079565b614e205b60405163ffffffff9091168152602001610316565b610481610446366004613502565b600b60205260009081526040902080546001820154600283015460038401546004850154600590950154939492939192909163ffffffff1686565b604080519687526020870195909552938501929092526060840152608083015263ffffffff1660a082015260c001610316565b61030c6104c2366004613489565b611154565b61051a6104d536600461351f565b600d60209081526000928352604080842090915290825290208054600182015460028301546003909301549192909163ffffffff811690640100000000900460ff1685565b6040805195865260208601949094529284019190915263ffffffff1660608301521515608082015260a001610316565b60035461056590600160a01b900467ffffffffffffffff1681565b60405167ffffffffffffffff9091168152602001610316565b61030c7f03783fac2efed8fbc9ad443e592ee30e61d65f471140c10ca155e937b435b76081565b61030c6111ca565b6104236105bb3660046134d6565b6111e6565b61030c60095481565b6104236105d736600461358f565b61122f565b6106156105ea3660046134a6565b60009182526001602090815260408084206001600160a01b0393909316845291905290205460ff1690565b6040519015158152602001610316565b6103326106333660046135fb565b611374565b61030c7f017e667f4b8c174291d1543c466717566e206df1bfd6f30271055ddafdb18f7281565b61033261066d366004613653565b6114ff565b610332610680366004613653565b6115db565b610332610693366004613470565b6116cc565b6106ef6106a6366004613489565b600c602052600090815260409020805460018201546002830154600384015460048501546005860154600687015460079097015495969495939492939192909160ff9091169088565b604080519889526020890197909752958701949094526060860192909252608085015260a0840152151560c083015260e082015261010001610316565b61033261073a366004613695565b611791565b61033261074d366004613470565b6119cf565b61030c60085481565b610332610769366004613502565b6119f5565b61033261077c366004613470565b611c69565b61033261078f3660046134a6565b611d70565b61030c60055481565b6002546107b0906001600160a01b031681565b6040516001600160a01b039091168152602001610316565b6103326107d636600461374b565b611dd5565b61030c60065481565b6003546107b0906001600160a01b031681565b6103326108053660046134a6565b611e03565b61030c7f1f675bff07515f5df96737194ea945c36c41e7b4fcef307b7cd4d0e602a6911181565b7f03783fac2efed8fbc9ad443e592ee30e61d65f471140c10ca155e937b435b76061085b816119cf565b506003805467ffffffffffffffff909216600160a01b027fffffffff0000000000000000ffffffffffffffffffffffffffffffffffffffff909216919091179055565b7f1f675bff07515f5df96737194ea945c36c41e7b4fcef307b7cd4d0e602a691116108c8816119cf565b6000808567ffffffffffffffff8111156108e4576108e4613817565b60405190808252806020026020018201604052801561090d578160200160208202803683370190505b50905060005b63ffffffff8116871115610b04576002546001600160a01b03808b16911663e7b217488a8a63ffffffff861681811061094e5761094e61382d565b90506020020160208101906109639190613502565b6040516001600160e01b031960e084901b16815263ffffffff919091166004820152602401602060405180830381865afa1580156109a5573d6000803e3d6000fd5b505050506040513d601f19601f820116820180604052508101906109c9919061384e565b6001600160a01b0316146109dc57600080fd5b610a1188888363ffffffff168181106109f7576109f761382d565b9050602002016020810190610a0c9190613502565b611e63565b600b600089898463ffffffff16818110610a2d57610a2d61382d565b9050602002016020810190610a429190613502565b63ffffffff1663ffffffff16815260200190815260200160002060010154828263ffffffff1681518110610a7857610a7861382d565b602002602001018181525050610ae688888363ffffffff16818110610a9f57610a9f61382d565b9050602002016020810190610ab49190613502565b87878463ffffffff16818110610acc57610acc61382d565b9050602002016020810190610ae19190613502565b611e8c565b610af09084613881565b925080610afc81613894565b915050610913565b5060035460405163a9059cbb60e01b81526001600160a01b038a81166004830152602482018590529091169063a9059cbb906044016020604051808303816000875af1158015610b58573d6000803e3d6000fd5b505050506040513d601f19601f82011682018060405250810190610b7c91906138c7565b507fbc105ad2a3538cfd8570bac1d1d6026e8a305ddeec7d2cd019787867166569b987878787868643604051610bb89796959493929190613928565b60405180910390a15050505050505050565b60005b8263ffffffff168163ffffffff161015610c7b57610c6b338c8c8463ffffffff16818110610bfd57610bfd61382d565b9050602002810190610c0f91906139a6565b8c8c8c8c8863ffffffff16818110610c2957610c2961382d565b9050602002810190610c3b91906139ed565b8c8c8a63ffffffff16818110610c5357610c5361382d565b9050602002810190610c6591906139ed565b8b611f1e565b610c7481613894565b9050610bcd565b50610c84612156565b610c8d33612167565b50505050505050505050565b7f1f675bff07515f5df96737194ea945c36c41e7b4fcef307b7cd4d0e602a69111610cc3816119cf565b60045460408051918252602082018490527fb12de2022a8c992455195d1cdfe49c528c96a325adc99e12b6eab59d56654ea2910160405180910390a1610d07612156565b610d0f6121b3565b50600455565b6001600160a01b0381166000908152600c602052604081206006015460ff1615610d4157506000919050565b60005b6001600160a01b0383166000908152600e602052604090205463ffffffff82161015610de7576001600160a01b0383166000908152600e602052604090208054610dcb91859163ffffffff8516908110610da057610da061382d565b90600052602060002090600891828204019190066004029054906101000a900463ffffffff166121c4565b610dd59083613881565b9150610de081613894565b9050610d44565b50919050565b7f1f675bff07515f5df96737194ea945c36c41e7b4fcef307b7cd4d0e602a69111610e17816119cf565b6001600160a01b0382166000908152600c60205260409020600681015460ff1615610e4157600080fd5b43816007015410610e5157600080fd5b60068101805460ff191660011790556002546040516304e8cf4360e31b81526001600160a01b038581166004830152909116906327467a1890602401600060405180830381600087803b158015610ea757600080fd5b505af1158015610ebb573d6000803e3d6000fd5b50505050610ec7612156565b610ed083612167565b505050565b6002546040516303cf703160e01b81523360048201526001600160a01b03909116906303cf703190602401602060405180830381865afa158015610f1d573d6000803e3d6000fd5b505050506040513d601f19601f82011682018060405250810190610f4191906138c7565b15610f4b57600080fd5b80610f5533610fe7565b11610f5f57600080fd5b610f688161229b565b610f7133612379565b15610f7b57600080fd5b50565b3360009081527f331bba8513ee4dd5811afc38fa48458378fe9b930e1c5bd9a2e37d456ee8c897602052604090205460ff16610fe35760008281526001602081815260408084206001600160a01b0386168552909152909120805460ff191690911790555b5050565b600080610ff3836123a9565b6001600160a01b0384166000908152600c60205260409020546110169190613881565b9050600061102384612483565b6001600160a01b0385166000908152600c60205260409020600101546110499190613881565b90508082101561105d575060009392505050565b6110678183613a37565b949350505050565b610fe382826125f0565b7f1f675bff07515f5df96737194ea945c36c41e7b4fcef307b7cd4d0e602a691116110a3816119cf565b6001600160a01b0383166000908152600c60205260409020600681015460ff166110cc57600080fd5b600083116110d957600080fd5b60068101805460ff191690556002546040516311504efd60e21b81526001600160a01b038681166004830152909116906345413bf490602401600060405180830381600087803b15801561112c57600080fd5b505af1158015611140573d6000803e3d6000fd5b5050505061114e84846125f0565b50505050565b6001600160a01b0381166000908152600c60205260408120600581015460049091015461117f6126e7565b6111899190613a37565b6111939190613a4a565b61119e906004613a4a565b6001600160a01b0383166000908152600c60205260409020600301546111c49190613881565b92915050565b60006009546111d7612711565b6111e19190613a37565b905090565b600e602052816000526040600020818154811061120257600080fd5b9060005260206000209060089182820401919006600402915091509054906101000a900463ffffffff1681565b600254604051631940d38760e01b81526000916001600160a01b031690631940d387906112689088908890339089908990600401613a8a565b6020604051808303816000875af1158015611287573d6000803e3d6000fd5b505050506040513d601f19601f820116820180604052508101906112ab9190613acc565b6040805160c0810182524380825260208083018281526000848601818152606086018281526080870195865260a0870183815263ffffffff8a8116808652600b9097529389902097518855935160018801559051600287015551600386015592516004850155516005909301805463ffffffff191693909216929092179055905191925033917fa837adf7db87879179d994c48f4275ae84c6ea7ba2ff625b1e121b5a6f42317d90611364908990899089908990613ae9565b60405180910390a3949350505050565b600061138060016127ce565b90508015611398576000805461ff0019166101001790555b6113a0612835565b600280547fffffffffffffffffffffffff0000000000000000000000000000000000000000166001600160a01b0387811691909117909155600380549186166001600160e01b031990921691909117600160a01b67ffffffffffffffff86160217905561140b612156565b6114136121b3565b606461142083600a613b1b565b61142a9190613b5d565b67ffffffffffffffff166004556002546001600160a01b031663da35a26f83336040516001600160e01b031960e085901b16815267ffffffffffffffff90921660048301526001600160a01b03166024820152604401600060405180830381600087803b15801561149a57600080fd5b505af11580156114ae573d6000803e3d6000fd5b5050505080156114f8576000805461ff0019169055604051600181527f7f26b83ff96e1f2b6a682f133852f6798a09c465da95921460cefb38474024989060200160405180910390a15b5050505050565b60025460405163190f660760e31b81526000916001600160a01b03169063c87b3038906115329086908690600401613b84565b602060405180830381865afa15801561154f573d6000803e3d6000fd5b505050506040513d601f19601f82011682018060405250810190611573919061384e565b9050336001600160a01b0382161461158a57600080fd5b611592612156565b61159b33612167565b610ed03384848080601f0160208091040260200160405190810160405280939291908181526020018383808284376000920191909152506128e992505050565b7f1f675bff07515f5df96737194ea945c36c41e7b4fcef307b7cd4d0e602a69111611605816119cf565b60025460405163190f660760e31b81526000916001600160a01b03169063c87b3038906116389087908790600401613b84565b602060405180830381865afa158015611655573d6000803e3d6000fd5b505050506040513d601f19601f82011682018060405250810190611679919061384e565b9050611683612156565b61168c81612167565b61114e8185858080601f0160208091040260200160405190810160405280939291908181526020018383808284376000920191909152506128e992505050565b7f1f675bff07515f5df96737194ea945c36c41e7b4fcef307b7cd4d0e602a691116116f6816119cf565b600a5482111561170557600080fd5b81600a60008282546117179190613a37565b909155505060035460405163a9059cbb60e01b8152336004820152602481018490526001600160a01b039091169063a9059cbb906044016020604051808303816000875af115801561176d573d6000803e3d6000fd5b505050506040513d601f19601f82011682018060405250810190610ed091906138c7565b600254604051632607bd7960e21b815233600482015263ffffffff8a1660248201526001600160a01b039091169063981ef5e490604401600060405180830381600087803b1580156117e257600080fd5b505af11580156117f6573d6000803e3d6000fd5b50505050611802612156565b61180b33612167565b336000908152600c60205260409020600681015460ff1661183c57806005016000815461183790613b98565b909155505b600254604051635b5571b560e11b815263ffffffff8b1660048201526000916001600160a01b03169063b6aae36a90602401600060405180830381865afa15801561188b573d6000803e3d6000fd5b505050506040513d6000823e601f3d908101601f191682016040526118b39190810190613c60565b90506118bf818a612ae1565b60005b81518163ffffffff16101561196d576000828263ffffffff16815181106118eb576118eb61382d565b602002602001015190506118fe81611e63565b600684015460ff166119505763ffffffff8082166000908152600b60205260408120600501805490926119319116613894565b91906101000a81548163ffffffff021916908363ffffffff1602179055505b61195c33826001612bb0565b5061196681613894565b90506118c2565b50611978338a6125f0565b600782015460405133917f610eb3c1fafe229af536e91b7e00486902d54d54d8d3f0de283a467ac8f985bf916119bb918c918c9187918d918d918d918d91613d24565b60405180910390a250505050505050505050565b600081815260016020908152604080832033845290915290205460ff16610f7b57600080fd5b60025460405163065b5ac360e11b815263ffffffff83166004820152600091829182916001600160a01b031690630cb6b58690602401600060405180830381865afa158015611a48573d6000803e3d6000fd5b505050506040513d6000823e601f3d908101601f19168201604052611a709190810190613dea565b505050925092509250826001600160a01b0316336001600160a01b031614611a9757600080fd5b6001600160a01b0383166000908152600c602052604090206006015460ff16611ae8576001600160a01b0383166000908152600c602052604081206005018054909190611ae390613ee8565b909155505b60005b82518163ffffffff161015611baf576000838263ffffffff1681518110611b1457611b1461382d565b60200260200101519050611b2781611e63565b6001600160a01b0385166000908152600c602052604090206006015460ff16611b905763ffffffff8082166000908152600b6020526040812060050180549092611b719116613eff565b91906101000a81548163ffffffff021916908363ffffffff1602179055505b611b9c85826000612bb0565b5080611ba781613894565b915050611aeb565b50611bb983612f77565b600254604051637bc845b160e11b815233600482015263ffffffff861660248201526001600160a01b039091169063f7908b6290604401600060405180830381600087803b158015611c0a57600080fd5b505af1158015611c1e573d6000803e3d6000fd5b50505050826001600160a01b03167f671ada3835502b9498e4a3116c344293ec3a4ef43f90bb42283d7d66a3f772b282604051611c5b9190613f1f565b60405180910390a250505050565b7f1f675bff07515f5df96737194ea945c36c41e7b4fcef307b7cd4d0e602a69111611c93816119cf565b611c9b6111ca565b821115611ca757600080fd5b8160096000828254611cb99190613881565b909155505060035460405163a9059cbb60e01b8152336004820152602481018490526001600160a01b039091169063a9059cbb906044016020604051808303816000875af1158015611d0f573d6000803e3d6000fd5b505050506040513d601f19601f82011682018060405250810190611d3391906138c7565b50604080518381523360208201527f5564de4b05294182a45c60836e9c0ba86d5c351cf1c0db79e4fe5dd04786de1a910160405180910390a15050565b3360009081527f331bba8513ee4dd5811afc38fa48458378fe9b930e1c5bd9a2e37d456ee8c897602052604090205460ff1615610fe35760008281526001602090815260408083206001600160a01b03851684529091529020805460ff191690555050565b611de7338a8a8a8a8a8a8a8a8a611f1e565b611def612156565b611df833612167565b505050505050505050565b81611e0d816119cf565b6001600160a01b038216611e2057600080fd5b506000918252600160208181526040808520338652909152808420805460ff199081169091556001600160a01b0393909316845290922080549091169091179055565b63ffffffff81166000908152600b60205260409020611e8182612fec565b600282015543905550565b600060648263ffffffff161115611ea257600080fd5b63ffffffff8084166000908152600b6020526040812060028101549092606491611ece91871690613a4a565b611ed89190613f52565b90506000818360020154611eec9190613a37565b905080600a6000828254611f009190613881565b90915550506000600284015550436001909201919091559392505050565b60048614611f2b57600080fd5b611f69878780806020026020016040519081016040528093929190818152602001838360200280828437600092019190915250859250612ae1915050565b6001600160a01b038a166000908152600c60205260409020436007820155600681015460ff16611fa9578060050160008154611fa490613b98565b909155505b60005b63ffffffff811688111561206357600089898363ffffffff16818110611fd457611fd461382d565b9050602002016020810190611fe99190613502565b9050611ff481611e63565b600683015460ff166120465763ffffffff8082166000908152600b60205260408120600501805490926120279116613894565b91906101000a81548163ffffffff021916908363ffffffff1602179055505b6120528d826001612bb0565b5061205c81613894565b9050611fac565b5081156120795761207433836125f0565b612082565b6120828b612f77565b600254604051639b4ddb5d60e01b81526001600160a01b0390911690639b4ddb5d906120c2908e908e908e908e908e908e908e908e908e90600401613f66565b600060405180830381600087803b1580156120dc57600080fd5b505af11580156120f0573d6000803e3d6000fd5b505050508a6001600160a01b03167f610eb3c1fafe229af536e91b7e00486902d54d54d8d3f0de283a467ac8f985bf8b8b8b8b8b8b8b8b8a6007015460405161214199989796959493929190613fd6565b60405180910390a25050505050505050505050565b61215e612711565b60075543600855565b61217081611154565b6001600160a01b0382166000908152600c60205260409020600301556121946126e7565b6001600160a01b039091166000908152600c6020526040902060040155565b6121bb6126e7565b60055543600655565b60025460405163f8f08d7f60e01b815263ffffffff8316600482015260009182916001600160a01b039091169063f8f08d7f90602401602060405180830381865afa158015612217573d6000803e3d6000fd5b505050506040513d601f19601f8201168201806040525081019061223b919061403e565b90508060000361224f5760009150506111c4565b6001600160a01b0384166000908152600d6020908152604080832063ffffffff871684529091529020600201546004546122899083613881565b6122939190613a4a565b9150506111c4565b336000908152600c6020526040812060010180548392906122bd908490613881565b909155505060035460405163a9059cbb60e01b8152336004820152602481018390526001600160a01b039091169063a9059cbb906044016020604051808303816000875af1158015612313573d6000803e3d6000fd5b505050506040513d601f19601f8201168201806040525081019061233791906138c7565b5061234133612f77565b60405181815233907f233f5518707099d7be7f52de7c8094100dae65f0c896a762ebcc5900370d66bc9060200160405180910390a250565b6001600160a01b0381166000908152600c602052604081206006015460ff161580156111c457506111c482613044565b600254604051630dc1eeff60e01b81526001600160a01b0383811660048301526000928392839290911690630dc1eeff90602401600060405180830381865afa1580156123fa573d6000803e3d6000fd5b505050506040513d6000823e601f3d908101601f191682016040526124229190810190613c60565b905060005b81518163ffffffff16101561247a5761245e828263ffffffff16815181106124515761245161382d565b6020026020010151612fec565b6124689084613881565b925061247381613894565b9050612427565b50909392505050565b60008061248f83611154565b6001600160a01b0384166000908152600c60205260409020600201546124b59190613881565b905060005b6001600160a01b0384166000908152600e602052604090205463ffffffff821610156125e9576001600160a01b0384166000908152600d60209081526040808320600e9092528220805483919063ffffffff861690811061251d5761251d61382d565b90600052602060002090600891828204019190066004029054906101000a900463ffffffff1663ffffffff1663ffffffff16815260200190815260200160002090506125cb8186600e6000896001600160a01b03166001600160a01b031681526020019081526020016000208563ffffffff16815481106125a0576125a061382d565b90600052602060002090600891828204019190066004029054906101000a900463ffffffff1661307d565b6125d59084613881565b925050806125e290613894565b90506124ba565b5092915050565b6003546040516323b872dd60e01b8152336004820152306024820152604481018390526001600160a01b03909116906323b872dd906064016020604051808303816000875af1158015612647573d6000803e3d6000fd5b505050506040513d601f19601f8201168201806040525081019061266b91906138c7565b506001600160a01b0382166000908152600c602052604081208054839290612694908490613881565b909155506126a3905082612f77565b60405181815233906001600160a01b038416907fb91f78378ad1ce7b5c12301896eac25f50d4603d0301406595e6fdfa6ffd64199060200160405180910390a35050565b6000600454600654436126fa9190613a37565b6127049190613a4a565b6005546111e19190613881565b600080600260009054906101000a90046001600160a01b03166001600160a01b0316632340e8d36040518163ffffffff1660e01b8152600401602060405180830381865afa158015612767573d6000803e3d6000fd5b505050506040513d601f19601f8201168201806040525081019061278b9190613acc565b63ffffffff16600454600854436127a29190613a37565b6127ac9190613a4a565b6127b69190613a4a565b6127c1906004613a4a565b6007546111c49190613881565b60008054610100900460ff1615612802578160ff1660011480156127f15750303b155b6127fa57600080fd5b506000919050565b60005460ff80841691161061281657600080fd5b506000805460ff191660ff92909216919091179055600190565b919050565b600054610100900460ff1661284957600080fd5b3360009081527f331bba8513ee4dd5811afc38fa48458378fe9b930e1c5bd9a2e37d456ee8c897602090815260408083208054600160ff1991821681179092557f911c709b9be4f1ae2b9f62542e6578f826afdf6fa62cd1aac81cae683df0add2845282852080548216831790557f427c45ac74610ad1057fc3524fc3fecaa3416dd8aa9baf907541659f889ee436909352922080549091169091179055565b60025460405163053e834960e01b81526000916001600160a01b03169063053e83499061291a908590600401613f1f565b600060405180830381865afa158015612937573d6000803e3d6000fd5b505050506040513d6000823e601f3d908101601f1916820160405261295f9190810190613c60565b905060005b81518163ffffffff161015612a02576000828263ffffffff168151811061298d5761298d61382d565b602002602001015190506129a081611e63565b63ffffffff8082166000908152600b60205260408120600501805490926129c79116613eff565b91906101000a81548163ffffffff021916908363ffffffff1602179055506129f185826000612bb0565b506129fb81613894565b9050612964565b506001600160a01b0383166000908152600c602052604081206005018054909190612a2c90613ee8565b90915550612a3983612f77565b60025460405163b2f569c560e01b81526001600160a01b039091169063b2f569c590612a69908590600401613f1f565b600060405180830381600087803b158015612a8357600080fd5b505af1158015612a97573d6000803e3d6000fd5b50505050826001600160a01b03167f671ada3835502b9498e4a3116c344293ec3a4ef43f90bb42283d7d66a3f772b283604051612ad49190613f1f565b60405180910390a2505050565b60025482516001600160a01b039091169063f8f08d7f908490600090612b0957612b0961382d565b60200260200101516040518263ffffffff1660e01b8152600401612b39919063ffffffff91909116815260200190565b602060405180830381865afa158015612b56573d6000803e3d6000fd5b505050506040513d601f19601f82011682018060405250810190612b7a919061403e565b8251600354612b9a9190600160a01b900467ffffffffffffffff16613a4a565b612ba49190613a4a565b811015610fe357600080fd5b6001600160a01b0383166000908152600d6020908152604080832063ffffffff8616845290915290206003810154640100000000900460ff1615612e6357612bf981858561307d565b6001820155612c07836130cf565b81558115612c29578060020160008154612c2090613b98565b90915550612f6e565b8060020160008154612c3a90613ee8565b9182905550600003612e5e5760018101546001600160a01b0385166000908152600c602052604081206002018054909190612c76908490613881565b90915550506001600160a01b0384166000908152600e602052604090208054612ca190600190613a37565b81548110612cb157612cb161382d565b600091825260208083206008830401546001600160a01b0388168452600e90915260409092206003840154815460079093166004026101000a90930463ffffffff9081169391929116908110612d0957612d0961382d565b600091825260208083206008830401805460079093166004026101000a63ffffffff81810219909416958416029490941790935560038401546001600160a01b0388168352600d84526040808420600e90955283208054919092169392919084908110612d7857612d7861382d565b6000918252602080832060088304015460079092166004026101000a90910463ffffffff90811684528382019490945260409283018220600301805463ffffffff191695909416949094179092556001600160a01b0387168252600e90925220805480612de757612de7614057565b60008281526020808220600860001990940193840401805463ffffffff600460078716026101000a810219909116909155929093556001600160a01b0387168152600d835260408082209287168252919092528120818155600181018290556002810191909155600301805464ffffffffff191690555b612f6e565b6001600160a01b0384166000908152600e602052604090205460321015612e8957600080fd5b6040518060a00160405280612e9d856130cf565b815260006020808301829052600160408085018290526001600160a01b038a16808552600e808552828620805463ffffffff9081166060808b01919091526080998a01879052938852600d87528488208d8216808a529088528589208b5181558b89015181890155958b01516002870155938a0151600390950180549a9099015115156401000000000264ffffffffff19909a1694811694909417989098179096559483528554918201865594835291206008820401805460079092166004026101000a9283029290930219161790555b61114e83613191565b612f8081610d15565b600003612fa7576001600160a01b03166000908152600c6020526040902043600790910155565b612fb081610d15565b612fb982610fe7565b612fc39190613f52565b612fcd9043613881565b6001600160a01b0382166000908152600c602052604090206007015550565b6000612ff7826131be565b63ffffffff83166000908152600b60205260409020546130179043613a37565b6130219190613a4a565b63ffffffff83166000908152600b60205260409020600201546111c49190613881565b600061304f82610d15565b60035461306d9190600160a01b900467ffffffffffffffff16613a4a565b61307683610fe7565b1092915050565b6001600160a01b0382166000908152600c602052604081206006015460ff166130bd5783600201546130ae836130cf565b6130b89190613a4a565b6130c0565b60005b84600101546110679190613881565b63ffffffff81166000908152600b60205260408120600401546130f29043613a37565b60025460405163f8f08d7f60e01b815263ffffffff851660048201526001600160a01b039091169063f8f08d7f90602401602060405180830381865afa158015613140573d6000803e3d6000fd5b505050506040513d601f19601f82011682018060405250810190613164919061403e565b61316e9190613a4a565b63ffffffff83166000908152600b60205260409020600301546111c49190613881565b63ffffffff81166000908152600b602052604090206131af826130cf565b60038201554360049091015550565b63ffffffff8181166000818152600b602052604080822060050154600254915163f8f08d7f60e01b81526004810194909452919391909116916001600160a01b039091169063f8f08d7f90602401602060405180830381865afa158015613229573d6000803e3d6000fd5b505050506040513d601f19601f8201168201806040525081019061324d919061403e565b6111c49190613a4a565b803567ffffffffffffffff8116811461283057600080fd5b60006020828403121561328157600080fd5b61328a82613257565b9392505050565b6001600160a01b0381168114610f7b57600080fd5b60008083601f8401126132b857600080fd5b50813567ffffffffffffffff8111156132d057600080fd5b6020830191508360208260051b85010111156132eb57600080fd5b9250929050565b60008060008060006060868803121561330a57600080fd5b853561331581613291565b9450602086013567ffffffffffffffff8082111561333257600080fd5b61333e89838a016132a6565b9096509450604088013591508082111561335757600080fd5b50613364888289016132a6565b969995985093965092949392505050565b63ffffffff81168114610f7b57600080fd5b803561283081613375565b60008060008060008060008060008060c08b8d0312156133b157600080fd5b8a3567ffffffffffffffff808211156133c957600080fd5b6133d58e838f016132a6565b909c509a5060208d01359150808211156133ee57600080fd5b6133fa8e838f016132a6565b909a50985060408d013591508082111561341357600080fd5b61341f8e838f016132a6565b909850965060608d013591508082111561343857600080fd5b506134458d828e016132a6565b9095509350613458905060808c01613387565b915060a08b013590509295989b9194979a5092959850565b60006020828403121561348257600080fd5b5035919050565b60006020828403121561349b57600080fd5b813561328a81613291565b600080604083850312156134b957600080fd5b8235915060208301356134cb81613291565b809150509250929050565b600080604083850312156134e957600080fd5b82356134f481613291565b946020939093013593505050565b60006020828403121561351457600080fd5b813561328a81613375565b6000806040838503121561353257600080fd5b823561353d81613291565b915060208301356134cb81613375565b60008083601f84011261355f57600080fd5b50813567ffffffffffffffff81111561357757600080fd5b6020830191508360208285010111156132eb57600080fd5b600080600080604085870312156135a557600080fd5b843567ffffffffffffffff808211156135bd57600080fd5b6135c98883890161354d565b909650945060208701359150808211156135e257600080fd5b506135ef8782880161354d565b95989497509550505050565b6000806000806080858703121561361157600080fd5b843561361c81613291565b9350602085013561362c81613291565b925061363a60408601613257565b915061364860608601613257565b905092959194509250565b6000806020838503121561366657600080fd5b823567ffffffffffffffff81111561367d57600080fd5b6136898582860161354d565b90969095509350505050565b60008060008060008060008060a0898b0312156136b157600080fd5b88356136bc81613375565b975060208901359650604089013567ffffffffffffffff808211156136e057600080fd5b6136ec8c838d0161354d565b909850965060608b013591508082111561370557600080fd5b6137118c838d016132a6565b909650945060808b013591508082111561372a57600080fd5b506137378b828c016132a6565b999c989b5096995094979396929594505050565b600080600080600080600080600060a08a8c03121561376957600080fd5b893567ffffffffffffffff8082111561378157600080fd5b61378d8d838e0161354d565b909b50995060208c01359150808211156137a657600080fd5b6137b28d838e016132a6565b909950975060408c01359150808211156137cb57600080fd5b6137d78d838e016132a6565b909750955060608c01359150808211156137f057600080fd5b506137fd8c828d016132a6565b9a9d999c50979a9699959894979660800135949350505050565b634e487b7160e01b600052604160045260246000fd5b634e487b7160e01b600052603260045260246000fd5b805161283081613291565b60006020828403121561386057600080fd5b815161328a81613291565b634e487b7160e01b600052601160045260246000fd5b808201808211156111c4576111c461386b565b600063ffffffff8083168181036138ad576138ad61386b565b6001019392505050565b8051801515811461283057600080fd5b6000602082840312156138d957600080fd5b61328a826138b7565b8183526000602080850194508260005b8581101561391d57813561390581613375565b63ffffffff16875295820195908201906001016138f2565b509495945050505050565b60a08152600061393c60a08301898b6138e2565b60208382038185015261395082898b6138e2565b604085018890528481036060860152865180825282880193509082019060005b8181101561398c57845183529383019391830191600101613970565b505080935050505082608083015298975050505050505050565b6000808335601e198436030181126139bd57600080fd5b83018035915067ffffffffffffffff8211156139d857600080fd5b6020019150368190038213156132eb57600080fd5b6000808335601e19843603018112613a0457600080fd5b83018035915067ffffffffffffffff821115613a1f57600080fd5b6020019150600581901b36038213156132eb57600080fd5b818103818111156111c4576111c461386b565b80820281158282048414176111c4576111c461386b565b81835281816020850137506000828201602090810191909152601f909101601f19169091010190565b606081526000613a9e606083018789613a61565b6001600160a01b03861660208401528281036040840152613ac0818587613a61565b98975050505050505050565b600060208284031215613ade57600080fd5b815161328a81613375565b604081526000613afd604083018688613a61565b8281036020840152613b10818587613a61565b979650505050505050565b67ffffffffffffffff818116838216028082169190828114613b3f57613b3f61386b565b505092915050565b634e487b7160e01b600052601260045260246000fd5b600067ffffffffffffffff80841680613b7857613b78613b47565b92169190910492915050565b602081526000611067602083018486613a61565b600060018201613baa57613baa61386b565b5060010190565b604051601f8201601f1916810167ffffffffffffffff81118282101715613bda57613bda613817565b604052919050565b600082601f830112613bf357600080fd5b8151602067ffffffffffffffff821115613c0f57613c0f613817565b8160051b613c1e828201613bb1565b9283528481018201928281019087851115613c3857600080fd5b83870192505b84831015613b10578251613c5181613375565b82529183019190830190613c3e565b600060208284031215613c7257600080fd5b815167ffffffffffffffff811115613c8957600080fd5b61106784828501613be2565b818352600060208085019450848460051b86018460005b87811015613d175783830389528135601e19883603018112613ccd57600080fd5b8701858101903567ffffffffffffffff811115613ce957600080fd5b803603821315613cf857600080fd5b613d03858284613a61565b9a87019a9450505090840190600101613cac565b5090979650505050505050565b60a081526000613d3860a083018a8c613a61565b82810360208481019190915289518083528a82019282019060005b81811015613d7557845163ffffffff1683529383019391830191600101613d53565b50508481036040860152613d8a818a8c613c95565b925050508281036060840152613da1818688613c95565b9150508260808301529998505050505050505050565b60005b83811015613dd2578181015183820152602001613dba565b50506000910152565b80516004811061283057600080fd5b60008060008060008060c08789031215613e0357600080fd5b8651613e0e81613291565b602088015190965067ffffffffffffffff80821115613e2c57600080fd5b613e388a838b01613be2565b96506040890151915080821115613e4e57600080fd5b818901915089601f830112613e6257600080fd5b815181811115613e7457613e74613817565b613e87601f8201601f1916602001613bb1565b91508082528a6020828501011115613e9e57600080fd5b613eaf816020840160208601613db7565b509450613ec0905060608801613843565b9250613ece60808801613ddb565b9150613edc60a088016138b7565b90509295509295509295565b600081613ef757613ef761386b565b506000190190565b600063ffffffff821680613f1557613f1561386b565b6000190192915050565b6020815260008251806020840152613f3e816040850160208701613db7565b601f01601f19169190910160400192915050565b600082613f6157613f61613b47565b500490565b6001600160a01b038a16815260a060208201526000613f8960a083018a8c613a61565b8281036040840152613f9c81898b6138e2565b90508281036060840152613fb1818789613c95565b90508281036080840152613fc6818587613c95565b9c9b505050505050505050505050565b60a081526000613fea60a083018b8d613a61565b8281036020840152613ffd818a8c6138e2565b9050828103604084015261401281888a613c95565b90508281036060840152614027818688613c95565b9150508260808301529a9950505050505050505050565b60006020828403121561405057600080fd5b5051919050565b634e487b7160e01b600052603160045260246000fdfea26469706673582212206782b841f376273d2aad5dd2ead7159938d4bc22c01eaeb6e1cf8d09dddcbcc564736f6c63430008130033",
  "linkReferences": {},
  "deployedLinkReferences": {}
}