{
  "contractName": "SafeStakeNetwork",
  "abi": [
    {
      "inputs": [],
      "name": "AccountAlreadyEnabled",
      "type": "error"
    },
    {
      "inputs": [],
      "name": "ApprovalNotWithinTimeframe",
      "type": "error"
    },
    {
      "inputs": [],
      "name": "BelowMinimumBlockPeriod",
      "type": "error"
    },
    {
      "inputs": [],
      "name": "BurnRatePositive",
      "type": "error"
    },
    {
      "inputs": [],
      "name": "CallerNotOperatorOwner",
      "type": "error"
    },
    {
      "inputs": [],
      "name": "CallerNotValidatorOwner",
      "type": "error"
    },
    {
      "inputs": [],
      "name": "ExceedManagingOperatorsPerAccountLimit",
      "type": "error"
    },
    {
      "inputs": [],
      "name": "FeeExceedsIncreaseLimit",
      "type": "error"
    },
    {
      "inputs": [],
      "name": "FeeTooLow",
      "type": "error"
    },
    {
      "inputs": [],
      "name": "NegativeBalance",
      "type": "error"
    },
    {
      "inputs": [],
      "name": "NoPendingFeeChangeRequest",
      "type": "error"
    },
    {
      "inputs": [],
      "name": "NotEnoughBalance",
      "type": "error"
    },
    {
      "inputs": [],
      "name": "OperatorWithPublicKeyNotExist",
      "type": "error"
    },
    {
      "inputs": [],
      "name": "ValidatorWithPublicKeyNotExist",
      "type": "error"
    },
    {
      "anonymous": false,
      "inputs": [
        {
          "indexed": false,
          "internalType": "uint32[]",
          "name": "operatorIds",
          "type": "uint32[]"
        },
        {
          "indexed": false,
          "internalType": "uint32[]",
          "name": "performance",
          "type": "uint32[]"
        },
        {
          "indexed": false,
          "internalType": "uint256",
          "name": "claimValue",
          "type": "uint256"
        },
        {
          "indexed": false,
          "internalType": "uint256[]",
          "name": "lastClaimBlockNumber",
          "type": "uint256[]"
        },
        {
          "indexed": false,
          "internalType": "uint256",
          "name": "claimBlockNumber",
          "type": "uint256"
        }
      ],
      "name": "AccountClaim",
      "type": "event"
    },
    {
      "anonymous": false,
      "inputs": [
        {
          "indexed": true,
          "internalType": "address",
          "name": "ownerAddress",
          "type": "address"
        }
      ],
      "name": "AccountDisable",
      "type": "event"
    },
    {
      "anonymous": false,
      "inputs": [
        {
          "indexed": true,
          "internalType": "address",
          "name": "ownerAddress",
          "type": "address"
        }
      ],
      "name": "AccountEnable",
      "type": "event"
    },
    {
      "anonymous": false,
      "inputs": [
        {
          "indexed": false,
          "internalType": "uint256",
          "name": "value",
          "type": "uint256"
        },
        {
          "indexed": true,
          "internalType": "address",
          "name": "ownerAddress",
          "type": "address"
        },
        {
          "indexed": true,
          "internalType": "address",
          "name": "senderAddress",
          "type": "address"
        }
      ],
      "name": "FundsDeposit",
      "type": "event"
    },
    {
      "anonymous": false,
      "inputs": [
        {
          "indexed": false,
          "internalType": "uint256",
          "name": "value",
          "type": "uint256"
        },
        {
          "indexed": true,
          "internalType": "address",
          "name": "ownerAddress",
          "type": "address"
        }
      ],
      "name": "FundsWithdrawal",
      "type": "event"
    },
    {
      "anonymous": false,
      "inputs": [
        {
          "indexed": false,
          "internalType": "uint8",
          "name": "version",
          "type": "uint8"
        }
      ],
      "name": "Initialized",
      "type": "event"
    },
    {
      "anonymous": false,
      "inputs": [
        {
          "indexed": false,
          "internalType": "uint256",
          "name": "oldFee",
          "type": "uint256"
        },
        {
          "indexed": false,
          "internalType": "uint256",
          "name": "newFee",
          "type": "uint256"
        }
      ],
      "name": "NetworkFeeUpdate",
      "type": "event"
    },
    {
      "anonymous": false,
      "inputs": [
        {
          "indexed": false,
          "internalType": "uint256",
          "name": "value",
          "type": "uint256"
        },
        {
          "indexed": false,
          "internalType": "address",
          "name": "recipient",
          "type": "address"
        }
      ],
      "name": "NetworkFeesWithdrawal",
      "type": "event"
    },
    {
      "anonymous": false,
      "inputs": [
        {
          "indexed": true,
          "internalType": "uint32",
          "name": "id",
          "type": "uint32"
        },
        {
          "indexed": false,
          "internalType": "string",
          "name": "name",
          "type": "string"
        },
        {
          "indexed": true,
          "internalType": "address",
          "name": "ownerAddress",
          "type": "address"
        },
        {
          "indexed": false,
          "internalType": "bytes",
          "name": "publicKey",
          "type": "bytes"
        }
      ],
      "name": "OperatorRegistration",
      "type": "event"
    },
    {
      "anonymous": false,
      "inputs": [
        {
          "indexed": false,
          "internalType": "uint32",
          "name": "operatorId",
          "type": "uint32"
        },
        {
          "indexed": true,
          "internalType": "address",
          "name": "ownerAddress",
          "type": "address"
        }
      ],
      "name": "OperatorRemoval",
      "type": "event"
    },
    {
      "anonymous": false,
      "inputs": [
        {
          "indexed": false,
          "internalType": "uint32",
          "name": "operatorId",
          "type": "uint32"
        },
        {
          "indexed": true,
          "internalType": "address",
          "name": "ownerAddress",
          "type": "address"
        },
        {
          "indexed": false,
          "internalType": "uint256",
          "name": "blockNumber",
          "type": "uint256"
        },
        {
          "indexed": false,
          "internalType": "uint256",
          "name": "score",
          "type": "uint256"
        }
      ],
      "name": "OperatorScoreUpdate",
      "type": "event"
    },
    {
      "anonymous": false,
      "inputs": [
        {
          "indexed": true,
          "internalType": "address",
          "name": "previousOwner",
          "type": "address"
        },
        {
          "indexed": true,
          "internalType": "address",
          "name": "newOwner",
          "type": "address"
        }
      ],
      "name": "OwnershipTransferred",
      "type": "event"
    },
    {
      "anonymous": false,
      "inputs": [
        {
          "indexed": true,
          "internalType": "address",
          "name": "ownerAddress",
          "type": "address"
        },
        {
          "indexed": false,
          "internalType": "bytes",
          "name": "publicKey",
          "type": "bytes"
        },
        {
          "indexed": false,
          "internalType": "uint32[]",
          "name": "operatorIds",
          "type": "uint32[]"
        },
        {
          "indexed": false,
          "internalType": "bytes[]",
          "name": "sharesPublicKeys",
          "type": "bytes[]"
        },
        {
          "indexed": false,
          "internalType": "bytes[]",
          "name": "encryptedKeys",
          "type": "bytes[]"
        },
        {
          "indexed": false,
          "internalType": "uint256",
          "name": "paidBlockNumber",
          "type": "uint256"
        }
      ],
      "name": "ValidatorRegistration",
      "type": "event"
    },
    {
      "anonymous": false,
      "inputs": [
        {
          "indexed": true,
          "internalType": "address",
          "name": "ownerAddress",
          "type": "address"
        },
        {
          "indexed": false,
          "internalType": "bytes",
          "name": "publicKey",
          "type": "bytes"
        }
      ],
      "name": "ValidatorRemoval",
      "type": "event"
    },
    {
      "inputs": [],
      "name": "owner",
      "outputs": [
        {
          "internalType": "address",
          "name": "",
          "type": "address"
        }
      ],
      "stateMutability": "view",
      "type": "function"
    },
    {
      "inputs": [],
      "name": "renounceOwnership",
      "outputs": [],
      "stateMutability": "nonpayable",
      "type": "function"
    },
    {
      "inputs": [
        {
          "internalType": "address",
          "name": "newOwner",
          "type": "address"
        }
      ],
      "name": "transferOwnership",
      "outputs": [],
      "stateMutability": "nonpayable",
      "type": "function"
    },
    {
      "inputs": [
        {
          "internalType": "contract ISafeStakeRegistry",
          "name": "registryAddress_",
          "type": "address"
        },
        {
          "internalType": "contract IERC20",
          "name": "token_",
          "type": "address"
        },
        {
          "internalType": "uint64",
          "name": "minimumBlocksBeforeLiquidation_",
          "type": "uint64"
        },
        {
          "internalType": "uint64",
          "name": "operatorFee",
          "type": "uint64"
        }
      ],
      "name": "initialize",
      "outputs": [],
      "stateMutability": "nonpayable",
      "type": "function"
    },
    {
      "inputs": [
        {
          "internalType": "string",
          "name": "name",
          "type": "string"
        },
        {
          "internalType": "bytes",
          "name": "publicKey",
          "type": "bytes"
        }
      ],
      "name": "registerOperator",
      "outputs": [
        {
          "internalType": "uint32",
          "name": "operatorId",
          "type": "uint32"
        }
      ],
      "stateMutability": "nonpayable",
      "type": "function"
    },
    {
      "inputs": [
        {
          "internalType": "bytes",
          "name": "publicKey",
          "type": "bytes"
        },
        {
          "internalType": "uint32[]",
          "name": "operatorIds",
          "type": "uint32[]"
        },
        {
          "internalType": "bytes[]",
          "name": "sharesPublicKeys",
          "type": "bytes[]"
        },
        {
          "internalType": "bytes[]",
          "name": "sharesEncrypted",
          "type": "bytes[]"
        },
        {
          "internalType": "uint256",
          "name": "amount",
          "type": "uint256"
        }
      ],
      "name": "registerValidator",
      "outputs": [],
      "stateMutability": "nonpayable",
      "type": "function"
    },
    {
      "inputs": [
        {
          "internalType": "uint32",
          "name": "initiatorId",
          "type": "uint32"
        },
        {
          "internalType": "uint256",
          "name": "tokenAmount",
          "type": "uint256"
        }
      ],
      "name": "initiatorStake",
      "outputs": [],
      "stateMutability": "nonpayable",
      "type": "function"
    },
    {
      "inputs": [
        {
          "internalType": "bytes",
          "name": "publicKey",
          "type": "bytes"
        }
      ],
      "name": "removeValidator",
      "outputs": [],
      "stateMutability": "nonpayable",
      "type": "function"
    },
    {
      "inputs": [
        {
          "internalType": "address",
          "name": "ownerAddress",
          "type": "address"
        },
        {
          "internalType": "uint256",
          "name": "amount",
          "type": "uint256"
        }
      ],
      "name": "deposit",
      "outputs": [],
      "stateMutability": "nonpayable",
      "type": "function"
    },
    {
      "inputs": [
        {
          "internalType": "uint256",
          "name": "amount",
          "type": "uint256"
        }
      ],
      "name": "withdraw",
      "outputs": [],
      "stateMutability": "nonpayable",
      "type": "function"
    },
    {
      "inputs": [
        {
          "internalType": "address",
          "name": "ownerAddress",
          "type": "address"
        }
      ],
      "name": "disableAddress",
      "outputs": [],
      "stateMutability": "nonpayable",
      "type": "function"
    },
    {
      "inputs": [
        {
          "internalType": "uint256",
          "name": "amount",
          "type": "uint256"
        }
      ],
      "name": "reactivateAccount",
      "outputs": [],
      "stateMutability": "nonpayable",
      "type": "function"
    },
    {
      "inputs": [
        {
          "internalType": "uint256",
          "name": "fee",
          "type": "uint256"
        }
      ],
      "name": "updateNetworkFee",
      "outputs": [],
      "stateMutability": "nonpayable",
      "type": "function"
    },
    {
      "inputs": [
        {
          "internalType": "uint256",
          "name": "amount",
          "type": "uint256"
        }
      ],
      "name": "withdrawNetworkEarnings",
      "outputs": [],
      "stateMutability": "nonpayable",
      "type": "function"
    },
    {
      "inputs": [
        {
          "internalType": "address",
          "name": "ownerAddress",
          "type": "address"
        }
      ],
      "name": "getAddressBalance",
      "outputs": [
        {
          "internalType": "uint256",
          "name": "",
          "type": "uint256"
        }
      ],
      "stateMutability": "view",
      "type": "function"
    },
    {
      "inputs": [
        {
          "internalType": "address",
          "name": "ownerAddress",
          "type": "address"
        }
      ],
      "name": "addressNetworkFee",
      "outputs": [
        {
          "internalType": "uint256",
          "name": "",
          "type": "uint256"
        }
      ],
      "stateMutability": "view",
      "type": "function"
    },
    {
      "inputs": [
        {
          "internalType": "address",
          "name": "ownerAddress",
          "type": "address"
        }
      ],
      "name": "getAddressBurnRate",
      "outputs": [
        {
          "internalType": "uint256",
          "name": "",
          "type": "uint256"
        }
      ],
      "stateMutability": "view",
      "type": "function"
    },
    {
      "inputs": [
        {
          "internalType": "address",
          "name": "ownerAddress",
          "type": "address"
        }
      ],
      "name": "isLiquidatable",
      "outputs": [
        {
          "internalType": "bool",
          "name": "",
          "type": "bool"
        }
      ],
      "stateMutability": "view",
      "type": "function"
    },
    {
      "inputs": [],
      "name": "getNetworkFee",
      "outputs": [
        {
          "internalType": "uint256",
          "name": "",
          "type": "uint256"
        }
      ],
      "stateMutability": "view",
      "type": "function"
    },
    {
      "inputs": [],
      "name": "getMinimumBlocksValidatorShouldPay",
      "outputs": [
        {
          "internalType": "uint256",
          "name": "",
          "type": "uint256"
        }
      ],
      "stateMutability": "view",
      "type": "function"
    },
    {
      "inputs": [
        {
          "internalType": "address",
          "name": "account",
          "type": "address"
        },
        {
          "internalType": "uint32[]",
          "name": "operatorIds",
          "type": "uint32[]"
        },
        {
          "internalType": "uint32[]",
          "name": "performances",
          "type": "uint32[]"
        }
      ],
      "name": "accountClaimFee",
      "outputs": [],
      "stateMutability": "nonpayable",
      "type": "function"
    },
    {
      "inputs": [],
      "name": "version",
      "outputs": [
        {
          "internalType": "uint32",
          "name": "",
          "type": "uint32"
        }
      ],
      "stateMutability": "pure",
      "type": "function"
    },
    {
      "inputs": [
        {
          "internalType": "address",
          "name": "ownerAddress",
          "type": "address"
        }
      ],
      "name": "getOperatorsInUseByOwnerAddress",
      "outputs": [
        {
          "internalType": "uint32[]",
          "name": "",
          "type": "uint32[]"
        }
      ],
      "stateMutability": "view",
      "type": "function"
    },
    {
      "inputs": [
        {
          "internalType": "uint32",
          "name": "operatorId",
          "type": "uint32"
        }
      ],
      "name": "getOperatorClaimBlock",
      "outputs": [
        {
          "internalType": "uint256",
          "name": "",
          "type": "uint256"
        }
      ],
      "stateMutability": "view",
      "type": "function"
    },
    {
      "inputs": [
        {
          "internalType": "address",
          "name": "account",
          "type": "address"
        }
      ],
      "name": "getAccountPaidBlockNumber",
      "outputs": [
        {
          "internalType": "uint256",
          "name": "",
          "type": "uint256"
        }
      ],
      "stateMutability": "view",
      "type": "function"
    }
  ],
  "bytecode": "0x608060405234801561001057600080fd5b50615c4a80620000216000396000f3fe608060405234801561001057600080fd5b50600436106101735760003560e01c806354fd4d50116100de5780639b4400dd11610097578063e40cb19d11610071578063e40cb19d14610444578063ead1bc5914610460578063f2fde38b14610490578063fc043830146104ac57610173565b80639b4400dd146103f0578063b2f569c51461040c578063d22317411461042857610173565b806354fd4d501461032c57806356d9a2cc1461034a57806357e2b0e21461037a578063715018a61461039857806385f79d61146103a25780638da5cb5b146103d257610173565b80632e1a7d4d116101305780632e1a7d4d1461025c578063350467221461027857806340a42218146102a857806347e7ef24146102c4578063492e8410146102e05780635036258b1461031057610173565b8063042e02cf146101785780630ec62fe9146101a85780631f1f9fd5146101c45780632563c64e146101e057806327bfcabd146102105780632afe872f14610240575b600080fd5b610192600480360381019061018d919061445a565b6104ca565b60405161019f91906144a2565b60405180910390f35b6101c260048036038101906101bd9190614522565b6104dc565b005b6101de60048036038101906101d991906145ed565b6107da565b005b6101fa60048036038101906101f5919061445a565b6108ab565b6040516102079190614629565b60405180910390f35b61022a6004803603810190610225919061445a565b6108bd565b6040516102379190614712565b60405180910390f35b61025a600480360381019061025591906145ed565b610980565b005b610276600480360381019061027191906145ed565b610a9f565b005b610292600480360381019061028d919061445a565b610b2d565b60405161029f9190614629565b60405180910390f35b6102c260048036038101906102bd9190614760565b610b3f565b005b6102de60048036038101906102d991906147a0565b610e52565b005b6102fa60048036038101906102f591906147e0565b610e60565b6040516103079190614629565b60405180910390f35b61032a6004803603810190610325919061445a565b610e8c565b005b610334610fbf565b604051610341919061481c565b60405180910390f35b610364600480360381019061035f919061445a565b610fc9565b6040516103719190614629565b60405180910390f35b610382610fdb565b60405161038f9190614629565b60405180910390f35b6103a0611003565b005b6103bc60048036038101906103b791906148e3565b61108b565b6040516103c9919061481c565b60405180910390f35b6103da611252565b6040516103e79190614973565b60405180910390f35b61040a60048036038101906104059190614a4a565b61127c565b005b61042660048036038101906104219190614ab1565b611318565b005b610442600480360381019061043d91906145ed565b611393565b005b61045e60048036038101906104599190614b54565b611558565b005b61047a6004803603810190610475919061445a565b611586565b6040516104879190614629565b60405180910390f35b6104aa60048036038101906104a5919061445a565b6115d2565b005b6104b46116c9565b6040516104c19190614629565b60405180910390f35b60006104d5826116d3565b9050919050565b6104e461173e565b73ffffffffffffffffffffffffffffffffffffffff16610502611252565b73ffffffffffffffffffffffffffffffffffffffff1614610558576040517f08c379a000000000000000000000000000000000000000000000000000000000815260040161054f90614cad565b60405180910390fd5b6000808585905067ffffffffffffffff81111561057857610577614ccd565b5b6040519080825280602002602001820160405280156105a65781602001602082028036833780820191505090505b50905060005b868690508163ffffffff1610156106ec576105f387878363ffffffff168181106105d9576105d8614cfc565b5b90506020020160208101906105ee91906147e0565b611746565b606d600088888463ffffffff168181106106105761060f614cfc565b5b905060200201602081019061062591906147e0565b63ffffffff1663ffffffff16815260200190815260200160002060010154828263ffffffff168151811061065c5761065b614cfc565b5b6020026020010181815250506106cc87878363ffffffff1681811061068457610683614cfc565b5b905060200201602081019061069991906147e0565b86868463ffffffff168181106106b2576106b1614cfc565b5b90506020020160208101906106c791906147e0565b611787565b836106d79190614d5a565b925080806106e490614d8e565b9150506105ac565b50606660009054906101000a900473ffffffffffffffffffffffffffffffffffffffff1673ffffffffffffffffffffffffffffffffffffffff1663a9059cbb88846040518363ffffffff1660e01b815260040161074a929190614dba565b6020604051808303816000875af1158015610769573d6000803e3d6000fd5b505050506040513d601f19601f8201168201806040525081019061078d9190614e0f565b507fbc105ad2a3538cfd8570bac1d1d6026e8a305ddeec7d2cd019787867166569b9868686868686436040516107c99796959493929190614f85565b60405180910390a150505050505050565b6107e261173e565b73ffffffffffffffffffffffffffffffffffffffff16610800611252565b73ffffffffffffffffffffffffffffffffffffffff1614610856576040517f08c379a000000000000000000000000000000000000000000000000000000000815260040161084d90614cad565b60405180910390fd5b7fb12de2022a8c992455195d1cdfe49c528c96a325adc99e12b6eab59d56654ea260675482604051610889929190614ff1565b60405180910390a16108996117ef565b6108a1611806565b8060678190555050565b60006108b68261181d565b9050919050565b6060607060008373ffffffffffffffffffffffffffffffffffffffff1673ffffffffffffffffffffffffffffffffffffffff16815260200190815260200160002080548060200260200160405190810160405280929190818152602001828054801561097457602002820191906000526020600020906000905b82829054906101000a900463ffffffff1663ffffffff16815260200190600401906020826003010492830192600103820291508084116109375790505b50505050509050919050565b606e60003373ffffffffffffffffffffffffffffffffffffffff1673ffffffffffffffffffffffffffffffffffffffff16815260200190815260200160002060050160049054906101000a900460ff16610a06576040517f44fab0e000000000000000000000000000000000000000000000000000000000815260040160405180910390fd5b610a1033826119ee565b610a1933611b5c565b610a22336116d3565b15610a59576040517fad3a8b9e00000000000000000000000000000000000000000000000000000000815260040160405180910390fd5b3373ffffffffffffffffffffffffffffffffffffffff167fd2cad6abfa380a10a84c0e561544f8deb6eea7dd29a411fa306f902aa6ac5eca60405160405180910390a250565b80610aa933611e27565b1015610ae1576040517fad3a8b9e00000000000000000000000000000000000000000000000000000000815260040160405180910390fd5b610aea81611f2b565b610af3336116d3565b15610b2a576040517fad3a8b9e00000000000000000000000000000000000000000000000000000000815260040160405180910390fd5b50565b6000610b3882611e27565b9050919050565b606560009054906101000a900473ffffffffffffffffffffffffffffffffffffffff1673ffffffffffffffffffffffffffffffffffffffff1663981ef5e433846040518363ffffffff1660e01b8152600401610b9c92919061501a565b600060405180830381600087803b158015610bb657600080fd5b505af1158015610bca573d6000803e3d6000fd5b50505050610bd66117ef565b610bdf3361207f565b6000606e60003373ffffffffffffffffffffffffffffffffffffffff1673ffffffffffffffffffffffffffffffffffffffff16815260200190815260200160002090504381600601819055508060050160049054906101000a900460ff16610c805780600501600081819054906101000a900463ffffffff16610c6190614d8e565b91906101000a81548163ffffffff021916908363ffffffff1602179055505b6000606560009054906101000a900473ffffffffffffffffffffffffffffffffffffffff1673ffffffffffffffffffffffffffffffffffffffff1663b6aae36a856040518263ffffffff1660e01b8152600401610cdd919061481c565b600060405180830381865afa158015610cfa573d6000803e3d6000fd5b505050506040513d6000823e3d601f19601f82011682018060405250810190610d239190615178565b90506000600190505b81518163ffffffff161015610df8576000828263ffffffff1681518110610d5657610d55614cfc565b5b60200260200101519050610d6981611746565b8360050160049054906101000a900460ff16610ddc57606d60008263ffffffff1663ffffffff168152602001908152602001600020600501600081819054906101000a900463ffffffff16610dbd90614d8e565b91906101000a81548163ffffffff021916908363ffffffff1602179055505b610de6338261211f565b5080610df190614d8e565b9050610d2c565b50610e0333846119ee565b610e0c336116d3565b15610e43576040517fad3a8b9e00000000000000000000000000000000000000000000000000000000815260040160405180910390fd5b610e4c3361212f565b50505050565b610e5c82826119ee565b5050565b6000606d60008363ffffffff1663ffffffff168152602001908152602001600020600101549050919050565b610e9461173e565b73ffffffffffffffffffffffffffffffffffffffff16610eb2611252565b73ffffffffffffffffffffffffffffffffffffffff1614610f08576040517f08c379a0000000000000000000000000000000000000000000000000000000008152600401610eff90614cad565b60405180910390fd5b606e60008273ffffffffffffffffffffffffffffffffffffffff1673ffffffffffffffffffffffffffffffffffffffff16815260200190815260200160002060050160049054906101000a900460ff16158015610f6a5750610f69816121fc565b5b15610fbc57610f7881612243565b8073ffffffffffffffffffffffffffffffffffffffff167fbcdf297ed7902fea73305fee14ec4d4704e2588ceffffef11e2543ef396cd79860405160405180910390a25b50565b6000614e20905090565b6000610fd48261250e565b9050919050565b6000606660149054906101000a900467ffffffffffffffff1667ffffffffffffffff16905090565b61100b61173e565b73ffffffffffffffffffffffffffffffffffffffff16611029611252565b73ffffffffffffffffffffffffffffffffffffffff161461107f576040517f08c379a000000000000000000000000000000000000000000000000000000000815260040161107690614cad565b60405180910390fd5b611089600061261c565b565b6000606560009054906101000a900473ffffffffffffffffffffffffffffffffffffffff1673ffffffffffffffffffffffffffffffffffffffff16631940d38786863387876040518663ffffffff1660e01b81526004016110f095949392919061523b565b6020604051808303816000875af115801561110f573d6000803e3d6000fd5b505050506040513d601f19601f820116820180604052508101906111339190615284565b90506040518060c001604052804381526020014381526020016000815260200160008152602001438152602001600063ffffffff16815250606d60008363ffffffff1663ffffffff168152602001908152602001600020600082015181600001556020820151816001015560408201518160020155606082015181600301556080820151816004015560a08201518160050160006101000a81548163ffffffff021916908363ffffffff1602179055509050506111ef3361212f565b3373ffffffffffffffffffffffffffffffffffffffff168163ffffffff167fa837adf7db87879179d994c48f4275ae84c6ea7ba2ff625b1e121b5a6f42317d8787878760405161124294939291906152b1565b60405180910390a3949350505050565b6000603360009054906101000a900473ffffffffffffffffffffffffffffffffffffffff16905090565b600061128860016126e2565b905080156112ac576001600060016101000a81548160ff0219169083151502179055505b6112b8858585856127d2565b80156113115760008060016101000a81548160ff0219169083151502179055507f7f26b83ff96e1f2b6a682f133852f6798a09c465da95921460cefb38474024986001604051611308919061533e565b60405180910390a15b5050505050565b81816113248282612876565b61132c6117ef565b6113353361207f565b6113833385858080601f016020809104026020016040519081016040528093929190818152602001838380828437600081840152601f19601f82011690508083019250505050505050612a29565b61138c33611e27565b5050505050565b61139b61173e565b73ffffffffffffffffffffffffffffffffffffffff166113b9611252565b73ffffffffffffffffffffffffffffffffffffffff161461140f576040517f08c379a000000000000000000000000000000000000000000000000000000000815260040161140690614cad565b60405180910390fd5b611417612bec565b811115611450576040517fad3a8b9e00000000000000000000000000000000000000000000000000000000815260040160405180910390fd5b61145981612c08565b67ffffffffffffffff16606c60008282546114749190614d5a565b92505081905550606660009054906101000a900473ffffffffffffffffffffffffffffffffffffffff1673ffffffffffffffffffffffffffffffffffffffff1663a9059cbb33836040518363ffffffff1660e01b81526004016114d8929190614dba565b6020604051808303816000875af11580156114f7573d6000803e3d6000fd5b505050506040513d601f19601f8201168201806040525081019061151b9190614e0f565b507f5564de4b05294182a45c60836e9c0ba86d5c351cf1c0db79e4fe5dd04786de1a813360405161154d929190615359565b60405180910390a150565b6115606117ef565b6115693361207f565b61157b338a8a8a8a8a8a8a8a8a612c84565b505050505050505050565b6000606e60008373ffffffffffffffffffffffffffffffffffffffff1673ffffffffffffffffffffffffffffffffffffffff168152602001908152602001600020600601549050919050565b6115da61173e565b73ffffffffffffffffffffffffffffffffffffffff166115f8611252565b73ffffffffffffffffffffffffffffffffffffffff161461164e576040517f08c379a000000000000000000000000000000000000000000000000000000000815260040161164590614cad565b60405180910390fd5b600073ffffffffffffffffffffffffffffffffffffffff168173ffffffffffffffffffffffffffffffffffffffff16036116bd576040517f08c379a00000000000000000000000000000000000000000000000000000000081526004016116b4906153f4565b60405180910390fd5b6116c68161261c565b50565b6000606754905090565b6000606e60008373ffffffffffffffffffffffffffffffffffffffff1673ffffffffffffffffffffffffffffffffffffffff16815260200190815260200160002060050160049054906101000a900460ff161580156117375750611736826121fc565b5b9050919050565b600033905090565b6000606d60008363ffffffff1663ffffffff168152602001908152602001600020905061177282612f6d565b81600201819055504381600001819055505050565b600080606d60008563ffffffff1663ffffffff1681526020019081526020016000209050600060648463ffffffff1683600201546117c59190615414565b6117cf9190615485565b905060008260020181905550438260010181905550809250505092915050565b6117f7612fe4565b606a8190555043606b81905550565b61180e6130b9565b60688190555043606981905550565b6000606e60008373ffffffffffffffffffffffffffffffffffffffff1673ffffffffffffffffffffffffffffffffffffffff16815260200190815260200160002060050160049054906101000a900460ff161561187d57600090506119e9565b60005b607060008473ffffffffffffffffffffffffffffffffffffffff1673ffffffffffffffffffffffffffffffffffffffff168152602001908152602001600020805490508163ffffffff1610156119745761195683607060008673ffffffffffffffffffffffffffffffffffffffff1673ffffffffffffffffffffffffffffffffffffffff1681526020019081526020016000208363ffffffff168154811061192b5761192a614cfc565b5b90600052602060002090600891828204019190066004029054906101000a900463ffffffff166130e8565b826119619190614d5a565b91508061196d90614d8e565b9050611880565b50606754606e60008473ffffffffffffffffffffffffffffffffffffffff1673ffffffffffffffffffffffffffffffffffffffff16815260200190815260200160002060050160009054906101000a900463ffffffff1663ffffffff166119db9190615414565b816119e69190614d5a565b90505b919050565b606660009054906101000a900473ffffffffffffffffffffffffffffffffffffffff1673ffffffffffffffffffffffffffffffffffffffff166323b872dd3330846040518463ffffffff1660e01b8152600401611a4d939291906154b6565b6020604051808303816000875af1158015611a6c573d6000803e3d6000fd5b505050506040513d601f19601f82011682018060405250810190611a909190614e0f565b5080606e60008473ffffffffffffffffffffffffffffffffffffffff1673ffffffffffffffffffffffffffffffffffffffff1681526020019081526020016000206000016000828254611ae39190614d5a565b92505081905550611af38261212f565b3373ffffffffffffffffffffffffffffffffffffffff168273ffffffffffffffffffffffffffffffffffffffff167fb91f78378ad1ce7b5c12301896eac25f50d4603d0301406595e6fdfa6ffd641983604051611b509190614629565b60405180910390a35050565b611b646117ef565b611b6d8161207f565b60005b607060008373ffffffffffffffffffffffffffffffffffffffff1673ffffffffffffffffffffffffffffffffffffffff168152602001908152602001600020805490508163ffffffff161015611d3b576000607060008473ffffffffffffffffffffffffffffffffffffffff1673ffffffffffffffffffffffffffffffffffffffff1681526020019081526020016000208263ffffffff1681548110611c1957611c18614cfc565b5b90600052602060002090600891828204019190066004029054906101000a900463ffffffff169050611c4a81611746565b6000606f60008573ffffffffffffffffffffffffffffffffffffffff1673ffffffffffffffffffffffffffffffffffffffff16815260200190815260200160002060008363ffffffff1663ffffffff1681526020019081526020016000209050611cb581858461320e565b8060020160009054906101000a900463ffffffff16606d60008463ffffffff1663ffffffff16815260200190815260200160002060050160008282829054906101000a900463ffffffff16611d0a91906154ed565b92506101000a81548163ffffffff021916908363ffffffff160217905550505080611d3490614d8e565b9050611b70565b50606560009054906101000a900473ffffffffffffffffffffffffffffffffffffffff1673ffffffffffffffffffffffffffffffffffffffff166345413bf4826040518263ffffffff1660e01b8152600401611d979190614973565b600060405180830381600087803b158015611db157600080fd5b505af1158015611dc5573d6000803e3d6000fd5b505050506000606e60008373ffffffffffffffffffffffffffffffffffffffff1673ffffffffffffffffffffffffffffffffffffffff16815260200190815260200160002060050160046101000a81548160ff02191690831515021790555050565b600080611e3383613237565b606e60008573ffffffffffffffffffffffffffffffffffffffff1673ffffffffffffffffffffffffffffffffffffffff16815260200190815260200160002060000154611e809190614d5a565b90506000611e8d84613347565b606e60008673ffffffffffffffffffffffffffffffffffffffff1673ffffffffffffffffffffffffffffffffffffffff16815260200190815260200160002060010154611eda9190614d5a565b905080821015611f16576040517f5e13ed3100000000000000000000000000000000000000000000000000000000815260040160405180910390fd5b8082611f229190615525565b92505050919050565b80606e60003373ffffffffffffffffffffffffffffffffffffffff1673ffffffffffffffffffffffffffffffffffffffff1681526020019081526020016000206001016000828254611f7d9190614d5a565b92505081905550606660009054906101000a900473ffffffffffffffffffffffffffffffffffffffff1673ffffffffffffffffffffffffffffffffffffffff1663a9059cbb33836040518363ffffffff1660e01b8152600401611fe1929190614dba565b6020604051808303816000875af1158015612000573d6000803e3d6000fd5b505050506040513d601f19601f820116820180604052508101906120249190614e0f565b5061202e3361212f565b3373ffffffffffffffffffffffffffffffffffffffff167f233f5518707099d7be7f52de7c8094100dae65f0c896a762ebcc5900370d66bc826040516120749190614629565b60405180910390a250565b6120888161250e565b606e60008373ffffffffffffffffffffffffffffffffffffffff1673ffffffffffffffffffffffffffffffffffffffff168152602001908152602001600020600301819055506120d66130b9565b606e60008373ffffffffffffffffffffffffffffffffffffffff1673ffffffffffffffffffffffffffffffffffffffff1681526020019081526020016000206004018190555050565b61212b82826001613581565b5050565b600061213a8261181d565b0361218b5743606e60008373ffffffffffffffffffffffffffffffffffffffff1673ffffffffffffffffffffffffffffffffffffffff168152602001908152602001600020600601819055506121f9565b6121948161181d565b61219d82611e27565b6121a79190615485565b436121b29190614d5a565b606e60008373ffffffffffffffffffffffffffffffffffffffff1673ffffffffffffffffffffffffffffffffffffffff168152602001908152602001600020600601819055505b50565b60006122078261181d565b606660149054906101000a900467ffffffffffffffff1667ffffffffffffffff166122329190615414565b61223b83611e27565b109050919050565b61224b6117ef565b6122548161207f565b60005b607060008373ffffffffffffffffffffffffffffffffffffffff1673ffffffffffffffffffffffffffffffffffffffff168152602001908152602001600020805490508163ffffffff161015612422576000607060008473ffffffffffffffffffffffffffffffffffffffff1673ffffffffffffffffffffffffffffffffffffffff1681526020019081526020016000208263ffffffff1681548110612300576122ff614cfc565b5b90600052602060002090600891828204019190066004029054906101000a900463ffffffff16905061233181611746565b6000606f60008573ffffffffffffffffffffffffffffffffffffffff1673ffffffffffffffffffffffffffffffffffffffff16815260200190815260200160002060008363ffffffff1663ffffffff168152602001908152602001600020905061239c81858461320e565b8060020160009054906101000a900463ffffffff16606d60008463ffffffff1663ffffffff16815260200190815260200160002060050160008282829054906101000a900463ffffffff166123f19190615559565b92506101000a81548163ffffffff021916908363ffffffff16021790555050508061241b90614d8e565b9050612257565b50606560009054906101000a900473ffffffffffffffffffffffffffffffffffffffff1673ffffffffffffffffffffffffffffffffffffffff166327467a18826040518263ffffffff1660e01b815260040161247e9190614973565b600060405180830381600087803b15801561249857600080fd5b505af11580156124ac573d6000803e3d6000fd5b505050506001606e60008373ffffffffffffffffffffffffffffffffffffffff1673ffffffffffffffffffffffffffffffffffffffff16815260200190815260200160002060050160046101000a81548160ff02191690831515021790555050565b6000606e60008373ffffffffffffffffffffffffffffffffffffffff1673ffffffffffffffffffffffffffffffffffffffff16815260200190815260200160002060050160009054906101000a900463ffffffff1663ffffffff16606e60008473ffffffffffffffffffffffffffffffffffffffff1673ffffffffffffffffffffffffffffffffffffffff168152602001908152602001600020600401546125b46130b9565b6125be9190615525565b6125c89190615414565b606e60008473ffffffffffffffffffffffffffffffffffffffff1673ffffffffffffffffffffffffffffffffffffffff168152602001908152602001600020600301546126159190614d5a565b9050919050565b6000603360009054906101000a900473ffffffffffffffffffffffffffffffffffffffff16905081603360006101000a81548173ffffffffffffffffffffffffffffffffffffffff021916908373ffffffffffffffffffffffffffffffffffffffff1602179055508173ffffffffffffffffffffffffffffffffffffffff168173ffffffffffffffffffffffffffffffffffffffff167f8be0079c531659141344cd1fd0a4f28419497f9722a3daafe3b4186f6b6457e060405160405180910390a35050565b60008060019054906101000a900460ff16156127595760018260ff16148015612711575061270f30613d25565b155b612750576040517f08c379a000000000000000000000000000000000000000000000000000000000815260040161274790615603565b60405180910390fd5b600090506127cd565b8160ff1660008054906101000a900460ff1660ff16106127ae576040517f08c379a00000000000000000000000000000000000000000000000000000000081526004016127a590615603565b60405180910390fd5b816000806101000a81548160ff021916908360ff160217905550600190505b919050565b60006127de60016126e2565b90508015612802576001600060016101000a81548160ff0219169083151502179055505b61280a613d48565b61281685858585613da9565b801561286f5760008060016101000a81548160ff0219169083151502179055507f7f26b83ff96e1f2b6a682f133852f6798a09c465da95921460cefb38474024986001604051612866919061533e565b60405180910390a15b5050505050565b6000606560009054906101000a900473ffffffffffffffffffffffffffffffffffffffff1673ffffffffffffffffffffffffffffffffffffffff1663c87b303884846040518363ffffffff1660e01b81526004016128d5929190615623565b602060405180830381865afa1580156128f2573d6000803e3d6000fd5b505050506040513d601f19601f82011682018060405250810190612916919061565c565b9050600073ffffffffffffffffffffffffffffffffffffffff168173ffffffffffffffffffffffffffffffffffffffff160361297e576040517f8791c3b400000000000000000000000000000000000000000000000000000000815260040160405180910390fd5b8073ffffffffffffffffffffffffffffffffffffffff163373ffffffffffffffffffffffffffffffffffffffff16141580156129ed57506129bd611252565b73ffffffffffffffffffffffffffffffffffffffff163373ffffffffffffffffffffffffffffffffffffffff1614155b15612a24576040517f11ecf9f200000000000000000000000000000000000000000000000000000000815260040160405180910390fd5b505050565b612a338282613f4f565b606560009054906101000a900473ffffffffffffffffffffffffffffffffffffffff1673ffffffffffffffffffffffffffffffffffffffff1663b2f569c5826040518263ffffffff1660e01b8152600401612a8e91906156f7565b600060405180830381600087803b158015612aa857600080fd5b505af1158015612abc573d6000803e3d6000fd5b50505050606e60008373ffffffffffffffffffffffffffffffffffffffff1673ffffffffffffffffffffffffffffffffffffffff16815260200190815260200160002060050160049054906101000a900460ff16612b9157606e60008373ffffffffffffffffffffffffffffffffffffffff1673ffffffffffffffffffffffffffffffffffffffff168152602001908152602001600020600501600081819054906101000a900463ffffffff16612b7290615719565b91906101000a81548163ffffffff021916908363ffffffff1602179055505b612b9a8261212f565b8173ffffffffffffffffffffffffffffffffffffffff167f671ada3835502b9498e4a3116c344293ec3a4ef43f90bb42283d7d66a3f772b282604051612be091906156f7565b60405180910390a25050565b6000606c54612bf9612fe4565b612c039190615525565b905090565b6000806298968067ffffffffffffffff1683612c249190615742565b14612c64576040517f08c379a0000000000000000000000000000000000000000000000000000000008152600401612c5b906157e5565b60405180910390fd5b6298968067ffffffffffffffff1682612c7d9190615485565b9050919050565b606560009054906101000a900473ffffffffffffffffffffffffffffffffffffffff1673ffffffffffffffffffffffffffffffffffffffff16639b4ddb5d8b8b8b8b8b8b8b8b8b6040518a63ffffffff1660e01b8152600401612cef99989796959493929190615969565b600060405180830381600087803b158015612d0957600080fd5b505af1158015612d1d573d6000803e3d6000fd5b505050506000606e60008c73ffffffffffffffffffffffffffffffffffffffff1673ffffffffffffffffffffffffffffffffffffffff16815260200190815260200160002090504381600601819055508060050160049054906101000a900460ff16612dc25780600501600081819054906101000a900463ffffffff16612da390614d8e565b91906101000a81548163ffffffff021916908363ffffffff1602179055505b60005b888890508163ffffffff161015612ea057600089898363ffffffff16818110612df157612df0614cfc565b5b9050602002016020810190612e0691906147e0565b9050612e1181611746565b8260050160049054906101000a900460ff16612e8457606d60008263ffffffff1663ffffffff168152602001908152602001600020600501600081819054906101000a900463ffffffff16612e6590614d8e565b91906101000a81548163ffffffff021916908363ffffffff1602179055505b612e8e8d8261211f565b5080612e9990614d8e565b9050612dc5565b506000821115612eb557612eb433836119ee565b5b612ebe8b6116d3565b15612ef5576040517fad3a8b9e00000000000000000000000000000000000000000000000000000000815260040160405180910390fd5b612efe8b61212f565b8a73ffffffffffffffffffffffffffffffffffffffff167f610eb3c1fafe229af536e91b7e00486902d54d54d8d3f0de283a467ac8f985bf8b8b8b8b8b8b8b8b8a60060154604051612f58999897969594939291906159e0565b60405180910390a25050505050505050505050565b6000612f7882614107565b606d60008463ffffffff1663ffffffff1681526020019081526020016000206000015443612fa69190615525565b612fb09190615414565b606d60008463ffffffff1663ffffffff16815260200190815260200160002060020154612fdd9190614d5a565b9050919050565b600080606560009054906101000a900473ffffffffffffffffffffffffffffffffffffffff1673ffffffffffffffffffffffffffffffffffffffff16632340e8d36040518163ffffffff1660e01b8152600401602060405180830381865afa158015613054573d6000803e3d6000fd5b505050506040513d601f19601f820116820180604052508101906130789190615284565b63ffffffff16606754606b544361308f9190615525565b6130999190615414565b6130a39190615414565b606a546130b09190614d5a565b90508091505090565b6000606754606954436130cc9190615525565b6130d69190615414565b6068546130e39190614d5a565b905090565b6000606f60008473ffffffffffffffffffffffffffffffffffffffff1673ffffffffffffffffffffffffffffffffffffffff16815260200190815260200160002060008363ffffffff1663ffffffff16815260200190815260200160002060020160009054906101000a900463ffffffff1663ffffffff16606560009054906101000a900473ffffffffffffffffffffffffffffffffffffffff1673ffffffffffffffffffffffffffffffffffffffff1663f8f08d7f846040518263ffffffff1660e01b81526004016131bb919061481c565b602060405180830381865afa1580156131d8573d6000803e3d6000fd5b505050506040513d601f19601f820116820180604052508101906131fc9190615a6c565b6132069190615414565b905092915050565b6132198383836141ef565b836001018190555061322a816142a2565b8360000181905550505050565b600080600090506000606560009054906101000a900473ffffffffffffffffffffffffffffffffffffffff1673ffffffffffffffffffffffffffffffffffffffff16630dc1eeff856040518263ffffffff1660e01b815260040161329b9190614973565b600060405180830381865afa1580156132b8573d6000803e3d6000fd5b505050506040513d6000823e3d601f19601f820116820180604052508101906132e19190615178565b905060005b81518163ffffffff16101561333c5761331e828263ffffffff168151811061331157613310614cfc565b5b6020026020010151612f6d565b836133299190614d5a565b92508061333590614d8e565b90506132e6565b508192505050919050565b6000806133538361250e565b606e60008573ffffffffffffffffffffffffffffffffffffffff1673ffffffffffffffffffffffffffffffffffffffff168152602001908152602001600020600201546133a09190614d5a565b905060005b607060008573ffffffffffffffffffffffffffffffffffffffff1673ffffffffffffffffffffffffffffffffffffffff168152602001908152602001600020805490508163ffffffff161015613577576000606f60008673ffffffffffffffffffffffffffffffffffffffff1673ffffffffffffffffffffffffffffffffffffffff1681526020019081526020016000206000607060008873ffffffffffffffffffffffffffffffffffffffff1673ffffffffffffffffffffffffffffffffffffffff1681526020019081526020016000208463ffffffff168154811061348f5761348e614cfc565b5b90600052602060002090600891828204019190066004029054906101000a900463ffffffff1663ffffffff1663ffffffff16815260200190815260200160002090506135588186607060008973ffffffffffffffffffffffffffffffffffffffff1673ffffffffffffffffffffffffffffffffffffffff1681526020019081526020016000208563ffffffff168154811061352d5761352c614cfc565b5b90600052602060002090600891828204019190066004029054906101000a900463ffffffff166141ef565b836135639190614d5a565b9250508061357090614d8e565b90506133a5565b5080915050919050565b6000606f60008573ffffffffffffffffffffffffffffffffffffffff1673ffffffffffffffffffffffffffffffffffffffff16815260200190815260200160002060008463ffffffff1663ffffffff16815260200190815260200160002090508060020160089054906101000a900460ff1615613aaf5761360381858561320e565b811561364c5780600201600081819054906101000a900463ffffffff1661362990614d8e565b91906101000a81548163ffffffff021916908363ffffffff160217905550613aaa565b600081600201600081819054906101000a900463ffffffff1661366e90615719565b91906101000a81548163ffffffff021916908363ffffffff160217905563ffffffff1603613aa9578060010154606e60008673ffffffffffffffffffffffffffffffffffffffff1673ffffffffffffffffffffffffffffffffffffffff16815260200190815260200160002060020160008282546136ec9190614d5a565b92505081905550607060008573ffffffffffffffffffffffffffffffffffffffff1673ffffffffffffffffffffffffffffffffffffffff1681526020019081526020016000206001607060008773ffffffffffffffffffffffffffffffffffffffff1673ffffffffffffffffffffffffffffffffffffffff168152602001908152602001600020805490506137819190615525565b8154811061379257613791614cfc565b5b90600052602060002090600891828204019190066004029054906101000a900463ffffffff16607060008673ffffffffffffffffffffffffffffffffffffffff1673ffffffffffffffffffffffffffffffffffffffff1681526020019081526020016000208260020160049054906101000a900463ffffffff1663ffffffff168154811061382357613822614cfc565b5b90600052602060002090600891828204019190066004026101000a81548163ffffffff021916908363ffffffff1602179055508060020160049054906101000a900463ffffffff16606f60008673ffffffffffffffffffffffffffffffffffffffff1673ffffffffffffffffffffffffffffffffffffffff1681526020019081526020016000206000607060008873ffffffffffffffffffffffffffffffffffffffff1673ffffffffffffffffffffffffffffffffffffffff1681526020019081526020016000208460020160049054906101000a900463ffffffff1663ffffffff168154811061391757613916614cfc565b5b90600052602060002090600891828204019190066004029054906101000a900463ffffffff1663ffffffff1663ffffffff16815260200190815260200160002060020160046101000a81548163ffffffff021916908363ffffffff160217905550607060008573ffffffffffffffffffffffffffffffffffffffff1673ffffffffffffffffffffffffffffffffffffffff1681526020019081526020016000208054806139c7576139c6615a99565b5b60019003818190600052602060002090600891828204019190066004026101000a81549063ffffffff02191690559055606f60008573ffffffffffffffffffffffffffffffffffffffff1673ffffffffffffffffffffffffffffffffffffffff16815260200190815260200160002060008463ffffffff1663ffffffff16815260200190815260200160002060008082016000905560018201600090556002820160006101000a81549063ffffffff02191690556002820160046101000a81549063ffffffff02191690556002820160086101000a81549060ff021916905550505b5b613d1f565b603261ffff16607060008673ffffffffffffffffffffffffffffffffffffffff1673ffffffffffffffffffffffffffffffffffffffff168152602001908152602001600020805490501115613b30576040517f9722180300000000000000000000000000000000000000000000000000000000815260040160405180910390fd5b6040518060a00160405280613b44856142a2565b815260200160008152602001600163ffffffff168152602001607060008773ffffffffffffffffffffffffffffffffffffffff1673ffffffffffffffffffffffffffffffffffffffff1681526020019081526020016000208054905063ffffffff16815260200160011515815250606f60008673ffffffffffffffffffffffffffffffffffffffff1673ffffffffffffffffffffffffffffffffffffffff16815260200190815260200160002060008563ffffffff1663ffffffff168152602001908152602001600020600082015181600001556020820151816001015560408201518160020160006101000a81548163ffffffff021916908363ffffffff16021790555060608201518160020160046101000a81548163ffffffff021916908363ffffffff16021790555060808201518160020160086101000a81548160ff021916908315150217905550905050607060008573ffffffffffffffffffffffffffffffffffffffff1673ffffffffffffffffffffffffffffffffffffffff1681526020019081526020016000208390806001815401808255809150506001900390600052602060002090600891828204019190066004029091909190916101000a81548163ffffffff021916908363ffffffff1602179055505b50505050565b6000808273ffffffffffffffffffffffffffffffffffffffff163b119050919050565b600060019054906101000a900460ff16613d97576040517f08c379a0000000000000000000000000000000000000000000000000000000008152600401613d8e90615b3a565b60405180910390fd5b613da7613da261173e565b61261c565b565b600060019054906101000a900460ff16613df8576040517f08c379a0000000000000000000000000000000000000000000000000000000008152600401613def90615b3a565b60405180910390fd5b83606560006101000a81548173ffffffffffffffffffffffffffffffffffffffff021916908373ffffffffffffffffffffffffffffffffffffffff16021790555082606660006101000a81548173ffffffffffffffffffffffffffffffffffffffff021916908373ffffffffffffffffffffffffffffffffffffffff160217905550613e83826143ac565b606560009054906101000a900473ffffffffffffffffffffffffffffffffffffffff1673ffffffffffffffffffffffffffffffffffffffff1663fe4b84df826040518263ffffffff1660e01b8152600401613ede9190615b8b565b600060405180830381600087803b158015613ef857600080fd5b505af1158015613f0c573d6000803e3d6000fd5b50505050613f186117ef565b613f20611806565b6064600a82613f2f9190615ba6565b613f399190615be3565b67ffffffffffffffff1660678190555050505050565b6000606560009054906101000a900473ffffffffffffffffffffffffffffffffffffffff1673ffffffffffffffffffffffffffffffffffffffff1663053e8349836040518263ffffffff1660e01b8152600401613fac91906156f7565b600060405180830381865afa158015613fc9573d6000803e3d6000fd5b505050506040513d6000823e3d601f19601f82011682018060405250810190613ff29190615178565b905060005b81518163ffffffff161015614101576000828263ffffffff168151811061402157614020614cfc565b5b6020026020010151905061403481611746565b606e60008673ffffffffffffffffffffffffffffffffffffffff1673ffffffffffffffffffffffffffffffffffffffff16815260200190815260200160002060050160049054906101000a900460ff166140e557606d60008263ffffffff1663ffffffff168152602001908152602001600020600501600081819054906101000a900463ffffffff166140c690615719565b91906101000a81548163ffffffff021916908363ffffffff1602179055505b6140ef85826143d8565b50806140fa90614d8e565b9050613ff7565b50505050565b6000606d60008363ffffffff1663ffffffff16815260200190815260200160002060050160009054906101000a900463ffffffff1663ffffffff16606560009054906101000a900473ffffffffffffffffffffffffffffffffffffffff1673ffffffffffffffffffffffffffffffffffffffff1663f8f08d7f846040518263ffffffff1660e01b815260040161419d919061481c565b602060405180830381865afa1580156141ba573d6000803e3d6000fd5b505050506040513d601f19601f820116820180604052508101906141de9190615a6c565b6141e89190615414565b9050919050565b6000606e60008473ffffffffffffffffffffffffffffffffffffffff1673ffffffffffffffffffffffffffffffffffffffff16815260200190815260200160002060050160049054906101000a900460ff16614287578360020160009054906101000a900463ffffffff1663ffffffff16846000015461426e846142a2565b6142789190615525565b6142829190615414565b61428a565b60005b84600101546142999190614d5a565b90509392505050565b6000606d60008363ffffffff1663ffffffff16815260200190815260200160002060040154436142d29190615525565b606560009054906101000a900473ffffffffffffffffffffffffffffffffffffffff1673ffffffffffffffffffffffffffffffffffffffff1663f8f08d7f846040518263ffffffff1660e01b815260040161432d919061481c565b602060405180830381865afa15801561434a573d6000803e3d6000fd5b505050506040513d601f19601f8201168201806040525081019061436e9190615a6c565b6143789190615414565b606d60008463ffffffff1663ffffffff168152602001908152602001600020600301546143a59190614d5a565b9050919050565b80606660146101000a81548167ffffffffffffffff021916908367ffffffffffffffff16021790555050565b6143e482826000613581565b5050565b6000604051905090565b600080fd5b600080fd5b600073ffffffffffffffffffffffffffffffffffffffff82169050919050565b6000614427826143fc565b9050919050565b6144378161441c565b811461444257600080fd5b50565b6000813590506144548161442e565b92915050565b6000602082840312156144705761446f6143f2565b5b600061447e84828501614445565b91505092915050565b60008115159050919050565b61449c81614487565b82525050565b60006020820190506144b76000830184614493565b92915050565b600080fd5b600080fd5b600080fd5b60008083601f8401126144e2576144e16144bd565b5b8235905067ffffffffffffffff8111156144ff576144fe6144c2565b5b60208301915083602082028301111561451b5761451a6144c7565b5b9250929050565b60008060008060006060868803121561453e5761453d6143f2565b5b600061454c88828901614445565b955050602086013567ffffffffffffffff81111561456d5761456c6143f7565b5b614579888289016144cc565b9450945050604086013567ffffffffffffffff81111561459c5761459b6143f7565b5b6145a8888289016144cc565b92509250509295509295909350565b6000819050919050565b6145ca816145b7565b81146145d557600080fd5b50565b6000813590506145e7816145c1565b92915050565b600060208284031215614603576146026143f2565b5b6000614611848285016145d8565b91505092915050565b614623816145b7565b82525050565b600060208201905061463e600083018461461a565b92915050565b600081519050919050565b600082825260208201905092915050565b6000819050602082019050919050565b600063ffffffff82169050919050565b61468981614670565b82525050565b600061469b8383614680565b60208301905092915050565b6000602082019050919050565b60006146bf82614644565b6146c9818561464f565b93506146d483614660565b8060005b838110156147055781516146ec888261468f565b97506146f7836146a7565b9250506001810190506146d8565b5085935050505092915050565b6000602082019050818103600083015261472c81846146b4565b905092915050565b61473d81614670565b811461474857600080fd5b50565b60008135905061475a81614734565b92915050565b60008060408385031215614777576147766143f2565b5b60006147858582860161474b565b9250506020614796858286016145d8565b9150509250929050565b600080604083850312156147b7576147b66143f2565b5b60006147c585828601614445565b92505060206147d6858286016145d8565b9150509250929050565b6000602082840312156147f6576147f56143f2565b5b60006148048482850161474b565b91505092915050565b61481681614670565b82525050565b6000602082019050614831600083018461480d565b92915050565b60008083601f84011261484d5761484c6144bd565b5b8235905067ffffffffffffffff81111561486a576148696144c2565b5b602083019150836001820283011115614886576148856144c7565b5b9250929050565b60008083601f8401126148a3576148a26144bd565b5b8235905067ffffffffffffffff8111156148c0576148bf6144c2565b5b6020830191508360018202830111156148dc576148db6144c7565b5b9250929050565b600080600080604085870312156148fd576148fc6143f2565b5b600085013567ffffffffffffffff81111561491b5761491a6143f7565b5b61492787828801614837565b9450945050602085013567ffffffffffffffff81111561494a576149496143f7565b5b6149568782880161488d565b925092505092959194509250565b61496d8161441c565b82525050565b60006020820190506149886000830184614964565b92915050565b60006149998261441c565b9050919050565b6149a98161498e565b81146149b457600080fd5b50565b6000813590506149c6816149a0565b92915050565b60006149d78261441c565b9050919050565b6149e7816149cc565b81146149f257600080fd5b50565b600081359050614a04816149de565b92915050565b600067ffffffffffffffff82169050919050565b614a2781614a0a565b8114614a3257600080fd5b50565b600081359050614a4481614a1e565b92915050565b60008060008060808587031215614a6457614a636143f2565b5b6000614a72878288016149b7565b9450506020614a83878288016149f5565b9350506040614a9487828801614a35565b9250506060614aa587828801614a35565b91505092959194509250565b60008060208385031215614ac857614ac76143f2565b5b600083013567ffffffffffffffff811115614ae657614ae56143f7565b5b614af28582860161488d565b92509250509250929050565b60008083601f840112614b1457614b136144bd565b5b8235905067ffffffffffffffff811115614b3157614b306144c2565b5b602083019150836020820283011115614b4d57614b4c6144c7565b5b9250929050565b600080600080600080600080600060a08a8c031215614b7657614b756143f2565b5b60008a013567ffffffffffffffff811115614b9457614b936143f7565b5b614ba08c828d0161488d565b995099505060208a013567ffffffffffffffff811115614bc357614bc26143f7565b5b614bcf8c828d016144cc565b975097505060408a013567ffffffffffffffff811115614bf257614bf16143f7565b5b614bfe8c828d01614afe565b955095505060608a013567ffffffffffffffff811115614c2157614c206143f7565b5b614c2d8c828d01614afe565b93509350506080614c408c828d016145d8565b9150509295985092959850929598565b600082825260208201905092915050565b7f4f776e61626c653a2063616c6c6572206973206e6f7420746865206f776e6572600082015250565b6000614c97602083614c50565b9150614ca282614c61565b602082019050919050565b60006020820190508181036000830152614cc681614c8a565b9050919050565b7f4e487b7100000000000000000000000000000000000000000000000000000000600052604160045260246000fd5b7f4e487b7100000000000000000000000000000000000000000000000000000000600052603260045260246000fd5b7f4e487b7100000000000000000000000000000000000000000000000000000000600052601160045260246000fd5b6000614d65826145b7565b9150614d70836145b7565b9250828201905080821115614d8857614d87614d2b565b5b92915050565b6000614d9982614670565b915063ffffffff8203614daf57614dae614d2b565b5b600182019050919050565b6000604082019050614dcf6000830185614964565b614ddc602083018461461a565b9392505050565b614dec81614487565b8114614df757600080fd5b50565b600081519050614e0981614de3565b92915050565b600060208284031215614e2557614e246143f2565b5b6000614e3384828501614dfa565b91505092915050565b6000819050919050565b6000614e55602084018461474b565b905092915050565b6000602082019050919050565b6000614e76838561464f565b9350614e8182614e3c565b8060005b85811015614eba57614e978284614e46565b614ea1888261468f565b9750614eac83614e5d565b925050600181019050614e85565b5085925050509392505050565b600081519050919050565b600082825260208201905092915050565b6000819050602082019050919050565b614efc816145b7565b82525050565b6000614f0e8383614ef3565b60208301905092915050565b6000602082019050919050565b6000614f3282614ec7565b614f3c8185614ed2565b9350614f4783614ee3565b8060005b83811015614f78578151614f5f8882614f02565b9750614f6a83614f1a565b925050600181019050614f4b565b5085935050505092915050565b600060a0820190508181036000830152614fa081898b614e6a565b90508181036020830152614fb5818789614e6a565b9050614fc4604083018661461a565b8181036060830152614fd68185614f27565b9050614fe5608083018461461a565b98975050505050505050565b6000604082019050615006600083018561461a565b615013602083018461461a565b9392505050565b600060408201905061502f6000830185614964565b61503c602083018461480d565b9392505050565b6000601f19601f8301169050919050565b61505d82615043565b810181811067ffffffffffffffff8211171561507c5761507b614ccd565b5b80604052505050565b600061508f6143e8565b905061509b8282615054565b919050565b600067ffffffffffffffff8211156150bb576150ba614ccd565b5b602082029050602081019050919050565b6000815190506150db81614734565b92915050565b60006150f46150ef846150a0565b615085565b90508083825260208201905060208402830185811115615117576151166144c7565b5b835b81811015615140578061512c88826150cc565b845260208401935050602081019050615119565b5050509392505050565b600082601f83011261515f5761515e6144bd565b5b815161516f8482602086016150e1565b91505092915050565b60006020828403121561518e5761518d6143f2565b5b600082015167ffffffffffffffff8111156151ac576151ab6143f7565b5b6151b88482850161514a565b91505092915050565b82818337600083830152505050565b60006151dc8385614c50565b93506151e98385846151c1565b6151f283615043565b840190509392505050565b600082825260208201905092915050565b600061521a83856151fd565b93506152278385846151c1565b61523083615043565b840190509392505050565b600060608201905081810360008301526152568187896151d0565b90506152656020830186614964565b818103604083015261527881848661520e565b90509695505050505050565b60006020828403121561529a576152996143f2565b5b60006152a8848285016150cc565b91505092915050565b600060408201905081810360008301526152cc8186886151d0565b905081810360208301526152e181848661520e565b905095945050505050565b6000819050919050565b600060ff82169050919050565b6000819050919050565b600061532861532361531e846152ec565b615303565b6152f6565b9050919050565b6153388161530d565b82525050565b6000602082019050615353600083018461532f565b92915050565b600060408201905061536e600083018561461a565b61537b6020830184614964565b9392505050565b7f4f776e61626c653a206e6577206f776e657220697320746865207a65726f206160008201527f6464726573730000000000000000000000000000000000000000000000000000602082015250565b60006153de602683614c50565b91506153e982615382565b604082019050919050565b6000602082019050818103600083015261540d816153d1565b9050919050565b600061541f826145b7565b915061542a836145b7565b9250828202615438816145b7565b9150828204841483151761544f5761544e614d2b565b5b5092915050565b7f4e487b7100000000000000000000000000000000000000000000000000000000600052601260045260246000fd5b6000615490826145b7565b915061549b836145b7565b9250826154ab576154aa615456565b5b828204905092915050565b60006060820190506154cb6000830186614964565b6154d86020830185614964565b6154e5604083018461461a565b949350505050565b60006154f882614670565b915061550383614670565b9250828201905063ffffffff81111561551f5761551e614d2b565b5b92915050565b6000615530826145b7565b915061553b836145b7565b925082820390508181111561555357615552614d2b565b5b92915050565b600061556482614670565b915061556f83614670565b9250828203905063ffffffff81111561558b5761558a614d2b565b5b92915050565b7f496e697469616c697a61626c653a20636f6e747261637420697320616c72656160008201527f647920696e697469616c697a6564000000000000000000000000000000000000602082015250565b60006155ed602e83614c50565b91506155f882615591565b604082019050919050565b6000602082019050818103600083015261561c816155e0565b9050919050565b6000602082019050818103600083015261563e81848661520e565b90509392505050565b6000815190506156568161442e565b92915050565b600060208284031215615672576156716143f2565b5b600061568084828501615647565b91505092915050565b600081519050919050565b60005b838110156156b2578082015181840152602081019050615697565b60008484015250505050565b60006156c982615689565b6156d381856151fd565b93506156e3818560208601615694565b6156ec81615043565b840191505092915050565b6000602082019050818103600083015261571181846156be565b905092915050565b600061572482614670565b91506000820361573757615736614d2b565b5b600182039050919050565b600061574d826145b7565b9150615758836145b7565b92508261576857615767615456565b5b828206905092915050565b7f507265636973696f6e206973206f76657220746865206d6178696d756d20646560008201527f66696e6564000000000000000000000000000000000000000000000000000000602082015250565b60006157cf602583614c50565b91506157da82615773565b604082019050919050565b600060208201905081810360008301526157fe816157c2565b9050919050565b600082825260208201905092915050565b6000819050919050565b600082825260208201905092915050565b600061583d8385615820565b935061584a8385846151c1565b61585383615043565b840190509392505050565b600061586b848484615831565b90509392505050565b600080fd5b600080fd5b600080fd5b600080833560016020038436030381126158a05761589f61587e565b5b83810192508235915060208301925067ffffffffffffffff8211156158c8576158c7615874565b5b6001820236038313156158de576158dd615879565b5b509250929050565b6000602082019050919050565b60006158ff8385615805565b93508360208402850161591184615816565b8060005b8781101561595757848403895261592c8284615883565b61593786828461585e565b9550615942846158e6565b935060208b019a505050600181019050615915565b50829750879450505050509392505050565b600060a08201905061597e600083018c614964565b8181036020830152615991818a8c61520e565b905081810360408301526159a681888a614e6a565b905081810360608301526159bb8186886158f3565b905081810360808301526159d08184866158f3565b90509a9950505050505050505050565b600060a08201905081810360008301526159fb818b8d61520e565b90508181036020830152615a1081898b614e6a565b90508181036040830152615a258187896158f3565b90508181036060830152615a3a8185876158f3565b9050615a49608083018461461a565b9a9950505050505050505050565b600081519050615a66816145c1565b92915050565b600060208284031215615a8257615a816143f2565b5b6000615a9084828501615a57565b91505092915050565b7f4e487b7100000000000000000000000000000000000000000000000000000000600052603160045260246000fd5b7f496e697469616c697a61626c653a20636f6e7472616374206973206e6f74206960008201527f6e697469616c697a696e67000000000000000000000000000000000000000000602082015250565b6000615b24602b83614c50565b9150615b2f82615ac8565b604082019050919050565b60006020820190508181036000830152615b5381615b17565b9050919050565b6000615b75615b70615b6b84614a0a565b615303565b6145b7565b9050919050565b615b8581615b5a565b82525050565b6000602082019050615ba06000830184615b7c565b92915050565b6000615bb182614a0a565b9150615bbc83614a0a565b9250828202615bca81614a0a565b9150808214615bdc57615bdb614d2b565b5b5092915050565b6000615bee82614a0a565b9150615bf983614a0a565b925082615c0957615c08615456565b5b82820490509291505056fea2646970667358221220980e699dd09c7d5f38365bc1fbcfedd4ade759346961b6498f3cb5fad273a76d64736f6c63430008110033",
  "immutableReferences": {},
  "source": "// File: contracts/SafeStakeNetwork.sol\n// SPDX-License-Identifier: GPL-3.0-or-later\npragma solidity ^0.8.2;\n\nimport \"@openzeppelin/contracts/token/ERC20/IERC20.sol\";\nimport \"@openzeppelin/contracts-upgradeable/access/OwnableUpgradeable.sol\";\nimport \"./utils/VersionedContract.sol\";\nimport \"./utils/Types.sol\";\nimport \"./ISafeStakeNetwork.sol\";\n// import \"./ISafeStakeCount.sol\";\n\ncontract SafeStakeNetwork is OwnableUpgradeable, ISafeStakeNetwork, VersionedContract {\n    using Types256 for uint256;\n    using Types64 for uint64;\n\n    struct OperatorData {\n        uint256 blockNumber;\n        uint256 claimBlockNumber;\n        uint256 earnings;\n        uint256 index;\n        uint256 indexBlockNumber;\n        uint32 activeValidatorCount;\n    }\n\n    struct OwnerData {\n        uint256 deposited;\n        uint256 withdrawn;\n        uint256 used;\n        uint256 networkFee;\n        uint256 networkFeeIndex;\n        uint32 activeValidatorCount;\n        bool validatorsDisabled;\n        uint256 paidBlockNumber;\n    }\n\n    struct OperatorInUse {\n        uint256 index;\n        uint256 used;\n        uint32 validatorCount;\n        uint32 indexInArray;\n        bool exists;\n    }\n\n    // struct FeeChangeRequest {\n    //     uint64 fee;\n    //     uint256 approvalBeginTime;\n    //     uint256 approvalEndTime;\n    // }\n    // ISafeStakeCount private _SafeStakeCountContract;\n    ISafeStakeRegistry private _SafeStakeRegistryContract;\n    IERC20 private _token;\n    // uint64 private _minimumBlocksBeforeLiquidation;\n    // uint64 private _operatorMaxFeeIncrease;\n\n    uint64 private _minimumBlocksValidatorPay;\n\n    uint256 private _networkFee;\n    uint256 private _networkFeeIndex;\n    uint256 private _networkFeeIndexBlockNumber;\n    uint256 private _networkEarnings;\n    uint256 private _networkEarningsBlockNumber;\n    uint256 private _withdrawnFromTreasury;\n\n    mapping(uint32 => OperatorData) private _operatorDatas;\n    mapping(address => OwnerData) private _owners;\n    mapping(address => mapping(uint32 => OperatorInUse)) private _operatorsInUseByAddress;\n    mapping(address => uint32[]) private _operatorsInUseList;\n\n    // uint64 private _declareOperatorFeePeriod;\n    // uint64 private _executeOperatorFeePeriod;\n    // mapping(uint32 => FeeChangeRequest) private _feeChangeRequests;\n\n    // uint16 constant private MINIMAL_OPERATOR_FEE = 1000;\n    uint16 constant private MANAGING_OPERATORS_PER_ACCOUNT_LIMIT = 50;\n    // uint16 constant private MINIMAL_LIQUIDATION_THRESHOLD = 6570;\n\n\n    function initialize(\n        ISafeStakeRegistry registryAddress_,\n        IERC20 token_,\n        uint64 minimumBlocksBeforeLiquidation_,\n        // uint64 operatorMaxFeeIncrease_,\n        // uint64 declareOperatorFeePeriod_,\n        // uint64 executeOperatorFeePeriod_,\n        uint64 operatorFee\n    ) external initializer override {\n        // __SafeStakeNetwork_init(registryAddress_, token_, minimumBlocksBeforeLiquidation_, operatorMaxFeeIncrease_, declareOperatorFeePeriod_, executeOperatorFeePeriod_, operatorFee);\n        __SafeStakeNetwork_init(registryAddress_, token_, minimumBlocksBeforeLiquidation_, operatorFee);\n    }\n\n    function __SafeStakeNetwork_init(\n        ISafeStakeRegistry registryAddress_,\n        IERC20 token_,\n        uint64 minimumBlocksBeforeLiquidation_,\n        // uint64 operatorMaxFeeIncrease_,\n        // uint64 declareOperatorFeePeriod_,\n        // uint64 executeOperatorFeePeriod_,\n        uint64 operatorFee\n    ) internal initializer {\n        __Ownable_init_unchained();\n        // __SafeStakeNetwork_init_unchained(registryAddress_, token_, minimumBlocksBeforeLiquidation_, operatorMaxFeeIncrease_, declareOperatorFeePeriod_, executeOperatorFeePeriod_, operatorFee);\n        __SafeStakeNetwork_init_unchained(registryAddress_, token_, minimumBlocksBeforeLiquidation_, operatorFee);\n    }\n\n    function __SafeStakeNetwork_init_unchained(\n        ISafeStakeRegistry registryAddress_,\n        IERC20 token_,\n        uint64 minimumBlocksBeforeLiquidation_,\n        // uint64 operatorMaxFeeIncrease_,\n        // uint64 declareOperatorFeePeriod_,\n        // uint64 executeOperatorFeePeriod_,\n        uint64 operatorFee\n    ) internal onlyInitializing {\n        _SafeStakeRegistryContract = registryAddress_;\n        _token = token_;\n        _updateLiquidationThresholdPeriod(minimumBlocksBeforeLiquidation_);\n        // _updateOperatorFeeIncreaseLimit(operatorMaxFeeIncrease_);\n        // _updateDeclareOperatorFeePeriod(declareOperatorFeePeriod_);\n        // _updateExecuteOperatorFeePeriod(executeOperatorFeePeriod_);\n        _SafeStakeRegistryContract.initialize(operatorFee);\n        _updateNetworkEarnings();\n        _updateNetworkFeeIndex();\n        _networkFee = operatorFee * 10 / 100;\n    }\n\n    modifier onlyValidatorOwnerOrContractOwner(bytes calldata publicKey) {\n        _onlyValidatorOwnerOrContractOwner(publicKey);\n        _;\n    }\n\n    modifier onlyOperatorOwnerOrContractOwner(uint32 operatorId) {\n        _onlyOperatorOwnerOrContractOwner(operatorId);\n        _;\n    }\n\n    // modifier ensureMinimalOperatorFee(uint256 fee) {\n    //     _ensureMinimalOperatorFee(fee.shrink());\n    //     _;\n    // }\n\n    /**\n     * @dev See {ISafeStakeNetwork-registerOperator}.\n     */\n    function registerOperator(\n        string calldata name,\n        bytes calldata publicKey\n    ) external override returns (uint32 operatorId) {\n        operatorId = _SafeStakeRegistryContract.registerOperator(\n            name,\n            msg.sender,\n            publicKey\n        );\n\n        _operatorDatas[operatorId] = OperatorData({ blockNumber: block.number, earnings: 0, index: 0, indexBlockNumber: block.number, claimBlockNumber: block.number, activeValidatorCount: 0 });\n        _updatePaidBlockNumber(msg.sender);\n        emit OperatorRegistration(operatorId, name, msg.sender, publicKey);\n    }\n\n    /**\n     * @dev See {ISafeStakeNetwork-removeOperator}.\n     */\n    // function removeOperator(uint32 operatorId) onlyOperatorOwnerOrContractOwner(operatorId) external override {\n    //     address owner = _SafeStakeRegistryContract.getOperatorOwner(operatorId);\n\n    //     _SafeStakeRegistryContract.removeOperator(operatorId);\n\n    //     emit OperatorRemoval(operatorId, owner);\n    // }\n\n    // function declareOperatorFee(uint32 operatorId, uint256 operatorFee) onlyOperatorOwnerOrContractOwner(operatorId) ensureMinimalOperatorFee(operatorFee) external override {\n    //     if (operatorFee.shrink() > _SafeStakeRegistryContract.getOperatorFee() * (10000 + _operatorMaxFeeIncrease) / 10000) {\n    //         revert FeeExceedsIncreaseLimit();\n    //     }\n    //     _feeChangeRequests[operatorId] = FeeChangeRequest(operatorFee.shrink(), block.timestamp + _declareOperatorFeePeriod, block.timestamp + _declareOperatorFeePeriod + _executeOperatorFeePeriod);\n\n    //     emit OperatorFeeDeclaration(msg.sender, operatorId, block.number, operatorFee);\n    // }\n\n    // function cancelDeclaredOperatorFee(uint32 operatorId) onlyOperatorOwnerOrContractOwner(operatorId) external override {\n    //     delete _feeChangeRequests[operatorId];\n\n    //     emit DeclaredOperatorFeeCancelation(msg.sender, operatorId);\n    // }\n\n    // function executeOperatorFee(uint32 operatorId) onlyOperatorOwnerOrContractOwner(operatorId) external override {\n    //     FeeChangeRequest storage feeChangeRequest = _feeChangeRequests[operatorId];\n\n    //     if(feeChangeRequest.fee == 0) {\n    //         revert NoPendingFeeChangeRequest();\n    //     }\n    //     if(block.timestamp < feeChangeRequest.approvalBeginTime || block.timestamp > feeChangeRequest.approvalEndTime) {\n    //         revert ApprovalNotWithinTimeframe();\n    //     }\n\n    //     _updateOperatorFeeUnsafe(operatorId, feeChangeRequest.fee);\n\n    //     emit OperatorFeeExecution(msg.sender, operatorId, block.number, feeChangeRequest.fee.expand());\n\n    //     delete _feeChangeRequests[operatorId];\n    // }\n\n    // function updateOperatorScore(uint32 operatorId, uint32 score) onlyOwner external override {\n    //     _SafeStakeRegistryContract.updateOperatorScore(operatorId, score);\n\n    //     emit OperatorScoreUpdate(operatorId, msg.sender, block.number, score);\n    // }\n\n    /**\n     * @dev See {ISafeStakeNetwork-registerValidator}.\n     */\n    function registerValidator(\n        bytes calldata publicKey,\n        uint32[] calldata operatorIds,\n        bytes[] calldata sharesPublicKeys,\n        bytes[] calldata sharesEncrypted,\n        uint256 amount\n    ) external override {\n        _updateNetworkEarnings();\n        _updateAddressNetworkFee(msg.sender);\n        _registerValidatorUnsafe(msg.sender, publicKey, operatorIds, sharesPublicKeys, sharesEncrypted, amount);\n    }\n\n    /**\n     * @dev See {ISafeStakeNetwork-registerInitiator}.\n     */\n    // function registerInitiator(\n    //     uint32[] calldata operatorIds\n    // ) external override returns(uint32 initiatorId) {\n    //     if (!_SafeStakeRegistryContract.ifEnoughOperatorsFromParaStateDao(operatorIds)) {\n    //         revert NoEnoughParaStateDaoOperators();\n    //     }\n    //     initiatorId = _SafeStakeRegistryContract.registerInitiator(msg.sender, operatorIds);\n\n    //     emit InitiatorRegistration(initiatorId, msg.sender, operatorIds);\n    // }\n\n    /**\n     * @dev See {ISafeStakeNetwork-initiatorPreStake}.\n     */\n    // function initiatorPreStake(\n    //     uint32 initiatorId,\n    //     bytes calldata validatorPublicKey,\n    //     address miniPoolAddress\n    // ) external override{\n    //     _onlyInitiatorOwner(initiatorId);\n    //     _SafeStakeRegistryContract.initiatorPreStatke(initiatorId, validatorPublicKey, miniPoolAddress);\n    //     emit InitiatorMiniPoolCreated(initiatorId, validatorPublicKey, miniPoolAddress);\n    // }\n\n    /**\n     * @dev See {ISafeStakeNetwork-initiatorMiniPoolReady}.\n     */\n    // function initiatorMiniPoolReady(\n    //     uint32 initiatorId\n    // ) external override {\n    //     _onlyInitiatorOwner(initiatorId);\n    //     _SafeStakeRegistryContract.initiatorReady(initiatorId);\n    //     emit InitiatorMiniPoolReady(initiatorId);\n    // }\n\n    function initiatorStake(\n        uint32 initiatorId,\n        uint256 tokenAmount\n    ) external override {\n        _SafeStakeRegistryContract.initiatorStake(msg.sender, initiatorId);\n        _updateNetworkEarnings();\n        _updateAddressNetworkFee(msg.sender);\n        OwnerData storage owner = _owners[msg.sender];\n        owner.paidBlockNumber = block.number;\n        \n        if (!owner.validatorsDisabled) {\n            ++owner.activeValidatorCount;\n        }\n        uint32[] memory operatorIds = _SafeStakeRegistryContract.getOperatorsByInitiatorId(initiatorId);\n        for (uint32 index = 1; index < operatorIds.length; ++index) {\n            uint32 operatorId = operatorIds[index];\n            _updateOperatorBalance(operatorId);\n            if (!owner.validatorsDisabled) {\n                ++_operatorDatas[operatorId].activeValidatorCount;\n            }\n            _useOperatorByOwner(msg.sender, operatorId);\n        }\n        _deposit(msg.sender, tokenAmount);\n        if(_liquidatable(msg.sender)) {\n            revert NotEnoughBalance();\n        }\n        _updatePaidBlockNumber(msg.sender);\n    }\n\n\n    /**\n     * @dev See {ISafeStakeNetwork-updateValidator}.\n     */\n    // function updateValidator(\n    //     bytes calldata publicKey,\n    //     uint32[] calldata operatorIds,\n    //     bytes[] calldata sharesPublicKeys,\n    //     bytes[] calldata sharesEncrypted,\n    //     uint256 amount\n    // ) onlyValidatorOwnerOrContractOwner(publicKey) external override {\n    //     _removeValidatorUnsafe(msg.sender, publicKey);\n    //     _registerValidatorUnsafe(msg.sender, publicKey, operatorIds, sharesPublicKeys, sharesEncrypted, amount);\n    // }\n\n    /**\n     * @dev See {ISafeStakeNetwork-removeValidator}.\n     */\n    function removeValidator(bytes calldata publicKey) onlyValidatorOwnerOrContractOwner(publicKey) external override {\n        _updateNetworkEarnings();\n        _updateAddressNetworkFee(msg.sender);\n        _removeValidatorUnsafe(msg.sender, publicKey);\n        _totalBalanceOf(msg.sender); // For assertion\n    }\n\n    function deposit(address ownerAddress, uint256 amount) external override {\n        _deposit(ownerAddress, amount);\n    }\n\n    function withdraw(uint256 amount) external override {\n        if(_totalBalanceOf(msg.sender) < amount) {\n            revert NotEnoughBalance();\n        }\n\n        _withdrawUnsafe(amount);\n\n        if(_liquidatable(msg.sender)) {\n            revert NotEnoughBalance();\n        }\n    }\n\n    // function withdrawAll() external override {\n    //     if(_burnRate(msg.sender) > 0) {\n    //         revert BurnRatePositive();\n    //     }\n\n    //     _withdrawUnsafe(_totalBalanceOf(msg.sender));\n    // }\n\n    // function liquidate(address[] calldata ownerAddresses) external override {\n    //     uint64 balanceToTransfer = 0;\n\n    //     for (uint32 index = 0; index < ownerAddresses.length; ++index) {\n    //         if (_canLiquidate(ownerAddresses[index])) {\n    //             balanceToTransfer += _liquidateUnsafe(ownerAddresses[index]);\n    //         }\n    //     }\n\n    //     _token.transfer(msg.sender, balanceToTransfer.expand());\n    // }\n\n    /**\n     * @dev See {ISafeStakeNetwork-disableAddress}.\n     */\n    function disableAddress(address ownerAddress) onlyOwner external override {\n        if (!_owners[ownerAddress].validatorsDisabled && _overdue(ownerAddress)) {\n            // TODO transfer \n            _disableOwnerValidatorsUnsafe(ownerAddress);\n            emit AccountDisable(ownerAddress);\n        }\n    }\n\n    function reactivateAccount(uint256 amount) external override {\n        if (!_owners[msg.sender].validatorsDisabled) {\n            revert AccountAlreadyEnabled();\n        }\n        _deposit(msg.sender, amount);\n        // _SafeStakeCountContract.deposit(msg.sender, amount);\n\n        _enableOwnerValidatorsUnsafe(msg.sender);\n\n        if(_liquidatable(msg.sender)) {\n            revert NotEnoughBalance();\n        }\n\n        emit AccountEnable(msg.sender);\n    }\n\n    // function updateLiquidationThresholdPeriod(uint64 blocks) external onlyOwner override {\n    //     if(blocks < MINIMAL_LIQUIDATION_THRESHOLD) {\n    //         revert BelowMinimumBlockPeriod();\n    //     }\n\n    //     _updateLiquidationThresholdPeriod(blocks);\n    // }\n\n    // function updateOperatorFeeIncreaseLimit(uint64 newOperatorMaxFeeIncrease) external onlyOwner override {\n    //     _updateOperatorFeeIncreaseLimit(newOperatorMaxFeeIncrease);\n    // }\n\n    // function updateDeclareOperatorFeePeriod(uint64 newDeclareOperatorFeePeriod) external onlyOwner override {\n    //     _updateDeclareOperatorFeePeriod(newDeclareOperatorFeePeriod);\n    // }\n\n    // function updateExecuteOperatorFeePeriod(uint64 newExecuteOperatorFeePeriod) external onlyOwner override {\n    //     _updateExecuteOperatorFeePeriod(newExecuteOperatorFeePeriod);\n    // }\n\n    /**\n     * @dev See {ISafeStakeNetwork-updateNetworkFee}.\n     */\n    function updateNetworkFee(uint256 fee) external onlyOwner override {\n        emit NetworkFeeUpdate(_networkFee, fee);\n        _updateNetworkEarnings();\n        _updateNetworkFeeIndex();\n        _networkFee = fee;\n    }\n\n    function withdrawNetworkEarnings(uint256 amount) external onlyOwner override {\n        if(amount > _getNetworkEarnings()) {\n            revert NotEnoughBalance();\n        }\n\n        _withdrawnFromTreasury += amount.shrink();\n        _token.transfer(msg.sender, amount);\n\n        emit NetworkFeesWithdrawal(amount, msg.sender);\n    }\n\n    function getAddressBalance(address ownerAddress) external override view returns (uint256) {\n        return _totalBalanceOf(ownerAddress);\n    }\n\n    // function isLiquidated(address ownerAddress) external view override returns (bool) {\n    //     return _owners[ownerAddress].validatorsDisabled;\n    // }\n\n    /**\n     * @dev See {ISafeStakeNetwork-getOperatorById}.\n     */\n    // function getOperatorById(uint32 operatorId) external view override returns (string memory, address, bytes memory, uint256, uint256, uint256, bool) {\n    //     return _SafeStakeRegistryContract.getOperatorById(operatorId);\n    // }\n\n    // function getOperatorDeclaredFee(uint32 operatorId) external view override returns (uint256, uint256, uint256) {\n    //     FeeChangeRequest storage feeChangeRequest = _feeChangeRequests[operatorId];\n\n    //     return (feeChangeRequest.fee.expand(), feeChangeRequest.approvalBeginTime, feeChangeRequest.approvalEndTime);\n    // }\n\n    /**\n     * @dev See {ISafeStakeNetwork-getOperatorFee}.\n     */\n    // function getOperatorFee() external view override returns (uint256) {\n    //     return _SafeStakeRegistryContract.getOperatorFee().expand();\n    // }\n\n    /**\n     * @dev See {ISafeStakeNetwork-getOperatorsByValidator}.\n     */\n    // function getOperatorsByValidator(bytes memory publicKey) external view override returns (uint32[] memory) {\n    //     return _SafeStakeRegistryContract.getOperatorsByValidator(publicKey);\n    // }\n\n    /**\n     * @dev See {ISafeStakeNetwork-getValidatorsByAddress}.\n     */\n    // function getValidatorsByOwnerAddress(address ownerAddress) external view override returns (bytes[] memory) {\n    //     return _SafeStakeRegistryContract.getValidatorsByAddress(ownerAddress);\n    // }\n\n    /**\n     * @dev See {ISafeStakeNetwork-addressNetworkFee}.\n     */\n    function addressNetworkFee(address ownerAddress) external view override returns (uint256) {\n        return _addressNetworkFee(ownerAddress);\n    }\n\n    function getAddressBurnRate(address ownerAddress) external view override returns (uint256) {\n        return _burnRate(ownerAddress);\n    }\n\n    function isLiquidatable(address ownerAddress) external view override returns (bool) {\n        return _liquidatable(ownerAddress);\n    }\n\n    function getNetworkFee() external view override returns (uint256) {\n        return _networkFee;\n    }\n\n    // function getNetworkEarnings() external view override returns (uint256) {\n    //     return _getNetworkEarnings().expand();\n    // }\n\n    function getMinimumBlocksValidatorShouldPay() external view override returns (uint256) {\n        return _minimumBlocksValidatorPay;\n    }\n\n    // function getOperatorFeeIncreaseLimit() external view override returns (uint256) {\n    //     return _operatorMaxFeeIncrease;\n    // }\n\n    // function getExecuteOperatorFeePeriod() external view override returns (uint256) {\n    //     return _executeOperatorFeePeriod;\n    // }\n\n    // function getDeclaredOperatorFeePeriod() external view override returns (uint256) {\n    //     return _declareOperatorFeePeriod;\n    // }\n\n    // function validatorsPerOperatorCount(uint32 operatorId) external view returns (uint32) {\n    //     return _SafeStakeRegistryContract.validatorsPerOperatorCount(operatorId);\n    // }\n\n    function _deposit(address ownerAddress, uint256 amount) private {\n        _token.transferFrom(msg.sender, address(this), amount);\n        _owners[ownerAddress].deposited += amount;\n        _updatePaidBlockNumber(ownerAddress);\n        emit FundsDeposit(amount, ownerAddress, msg.sender);\n    }\n\n    function _withdrawUnsafe(uint256 amount) private {\n        _owners[msg.sender].withdrawn += amount;\n        _token.transfer(msg.sender, amount);\n        _updatePaidBlockNumber(msg.sender);\n        emit FundsWithdrawal(amount, msg.sender);\n    }\n\n    /**\n     * @dev Update paid block number for the address.\n     * @param ownerAddress Owner address.\n     */\n    function _updatePaidBlockNumber(address ownerAddress) private {\n        // disabled\n        // if (_owners[ownerAddress].validatorsDisabled) {\n        //     _owners[ownerAddress].paidBlockNumber = block.number;\n        //     return ;\n        // }\n        // earnRate is larger than burnRate\n        if (_burnRate(ownerAddress) == 0) { \n            // uint64 max value\n            _owners[ownerAddress].paidBlockNumber = block.number;\n        } else {\n            _owners[ownerAddress].paidBlockNumber =  block.number + _totalBalanceOf(ownerAddress) / _burnRate(ownerAddress);\n        }\n        \n    } \n\n    /**\n     * @dev Update network fee for the address.\n     * @param ownerAddress Owner address.\n     */\n    function _updateAddressNetworkFee(address ownerAddress) private {\n        _owners[ownerAddress].networkFee = _addressNetworkFee(ownerAddress);\n        _owners[ownerAddress].networkFeeIndex = _currentNetworkFeeIndex();\n    }\n\n    function _updateOperatorIndex(uint32 operatorId) private {\n        _operatorDatas[operatorId].index = _operatorIndexOf(operatorId);\n    }\n\n    /**\n     * @dev Updates operators's balance.\n     */\n    function _updateOperatorBalance(uint32 operatorId) private {\n        OperatorData storage operatorData = _operatorDatas[operatorId];\n        operatorData.earnings = _operatorEarningsOf(operatorId);\n        operatorData.blockNumber = block.number;\n    }\n\n    function _operatorClaimFee(uint32 operatorId, uint32 performance) private returns (uint256){\n        OperatorData storage operatorData = _operatorDatas[operatorId];\n        uint256 claimed = operatorData.earnings * performance / 100;\n        operatorData.earnings = 0;\n        operatorData.claimBlockNumber = block.number;\n        return claimed;\n    }\n\n    function accountClaimFee(address account, uint32[] calldata operatorIds, uint32[] calldata performances) external onlyOwner override {\n        uint256 total = 0;\n        uint256[] memory lastClaimBlockNumber = new uint256[](operatorIds.length);\n        for(uint32 index = 0; index < operatorIds.length; index++ ) {\n            _updateOperatorBalance(operatorIds[index]);\n            lastClaimBlockNumber[index] = _operatorDatas[operatorIds[index]].claimBlockNumber;\n            total += _operatorClaimFee(operatorIds[index], performances[index]);\n            \n        }\n        _token.transfer(account, total);\n        emit AccountClaim(operatorIds, performances, total, lastClaimBlockNumber, block.number);\n    }\n\n    // function _liquidateUnsafe(address ownerAddress) private returns (uint64) {\n    //     _disableOwnerValidatorsUnsafe(ownerAddress);\n\n    //     uint64 balanceToTransfer = _totalBalanceOf(ownerAddress);\n\n    //     _owners[ownerAddress].used += balanceToTransfer;\n\n    //     emit AccountLiquidation(ownerAddress);\n\n    //     return balanceToTransfer;\n    // }\n\n    function _updateNetworkEarnings() private {\n        _networkEarnings = _getTotalNetworkEarnings();\n        _networkEarningsBlockNumber = block.number;\n    }\n\n    function _updateNetworkFeeIndex() private {\n        _networkFeeIndex = _currentNetworkFeeIndex();\n        _networkFeeIndexBlockNumber = block.number;\n    }\n\n    function _registerValidatorUnsafe(\n        address ownerAddress,\n        bytes calldata publicKey,\n        uint32[] calldata operatorIds,\n        bytes[] calldata sharesPublicKeys,\n        bytes[] calldata encryptedKeys,\n        uint256 tokenAmount) private {\n\n        _SafeStakeRegistryContract.registerValidator(\n            ownerAddress,\n            publicKey,\n            operatorIds,\n            sharesPublicKeys,\n            encryptedKeys\n        );\n\n        OwnerData storage owner = _owners[ownerAddress];\n        owner.paidBlockNumber = block.number;\n\n        if (!owner.validatorsDisabled) {\n            ++owner.activeValidatorCount;\n        }\n\n        for (uint32 index = 0; index < operatorIds.length; ++index) {\n            uint32 operatorId = operatorIds[index];\n            _updateOperatorBalance(operatorId);\n\n            if (!owner.validatorsDisabled) {\n                ++_operatorDatas[operatorId].activeValidatorCount;\n            }\n\n            _useOperatorByOwner(ownerAddress, operatorId);\n        }\n        if (tokenAmount > 0) {\n            _deposit(msg.sender, tokenAmount);\n        }\n\n        if(_liquidatable(ownerAddress)) {\n            revert NotEnoughBalance();\n        }\n\n        _updatePaidBlockNumber(ownerAddress);\n\n        emit ValidatorRegistration(ownerAddress, publicKey, operatorIds, sharesPublicKeys, encryptedKeys, owner.paidBlockNumber);\n    }\n\n    function _removeValidatorUnsafe(address ownerAddress, bytes memory publicKey) private {\n        _unregisterValidator(ownerAddress, publicKey);\n        _SafeStakeRegistryContract.removeValidator(publicKey);\n\n        if (!_owners[ownerAddress].validatorsDisabled) {\n            --_owners[ownerAddress].activeValidatorCount;\n        }\n        _updatePaidBlockNumber(ownerAddress);\n        emit ValidatorRemoval(ownerAddress, publicKey);\n    }\n\n    function _unregisterValidator(address ownerAddress, bytes memory publicKey) private {\n        // calculate balances for current operators in use and update their balances\n        uint32[] memory currentOperatorIds = _SafeStakeRegistryContract.getOperatorsByValidator(publicKey);\n        for (uint32 index = 0; index < currentOperatorIds.length; ++index) {\n            uint32 operatorId = currentOperatorIds[index];\n            _updateOperatorBalance(operatorId);\n\n            if (!_owners[ownerAddress].validatorsDisabled) {\n                --_operatorDatas[operatorId].activeValidatorCount;\n            }\n\n            _stopUsingOperatorByOwner(ownerAddress, operatorId);\n        }\n    }\n\n    function _useOperatorByOwner(address ownerAddress, uint32 operatorId) private {\n        _updateUsingOperatorByOwner(ownerAddress, operatorId, true);\n    }\n\n    function _stopUsingOperatorByOwner(address ownerAddress, uint32 operatorId) private {\n        _updateUsingOperatorByOwner(ownerAddress, operatorId, false);\n    }\n\n    // function _updateOperatorFeeUnsafe(uint32 operatorId, uint64 fee) private {\n    //     // OperatorData storage operatorData = _operatorDatas[operatorId];\n    //     _updateOperatorIndex(operatorId);\n    //     _operatorDatas[operatorId].indexBlockNumber = block.number;\n    //     _updateOperatorBalance(operatorId);\n    //     // _SafeStakeRegistryContract.updateOperatorFee(fee);\n    // }\n\n    // function updateOperatorFee(uint64 fee) external override {\n    //     _SafeStakeRegistryContract.updateOperatorFee(fee);\n    // }\n\n    /**\n     * @dev Updates the relation between operator and owner\n     * @param ownerAddress Owner address.\n     * @param increase Change value for validators amount.\n     */\n    function _updateUsingOperatorByOwner(address ownerAddress, uint32 operatorId, bool increase) private {\n        OperatorInUse storage operatorInUseData = _operatorsInUseByAddress[ownerAddress][operatorId];\n\n        if (operatorInUseData.exists) {\n            _updateOperatorUsageByOwner(operatorInUseData, ownerAddress, operatorId);\n\n            if (increase) {\n                ++operatorInUseData.validatorCount;\n            } else {\n                if (--operatorInUseData.validatorCount == 0) {\n                    _owners[ownerAddress].used += operatorInUseData.used;\n\n                    // remove from mapping and list;\n\n                    _operatorsInUseList[ownerAddress][operatorInUseData.indexInArray] = _operatorsInUseList[ownerAddress][_operatorsInUseList[ownerAddress].length - 1];\n                    _operatorsInUseByAddress[ownerAddress][_operatorsInUseList[ownerAddress][operatorInUseData.indexInArray]].indexInArray = operatorInUseData.indexInArray;\n                    _operatorsInUseList[ownerAddress].pop();\n\n                    delete _operatorsInUseByAddress[ownerAddress][operatorId];\n                }\n            }\n        } else {\n            if (_operatorsInUseList[ownerAddress].length > MANAGING_OPERATORS_PER_ACCOUNT_LIMIT) {\n                revert ExceedManagingOperatorsPerAccountLimit();\n            }\n\n            _operatorsInUseByAddress[ownerAddress][operatorId] = OperatorInUse({ index: _operatorIndexOf(operatorId), validatorCount: 1, used: 0, exists: true, indexInArray: uint32(_operatorsInUseList[ownerAddress].length) });\n            _operatorsInUseList[ownerAddress].push(operatorId);\n        }\n    }\n\n    function _disableOwnerValidatorsUnsafe(address ownerAddress) private {\n        _updateNetworkEarnings();\n        _updateAddressNetworkFee(ownerAddress);\n\n        for (uint32 index = 0; index < _operatorsInUseList[ownerAddress].length; ++index) {\n            uint32 operatorId = _operatorsInUseList[ownerAddress][index];\n            _updateOperatorBalance(operatorId);\n            OperatorInUse storage operatorInUseData = _operatorsInUseByAddress[ownerAddress][operatorId];\n            _updateOperatorUsageByOwner(operatorInUseData, ownerAddress, operatorId);\n            _operatorDatas[operatorId].activeValidatorCount -= operatorInUseData.validatorCount;\n        }\n\n        _SafeStakeRegistryContract.disableOwnerValidators(ownerAddress);\n\n        _owners[ownerAddress].validatorsDisabled = true;\n    }\n\n    function _enableOwnerValidatorsUnsafe(address ownerAddress) private {\n        _updateNetworkEarnings();\n        _updateAddressNetworkFee(ownerAddress);\n\n        for (uint32 index = 0; index < _operatorsInUseList[ownerAddress].length; ++index) {\n            uint32 operatorId = _operatorsInUseList[ownerAddress][index];\n            _updateOperatorBalance(operatorId);\n            OperatorInUse storage operatorInUseData = _operatorsInUseByAddress[ownerAddress][operatorId];\n            _updateOperatorUsageByOwner(operatorInUseData, ownerAddress, operatorId);\n            _operatorDatas[operatorId].activeValidatorCount += operatorInUseData.validatorCount;\n        }\n\n        _SafeStakeRegistryContract.enableOwnerValidators(ownerAddress);\n\n        _owners[ownerAddress].validatorsDisabled = false;\n    }\n\n    function _updateOperatorUsageByOwner(OperatorInUse storage operatorInUseData, address ownerAddress, uint32 operatorId) private {\n        operatorInUseData.used = _operatorInUseUsageOf(operatorInUseData, ownerAddress, operatorId);\n        operatorInUseData.index = _operatorIndexOf(operatorId);\n    }\n\n    function _updateLiquidationThresholdPeriod(uint64 newMinimumBlocksBeforeLiquidation) private {\n        _minimumBlocksValidatorPay = newMinimumBlocksBeforeLiquidation;\n\n        // emit LiquidationThresholdPeriodUpdate(_minimumBlocksValidatorPay);\n    }\n\n    // function _updateOperatorFeeIncreaseLimit(uint64 newOperatorMaxFeeIncrease) private {\n    //     _operatorMaxFeeIncrease = newOperatorMaxFeeIncrease;\n\n    //     emit OperatorFeeIncreaseLimitUpdate(_operatorMaxFeeIncrease);\n\n    // }\n\n    // function _updateDeclareOperatorFeePeriod(uint64 newDeclareOperatorFeePeriod) private {\n    //     _declareOperatorFeePeriod = newDeclareOperatorFeePeriod;\n\n    //     emit DeclareOperatorFeePeriodUpdate(newDeclareOperatorFeePeriod);\n    // }\n\n    // function _updateExecuteOperatorFeePeriod(uint64 newExecuteOperatorFeePeriod) private {\n    //     _executeOperatorFeePeriod = newExecuteOperatorFeePeriod;\n\n    //     emit ExecuteOperatorFeePeriodUpdate(newExecuteOperatorFeePeriod);\n    // }\n\n    function _expensesOf(address ownerAddress) private view returns(uint256) {\n        uint256 usage =  _owners[ownerAddress].used + _addressNetworkFee(ownerAddress);\n        for (uint32 index = 0; index < _operatorsInUseList[ownerAddress].length; ++index) {\n            OperatorInUse storage operatorInUseData = _operatorsInUseByAddress[ownerAddress][_operatorsInUseList[ownerAddress][index]];\n            usage += _operatorInUseUsageOf(operatorInUseData, ownerAddress, _operatorsInUseList[ownerAddress][index]);\n        }\n\n        return usage;\n    }\n\n    function _totalEarningsOf(address ownerAddress) private view returns (uint256) {\n        uint256 earnings = 0;\n        uint32[] memory operatorsByOwner = _SafeStakeRegistryContract.getOperatorsByOwnerAddress(ownerAddress);\n        for (uint32 index = 0; index < operatorsByOwner.length; ++index) {\n            earnings += _operatorEarningsOf(operatorsByOwner[index]);\n        }\n\n        return earnings;\n    }\n\n    function _totalBalanceOf(address ownerAddress) private view returns (uint256) {\n        uint256 balance = _owners[ownerAddress].deposited + _totalEarningsOf(ownerAddress);\n\n        uint256 usage = _owners[ownerAddress].withdrawn + _expensesOf(ownerAddress);\n\n        if(balance < usage) {\n            revert NegativeBalance();\n        }\n\n        return balance - usage;\n    }\n\n    function _operatorEarnRate(uint32 operatorId) private view returns (uint256) {\n        return _SafeStakeRegistryContract.getOperatorFee(operatorId) * _operatorDatas[operatorId].activeValidatorCount;\n    }\n\n    /**\n     * @dev See {ISafeStakeNetwork-operatorEarningsOf}.\n     */\n    function _operatorEarningsOf(uint32 operatorId) private view returns (uint256) {\n        return _operatorDatas[operatorId].earnings +\n               uint256(block.number - _operatorDatas[operatorId].blockNumber) *\n               _operatorEarnRate(operatorId);\n    }\n\n    function _addressNetworkFee(address ownerAddress) private view returns (uint256) {\n        return _owners[ownerAddress].networkFee +\n              uint256(_currentNetworkFeeIndex() - _owners[ownerAddress].networkFeeIndex) *\n              _owners[ownerAddress].activeValidatorCount;\n    }\n\n    function _burnRate(address ownerAddress) private view returns (uint256 ownerBurnRate) {\n        if (_owners[ownerAddress].validatorsDisabled) {\n            return 0;\n        }\n\n        for (uint32 index = 0; index < _operatorsInUseList[ownerAddress].length; ++index) {\n            ownerBurnRate += _operatorInUseBurnRateWithNetworkFeeUnsafe(ownerAddress, _operatorsInUseList[ownerAddress][index]);\n        }\n\n        ownerBurnRate += _owners[ownerAddress].activeValidatorCount * _networkFee;\n\n        // uint32[] memory operatorsByOwner = _SafeStakeRegistryContract.getOperatorsByOwnerAddress(ownerAddress);\n\n        // for (uint32 index = 0; index < operatorsByOwner.length; ++index) {\n        //     if (ownerBurnRate <= _operatorEarnRate(operatorsByOwner[index])) {\n        //         return 0;\n        //     } else {\n        //         ownerBurnRate -= _operatorEarnRate(operatorsByOwner[index]);\n        //     }\n        // }\n    }\n\n    function _overdue(address ownerAddress) private view returns (bool) {\n        return _totalBalanceOf(ownerAddress) < _minimumBlocksValidatorPay * _burnRate(ownerAddress);\n    }\n\n    /**\n     * @dev liquidatable means whether the validator can pay for the minimal fee.\n     */\n    function _liquidatable(address ownerAddress) private view returns (bool) {\n        return !_owners[ownerAddress].validatorsDisabled && _overdue(ownerAddress);\n    }\n\n    // function _canLiquidate(address ownerAddress) private view returns (bool) {\n    //     return !_owners[ownerAddress].validatorsDisabled && (msg.sender == ownerAddress || _overdue(ownerAddress));\n    // }\n\n    function _getTotalNetworkEarnings() private view returns (uint256) {\n        uint256 result = _networkEarnings + (block.number - _networkEarningsBlockNumber) * _networkFee * _SafeStakeRegistryContract.activeValidatorCount();\n        return result;\n    }\n\n    function _getNetworkEarnings() private view returns (uint256) {\n        return _getTotalNetworkEarnings() - _withdrawnFromTreasury;\n    }\n\n    /**\n     * @dev Get operator index by address.\n     */\n    function _operatorIndexOf(uint32 operatorId) private view returns (uint256) {\n        return _operatorDatas[operatorId].index +\n               _SafeStakeRegistryContract.getOperatorFee(operatorId) *\n               (block.number - _operatorDatas[operatorId].indexBlockNumber);\n    }\n\n    function _operatorInUseUsageOf(OperatorInUse storage operatorInUseData, address ownerAddress, uint32 operatorId) private view returns (uint256) {\n        return operatorInUseData.used + (\n                _owners[ownerAddress].validatorsDisabled ? 0 :\n                (_operatorIndexOf(operatorId) - operatorInUseData.index) * operatorInUseData.validatorCount\n               );\n    }\n\n    function _operatorInUseBurnRateWithNetworkFeeUnsafe(address ownerAddress, uint32 operatorId) private view returns (uint256) {\n        // OperatorInUse storage operatorInUseData = _operatorsInUseByAddress[ownerAddress][operatorId];\n        return _SafeStakeRegistryContract.getOperatorFee(operatorId) * _operatorsInUseByAddress[ownerAddress][operatorId].validatorCount;\n    }\n\n    /**\n     * @dev Returns the current network fee index\n     */\n    function _currentNetworkFeeIndex() private view returns(uint256) {\n        return _networkFeeIndex + (block.number - _networkFeeIndexBlockNumber) * _networkFee;\n    }\n\n    function _onlyValidatorOwnerOrContractOwner(bytes calldata publicKey) private view {\n        address validatorOwner = _SafeStakeRegistryContract.getValidatorOwner(publicKey);\n        if (validatorOwner == address(0)) {\n            revert ValidatorWithPublicKeyNotExist();\n        }\n        if (msg.sender != validatorOwner && msg.sender != owner()) {\n            revert CallerNotValidatorOwner();\n        }\n    }\n\n    function _onlyOperatorOwnerOrContractOwner(uint32 operatorId) private view {\n        address operatorOwner = _SafeStakeRegistryContract.getOperatorOwner(operatorId);\n\n        if(operatorOwner == address(0)) {\n            revert OperatorWithPublicKeyNotExist();\n        }\n\n        if(msg.sender != operatorOwner && msg.sender != owner()) {\n            revert CallerNotOperatorOwner();\n        }\n    }\n\n    // function _onlyInitiatorOwner(uint32 initiatorId) private view {\n    //     address initiatorOwner = _SafeStakeRegistryContract.getInitiatorOwner(initiatorId);\n\n    //     if (initiatorOwner == address(0)) {\n    //         revert InitiatorNotExist();\n    //     }\n\n    //     if (msg.sender != initiatorOwner) {\n    //         revert CallerNotInitiatorOwner();\n    //     }\n    // }\n\n    // function _ensureMinimalOperatorFee(uint64 fee) private pure {\n    //     if (fee < MINIMAL_OPERATOR_FEE) {\n    //         revert FeeTooLow();\n    //     }\n    // }\n\n    \n\n\n    function version() external pure override returns (uint32) {\n        return 20000;\n    }\n\n    // function certifyOperatorFromDao(uint32 operatorId) external onlyOwner override {\n    //     _SafeStakeRegistryContract.certifyOperatorFromDao(operatorId);\n    // }\n\n    function getOperatorsInUseByOwnerAddress(address ownerAddress)\n        external override view\n        returns (uint32[] memory) {\n            return _operatorsInUseList[ownerAddress];\n    }\n\n    function getOperatorClaimBlock(uint32 operatorId) external view override returns (uint256) {\n        return _operatorDatas[operatorId].claimBlockNumber;\n    }\n\n    function getAccountPaidBlockNumber(address account) external view override returns (uint256) {\n        return _owners[account].paidBlockNumber;\n    }\n\n    uint256[50] ______gap;\n}",
  "sourcePath": "/Users/jiangjianlin/Github/safestake-tokenomics/contracts/SafeStakeNetwork.sol",
  "compiler": {
    "name": "solc",
    "version": "0.8.17+commit.8df45f5f.Emscripten.clang"
  },
  "schemaVersion": "3.4.10",
  "updatedAt": "2023-03-19T02:09:26.594Z",
  "devdoc": {
    "kind": "dev",
    "methods": {
      "addressNetworkFee(address)": {
        "details": "See {ISafeStakeNetwork-addressNetworkFee}."
      },
      "disableAddress(address)": {
        "details": "See {ISafeStakeNetwork-disableAddress}."
      },
      "getAddressBalance(address)": {
        "details": "Gets total balance for an owner.",
        "params": {
          "ownerAddress": "Owner's address."
        }
      },
      "getMinimumBlocksValidatorShouldPay()": {
        "details": "Returns the number of blocks left for an owner before they can be liquidated."
      },
      "getOperatorsInUseByOwnerAddress(address)": {
        "details": "Returns operators for owner which are in use.",
        "params": {
          "ownerAddress": "Owner's address."
        }
      },
      "initialize(address,address,uint64,uint64)": {
        "details": "Initializes the contract.",
        "params": {
          "minimumBlocksBeforeLiquidation_": "The minimum blocks before liquidation.",
          "registryAddress_": "The registry address.",
          "token_": "The network token."
        }
      },
      "initiatorStake(uint32,uint256)": {
        "details": "See {ISafeStakeNetwork-initiatorMiniPoolReady}."
      },
      "isLiquidatable(address)": {
        "details": "Check if an owner is liquidatable.",
        "params": {
          "ownerAddress": "Owner's address."
        }
      },
      "owner()": {
        "details": "Returns the address of the current owner."
      },
      "reactivateAccount(uint256)": {
        "details": "Enables msg.sender account.",
        "params": {
          "amount": "Tokens amount."
        }
      },
      "registerOperator(string,bytes)": {
        "details": "See {ISafeStakeNetwork-registerOperator}."
      },
      "registerValidator(bytes,uint32[],bytes[],bytes[],uint256)": {
        "details": "See {ISafeStakeNetwork-registerValidator}."
      },
      "removeValidator(bytes)": {
        "details": "See {ISafeStakeNetwork-removeValidator}."
      },
      "renounceOwnership()": {
        "details": "Leaves the contract without owner. It will not be possible to call `onlyOwner` functions anymore. Can only be called by the current owner. NOTE: Renouncing ownership will leave the contract without an owner, thereby removing any functionality that is only available to the owner."
      },
      "transferOwnership(address)": {
        "details": "Transfers ownership of the contract to a new account (`newOwner`). Can only be called by the current owner."
      },
      "updateNetworkFee(uint256)": {
        "details": "See {ISafeStakeNetwork-updateNetworkFee}."
      }
    },
    "version": 1
  },
  "userdoc": {
    "errors": {
      "ValidatorWithPublicKeyNotExist()": [
        {
          "notice": "errors "
        }
      ]
    },
    "kind": "user",
    "methods": {},
    "version": 1
  },
  "db": {
    "callBytecode": {
      "id": "0xf7c8029d0b48756f5b89b40f56286f3926caebbd63857555c3cb3e1befc28c32"
    },
    "createBytecode": {
      "id": "0x4e744a36b98928226181e49b9690171acde0865c736a2755dd9dfe36fb6e08b6"
    },
    "contract": {
      "id": "0x1efdc2b0467a6c61ca9182b804e4176e75529cb77f6240c2afaa428b4372d307"
    }
  }
}