{
  "contractName": "SafeStakeNetwork",
  "abi": [
    {
      "inputs": [],
      "name": "AccountAlreadyEnabled",
      "type": "error"
    },
    {
      "inputs": [],
      "name": "ApprovalNotWithinTimeframe",
      "type": "error"
    },
    {
      "inputs": [],
      "name": "BelowMinimumBlockPeriod",
      "type": "error"
    },
    {
      "inputs": [],
      "name": "BurnRatePositive",
      "type": "error"
    },
    {
      "inputs": [],
      "name": "CallerNotInitializerOwner",
      "type": "error"
    },
    {
      "inputs": [],
      "name": "CallerNotOperatorOwner",
      "type": "error"
    },
    {
      "inputs": [],
      "name": "CallerNotValidatorOwner",
      "type": "error"
    },
    {
      "inputs": [],
      "name": "ExceedManagingOperatorsPerAccountLimit",
      "type": "error"
    },
    {
      "inputs": [],
      "name": "FeeExceedsIncreaseLimit",
      "type": "error"
    },
    {
      "inputs": [],
      "name": "FeeTooLow",
      "type": "error"
    },
    {
      "inputs": [],
      "name": "InitializerNotExist",
      "type": "error"
    },
    {
      "inputs": [],
      "name": "NegativeBalance",
      "type": "error"
    },
    {
      "inputs": [],
      "name": "NoEnoughParaStateDaoOperators",
      "type": "error"
    },
    {
      "inputs": [],
      "name": "NoPendingFeeChangeRequest",
      "type": "error"
    },
    {
      "inputs": [],
      "name": "NotEnoughBalance",
      "type": "error"
    },
    {
      "inputs": [],
      "name": "OperatorWithPublicKeyNotExist",
      "type": "error"
    },
    {
      "inputs": [],
      "name": "ValidatorWithPublicKeyNotExist",
      "type": "error"
    },
    {
      "anonymous": false,
      "inputs": [
        {
          "indexed": true,
          "internalType": "address",
          "name": "ownerAddress",
          "type": "address"
        }
      ],
      "name": "AccountDisable",
      "type": "event"
    },
    {
      "anonymous": false,
      "inputs": [
        {
          "indexed": true,
          "internalType": "address",
          "name": "ownerAddress",
          "type": "address"
        }
      ],
      "name": "AccountEnable",
      "type": "event"
    },
    {
      "anonymous": false,
      "inputs": [
        {
          "indexed": false,
          "internalType": "uint256",
          "name": "value",
          "type": "uint256"
        },
        {
          "indexed": true,
          "internalType": "address",
          "name": "ownerAddress",
          "type": "address"
        },
        {
          "indexed": true,
          "internalType": "address",
          "name": "senderAddress",
          "type": "address"
        }
      ],
      "name": "FundsDeposit",
      "type": "event"
    },
    {
      "anonymous": false,
      "inputs": [
        {
          "indexed": false,
          "internalType": "uint256",
          "name": "value",
          "type": "uint256"
        },
        {
          "indexed": true,
          "internalType": "address",
          "name": "ownerAddress",
          "type": "address"
        }
      ],
      "name": "FundsWithdrawal",
      "type": "event"
    },
    {
      "anonymous": false,
      "inputs": [
        {
          "indexed": false,
          "internalType": "uint8",
          "name": "version",
          "type": "uint8"
        }
      ],
      "name": "Initialized",
      "type": "event"
    },
    {
      "anonymous": false,
      "inputs": [
        {
          "indexed": false,
          "internalType": "uint32",
          "name": "initializerId",
          "type": "uint32"
        },
        {
          "indexed": false,
          "internalType": "bytes",
          "name": "validatorPublicKey",
          "type": "bytes"
        },
        {
          "indexed": false,
          "internalType": "address",
          "name": "minipoolAddress",
          "type": "address"
        }
      ],
      "name": "InitializerMiniPoolCreated",
      "type": "event"
    },
    {
      "anonymous": false,
      "inputs": [
        {
          "indexed": false,
          "internalType": "uint32",
          "name": "initializerId",
          "type": "uint32"
        }
      ],
      "name": "InitializerMiniPoolReady",
      "type": "event"
    },
    {
      "anonymous": false,
      "inputs": [
        {
          "indexed": false,
          "internalType": "uint32",
          "name": "initializerId",
          "type": "uint32"
        },
        {
          "indexed": false,
          "internalType": "address",
          "name": "ownerAddress",
          "type": "address"
        },
        {
          "indexed": false,
          "internalType": "uint32[]",
          "name": "operatorIds",
          "type": "uint32[]"
        }
      ],
      "name": "InitializerRegistration",
      "type": "event"
    },
    {
      "anonymous": false,
      "inputs": [
        {
          "indexed": false,
          "internalType": "uint256",
          "name": "value",
          "type": "uint256"
        }
      ],
      "name": "LiquidationThresholdPeriodUpdate",
      "type": "event"
    },
    {
      "anonymous": false,
      "inputs": [
        {
          "indexed": false,
          "internalType": "uint256",
          "name": "value",
          "type": "uint256"
        }
      ],
      "name": "MinimumBlocksBeforeLiquidationUpdate",
      "type": "event"
    },
    {
      "anonymous": false,
      "inputs": [
        {
          "indexed": false,
          "internalType": "uint256",
          "name": "oldFee",
          "type": "uint256"
        },
        {
          "indexed": false,
          "internalType": "uint256",
          "name": "newFee",
          "type": "uint256"
        }
      ],
      "name": "NetworkFeeUpdate",
      "type": "event"
    },
    {
      "anonymous": false,
      "inputs": [
        {
          "indexed": false,
          "internalType": "uint256",
          "name": "value",
          "type": "uint256"
        },
        {
          "indexed": false,
          "internalType": "address",
          "name": "recipient",
          "type": "address"
        }
      ],
      "name": "NetworkFeesWithdrawal",
      "type": "event"
    },
    {
      "anonymous": false,
      "inputs": [
        {
          "indexed": false,
          "internalType": "uint256",
          "name": "value",
          "type": "uint256"
        }
      ],
      "name": "OperatorMaxFeeIncreaseUpdate",
      "type": "event"
    },
    {
      "anonymous": false,
      "inputs": [
        {
          "indexed": true,
          "internalType": "uint32",
          "name": "id",
          "type": "uint32"
        },
        {
          "indexed": false,
          "internalType": "string",
          "name": "name",
          "type": "string"
        },
        {
          "indexed": true,
          "internalType": "address",
          "name": "ownerAddress",
          "type": "address"
        },
        {
          "indexed": false,
          "internalType": "bytes",
          "name": "publicKey",
          "type": "bytes"
        }
      ],
      "name": "OperatorRegistration",
      "type": "event"
    },
    {
      "anonymous": false,
      "inputs": [
        {
          "indexed": false,
          "internalType": "uint32",
          "name": "operatorId",
          "type": "uint32"
        },
        {
          "indexed": true,
          "internalType": "address",
          "name": "ownerAddress",
          "type": "address"
        }
      ],
      "name": "OperatorRemoval",
      "type": "event"
    },
    {
      "anonymous": false,
      "inputs": [
        {
          "indexed": false,
          "internalType": "uint32",
          "name": "operatorId",
          "type": "uint32"
        },
        {
          "indexed": true,
          "internalType": "address",
          "name": "ownerAddress",
          "type": "address"
        },
        {
          "indexed": false,
          "internalType": "uint256",
          "name": "blockNumber",
          "type": "uint256"
        },
        {
          "indexed": false,
          "internalType": "uint256",
          "name": "score",
          "type": "uint256"
        }
      ],
      "name": "OperatorScoreUpdate",
      "type": "event"
    },
    {
      "anonymous": false,
      "inputs": [
        {
          "indexed": true,
          "internalType": "address",
          "name": "previousOwner",
          "type": "address"
        },
        {
          "indexed": true,
          "internalType": "address",
          "name": "newOwner",
          "type": "address"
        }
      ],
      "name": "OwnershipTransferred",
      "type": "event"
    },
    {
      "anonymous": false,
      "inputs": [
        {
          "indexed": false,
          "internalType": "uint256",
          "name": "value",
          "type": "uint256"
        }
      ],
      "name": "RegisteredOperatorsPerAccountLimitUpdate",
      "type": "event"
    },
    {
      "anonymous": false,
      "inputs": [
        {
          "indexed": true,
          "internalType": "address",
          "name": "ownerAddress",
          "type": "address"
        },
        {
          "indexed": false,
          "internalType": "bytes",
          "name": "publicKey",
          "type": "bytes"
        },
        {
          "indexed": false,
          "internalType": "uint32[]",
          "name": "operatorIds",
          "type": "uint32[]"
        },
        {
          "indexed": false,
          "internalType": "bytes[]",
          "name": "sharesPublicKeys",
          "type": "bytes[]"
        },
        {
          "indexed": false,
          "internalType": "bytes[]",
          "name": "encryptedKeys",
          "type": "bytes[]"
        },
        {
          "indexed": false,
          "internalType": "uint256",
          "name": "paidBlockNumber",
          "type": "uint256"
        }
      ],
      "name": "ValidatorRegistration",
      "type": "event"
    },
    {
      "anonymous": false,
      "inputs": [
        {
          "indexed": true,
          "internalType": "address",
          "name": "ownerAddress",
          "type": "address"
        },
        {
          "indexed": false,
          "internalType": "bytes",
          "name": "publicKey",
          "type": "bytes"
        }
      ],
      "name": "ValidatorRemoval",
      "type": "event"
    },
    {
      "anonymous": false,
      "inputs": [
        {
          "indexed": false,
          "internalType": "uint256",
          "name": "value",
          "type": "uint256"
        }
      ],
      "name": "ValidatorsPerOperatorLimitUpdate",
      "type": "event"
    },
    {
      "inputs": [],
      "name": "owner",
      "outputs": [
        {
          "internalType": "address",
          "name": "",
          "type": "address"
        }
      ],
      "stateMutability": "view",
      "type": "function",
      "constant": true
    },
    {
      "inputs": [],
      "name": "renounceOwnership",
      "outputs": [],
      "stateMutability": "nonpayable",
      "type": "function"
    },
    {
      "inputs": [
        {
          "internalType": "address",
          "name": "newOwner",
          "type": "address"
        }
      ],
      "name": "transferOwnership",
      "outputs": [],
      "stateMutability": "nonpayable",
      "type": "function"
    },
    {
      "inputs": [
        {
          "internalType": "contract ISafeStakeRegistry",
          "name": "registryAddress_",
          "type": "address"
        },
        {
          "internalType": "contract IERC20",
          "name": "token_",
          "type": "address"
        },
        {
          "internalType": "uint64",
          "name": "minimumBlocksBeforeLiquidation_",
          "type": "uint64"
        },
        {
          "internalType": "uint64",
          "name": "operatorFee",
          "type": "uint64"
        }
      ],
      "name": "initialize",
      "outputs": [],
      "stateMutability": "nonpayable",
      "type": "function"
    },
    {
      "inputs": [
        {
          "internalType": "string",
          "name": "name",
          "type": "string"
        },
        {
          "internalType": "bytes",
          "name": "publicKey",
          "type": "bytes"
        }
      ],
      "name": "registerOperator",
      "outputs": [
        {
          "internalType": "uint32",
          "name": "operatorId",
          "type": "uint32"
        }
      ],
      "stateMutability": "nonpayable",
      "type": "function"
    },
    {
      "inputs": [
        {
          "internalType": "uint32",
          "name": "operatorId",
          "type": "uint32"
        }
      ],
      "name": "removeOperator",
      "outputs": [],
      "stateMutability": "nonpayable",
      "type": "function"
    },
    {
      "inputs": [
        {
          "internalType": "bytes",
          "name": "publicKey",
          "type": "bytes"
        },
        {
          "internalType": "uint32[]",
          "name": "operatorIds",
          "type": "uint32[]"
        },
        {
          "internalType": "bytes[]",
          "name": "sharesPublicKeys",
          "type": "bytes[]"
        },
        {
          "internalType": "bytes[]",
          "name": "sharesEncrypted",
          "type": "bytes[]"
        },
        {
          "internalType": "uint256",
          "name": "amount",
          "type": "uint256"
        }
      ],
      "name": "registerValidator",
      "outputs": [],
      "stateMutability": "nonpayable",
      "type": "function"
    },
    {
      "inputs": [
        {
          "internalType": "uint32[]",
          "name": "operatorIds",
          "type": "uint32[]"
        }
      ],
      "name": "registerInitializer",
      "outputs": [
        {
          "internalType": "uint32",
          "name": "initializerId",
          "type": "uint32"
        }
      ],
      "stateMutability": "nonpayable",
      "type": "function"
    },
    {
      "inputs": [
        {
          "internalType": "uint32",
          "name": "initializerId",
          "type": "uint32"
        },
        {
          "internalType": "bytes",
          "name": "validatorPublicKey",
          "type": "bytes"
        },
        {
          "internalType": "address",
          "name": "miniPoolAddress",
          "type": "address"
        }
      ],
      "name": "initializerPreStake",
      "outputs": [],
      "stateMutability": "nonpayable",
      "type": "function"
    },
    {
      "inputs": [
        {
          "internalType": "uint32",
          "name": "initializerId",
          "type": "uint32"
        }
      ],
      "name": "initializerMiniPoolReady",
      "outputs": [],
      "stateMutability": "nonpayable",
      "type": "function"
    },
    {
      "inputs": [
        {
          "internalType": "uint32",
          "name": "initializerId",
          "type": "uint32"
        }
      ],
      "name": "initializerStake",
      "outputs": [],
      "stateMutability": "nonpayable",
      "type": "function"
    },
    {
      "inputs": [
        {
          "internalType": "bytes",
          "name": "publicKey",
          "type": "bytes"
        }
      ],
      "name": "removeValidator",
      "outputs": [],
      "stateMutability": "nonpayable",
      "type": "function"
    },
    {
      "inputs": [
        {
          "internalType": "address",
          "name": "ownerAddress",
          "type": "address"
        }
      ],
      "name": "disableAddress",
      "outputs": [],
      "stateMutability": "nonpayable",
      "type": "function"
    },
    {
      "inputs": [
        {
          "internalType": "uint256",
          "name": "amount",
          "type": "uint256"
        }
      ],
      "name": "reactivateAccount",
      "outputs": [],
      "stateMutability": "nonpayable",
      "type": "function"
    },
    {
      "inputs": [
        {
          "internalType": "uint256",
          "name": "fee",
          "type": "uint256"
        }
      ],
      "name": "updateNetworkFee",
      "outputs": [],
      "stateMutability": "nonpayable",
      "type": "function"
    },
    {
      "inputs": [
        {
          "internalType": "uint256",
          "name": "amount",
          "type": "uint256"
        }
      ],
      "name": "withdrawNetworkEarnings",
      "outputs": [],
      "stateMutability": "nonpayable",
      "type": "function"
    },
    {
      "inputs": [],
      "name": "version",
      "outputs": [
        {
          "internalType": "uint32",
          "name": "",
          "type": "uint32"
        }
      ],
      "stateMutability": "pure",
      "type": "function",
      "constant": true
    }
  ],
  "bytecode": "0x608060405234801561001057600080fd5b50615f6f80620000216000396000f3fe608060405234801561001057600080fd5b506004361061010b5760003560e01c806385f79d61116100a2578063d223174111610071578063d22317411461027a578063e40cb19d14610296578063f2fde38b146102b2578063f362dfd9146102ce578063ff131354146102ea5761010b565b806385f79d61146101f45780638da5cb5b146102245780639b4400dd14610242578063b2f569c51461025e5761010b565b806354fd4d50116100de57806354fd4d501461018057806364bf3eef1461019e578063715018a6146101ba5780637fa93ede146101c45761010b565b80631f1f9fd5146101105780632afe872f1461012c5780632e1d2f05146101485780635036258b14610164575b600080fd5b61012a60048036038101906101259190614853565b610306565b005b61014660048036038101906101419190614853565b610427565b005b610162600480360381019061015d91906148bc565b610546565b005b61017e60048036038101906101799190614947565b6106db565b005b61018861080e565b6040516101959190614983565b60405180910390f35b6101b860048036038101906101b391906148bc565b610818565b005b6101c26108e8565b005b6101de60048036038101906101d99190614a03565b610970565b6040516101eb9190614983565b60405180910390f35b61020e60048036038101906102099190614afc565b610a99565b60405161021b9190614983565b60405180910390f35b61022c610ca5565b6040516102399190614b8c565b60405180910390f35b61025c60048036038101906102579190614c63565b610ccf565b005b61027860048036038101906102739190614cca565b610d6b565b005b610294600480360381019061028f9190614853565b610de6565b005b6102b060048036038101906102ab9190614d6d565b610fef565b005b6102cc60048036038101906102c79190614947565b61101d565b005b6102e860048036038101906102e391906148bc565b611114565b005b61030460048036038101906102ff9190614e69565b6111ad565b005b61030e61128c565b73ffffffffffffffffffffffffffffffffffffffff1661032c610ca5565b73ffffffffffffffffffffffffffffffffffffffff1614610382576040517f08c379a000000000000000000000000000000000000000000000000000000000815260040161037990614f3a565b60405180910390fd5b7fb12de2022a8c992455195d1cdfe49c528c96a325adc99e12b6eab59d56654ea26103cc606760009054906101000a900467ffffffffffffffff1667ffffffffffffffff16611294565b826040516103db929190614f69565b60405180910390a16103eb6112c0565b6103f36112f9565b6103fc81611332565b606760006101000a81548167ffffffffffffffff021916908367ffffffffffffffff16021790555050565b606d60003373ffffffffffffffffffffffffffffffffffffffff1673ffffffffffffffffffffffffffffffffffffffff168152602001908152602001600020600101600c9054906101000a900460ff166104ad576040517f44fab0e000000000000000000000000000000000000000000000000000000000815260040160405180910390fd5b6104b733826113ae565b6104c03361154d565b6104c933611818565b15610500576040517fad3a8b9e00000000000000000000000000000000000000000000000000000000815260040160405180910390fd5b3373ffffffffffffffffffffffffffffffffffffffff167fd2cad6abfa380a10a84c0e561544f8deb6eea7dd29a411fa306f902aa6ac5eca60405160405180910390a250565b8061055081611883565b6000606560009054906101000a900473ffffffffffffffffffffffffffffffffffffffff1673ffffffffffffffffffffffffffffffffffffffff1663e7b21748846040518263ffffffff1660e01b81526004016105ad9190614983565b602060405180830381865afa1580156105ca573d6000803e3d6000fd5b505050506040513d601f19601f820116820180604052508101906105ee9190614fa7565b90506105fb836000611a33565b606560009054906101000a900473ffffffffffffffffffffffffffffffffffffffff1673ffffffffffffffffffffffffffffffffffffffff16632e1d2f05846040518263ffffffff1660e01b81526004016106569190614983565b600060405180830381600087803b15801561067057600080fd5b505af1158015610684573d6000803e3d6000fd5b505050508073ffffffffffffffffffffffffffffffffffffffff167f10b90e3d042178ee9b3e99a849224b4bf4145b9855274073c0c6bca9c5113b7b846040516106ce9190614983565b60405180910390a2505050565b6106e361128c565b73ffffffffffffffffffffffffffffffffffffffff16610701610ca5565b73ffffffffffffffffffffffffffffffffffffffff1614610757576040517f08c379a000000000000000000000000000000000000000000000000000000000815260040161074e90614f3a565b60405180910390fd5b606d60008273ffffffffffffffffffffffffffffffffffffffff1673ffffffffffffffffffffffffffffffffffffffff168152602001908152602001600020600101600c9054906101000a900460ff161580156107b957506107b881611afd565b5b1561080b576107c781611b4e565b8073ffffffffffffffffffffffffffffffffffffffff167fbcdf297ed7902fea73305fee14ec4d4704e2588ceffffef11e2543ef396cd79860405160405180910390a25b50565b6000614e20905090565b61082181611e19565b606560009054906101000a900473ffffffffffffffffffffffffffffffffffffffff1673ffffffffffffffffffffffffffffffffffffffff1663e3b0715e826040518263ffffffff1660e01b815260040161087c9190614983565b600060405180830381600087803b15801561089657600080fd5b505af11580156108aa573d6000803e3d6000fd5b505050507fa7a1f49e9189b6d804b1d64265af8d15d337dd88b38a8e4e06a31931b726f7f5816040516108dd9190614983565b60405180910390a150565b6108f061128c565b73ffffffffffffffffffffffffffffffffffffffff1661090e610ca5565b73ffffffffffffffffffffffffffffffffffffffff1614610964576040517f08c379a000000000000000000000000000000000000000000000000000000000815260040161095b90614f3a565b60405180910390fd5b61096e6000611f88565b565b600061097c838361204e565b6109b2576040517fb7a5938000000000000000000000000000000000000000000000000000000000815260040160405180910390fd5b606560009054906101000a900473ffffffffffffffffffffffffffffffffffffffff1673ffffffffffffffffffffffffffffffffffffffff16630906cbc23385856040518463ffffffff1660e01b8152600401610a1193929190615097565b6020604051808303816000875af1158015610a30573d6000803e3d6000fd5b505050506040513d601f19601f82011682018060405250810190610a5491906150de565b90507f4f4c981e441ec7803ad8fd83e89f9b4cc199f7eebb543b8bda1b629260b510c081338585604051610a8b949392919061510b565b60405180910390a192915050565b6000606560009054906101000a900473ffffffffffffffffffffffffffffffffffffffff1673ffffffffffffffffffffffffffffffffffffffff16631940d38786863387876040518663ffffffff1660e01b8152600401610afe9594939291906151d6565b6020604051808303816000875af1158015610b1d573d6000803e3d6000fd5b505050506040513d601f19601f82011682018060405250810190610b4191906150de565b90506040518060a00160405280438152602001600067ffffffffffffffff168152602001600067ffffffffffffffff168152602001438152602001600063ffffffff16815250606c60008363ffffffff1663ffffffff1681526020019081526020016000206000820151816000015560208201518160010160006101000a81548167ffffffffffffffff021916908367ffffffffffffffff16021790555060408201518160010160086101000a81548167ffffffffffffffff021916908367ffffffffffffffff1602179055506060820151816002015560808201518160030160006101000a81548163ffffffff021916908363ffffffff1602179055509050503373ffffffffffffffffffffffffffffffffffffffff168163ffffffff167fa837adf7db87879179d994c48f4275ae84c6ea7ba2ff625b1e121b5a6f42317d87878787604051610c95949392919061521f565b60405180910390a3949350505050565b6000603360009054906101000a900473ffffffffffffffffffffffffffffffffffffffff16905090565b6000610cdb600161216d565b90508015610cff576001600060016101000a81548160ff0219169083151502179055505b610d0b8585858561225d565b8015610d645760008060016101000a81548160ff0219169083151502179055507f7f26b83ff96e1f2b6a682f133852f6798a09c465da95921460cefb38474024986001604051610d5b91906152ac565b60405180910390a15b5050505050565b8181610d778282612301565b610d7f6112c0565b610d88336124b4565b610dd63385858080601f016020809104026020016040519081016040528093929190818152602001838380828437600081840152601f19601f82011690508083019250505050505050612598565b610ddf3361275b565b5050505050565b610dee61128c565b73ffffffffffffffffffffffffffffffffffffffff16610e0c610ca5565b73ffffffffffffffffffffffffffffffffffffffff1614610e62576040517f08c379a0000000000000000000000000000000000000000000000000000000008152600401610e5990614f3a565b60405180910390fd5b610e6a61289b565b67ffffffffffffffff16610e7d82611332565b67ffffffffffffffff161115610ebf576040517fad3a8b9e00000000000000000000000000000000000000000000000000000000815260040160405180910390fd5b610ec881611332565b606b60008282829054906101000a900467ffffffffffffffff16610eec91906152f6565b92506101000a81548167ffffffffffffffff021916908367ffffffffffffffff160217905550606660009054906101000a900473ffffffffffffffffffffffffffffffffffffffff1673ffffffffffffffffffffffffffffffffffffffff1663a9059cbb33836040518363ffffffff1660e01b8152600401610f6f929190615332565b6020604051808303816000875af1158015610f8e573d6000803e3d6000fd5b505050506040513d601f19601f82011682018060405250810190610fb29190615393565b507f5564de4b05294182a45c60836e9c0ba86d5c351cf1c0db79e4fe5dd04786de1a8133604051610fe49291906153c0565b60405180910390a150565b610ff76112c0565b611000336124b4565b611012338a8a8a8a8a8a8a8a8a6128cb565b505050505050505050565b61102561128c565b73ffffffffffffffffffffffffffffffffffffffff16611043610ca5565b73ffffffffffffffffffffffffffffffffffffffff1614611099576040517f08c379a000000000000000000000000000000000000000000000000000000000815260040161109090614f3a565b60405180910390fd5b600073ffffffffffffffffffffffffffffffffffffffff168173ffffffffffffffffffffffffffffffffffffffff1603611108576040517f08c379a00000000000000000000000000000000000000000000000000000000081526004016110ff9061545b565b60405180910390fd5b61111181611f88565b50565b61111d81611e19565b606560009054906101000a900473ffffffffffffffffffffffffffffffffffffffff1673ffffffffffffffffffffffffffffffffffffffff1663f362dfd9826040518263ffffffff1660e01b81526004016111789190614983565b600060405180830381600087803b15801561119257600080fd5b505af11580156111a6573d6000803e3d6000fd5b5050505050565b6111b684611e19565b606560009054906101000a900473ffffffffffffffffffffffffffffffffffffffff1673ffffffffffffffffffffffffffffffffffffffff1663d85edef2858585856040518563ffffffff1660e01b8152600401611217949392919061547b565b600060405180830381600087803b15801561123157600080fd5b505af1158015611245573d6000803e3d6000fd5b505050507f6f65862ac449fcf43e1ddb6cf87fc8eaadc97be16c1a9328ea091c074baed7d08484848460405161127e949392919061547b565b60405180910390a150505050565b600033905090565b60006298968067ffffffffffffffff168267ffffffffffffffff166112b991906154bb565b9050919050565b6112c8612bb4565b606960006101000a81548167ffffffffffffffff021916908367ffffffffffffffff16021790555043606a81905550565b611301612cc5565b606760086101000a81548167ffffffffffffffff021916908367ffffffffffffffff16021790555043606881905550565b6000806298968067ffffffffffffffff168361134e919061552c565b1461138e576040517f08c379a0000000000000000000000000000000000000000000000000000000008152600401611385906155cf565b60405180910390fd5b6298968067ffffffffffffffff16826113a791906155ef565b9050919050565b606660009054906101000a900473ffffffffffffffffffffffffffffffffffffffff1673ffffffffffffffffffffffffffffffffffffffff166323b872dd3330846040518463ffffffff1660e01b815260040161140d93929190615620565b6020604051808303816000875af115801561142c573d6000803e3d6000fd5b505050506040513d601f19601f820116820180604052508101906114509190615393565b5061145a81611332565b606d60008473ffffffffffffffffffffffffffffffffffffffff1673ffffffffffffffffffffffffffffffffffffffff16815260200190815260200160002060000160008282829054906101000a900467ffffffffffffffff166114be91906152f6565b92506101000a81548167ffffffffffffffff021916908367ffffffffffffffff1602179055503373ffffffffffffffffffffffffffffffffffffffff168273ffffffffffffffffffffffffffffffffffffffff167fb91f78378ad1ce7b5c12301896eac25f50d4603d0301406595e6fdfa6ffd6419836040516115419190615657565b60405180910390a35050565b6115556112c0565b61155e816124b4565b60005b606f60008373ffffffffffffffffffffffffffffffffffffffff1673ffffffffffffffffffffffffffffffffffffffff168152602001908152602001600020805490508163ffffffff16101561172c576000606f60008473ffffffffffffffffffffffffffffffffffffffff1673ffffffffffffffffffffffffffffffffffffffff1681526020019081526020016000208263ffffffff168154811061160a57611609615672565b5b90600052602060002090600891828204019190066004029054906101000a900463ffffffff16905061163b81612d1c565b6000606e60008573ffffffffffffffffffffffffffffffffffffffff1673ffffffffffffffffffffffffffffffffffffffff16815260200190815260200160002060008363ffffffff1663ffffffff16815260200190815260200160002090506116a6818584612d7f565b8060000160109054906101000a900463ffffffff16606c60008463ffffffff1663ffffffff16815260200190815260200160002060030160008282829054906101000a900463ffffffff166116fb91906156a1565b92506101000a81548163ffffffff021916908363ffffffff160217905550505080611725906156d9565b9050611561565b50606560009054906101000a900473ffffffffffffffffffffffffffffffffffffffff1673ffffffffffffffffffffffffffffffffffffffff166345413bf4826040518263ffffffff1660e01b81526004016117889190614b8c565b600060405180830381600087803b1580156117a257600080fd5b505af11580156117b6573d6000803e3d6000fd5b505050506000606d60008373ffffffffffffffffffffffffffffffffffffffff1673ffffffffffffffffffffffffffffffffffffffff168152602001908152602001600020600101600c6101000a81548160ff02191690831515021790555050565b6000606d60008373ffffffffffffffffffffffffffffffffffffffff1673ffffffffffffffffffffffffffffffffffffffff168152602001908152602001600020600101600c9054906101000a900460ff1615801561187c575061187b82611afd565b5b9050919050565b6000606560009054906101000a900473ffffffffffffffffffffffffffffffffffffffff1673ffffffffffffffffffffffffffffffffffffffff1663e7b21748836040518263ffffffff1660e01b81526004016118e09190614983565b602060405180830381865afa1580156118fd573d6000803e3d6000fd5b505050506040513d601f19601f820116820180604052508101906119219190614fa7565b9050600073ffffffffffffffffffffffffffffffffffffffff168173ffffffffffffffffffffffffffffffffffffffff1603611989576040517fd5528c8600000000000000000000000000000000000000000000000000000000815260040160405180910390fd5b8073ffffffffffffffffffffffffffffffffffffffff163373ffffffffffffffffffffffffffffffffffffffff16141580156119f857506119c8610ca5565b73ffffffffffffffffffffffffffffffffffffffff163373ffffffffffffffffffffffffffffffffffffffff1614155b15611a2f576040517fec4de4c900000000000000000000000000000000000000000000000000000000815260040160405180910390fd5b5050565b611a3c82612dec565b43606c60008463ffffffff1663ffffffff16815260200190815260200160002060020181905550611a6c82612d1c565b606560009054906101000a900473ffffffffffffffffffffffffffffffffffffffff1673ffffffffffffffffffffffffffffffffffffffff166341d2c0cd826040518263ffffffff1660e01b8152600401611ac79190615714565b600060405180830381600087803b158015611ae157600080fd5b505af1158015611af5573d6000803e3d6000fd5b505050505050565b6000611b0882612e40565b606660149054906101000a900467ffffffffffffffff16611b29919061572f565b67ffffffffffffffff16611b3c8361275b565b67ffffffffffffffff16109050919050565b611b566112c0565b611b5f816124b4565b60005b606f60008373ffffffffffffffffffffffffffffffffffffffff1673ffffffffffffffffffffffffffffffffffffffff168152602001908152602001600020805490508163ffffffff161015611d2d576000606f60008473ffffffffffffffffffffffffffffffffffffffff1673ffffffffffffffffffffffffffffffffffffffff1681526020019081526020016000208263ffffffff1681548110611c0b57611c0a615672565b5b90600052602060002090600891828204019190066004029054906101000a900463ffffffff169050611c3c81612d1c565b6000606e60008573ffffffffffffffffffffffffffffffffffffffff1673ffffffffffffffffffffffffffffffffffffffff16815260200190815260200160002060008363ffffffff1663ffffffff1681526020019081526020016000209050611ca7818584612d7f565b8060000160109054906101000a900463ffffffff16606c60008463ffffffff1663ffffffff16815260200190815260200160002060030160008282829054906101000a900463ffffffff16611cfc919061576c565b92506101000a81548163ffffffff021916908363ffffffff160217905550505080611d26906156d9565b9050611b62565b50606560009054906101000a900473ffffffffffffffffffffffffffffffffffffffff1673ffffffffffffffffffffffffffffffffffffffff166327467a18826040518263ffffffff1660e01b8152600401611d899190614b8c565b600060405180830381600087803b158015611da357600080fd5b505af1158015611db7573d6000803e3d6000fd5b505050506001606d60008373ffffffffffffffffffffffffffffffffffffffff1673ffffffffffffffffffffffffffffffffffffffff168152602001908152602001600020600101600c6101000a81548160ff02191690831515021790555050565b6000606560009054906101000a900473ffffffffffffffffffffffffffffffffffffffff1673ffffffffffffffffffffffffffffffffffffffff16638c353138836040518263ffffffff1660e01b8152600401611e769190614983565b602060405180830381865afa158015611e93573d6000803e3d6000fd5b505050506040513d601f19601f82011682018060405250810190611eb79190614fa7565b9050600073ffffffffffffffffffffffffffffffffffffffff168173ffffffffffffffffffffffffffffffffffffffff1603611f1f576040517fa9d3e6de00000000000000000000000000000000000000000000000000000000815260040160405180910390fd5b8073ffffffffffffffffffffffffffffffffffffffff163373ffffffffffffffffffffffffffffffffffffffff1614611f84576040517f3c7d82c300000000000000000000000000000000000000000000000000000000815260040160405180910390fd5b5050565b6000603360009054906101000a900473ffffffffffffffffffffffffffffffffffffffff16905081603360006101000a81548173ffffffffffffffffffffffffffffffffffffffff021916908373ffffffffffffffffffffffffffffffffffffffff1602179055508173ffffffffffffffffffffffffffffffffffffffff168173ffffffffffffffffffffffffffffffffffffffff167f8be0079c531659141344cd1fd0a4f28419497f9722a3daafe3b4186f6b6457e060405160405180910390a35050565b6000806000905060005b848490508163ffffffff16101561215b57600085858363ffffffff1681811061208457612083615672565b5b905060200201602081019061209991906148bc565b9050606560009054906101000a900473ffffffffffffffffffffffffffffffffffffffff1673ffffffffffffffffffffffffffffffffffffffff166359399696826040518263ffffffff1660e01b81526004016120f69190614983565b602060405180830381865afa158015612113573d6000803e3d6000fd5b505050506040513d601f19601f820116820180604052508101906121379190615393565b156121495782612146906157a4565b92505b5080612154906156d9565b9050612058565b5060028160ff16101591505092915050565b60008060019054906101000a900460ff16156121e45760018260ff1614801561219c575061219a30613173565b155b6121db576040517f08c379a00000000000000000000000000000000000000000000000000000000081526004016121d29061583f565b60405180910390fd5b60009050612258565b8160ff1660008054906101000a900460ff1660ff1610612239576040517f08c379a00000000000000000000000000000000000000000000000000000000081526004016122309061583f565b60405180910390fd5b816000806101000a81548160ff021916908360ff160217905550600190505b919050565b6000612269600161216d565b9050801561228d576001600060016101000a81548160ff0219169083151502179055505b612295613196565b6122a1858585856131f7565b80156122fa5760008060016101000a81548160ff0219169083151502179055507f7f26b83ff96e1f2b6a682f133852f6798a09c465da95921460cefb384740249860016040516122f191906152ac565b60405180910390a15b5050505050565b6000606560009054906101000a900473ffffffffffffffffffffffffffffffffffffffff1673ffffffffffffffffffffffffffffffffffffffff1663c87b303884846040518363ffffffff1660e01b815260040161236092919061585f565b602060405180830381865afa15801561237d573d6000803e3d6000fd5b505050506040513d601f19601f820116820180604052508101906123a19190614fa7565b9050600073ffffffffffffffffffffffffffffffffffffffff168173ffffffffffffffffffffffffffffffffffffffff1603612409576040517f8791c3b400000000000000000000000000000000000000000000000000000000815260040160405180910390fd5b8073ffffffffffffffffffffffffffffffffffffffff163373ffffffffffffffffffffffffffffffffffffffff16141580156124785750612448610ca5565b73ffffffffffffffffffffffffffffffffffffffff163373ffffffffffffffffffffffffffffffffffffffff1614155b156124af576040517f11ecf9f200000000000000000000000000000000000000000000000000000000815260040160405180910390fd5b505050565b6124bd81613364565b606d60008373ffffffffffffffffffffffffffffffffffffffff1673ffffffffffffffffffffffffffffffffffffffff16815260200190815260200160002060000160186101000a81548167ffffffffffffffff021916908367ffffffffffffffff16021790555061252d612cc5565b606d60008373ffffffffffffffffffffffffffffffffffffffff1673ffffffffffffffffffffffffffffffffffffffff16815260200190815260200160002060010160006101000a81548167ffffffffffffffff021916908367ffffffffffffffff16021790555050565b6125a2828261349a565b606560009054906101000a900473ffffffffffffffffffffffffffffffffffffffff1673ffffffffffffffffffffffffffffffffffffffff1663b2f569c5826040518263ffffffff1660e01b81526004016125fd91906158f1565b600060405180830381600087803b15801561261757600080fd5b505af115801561262b573d6000803e3d6000fd5b50505050606d60008373ffffffffffffffffffffffffffffffffffffffff1673ffffffffffffffffffffffffffffffffffffffff168152602001908152602001600020600101600c9054906101000a900460ff1661270057606d60008373ffffffffffffffffffffffffffffffffffffffff1673ffffffffffffffffffffffffffffffffffffffff168152602001908152602001600020600101600881819054906101000a900463ffffffff166126e190615913565b91906101000a81548163ffffffff021916908363ffffffff1602179055505b61270982613652565b8173ffffffffffffffffffffffffffffffffffffffff167f671ada3835502b9498e4a3116c344293ec3a4ef43f90bb42283d7d66a3f772b28260405161274f91906158f1565b60405180910390a25050565b60008061276783613733565b606d60008573ffffffffffffffffffffffffffffffffffffffff1673ffffffffffffffffffffffffffffffffffffffff16815260200190815260200160002060000160009054906101000a900467ffffffffffffffff166127c891906152f6565b905060006127d584613843565b606d60008673ffffffffffffffffffffffffffffffffffffffff1673ffffffffffffffffffffffffffffffffffffffff16815260200190815260200160002060000160089054906101000a900467ffffffffffffffff1661283691906152f6565b90508067ffffffffffffffff168267ffffffffffffffff161015612886576040517f5e13ed3100000000000000000000000000000000000000000000000000000000815260040160405180910390fd5b8082612892919061593c565b92505050919050565b6000606b60009054906101000a900467ffffffffffffffff166128bc612bb4565b6128c6919061593c565b905090565b606560009054906101000a900473ffffffffffffffffffffffffffffffffffffffff1673ffffffffffffffffffffffffffffffffffffffff16639b4ddb5d8b8b8b8b8b8b8b8b8b6040518a63ffffffff1660e01b815260040161293699989796959493929190615adc565b600060405180830381600087803b15801561295057600080fd5b505af1158015612964573d6000803e3d6000fd5b505050506000606d60008c73ffffffffffffffffffffffffffffffffffffffff1673ffffffffffffffffffffffffffffffffffffffff168152602001908152602001600020905043816002018190555080600101600c9054906101000a900460ff16612a095780600101600881819054906101000a900463ffffffff166129ea906156d9565b91906101000a81548163ffffffff021916908363ffffffff1602179055505b60005b888890508163ffffffff161015612ae757600089898363ffffffff16818110612a3857612a37615672565b5b9050602002016020810190612a4d91906148bc565b9050612a5881612d1c565b82600101600c9054906101000a900460ff16612acb57606c60008263ffffffff1663ffffffff168152602001908152602001600020600301600081819054906101000a900463ffffffff16612aac906156d9565b91906101000a81548163ffffffff021916908363ffffffff1602179055505b612ad58d82613a91565b5080612ae0906156d9565b9050612a0c565b506000821115612afc57612afb33836113ae565b5b612b058b611818565b15612b3c576040517fad3a8b9e00000000000000000000000000000000000000000000000000000000815260040160405180910390fd5b612b458b613652565b8a73ffffffffffffffffffffffffffffffffffffffff167f610eb3c1fafe229af536e91b7e00486902d54d54d8d3f0de283a467ac8f985bf8b8b8b8b8b8b8b8b8a60020154604051612b9f99989796959493929190615b53565b60405180910390a25050505050505050505050565b600080606560009054906101000a900473ffffffffffffffffffffffffffffffffffffffff1673ffffffffffffffffffffffffffffffffffffffff16632340e8d36040518163ffffffff1660e01b8152600401602060405180830381865afa158015612c24573d6000803e3d6000fd5b505050506040513d601f19601f82011682018060405250810190612c4891906150de565b63ffffffff16606760009054906101000a900467ffffffffffffffff1667ffffffffffffffff16606a5443612c7d9190615bca565b612c8791906154bb565b612c9191906154bb565b606960009054906101000a900467ffffffffffffffff1667ffffffffffffffff16612cbc9190615bfe565b90508091505090565b6000606760009054906101000a900467ffffffffffffffff1660685443612cec9190615bca565b612cf6919061572f565b606760089054906101000a900467ffffffffffffffff16612d1791906152f6565b905090565b6000606c60008363ffffffff1663ffffffff1681526020019081526020016000209050612d4882613aa1565b8160010160006101000a81548167ffffffffffffffff021916908367ffffffffffffffff1602179055504381600001819055505050565b612d8a838383613b2c565b8360000160086101000a81548167ffffffffffffffff021916908367ffffffffffffffff160217905550612dbd81613c07565b8360000160006101000a81548167ffffffffffffffff021916908367ffffffffffffffff160217905550505050565b612df581613c07565b606c60008363ffffffff1663ffffffff16815260200190815260200160002060010160086101000a81548167ffffffffffffffff021916908367ffffffffffffffff16021790555050565b6000606d60008373ffffffffffffffffffffffffffffffffffffffff1673ffffffffffffffffffffffffffffffffffffffff168152602001908152602001600020600101600c9054906101000a900460ff1615612ea0576000905061316e565b60005b606f60008473ffffffffffffffffffffffffffffffffffffffff1673ffffffffffffffffffffffffffffffffffffffff168152602001908152602001600020805490508163ffffffff161015612f9757612f7983606f60008673ffffffffffffffffffffffffffffffffffffffff1673ffffffffffffffffffffffffffffffffffffffff1681526020019081526020016000208363ffffffff1681548110612f4e57612f4d615672565b5b90600052602060002090600891828204019190066004029054906101000a900463ffffffff16613d1a565b82612f8491906152f6565b915080612f90906156d9565b9050612ea3565b50606760009054906101000a900467ffffffffffffffff16606d60008473ffffffffffffffffffffffffffffffffffffffff1673ffffffffffffffffffffffffffffffffffffffff16815260200190815260200160002060010160089054906101000a900463ffffffff1663ffffffff16613012919061572f565b8161301d91906152f6565b90506000606560009054906101000a900473ffffffffffffffffffffffffffffffffffffffff1673ffffffffffffffffffffffffffffffffffffffff16630dc1eeff846040518263ffffffff1660e01b815260040161307c9190614b8c565b600060405180830381865afa158015613099573d6000803e3d6000fd5b505050506040513d6000823e3d601f19601f820116820180604052508101906130c29190615d70565b905060005b81518163ffffffff16101561316b576130ff828263ffffffff16815181106130f2576130f1615672565b5b6020026020010151613e35565b67ffffffffffffffff168367ffffffffffffffff16116131245760009250505061316e565b61314d828263ffffffff16815181106131405761313f615672565b5b6020026020010151613e35565b83613158919061593c565b925080613164906156d9565b90506130c7565b50505b919050565b6000808273ffffffffffffffffffffffffffffffffffffffff163b119050919050565b600060019054906101000a900460ff166131e5576040517f08c379a00000000000000000000000000000000000000000000000000000000081526004016131dc90615e2b565b60405180910390fd5b6131f56131f061128c565b611f88565b565b600060019054906101000a900460ff16613246576040517f08c379a000000000000000000000000000000000000000000000000000000000815260040161323d90615e2b565b60405180910390fd5b83606560006101000a81548173ffffffffffffffffffffffffffffffffffffffff021916908373ffffffffffffffffffffffffffffffffffffffff16021790555082606660006101000a81548173ffffffffffffffffffffffffffffffffffffffff021916908373ffffffffffffffffffffffffffffffffffffffff1602179055506132d182613f12565b606560009054906101000a900473ffffffffffffffffffffffffffffffffffffffff1673ffffffffffffffffffffffffffffffffffffffff1663eb92db27826040518263ffffffff1660e01b815260040161332c9190615714565b600060405180830381600087803b15801561334657600080fd5b505af115801561335a573d6000803e3d6000fd5b5050505050505050565b6000606d60008373ffffffffffffffffffffffffffffffffffffffff1673ffffffffffffffffffffffffffffffffffffffff16815260200190815260200160002060010160089054906101000a900463ffffffff1663ffffffff16606d60008473ffffffffffffffffffffffffffffffffffffffff1673ffffffffffffffffffffffffffffffffffffffff16815260200190815260200160002060010160009054906101000a900467ffffffffffffffff1661341e612cc5565b613428919061593c565b613432919061572f565b606d60008473ffffffffffffffffffffffffffffffffffffffff1673ffffffffffffffffffffffffffffffffffffffff16815260200190815260200160002060000160189054906101000a900467ffffffffffffffff1661349391906152f6565b9050919050565b6000606560009054906101000a900473ffffffffffffffffffffffffffffffffffffffff1673ffffffffffffffffffffffffffffffffffffffff1663053e8349836040518263ffffffff1660e01b81526004016134f791906158f1565b600060405180830381865afa158015613514573d6000803e3d6000fd5b505050506040513d6000823e3d601f19601f8201168201806040525081019061353d9190615d70565b905060005b81518163ffffffff16101561364c576000828263ffffffff168151811061356c5761356b615672565b5b6020026020010151905061357f81612d1c565b606d60008673ffffffffffffffffffffffffffffffffffffffff1673ffffffffffffffffffffffffffffffffffffffff168152602001908152602001600020600101600c9054906101000a900460ff1661363057606c60008263ffffffff1663ffffffff168152602001908152602001600020600301600081819054906101000a900463ffffffff1661361190615913565b91906101000a81548163ffffffff021916908363ffffffff1602179055505b61363a8582613f8b565b5080613645906156d9565b9050613542565b50505050565b600061365d82612e40565b67ffffffffffffffff16036136b85743606d60008373ffffffffffffffffffffffffffffffffffffffff1673ffffffffffffffffffffffffffffffffffffffff16815260200190815260200160002060020181905550613730565b6136c181612e40565b6136ca8261275b565b6136d49190615e4b565b67ffffffffffffffff16436136e99190615bfe565b606d60008373ffffffffffffffffffffffffffffffffffffffff1673ffffffffffffffffffffffffffffffffffffffff168152602001908152602001600020600201819055505b50565b600080600090506000606560009054906101000a900473ffffffffffffffffffffffffffffffffffffffff1673ffffffffffffffffffffffffffffffffffffffff16630dc1eeff856040518263ffffffff1660e01b81526004016137979190614b8c565b600060405180830381865afa1580156137b4573d6000803e3d6000fd5b505050506040513d6000823e3d601f19601f820116820180604052508101906137dd9190615d70565b905060005b81518163ffffffff1610156138385761381a828263ffffffff168151811061380d5761380c615672565b5b6020026020010151613aa1565b8361382591906152f6565b925080613831906156d9565b90506137e2565b508192505050919050565b60008061384f83613364565b606d60008573ffffffffffffffffffffffffffffffffffffffff1673ffffffffffffffffffffffffffffffffffffffff16815260200190815260200160002060000160109054906101000a900467ffffffffffffffff166138b091906152f6565b905060005b606f60008573ffffffffffffffffffffffffffffffffffffffff1673ffffffffffffffffffffffffffffffffffffffff168152602001908152602001600020805490508163ffffffff161015613a87576000606e60008673ffffffffffffffffffffffffffffffffffffffff1673ffffffffffffffffffffffffffffffffffffffff1681526020019081526020016000206000606f60008873ffffffffffffffffffffffffffffffffffffffff1673ffffffffffffffffffffffffffffffffffffffff1681526020019081526020016000208463ffffffff168154811061399f5761399e615672565b5b90600052602060002090600891828204019190066004029054906101000a900463ffffffff1663ffffffff1663ffffffff1681526020019081526020016000209050613a688186606f60008973ffffffffffffffffffffffffffffffffffffffff1673ffffffffffffffffffffffffffffffffffffffff1681526020019081526020016000208563ffffffff1681548110613a3d57613a3c615672565b5b90600052602060002090600891828204019190066004029054906101000a900463ffffffff16613b2c565b83613a7391906152f6565b92505080613a80906156d9565b90506138b5565b5080915050919050565b613a9d82826001613f9b565b5050565b6000613aac82613e35565b606c60008463ffffffff1663ffffffff1681526020019081526020016000206000015443613ada9190615bca565b613ae4919061572f565b606c60008463ffffffff1663ffffffff16815260200190815260200160002060010160009054906101000a900467ffffffffffffffff16613b2591906152f6565b9050919050565b6000606d60008473ffffffffffffffffffffffffffffffffffffffff1673ffffffffffffffffffffffffffffffffffffffff168152602001908152602001600020600101600c9054906101000a900460ff16613bd8578360000160109054906101000a900463ffffffff1663ffffffff168460000160009054906101000a900467ffffffffffffffff16613bbf84613c07565b613bc9919061593c565b613bd3919061572f565b613bdb565b60005b8460000160089054906101000a900467ffffffffffffffff16613bfe91906152f6565b90509392505050565b6000606c60008363ffffffff1663ffffffff1681526020019081526020016000206002015443613c379190615bca565b606560009054906101000a900473ffffffffffffffffffffffffffffffffffffffff1673ffffffffffffffffffffffffffffffffffffffff1663286966086040518163ffffffff1660e01b8152600401602060405180830381865afa158015613ca4573d6000803e3d6000fd5b505050506040513d601f19601f82011682018060405250810190613cc89190615e91565b613cd2919061572f565b606c60008463ffffffff1663ffffffff16815260200190815260200160002060010160089054906101000a900467ffffffffffffffff16613d1391906152f6565b9050919050565b6000606e60008473ffffffffffffffffffffffffffffffffffffffff1673ffffffffffffffffffffffffffffffffffffffff16815260200190815260200160002060008363ffffffff1663ffffffff16815260200190815260200160002060000160109054906101000a900463ffffffff1663ffffffff16606560009054906101000a900473ffffffffffffffffffffffffffffffffffffffff1673ffffffffffffffffffffffffffffffffffffffff1663286966086040518163ffffffff1660e01b8152600401602060405180830381865afa158015613dff573d6000803e3d6000fd5b505050506040513d601f19601f82011682018060405250810190613e239190615e91565b613e2d919061572f565b905092915050565b6000606c60008363ffffffff1663ffffffff16815260200190815260200160002060030160009054906101000a900463ffffffff1663ffffffff16606560009054906101000a900473ffffffffffffffffffffffffffffffffffffffff1673ffffffffffffffffffffffffffffffffffffffff1663286966086040518163ffffffff1660e01b8152600401602060405180830381865afa158015613edd573d6000803e3d6000fd5b505050506040513d601f19601f82011682018060405250810190613f019190615e91565b613f0b919061572f565b9050919050565b80606660146101000a81548167ffffffffffffffff021916908367ffffffffffffffff1602179055507f0ba69538f9785fc112824ff736c1e58ccf880282e09e53d7eef96598e282d3fa606660149054906101000a900467ffffffffffffffff16604051613f809190615eef565b60405180910390a150565b613f9782826000613f9b565b5050565b6000606e60008573ffffffffffffffffffffffffffffffffffffffff1673ffffffffffffffffffffffffffffffffffffffff16815260200190815260200160002060008463ffffffff1663ffffffff16815260200190815260200160002090508060000160189054906101000a900460ff16156145355761401d818585612d7f565b81156140665780600001601081819054906101000a900463ffffffff16614043906156d9565b91906101000a81548163ffffffff021916908363ffffffff160217905550614530565b600081600001601081819054906101000a900463ffffffff1661408890615913565b91906101000a81548163ffffffff021916908363ffffffff160217905563ffffffff160361452f578060000160089054906101000a900467ffffffffffffffff16606d60008673ffffffffffffffffffffffffffffffffffffffff1673ffffffffffffffffffffffffffffffffffffffff16815260200190815260200160002060000160108282829054906101000a900467ffffffffffffffff1661412d91906152f6565b92506101000a81548167ffffffffffffffff021916908367ffffffffffffffff160217905550606f60008573ffffffffffffffffffffffffffffffffffffffff1673ffffffffffffffffffffffffffffffffffffffff1681526020019081526020016000206001606f60008773ffffffffffffffffffffffffffffffffffffffff1673ffffffffffffffffffffffffffffffffffffffff168152602001908152602001600020805490506141e19190615bca565b815481106141f2576141f1615672565b5b90600052602060002090600891828204019190066004029054906101000a900463ffffffff16606f60008673ffffffffffffffffffffffffffffffffffffffff1673ffffffffffffffffffffffffffffffffffffffff1681526020019081526020016000208260000160149054906101000a900463ffffffff1663ffffffff168154811061428357614282615672565b5b90600052602060002090600891828204019190066004026101000a81548163ffffffff021916908363ffffffff1602179055508060000160149054906101000a900463ffffffff16606e60008673ffffffffffffffffffffffffffffffffffffffff1673ffffffffffffffffffffffffffffffffffffffff1681526020019081526020016000206000606f60008873ffffffffffffffffffffffffffffffffffffffff1673ffffffffffffffffffffffffffffffffffffffff1681526020019081526020016000208460000160149054906101000a900463ffffffff1663ffffffff168154811061437757614376615672565b5b90600052602060002090600891828204019190066004029054906101000a900463ffffffff1663ffffffff1663ffffffff16815260200190815260200160002060000160146101000a81548163ffffffff021916908363ffffffff160217905550606f60008573ffffffffffffffffffffffffffffffffffffffff1673ffffffffffffffffffffffffffffffffffffffff16815260200190815260200160002080548061442757614426615f0a565b5b60019003818190600052602060002090600891828204019190066004026101000a81549063ffffffff02191690559055606e60008573ffffffffffffffffffffffffffffffffffffffff1673ffffffffffffffffffffffffffffffffffffffff16815260200190815260200160002060008463ffffffff1663ffffffff168152602001908152602001600020600080820160006101000a81549067ffffffffffffffff02191690556000820160086101000a81549067ffffffffffffffff02191690556000820160106101000a81549063ffffffff02191690556000820160146101000a81549063ffffffff02191690556000820160186101000a81549060ff021916905550505b5b614803565b603261ffff16606f60008673ffffffffffffffffffffffffffffffffffffffff1673ffffffffffffffffffffffffffffffffffffffff1681526020019081526020016000208054905011156145b6576040517f9722180300000000000000000000000000000000000000000000000000000000815260040160405180910390fd5b6040518060a001604052806145ca85613c07565b67ffffffffffffffff168152602001600067ffffffffffffffff168152602001600163ffffffff168152602001606f60008773ffffffffffffffffffffffffffffffffffffffff1673ffffffffffffffffffffffffffffffffffffffff1681526020019081526020016000208054905063ffffffff16815260200160011515815250606e60008673ffffffffffffffffffffffffffffffffffffffff1673ffffffffffffffffffffffffffffffffffffffff16815260200190815260200160002060008563ffffffff1663ffffffff16815260200190815260200160002060008201518160000160006101000a81548167ffffffffffffffff021916908367ffffffffffffffff16021790555060208201518160000160086101000a81548167ffffffffffffffff021916908367ffffffffffffffff16021790555060408201518160000160106101000a81548163ffffffff021916908363ffffffff16021790555060608201518160000160146101000a81548163ffffffff021916908363ffffffff16021790555060808201518160000160186101000a81548160ff021916908315150217905550905050606f60008573ffffffffffffffffffffffffffffffffffffffff1673ffffffffffffffffffffffffffffffffffffffff1681526020019081526020016000208390806001815401808255809150506001900390600052602060002090600891828204019190066004029091909190916101000a81548163ffffffff021916908363ffffffff1602179055505b50505050565b6000604051905090565b600080fd5b600080fd5b6000819050919050565b6148308161481d565b811461483b57600080fd5b50565b60008135905061484d81614827565b92915050565b60006020828403121561486957614868614813565b5b60006148778482850161483e565b91505092915050565b600063ffffffff82169050919050565b61489981614880565b81146148a457600080fd5b50565b6000813590506148b681614890565b92915050565b6000602082840312156148d2576148d1614813565b5b60006148e0848285016148a7565b91505092915050565b600073ffffffffffffffffffffffffffffffffffffffff82169050919050565b6000614914826148e9565b9050919050565b61492481614909565b811461492f57600080fd5b50565b6000813590506149418161491b565b92915050565b60006020828403121561495d5761495c614813565b5b600061496b84828501614932565b91505092915050565b61497d81614880565b82525050565b60006020820190506149986000830184614974565b92915050565b600080fd5b600080fd5b600080fd5b60008083601f8401126149c3576149c261499e565b5b8235905067ffffffffffffffff8111156149e0576149df6149a3565b5b6020830191508360208202830111156149fc576149fb6149a8565b5b9250929050565b60008060208385031215614a1a57614a19614813565b5b600083013567ffffffffffffffff811115614a3857614a37614818565b5b614a44858286016149ad565b92509250509250929050565b60008083601f840112614a6657614a6561499e565b5b8235905067ffffffffffffffff811115614a8357614a826149a3565b5b602083019150836001820283011115614a9f57614a9e6149a8565b5b9250929050565b60008083601f840112614abc57614abb61499e565b5b8235905067ffffffffffffffff811115614ad957614ad86149a3565b5b602083019150836001820283011115614af557614af46149a8565b5b9250929050565b60008060008060408587031215614b1657614b15614813565b5b600085013567ffffffffffffffff811115614b3457614b33614818565b5b614b4087828801614a50565b9450945050602085013567ffffffffffffffff811115614b6357614b62614818565b5b614b6f87828801614aa6565b925092505092959194509250565b614b8681614909565b82525050565b6000602082019050614ba16000830184614b7d565b92915050565b6000614bb282614909565b9050919050565b614bc281614ba7565b8114614bcd57600080fd5b50565b600081359050614bdf81614bb9565b92915050565b6000614bf082614909565b9050919050565b614c0081614be5565b8114614c0b57600080fd5b50565b600081359050614c1d81614bf7565b92915050565b600067ffffffffffffffff82169050919050565b614c4081614c23565b8114614c4b57600080fd5b50565b600081359050614c5d81614c37565b92915050565b60008060008060808587031215614c7d57614c7c614813565b5b6000614c8b87828801614bd0565b9450506020614c9c87828801614c0e565b9350506040614cad87828801614c4e565b9250506060614cbe87828801614c4e565b91505092959194509250565b60008060208385031215614ce157614ce0614813565b5b600083013567ffffffffffffffff811115614cff57614cfe614818565b5b614d0b85828601614aa6565b92509250509250929050565b60008083601f840112614d2d57614d2c61499e565b5b8235905067ffffffffffffffff811115614d4a57614d496149a3565b5b602083019150836020820283011115614d6657614d656149a8565b5b9250929050565b600080600080600080600080600060a08a8c031215614d8f57614d8e614813565b5b60008a013567ffffffffffffffff811115614dad57614dac614818565b5b614db98c828d01614aa6565b995099505060208a013567ffffffffffffffff811115614ddc57614ddb614818565b5b614de88c828d016149ad565b975097505060408a013567ffffffffffffffff811115614e0b57614e0a614818565b5b614e178c828d01614d17565b955095505060608a013567ffffffffffffffff811115614e3a57614e39614818565b5b614e468c828d01614d17565b93509350506080614e598c828d0161483e565b9150509295985092959850929598565b60008060008060608587031215614e8357614e82614813565b5b6000614e91878288016148a7565b945050602085013567ffffffffffffffff811115614eb257614eb1614818565b5b614ebe87828801614aa6565b93509350506040614ed187828801614932565b91505092959194509250565b600082825260208201905092915050565b7f4f776e61626c653a2063616c6c6572206973206e6f7420746865206f776e6572600082015250565b6000614f24602083614edd565b9150614f2f82614eee565b602082019050919050565b60006020820190508181036000830152614f5381614f17565b9050919050565b614f638161481d565b82525050565b6000604082019050614f7e6000830185614f5a565b614f8b6020830184614f5a565b9392505050565b600081519050614fa18161491b565b92915050565b600060208284031215614fbd57614fbc614813565b5b6000614fcb84828501614f92565b91505092915050565b600082825260208201905092915050565b6000819050919050565b614ff881614880565b82525050565b600061500a8383614fef565b60208301905092915050565b600061502560208401846148a7565b905092915050565b6000602082019050919050565b60006150468385614fd4565b935061505182614fe5565b8060005b8581101561508a576150678284615016565b6150718882614ffe565b975061507c8361502d565b925050600181019050615055565b5085925050509392505050565b60006040820190506150ac6000830186614b7d565b81810360208301526150bf81848661503a565b9050949350505050565b6000815190506150d881614890565b92915050565b6000602082840312156150f4576150f3614813565b5b6000615102848285016150c9565b91505092915050565b60006060820190506151206000830187614974565b61512d6020830186614b7d565b818103604083015261514081848661503a565b905095945050505050565b82818337600083830152505050565b6000601f19601f8301169050919050565b60006151778385614edd565b935061518483858461514b565b61518d8361515a565b840190509392505050565b600082825260208201905092915050565b60006151b58385615198565b93506151c283858461514b565b6151cb8361515a565b840190509392505050565b600060608201905081810360008301526151f181878961516b565b90506152006020830186614b7d565b81810360408301526152138184866151a9565b90509695505050505050565b6000604082019050818103600083015261523a81868861516b565b9050818103602083015261524f8184866151a9565b905095945050505050565b6000819050919050565b600060ff82169050919050565b6000819050919050565b600061529661529161528c8461525a565b615271565b615264565b9050919050565b6152a68161527b565b82525050565b60006020820190506152c1600083018461529d565b92915050565b7f4e487b7100000000000000000000000000000000000000000000000000000000600052601160045260246000fd5b600061530182614c23565b915061530c83614c23565b9250828201905067ffffffffffffffff81111561532c5761532b6152c7565b5b92915050565b60006040820190506153476000830185614b7d565b6153546020830184614f5a565b9392505050565b60008115159050919050565b6153708161535b565b811461537b57600080fd5b50565b60008151905061538d81615367565b92915050565b6000602082840312156153a9576153a8614813565b5b60006153b78482850161537e565b91505092915050565b60006040820190506153d56000830185614f5a565b6153e26020830184614b7d565b9392505050565b7f4f776e61626c653a206e6577206f776e657220697320746865207a65726f206160008201527f6464726573730000000000000000000000000000000000000000000000000000602082015250565b6000615445602683614edd565b9150615450826153e9565b604082019050919050565b6000602082019050818103600083015261547481615438565b9050919050565b60006060820190506154906000830187614974565b81810360208301526154a38185876151a9565b90506154b26040830184614b7d565b95945050505050565b60006154c68261481d565b91506154d18361481d565b92508282026154df8161481d565b915082820484148315176154f6576154f56152c7565b5b5092915050565b7f4e487b7100000000000000000000000000000000000000000000000000000000600052601260045260246000fd5b60006155378261481d565b91506155428361481d565b925082615552576155516154fd565b5b828206905092915050565b7f507265636973696f6e206973206f76657220746865206d6178696d756d20646560008201527f66696e6564000000000000000000000000000000000000000000000000000000602082015250565b60006155b9602583614edd565b91506155c48261555d565b604082019050919050565b600060208201905081810360008301526155e8816155ac565b9050919050565b60006155fa8261481d565b91506156058361481d565b925082615615576156146154fd565b5b828204905092915050565b60006060820190506156356000830186614b7d565b6156426020830185614b7d565b61564f6040830184614f5a565b949350505050565b600060208201905061566c6000830184614f5a565b92915050565b7f4e487b7100000000000000000000000000000000000000000000000000000000600052603260045260246000fd5b60006156ac82614880565b91506156b783614880565b9250828201905063ffffffff8111156156d3576156d26152c7565b5b92915050565b60006156e482614880565b915063ffffffff82036156fa576156f96152c7565b5b600182019050919050565b61570e81614c23565b82525050565b60006020820190506157296000830184615705565b92915050565b600061573a82614c23565b915061574583614c23565b925082820261575381614c23565b9150808214615765576157646152c7565b5b5092915050565b600061577782614880565b915061578283614880565b9250828203905063ffffffff81111561579e5761579d6152c7565b5b92915050565b60006157af82615264565b915060ff82036157c2576157c16152c7565b5b600182019050919050565b7f496e697469616c697a61626c653a20636f6e747261637420697320616c72656160008201527f647920696e697469616c697a6564000000000000000000000000000000000000602082015250565b6000615829602e83614edd565b9150615834826157cd565b604082019050919050565b600060208201905081810360008301526158588161581c565b9050919050565b6000602082019050818103600083015261587a8184866151a9565b90509392505050565b600081519050919050565b60005b838110156158ac578082015181840152602081019050615891565b60008484015250505050565b60006158c382615883565b6158cd8185615198565b93506158dd81856020860161588e565b6158e68161515a565b840191505092915050565b6000602082019050818103600083015261590b81846158b8565b905092915050565b600061591e82614880565b915060008203615931576159306152c7565b5b600182039050919050565b600061594782614c23565b915061595283614c23565b9250828203905067ffffffffffffffff811115615972576159716152c7565b5b92915050565b600082825260208201905092915050565b6000819050919050565b600082825260208201905092915050565b60006159b08385615993565b93506159bd83858461514b565b6159c68361515a565b840190509392505050565b60006159de8484846159a4565b90509392505050565b600080fd5b600080fd5b600080fd5b60008083356001602003843603038112615a1357615a126159f1565b5b83810192508235915060208301925067ffffffffffffffff821115615a3b57615a3a6159e7565b5b600182023603831315615a5157615a506159ec565b5b509250929050565b6000602082019050919050565b6000615a728385615978565b935083602084028501615a8484615989565b8060005b87811015615aca578484038952615a9f82846159f6565b615aaa8682846159d1565b9550615ab584615a59565b935060208b019a505050600181019050615a88565b50829750879450505050509392505050565b600060a082019050615af1600083018c614b7d565b8181036020830152615b04818a8c6151a9565b90508181036040830152615b1981888a61503a565b90508181036060830152615b2e818688615a66565b90508181036080830152615b43818486615a66565b90509a9950505050505050505050565b600060a0820190508181036000830152615b6e818b8d6151a9565b90508181036020830152615b8381898b61503a565b90508181036040830152615b98818789615a66565b90508181036060830152615bad818587615a66565b9050615bbc6080830184614f5a565b9a9950505050505050505050565b6000615bd58261481d565b9150615be08361481d565b9250828203905081811115615bf857615bf76152c7565b5b92915050565b6000615c098261481d565b9150615c148361481d565b9250828201905080821115615c2c57615c2b6152c7565b5b92915050565b7f4e487b7100000000000000000000000000000000000000000000000000000000600052604160045260246000fd5b615c6a8261515a565b810181811067ffffffffffffffff82111715615c8957615c88615c32565b5b80604052505050565b6000615c9c614809565b9050615ca88282615c61565b919050565b600067ffffffffffffffff821115615cc857615cc7615c32565b5b602082029050602081019050919050565b6000615cec615ce784615cad565b615c92565b90508083825260208201905060208402830185811115615d0f57615d0e6149a8565b5b835b81811015615d385780615d2488826150c9565b845260208401935050602081019050615d11565b5050509392505050565b600082601f830112615d5757615d5661499e565b5b8151615d67848260208601615cd9565b91505092915050565b600060208284031215615d8657615d85614813565b5b600082015167ffffffffffffffff811115615da457615da3614818565b5b615db084828501615d42565b91505092915050565b7f496e697469616c697a61626c653a20636f6e7472616374206973206e6f74206960008201527f6e697469616c697a696e67000000000000000000000000000000000000000000602082015250565b6000615e15602b83614edd565b9150615e2082615db9565b604082019050919050565b60006020820190508181036000830152615e4481615e08565b9050919050565b6000615e5682614c23565b9150615e6183614c23565b925082615e7157615e706154fd565b5b828204905092915050565b600081519050615e8b81614c37565b92915050565b600060208284031215615ea757615ea6614813565b5b6000615eb584828501615e7c565b91505092915050565b6000615ed9615ed4615ecf84614c23565b615271565b61481d565b9050919050565b615ee981615ebe565b82525050565b6000602082019050615f046000830184615ee0565b92915050565b7f4e487b7100000000000000000000000000000000000000000000000000000000600052603160045260246000fdfea2646970667358221220ca0c3f09523f8844214896428f082d9edf0f305ae962929e63d72525c50b3cd364736f6c63430008110033",
  "immutableReferences": {},
  "source": "// File: contracts/SafeStakeNetwork.sol\n// SPDX-License-Identifier: GPL-3.0-or-later\npragma solidity ^0.8.2;\n\nimport \"@openzeppelin/contracts/token/ERC20/IERC20.sol\";\nimport \"@openzeppelin/contracts-upgradeable/access/OwnableUpgradeable.sol\";\nimport \"./utils/VersionedContract.sol\";\nimport \"./utils/Types.sol\";\nimport \"./ISafeStakeNetwork.sol\";\n\ncontract SafeStakeNetwork is OwnableUpgradeable, ISafeStakeNetwork, VersionedContract {\n    using Types256 for uint256;\n    using Types64 for uint64;\n\n    struct OperatorData {\n        uint256 blockNumber;\n        uint64 earnings;\n        uint64 index;\n        uint256 indexBlockNumber;\n        uint32 activeValidatorCount;\n    }\n\n    struct OwnerData {\n        uint64 deposited;\n        uint64 withdrawn;\n        uint64 used;\n        uint64 networkFee;\n        uint64 networkFeeIndex;\n        uint32 activeValidatorCount;\n        bool validatorsDisabled;\n        uint256 paidBlockNumber;\n    }\n\n    struct OperatorInUse {\n        uint64 index;\n        uint64 used;\n        uint32 validatorCount;\n        uint32 indexInArray;\n        bool exists;\n    }\n\n    // struct FeeChangeRequest {\n    //     uint64 fee;\n    //     uint256 approvalBeginTime;\n    //     uint256 approvalEndTime;\n    // }\n\n    ISafeStakeRegistry private _SafeStakeRegistryContract;\n    IERC20 private _token;\n    // uint64 private _minimumBlocksBeforeLiquidation;\n    // uint64 private _operatorMaxFeeIncrease;\n\n    uint64 private _minimumBlocksValidatorPay;\n\n    uint64 private _networkFee;\n    uint64 private _networkFeeIndex;\n    uint256 private _networkFeeIndexBlockNumber;\n    uint64 private _networkEarnings;\n    uint256 private _networkEarningsBlockNumber;\n    uint64 private _withdrawnFromTreasury;\n\n    mapping(uint32 => OperatorData) private _operatorDatas;\n    mapping(address => OwnerData) private _owners;\n    mapping(address => mapping(uint32 => OperatorInUse)) private _operatorsInUseByAddress;\n    mapping(address => uint32[]) private _operatorsInUseList;\n\n    // uint64 private _declareOperatorFeePeriod;\n    // uint64 private _executeOperatorFeePeriod;\n    // mapping(uint32 => FeeChangeRequest) private _feeChangeRequests;\n\n    // uint16 constant private MINIMAL_OPERATOR_FEE = 1000;\n    uint16 constant private MANAGING_OPERATORS_PER_ACCOUNT_LIMIT = 50;\n    // uint16 constant private MINIMAL_LIQUIDATION_THRESHOLD = 6570;\n\n\n    function initialize(\n        ISafeStakeRegistry registryAddress_,\n        IERC20 token_,\n        uint64 minimumBlocksBeforeLiquidation_,\n        // uint64 operatorMaxFeeIncrease_,\n        // uint64 declareOperatorFeePeriod_,\n        // uint64 executeOperatorFeePeriod_,\n        uint64 operatorFee\n    ) external initializer override {\n        // __SafeStakeNetwork_init(registryAddress_, token_, minimumBlocksBeforeLiquidation_, operatorMaxFeeIncrease_, declareOperatorFeePeriod_, executeOperatorFeePeriod_, operatorFee);\n        __SafeStakeNetwork_init(registryAddress_, token_, minimumBlocksBeforeLiquidation_, operatorFee);\n    }\n\n    function __SafeStakeNetwork_init(\n        ISafeStakeRegistry registryAddress_,\n        IERC20 token_,\n        uint64 minimumBlocksBeforeLiquidation_,\n        // uint64 operatorMaxFeeIncrease_,\n        // uint64 declareOperatorFeePeriod_,\n        // uint64 executeOperatorFeePeriod_,\n        uint64 operatorFee\n    ) internal initializer {\n        __Ownable_init_unchained();\n        // __SafeStakeNetwork_init_unchained(registryAddress_, token_, minimumBlocksBeforeLiquidation_, operatorMaxFeeIncrease_, declareOperatorFeePeriod_, executeOperatorFeePeriod_, operatorFee);\n        __SafeStakeNetwork_init_unchained(registryAddress_, token_, minimumBlocksBeforeLiquidation_, operatorFee);\n    }\n\n    function __SafeStakeNetwork_init_unchained(\n        ISafeStakeRegistry registryAddress_,\n        IERC20 token_,\n        uint64 minimumBlocksBeforeLiquidation_,\n        // uint64 operatorMaxFeeIncrease_,\n        // uint64 declareOperatorFeePeriod_,\n        // uint64 executeOperatorFeePeriod_,\n        uint64 operatorFee\n    ) internal onlyInitializing {\n        _SafeStakeRegistryContract = registryAddress_;\n        _token = token_;\n        _updateLiquidationThresholdPeriod(minimumBlocksBeforeLiquidation_);\n        // _updateOperatorFeeIncreaseLimit(operatorMaxFeeIncrease_);\n        // _updateDeclareOperatorFeePeriod(declareOperatorFeePeriod_);\n        // _updateExecuteOperatorFeePeriod(executeOperatorFeePeriod_);\n        _SafeStakeRegistryContract.initialize(operatorFee);\n    }\n\n    modifier onlyValidatorOwnerOrContractOwner(bytes calldata publicKey) {\n        _onlyValidatorOwnerOrContractOwner(publicKey);\n        _;\n    }\n\n    modifier onlyOperatorOwnerOrContractOwner(uint32 operatorId) {\n        _onlyOperatorOwnerOrContractOwner(operatorId);\n        _;\n    }\n\n    // modifier ensureMinimalOperatorFee(uint256 fee) {\n    //     _ensureMinimalOperatorFee(fee.shrink());\n    //     _;\n    // }\n\n    /**\n     * @dev See {ISafeStakeNetwork-registerOperator}.\n     */\n    function registerOperator(\n        string calldata name,\n        bytes calldata publicKey\n    ) external override returns (uint32 operatorId) {\n        operatorId = _SafeStakeRegistryContract.registerOperator(\n            name,\n            msg.sender,\n            publicKey\n        );\n\n        _operatorDatas[operatorId] = OperatorData({ blockNumber: block.number, earnings: 0, index: 0, indexBlockNumber: block.number, activeValidatorCount: 0 });\n        emit OperatorRegistration(operatorId, name, msg.sender, publicKey);\n    }\n\n    /**\n     * @dev See {ISafeStakeNetwork-removeOperator}.\n     */\n    function removeOperator(uint32 operatorId) onlyOperatorOwnerOrContractOwner(operatorId) external override {\n        address owner = _SafeStakeRegistryContract.getOperatorOwner(operatorId);\n\n        _updateOperatorFeeUnsafe(operatorId, 0);\n        _SafeStakeRegistryContract.removeOperator(operatorId);\n\n        emit OperatorRemoval(operatorId, owner);\n    }\n\n    // function declareOperatorFee(uint32 operatorId, uint256 operatorFee) onlyOperatorOwnerOrContractOwner(operatorId) ensureMinimalOperatorFee(operatorFee) external override {\n    //     if (operatorFee.shrink() > _SafeStakeRegistryContract.getOperatorFee() * (10000 + _operatorMaxFeeIncrease) / 10000) {\n    //         revert FeeExceedsIncreaseLimit();\n    //     }\n    //     _feeChangeRequests[operatorId] = FeeChangeRequest(operatorFee.shrink(), block.timestamp + _declareOperatorFeePeriod, block.timestamp + _declareOperatorFeePeriod + _executeOperatorFeePeriod);\n\n    //     emit OperatorFeeDeclaration(msg.sender, operatorId, block.number, operatorFee);\n    // }\n\n    // function cancelDeclaredOperatorFee(uint32 operatorId) onlyOperatorOwnerOrContractOwner(operatorId) external override {\n    //     delete _feeChangeRequests[operatorId];\n\n    //     emit DeclaredOperatorFeeCancelation(msg.sender, operatorId);\n    // }\n\n    // function executeOperatorFee(uint32 operatorId) onlyOperatorOwnerOrContractOwner(operatorId) external override {\n    //     FeeChangeRequest storage feeChangeRequest = _feeChangeRequests[operatorId];\n\n    //     if(feeChangeRequest.fee == 0) {\n    //         revert NoPendingFeeChangeRequest();\n    //     }\n    //     if(block.timestamp < feeChangeRequest.approvalBeginTime || block.timestamp > feeChangeRequest.approvalEndTime) {\n    //         revert ApprovalNotWithinTimeframe();\n    //     }\n\n    //     _updateOperatorFeeUnsafe(operatorId, feeChangeRequest.fee);\n\n    //     emit OperatorFeeExecution(msg.sender, operatorId, block.number, feeChangeRequest.fee.expand());\n\n    //     delete _feeChangeRequests[operatorId];\n    // }\n\n    // function updateOperatorScore(uint32 operatorId, uint32 score) onlyOwner external override {\n    //     _SafeStakeRegistryContract.updateOperatorScore(operatorId, score);\n\n    //     emit OperatorScoreUpdate(operatorId, msg.sender, block.number, score);\n    // }\n\n    /**\n     * @dev See {ISafeStakeNetwork-registerValidator}.\n     */\n    function registerValidator(\n        bytes calldata publicKey,\n        uint32[] calldata operatorIds,\n        bytes[] calldata sharesPublicKeys,\n        bytes[] calldata sharesEncrypted,\n        uint256 amount\n    ) external override {\n        _updateNetworkEarnings();\n        _updateAddressNetworkFee(msg.sender);\n        _registerValidatorUnsafe(msg.sender, publicKey, operatorIds, sharesPublicKeys, sharesEncrypted, amount);\n    }\n\n    /**\n     * @dev See {ISafeStakeNetwork-registerInitializer}.\n     */\n    function registerInitializer(\n        uint32[] calldata operatorIds\n    ) external override returns(uint32 initializerId) {\n        if (!_checkTwoOperatorsFromParaDao(operatorIds)) {\n            revert NoEnoughParaStateDaoOperators();\n        }\n        initializerId = _SafeStakeRegistryContract.registerInitializer(msg.sender, operatorIds);\n\n        emit InitializerRegistration(initializerId, msg.sender, operatorIds);\n    }\n\n    /**\n     * @dev See {ISafeStakeNetwork-initializerPreStake}.\n     */\n    function initializerPreStake(\n        uint32 initializerId,\n        bytes calldata validatorPublicKey,\n        address miniPoolAddress\n    ) external override{\n        _onlyInitializerOwner(initializerId);\n        _SafeStakeRegistryContract.initializerPreStatke(initializerId, validatorPublicKey, miniPoolAddress);\n        emit InitializerMiniPoolCreated(initializerId, validatorPublicKey, miniPoolAddress);\n    }\n\n    /**\n     * @dev See {ISafeStakeNetwork-initializerMiniPoolReady}.\n     */\n    function initializerMiniPoolReady(\n        uint32 initializerId\n    ) external override {\n        // TODO query minipool is ready\n        _onlyInitializerOwner(initializerId);\n        _SafeStakeRegistryContract.initializerReady(initializerId);\n        emit InitializerMiniPoolReady(initializerId);\n    }\n\n    function initializerStake(\n        uint32 initializerId\n    ) external override {\n        _onlyInitializerOwner(initializerId);\n        _SafeStakeRegistryContract.initializerStake(initializerId);\n    }\n\n\n    /**\n     * @dev See {ISafeStakeNetwork-updateValidator}.\n     */\n    // function updateValidator(\n    //     bytes calldata publicKey,\n    //     uint32[] calldata operatorIds,\n    //     bytes[] calldata sharesPublicKeys,\n    //     bytes[] calldata sharesEncrypted,\n    //     uint256 amount\n    // ) onlyValidatorOwnerOrContractOwner(publicKey) external override {\n    //     _removeValidatorUnsafe(msg.sender, publicKey);\n    //     _registerValidatorUnsafe(msg.sender, publicKey, operatorIds, sharesPublicKeys, sharesEncrypted, amount);\n    // }\n\n    /**\n     * @dev See {ISafeStakeNetwork-removeValidator}.\n     */\n    function removeValidator(bytes calldata publicKey) onlyValidatorOwnerOrContractOwner(publicKey) external override {\n        _updateNetworkEarnings();\n        _updateAddressNetworkFee(msg.sender);\n        _removeValidatorUnsafe(msg.sender, publicKey);\n        _totalBalanceOf(msg.sender); // For assertion\n    }\n\n    // function deposit(address ownerAddress, uint256 amount) external override {\n    //     _deposit(ownerAddress, amount);\n    // }\n\n    // function withdraw(uint256 amount) external override {\n    //     if(_totalBalanceOf(msg.sender) < amount.shrink()) {\n    //         revert NotEnoughBalance();\n    //     }\n\n    //     _withdrawUnsafe(amount.shrink());\n\n    //     if(_liquidatable(msg.sender)) {\n    //         revert NotEnoughBalance();\n    //     }\n    // }\n\n    // function withdrawAll() external override {\n    //     if(_burnRate(msg.sender) > 0) {\n    //         revert BurnRatePositive();\n    //     }\n\n    //     _withdrawUnsafe(_totalBalanceOf(msg.sender));\n    // }\n\n    // function liquidate(address[] calldata ownerAddresses) external override {\n    //     uint64 balanceToTransfer = 0;\n\n    //     for (uint32 index = 0; index < ownerAddresses.length; ++index) {\n    //         if (_canLiquidate(ownerAddresses[index])) {\n    //             balanceToTransfer += _liquidateUnsafe(ownerAddresses[index]);\n    //         }\n    //     }\n\n    //     _token.transfer(msg.sender, balanceToTransfer.expand());\n    // }\n\n    /**\n     * @dev See {ISafeStakeNetwork-disableAddress}.\n     */\n    function disableAddress(address ownerAddress) onlyOwner external override {\n        if (!_owners[ownerAddress].validatorsDisabled && _overdue(ownerAddress)) {\n            _disableOwnerValidatorsUnsafe(ownerAddress);\n            emit AccountDisable(ownerAddress);\n        }\n    }\n\n    function reactivateAccount(uint256 amount) external override {\n        if (!_owners[msg.sender].validatorsDisabled) {\n            revert AccountAlreadyEnabled();\n        }\n\n        _deposit(msg.sender, amount);\n\n        _enableOwnerValidatorsUnsafe(msg.sender);\n\n        if(_liquidatable(msg.sender)) {\n            revert NotEnoughBalance();\n        }\n\n        emit AccountEnable(msg.sender);\n    }\n\n    // function updateLiquidationThresholdPeriod(uint64 blocks) external onlyOwner override {\n    //     if(blocks < MINIMAL_LIQUIDATION_THRESHOLD) {\n    //         revert BelowMinimumBlockPeriod();\n    //     }\n\n    //     _updateLiquidationThresholdPeriod(blocks);\n    // }\n\n    // function updateOperatorFeeIncreaseLimit(uint64 newOperatorMaxFeeIncrease) external onlyOwner override {\n    //     _updateOperatorFeeIncreaseLimit(newOperatorMaxFeeIncrease);\n    // }\n\n    // function updateDeclareOperatorFeePeriod(uint64 newDeclareOperatorFeePeriod) external onlyOwner override {\n    //     _updateDeclareOperatorFeePeriod(newDeclareOperatorFeePeriod);\n    // }\n\n    // function updateExecuteOperatorFeePeriod(uint64 newExecuteOperatorFeePeriod) external onlyOwner override {\n    //     _updateExecuteOperatorFeePeriod(newExecuteOperatorFeePeriod);\n    // }\n\n    /**\n     * @dev See {ISafeStakeNetwork-updateNetworkFee}.\n     */\n    function updateNetworkFee(uint256 fee) external onlyOwner override {\n        emit NetworkFeeUpdate(_networkFee.expand(), fee);\n        _updateNetworkEarnings();\n        _updateNetworkFeeIndex();\n        _networkFee = fee.shrink();\n    }\n\n    function withdrawNetworkEarnings(uint256 amount) external onlyOwner override {\n        if(amount.shrink() > _getNetworkEarnings()) {\n            revert NotEnoughBalance();\n        }\n\n        _withdrawnFromTreasury += amount.shrink();\n        _token.transfer(msg.sender, amount);\n\n        emit NetworkFeesWithdrawal(amount, msg.sender);\n    }\n\n    // function getAddressBalance(address ownerAddress) external override view returns (uint256) {\n    //     return _totalBalanceOf(ownerAddress).expand();\n    // }\n\n    // function isLiquidated(address ownerAddress) external view override returns (bool) {\n    //     return _owners[ownerAddress].validatorsDisabled;\n    // }\n\n    /**\n     * @dev See {ISafeStakeNetwork-getOperatorById}.\n     */\n    // function getOperatorById(uint32 operatorId) external view override returns (string memory, address, bytes memory, uint256, uint256, uint256, bool) {\n    //     return _SafeStakeRegistryContract.getOperatorById(operatorId);\n    // }\n\n    // function getOperatorDeclaredFee(uint32 operatorId) external view override returns (uint256, uint256, uint256) {\n    //     FeeChangeRequest storage feeChangeRequest = _feeChangeRequests[operatorId];\n\n    //     return (feeChangeRequest.fee.expand(), feeChangeRequest.approvalBeginTime, feeChangeRequest.approvalEndTime);\n    // }\n\n    /**\n     * @dev See {ISafeStakeNetwork-getOperatorFee}.\n     */\n    // function getOperatorFee() external view override returns (uint256) {\n    //     return _SafeStakeRegistryContract.getOperatorFee().expand();\n    // }\n\n    /**\n     * @dev See {ISafeStakeNetwork-getOperatorsByValidator}.\n     */\n    // function getOperatorsByValidator(bytes memory publicKey) external view override returns (uint32[] memory) {\n    //     return _SafeStakeRegistryContract.getOperatorsByValidator(publicKey);\n    // }\n\n    /**\n     * @dev See {ISafeStakeNetwork-getValidatorsByAddress}.\n     */\n    // function getValidatorsByOwnerAddress(address ownerAddress) external view override returns (bytes[] memory) {\n    //     return _SafeStakeRegistryContract.getValidatorsByAddress(ownerAddress);\n    // }\n\n    /**\n     * @dev See {ISafeStakeNetwork-addressNetworkFee}.\n     */\n    // function addressNetworkFee(address ownerAddress) external view override returns (uint256) {\n    //     return _addressNetworkFee(ownerAddress);\n    // }\n\n    // function getAddressBurnRate(address ownerAddress) external view override returns (uint256) {\n    //     return _burnRate(ownerAddress).expand();\n    // }\n\n    // function isLiquidatable(address ownerAddress) external view override returns (bool) {\n    //     return _liquidatable(ownerAddress);\n    // }\n\n    // function getNetworkFee() external view override returns (uint256) {\n    //     return _networkFee.expand();\n    // }\n\n    // function getNetworkEarnings() external view override returns (uint256) {\n    //     return _getNetworkEarnings().expand();\n    // }\n\n    // function getMinimumBlocksValidatorShouldPay() external view override returns (uint256) {\n    //     return _minimumBlocksValidatorPay;\n    // }\n\n    // function getOperatorFeeIncreaseLimit() external view override returns (uint256) {\n    //     return _operatorMaxFeeIncrease;\n    // }\n\n    // function getExecuteOperatorFeePeriod() external view override returns (uint256) {\n    //     return _executeOperatorFeePeriod;\n    // }\n\n    // function getDeclaredOperatorFeePeriod() external view override returns (uint256) {\n    //     return _declareOperatorFeePeriod;\n    // }\n\n    // function validatorsPerOperatorCount(uint32 operatorId) external view returns (uint32) {\n    //     return _SafeStakeRegistryContract.validatorsPerOperatorCount(operatorId);\n    // }\n\n    function _deposit(address ownerAddress, uint256 amount) private {\n        _token.transferFrom(msg.sender, address(this), amount);\n        _owners[ownerAddress].deposited += amount.shrink();\n\n        emit FundsDeposit(amount, ownerAddress, msg.sender);\n    }\n\n    function _withdrawUnsafe(uint64 amount) private {\n        _owners[msg.sender].withdrawn += amount;\n        _token.transfer(msg.sender, amount.expand());\n\n        emit FundsWithdrawal(amount.expand(), msg.sender);\n    }\n\n    /**\n     * @dev Update paid block number for the address.\n     * @param ownerAddress Owner address.\n     */\n    function _updatePaidBlockNumber(address ownerAddress) private {\n        if (_burnRate(ownerAddress) == 0) {\n            _owners[ownerAddress].paidBlockNumber = block.number;\n        } else {\n            _owners[ownerAddress].paidBlockNumber =  block.number + _totalBalanceOf(ownerAddress) / _burnRate(ownerAddress);\n        }\n        \n    } \n\n    /**\n     * @dev Update network fee for the address.\n     * @param ownerAddress Owner address.\n     */\n    function _updateAddressNetworkFee(address ownerAddress) private {\n        _owners[ownerAddress].networkFee = _addressNetworkFee(ownerAddress);\n        _owners[ownerAddress].networkFeeIndex = _currentNetworkFeeIndex();\n    }\n\n    function _updateOperatorIndex(uint32 operatorId) private {\n        _operatorDatas[operatorId].index = _operatorIndexOf(operatorId);\n    }\n\n    /**\n     * @dev Updates operators's balance.\n     */\n    function _updateOperatorBalance(uint32 operatorId) private {\n        OperatorData storage operatorData = _operatorDatas[operatorId];\n        operatorData.earnings = _operatorEarningsOf(operatorId);\n        operatorData.blockNumber = block.number;\n    }\n\n    // function _liquidateUnsafe(address ownerAddress) private returns (uint64) {\n    //     _disableOwnerValidatorsUnsafe(ownerAddress);\n\n    //     uint64 balanceToTransfer = _totalBalanceOf(ownerAddress);\n\n    //     _owners[ownerAddress].used += balanceToTransfer;\n\n    //     emit AccountLiquidation(ownerAddress);\n\n    //     return balanceToTransfer;\n    // }\n\n    function _updateNetworkEarnings() private {\n        _networkEarnings = _getTotalNetworkEarnings();\n        _networkEarningsBlockNumber = block.number;\n    }\n\n    function _updateNetworkFeeIndex() private {\n        _networkFeeIndex = _currentNetworkFeeIndex();\n        _networkFeeIndexBlockNumber = block.number;\n    }\n\n    function _registerValidatorUnsafe(\n        address ownerAddress,\n        bytes calldata publicKey,\n        uint32[] calldata operatorIds,\n        bytes[] calldata sharesPublicKeys,\n        bytes[] calldata encryptedKeys,\n        uint256 tokenAmount) private {\n\n        _SafeStakeRegistryContract.registerValidator(\n            ownerAddress,\n            publicKey,\n            operatorIds,\n            sharesPublicKeys,\n            encryptedKeys\n        );\n\n        OwnerData storage owner = _owners[ownerAddress];\n        owner.paidBlockNumber = block.number;\n\n        if (!owner.validatorsDisabled) {\n            ++owner.activeValidatorCount;\n        }\n\n        for (uint32 index = 0; index < operatorIds.length; ++index) {\n            uint32 operatorId = operatorIds[index];\n            _updateOperatorBalance(operatorId);\n\n            if (!owner.validatorsDisabled) {\n                ++_operatorDatas[operatorId].activeValidatorCount;\n            }\n\n            _useOperatorByOwner(ownerAddress, operatorId);\n        }\n        if (tokenAmount > 0) {\n            _deposit(msg.sender, tokenAmount);\n        }\n\n        if(_liquidatable(ownerAddress)) {\n            revert NotEnoughBalance();\n        }\n\n        _updatePaidBlockNumber(ownerAddress);\n\n        emit ValidatorRegistration(ownerAddress, publicKey, operatorIds, sharesPublicKeys, encryptedKeys, owner.paidBlockNumber);\n    }\n\n    function _removeValidatorUnsafe(address ownerAddress, bytes memory publicKey) private {\n        _unregisterValidator(ownerAddress, publicKey);\n        _SafeStakeRegistryContract.removeValidator(publicKey);\n\n        if (!_owners[ownerAddress].validatorsDisabled) {\n            --_owners[ownerAddress].activeValidatorCount;\n        }\n        _updatePaidBlockNumber(ownerAddress);\n        emit ValidatorRemoval(ownerAddress, publicKey);\n    }\n\n    function _unregisterValidator(address ownerAddress, bytes memory publicKey) private {\n        // calculate balances for current operators in use and update their balances\n        uint32[] memory currentOperatorIds = _SafeStakeRegistryContract.getOperatorsByValidator(publicKey);\n        for (uint32 index = 0; index < currentOperatorIds.length; ++index) {\n            uint32 operatorId = currentOperatorIds[index];\n            _updateOperatorBalance(operatorId);\n\n            if (!_owners[ownerAddress].validatorsDisabled) {\n                --_operatorDatas[operatorId].activeValidatorCount;\n            }\n\n            _stopUsingOperatorByOwner(ownerAddress, operatorId);\n        }\n    }\n\n    function _useOperatorByOwner(address ownerAddress, uint32 operatorId) private {\n        _updateUsingOperatorByOwner(ownerAddress, operatorId, true);\n    }\n\n    function _stopUsingOperatorByOwner(address ownerAddress, uint32 operatorId) private {\n        _updateUsingOperatorByOwner(ownerAddress, operatorId, false);\n    }\n\n    function _updateOperatorFeeUnsafe(uint32 operatorId, uint64 fee) private {\n        // OperatorData storage operatorData = _operatorDatas[operatorId];\n        _updateOperatorIndex(operatorId);\n        _operatorDatas[operatorId].indexBlockNumber = block.number;\n        _updateOperatorBalance(operatorId);\n        _SafeStakeRegistryContract.updateOperatorFee(fee);\n    }\n\n    /**\n     * @dev Updates the relation between operator and owner\n     * @param ownerAddress Owner address.\n     * @param increase Change value for validators amount.\n     */\n    function _updateUsingOperatorByOwner(address ownerAddress, uint32 operatorId, bool increase) private {\n        OperatorInUse storage operatorInUseData = _operatorsInUseByAddress[ownerAddress][operatorId];\n\n        if (operatorInUseData.exists) {\n            _updateOperatorUsageByOwner(operatorInUseData, ownerAddress, operatorId);\n\n            if (increase) {\n                ++operatorInUseData.validatorCount;\n            } else {\n                if (--operatorInUseData.validatorCount == 0) {\n                    _owners[ownerAddress].used += operatorInUseData.used;\n\n                    // remove from mapping and list;\n\n                    _operatorsInUseList[ownerAddress][operatorInUseData.indexInArray] = _operatorsInUseList[ownerAddress][_operatorsInUseList[ownerAddress].length - 1];\n                    _operatorsInUseByAddress[ownerAddress][_operatorsInUseList[ownerAddress][operatorInUseData.indexInArray]].indexInArray = operatorInUseData.indexInArray;\n                    _operatorsInUseList[ownerAddress].pop();\n\n                    delete _operatorsInUseByAddress[ownerAddress][operatorId];\n                }\n            }\n        } else {\n            if (_operatorsInUseList[ownerAddress].length > MANAGING_OPERATORS_PER_ACCOUNT_LIMIT) {\n                revert ExceedManagingOperatorsPerAccountLimit();\n            }\n\n            _operatorsInUseByAddress[ownerAddress][operatorId] = OperatorInUse({ index: _operatorIndexOf(operatorId), validatorCount: 1, used: 0, exists: true, indexInArray: uint32(_operatorsInUseList[ownerAddress].length) });\n            _operatorsInUseList[ownerAddress].push(operatorId);\n        }\n    }\n\n    function _disableOwnerValidatorsUnsafe(address ownerAddress) private {\n        _updateNetworkEarnings();\n        _updateAddressNetworkFee(ownerAddress);\n\n        for (uint32 index = 0; index < _operatorsInUseList[ownerAddress].length; ++index) {\n            uint32 operatorId = _operatorsInUseList[ownerAddress][index];\n            _updateOperatorBalance(operatorId);\n            OperatorInUse storage operatorInUseData = _operatorsInUseByAddress[ownerAddress][operatorId];\n            _updateOperatorUsageByOwner(operatorInUseData, ownerAddress, operatorId);\n            _operatorDatas[operatorId].activeValidatorCount -= operatorInUseData.validatorCount;\n        }\n\n        _SafeStakeRegistryContract.disableOwnerValidators(ownerAddress);\n\n        _owners[ownerAddress].validatorsDisabled = true;\n    }\n\n    function _enableOwnerValidatorsUnsafe(address ownerAddress) private {\n        _updateNetworkEarnings();\n        _updateAddressNetworkFee(ownerAddress);\n\n        for (uint32 index = 0; index < _operatorsInUseList[ownerAddress].length; ++index) {\n            uint32 operatorId = _operatorsInUseList[ownerAddress][index];\n            _updateOperatorBalance(operatorId);\n            OperatorInUse storage operatorInUseData = _operatorsInUseByAddress[ownerAddress][operatorId];\n            _updateOperatorUsageByOwner(operatorInUseData, ownerAddress, operatorId);\n            _operatorDatas[operatorId].activeValidatorCount += operatorInUseData.validatorCount;\n        }\n\n        _SafeStakeRegistryContract.enableOwnerValidators(ownerAddress);\n\n        _owners[ownerAddress].validatorsDisabled = false;\n    }\n\n    function _updateOperatorUsageByOwner(OperatorInUse storage operatorInUseData, address ownerAddress, uint32 operatorId) private {\n        operatorInUseData.used = _operatorInUseUsageOf(operatorInUseData, ownerAddress, operatorId);\n        operatorInUseData.index = _operatorIndexOf(operatorId);\n    }\n\n    function _updateLiquidationThresholdPeriod(uint64 newMinimumBlocksBeforeLiquidation) private {\n        _minimumBlocksValidatorPay = newMinimumBlocksBeforeLiquidation;\n\n        emit LiquidationThresholdPeriodUpdate(_minimumBlocksValidatorPay);\n    }\n\n    // function _updateOperatorFeeIncreaseLimit(uint64 newOperatorMaxFeeIncrease) private {\n    //     _operatorMaxFeeIncrease = newOperatorMaxFeeIncrease;\n\n    //     emit OperatorFeeIncreaseLimitUpdate(_operatorMaxFeeIncrease);\n\n    // }\n\n    // function _updateDeclareOperatorFeePeriod(uint64 newDeclareOperatorFeePeriod) private {\n    //     _declareOperatorFeePeriod = newDeclareOperatorFeePeriod;\n\n    //     emit DeclareOperatorFeePeriodUpdate(newDeclareOperatorFeePeriod);\n    // }\n\n    // function _updateExecuteOperatorFeePeriod(uint64 newExecuteOperatorFeePeriod) private {\n    //     _executeOperatorFeePeriod = newExecuteOperatorFeePeriod;\n\n    //     emit ExecuteOperatorFeePeriodUpdate(newExecuteOperatorFeePeriod);\n    // }\n\n    function _expensesOf(address ownerAddress) private view returns(uint64) {\n        uint64 usage =  _owners[ownerAddress].used + _addressNetworkFee(ownerAddress);\n        for (uint32 index = 0; index < _operatorsInUseList[ownerAddress].length; ++index) {\n            OperatorInUse storage operatorInUseData = _operatorsInUseByAddress[ownerAddress][_operatorsInUseList[ownerAddress][index]];\n            usage += _operatorInUseUsageOf(operatorInUseData, ownerAddress, _operatorsInUseList[ownerAddress][index]);\n        }\n\n        return usage;\n    }\n\n    function _totalEarningsOf(address ownerAddress) private view returns (uint64) {\n        uint64 earnings = 0;\n        uint32[] memory operatorsByOwner = _SafeStakeRegistryContract.getOperatorsByOwnerAddress(ownerAddress);\n        for (uint32 index = 0; index < operatorsByOwner.length; ++index) {\n            earnings += _operatorEarningsOf(operatorsByOwner[index]);\n        }\n\n        return earnings;\n    }\n\n    function _totalBalanceOf(address ownerAddress) private view returns (uint64) {\n        uint64 balance = _owners[ownerAddress].deposited + _totalEarningsOf(ownerAddress);\n\n        uint64 usage = _owners[ownerAddress].withdrawn + _expensesOf(ownerAddress);\n\n        if(balance < usage) {\n            revert NegativeBalance();\n        }\n\n        return balance - usage;\n    }\n\n    function _operatorEarnRate(uint32 operatorId) private view returns (uint64) {\n        return _SafeStakeRegistryContract.getOperatorFee() * _operatorDatas[operatorId].activeValidatorCount;\n    }\n\n    /**\n     * @dev See {ISafeStakeNetwork-operatorEarningsOf}.\n     */\n    function _operatorEarningsOf(uint32 operatorId) private view returns (uint64) {\n        return _operatorDatas[operatorId].earnings +\n               uint64(block.number - _operatorDatas[operatorId].blockNumber) *\n               _operatorEarnRate(operatorId);\n    }\n\n    function _addressNetworkFee(address ownerAddress) private view returns (uint64) {\n        return _owners[ownerAddress].networkFee +\n              uint64(_currentNetworkFeeIndex() - _owners[ownerAddress].networkFeeIndex) *\n              _owners[ownerAddress].activeValidatorCount;\n    }\n\n    function _burnRate(address ownerAddress) private view returns (uint64 ownerBurnRate) {\n        if (_owners[ownerAddress].validatorsDisabled) {\n            return 0;\n        }\n\n        for (uint32 index = 0; index < _operatorsInUseList[ownerAddress].length; ++index) {\n            ownerBurnRate += _operatorInUseBurnRateWithNetworkFeeUnsafe(ownerAddress, _operatorsInUseList[ownerAddress][index]);\n        }\n\n        ownerBurnRate += _owners[ownerAddress].activeValidatorCount * _networkFee;\n\n        uint32[] memory operatorsByOwner = _SafeStakeRegistryContract.getOperatorsByOwnerAddress(ownerAddress);\n\n        for (uint32 index = 0; index < operatorsByOwner.length; ++index) {\n            if (ownerBurnRate <= _operatorEarnRate(operatorsByOwner[index])) {\n                return 0;\n            } else {\n                ownerBurnRate -= _operatorEarnRate(operatorsByOwner[index]);\n            }\n        }\n    }\n\n    function _overdue(address ownerAddress) private view returns (bool) {\n        return _totalBalanceOf(ownerAddress) < _minimumBlocksValidatorPay * _burnRate(ownerAddress);\n    }\n\n    /**\n     * @dev liquidatable means whether the validator can pay for the minimal fee.\n     */\n    function _liquidatable(address ownerAddress) private view returns (bool) {\n        return !_owners[ownerAddress].validatorsDisabled && _overdue(ownerAddress);\n    }\n\n    // function _canLiquidate(address ownerAddress) private view returns (bool) {\n    //     return !_owners[ownerAddress].validatorsDisabled && (msg.sender == ownerAddress || _overdue(ownerAddress));\n    // }\n\n    function _getTotalNetworkEarnings() private view returns (uint64) {\n        uint256 result = _networkEarnings + (block.number - _networkEarningsBlockNumber) * _networkFee * _SafeStakeRegistryContract.activeValidatorCount();\n        return uint64(result);\n    }\n\n    function _getNetworkEarnings() private view returns (uint64) {\n        return _getTotalNetworkEarnings() - _withdrawnFromTreasury;\n    }\n\n    /**\n     * @dev Get operator index by address.\n     */\n    function _operatorIndexOf(uint32 operatorId) private view returns (uint64) {\n        return _operatorDatas[operatorId].index +\n               _SafeStakeRegistryContract.getOperatorFee() *\n               uint64(block.number - _operatorDatas[operatorId].indexBlockNumber);\n    }\n\n    function _operatorInUseUsageOf(OperatorInUse storage operatorInUseData, address ownerAddress, uint32 operatorId) private view returns (uint64) {\n        return operatorInUseData.used + (\n                _owners[ownerAddress].validatorsDisabled ? 0 :\n                uint64(_operatorIndexOf(operatorId) - operatorInUseData.index) * operatorInUseData.validatorCount\n               );\n    }\n\n    function _operatorInUseBurnRateWithNetworkFeeUnsafe(address ownerAddress, uint32 operatorId) private view returns (uint64) {\n        // OperatorInUse storage operatorInUseData = _operatorsInUseByAddress[ownerAddress][operatorId];\n        return _SafeStakeRegistryContract.getOperatorFee() * _operatorsInUseByAddress[ownerAddress][operatorId].validatorCount;\n    }\n\n    /**\n     * @dev Returns the current network fee index\n     */\n    function _currentNetworkFeeIndex() private view returns(uint64) {\n        return _networkFeeIndex + uint64(block.number - _networkFeeIndexBlockNumber) * _networkFee;\n    }\n\n    function _onlyValidatorOwnerOrContractOwner(bytes calldata publicKey) private view {\n        address validatorOwner = _SafeStakeRegistryContract.getValidatorOwner(publicKey);\n        if (validatorOwner == address(0)) {\n            revert ValidatorWithPublicKeyNotExist();\n        }\n        if (msg.sender != validatorOwner && msg.sender != owner()) {\n            revert CallerNotValidatorOwner();\n        }\n    }\n\n    function _onlyOperatorOwnerOrContractOwner(uint32 operatorId) private view {\n        address operatorOwner = _SafeStakeRegistryContract.getOperatorOwner(operatorId);\n\n        if(operatorOwner == address(0)) {\n            revert OperatorWithPublicKeyNotExist();\n        }\n\n        if(msg.sender != operatorOwner && msg.sender != owner()) {\n            revert CallerNotOperatorOwner();\n        }\n    }\n\n    function _onlyInitializerOwner(uint32 initializerId) private view {\n        address initializerOwner = _SafeStakeRegistryContract.getInitializerOwner(initializerId);\n\n        if (initializerOwner == address(0)) {\n            revert InitializerNotExist();\n        }\n\n        if (msg.sender != initializerOwner) {\n            revert CallerNotInitializerOwner();\n        }\n    }\n\n    // function _ensureMinimalOperatorFee(uint64 fee) private pure {\n    //     if (fee < MINIMAL_OPERATOR_FEE) {\n    //         revert FeeTooLow();\n    //     }\n    // }\n\n    function _checkTwoOperatorsFromParaDao(uint32[] calldata operatorIds) private view returns (bool) {\n        uint8 count = 0; \n        for (uint32 index = 0; index < operatorIds.length; ++index) {\n            uint32 operatorId = operatorIds[index];\n            if (_SafeStakeRegistryContract.ifOperatorFromParaStateDao(operatorId)) {\n                ++count;\n            }\n        }\n        return count >= 2;\n    }\n\n\n    function version() external pure override returns (uint32) {\n        return 20000;\n    }\n\n    uint256[50] ______gap;\n}",
  "sourcePath": "/Users/jiangjianlin/Github/safestake-tokenomics/contracts/SafeStakeNetwork.sol",
  "compiler": {
    "name": "solc",
    "version": "0.8.17+commit.8df45f5f.Emscripten.clang"
  },
  "schemaVersion": "3.4.10",
  "updatedAt": "2022-11-28T11:21:14.314Z",
  "networkType": "ethereum",
  "devdoc": {
    "kind": "dev",
    "methods": {
      "disableAddress(address)": {
        "details": "See {ISafeStakeNetwork-disableAddress}."
      },
      "initialize(address,address,uint64,uint64)": {
        "details": "Initializes the contract.",
        "params": {
          "minimumBlocksBeforeLiquidation_": "The minimum blocks before liquidation.",
          "registryAddress_": "The registry address.",
          "token_": "The network token."
        }
      },
      "initializerMiniPoolReady(uint32)": {
        "details": "See {ISafeStakeNetwork-initializerMiniPoolReady}."
      },
      "initializerPreStake(uint32,bytes,address)": {
        "details": "See {ISafeStakeNetwork-initializerPreStake}."
      },
      "owner()": {
        "details": "Returns the address of the current owner."
      },
      "reactivateAccount(uint256)": {
        "details": "Enables msg.sender account.",
        "params": {
          "amount": "Tokens amount."
        }
      },
      "registerInitializer(uint32[])": {
        "details": "See {ISafeStakeNetwork-registerInitializer}."
      },
      "registerOperator(string,bytes)": {
        "details": "See {ISafeStakeNetwork-registerOperator}."
      },
      "registerValidator(bytes,uint32[],bytes[],bytes[],uint256)": {
        "details": "See {ISafeStakeNetwork-registerValidator}."
      },
      "removeOperator(uint32)": {
        "details": "See {ISafeStakeNetwork-removeOperator}."
      },
      "removeValidator(bytes)": {
        "details": "See {ISafeStakeNetwork-removeValidator}."
      },
      "renounceOwnership()": {
        "details": "Leaves the contract without owner. It will not be possible to call `onlyOwner` functions anymore. Can only be called by the current owner. NOTE: Renouncing ownership will leave the contract without an owner, thereby removing any functionality that is only available to the owner."
      },
      "transferOwnership(address)": {
        "details": "Transfers ownership of the contract to a new account (`newOwner`). Can only be called by the current owner."
      },
      "updateNetworkFee(uint256)": {
        "details": "See {ISafeStakeNetwork-updateNetworkFee}."
      },
      "withdrawNetworkEarnings(uint256)": {
        "details": "Withdraws network fees.",
        "params": {
          "amount": "Amount to withdraw"
        }
      }
    },
    "version": 1
  },
  "userdoc": {
    "errors": {
      "ValidatorWithPublicKeyNotExist()": [
        {
          "notice": "errors "
        }
      ]
    },
    "kind": "user",
    "methods": {},
    "version": 1
  },
  "db": {
    "callBytecode": {
      "id": "0x1253d3a769d11680b9e89ebe6617696faf8a8166ceb062c36ab58bb25a023718"
    },
    "createBytecode": {
      "id": "0xf8b8a5bc9bc239125a1a948f98f30b8dd9b5a440a88b6eaa6c3a853baf599161"
    },
    "contract": {
      "id": "0x1a76b003793153822b1ba9009189c9c27f3661911a25ef0b25f6c6f42e94facd"
    }
  }
}