{
  "_format": "hh-sol-artifact-1",
  "contractName": "SafeStakeRegistryV3",
  "sourceName": "contracts/SafeStakeRegistryV3.sol",
  "abi": [
    {
      "anonymous": false,
      "inputs": [
        {
          "indexed": false,
          "internalType": "uint8",
          "name": "version",
          "type": "uint8"
        }
      ],
      "name": "Initialized",
      "type": "event"
    },
    {
      "anonymous": false,
      "inputs": [
        {
          "indexed": false,
          "internalType": "uint32",
          "name": "operatorId",
          "type": "uint32"
        },
        {
          "indexed": true,
          "internalType": "address",
          "name": "ownerAddress",
          "type": "address"
        }
      ],
      "name": "OperatorRemoval",
      "type": "event"
    },
    {
      "anonymous": false,
      "inputs": [
        {
          "indexed": false,
          "internalType": "address",
          "name": "owner",
          "type": "address"
        },
        {
          "indexed": false,
          "internalType": "bool",
          "name": "fromDao",
          "type": "bool"
        },
        {
          "indexed": false,
          "internalType": "bool",
          "name": "verified",
          "type": "bool"
        }
      ],
      "name": "OperatorVerified",
      "type": "event"
    },
    {
      "inputs": [],
      "name": "ADMIN_ROLE",
      "outputs": [
        {
          "internalType": "bytes32",
          "name": "",
          "type": "bytes32"
        }
      ],
      "stateMutability": "view",
      "type": "function"
    },
    {
      "inputs": [],
      "name": "NODE_ROLE",
      "outputs": [
        {
          "internalType": "bytes32",
          "name": "",
          "type": "bytes32"
        }
      ],
      "stateMutability": "view",
      "type": "function"
    },
    {
      "inputs": [],
      "name": "REGISTERED_OPERATORS_PER_ACCOUNT_LIMIT",
      "outputs": [
        {
          "internalType": "uint32",
          "name": "",
          "type": "uint32"
        }
      ],
      "stateMutability": "view",
      "type": "function"
    },
    {
      "inputs": [],
      "name": "SIGNER_ROLE",
      "outputs": [
        {
          "internalType": "bytes32",
          "name": "",
          "type": "bytes32"
        }
      ],
      "stateMutability": "view",
      "type": "function"
    },
    {
      "inputs": [],
      "name": "VALIDATORS_PER_OPERATOR_LIMIT",
      "outputs": [
        {
          "internalType": "uint32",
          "name": "",
          "type": "uint32"
        }
      ],
      "stateMutability": "view",
      "type": "function"
    },
    {
      "inputs": [],
      "name": "_activeValidatorCount",
      "outputs": [
        {
          "internalType": "uint32",
          "name": "",
          "type": "uint32"
        }
      ],
      "stateMutability": "view",
      "type": "function"
    },
    {
      "inputs": [],
      "name": "_lastInitiatorId",
      "outputs": [
        {
          "internalType": "uint256",
          "name": "_value",
          "type": "uint256"
        }
      ],
      "stateMutability": "view",
      "type": "function"
    },
    {
      "inputs": [],
      "name": "_lastOperatorId",
      "outputs": [
        {
          "internalType": "uint256",
          "name": "_value",
          "type": "uint256"
        }
      ],
      "stateMutability": "view",
      "type": "function"
    },
    {
      "inputs": [],
      "name": "_operatorFee",
      "outputs": [
        {
          "internalType": "uint256",
          "name": "",
          "type": "uint256"
        }
      ],
      "stateMutability": "view",
      "type": "function"
    },
    {
      "inputs": [
        {
          "internalType": "uint32",
          "name": "",
          "type": "uint32"
        }
      ],
      "name": "_operators",
      "outputs": [
        {
          "internalType": "string",
          "name": "name",
          "type": "string"
        },
        {
          "internalType": "bytes",
          "name": "publicKey",
          "type": "bytes"
        },
        {
          "internalType": "address",
          "name": "ownerAddress",
          "type": "address"
        },
        {
          "internalType": "uint32",
          "name": "indexInOwner",
          "type": "uint32"
        },
        {
          "internalType": "uint32",
          "name": "validatorCount",
          "type": "uint32"
        },
        {
          "internalType": "bool",
          "name": "active",
          "type": "bool"
        },
        {
          "internalType": "bool",
          "name": "fromParaStateDao",
          "type": "bool"
        },
        {
          "internalType": "bool",
          "name": "verified",
          "type": "bool"
        }
      ],
      "stateMutability": "view",
      "type": "function"
    },
    {
      "inputs": [
        {
          "internalType": "address",
          "name": "",
          "type": "address"
        },
        {
          "internalType": "uint256",
          "name": "",
          "type": "uint256"
        }
      ],
      "name": "_operatorsByOwnerAddress",
      "outputs": [
        {
          "internalType": "uint32",
          "name": "",
          "type": "uint32"
        }
      ],
      "stateMutability": "view",
      "type": "function"
    },
    {
      "inputs": [
        {
          "internalType": "address",
          "name": "",
          "type": "address"
        }
      ],
      "name": "_owners",
      "outputs": [
        {
          "internalType": "uint32",
          "name": "activeValidatorCount",
          "type": "uint32"
        },
        {
          "internalType": "bool",
          "name": "validatorsDisabled",
          "type": "bool"
        }
      ],
      "stateMutability": "view",
      "type": "function"
    },
    {
      "inputs": [
        {
          "internalType": "bytes",
          "name": "",
          "type": "bytes"
        }
      ],
      "name": "_validators",
      "outputs": [
        {
          "internalType": "address",
          "name": "ownerAddress",
          "type": "address"
        },
        {
          "internalType": "uint32",
          "name": "indexInOwner",
          "type": "uint32"
        },
        {
          "internalType": "bytes",
          "name": "publicKey",
          "type": "bytes"
        }
      ],
      "stateMutability": "view",
      "type": "function"
    },
    {
      "inputs": [
        {
          "internalType": "bytes32",
          "name": "role",
          "type": "bytes32"
        }
      ],
      "name": "checkRole",
      "outputs": [],
      "stateMutability": "view",
      "type": "function"
    },
    {
      "inputs": [
        {
          "internalType": "address",
          "name": "ownerAddress",
          "type": "address"
        }
      ],
      "name": "disableOwnerValidators",
      "outputs": [],
      "stateMutability": "nonpayable",
      "type": "function"
    },
    {
      "inputs": [
        {
          "internalType": "address",
          "name": "ownerAddress",
          "type": "address"
        }
      ],
      "name": "enableOwnerValidators",
      "outputs": [],
      "stateMutability": "nonpayable",
      "type": "function"
    },
    {
      "inputs": [
        {
          "internalType": "bytes32",
          "name": "role",
          "type": "bytes32"
        },
        {
          "internalType": "address",
          "name": "account",
          "type": "address"
        }
      ],
      "name": "grantRole",
      "outputs": [],
      "stateMutability": "nonpayable",
      "type": "function"
    },
    {
      "inputs": [
        {
          "internalType": "bytes32",
          "name": "role",
          "type": "bytes32"
        },
        {
          "internalType": "address",
          "name": "account",
          "type": "address"
        }
      ],
      "name": "hasRole",
      "outputs": [
        {
          "internalType": "bool",
          "name": "",
          "type": "bool"
        }
      ],
      "stateMutability": "view",
      "type": "function"
    },
    {
      "inputs": [
        {
          "internalType": "uint256",
          "name": "operatorFee",
          "type": "uint256"
        },
        {
          "internalType": "address",
          "name": "owner",
          "type": "address"
        }
      ],
      "name": "initialize",
      "outputs": [],
      "stateMutability": "nonpayable",
      "type": "function"
    },
    {
      "inputs": [
        {
          "internalType": "address",
          "name": "ownerAddress",
          "type": "address"
        }
      ],
      "name": "isAccountRegisteredOperator",
      "outputs": [
        {
          "internalType": "bool",
          "name": "",
          "type": "bool"
        }
      ],
      "stateMutability": "view",
      "type": "function"
    },
    {
      "inputs": [
        {
          "internalType": "address",
          "name": "ownerAddress",
          "type": "address"
        }
      ],
      "name": "isAccountRegisteredValidator",
      "outputs": [
        {
          "internalType": "bool",
          "name": "",
          "type": "bool"
        }
      ],
      "stateMutability": "view",
      "type": "function"
    },
    {
      "inputs": [
        {
          "internalType": "address",
          "name": "owner",
          "type": "address"
        },
        {
          "internalType": "bytes",
          "name": "publicKey",
          "type": "bytes"
        }
      ],
      "name": "isValidatorOwner",
      "outputs": [
        {
          "internalType": "bool",
          "name": "",
          "type": "bool"
        }
      ],
      "stateMutability": "view",
      "type": "function"
    },
    {
      "inputs": [
        {
          "internalType": "string",
          "name": "name",
          "type": "string"
        },
        {
          "internalType": "address",
          "name": "ownerAddress",
          "type": "address"
        },
        {
          "internalType": "bytes",
          "name": "publicKey",
          "type": "bytes"
        }
      ],
      "name": "registerOperator",
      "outputs": [
        {
          "internalType": "uint32",
          "name": "operatorId",
          "type": "uint32"
        }
      ],
      "stateMutability": "nonpayable",
      "type": "function"
    },
    {
      "inputs": [
        {
          "internalType": "address",
          "name": "ownerAddress",
          "type": "address"
        },
        {
          "internalType": "bytes",
          "name": "publicKey",
          "type": "bytes"
        },
        {
          "internalType": "uint32[]",
          "name": "operatorIds",
          "type": "uint32[]"
        },
        {
          "internalType": "bytes[]",
          "name": "sharesPublicKeys",
          "type": "bytes[]"
        },
        {
          "internalType": "bytes[]",
          "name": "sharesEncrypted",
          "type": "bytes[]"
        }
      ],
      "name": "registerValidator",
      "outputs": [],
      "stateMutability": "nonpayable",
      "type": "function"
    },
    {
      "inputs": [
        {
          "internalType": "uint32",
          "name": "operatorId",
          "type": "uint32"
        }
      ],
      "name": "removeOperator",
      "outputs": [],
      "stateMutability": "nonpayable",
      "type": "function"
    },
    {
      "inputs": [
        {
          "internalType": "bytes",
          "name": "publicKey",
          "type": "bytes"
        }
      ],
      "name": "removeValidator",
      "outputs": [],
      "stateMutability": "nonpayable",
      "type": "function"
    },
    {
      "inputs": [
        {
          "internalType": "bytes32",
          "name": "role",
          "type": "bytes32"
        },
        {
          "internalType": "address",
          "name": "account",
          "type": "address"
        }
      ],
      "name": "revokeRole",
      "outputs": [],
      "stateMutability": "nonpayable",
      "type": "function"
    },
    {
      "inputs": [
        {
          "internalType": "bytes32",
          "name": "role",
          "type": "bytes32"
        },
        {
          "internalType": "address",
          "name": "newOwner",
          "type": "address"
        }
      ],
      "name": "transferOwnership",
      "outputs": [],
      "stateMutability": "nonpayable",
      "type": "function"
    },
    {
      "inputs": [
        {
          "internalType": "uint64",
          "name": "fee",
          "type": "uint64"
        }
      ],
      "name": "updateOperatorFee",
      "outputs": [],
      "stateMutability": "nonpayable",
      "type": "function"
    },
    {
      "inputs": [
        {
          "internalType": "address",
          "name": "owner",
          "type": "address"
        },
        {
          "internalType": "bool",
          "name": "fromDao",
          "type": "bool"
        },
        {
          "internalType": "bool",
          "name": "verified",
          "type": "bool"
        }
      ],
      "name": "verifyOperator",
      "outputs": [],
      "stateMutability": "nonpayable",
      "type": "function"
    },
    {
      "inputs": [],
      "name": "version",
      "outputs": [
        {
          "internalType": "uint32",
          "name": "",
          "type": "uint32"
        }
      ],
      "stateMutability": "pure",
      "type": "function"
    }
  ],
  "bytecode": "0x608060405234801561001057600080fd5b50612ad3806100206000396000f3fe608060405234801561001057600080fd5b50600436106101e55760003560e01c806391d148541161010f578063c5b95190116100a2578063da35a26f11610071578063da35a26f146104aa578063ef5d6bbb146104bd578063fb895733146104d0578063fbff6382146104f757600080fd5b8063c5b951901461044d578063d24ff60314610460578063d479ad051461048e578063d547741f1461049757600080fd5b8063a76af3bb116100de578063a76af3bb146103c5578063b2f569c5146103d8578063bf3a5c02146103eb578063c0e1e1591461043a57600080fd5b806391d14854146103655780639b4ddb5d146103785780639fb54b761461038b578063a1ebf35d1461039e57600080fd5b80632f2ff15d116101875780635d5dbffe116101565780635d5dbffe146102eb57806375202e2614610312578063759356951461033457806375b238fc1461033e57600080fd5b80632f2ff15d146102ab57806341d2c0cd146102be57806345413bf4146102d157806354fd4d50146102e457600080fd5b806303cf7031116101c357806303cf7031146102355780631940d3871461027057806327467a18146102835780632e1d2f051461029857600080fd5b806301a11927146101ea57806301e72bd71461020d57806302a4df0e14610225575b600080fd5b6101f36107d081565b60405163ffffffff90911681526020015b60405180910390f35b6002546102179081565b604051908152602001610204565b6008546101f39063ffffffff1681565b6102606102433660046120e4565b6001600160a01b0316600090815260066020526040902054151590565b6040519015158152602001610204565b6101f361027e36600461214f565b6104ff565b6102966102913660046120e4565b610a59565b005b6102966102a63660046121d3565b610baa565b6102966102b93660046121f9565b610e5a565b6102966102cc366004612225565b610ebb565b6102966102df3660046120e4565b610ef5565b60016101f3565b6102fe6102f93660046121d3565b610fee565b604051610204989796959493929190612295565b61032561032036600461231a565b611164565b604051610204939291906123cb565b6003546102179081565b6102177f03783fac2efed8fbc9ad443e592ee30e61d65f471140c10ca155e937b435b76081565b6102606103733660046121f9565b61122b565b610296610386366004612447565b611258565b6101f361039936600461251e565b6116cf565b6102177f017e667f4b8c174291d1543c466717566e206df1bfd6f30271055ddafdb18f7281565b6102966103d3366004612558565b611718565b6102966103e636600461259b565b61191e565b61041e6103f93660046120e4565b60076020526000908152604090205463ffffffff811690640100000000900460ff1682565b6040805163ffffffff9093168352901515602083015201610204565b6102606104483660046125dd565b611c2b565b61029661045b366004612630565b611c6c565b61026061046e3660046120e4565b6001600160a01b0316600090815260076020526040902060010154151590565b61021760095481565b6102966104a53660046121f9565b611c82565b6102966104b83660046121f9565b611cdf565b6102966104cb3660046121f9565b611d5c565b6102177f1f675bff07515f5df96737194ea945c36c41e7b4fcef307b7cd4d0e602a6911181565b6101f3600a81565b60007f1f675bff07515f5df96737194ea945c36c41e7b4fcef307b7cd4d0e602a6911161052b81611c6c565b6001600160a01b038516600090815260066020526040902054600a101561057e5760405162461bcd60e51b8152602060048201526002602482015261041360f41b60448201526064015b60405180910390fd5b6001600160a01b038516600090815260076020526040902060010154156105cc5760405162461bcd60e51b8152602060048201526002602482015261413160f01b6044820152606401610575565b6105da600280546001019055565b6002546001600160a01b03861660009081526006602052604081205491935090819015610816576001600160a01b038716600090815260066020526040812080546004918391829061062e5761062e612649565b90600052602060002090600891828204019190066004029054906101000a900463ffffffff1663ffffffff1663ffffffff1681526020019081526020016000206040518061010001604052908160008201805461068a9061265f565b80601f01602080910402602001604051908101604052809291908181526020018280546106b69061265f565b80156107035780601f106106d857610100808354040283529160200191610703565b820191906000526020600020905b8154815290600101906020018083116106e657829003601f168201915b5050505050815260200160018201805461071c9061265f565b80601f01602080910402602001604051908101604052809291908181526020018280546107489061265f565b80156107955780601f1061076a57610100808354040283529160200191610795565b820191906000526020600020905b81548152906001019060200180831161077857829003601f168201915b5050509183525050600291909101546001600160a01b038116602083015263ffffffff600160a01b820481166040840152600160c01b820416606083015260ff600160e01b8204811615156080840152600160e81b82048116151560a0840152600160f01b90910416151560c09182015281015160e0909101519093509150505b6040518061010001604052808a8a8080601f016020809104026020016040519081016040528093929190818152602001838380828437600092019190915250505090825250604080516020601f8a018190048102820181019092528881529181019190899089908190840183828082843760009201829052509385525050506001600160a01b038a1660208084018290529082526006815260408083205463ffffffff90811682860152606085018490526001608086015287151560a086015286151560c09095019490945292881682526004905220815181906108fa90826126e7565b506020820151600182019061090f90826126e7565b5060408281015160029290920180546060850151608086015160a087015160c088015160e0909801516001600160a01b039788167fffffffffffffffff00000000000000000000000000000000000000000000000090951694909417600160a01b63ffffffff94851602177fffffff0000000000ffffffffffffffffffffffffffffffffffffffffffffffff16600160c01b9284169290920260ff60e01b191691909117600160e01b911515919091021761ffff60e81b1916600160e81b961515969096027fff00ffffffffffffffffffffffffffffffffffffffffffffffffffffffffffff1695909517600160f01b91151591909102179055981660009081526006602090815298812080546001810182559082529890206008890401805460079099166004026101000a80830219909916918616989098021790965550909695505050505050565b7f1f675bff07515f5df96737194ea945c36c41e7b4fcef307b7cd4d0e602a69111610a8381611c6c565b6001600160a01b038216600090815260076020526040902054640100000000900460ff1615610ad95760405162461bcd60e51b8152602060048201526002602482015261473160f01b6044820152606401610575565b6001600160a01b03821660009081526007602052604090205463ffffffff16610b295760405162461bcd60e51b8152602060048201526002602482015261239960f11b6044820152606401610575565b6001600160a01b0382166000908152600760205260408120546008805463ffffffff928316939192610b5d918591166127bd565b825463ffffffff9182166101009390930a928302919092021990911617905550506001600160a01b03166000908152600760205260409020805464ff000000001916640100000000179055565b63ffffffff811660009081526004602052604090206002810154600160e01b900460ff16610bff5760405162461bcd60e51b8152602060048201526002602482015261042360f41b6044820152606401610575565b60028101546001600160a01b03163314610c405760405162461bcd60e51b8152602060048201526002602482015261423160f01b6044820152606401610575565b6002810154600160c01b900463ffffffff1615610c845760405162461bcd60e51b8152602060048201526002602482015261211960f11b6044820152606401610575565b60028101805460ff60e01b1981169091556001600160a01b031660009081526006602052604081208054610cba906001906127e1565b81548110610cca57610cca612649565b6000918252602080832060088304015460028601546001600160a01b038116855260069092526040909320805460079093166004026101000a90930463ffffffff9081169450849392600160a01b90920416908110610d2b57610d2b612649565b6000918252602080832060088304018054600790931660049081026101000a63ffffffff8181021990951696851602959095179055600286810180548785168652958352604080862090920180547fffffffffffffffff00000000ffffffffffffffffffffffffffffffffffffffff16600160a01b978890049095169096029390931790945590546001600160a01b031682526006905220805480610dd257610dd26127f4565b600082815260209020600860001990920191820401805463ffffffff600460078516026101000a0219169055905560028201546040516001600160a01b03909116907f10b90e3d042178ee9b3e99a849224b4bf4145b9855274073c0c6bca9c5113b7b90610e4d90869063ffffffff91909116815260200190565b60405180910390a2505050565b610e847f03783fac2efed8fbc9ad443e592ee30e61d65f471140c10ca155e937b435b7603361122b565b610eb75760008281526001602081815260408084206001600160a01b0386168552909152909120805460ff191690911790555b5050565b7f017e667f4b8c174291d1543c466717566e206df1bfd6f30271055ddafdb18f72610ee581611c6c565b5067ffffffffffffffff16600955565b7f1f675bff07515f5df96737194ea945c36c41e7b4fcef307b7cd4d0e602a69111610f1f81611c6c565b6001600160a01b038216600090815260076020526040902054640100000000900460ff16610f745760405162461bcd60e51b8152602060048201526002602482015261463160f01b6044820152606401610575565b6001600160a01b0382166000908152600760205260408120546008805463ffffffff928316939192610fa89185911661280a565b825463ffffffff9182166101009390930a928302919092021990911617905550506001600160a01b03166000908152600760205260409020805464ff0000000019169055565b6004602052600090815260409020805481906110099061265f565b80601f01602080910402602001604051908101604052809291908181526020018280546110359061265f565b80156110825780601f1061105757610100808354040283529160200191611082565b820191906000526020600020905b81548152906001019060200180831161106557829003601f168201915b5050505050908060010180546110979061265f565b80601f01602080910402602001604051908101604052809291908181526020018280546110c39061265f565b80156111105780601f106110e557610100808354040283529160200191611110565b820191906000526020600020905b8154815290600101906020018083116110f357829003601f168201915b505050600290930154919250506001600160a01b0381169063ffffffff600160a01b8204811691600160c01b81049091169060ff600160e01b8204811691600160e81b8104821691600160f01b9091041688565b80516020818301810180516005825292820191909301209152805460028201546003830180546001600160a01b039093169363ffffffff909216926111a89061265f565b80601f01602080910402602001604051908101604052809291908181526020018280546111d49061265f565b80156112215780601f106111f657610100808354040283529160200191611221565b820191906000526020600020905b81548152906001019060200180831161120457829003601f168201915b5050505050905083565b60008281526001602090815260408083206001600160a01b038516845290915290205460ff165b92915050565b7f1f675bff07515f5df96737194ea945c36c41e7b4fcef307b7cd4d0e602a6911161128281611c6c565b6112928989898989898989611dbc565b60006001600160a01b031660058a8a6040516112af929190612827565b908152604051908190036020019020546001600160a01b0316146112fa5760405162461bcd60e51b8152602060048201526002602482015261453160f01b6044820152606401610575565b6001600160a01b038a16600090815260066020526040902054156113455760405162461bcd60e51b8152602060048201526002602482015261229960f11b6044820152606401610575565b60005b63ffffffff81168711156114b957600088888363ffffffff1681811061137057611370612649565b905060200201602081019061138591906121d3565b90506113998989838563ffffffff16611e3e565b6113ca5760405162461bcd60e51b8152602060048201526002602482015261453360f01b6044820152606401610575565b63ffffffff8116600090815260046020526040902060020154600160e01b900460ff1661141e5760405162461bcd60e51b8152602060048201526002602482015261114d60f21b6044820152606401610575565b63ffffffff818116600090815260046020526040902060020180546107d09260189161145291600160c01b90910416612837565b91906101000a81548163ffffffff021916908363ffffffff160217905563ffffffff1611156114a85760405162461bcd60e51b8152602060048201526002602482015261453560f01b6044820152606401610575565b506114b281612837565b9050611348565b5060405180608001604052808b6001600160a01b0316815260200188888080602002602001604051908101604052809392919081815260200183836020028082843760009201829052509385525050506001600160a01b038d168152600760209081526040918290206001015463ffffffff16818401528151601f8d0182900482028101820183528c815291909201918c908c90819084018382808284376000920191909152505050915250604051600590611578908c908c90612827565b908152604051602091819003820190208251815473ffffffffffffffffffffffffffffffffffffffff19166001600160a01b0390911617815582820151805191926115cb92600185019290910190611fae565b50604082015160028201805463ffffffff191663ffffffff9092169190911790556060820151600382019061160090826126e7565b5050506001600160a01b038a16600090815260076020908152604082206001908101805491820181558352912001611639898b8361285a565b506001600160a01b038a16600090815260076020526040812080546001929061166990849063ffffffff1661280a565b92506101000a81548163ffffffff021916908363ffffffff1602179055506008600081819054906101000a900463ffffffff166116a590612837565b91906101000a81548163ffffffff021916908363ffffffff16021790555050505050505050505050565b600660205281600052604060002081815481106116eb57600080fd5b9060005260206000209060089182820401919006600402915091509054906101000a900463ffffffff1681565b7f017e667f4b8c174291d1543c466717566e206df1bfd6f30271055ddafdb18f7261174281611c6c565b6001600160a01b038416600090815260066020526040812080546004918391829061176f5761176f612649565b6000918252602080832060088304015460079092166004026101000a90910463ffffffff16835282019290925260400190206002810154909150600160e01b900460ff166117e45760405162461bcd60e51b8152602060048201526002602482015261433160f01b6044820152606401610575565b60005b60028201546001600160a01b031660009081526006602052604090205463ffffffff821610156118cb5760028201546001600160a01b03166000908152600660205260408120805463ffffffff841690811061184557611845612649565b60009182526020808320600883040154600790921660049081026101000a90920463ffffffff1683525260409020600201805461ffff60e81b1916600160f01b871515027fffff00ffffffffffffffffffffffffffffffffffffffffffffffffffffffffff1617600160e81b8815150217905550806118c381612837565b9150506117e7565b50604080516001600160a01b038716815285151560208201528415158183015290517f11382736e2f1156c2de7ec46b5d4b6ff3fa2af3a812e633907b3c0c08d348b559181900360600190a15050505050565b7f1f675bff07515f5df96737194ea945c36c41e7b4fcef307b7cd4d0e602a6911161194881611c6c565b60006005848460405161195c929190612827565b9081526020016040518091039020905060005b600182015463ffffffff82161015611a1f576000826001018263ffffffff168154811061199e5761199e612649565b6000918252602080832060088304015463ffffffff6004600790941684026101000a90910481168085529290915260409092206002018054919350916018916119ef91600160c01b9091041661291b565b91906101000a81548163ffffffff021916908363ffffffff1602179055505080611a1890612837565b905061196f565b5080546001600160a01b031660009081526007602052604090206001818101805490918291611a4e91906127e1565b81548110611a5e57611a5e612649565b90600052602060002001818460020160009054906101000a900463ffffffff1663ffffffff1681548110611a9457611a94612649565b906000526020600020019081611aaa919061293b565b506002830154815463ffffffff90911690600590839083908110611ad057611ad0612649565b90600052602060002001604051611ae79190612a0e565b908152602001604051809103902060020160006101000a81548163ffffffff021916908363ffffffff16021790555080805480611b2657611b266127f4565b600190038181906000526020600020016000611b42919061205d565b905581546001908390600090611b5f90849063ffffffff166127bd565b92506101000a81548163ffffffff021916908363ffffffff1602179055506008600081819054906101000a900463ffffffff16611b9b9061291b565b91906101000a81548163ffffffff021916908363ffffffff16021790555060058686604051611bcb929190612827565b908152604051908190036020019020805473ffffffffffffffffffffffffffffffffffffffff191681556000611c046001830182612097565b60028201805463ffffffff19169055611c2160038301600061205d565b5050505050505050565b6000836001600160a01b031660058484604051611c49929190612827565b908152604051908190036020019020546001600160a01b03161490509392505050565b611c76813361122b565b611c7f57600080fd5b50565b611cac7f03783fac2efed8fbc9ad443e592ee30e61d65f471140c10ca155e937b435b7603361122b565b15610eb75760008281526001602090815260408083206001600160a01b03851684529091529020805460ff191690555050565b6000611ceb6001611eb5565b90508015611d03576000805461ff0019166101001790555b6009839055611d1182611f1c565b8015611d57576000805461ff0019169055604051600181527f7f26b83ff96e1f2b6a682f133852f6798a09c465da95921460cefb38474024989060200160405180910390a15b505050565b81611d6681611c6c565b6001600160a01b038216611d7957600080fd5b506000918252600160208181526040808520338652909152808420805460ff199081169091556001600160a01b0393909316845290922080549091169091179055565b60308714611df15760405162461bcd60e51b8152602060048201526002602482015261443160f01b6044820152606401610575565b8483141580611e005750848114155b80611e0c575060048514155b15611c215760405162461bcd60e51b8152602060048201526002602482015261221960f11b6044820152606401610575565b600081611e4a81612a84565b9250505b83821015611ea9578263ffffffff16858584818110611e6f57611e6f612649565b9050602002016020810190611e8491906121d3565b63ffffffff1603611e9757506000611ead565b81611ea181612a84565b925050611e4e565b5060015b949350505050565b60008054610100900460ff1615611ee9578160ff166001148015611ed85750303b155b611ee157600080fd5b506000919050565b60005460ff808416911610611efd57600080fd5b506000805460ff191660ff92909216919091179055600190565b919050565b600054610100900460ff16611f3057600080fd5b611f5a7f1f675bff07515f5df96737194ea945c36c41e7b4fcef307b7cd4d0e602a6911133610e5a565b611f847f017e667f4b8c174291d1543c466717566e206df1bfd6f30271055ddafdb18f7282610e5a565b611c7f7f03783fac2efed8fbc9ad443e592ee30e61d65f471140c10ca155e937b435b76082610e5a565b8280548282559060005260206000209060070160089004810192821561204d5791602002820160005b8382111561201b57835183826101000a81548163ffffffff021916908363ffffffff1602179055509260200192600401602081600301049283019260010302611fd7565b801561204b5782816101000a81549063ffffffff021916905560040160208160030104928301926001030261201b565b505b506120599291506120b8565b5090565b5080546120699061265f565b6000825580601f10612079575050565b601f016020900490600052602060002090810190611c7f91906120b8565b508054600082556007016008900490600052602060002090810190611c7f91905b5b8082111561205957600081556001016120b9565b80356001600160a01b0381168114611f1757600080fd5b6000602082840312156120f657600080fd5b6120ff826120cd565b9392505050565b60008083601f84011261211857600080fd5b50813567ffffffffffffffff81111561213057600080fd5b60208301915083602082850101111561214857600080fd5b9250929050565b60008060008060006060868803121561216757600080fd5b853567ffffffffffffffff8082111561217f57600080fd5b61218b89838a01612106565b909750955085915061219f602089016120cd565b945060408801359150808211156121b557600080fd5b506121c288828901612106565b969995985093965092949392505050565b6000602082840312156121e557600080fd5b813563ffffffff811681146120ff57600080fd5b6000806040838503121561220c57600080fd5b8235915061221c602084016120cd565b90509250929050565b60006020828403121561223757600080fd5b813567ffffffffffffffff811681146120ff57600080fd5b6000815180845260005b8181101561227557602081850181015186830182015201612259565b506000602082860101526020601f19601f83011685010191505092915050565b60006101008083526122a98184018c61224f565b905082810360208401526122bd818b61224f565b6001600160a01b03999099166040840152505063ffffffff958616606082015293909416608084015290151560a0830152151560c082015290151560e09091015292915050565b634e487b7160e01b600052604160045260246000fd5b60006020828403121561232c57600080fd5b813567ffffffffffffffff8082111561234457600080fd5b818401915084601f83011261235857600080fd5b81358181111561236a5761236a612304565b604051601f8201601f19908116603f0116810190838211818310171561239257612392612304565b816040528281528760208487010111156123ab57600080fd5b826020860160208301376000928101602001929092525095945050505050565b6001600160a01b038416815263ffffffff831660208201526060604082015260006123f9606083018461224f565b95945050505050565b60008083601f84011261241457600080fd5b50813567ffffffffffffffff81111561242c57600080fd5b6020830191508360208260051b850101111561214857600080fd5b600080600080600080600080600060a08a8c03121561246557600080fd5b61246e8a6120cd565b985060208a013567ffffffffffffffff8082111561248b57600080fd5b6124978d838e01612106565b909a50985060408c01359150808211156124b057600080fd5b6124bc8d838e01612402565b909850965060608c01359150808211156124d557600080fd5b6124e18d838e01612402565b909650945060808c01359150808211156124fa57600080fd5b506125078c828d01612402565b915080935050809150509295985092959850929598565b6000806040838503121561253157600080fd5b61253a836120cd565b946020939093013593505050565b80358015158114611f1757600080fd5b60008060006060848603121561256d57600080fd5b612576846120cd565b925061258460208501612548565b915061259260408501612548565b90509250925092565b600080602083850312156125ae57600080fd5b823567ffffffffffffffff8111156125c557600080fd5b6125d185828601612106565b90969095509350505050565b6000806000604084860312156125f257600080fd5b6125fb846120cd565b9250602084013567ffffffffffffffff81111561261757600080fd5b61262386828701612106565b9497909650939450505050565b60006020828403121561264257600080fd5b5035919050565b634e487b7160e01b600052603260045260246000fd5b600181811c9082168061267357607f821691505b60208210810361269357634e487b7160e01b600052602260045260246000fd5b50919050565b601f821115611d5757600081815260208120601f850160051c810160208610156126c05750805b601f850160051c820191505b818110156126df578281556001016126cc565b505050505050565b815167ffffffffffffffff81111561270157612701612304565b6127158161270f845461265f565b84612699565b602080601f83116001811461274a57600084156127325750858301515b600019600386901b1c1916600185901b1785556126df565b600085815260208120601f198616915b828110156127795788860151825594840194600190910190840161275a565b50858210156127975787850151600019600388901b60f8161c191681555b5050505050600190811b01905550565b634e487b7160e01b600052601160045260246000fd5b63ffffffff8281168282160390808211156127da576127da6127a7565b5092915050565b81810381811115611252576112526127a7565b634e487b7160e01b600052603160045260246000fd5b63ffffffff8181168382160190808211156127da576127da6127a7565b8183823760009101908152919050565b600063ffffffff808316818103612850576128506127a7565b6001019392505050565b67ffffffffffffffff83111561287257612872612304565b61288683612880835461265f565b83612699565b6000601f8411600181146128ba57600085156128a25750838201355b600019600387901b1c1916600186901b178355612914565b600083815260209020601f19861690835b828110156128eb57868501358255602094850194600190920191016128cb565b50868210156129085760001960f88860031b161c19848701351681555b505060018560011b0183555b5050505050565b600063ffffffff821680612931576129316127a7565b6000190192915050565b818103612946575050565b612950825461265f565b67ffffffffffffffff81111561296857612968612304565b6129768161270f845461265f565b6000601f8211600181146129aa57600083156129925750848201545b600019600385901b1c1916600184901b178455612914565b600085815260209020601f19841690600086815260209020845b838110156129e457828601548255600195860195909101906020016129c4565b50858310156127975793015460001960f8600387901b161c19169092555050600190811b01905550565b6000808354612a1c8161265f565b60018281168015612a345760018114612a4957612a78565b60ff1984168752821515830287019450612a78565b8760005260208060002060005b85811015612a6f5781548a820152908401908201612a56565b50505082870194505b50929695505050505050565b600060018201612a9657612a966127a7565b506001019056fea26469706673582212203fad58dd35cc71a2a3932207278fcce252272499d493f3b9e8bd9d7a32b64f7164736f6c63430008130033",
  "linkReferences": {},
  "deployedLinkReferences": {}
}