{
  "contractName": "SafeStakeNetwork",
  "abi": [
    {
      "inputs": [],
      "name": "AccountAlreadyEnabled",
      "type": "error"
    },
    {
      "inputs": [],
      "name": "ApprovalNotWithinTimeframe",
      "type": "error"
    },
    {
      "inputs": [],
      "name": "BelowMinimumBlockPeriod",
      "type": "error"
    },
    {
      "inputs": [],
      "name": "BurnRatePositive",
      "type": "error"
    },
    {
      "inputs": [],
      "name": "CallerNotOperatorOwner",
      "type": "error"
    },
    {
      "inputs": [],
      "name": "CallerNotValidatorOwner",
      "type": "error"
    },
    {
      "inputs": [],
      "name": "ExceedManagingOperatorsPerAccountLimit",
      "type": "error"
    },
    {
      "inputs": [],
      "name": "FeeExceedsIncreaseLimit",
      "type": "error"
    },
    {
      "inputs": [],
      "name": "FeeTooLow",
      "type": "error"
    },
    {
      "inputs": [],
      "name": "NegativeBalance",
      "type": "error"
    },
    {
      "inputs": [],
      "name": "NoEnoughParaStateDaoOperators",
      "type": "error"
    },
    {
      "inputs": [],
      "name": "NoPendingFeeChangeRequest",
      "type": "error"
    },
    {
      "inputs": [],
      "name": "NotEnoughBalance",
      "type": "error"
    },
    {
      "inputs": [],
      "name": "OperatorWithPublicKeyNotExist",
      "type": "error"
    },
    {
      "inputs": [],
      "name": "ValidatorWithPublicKeyNotExist",
      "type": "error"
    },
    {
      "anonymous": false,
      "inputs": [
        {
          "indexed": true,
          "internalType": "address",
          "name": "ownerAddress",
          "type": "address"
        }
      ],
      "name": "AccountDisable",
      "type": "event"
    },
    {
      "anonymous": false,
      "inputs": [
        {
          "indexed": true,
          "internalType": "address",
          "name": "ownerAddress",
          "type": "address"
        }
      ],
      "name": "AccountEnable",
      "type": "event"
    },
    {
      "anonymous": false,
      "inputs": [
        {
          "indexed": false,
          "internalType": "uint256",
          "name": "value",
          "type": "uint256"
        },
        {
          "indexed": true,
          "internalType": "address",
          "name": "ownerAddress",
          "type": "address"
        },
        {
          "indexed": true,
          "internalType": "address",
          "name": "senderAddress",
          "type": "address"
        }
      ],
      "name": "FundsDeposit",
      "type": "event"
    },
    {
      "anonymous": false,
      "inputs": [
        {
          "indexed": false,
          "internalType": "uint256",
          "name": "value",
          "type": "uint256"
        },
        {
          "indexed": true,
          "internalType": "address",
          "name": "ownerAddress",
          "type": "address"
        }
      ],
      "name": "FundsWithdrawal",
      "type": "event"
    },
    {
      "anonymous": false,
      "inputs": [
        {
          "indexed": false,
          "internalType": "uint8",
          "name": "version",
          "type": "uint8"
        }
      ],
      "name": "Initialized",
      "type": "event"
    },
    {
      "anonymous": false,
      "inputs": [
        {
          "indexed": false,
          "internalType": "uint256",
          "name": "oldFee",
          "type": "uint256"
        },
        {
          "indexed": false,
          "internalType": "uint256",
          "name": "newFee",
          "type": "uint256"
        }
      ],
      "name": "NetworkFeeUpdate",
      "type": "event"
    },
    {
      "anonymous": false,
      "inputs": [
        {
          "indexed": false,
          "internalType": "uint256",
          "name": "value",
          "type": "uint256"
        },
        {
          "indexed": false,
          "internalType": "address",
          "name": "recipient",
          "type": "address"
        }
      ],
      "name": "NetworkFeesWithdrawal",
      "type": "event"
    },
    {
      "anonymous": false,
      "inputs": [
        {
          "indexed": true,
          "internalType": "uint32",
          "name": "id",
          "type": "uint32"
        },
        {
          "indexed": false,
          "internalType": "string",
          "name": "name",
          "type": "string"
        },
        {
          "indexed": true,
          "internalType": "address",
          "name": "ownerAddress",
          "type": "address"
        },
        {
          "indexed": false,
          "internalType": "bytes",
          "name": "publicKey",
          "type": "bytes"
        }
      ],
      "name": "OperatorRegistration",
      "type": "event"
    },
    {
      "anonymous": false,
      "inputs": [
        {
          "indexed": false,
          "internalType": "uint32",
          "name": "operatorId",
          "type": "uint32"
        },
        {
          "indexed": true,
          "internalType": "address",
          "name": "ownerAddress",
          "type": "address"
        }
      ],
      "name": "OperatorRemoval",
      "type": "event"
    },
    {
      "anonymous": false,
      "inputs": [
        {
          "indexed": false,
          "internalType": "uint32",
          "name": "operatorId",
          "type": "uint32"
        },
        {
          "indexed": true,
          "internalType": "address",
          "name": "ownerAddress",
          "type": "address"
        },
        {
          "indexed": false,
          "internalType": "uint256",
          "name": "blockNumber",
          "type": "uint256"
        },
        {
          "indexed": false,
          "internalType": "uint256",
          "name": "score",
          "type": "uint256"
        }
      ],
      "name": "OperatorScoreUpdate",
      "type": "event"
    },
    {
      "anonymous": false,
      "inputs": [
        {
          "indexed": true,
          "internalType": "address",
          "name": "previousOwner",
          "type": "address"
        },
        {
          "indexed": true,
          "internalType": "address",
          "name": "newOwner",
          "type": "address"
        }
      ],
      "name": "OwnershipTransferred",
      "type": "event"
    },
    {
      "anonymous": false,
      "inputs": [
        {
          "indexed": true,
          "internalType": "address",
          "name": "ownerAddress",
          "type": "address"
        },
        {
          "indexed": false,
          "internalType": "bytes",
          "name": "publicKey",
          "type": "bytes"
        },
        {
          "indexed": false,
          "internalType": "uint32[]",
          "name": "operatorIds",
          "type": "uint32[]"
        },
        {
          "indexed": false,
          "internalType": "bytes[]",
          "name": "sharesPublicKeys",
          "type": "bytes[]"
        },
        {
          "indexed": false,
          "internalType": "bytes[]",
          "name": "encryptedKeys",
          "type": "bytes[]"
        },
        {
          "indexed": false,
          "internalType": "uint256",
          "name": "paidBlockNumber",
          "type": "uint256"
        }
      ],
      "name": "ValidatorRegistration",
      "type": "event"
    },
    {
      "anonymous": false,
      "inputs": [
        {
          "indexed": true,
          "internalType": "address",
          "name": "ownerAddress",
          "type": "address"
        },
        {
          "indexed": false,
          "internalType": "bytes",
          "name": "publicKey",
          "type": "bytes"
        }
      ],
      "name": "ValidatorRemoval",
      "type": "event"
    },
    {
      "inputs": [],
      "name": "owner",
      "outputs": [
        {
          "internalType": "address",
          "name": "",
          "type": "address"
        }
      ],
      "stateMutability": "view",
      "type": "function",
      "constant": true
    },
    {
      "inputs": [],
      "name": "renounceOwnership",
      "outputs": [],
      "stateMutability": "nonpayable",
      "type": "function"
    },
    {
      "inputs": [
        {
          "internalType": "address",
          "name": "newOwner",
          "type": "address"
        }
      ],
      "name": "transferOwnership",
      "outputs": [],
      "stateMutability": "nonpayable",
      "type": "function"
    },
    {
      "inputs": [
        {
          "internalType": "contract ISafeStakeRegistry",
          "name": "registryAddress_",
          "type": "address"
        },
        {
          "internalType": "contract IERC20",
          "name": "token_",
          "type": "address"
        },
        {
          "internalType": "uint64",
          "name": "minimumBlocksBeforeLiquidation_",
          "type": "uint64"
        },
        {
          "internalType": "uint64",
          "name": "operatorFee",
          "type": "uint64"
        }
      ],
      "name": "initialize",
      "outputs": [],
      "stateMutability": "nonpayable",
      "type": "function"
    },
    {
      "inputs": [
        {
          "internalType": "string",
          "name": "name",
          "type": "string"
        },
        {
          "internalType": "bytes",
          "name": "publicKey",
          "type": "bytes"
        }
      ],
      "name": "registerOperator",
      "outputs": [
        {
          "internalType": "uint32",
          "name": "operatorId",
          "type": "uint32"
        }
      ],
      "stateMutability": "nonpayable",
      "type": "function"
    },
    {
      "inputs": [
        {
          "internalType": "uint32",
          "name": "operatorId",
          "type": "uint32"
        }
      ],
      "name": "removeOperator",
      "outputs": [],
      "stateMutability": "nonpayable",
      "type": "function"
    },
    {
      "inputs": [
        {
          "internalType": "bytes",
          "name": "publicKey",
          "type": "bytes"
        },
        {
          "internalType": "uint32[]",
          "name": "operatorIds",
          "type": "uint32[]"
        },
        {
          "internalType": "bytes[]",
          "name": "sharesPublicKeys",
          "type": "bytes[]"
        },
        {
          "internalType": "bytes[]",
          "name": "sharesEncrypted",
          "type": "bytes[]"
        },
        {
          "internalType": "uint256",
          "name": "amount",
          "type": "uint256"
        }
      ],
      "name": "registerValidator",
      "outputs": [],
      "stateMutability": "nonpayable",
      "type": "function"
    },
    {
      "inputs": [
        {
          "internalType": "bytes",
          "name": "publicKey",
          "type": "bytes"
        }
      ],
      "name": "removeValidator",
      "outputs": [],
      "stateMutability": "nonpayable",
      "type": "function"
    },
    {
      "inputs": [
        {
          "internalType": "address",
          "name": "ownerAddress",
          "type": "address"
        },
        {
          "internalType": "uint256",
          "name": "amount",
          "type": "uint256"
        }
      ],
      "name": "deposit",
      "outputs": [],
      "stateMutability": "nonpayable",
      "type": "function"
    },
    {
      "inputs": [
        {
          "internalType": "uint256",
          "name": "amount",
          "type": "uint256"
        }
      ],
      "name": "withdraw",
      "outputs": [],
      "stateMutability": "nonpayable",
      "type": "function"
    },
    {
      "inputs": [
        {
          "internalType": "address",
          "name": "ownerAddress",
          "type": "address"
        }
      ],
      "name": "disableAddress",
      "outputs": [],
      "stateMutability": "nonpayable",
      "type": "function"
    },
    {
      "inputs": [
        {
          "internalType": "uint256",
          "name": "amount",
          "type": "uint256"
        }
      ],
      "name": "reactivateAccount",
      "outputs": [],
      "stateMutability": "nonpayable",
      "type": "function"
    },
    {
      "inputs": [
        {
          "internalType": "uint256",
          "name": "fee",
          "type": "uint256"
        }
      ],
      "name": "updateNetworkFee",
      "outputs": [],
      "stateMutability": "nonpayable",
      "type": "function"
    },
    {
      "inputs": [
        {
          "internalType": "address",
          "name": "ownerAddress",
          "type": "address"
        }
      ],
      "name": "getAddressBalance",
      "outputs": [
        {
          "internalType": "uint256",
          "name": "",
          "type": "uint256"
        }
      ],
      "stateMutability": "view",
      "type": "function",
      "constant": true
    },
    {
      "inputs": [
        {
          "internalType": "address",
          "name": "ownerAddress",
          "type": "address"
        }
      ],
      "name": "addressNetworkFee",
      "outputs": [
        {
          "internalType": "uint256",
          "name": "",
          "type": "uint256"
        }
      ],
      "stateMutability": "view",
      "type": "function",
      "constant": true
    },
    {
      "inputs": [
        {
          "internalType": "address",
          "name": "ownerAddress",
          "type": "address"
        }
      ],
      "name": "isLiquidatable",
      "outputs": [
        {
          "internalType": "bool",
          "name": "",
          "type": "bool"
        }
      ],
      "stateMutability": "view",
      "type": "function",
      "constant": true
    },
    {
      "inputs": [],
      "name": "getNetworkFee",
      "outputs": [
        {
          "internalType": "uint256",
          "name": "",
          "type": "uint256"
        }
      ],
      "stateMutability": "view",
      "type": "function",
      "constant": true
    },
    {
      "inputs": [],
      "name": "getNetworkEarnings",
      "outputs": [
        {
          "internalType": "uint256",
          "name": "",
          "type": "uint256"
        }
      ],
      "stateMutability": "view",
      "type": "function",
      "constant": true
    },
    {
      "inputs": [],
      "name": "getMinimumBlocksValidatorShouldPay",
      "outputs": [
        {
          "internalType": "uint256",
          "name": "",
          "type": "uint256"
        }
      ],
      "stateMutability": "view",
      "type": "function",
      "constant": true
    },
    {
      "inputs": [
        {
          "internalType": "address",
          "name": "account",
          "type": "address"
        },
        {
          "internalType": "uint32[]",
          "name": "performances",
          "type": "uint32[]"
        }
      ],
      "name": "accountCliamFee",
      "outputs": [],
      "stateMutability": "nonpayable",
      "type": "function"
    },
    {
      "inputs": [
        {
          "internalType": "uint64",
          "name": "fee",
          "type": "uint64"
        }
      ],
      "name": "updateOperatorFee",
      "outputs": [],
      "stateMutability": "nonpayable",
      "type": "function"
    },
    {
      "inputs": [],
      "name": "version",
      "outputs": [
        {
          "internalType": "uint32",
          "name": "",
          "type": "uint32"
        }
      ],
      "stateMutability": "pure",
      "type": "function",
      "constant": true
    },
    {
      "inputs": [
        {
          "internalType": "address",
          "name": "ownerAddress",
          "type": "address"
        }
      ],
      "name": "getOperatorsInUseByOwnerAddress",
      "outputs": [
        {
          "internalType": "uint32[]",
          "name": "",
          "type": "uint32[]"
        }
      ],
      "stateMutability": "view",
      "type": "function",
      "constant": true
    },
    {
      "inputs": [
        {
          "internalType": "uint32",
          "name": "operatorId",
          "type": "uint32"
        }
      ],
      "name": "getOperatorClaimBlock",
      "outputs": [
        {
          "internalType": "uint256",
          "name": "",
          "type": "uint256"
        }
      ],
      "stateMutability": "view",
      "type": "function",
      "constant": true
    },
    {
      "inputs": [
        {
          "internalType": "address",
          "name": "account",
          "type": "address"
        }
      ],
      "name": "getAccountPaidBlockNumber",
      "outputs": [
        {
          "internalType": "uint256",
          "name": "",
          "type": "uint256"
        }
      ],
      "stateMutability": "view",
      "type": "function",
      "constant": true
    }
  ],
  "bytecode": "0x608060405234801561001057600080fd5b50615f7b80620000216000396000f3fe608060405234801561001057600080fd5b50600436106101735760003560e01c806356d9a2cc116100de5780639b4400dd11610097578063e40cb19d11610071578063e40cb19d14610432578063ead1bc591461044e578063f2fde38b1461047e578063fc0438301461049a57610173565b80639b4400dd146103de578063ad224439146103fa578063b2f569c51461041657610173565b806356d9a2cc1461031a57806357e2b0e21461034a578063715018a614610368578063777915cb1461037257806385f79d61146103905780638da5cb5b146103c057610173565b80633504672211610130578063350467221461024857806341d2c0cd1461027857806347e7ef2414610294578063492e8410146102b05780635036258b146102e057806354fd4d50146102fc57610173565b8063042e02cf146101785780631f1f9fd5146101a857806327bfcabd146101c45780632afe872f146101f45780632e1a7d4d146102105780632e1d2f051461022c575b600080fd5b610192600480360381019061018d919061489f565b6104b8565b60405161019f91906148e7565b60405180910390f35b6101c260048036038101906101bd9190614938565b6104ca565b005b6101de60048036038101906101d9919061489f565b6105eb565b6040516101eb9190614a33565b60405180910390f35b61020e60048036038101906102099190614938565b6106ae565b005b61022a60048036038101906102259190614938565b6107cd565b005b61024660048036038101906102419190614a81565b61087f565b005b610262600480360381019061025d919061489f565b610a09565b60405161026f9190614abd565b60405180910390f35b610292600480360381019061028d9190614b18565b610a2d565b005b6102ae60048036038101906102a99190614b45565b610abd565b005b6102ca60048036038101906102c59190614a81565b610acb565b6040516102d79190614abd565b60405180910390f35b6102fa60048036038101906102f5919061489f565b610af7565b005b610304610c2a565b6040516103119190614b94565b60405180910390f35b610334600480360381019061032f919061489f565b610c34565b6040516103419190614abd565b60405180910390f35b610352610c50565b60405161035f9190614abd565b60405180910390f35b610370610c78565b005b61037a610d00565b6040516103879190614abd565b60405180910390f35b6103aa60048036038101906103a59190614c6a565b610d21565b6040516103b79190614b94565b60405180910390f35b6103c8610f3d565b6040516103d59190614cfa565b60405180910390f35b6103f860048036038101906103f39190614d91565b610f67565b005b610414600480360381019061040f9190614e4e565b611003565b005b610430600480360381019061042b9190614eae565b61124e565b005b61044c60048036038101906104479190614f51565b6112c9565b005b6104686004803603810190610463919061489f565b6112f7565b6040516104759190614abd565b60405180910390f35b6104986004803603810190610493919061489f565b611343565b005b6104a261143a565b6040516104af9190614abd565b60405180910390f35b60006104c38261146a565b9050919050565b6104d26114d5565b73ffffffffffffffffffffffffffffffffffffffff166104f0610f3d565b73ffffffffffffffffffffffffffffffffffffffff1614610546576040517f08c379a000000000000000000000000000000000000000000000000000000000815260040161053d906150aa565b60405180910390fd5b7fb12de2022a8c992455195d1cdfe49c528c96a325adc99e12b6eab59d56654ea2610590606860009054906101000a900467ffffffffffffffff1667ffffffffffffffff166114dd565b8260405161059f9291906150ca565b60405180910390a16105af611509565b6105b7611542565b6105c08161157b565b606860006101000a81548167ffffffffffffffff021916908367ffffffffffffffff16021790555050565b6060607060008373ffffffffffffffffffffffffffffffffffffffff1673ffffffffffffffffffffffffffffffffffffffff1681526020019081526020016000208054806020026020016040519081016040528092919081815260200182805480156106a257602002820191906000526020600020906000905b82829054906101000a900463ffffffff1663ffffffff16815260200190600401906020826003010492830192600103820291508084116106655790505b50505050509050919050565b606e60003373ffffffffffffffffffffffffffffffffffffffff1673ffffffffffffffffffffffffffffffffffffffff168152602001908152602001600020600101600c9054906101000a900460ff16610734576040517f44fab0e000000000000000000000000000000000000000000000000000000000815260040160405180910390fd5b61073e33826115f7565b61074733611796565b6107503361146a565b15610787576040517fad3a8b9e00000000000000000000000000000000000000000000000000000000815260040160405180910390fd5b3373ffffffffffffffffffffffffffffffffffffffff167fd2cad6abfa380a10a84c0e561544f8deb6eea7dd29a411fa306f902aa6ac5eca60405160405180910390a250565b6107d68161157b565b67ffffffffffffffff166107e933611a61565b67ffffffffffffffff16101561082b576040517fad3a8b9e00000000000000000000000000000000000000000000000000000000815260040160405180910390fd5b61083c6108378261157b565b611ba1565b6108453361146a565b1561087c576040517fad3a8b9e00000000000000000000000000000000000000000000000000000000815260040160405180910390fd5b50565b8061088981611d42565b6000606660009054906101000a900473ffffffffffffffffffffffffffffffffffffffff1673ffffffffffffffffffffffffffffffffffffffff1663e7b21748846040518263ffffffff1660e01b81526004016108e69190614b94565b602060405180830381865afa158015610903573d6000803e3d6000fd5b505050506040513d601f19601f820116820180604052508101906109279190615108565b9050606660009054906101000a900473ffffffffffffffffffffffffffffffffffffffff1673ffffffffffffffffffffffffffffffffffffffff16632e1d2f05846040518263ffffffff1660e01b81526004016109849190614b94565b600060405180830381600087803b15801561099e57600080fd5b505af11580156109b2573d6000803e3d6000fd5b505050508073ffffffffffffffffffffffffffffffffffffffff167f10b90e3d042178ee9b3e99a849224b4bf4145b9855274073c0c6bca9c5113b7b846040516109fc9190614b94565b60405180910390a2505050565b6000610a26610a1783611a61565b67ffffffffffffffff166114dd565b9050919050565b606660009054906101000a900473ffffffffffffffffffffffffffffffffffffffff1673ffffffffffffffffffffffffffffffffffffffff166341d2c0cd826040518263ffffffff1660e01b8152600401610a889190615144565b600060405180830381600087803b158015610aa257600080fd5b505af1158015610ab6573d6000803e3d6000fd5b5050505050565b610ac782826115f7565b5050565b6000606d60008363ffffffff1663ffffffff168152602001908152602001600020600101549050919050565b610aff6114d5565b73ffffffffffffffffffffffffffffffffffffffff16610b1d610f3d565b73ffffffffffffffffffffffffffffffffffffffff1614610b73576040517f08c379a0000000000000000000000000000000000000000000000000000000008152600401610b6a906150aa565b60405180910390fd5b606e60008273ffffffffffffffffffffffffffffffffffffffff1673ffffffffffffffffffffffffffffffffffffffff168152602001908152602001600020600101600c9054906101000a900460ff16158015610bd55750610bd481611ef2565b5b15610c2757610be381611f43565b8073ffffffffffffffffffffffffffffffffffffffff167fbcdf297ed7902fea73305fee14ec4d4704e2588ceffffef11e2543ef396cd79860405160405180910390a25b50565b6000614e20905090565b6000610c3f8261220e565b67ffffffffffffffff169050919050565b6000606760149054906101000a900467ffffffffffffffff1667ffffffffffffffff16905090565b610c806114d5565b73ffffffffffffffffffffffffffffffffffffffff16610c9e610f3d565b73ffffffffffffffffffffffffffffffffffffffff1614610cf4576040517f08c379a0000000000000000000000000000000000000000000000000000000008152600401610ceb906150aa565b60405180910390fd5b610cfe6000612344565b565b6000610d1c610d0d61240a565b67ffffffffffffffff166114dd565b905090565b6000606660009054906101000a900473ffffffffffffffffffffffffffffffffffffffff1673ffffffffffffffffffffffffffffffffffffffff16631940d38786863387876040518663ffffffff1660e01b8152600401610d869594939291906151ea565b6020604051808303816000875af1158015610da5573d6000803e3d6000fd5b505050506040513d601f19601f82011682018060405250810190610dc99190615248565b90506040518060c00160405280438152602001438152602001600067ffffffffffffffff168152602001600067ffffffffffffffff168152602001438152602001600063ffffffff16815250606d60008363ffffffff1663ffffffff168152602001908152602001600020600082015181600001556020820151816001015560408201518160020160006101000a81548167ffffffffffffffff021916908367ffffffffffffffff16021790555060608201518160020160086101000a81548167ffffffffffffffff021916908367ffffffffffffffff1602179055506080820151816003015560a08201518160040160006101000a81548163ffffffff021916908363ffffffff1602179055509050503373ffffffffffffffffffffffffffffffffffffffff168163ffffffff167fa837adf7db87879179d994c48f4275ae84c6ea7ba2ff625b1e121b5a6f42317d87878787604051610f2d9493929190615275565b60405180910390a3949350505050565b6000603360009054906101000a900473ffffffffffffffffffffffffffffffffffffffff16905090565b6000610f73600161243a565b90508015610f97576001600060016101000a81548160ff0219169083151502179055505b610fa38585858561252a565b8015610ffc5760008060016101000a81548160ff0219169083151502179055507f7f26b83ff96e1f2b6a682f133852f6798a09c465da95921460cefb38474024986001604051610ff39190615302565b60405180910390a15b5050505050565b61100b6114d5565b73ffffffffffffffffffffffffffffffffffffffff16611029610f3d565b73ffffffffffffffffffffffffffffffffffffffff161461107f576040517f08c379a0000000000000000000000000000000000000000000000000000000008152600401611076906150aa565b60405180910390fd5b6000805b607060008673ffffffffffffffffffffffffffffffffffffffff1673ffffffffffffffffffffffffffffffffffffffff168152602001908152602001600020805490508163ffffffff1610156111a657611186607060008773ffffffffffffffffffffffffffffffffffffffff1673ffffffffffffffffffffffffffffffffffffffff1681526020019081526020016000208263ffffffff168154811061112d5761112c61531d565b5b90600052602060002090600891828204019190066004029054906101000a900463ffffffff1685858463ffffffff1681811061116c5761116b61531d565b5b90506020020160208101906111819190614a81565b6125ce565b82611191919061537b565b9150808061119e906153b7565b915050611083565b50606760009054906101000a900473ffffffffffffffffffffffffffffffffffffffff1673ffffffffffffffffffffffffffffffffffffffff1663a9059cbb85836040518363ffffffff1660e01b8152600401611204929190615414565b6020604051808303816000875af1158015611223573d6000803e3d6000fd5b505050506040513d601f19601f820116820180604052508101906112479190615469565b5050505050565b818161125a828261266c565b611262611509565b61126b3361281f565b6112b93385858080601f016020809104026020016040519081016040528093929190818152602001838380828437600081840152601f19601f82011690508083019250505050505050612903565b6112c233611a61565b5050505050565b6112d1611509565b6112da3361281f565b6112ec338a8a8a8a8a8a8a8a8a612ac6565b505050505050505050565b6000606e60008373ffffffffffffffffffffffffffffffffffffffff1673ffffffffffffffffffffffffffffffffffffffff168152602001908152602001600020600201549050919050565b61134b6114d5565b73ffffffffffffffffffffffffffffffffffffffff16611369610f3d565b73ffffffffffffffffffffffffffffffffffffffff16146113bf576040517f08c379a00000000000000000000000000000000000000000000000000000000081526004016113b6906150aa565b60405180910390fd5b600073ffffffffffffffffffffffffffffffffffffffff168173ffffffffffffffffffffffffffffffffffffffff160361142e576040517f08c379a000000000000000000000000000000000000000000000000000000000815260040161142590615508565b60405180910390fd5b61143781612344565b50565b6000611465606860009054906101000a900467ffffffffffffffff1667ffffffffffffffff166114dd565b905090565b6000606e60008373ffffffffffffffffffffffffffffffffffffffff1673ffffffffffffffffffffffffffffffffffffffff168152602001908152602001600020600101600c9054906101000a900460ff161580156114ce57506114cd82611ef2565b5b9050919050565b600033905090565b60006298968067ffffffffffffffff168267ffffffffffffffff166115029190615528565b9050919050565b611511612daf565b606a60006101000a81548167ffffffffffffffff021916908367ffffffffffffffff16021790555043606b81905550565b61154a612ec0565b606860086101000a81548167ffffffffffffffff021916908367ffffffffffffffff16021790555043606981905550565b6000806298968067ffffffffffffffff16836115979190615599565b146115d7576040517f08c379a00000000000000000000000000000000000000000000000000000000081526004016115ce9061563c565b60405180910390fd5b6298968067ffffffffffffffff16826115f0919061565c565b9050919050565b606760009054906101000a900473ffffffffffffffffffffffffffffffffffffffff1673ffffffffffffffffffffffffffffffffffffffff166323b872dd3330846040518463ffffffff1660e01b81526004016116569392919061568d565b6020604051808303816000875af1158015611675573d6000803e3d6000fd5b505050506040513d601f19601f820116820180604052508101906116999190615469565b506116a38161157b565b606e60008473ffffffffffffffffffffffffffffffffffffffff1673ffffffffffffffffffffffffffffffffffffffff16815260200190815260200160002060000160008282829054906101000a900467ffffffffffffffff16611707919061537b565b92506101000a81548167ffffffffffffffff021916908367ffffffffffffffff1602179055503373ffffffffffffffffffffffffffffffffffffffff168273ffffffffffffffffffffffffffffffffffffffff167fb91f78378ad1ce7b5c12301896eac25f50d4603d0301406595e6fdfa6ffd64198360405161178a9190614abd565b60405180910390a35050565b61179e611509565b6117a78161281f565b60005b607060008373ffffffffffffffffffffffffffffffffffffffff1673ffffffffffffffffffffffffffffffffffffffff168152602001908152602001600020805490508163ffffffff161015611975576000607060008473ffffffffffffffffffffffffffffffffffffffff1673ffffffffffffffffffffffffffffffffffffffff1681526020019081526020016000208263ffffffff16815481106118535761185261531d565b5b90600052602060002090600891828204019190066004029054906101000a900463ffffffff16905061188481612f17565b6000606f60008573ffffffffffffffffffffffffffffffffffffffff1673ffffffffffffffffffffffffffffffffffffffff16815260200190815260200160002060008363ffffffff1663ffffffff16815260200190815260200160002090506118ef818584612f7a565b8060000160109054906101000a900463ffffffff16606d60008463ffffffff1663ffffffff16815260200190815260200160002060040160008282829054906101000a900463ffffffff1661194491906156c4565b92506101000a81548163ffffffff021916908363ffffffff16021790555050508061196e906153b7565b90506117aa565b50606660009054906101000a900473ffffffffffffffffffffffffffffffffffffffff1673ffffffffffffffffffffffffffffffffffffffff166345413bf4826040518263ffffffff1660e01b81526004016119d19190614cfa565b600060405180830381600087803b1580156119eb57600080fd5b505af11580156119ff573d6000803e3d6000fd5b505050506000606e60008373ffffffffffffffffffffffffffffffffffffffff1673ffffffffffffffffffffffffffffffffffffffff168152602001908152602001600020600101600c6101000a81548160ff02191690831515021790555050565b600080611a6d83612fe7565b606e60008573ffffffffffffffffffffffffffffffffffffffff1673ffffffffffffffffffffffffffffffffffffffff16815260200190815260200160002060000160009054906101000a900467ffffffffffffffff16611ace919061537b565b90506000611adb846130f7565b606e60008673ffffffffffffffffffffffffffffffffffffffff1673ffffffffffffffffffffffffffffffffffffffff16815260200190815260200160002060000160089054906101000a900467ffffffffffffffff16611b3c919061537b565b90508067ffffffffffffffff168267ffffffffffffffff161015611b8c576040517f5e13ed3100000000000000000000000000000000000000000000000000000000815260040160405180910390fd5b8082611b9891906156fc565b92505050919050565b80606e60003373ffffffffffffffffffffffffffffffffffffffff1673ffffffffffffffffffffffffffffffffffffffff16815260200190815260200160002060000160088282829054906101000a900467ffffffffffffffff16611c06919061537b565b92506101000a81548167ffffffffffffffff021916908367ffffffffffffffff160217905550606760009054906101000a900473ffffffffffffffffffffffffffffffffffffffff1673ffffffffffffffffffffffffffffffffffffffff1663a9059cbb33611c7e8467ffffffffffffffff166114dd565b6040518363ffffffff1660e01b8152600401611c9b929190615738565b6020604051808303816000875af1158015611cba573d6000803e3d6000fd5b505050506040513d601f19601f82011682018060405250810190611cde9190615469565b503373ffffffffffffffffffffffffffffffffffffffff167f233f5518707099d7be7f52de7c8094100dae65f0c896a762ebcc5900370d66bc611d2a8367ffffffffffffffff166114dd565b604051611d379190614abd565b60405180910390a250565b6000606660009054906101000a900473ffffffffffffffffffffffffffffffffffffffff1673ffffffffffffffffffffffffffffffffffffffff1663e7b21748836040518263ffffffff1660e01b8152600401611d9f9190614b94565b602060405180830381865afa158015611dbc573d6000803e3d6000fd5b505050506040513d601f19601f82011682018060405250810190611de09190615108565b9050600073ffffffffffffffffffffffffffffffffffffffff168173ffffffffffffffffffffffffffffffffffffffff1603611e48576040517fd5528c8600000000000000000000000000000000000000000000000000000000815260040160405180910390fd5b8073ffffffffffffffffffffffffffffffffffffffff163373ffffffffffffffffffffffffffffffffffffffff1614158015611eb75750611e87610f3d565b73ffffffffffffffffffffffffffffffffffffffff163373ffffffffffffffffffffffffffffffffffffffff1614155b15611eee576040517fec4de4c900000000000000000000000000000000000000000000000000000000815260040160405180910390fd5b5050565b6000611efd82613345565b606760149054906101000a900467ffffffffffffffff16611f1e9190615761565b67ffffffffffffffff16611f3183611a61565b67ffffffffffffffff16109050919050565b611f4b611509565b611f548161281f565b60005b607060008373ffffffffffffffffffffffffffffffffffffffff1673ffffffffffffffffffffffffffffffffffffffff168152602001908152602001600020805490508163ffffffff161015612122576000607060008473ffffffffffffffffffffffffffffffffffffffff1673ffffffffffffffffffffffffffffffffffffffff1681526020019081526020016000208263ffffffff168154811061200057611fff61531d565b5b90600052602060002090600891828204019190066004029054906101000a900463ffffffff16905061203181612f17565b6000606f60008573ffffffffffffffffffffffffffffffffffffffff1673ffffffffffffffffffffffffffffffffffffffff16815260200190815260200160002060008363ffffffff1663ffffffff168152602001908152602001600020905061209c818584612f7a565b8060000160109054906101000a900463ffffffff16606d60008463ffffffff1663ffffffff16815260200190815260200160002060040160008282829054906101000a900463ffffffff166120f1919061579e565b92506101000a81548163ffffffff021916908363ffffffff16021790555050508061211b906153b7565b9050611f57565b50606660009054906101000a900473ffffffffffffffffffffffffffffffffffffffff1673ffffffffffffffffffffffffffffffffffffffff166327467a18826040518263ffffffff1660e01b815260040161217e9190614cfa565b600060405180830381600087803b15801561219857600080fd5b505af11580156121ac573d6000803e3d6000fd5b505050506001606e60008373ffffffffffffffffffffffffffffffffffffffff1673ffffffffffffffffffffffffffffffffffffffff168152602001908152602001600020600101600c6101000a81548160ff02191690831515021790555050565b6000606e60008373ffffffffffffffffffffffffffffffffffffffff1673ffffffffffffffffffffffffffffffffffffffff16815260200190815260200160002060010160089054906101000a900463ffffffff1663ffffffff16606e60008473ffffffffffffffffffffffffffffffffffffffff1673ffffffffffffffffffffffffffffffffffffffff16815260200190815260200160002060010160009054906101000a900467ffffffffffffffff166122c8612ec0565b6122d291906156fc565b6122dc9190615761565b606e60008473ffffffffffffffffffffffffffffffffffffffff1673ffffffffffffffffffffffffffffffffffffffff16815260200190815260200160002060000160189054906101000a900467ffffffffffffffff1661233d919061537b565b9050919050565b6000603360009054906101000a900473ffffffffffffffffffffffffffffffffffffffff16905081603360006101000a81548173ffffffffffffffffffffffffffffffffffffffff021916908373ffffffffffffffffffffffffffffffffffffffff1602179055508173ffffffffffffffffffffffffffffffffffffffff168173ffffffffffffffffffffffffffffffffffffffff167f8be0079c531659141344cd1fd0a4f28419497f9722a3daafe3b4186f6b6457e060405160405180910390a35050565b6000606c60009054906101000a900467ffffffffffffffff1661242b612daf565b61243591906156fc565b905090565b60008060019054906101000a900460ff16156124b15760018260ff16148015612469575061246730613678565b155b6124a8576040517f08c379a000000000000000000000000000000000000000000000000000000000815260040161249f90615848565b60405180910390fd5b60009050612525565b8160ff1660008054906101000a900460ff1660ff1610612506576040517f08c379a00000000000000000000000000000000000000000000000000000000081526004016124fd90615848565b60405180910390fd5b816000806101000a81548160ff021916908360ff160217905550600190505b919050565b6000612536600161243a565b9050801561255a576001600060016101000a81548160ff0219169083151502179055505b61256261369b565b61256e858585856136fc565b80156125c75760008060016101000a81548160ff0219169083151502179055507f7f26b83ff96e1f2b6a682f133852f6798a09c465da95921460cefb384740249860016040516125be9190615302565b60405180910390a15b5050505050565b600080606d60008563ffffffff1663ffffffff1681526020019081526020016000209050600060648463ffffffff168360020160009054906101000a900467ffffffffffffffff166126209190615761565b61262a9190615868565b905060008260020160006101000a81548167ffffffffffffffff021916908367ffffffffffffffff160217905550438260010181905550809250505092915050565b6000606660009054906101000a900473ffffffffffffffffffffffffffffffffffffffff1673ffffffffffffffffffffffffffffffffffffffff1663c87b303884846040518363ffffffff1660e01b81526004016126cb929190615899565b602060405180830381865afa1580156126e8573d6000803e3d6000fd5b505050506040513d601f19601f8201168201806040525081019061270c9190615108565b9050600073ffffffffffffffffffffffffffffffffffffffff168173ffffffffffffffffffffffffffffffffffffffff1603612774576040517f8791c3b400000000000000000000000000000000000000000000000000000000815260040160405180910390fd5b8073ffffffffffffffffffffffffffffffffffffffff163373ffffffffffffffffffffffffffffffffffffffff16141580156127e357506127b3610f3d565b73ffffffffffffffffffffffffffffffffffffffff163373ffffffffffffffffffffffffffffffffffffffff1614155b1561281a576040517f11ecf9f200000000000000000000000000000000000000000000000000000000815260040160405180910390fd5b505050565b6128288161220e565b606e60008373ffffffffffffffffffffffffffffffffffffffff1673ffffffffffffffffffffffffffffffffffffffff16815260200190815260200160002060000160186101000a81548167ffffffffffffffff021916908367ffffffffffffffff160217905550612898612ec0565b606e60008373ffffffffffffffffffffffffffffffffffffffff1673ffffffffffffffffffffffffffffffffffffffff16815260200190815260200160002060010160006101000a81548167ffffffffffffffff021916908367ffffffffffffffff16021790555050565b61290d8282613869565b606660009054906101000a900473ffffffffffffffffffffffffffffffffffffffff1673ffffffffffffffffffffffffffffffffffffffff1663b2f569c5826040518263ffffffff1660e01b8152600401612968919061592b565b600060405180830381600087803b15801561298257600080fd5b505af1158015612996573d6000803e3d6000fd5b50505050606e60008373ffffffffffffffffffffffffffffffffffffffff1673ffffffffffffffffffffffffffffffffffffffff168152602001908152602001600020600101600c9054906101000a900460ff16612a6b57606e60008373ffffffffffffffffffffffffffffffffffffffff1673ffffffffffffffffffffffffffffffffffffffff168152602001908152602001600020600101600881819054906101000a900463ffffffff16612a4c9061594d565b91906101000a81548163ffffffff021916908363ffffffff1602179055505b612a7482613a21565b8173ffffffffffffffffffffffffffffffffffffffff167f671ada3835502b9498e4a3116c344293ec3a4ef43f90bb42283d7d66a3f772b282604051612aba919061592b565b60405180910390a25050565b606660009054906101000a900473ffffffffffffffffffffffffffffffffffffffff1673ffffffffffffffffffffffffffffffffffffffff16639b4ddb5d8b8b8b8b8b8b8b8b8b6040518a63ffffffff1660e01b8152600401612b3199989796959493929190615b65565b600060405180830381600087803b158015612b4b57600080fd5b505af1158015612b5f573d6000803e3d6000fd5b505050506000606e60008c73ffffffffffffffffffffffffffffffffffffffff1673ffffffffffffffffffffffffffffffffffffffff168152602001908152602001600020905043816002018190555080600101600c9054906101000a900460ff16612c045780600101600881819054906101000a900463ffffffff16612be5906153b7565b91906101000a81548163ffffffff021916908363ffffffff1602179055505b60005b888890508163ffffffff161015612ce257600089898363ffffffff16818110612c3357612c3261531d565b5b9050602002016020810190612c489190614a81565b9050612c5381612f17565b82600101600c9054906101000a900460ff16612cc657606d60008263ffffffff1663ffffffff168152602001908152602001600020600401600081819054906101000a900463ffffffff16612ca7906153b7565b91906101000a81548163ffffffff021916908363ffffffff1602179055505b612cd08d82613b02565b5080612cdb906153b7565b9050612c07565b506000821115612cf757612cf633836115f7565b5b612d008b61146a565b15612d37576040517fad3a8b9e00000000000000000000000000000000000000000000000000000000815260040160405180910390fd5b612d408b613a21565b8a73ffffffffffffffffffffffffffffffffffffffff167f610eb3c1fafe229af536e91b7e00486902d54d54d8d3f0de283a467ac8f985bf8b8b8b8b8b8b8b8b8a60020154604051612d9a99989796959493929190615bdc565b60405180910390a25050505050505050505050565b600080606660009054906101000a900473ffffffffffffffffffffffffffffffffffffffff1673ffffffffffffffffffffffffffffffffffffffff16632340e8d36040518163ffffffff1660e01b8152600401602060405180830381865afa158015612e1f573d6000803e3d6000fd5b505050506040513d601f19601f82011682018060405250810190612e439190615248565b63ffffffff16606860009054906101000a900467ffffffffffffffff1667ffffffffffffffff16606b5443612e789190615c53565b612e829190615528565b612e8c9190615528565b606a60009054906101000a900467ffffffffffffffff1667ffffffffffffffff16612eb79190615c87565b90508091505090565b6000606860009054906101000a900467ffffffffffffffff1660695443612ee79190615c53565b612ef19190615761565b606860089054906101000a900467ffffffffffffffff16612f12919061537b565b905090565b6000606d60008363ffffffff1663ffffffff1681526020019081526020016000209050612f4382613b12565b8160020160006101000a81548167ffffffffffffffff021916908367ffffffffffffffff1602179055504381600001819055505050565b612f85838383613b9d565b8360000160086101000a81548167ffffffffffffffff021916908367ffffffffffffffff160217905550612fb881613c78565b8360000160006101000a81548167ffffffffffffffff021916908367ffffffffffffffff160217905550505050565b600080600090506000606660009054906101000a900473ffffffffffffffffffffffffffffffffffffffff1673ffffffffffffffffffffffffffffffffffffffff16630dc1eeff856040518263ffffffff1660e01b815260040161304b9190614cfa565b600060405180830381865afa158015613068573d6000803e3d6000fd5b505050506040513d6000823e3d601f19601f820116820180604052508101906130919190615df9565b905060005b81518163ffffffff1610156130ec576130ce828263ffffffff16815181106130c1576130c061531d565b5b6020026020010151613b12565b836130d9919061537b565b9250806130e5906153b7565b9050613096565b508192505050919050565b6000806131038361220e565b606e60008573ffffffffffffffffffffffffffffffffffffffff1673ffffffffffffffffffffffffffffffffffffffff16815260200190815260200160002060000160109054906101000a900467ffffffffffffffff16613164919061537b565b905060005b607060008573ffffffffffffffffffffffffffffffffffffffff1673ffffffffffffffffffffffffffffffffffffffff168152602001908152602001600020805490508163ffffffff16101561333b576000606f60008673ffffffffffffffffffffffffffffffffffffffff1673ffffffffffffffffffffffffffffffffffffffff1681526020019081526020016000206000607060008873ffffffffffffffffffffffffffffffffffffffff1673ffffffffffffffffffffffffffffffffffffffff1681526020019081526020016000208463ffffffff16815481106132535761325261531d565b5b90600052602060002090600891828204019190066004029054906101000a900463ffffffff1663ffffffff1663ffffffff168152602001908152602001600020905061331c8186607060008973ffffffffffffffffffffffffffffffffffffffff1673ffffffffffffffffffffffffffffffffffffffff1681526020019081526020016000208563ffffffff16815481106132f1576132f061531d565b5b90600052602060002090600891828204019190066004029054906101000a900463ffffffff16613b9d565b83613327919061537b565b92505080613334906153b7565b9050613169565b5080915050919050565b6000606e60008373ffffffffffffffffffffffffffffffffffffffff1673ffffffffffffffffffffffffffffffffffffffff168152602001908152602001600020600101600c9054906101000a900460ff16156133a55760009050613673565b60005b607060008473ffffffffffffffffffffffffffffffffffffffff1673ffffffffffffffffffffffffffffffffffffffff168152602001908152602001600020805490508163ffffffff16101561349c5761347e83607060008673ffffffffffffffffffffffffffffffffffffffff1673ffffffffffffffffffffffffffffffffffffffff1681526020019081526020016000208363ffffffff16815481106134535761345261531d565b5b90600052602060002090600891828204019190066004029054906101000a900463ffffffff16613d8b565b82613489919061537b565b915080613495906153b7565b90506133a8565b50606860009054906101000a900467ffffffffffffffff16606e60008473ffffffffffffffffffffffffffffffffffffffff1673ffffffffffffffffffffffffffffffffffffffff16815260200190815260200160002060010160089054906101000a900463ffffffff1663ffffffff166135179190615761565b81613522919061537b565b90506000606660009054906101000a900473ffffffffffffffffffffffffffffffffffffffff1673ffffffffffffffffffffffffffffffffffffffff16630dc1eeff846040518263ffffffff1660e01b81526004016135819190614cfa565b600060405180830381865afa15801561359e573d6000803e3d6000fd5b505050506040513d6000823e3d601f19601f820116820180604052508101906135c79190615df9565b905060005b81518163ffffffff16101561367057613604828263ffffffff16815181106135f7576135f661531d565b5b6020026020010151613ea6565b67ffffffffffffffff168367ffffffffffffffff161161362957600092505050613673565b613652828263ffffffff16815181106136455761364461531d565b5b6020026020010151613ea6565b8361365d91906156fc565b925080613669906153b7565b90506135cc565b50505b919050565b6000808273ffffffffffffffffffffffffffffffffffffffff163b119050919050565b600060019054906101000a900460ff166136ea576040517f08c379a00000000000000000000000000000000000000000000000000000000081526004016136e190615eb4565b60405180910390fd5b6136fa6136f56114d5565b612344565b565b600060019054906101000a900460ff1661374b576040517f08c379a000000000000000000000000000000000000000000000000000000000815260040161374290615eb4565b60405180910390fd5b83606660006101000a81548173ffffffffffffffffffffffffffffffffffffffff021916908373ffffffffffffffffffffffffffffffffffffffff16021790555082606760006101000a81548173ffffffffffffffffffffffffffffffffffffffff021916908373ffffffffffffffffffffffffffffffffffffffff1602179055506137d682613f83565b606660009054906101000a900473ffffffffffffffffffffffffffffffffffffffff1673ffffffffffffffffffffffffffffffffffffffff1663eb92db27826040518263ffffffff1660e01b81526004016138319190615144565b600060405180830381600087803b15801561384b57600080fd5b505af115801561385f573d6000803e3d6000fd5b5050505050505050565b6000606660009054906101000a900473ffffffffffffffffffffffffffffffffffffffff1673ffffffffffffffffffffffffffffffffffffffff1663053e8349836040518263ffffffff1660e01b81526004016138c6919061592b565b600060405180830381865afa1580156138e3573d6000803e3d6000fd5b505050506040513d6000823e3d601f19601f8201168201806040525081019061390c9190615df9565b905060005b81518163ffffffff161015613a1b576000828263ffffffff168151811061393b5761393a61531d565b5b6020026020010151905061394e81612f17565b606e60008673ffffffffffffffffffffffffffffffffffffffff1673ffffffffffffffffffffffffffffffffffffffff168152602001908152602001600020600101600c9054906101000a900460ff166139ff57606d60008263ffffffff1663ffffffff168152602001908152602001600020600401600081819054906101000a900463ffffffff166139e09061594d565b91906101000a81548163ffffffff021916908363ffffffff1602179055505b613a098582613faf565b5080613a14906153b7565b9050613911565b50505050565b6000613a2c82613345565b67ffffffffffffffff1603613a875743606e60008373ffffffffffffffffffffffffffffffffffffffff1673ffffffffffffffffffffffffffffffffffffffff16815260200190815260200160002060020181905550613aff565b613a9081613345565b613a9982611a61565b613aa39190615868565b67ffffffffffffffff1643613ab89190615c87565b606e60008373ffffffffffffffffffffffffffffffffffffffff1673ffffffffffffffffffffffffffffffffffffffff168152602001908152602001600020600201819055505b50565b613b0e82826001613fbf565b5050565b6000613b1d82613ea6565b606d60008463ffffffff1663ffffffff1681526020019081526020016000206000015443613b4b9190615c53565b613b559190615761565b606d60008463ffffffff1663ffffffff16815260200190815260200160002060020160009054906101000a900467ffffffffffffffff16613b96919061537b565b9050919050565b6000606e60008473ffffffffffffffffffffffffffffffffffffffff1673ffffffffffffffffffffffffffffffffffffffff168152602001908152602001600020600101600c9054906101000a900460ff16613c49578360000160109054906101000a900463ffffffff1663ffffffff168460000160009054906101000a900467ffffffffffffffff16613c3084613c78565b613c3a91906156fc565b613c449190615761565b613c4c565b60005b8460000160089054906101000a900467ffffffffffffffff16613c6f919061537b565b90509392505050565b6000606d60008363ffffffff1663ffffffff1681526020019081526020016000206003015443613ca89190615c53565b606660009054906101000a900473ffffffffffffffffffffffffffffffffffffffff1673ffffffffffffffffffffffffffffffffffffffff1663286966086040518163ffffffff1660e01b8152600401602060405180830381865afa158015613d15573d6000803e3d6000fd5b505050506040513d601f19601f82011682018060405250810190613d399190615ee9565b613d439190615761565b606d60008463ffffffff1663ffffffff16815260200190815260200160002060020160089054906101000a900467ffffffffffffffff16613d84919061537b565b9050919050565b6000606f60008473ffffffffffffffffffffffffffffffffffffffff1673ffffffffffffffffffffffffffffffffffffffff16815260200190815260200160002060008363ffffffff1663ffffffff16815260200190815260200160002060000160109054906101000a900463ffffffff1663ffffffff16606660009054906101000a900473ffffffffffffffffffffffffffffffffffffffff1673ffffffffffffffffffffffffffffffffffffffff1663286966086040518163ffffffff1660e01b8152600401602060405180830381865afa158015613e70573d6000803e3d6000fd5b505050506040513d601f19601f82011682018060405250810190613e949190615ee9565b613e9e9190615761565b905092915050565b6000606d60008363ffffffff1663ffffffff16815260200190815260200160002060040160009054906101000a900463ffffffff1663ffffffff16606660009054906101000a900473ffffffffffffffffffffffffffffffffffffffff1673ffffffffffffffffffffffffffffffffffffffff1663286966086040518163ffffffff1660e01b8152600401602060405180830381865afa158015613f4e573d6000803e3d6000fd5b505050506040513d601f19601f82011682018060405250810190613f729190615ee9565b613f7c9190615761565b9050919050565b80606760146101000a81548167ffffffffffffffff021916908367ffffffffffffffff16021790555050565b613fbb82826000613fbf565b5050565b6000606f60008573ffffffffffffffffffffffffffffffffffffffff1673ffffffffffffffffffffffffffffffffffffffff16815260200190815260200160002060008463ffffffff1663ffffffff16815260200190815260200160002090508060000160189054906101000a900460ff161561455957614041818585612f7a565b811561408a5780600001601081819054906101000a900463ffffffff16614067906153b7565b91906101000a81548163ffffffff021916908363ffffffff160217905550614554565b600081600001601081819054906101000a900463ffffffff166140ac9061594d565b91906101000a81548163ffffffff021916908363ffffffff160217905563ffffffff1603614553578060000160089054906101000a900467ffffffffffffffff16606e60008673ffffffffffffffffffffffffffffffffffffffff1673ffffffffffffffffffffffffffffffffffffffff16815260200190815260200160002060000160108282829054906101000a900467ffffffffffffffff16614151919061537b565b92506101000a81548167ffffffffffffffff021916908367ffffffffffffffff160217905550607060008573ffffffffffffffffffffffffffffffffffffffff1673ffffffffffffffffffffffffffffffffffffffff1681526020019081526020016000206001607060008773ffffffffffffffffffffffffffffffffffffffff1673ffffffffffffffffffffffffffffffffffffffff168152602001908152602001600020805490506142059190615c53565b815481106142165761421561531d565b5b90600052602060002090600891828204019190066004029054906101000a900463ffffffff16607060008673ffffffffffffffffffffffffffffffffffffffff1673ffffffffffffffffffffffffffffffffffffffff1681526020019081526020016000208260000160149054906101000a900463ffffffff1663ffffffff16815481106142a7576142a661531d565b5b90600052602060002090600891828204019190066004026101000a81548163ffffffff021916908363ffffffff1602179055508060000160149054906101000a900463ffffffff16606f60008673ffffffffffffffffffffffffffffffffffffffff1673ffffffffffffffffffffffffffffffffffffffff1681526020019081526020016000206000607060008873ffffffffffffffffffffffffffffffffffffffff1673ffffffffffffffffffffffffffffffffffffffff1681526020019081526020016000208460000160149054906101000a900463ffffffff1663ffffffff168154811061439b5761439a61531d565b5b90600052602060002090600891828204019190066004029054906101000a900463ffffffff1663ffffffff1663ffffffff16815260200190815260200160002060000160146101000a81548163ffffffff021916908363ffffffff160217905550607060008573ffffffffffffffffffffffffffffffffffffffff1673ffffffffffffffffffffffffffffffffffffffff16815260200190815260200160002080548061444b5761444a615f16565b5b60019003818190600052602060002090600891828204019190066004026101000a81549063ffffffff02191690559055606f60008573ffffffffffffffffffffffffffffffffffffffff1673ffffffffffffffffffffffffffffffffffffffff16815260200190815260200160002060008463ffffffff1663ffffffff168152602001908152602001600020600080820160006101000a81549067ffffffffffffffff02191690556000820160086101000a81549067ffffffffffffffff02191690556000820160106101000a81549063ffffffff02191690556000820160146101000a81549063ffffffff02191690556000820160186101000a81549060ff021916905550505b5b614827565b603261ffff16607060008673ffffffffffffffffffffffffffffffffffffffff1673ffffffffffffffffffffffffffffffffffffffff1681526020019081526020016000208054905011156145da576040517f9722180300000000000000000000000000000000000000000000000000000000815260040160405180910390fd5b6040518060a001604052806145ee85613c78565b67ffffffffffffffff168152602001600067ffffffffffffffff168152602001600163ffffffff168152602001607060008773ffffffffffffffffffffffffffffffffffffffff1673ffffffffffffffffffffffffffffffffffffffff1681526020019081526020016000208054905063ffffffff16815260200160011515815250606f60008673ffffffffffffffffffffffffffffffffffffffff1673ffffffffffffffffffffffffffffffffffffffff16815260200190815260200160002060008563ffffffff1663ffffffff16815260200190815260200160002060008201518160000160006101000a81548167ffffffffffffffff021916908367ffffffffffffffff16021790555060208201518160000160086101000a81548167ffffffffffffffff021916908367ffffffffffffffff16021790555060408201518160000160106101000a81548163ffffffff021916908363ffffffff16021790555060608201518160000160146101000a81548163ffffffff021916908363ffffffff16021790555060808201518160000160186101000a81548160ff021916908315150217905550905050607060008573ffffffffffffffffffffffffffffffffffffffff1673ffffffffffffffffffffffffffffffffffffffff1681526020019081526020016000208390806001815401808255809150506001900390600052602060002090600891828204019190066004029091909190916101000a81548163ffffffff021916908363ffffffff1602179055505b50505050565b6000604051905090565b600080fd5b600080fd5b600073ffffffffffffffffffffffffffffffffffffffff82169050919050565b600061486c82614841565b9050919050565b61487c81614861565b811461488757600080fd5b50565b60008135905061489981614873565b92915050565b6000602082840312156148b5576148b4614837565b5b60006148c38482850161488a565b91505092915050565b60008115159050919050565b6148e1816148cc565b82525050565b60006020820190506148fc60008301846148d8565b92915050565b6000819050919050565b61491581614902565b811461492057600080fd5b50565b6000813590506149328161490c565b92915050565b60006020828403121561494e5761494d614837565b5b600061495c84828501614923565b91505092915050565b600081519050919050565b600082825260208201905092915050565b6000819050602082019050919050565b600063ffffffff82169050919050565b6149aa81614991565b82525050565b60006149bc83836149a1565b60208301905092915050565b6000602082019050919050565b60006149e082614965565b6149ea8185614970565b93506149f583614981565b8060005b83811015614a26578151614a0d88826149b0565b9750614a18836149c8565b9250506001810190506149f9565b5085935050505092915050565b60006020820190508181036000830152614a4d81846149d5565b905092915050565b614a5e81614991565b8114614a6957600080fd5b50565b600081359050614a7b81614a55565b92915050565b600060208284031215614a9757614a96614837565b5b6000614aa584828501614a6c565b91505092915050565b614ab781614902565b82525050565b6000602082019050614ad26000830184614aae565b92915050565b600067ffffffffffffffff82169050919050565b614af581614ad8565b8114614b0057600080fd5b50565b600081359050614b1281614aec565b92915050565b600060208284031215614b2e57614b2d614837565b5b6000614b3c84828501614b03565b91505092915050565b60008060408385031215614b5c57614b5b614837565b5b6000614b6a8582860161488a565b9250506020614b7b85828601614923565b9150509250929050565b614b8e81614991565b82525050565b6000602082019050614ba96000830184614b85565b92915050565b600080fd5b600080fd5b600080fd5b60008083601f840112614bd457614bd3614baf565b5b8235905067ffffffffffffffff811115614bf157614bf0614bb4565b5b602083019150836001820283011115614c0d57614c0c614bb9565b5b9250929050565b60008083601f840112614c2a57614c29614baf565b5b8235905067ffffffffffffffff811115614c4757614c46614bb4565b5b602083019150836001820283011115614c6357614c62614bb9565b5b9250929050565b60008060008060408587031215614c8457614c83614837565b5b600085013567ffffffffffffffff811115614ca257614ca161483c565b5b614cae87828801614bbe565b9450945050602085013567ffffffffffffffff811115614cd157614cd061483c565b5b614cdd87828801614c14565b925092505092959194509250565b614cf481614861565b82525050565b6000602082019050614d0f6000830184614ceb565b92915050565b6000614d2082614861565b9050919050565b614d3081614d15565b8114614d3b57600080fd5b50565b600081359050614d4d81614d27565b92915050565b6000614d5e82614861565b9050919050565b614d6e81614d53565b8114614d7957600080fd5b50565b600081359050614d8b81614d65565b92915050565b60008060008060808587031215614dab57614daa614837565b5b6000614db987828801614d3e565b9450506020614dca87828801614d7c565b9350506040614ddb87828801614b03565b9250506060614dec87828801614b03565b91505092959194509250565b60008083601f840112614e0e57614e0d614baf565b5b8235905067ffffffffffffffff811115614e2b57614e2a614bb4565b5b602083019150836020820283011115614e4757614e46614bb9565b5b9250929050565b600080600060408486031215614e6757614e66614837565b5b6000614e758682870161488a565b935050602084013567ffffffffffffffff811115614e9657614e9561483c565b5b614ea286828701614df8565b92509250509250925092565b60008060208385031215614ec557614ec4614837565b5b600083013567ffffffffffffffff811115614ee357614ee261483c565b5b614eef85828601614c14565b92509250509250929050565b60008083601f840112614f1157614f10614baf565b5b8235905067ffffffffffffffff811115614f2e57614f2d614bb4565b5b602083019150836020820283011115614f4a57614f49614bb9565b5b9250929050565b600080600080600080600080600060a08a8c031215614f7357614f72614837565b5b60008a013567ffffffffffffffff811115614f9157614f9061483c565b5b614f9d8c828d01614c14565b995099505060208a013567ffffffffffffffff811115614fc057614fbf61483c565b5b614fcc8c828d01614df8565b975097505060408a013567ffffffffffffffff811115614fef57614fee61483c565b5b614ffb8c828d01614efb565b955095505060608a013567ffffffffffffffff81111561501e5761501d61483c565b5b61502a8c828d01614efb565b9350935050608061503d8c828d01614923565b9150509295985092959850929598565b600082825260208201905092915050565b7f4f776e61626c653a2063616c6c6572206973206e6f7420746865206f776e6572600082015250565b600061509460208361504d565b915061509f8261505e565b602082019050919050565b600060208201905081810360008301526150c381615087565b9050919050565b60006040820190506150df6000830185614aae565b6150ec6020830184614aae565b9392505050565b60008151905061510281614873565b92915050565b60006020828403121561511e5761511d614837565b5b600061512c848285016150f3565b91505092915050565b61513e81614ad8565b82525050565b60006020820190506151596000830184615135565b92915050565b82818337600083830152505050565b6000601f19601f8301169050919050565b600061518b838561504d565b935061519883858461515f565b6151a18361516e565b840190509392505050565b600082825260208201905092915050565b60006151c983856151ac565b93506151d683858461515f565b6151df8361516e565b840190509392505050565b6000606082019050818103600083015261520581878961517f565b90506152146020830186614ceb565b81810360408301526152278184866151bd565b90509695505050505050565b60008151905061524281614a55565b92915050565b60006020828403121561525e5761525d614837565b5b600061526c84828501615233565b91505092915050565b6000604082019050818103600083015261529081868861517f565b905081810360208301526152a58184866151bd565b905095945050505050565b6000819050919050565b600060ff82169050919050565b6000819050919050565b60006152ec6152e76152e2846152b0565b6152c7565b6152ba565b9050919050565b6152fc816152d1565b82525050565b600060208201905061531760008301846152f3565b92915050565b7f4e487b7100000000000000000000000000000000000000000000000000000000600052603260045260246000fd5b7f4e487b7100000000000000000000000000000000000000000000000000000000600052601160045260246000fd5b600061538682614ad8565b915061539183614ad8565b9250828201905067ffffffffffffffff8111156153b1576153b061534c565b5b92915050565b60006153c282614991565b915063ffffffff82036153d8576153d761534c565b5b600182019050919050565b60006153fe6153f96153f484614ad8565b6152c7565b614902565b9050919050565b61540e816153e3565b82525050565b60006040820190506154296000830185614ceb565b6154366020830184615405565b9392505050565b615446816148cc565b811461545157600080fd5b50565b6000815190506154638161543d565b92915050565b60006020828403121561547f5761547e614837565b5b600061548d84828501615454565b91505092915050565b7f4f776e61626c653a206e6577206f776e657220697320746865207a65726f206160008201527f6464726573730000000000000000000000000000000000000000000000000000602082015250565b60006154f260268361504d565b91506154fd82615496565b604082019050919050565b60006020820190508181036000830152615521816154e5565b9050919050565b600061553382614902565b915061553e83614902565b925082820261554c81614902565b915082820484148315176155635761556261534c565b5b5092915050565b7f4e487b7100000000000000000000000000000000000000000000000000000000600052601260045260246000fd5b60006155a482614902565b91506155af83614902565b9250826155bf576155be61556a565b5b828206905092915050565b7f507265636973696f6e206973206f76657220746865206d6178696d756d20646560008201527f66696e6564000000000000000000000000000000000000000000000000000000602082015250565b600061562660258361504d565b9150615631826155ca565b604082019050919050565b6000602082019050818103600083015261565581615619565b9050919050565b600061566782614902565b915061567283614902565b9250826156825761568161556a565b5b828204905092915050565b60006060820190506156a26000830186614ceb565b6156af6020830185614ceb565b6156bc6040830184614aae565b949350505050565b60006156cf82614991565b91506156da83614991565b9250828201905063ffffffff8111156156f6576156f561534c565b5b92915050565b600061570782614ad8565b915061571283614ad8565b9250828203905067ffffffffffffffff8111156157325761573161534c565b5b92915050565b600060408201905061574d6000830185614ceb565b61575a6020830184614aae565b9392505050565b600061576c82614ad8565b915061577783614ad8565b925082820261578581614ad8565b91508082146157975761579661534c565b5b5092915050565b60006157a982614991565b91506157b483614991565b9250828203905063ffffffff8111156157d0576157cf61534c565b5b92915050565b7f496e697469616c697a61626c653a20636f6e747261637420697320616c72656160008201527f647920696e697469616c697a6564000000000000000000000000000000000000602082015250565b6000615832602e8361504d565b915061583d826157d6565b604082019050919050565b6000602082019050818103600083015261586181615825565b9050919050565b600061587382614ad8565b915061587e83614ad8565b92508261588e5761588d61556a565b5b828204905092915050565b600060208201905081810360008301526158b48184866151bd565b90509392505050565b600081519050919050565b60005b838110156158e65780820151818401526020810190506158cb565b60008484015250505050565b60006158fd826158bd565b61590781856151ac565b93506159178185602086016158c8565b6159208161516e565b840191505092915050565b6000602082019050818103600083015261594581846158f2565b905092915050565b600061595882614991565b91506000820361596b5761596a61534c565b5b600182039050919050565b6000819050919050565b600061598f6020840184614a6c565b905092915050565b6000602082019050919050565b60006159b08385614970565b93506159bb82615976565b8060005b858110156159f4576159d18284615980565b6159db88826149b0565b97506159e683615997565b9250506001810190506159bf565b5085925050509392505050565b600082825260208201905092915050565b6000819050919050565b600082825260208201905092915050565b6000615a398385615a1c565b9350615a4683858461515f565b615a4f8361516e565b840190509392505050565b6000615a67848484615a2d565b90509392505050565b600080fd5b600080fd5b600080fd5b60008083356001602003843603038112615a9c57615a9b615a7a565b5b83810192508235915060208301925067ffffffffffffffff821115615ac457615ac3615a70565b5b600182023603831315615ada57615ad9615a75565b5b509250929050565b6000602082019050919050565b6000615afb8385615a01565b935083602084028501615b0d84615a12565b8060005b87811015615b53578484038952615b288284615a7f565b615b33868284615a5a565b9550615b3e84615ae2565b935060208b019a505050600181019050615b11565b50829750879450505050509392505050565b600060a082019050615b7a600083018c614ceb565b8181036020830152615b8d818a8c6151bd565b90508181036040830152615ba281888a6159a4565b90508181036060830152615bb7818688615aef565b90508181036080830152615bcc818486615aef565b90509a9950505050505050505050565b600060a0820190508181036000830152615bf7818b8d6151bd565b90508181036020830152615c0c81898b6159a4565b90508181036040830152615c21818789615aef565b90508181036060830152615c36818587615aef565b9050615c456080830184614aae565b9a9950505050505050505050565b6000615c5e82614902565b9150615c6983614902565b9250828203905081811115615c8157615c8061534c565b5b92915050565b6000615c9282614902565b9150615c9d83614902565b9250828201905080821115615cb557615cb461534c565b5b92915050565b7f4e487b7100000000000000000000000000000000000000000000000000000000600052604160045260246000fd5b615cf38261516e565b810181811067ffffffffffffffff82111715615d1257615d11615cbb565b5b80604052505050565b6000615d2561482d565b9050615d318282615cea565b919050565b600067ffffffffffffffff821115615d5157615d50615cbb565b5b602082029050602081019050919050565b6000615d75615d7084615d36565b615d1b565b90508083825260208201905060208402830185811115615d9857615d97614bb9565b5b835b81811015615dc15780615dad8882615233565b845260208401935050602081019050615d9a565b5050509392505050565b600082601f830112615de057615ddf614baf565b5b8151615df0848260208601615d62565b91505092915050565b600060208284031215615e0f57615e0e614837565b5b600082015167ffffffffffffffff811115615e2d57615e2c61483c565b5b615e3984828501615dcb565b91505092915050565b7f496e697469616c697a61626c653a20636f6e7472616374206973206e6f74206960008201527f6e697469616c697a696e67000000000000000000000000000000000000000000602082015250565b6000615e9e602b8361504d565b9150615ea982615e42565b604082019050919050565b60006020820190508181036000830152615ecd81615e91565b9050919050565b600081519050615ee381614aec565b92915050565b600060208284031215615eff57615efe614837565b5b6000615f0d84828501615ed4565b91505092915050565b7f4e487b7100000000000000000000000000000000000000000000000000000000600052603160045260246000fdfea2646970667358221220cd565ea7d29f569a48e796011c4777052e8459ba06205f9d3737b2a627fb0a0d64736f6c63430008110033",
  "immutableReferences": {},
  "source": "// File: contracts/SafeStakeNetwork.sol\n// SPDX-License-Identifier: GPL-3.0-or-later\npragma solidity ^0.8.2;\n\nimport \"@openzeppelin/contracts/token/ERC20/IERC20.sol\";\nimport \"@openzeppelin/contracts-upgradeable/access/OwnableUpgradeable.sol\";\nimport \"./utils/VersionedContract.sol\";\nimport \"./utils/Types.sol\";\nimport \"./ISafeStakeNetwork.sol\";\nimport \"./ISafeStakeCount.sol\";\n\ncontract SafeStakeNetwork is OwnableUpgradeable, ISafeStakeNetwork, VersionedContract {\n    using Types256 for uint256;\n    using Types64 for uint64;\n\n    struct OperatorData {\n        uint256 blockNumber;\n        uint256 claimBlockNumber;\n        uint64 earnings;\n        uint64 index;\n        uint256 indexBlockNumber;\n        uint32 activeValidatorCount;\n    }\n\n    struct OwnerData {\n        uint64 deposited;\n        uint64 withdrawn;\n        uint64 used;\n        uint64 networkFee;\n        uint64 networkFeeIndex;\n        uint32 activeValidatorCount;\n        bool validatorsDisabled;\n        uint256 paidBlockNumber;\n    }\n\n    struct OperatorInUse {\n        uint64 index;\n        uint64 used;\n        uint32 validatorCount;\n        uint32 indexInArray;\n        bool exists;\n    }\n\n    // struct FeeChangeRequest {\n    //     uint64 fee;\n    //     uint256 approvalBeginTime;\n    //     uint256 approvalEndTime;\n    // }\n    ISafeStakeCount private _SafeStakeCountContract;\n    ISafeStakeRegistry private _SafeStakeRegistryContract;\n    IERC20 private _token;\n    // uint64 private _minimumBlocksBeforeLiquidation;\n    // uint64 private _operatorMaxFeeIncrease;\n\n    uint64 private _minimumBlocksValidatorPay;\n\n    uint64 private _networkFee;\n    uint64 private _networkFeeIndex;\n    uint256 private _networkFeeIndexBlockNumber;\n    uint64 private _networkEarnings;\n    uint256 private _networkEarningsBlockNumber;\n    uint64 private _withdrawnFromTreasury;\n\n    mapping(uint32 => OperatorData) private _operatorDatas;\n    mapping(address => OwnerData) private _owners;\n    mapping(address => mapping(uint32 => OperatorInUse)) private _operatorsInUseByAddress;\n    mapping(address => uint32[]) private _operatorsInUseList;\n\n    // uint64 private _declareOperatorFeePeriod;\n    // uint64 private _executeOperatorFeePeriod;\n    // mapping(uint32 => FeeChangeRequest) private _feeChangeRequests;\n\n    // uint16 constant private MINIMAL_OPERATOR_FEE = 1000;\n    uint16 constant private MANAGING_OPERATORS_PER_ACCOUNT_LIMIT = 50;\n    // uint16 constant private MINIMAL_LIQUIDATION_THRESHOLD = 6570;\n\n\n    function initialize(\n        ISafeStakeRegistry registryAddress_,\n        IERC20 token_,\n        uint64 minimumBlocksBeforeLiquidation_,\n        // uint64 operatorMaxFeeIncrease_,\n        // uint64 declareOperatorFeePeriod_,\n        // uint64 executeOperatorFeePeriod_,\n        uint64 operatorFee\n    ) external initializer override {\n        // __SafeStakeNetwork_init(registryAddress_, token_, minimumBlocksBeforeLiquidation_, operatorMaxFeeIncrease_, declareOperatorFeePeriod_, executeOperatorFeePeriod_, operatorFee);\n        __SafeStakeNetwork_init(registryAddress_, token_, minimumBlocksBeforeLiquidation_, operatorFee);\n    }\n\n    function __SafeStakeNetwork_init(\n        ISafeStakeRegistry registryAddress_,\n        IERC20 token_,\n        uint64 minimumBlocksBeforeLiquidation_,\n        // uint64 operatorMaxFeeIncrease_,\n        // uint64 declareOperatorFeePeriod_,\n        // uint64 executeOperatorFeePeriod_,\n        uint64 operatorFee\n    ) internal initializer {\n        __Ownable_init_unchained();\n        // __SafeStakeNetwork_init_unchained(registryAddress_, token_, minimumBlocksBeforeLiquidation_, operatorMaxFeeIncrease_, declareOperatorFeePeriod_, executeOperatorFeePeriod_, operatorFee);\n        __SafeStakeNetwork_init_unchained(registryAddress_, token_, minimumBlocksBeforeLiquidation_, operatorFee);\n    }\n\n    function __SafeStakeNetwork_init_unchained(\n        ISafeStakeRegistry registryAddress_,\n        IERC20 token_,\n        uint64 minimumBlocksBeforeLiquidation_,\n        // uint64 operatorMaxFeeIncrease_,\n        // uint64 declareOperatorFeePeriod_,\n        // uint64 executeOperatorFeePeriod_,\n        uint64 operatorFee\n    ) internal onlyInitializing {\n        _SafeStakeRegistryContract = registryAddress_;\n        _token = token_;\n        _updateLiquidationThresholdPeriod(minimumBlocksBeforeLiquidation_);\n        // _updateOperatorFeeIncreaseLimit(operatorMaxFeeIncrease_);\n        // _updateDeclareOperatorFeePeriod(declareOperatorFeePeriod_);\n        // _updateExecuteOperatorFeePeriod(executeOperatorFeePeriod_);\n        _SafeStakeRegistryContract.initialize(operatorFee);\n    }\n\n    modifier onlyValidatorOwnerOrContractOwner(bytes calldata publicKey) {\n        _onlyValidatorOwnerOrContractOwner(publicKey);\n        _;\n    }\n\n    modifier onlyOperatorOwnerOrContractOwner(uint32 operatorId) {\n        _onlyOperatorOwnerOrContractOwner(operatorId);\n        _;\n    }\n\n    // modifier ensureMinimalOperatorFee(uint256 fee) {\n    //     _ensureMinimalOperatorFee(fee.shrink());\n    //     _;\n    // }\n\n    /**\n     * @dev See {ISafeStakeNetwork-registerOperator}.\n     */\n    function registerOperator(\n        string calldata name,\n        bytes calldata publicKey\n    ) external override returns (uint32 operatorId) {\n        operatorId = _SafeStakeRegistryContract.registerOperator(\n            name,\n            msg.sender,\n            publicKey\n        );\n\n        _operatorDatas[operatorId] = OperatorData({ blockNumber: block.number, earnings: 0, index: 0, indexBlockNumber: block.number, claimBlockNumber: block.number, activeValidatorCount: 0 });\n        emit OperatorRegistration(operatorId, name, msg.sender, publicKey);\n    }\n\n    /**\n     * @dev See {ISafeStakeNetwork-removeOperator}.\n     */\n    function removeOperator(uint32 operatorId) onlyOperatorOwnerOrContractOwner(operatorId) external override {\n        address owner = _SafeStakeRegistryContract.getOperatorOwner(operatorId);\n\n        _SafeStakeRegistryContract.removeOperator(operatorId);\n\n        emit OperatorRemoval(operatorId, owner);\n    }\n\n    // function declareOperatorFee(uint32 operatorId, uint256 operatorFee) onlyOperatorOwnerOrContractOwner(operatorId) ensureMinimalOperatorFee(operatorFee) external override {\n    //     if (operatorFee.shrink() > _SafeStakeRegistryContract.getOperatorFee() * (10000 + _operatorMaxFeeIncrease) / 10000) {\n    //         revert FeeExceedsIncreaseLimit();\n    //     }\n    //     _feeChangeRequests[operatorId] = FeeChangeRequest(operatorFee.shrink(), block.timestamp + _declareOperatorFeePeriod, block.timestamp + _declareOperatorFeePeriod + _executeOperatorFeePeriod);\n\n    //     emit OperatorFeeDeclaration(msg.sender, operatorId, block.number, operatorFee);\n    // }\n\n    // function cancelDeclaredOperatorFee(uint32 operatorId) onlyOperatorOwnerOrContractOwner(operatorId) external override {\n    //     delete _feeChangeRequests[operatorId];\n\n    //     emit DeclaredOperatorFeeCancelation(msg.sender, operatorId);\n    // }\n\n    // function executeOperatorFee(uint32 operatorId) onlyOperatorOwnerOrContractOwner(operatorId) external override {\n    //     FeeChangeRequest storage feeChangeRequest = _feeChangeRequests[operatorId];\n\n    //     if(feeChangeRequest.fee == 0) {\n    //         revert NoPendingFeeChangeRequest();\n    //     }\n    //     if(block.timestamp < feeChangeRequest.approvalBeginTime || block.timestamp > feeChangeRequest.approvalEndTime) {\n    //         revert ApprovalNotWithinTimeframe();\n    //     }\n\n    //     _updateOperatorFeeUnsafe(operatorId, feeChangeRequest.fee);\n\n    //     emit OperatorFeeExecution(msg.sender, operatorId, block.number, feeChangeRequest.fee.expand());\n\n    //     delete _feeChangeRequests[operatorId];\n    // }\n\n    // function updateOperatorScore(uint32 operatorId, uint32 score) onlyOwner external override {\n    //     _SafeStakeRegistryContract.updateOperatorScore(operatorId, score);\n\n    //     emit OperatorScoreUpdate(operatorId, msg.sender, block.number, score);\n    // }\n\n    /**\n     * @dev See {ISafeStakeNetwork-registerValidator}.\n     */\n    function registerValidator(\n        bytes calldata publicKey,\n        uint32[] calldata operatorIds,\n        bytes[] calldata sharesPublicKeys,\n        bytes[] calldata sharesEncrypted,\n        uint256 amount\n    ) external override {\n        _updateNetworkEarnings();\n        _updateAddressNetworkFee(msg.sender);\n        _registerValidatorUnsafe(msg.sender, publicKey, operatorIds, sharesPublicKeys, sharesEncrypted, amount);\n    }\n\n    /**\n     * @dev See {ISafeStakeNetwork-registerInitializer}.\n     */\n    // function registerInitializer(\n    //     uint32[] calldata operatorIds\n    // ) external override returns(uint32 initializerId) {\n    //     if (!_checkTwoOperatorsFromParaDao(operatorIds)) {\n    //         revert NoEnoughParaStateDaoOperators();\n    //     }\n    //     initializerId = _SafeStakeRegistryContract.registerInitializer(msg.sender, operatorIds);\n\n    //     emit InitializerRegistration(initializerId, msg.sender, operatorIds);\n    // }\n\n    /**\n     * @dev See {ISafeStakeNetwork-initializerPreStake}.\n     */\n    // function initializerPreStake(\n    //     uint32 initializerId,\n    //     bytes calldata validatorPublicKey,\n    //     address miniPoolAddress\n    // ) external override{\n    //     _onlyInitializerOwner(initializerId);\n    //     _SafeStakeRegistryContract.initializerPreStatke(initializerId, validatorPublicKey, miniPoolAddress);\n    //     emit InitializerMiniPoolCreated(initializerId, validatorPublicKey, miniPoolAddress);\n    // }\n\n    /**\n     * @dev See {ISafeStakeNetwork-initializerMiniPoolReady}.\n     */\n    // function initializerMiniPoolReady(\n    //     uint32 initializerId\n    // ) external override {\n    //     _onlyInitializerOwner(initializerId);\n    //     _SafeStakeRegistryContract.initializerReady(initializerId);\n    //     emit InitializerMiniPoolReady(initializerId);\n    // }\n\n    // function initializerStake(\n    //     uint32 initializerId\n    // ) external override {\n    //     _onlyInitializerOwner(initializerId);\n    //     _SafeStakeRegistryContract.initializerStake(initializerId);\n    // }\n\n\n    /**\n     * @dev See {ISafeStakeNetwork-updateValidator}.\n     */\n    // function updateValidator(\n    //     bytes calldata publicKey,\n    //     uint32[] calldata operatorIds,\n    //     bytes[] calldata sharesPublicKeys,\n    //     bytes[] calldata sharesEncrypted,\n    //     uint256 amount\n    // ) onlyValidatorOwnerOrContractOwner(publicKey) external override {\n    //     _removeValidatorUnsafe(msg.sender, publicKey);\n    //     _registerValidatorUnsafe(msg.sender, publicKey, operatorIds, sharesPublicKeys, sharesEncrypted, amount);\n    // }\n\n    /**\n     * @dev See {ISafeStakeNetwork-removeValidator}.\n     */\n    function removeValidator(bytes calldata publicKey) onlyValidatorOwnerOrContractOwner(publicKey) external override {\n        _updateNetworkEarnings();\n        _updateAddressNetworkFee(msg.sender);\n        _removeValidatorUnsafe(msg.sender, publicKey);\n        _totalBalanceOf(msg.sender); // For assertion\n    }\n\n    function deposit(address ownerAddress, uint256 amount) external override {\n        _deposit(ownerAddress, amount);\n    }\n\n    function withdraw(uint256 amount) external override {\n        if(_totalBalanceOf(msg.sender) < amount.shrink()) {\n            revert NotEnoughBalance();\n        }\n\n        _withdrawUnsafe(amount.shrink());\n\n        if(_liquidatable(msg.sender)) {\n            revert NotEnoughBalance();\n        }\n    }\n\n    // function withdrawAll() external override {\n    //     if(_burnRate(msg.sender) > 0) {\n    //         revert BurnRatePositive();\n    //     }\n\n    //     _withdrawUnsafe(_totalBalanceOf(msg.sender));\n    // }\n\n    // function liquidate(address[] calldata ownerAddresses) external override {\n    //     uint64 balanceToTransfer = 0;\n\n    //     for (uint32 index = 0; index < ownerAddresses.length; ++index) {\n    //         if (_canLiquidate(ownerAddresses[index])) {\n    //             balanceToTransfer += _liquidateUnsafe(ownerAddresses[index]);\n    //         }\n    //     }\n\n    //     _token.transfer(msg.sender, balanceToTransfer.expand());\n    // }\n\n    /**\n     * @dev See {ISafeStakeNetwork-disableAddress}.\n     */\n    function disableAddress(address ownerAddress) onlyOwner external override {\n        if (!_owners[ownerAddress].validatorsDisabled && _overdue(ownerAddress)) {\n            _disableOwnerValidatorsUnsafe(ownerAddress);\n            emit AccountDisable(ownerAddress);\n        }\n    }\n\n    function reactivateAccount(uint256 amount) external override {\n        if (!_owners[msg.sender].validatorsDisabled) {\n            revert AccountAlreadyEnabled();\n        }\n        _deposit(msg.sender, amount);\n        // _SafeStakeCountContract.deposit(msg.sender, amount);\n\n        _enableOwnerValidatorsUnsafe(msg.sender);\n\n        if(_liquidatable(msg.sender)) {\n            revert NotEnoughBalance();\n        }\n\n        emit AccountEnable(msg.sender);\n    }\n\n    // function updateLiquidationThresholdPeriod(uint64 blocks) external onlyOwner override {\n    //     if(blocks < MINIMAL_LIQUIDATION_THRESHOLD) {\n    //         revert BelowMinimumBlockPeriod();\n    //     }\n\n    //     _updateLiquidationThresholdPeriod(blocks);\n    // }\n\n    // function updateOperatorFeeIncreaseLimit(uint64 newOperatorMaxFeeIncrease) external onlyOwner override {\n    //     _updateOperatorFeeIncreaseLimit(newOperatorMaxFeeIncrease);\n    // }\n\n    // function updateDeclareOperatorFeePeriod(uint64 newDeclareOperatorFeePeriod) external onlyOwner override {\n    //     _updateDeclareOperatorFeePeriod(newDeclareOperatorFeePeriod);\n    // }\n\n    // function updateExecuteOperatorFeePeriod(uint64 newExecuteOperatorFeePeriod) external onlyOwner override {\n    //     _updateExecuteOperatorFeePeriod(newExecuteOperatorFeePeriod);\n    // }\n\n    /**\n     * @dev See {ISafeStakeNetwork-updateNetworkFee}.\n     */\n    function updateNetworkFee(uint256 fee) external onlyOwner override {\n        emit NetworkFeeUpdate(_networkFee.expand(), fee);\n        _updateNetworkEarnings();\n        _updateNetworkFeeIndex();\n        _networkFee = fee.shrink();\n    }\n\n    // function withdrawNetworkEarnings(uint256 amount) external onlyOwner override {\n    //     if(amount.shrink() > _getNetworkEarnings()) {\n    //         revert NotEnoughBalance();\n    //     }\n\n    //     _withdrawnFromTreasury += amount.shrink();\n    //     _token.transfer(msg.sender, amount);\n\n    //     emit NetworkFeesWithdrawal(amount, msg.sender);\n    // }\n\n    function getAddressBalance(address ownerAddress) external override view returns (uint256) {\n        return _totalBalanceOf(ownerAddress).expand();\n    }\n\n    // function isLiquidated(address ownerAddress) external view override returns (bool) {\n    //     return _owners[ownerAddress].validatorsDisabled;\n    // }\n\n    /**\n     * @dev See {ISafeStakeNetwork-getOperatorById}.\n     */\n    // function getOperatorById(uint32 operatorId) external view override returns (string memory, address, bytes memory, uint256, uint256, uint256, bool) {\n    //     return _SafeStakeRegistryContract.getOperatorById(operatorId);\n    // }\n\n    // function getOperatorDeclaredFee(uint32 operatorId) external view override returns (uint256, uint256, uint256) {\n    //     FeeChangeRequest storage feeChangeRequest = _feeChangeRequests[operatorId];\n\n    //     return (feeChangeRequest.fee.expand(), feeChangeRequest.approvalBeginTime, feeChangeRequest.approvalEndTime);\n    // }\n\n    /**\n     * @dev See {ISafeStakeNetwork-getOperatorFee}.\n     */\n    // function getOperatorFee() external view override returns (uint256) {\n    //     return _SafeStakeRegistryContract.getOperatorFee().expand();\n    // }\n\n    /**\n     * @dev See {ISafeStakeNetwork-getOperatorsByValidator}.\n     */\n    // function getOperatorsByValidator(bytes memory publicKey) external view override returns (uint32[] memory) {\n    //     return _SafeStakeRegistryContract.getOperatorsByValidator(publicKey);\n    // }\n\n    /**\n     * @dev See {ISafeStakeNetwork-getValidatorsByAddress}.\n     */\n    // function getValidatorsByOwnerAddress(address ownerAddress) external view override returns (bytes[] memory) {\n    //     return _SafeStakeRegistryContract.getValidatorsByAddress(ownerAddress);\n    // }\n\n    /**\n     * @dev See {ISafeStakeNetwork-addressNetworkFee}.\n     */\n    function addressNetworkFee(address ownerAddress) external view override returns (uint256) {\n        return _addressNetworkFee(ownerAddress);\n    }\n\n    // function getAddressBurnRate(address ownerAddress) external view override returns (uint256) {\n    //     return _burnRate(ownerAddress).expand();\n    // }\n\n    function isLiquidatable(address ownerAddress) external view override returns (bool) {\n        return _liquidatable(ownerAddress);\n    }\n\n    function getNetworkFee() external view override returns (uint256) {\n        return _networkFee.expand();\n    }\n\n    function getNetworkEarnings() external view override returns (uint256) {\n        return _getNetworkEarnings().expand();\n    }\n\n    function getMinimumBlocksValidatorShouldPay() external view override returns (uint256) {\n        return _minimumBlocksValidatorPay;\n    }\n\n    // function getOperatorFeeIncreaseLimit() external view override returns (uint256) {\n    //     return _operatorMaxFeeIncrease;\n    // }\n\n    // function getExecuteOperatorFeePeriod() external view override returns (uint256) {\n    //     return _executeOperatorFeePeriod;\n    // }\n\n    // function getDeclaredOperatorFeePeriod() external view override returns (uint256) {\n    //     return _declareOperatorFeePeriod;\n    // }\n\n    // function validatorsPerOperatorCount(uint32 operatorId) external view returns (uint32) {\n    //     return _SafeStakeRegistryContract.validatorsPerOperatorCount(operatorId);\n    // }\n\n    function _deposit(address ownerAddress, uint256 amount) private {\n        _token.transferFrom(msg.sender, address(this), amount);\n        _owners[ownerAddress].deposited += amount.shrink();\n\n        emit FundsDeposit(amount, ownerAddress, msg.sender);\n    }\n\n    function _withdrawUnsafe(uint64 amount) private {\n        _owners[msg.sender].withdrawn += amount;\n        _token.transfer(msg.sender, amount.expand());\n\n        emit FundsWithdrawal(amount.expand(), msg.sender);\n    }\n\n    /**\n     * @dev Update paid block number for the address.\n     * @param ownerAddress Owner address.\n     */\n    function _updatePaidBlockNumber(address ownerAddress) private {\n        if (_burnRate(ownerAddress) == 0) {\n            _owners[ownerAddress].paidBlockNumber = block.number;\n        } else {\n            _owners[ownerAddress].paidBlockNumber =  block.number + _totalBalanceOf(ownerAddress) / _burnRate(ownerAddress);\n        }\n        \n    } \n\n    /**\n     * @dev Update network fee for the address.\n     * @param ownerAddress Owner address.\n     */\n    function _updateAddressNetworkFee(address ownerAddress) private {\n        _owners[ownerAddress].networkFee = _addressNetworkFee(ownerAddress);\n        _owners[ownerAddress].networkFeeIndex = _currentNetworkFeeIndex();\n    }\n\n    function _updateOperatorIndex(uint32 operatorId) private {\n        _operatorDatas[operatorId].index = _operatorIndexOf(operatorId);\n    }\n\n    /**\n     * @dev Updates operators's balance.\n     */\n    function _updateOperatorBalance(uint32 operatorId) private {\n        OperatorData storage operatorData = _operatorDatas[operatorId];\n        operatorData.earnings = _operatorEarningsOf(operatorId);\n        operatorData.blockNumber = block.number;\n    }\n\n    function _operatorClaimFee(uint32 operatorId, uint32 performance) private returns (uint64){\n        OperatorData storage operatorData = _operatorDatas[operatorId];\n        uint64 claimed = operatorData.earnings * performance / 100;\n        operatorData.earnings = 0;\n        operatorData.claimBlockNumber = block.number;\n        return claimed;\n    }\n\n    function accountCliamFee(address account, uint32[] calldata performances) external onlyOwner override {\n        uint64 total = 0;\n        for(uint32 index = 0; index < _operatorsInUseList[account].length; index++ ) {\n            total += _operatorClaimFee(_operatorsInUseList[account][index], performances[index]);\n        }\n        _token.transfer(account, total);\n    }\n\n    // function _liquidateUnsafe(address ownerAddress) private returns (uint64) {\n    //     _disableOwnerValidatorsUnsafe(ownerAddress);\n\n    //     uint64 balanceToTransfer = _totalBalanceOf(ownerAddress);\n\n    //     _owners[ownerAddress].used += balanceToTransfer;\n\n    //     emit AccountLiquidation(ownerAddress);\n\n    //     return balanceToTransfer;\n    // }\n\n    function _updateNetworkEarnings() private {\n        _networkEarnings = _getTotalNetworkEarnings();\n        _networkEarningsBlockNumber = block.number;\n    }\n\n    function _updateNetworkFeeIndex() private {\n        _networkFeeIndex = _currentNetworkFeeIndex();\n        _networkFeeIndexBlockNumber = block.number;\n    }\n\n    function _registerValidatorUnsafe(\n        address ownerAddress,\n        bytes calldata publicKey,\n        uint32[] calldata operatorIds,\n        bytes[] calldata sharesPublicKeys,\n        bytes[] calldata encryptedKeys,\n        uint256 tokenAmount) private {\n\n        _SafeStakeRegistryContract.registerValidator(\n            ownerAddress,\n            publicKey,\n            operatorIds,\n            sharesPublicKeys,\n            encryptedKeys\n        );\n\n        OwnerData storage owner = _owners[ownerAddress];\n        owner.paidBlockNumber = block.number;\n\n        if (!owner.validatorsDisabled) {\n            ++owner.activeValidatorCount;\n        }\n\n        for (uint32 index = 0; index < operatorIds.length; ++index) {\n            uint32 operatorId = operatorIds[index];\n            _updateOperatorBalance(operatorId);\n\n            if (!owner.validatorsDisabled) {\n                ++_operatorDatas[operatorId].activeValidatorCount;\n            }\n\n            _useOperatorByOwner(ownerAddress, operatorId);\n        }\n        if (tokenAmount > 0) {\n            _deposit(msg.sender, tokenAmount);\n        }\n\n        if(_liquidatable(ownerAddress)) {\n            revert NotEnoughBalance();\n        }\n\n        _updatePaidBlockNumber(ownerAddress);\n\n        emit ValidatorRegistration(ownerAddress, publicKey, operatorIds, sharesPublicKeys, encryptedKeys, owner.paidBlockNumber);\n    }\n\n    function _removeValidatorUnsafe(address ownerAddress, bytes memory publicKey) private {\n        _unregisterValidator(ownerAddress, publicKey);\n        _SafeStakeRegistryContract.removeValidator(publicKey);\n\n        if (!_owners[ownerAddress].validatorsDisabled) {\n            --_owners[ownerAddress].activeValidatorCount;\n        }\n        _updatePaidBlockNumber(ownerAddress);\n        emit ValidatorRemoval(ownerAddress, publicKey);\n    }\n\n    function _unregisterValidator(address ownerAddress, bytes memory publicKey) private {\n        // calculate balances for current operators in use and update their balances\n        uint32[] memory currentOperatorIds = _SafeStakeRegistryContract.getOperatorsByValidator(publicKey);\n        for (uint32 index = 0; index < currentOperatorIds.length; ++index) {\n            uint32 operatorId = currentOperatorIds[index];\n            _updateOperatorBalance(operatorId);\n\n            if (!_owners[ownerAddress].validatorsDisabled) {\n                --_operatorDatas[operatorId].activeValidatorCount;\n            }\n\n            _stopUsingOperatorByOwner(ownerAddress, operatorId);\n        }\n    }\n\n    function _useOperatorByOwner(address ownerAddress, uint32 operatorId) private {\n        _updateUsingOperatorByOwner(ownerAddress, operatorId, true);\n    }\n\n    function _stopUsingOperatorByOwner(address ownerAddress, uint32 operatorId) private {\n        _updateUsingOperatorByOwner(ownerAddress, operatorId, false);\n    }\n\n    // function _updateOperatorFeeUnsafe(uint32 operatorId, uint64 fee) private {\n    //     // OperatorData storage operatorData = _operatorDatas[operatorId];\n    //     _updateOperatorIndex(operatorId);\n    //     _operatorDatas[operatorId].indexBlockNumber = block.number;\n    //     _updateOperatorBalance(operatorId);\n    //     // _SafeStakeRegistryContract.updateOperatorFee(fee);\n    // }\n\n    function updateOperatorFee(uint64 fee) external override {\n        _SafeStakeRegistryContract.updateOperatorFee(fee);\n    }\n\n    /**\n     * @dev Updates the relation between operator and owner\n     * @param ownerAddress Owner address.\n     * @param increase Change value for validators amount.\n     */\n    function _updateUsingOperatorByOwner(address ownerAddress, uint32 operatorId, bool increase) private {\n        OperatorInUse storage operatorInUseData = _operatorsInUseByAddress[ownerAddress][operatorId];\n\n        if (operatorInUseData.exists) {\n            _updateOperatorUsageByOwner(operatorInUseData, ownerAddress, operatorId);\n\n            if (increase) {\n                ++operatorInUseData.validatorCount;\n            } else {\n                if (--operatorInUseData.validatorCount == 0) {\n                    _owners[ownerAddress].used += operatorInUseData.used;\n\n                    // remove from mapping and list;\n\n                    _operatorsInUseList[ownerAddress][operatorInUseData.indexInArray] = _operatorsInUseList[ownerAddress][_operatorsInUseList[ownerAddress].length - 1];\n                    _operatorsInUseByAddress[ownerAddress][_operatorsInUseList[ownerAddress][operatorInUseData.indexInArray]].indexInArray = operatorInUseData.indexInArray;\n                    _operatorsInUseList[ownerAddress].pop();\n\n                    delete _operatorsInUseByAddress[ownerAddress][operatorId];\n                }\n            }\n        } else {\n            if (_operatorsInUseList[ownerAddress].length > MANAGING_OPERATORS_PER_ACCOUNT_LIMIT) {\n                revert ExceedManagingOperatorsPerAccountLimit();\n            }\n\n            _operatorsInUseByAddress[ownerAddress][operatorId] = OperatorInUse({ index: _operatorIndexOf(operatorId), validatorCount: 1, used: 0, exists: true, indexInArray: uint32(_operatorsInUseList[ownerAddress].length) });\n            _operatorsInUseList[ownerAddress].push(operatorId);\n        }\n    }\n\n    function _disableOwnerValidatorsUnsafe(address ownerAddress) private {\n        _updateNetworkEarnings();\n        _updateAddressNetworkFee(ownerAddress);\n\n        for (uint32 index = 0; index < _operatorsInUseList[ownerAddress].length; ++index) {\n            uint32 operatorId = _operatorsInUseList[ownerAddress][index];\n            _updateOperatorBalance(operatorId);\n            OperatorInUse storage operatorInUseData = _operatorsInUseByAddress[ownerAddress][operatorId];\n            _updateOperatorUsageByOwner(operatorInUseData, ownerAddress, operatorId);\n            _operatorDatas[operatorId].activeValidatorCount -= operatorInUseData.validatorCount;\n        }\n\n        _SafeStakeRegistryContract.disableOwnerValidators(ownerAddress);\n\n        _owners[ownerAddress].validatorsDisabled = true;\n    }\n\n    function _enableOwnerValidatorsUnsafe(address ownerAddress) private {\n        _updateNetworkEarnings();\n        _updateAddressNetworkFee(ownerAddress);\n\n        for (uint32 index = 0; index < _operatorsInUseList[ownerAddress].length; ++index) {\n            uint32 operatorId = _operatorsInUseList[ownerAddress][index];\n            _updateOperatorBalance(operatorId);\n            OperatorInUse storage operatorInUseData = _operatorsInUseByAddress[ownerAddress][operatorId];\n            _updateOperatorUsageByOwner(operatorInUseData, ownerAddress, operatorId);\n            _operatorDatas[operatorId].activeValidatorCount += operatorInUseData.validatorCount;\n        }\n\n        _SafeStakeRegistryContract.enableOwnerValidators(ownerAddress);\n\n        _owners[ownerAddress].validatorsDisabled = false;\n    }\n\n    function _updateOperatorUsageByOwner(OperatorInUse storage operatorInUseData, address ownerAddress, uint32 operatorId) private {\n        operatorInUseData.used = _operatorInUseUsageOf(operatorInUseData, ownerAddress, operatorId);\n        operatorInUseData.index = _operatorIndexOf(operatorId);\n    }\n\n    function _updateLiquidationThresholdPeriod(uint64 newMinimumBlocksBeforeLiquidation) private {\n        _minimumBlocksValidatorPay = newMinimumBlocksBeforeLiquidation;\n\n        // emit LiquidationThresholdPeriodUpdate(_minimumBlocksValidatorPay);\n    }\n\n    // function _updateOperatorFeeIncreaseLimit(uint64 newOperatorMaxFeeIncrease) private {\n    //     _operatorMaxFeeIncrease = newOperatorMaxFeeIncrease;\n\n    //     emit OperatorFeeIncreaseLimitUpdate(_operatorMaxFeeIncrease);\n\n    // }\n\n    // function _updateDeclareOperatorFeePeriod(uint64 newDeclareOperatorFeePeriod) private {\n    //     _declareOperatorFeePeriod = newDeclareOperatorFeePeriod;\n\n    //     emit DeclareOperatorFeePeriodUpdate(newDeclareOperatorFeePeriod);\n    // }\n\n    // function _updateExecuteOperatorFeePeriod(uint64 newExecuteOperatorFeePeriod) private {\n    //     _executeOperatorFeePeriod = newExecuteOperatorFeePeriod;\n\n    //     emit ExecuteOperatorFeePeriodUpdate(newExecuteOperatorFeePeriod);\n    // }\n\n    function _expensesOf(address ownerAddress) private view returns(uint64) {\n        uint64 usage =  _owners[ownerAddress].used + _addressNetworkFee(ownerAddress);\n        for (uint32 index = 0; index < _operatorsInUseList[ownerAddress].length; ++index) {\n            OperatorInUse storage operatorInUseData = _operatorsInUseByAddress[ownerAddress][_operatorsInUseList[ownerAddress][index]];\n            usage += _operatorInUseUsageOf(operatorInUseData, ownerAddress, _operatorsInUseList[ownerAddress][index]);\n        }\n\n        return usage;\n    }\n\n    function _totalEarningsOf(address ownerAddress) private view returns (uint64) {\n        uint64 earnings = 0;\n        uint32[] memory operatorsByOwner = _SafeStakeRegistryContract.getOperatorsByOwnerAddress(ownerAddress);\n        for (uint32 index = 0; index < operatorsByOwner.length; ++index) {\n            earnings += _operatorEarningsOf(operatorsByOwner[index]);\n        }\n\n        return earnings;\n    }\n\n    function _totalBalanceOf(address ownerAddress) private view returns (uint64) {\n        uint64 balance = _owners[ownerAddress].deposited + _totalEarningsOf(ownerAddress);\n\n        uint64 usage = _owners[ownerAddress].withdrawn + _expensesOf(ownerAddress);\n\n        if(balance < usage) {\n            revert NegativeBalance();\n        }\n\n        return balance - usage;\n    }\n\n    function _operatorEarnRate(uint32 operatorId) private view returns (uint64) {\n        return _SafeStakeRegistryContract.getOperatorFee() * _operatorDatas[operatorId].activeValidatorCount;\n    }\n\n    /**\n     * @dev See {ISafeStakeNetwork-operatorEarningsOf}.\n     */\n    function _operatorEarningsOf(uint32 operatorId) private view returns (uint64) {\n        return _operatorDatas[operatorId].earnings +\n               uint64(block.number - _operatorDatas[operatorId].blockNumber) *\n               _operatorEarnRate(operatorId);\n    }\n\n    function _addressNetworkFee(address ownerAddress) private view returns (uint64) {\n        return _owners[ownerAddress].networkFee +\n              uint64(_currentNetworkFeeIndex() - _owners[ownerAddress].networkFeeIndex) *\n              _owners[ownerAddress].activeValidatorCount;\n    }\n\n    function _burnRate(address ownerAddress) private view returns (uint64 ownerBurnRate) {\n        if (_owners[ownerAddress].validatorsDisabled) {\n            return 0;\n        }\n\n        for (uint32 index = 0; index < _operatorsInUseList[ownerAddress].length; ++index) {\n            ownerBurnRate += _operatorInUseBurnRateWithNetworkFeeUnsafe(ownerAddress, _operatorsInUseList[ownerAddress][index]);\n        }\n\n        ownerBurnRate += _owners[ownerAddress].activeValidatorCount * _networkFee;\n\n        uint32[] memory operatorsByOwner = _SafeStakeRegistryContract.getOperatorsByOwnerAddress(ownerAddress);\n\n        for (uint32 index = 0; index < operatorsByOwner.length; ++index) {\n            if (ownerBurnRate <= _operatorEarnRate(operatorsByOwner[index])) {\n                return 0;\n            } else {\n                ownerBurnRate -= _operatorEarnRate(operatorsByOwner[index]);\n            }\n        }\n    }\n\n    function _overdue(address ownerAddress) private view returns (bool) {\n        return _totalBalanceOf(ownerAddress) < _minimumBlocksValidatorPay * _burnRate(ownerAddress);\n    }\n\n    /**\n     * @dev liquidatable means whether the validator can pay for the minimal fee.\n     */\n    function _liquidatable(address ownerAddress) private view returns (bool) {\n        return !_owners[ownerAddress].validatorsDisabled && _overdue(ownerAddress);\n    }\n\n    // function _canLiquidate(address ownerAddress) private view returns (bool) {\n    //     return !_owners[ownerAddress].validatorsDisabled && (msg.sender == ownerAddress || _overdue(ownerAddress));\n    // }\n\n    function _getTotalNetworkEarnings() private view returns (uint64) {\n        uint256 result = _networkEarnings + (block.number - _networkEarningsBlockNumber) * _networkFee * _SafeStakeRegistryContract.activeValidatorCount();\n        return uint64(result);\n    }\n\n    function _getNetworkEarnings() private view returns (uint64) {\n        return _getTotalNetworkEarnings() - _withdrawnFromTreasury;\n    }\n\n    /**\n     * @dev Get operator index by address.\n     */\n    function _operatorIndexOf(uint32 operatorId) private view returns (uint64) {\n        return _operatorDatas[operatorId].index +\n               _SafeStakeRegistryContract.getOperatorFee() *\n               uint64(block.number - _operatorDatas[operatorId].indexBlockNumber);\n    }\n\n    function _operatorInUseUsageOf(OperatorInUse storage operatorInUseData, address ownerAddress, uint32 operatorId) private view returns (uint64) {\n        return operatorInUseData.used + (\n                _owners[ownerAddress].validatorsDisabled ? 0 :\n                uint64(_operatorIndexOf(operatorId) - operatorInUseData.index) * operatorInUseData.validatorCount\n               );\n    }\n\n    function _operatorInUseBurnRateWithNetworkFeeUnsafe(address ownerAddress, uint32 operatorId) private view returns (uint64) {\n        // OperatorInUse storage operatorInUseData = _operatorsInUseByAddress[ownerAddress][operatorId];\n        return _SafeStakeRegistryContract.getOperatorFee() * _operatorsInUseByAddress[ownerAddress][operatorId].validatorCount;\n    }\n\n    /**\n     * @dev Returns the current network fee index\n     */\n    function _currentNetworkFeeIndex() private view returns(uint64) {\n        return _networkFeeIndex + uint64(block.number - _networkFeeIndexBlockNumber) * _networkFee;\n    }\n\n    function _onlyValidatorOwnerOrContractOwner(bytes calldata publicKey) private view {\n        address validatorOwner = _SafeStakeRegistryContract.getValidatorOwner(publicKey);\n        if (validatorOwner == address(0)) {\n            revert ValidatorWithPublicKeyNotExist();\n        }\n        if (msg.sender != validatorOwner && msg.sender != owner()) {\n            revert CallerNotValidatorOwner();\n        }\n    }\n\n    function _onlyOperatorOwnerOrContractOwner(uint32 operatorId) private view {\n        address operatorOwner = _SafeStakeRegistryContract.getOperatorOwner(operatorId);\n\n        if(operatorOwner == address(0)) {\n            revert OperatorWithPublicKeyNotExist();\n        }\n\n        if(msg.sender != operatorOwner && msg.sender != owner()) {\n            revert CallerNotOperatorOwner();\n        }\n    }\n\n    // function _onlyInitializerOwner(uint32 initializerId) private view {\n    //     address initializerOwner = _SafeStakeRegistryContract.getInitializerOwner(initializerId);\n\n    //     if (initializerOwner == address(0)) {\n    //         revert InitializerNotExist();\n    //     }\n\n    //     if (msg.sender != initializerOwner) {\n    //         revert CallerNotInitializerOwner();\n    //     }\n    // }\n\n    // function _ensureMinimalOperatorFee(uint64 fee) private pure {\n    //     if (fee < MINIMAL_OPERATOR_FEE) {\n    //         revert FeeTooLow();\n    //     }\n    // }\n\n    // function _checkTwoOperatorsFromParaDao(uint32[] calldata operatorIds) private view returns (bool) {\n    //     return  _SafeStakeRegistryContract.ifEnoughOperatorsFromParaStateDao(operatorIds);\n    // }\n\n\n    function version() external pure override returns (uint32) {\n        return 20000;\n    }\n\n    // function certifyOperatorFromDao(uint32 operatorId) external onlyOwner override {\n    //     _SafeStakeRegistryContract.certifyOperatorFromDao(operatorId);\n    // }\n\n    function getOperatorsInUseByOwnerAddress(address ownerAddress)\n        external override view\n        returns (uint32[] memory) {\n            return _operatorsInUseList[ownerAddress];\n    }\n\n    function getOperatorClaimBlock(uint32 operatorId) external view override returns (uint256) {\n        return _operatorDatas[operatorId].claimBlockNumber;\n    }\n\n    function getAccountPaidBlockNumber(address account) external view override returns (uint256) {\n        return _owners[account].paidBlockNumber;\n    }\n\n    uint256[50] ______gap;\n}",
  "sourcePath": "/Users/jiangjianlin/Github/safestake-tokenomics/contracts/SafeStakeNetwork.sol",
  "compiler": {
    "name": "solc",
    "version": "0.8.17+commit.8df45f5f.Emscripten.clang"
  },
  "schemaVersion": "3.4.10",
  "updatedAt": "2023-01-07T06:19:35.921Z",
  "networkType": "ethereum",
  "devdoc": {
    "kind": "dev",
    "methods": {
      "addressNetworkFee(address)": {
        "details": "See {ISafeStakeNetwork-addressNetworkFee}."
      },
      "disableAddress(address)": {
        "details": "See {ISafeStakeNetwork-disableAddress}."
      },
      "getAddressBalance(address)": {
        "details": "Gets total balance for an owner.",
        "params": {
          "ownerAddress": "Owner's address."
        }
      },
      "getMinimumBlocksValidatorShouldPay()": {
        "details": "Returns the number of blocks left for an owner before they can be liquidated."
      },
      "getNetworkEarnings()": {
        "details": "Gets the available network earnings"
      },
      "getNetworkFee()": {
        "details": "Returns the network fee."
      },
      "getOperatorsInUseByOwnerAddress(address)": {
        "details": "Returns operators for owner which are in use.",
        "params": {
          "ownerAddress": "Owner's address."
        }
      },
      "initialize(address,address,uint64,uint64)": {
        "details": "Initializes the contract.",
        "params": {
          "minimumBlocksBeforeLiquidation_": "The minimum blocks before liquidation.",
          "registryAddress_": "The registry address.",
          "token_": "The network token."
        }
      },
      "isLiquidatable(address)": {
        "details": "Check if an owner is liquidatable.",
        "params": {
          "ownerAddress": "Owner's address."
        }
      },
      "owner()": {
        "details": "Returns the address of the current owner."
      },
      "reactivateAccount(uint256)": {
        "details": "Enables msg.sender account.",
        "params": {
          "amount": "Tokens amount."
        }
      },
      "registerOperator(string,bytes)": {
        "details": "See {ISafeStakeNetwork-registerOperator}."
      },
      "registerValidator(bytes,uint32[],bytes[],bytes[],uint256)": {
        "details": "See {ISafeStakeNetwork-registerValidator}."
      },
      "removeOperator(uint32)": {
        "details": "See {ISafeStakeNetwork-removeOperator}."
      },
      "removeValidator(bytes)": {
        "details": "See {ISafeStakeNetwork-removeValidator}."
      },
      "renounceOwnership()": {
        "details": "Leaves the contract without owner. It will not be possible to call `onlyOwner` functions anymore. Can only be called by the current owner. NOTE: Renouncing ownership will leave the contract without an owner, thereby removing any functionality that is only available to the owner."
      },
      "transferOwnership(address)": {
        "details": "Transfers ownership of the contract to a new account (`newOwner`). Can only be called by the current owner."
      },
      "updateNetworkFee(uint256)": {
        "details": "See {ISafeStakeNetwork-updateNetworkFee}."
      }
    },
    "version": 1
  },
  "userdoc": {
    "errors": {
      "ValidatorWithPublicKeyNotExist()": [
        {
          "notice": "errors "
        }
      ]
    },
    "kind": "user",
    "methods": {},
    "version": 1
  },
  "db": {
    "callBytecode": {
      "id": "0x618b7284847105903e1a9447b5235a266fddab6b2495a5b78ae43e0dd218681a"
    },
    "createBytecode": {
      "id": "0x64c04ecb72ffcd7e2f2f133c67bd7567de6bf622c130882ef33298170fdbd2fc"
    },
    "contract": {
      "id": "0xd13e7d7d5e9af5990cf2b13965b1f933e56809b1eefd003a7aabdd59e1d5cacc"
    }
  }
}