{
  "contractName": "SafeStakeRegistry",
  "abi": [
    {
      "inputs": [],
      "name": "ExceedRegisteredOperatorsByAccountLimit",
      "type": "error"
    },
    {
      "inputs": [],
      "name": "ExceedValidatorLimit",
      "type": "error"
    },
    {
      "inputs": [],
      "name": "InvalidPublicKeyLength",
      "type": "error"
    },
    {
      "inputs": [],
      "name": "NoEnoughParaStateDaoOperator",
      "type": "error"
    },
    {
      "inputs": [],
      "name": "OessDataStructureInvalid",
      "type": "error"
    },
    {
      "inputs": [],
      "name": "OperatorDeleted",
      "type": "error"
    },
    {
      "inputs": [],
      "name": "OperatorNotFound",
      "type": "error"
    },
    {
      "inputs": [],
      "name": "ValidatorAlreadyExists",
      "type": "error"
    },
    {
      "anonymous": false,
      "inputs": [
        {
          "indexed": false,
          "internalType": "uint8",
          "name": "version",
          "type": "uint8"
        }
      ],
      "name": "Initialized",
      "type": "event"
    },
    {
      "anonymous": false,
      "inputs": [
        {
          "indexed": true,
          "internalType": "address",
          "name": "previousOwner",
          "type": "address"
        },
        {
          "indexed": true,
          "internalType": "address",
          "name": "newOwner",
          "type": "address"
        }
      ],
      "name": "OwnershipTransferred",
      "type": "event"
    },
    {
      "inputs": [],
      "name": "owner",
      "outputs": [
        {
          "internalType": "address",
          "name": "",
          "type": "address"
        }
      ],
      "stateMutability": "view",
      "type": "function",
      "constant": true
    },
    {
      "inputs": [],
      "name": "renounceOwnership",
      "outputs": [],
      "stateMutability": "nonpayable",
      "type": "function"
    },
    {
      "inputs": [
        {
          "internalType": "address",
          "name": "newOwner",
          "type": "address"
        }
      ],
      "name": "transferOwnership",
      "outputs": [],
      "stateMutability": "nonpayable",
      "type": "function"
    },
    {
      "inputs": [
        {
          "internalType": "uint64",
          "name": "operatorFee",
          "type": "uint64"
        }
      ],
      "name": "initialize",
      "outputs": [],
      "stateMutability": "nonpayable",
      "type": "function"
    },
    {
      "inputs": [
        {
          "internalType": "string",
          "name": "name",
          "type": "string"
        },
        {
          "internalType": "address",
          "name": "ownerAddress",
          "type": "address"
        },
        {
          "internalType": "bytes",
          "name": "publicKey",
          "type": "bytes"
        }
      ],
      "name": "registerOperator",
      "outputs": [
        {
          "internalType": "uint32",
          "name": "operatorId",
          "type": "uint32"
        }
      ],
      "stateMutability": "nonpayable",
      "type": "function"
    },
    {
      "inputs": [
        {
          "internalType": "uint32",
          "name": "operatorId",
          "type": "uint32"
        }
      ],
      "name": "removeOperator",
      "outputs": [],
      "stateMutability": "nonpayable",
      "type": "function"
    },
    {
      "inputs": [
        {
          "internalType": "uint32",
          "name": "operatorId",
          "type": "uint32"
        }
      ],
      "name": "certifyOperatorFromDao",
      "outputs": [],
      "stateMutability": "nonpayable",
      "type": "function"
    },
    {
      "inputs": [
        {
          "internalType": "uint64",
          "name": "fee",
          "type": "uint64"
        }
      ],
      "name": "updateOperatorFee",
      "outputs": [],
      "stateMutability": "nonpayable",
      "type": "function"
    },
    {
      "inputs": [
        {
          "internalType": "uint32",
          "name": "operatorId",
          "type": "uint32"
        },
        {
          "internalType": "uint32",
          "name": "score",
          "type": "uint32"
        }
      ],
      "name": "updateOperatorScore",
      "outputs": [],
      "stateMutability": "nonpayable",
      "type": "function"
    },
    {
      "inputs": [
        {
          "internalType": "address",
          "name": "ownerAddress",
          "type": "address"
        },
        {
          "internalType": "bytes",
          "name": "publicKey",
          "type": "bytes"
        },
        {
          "internalType": "uint32[]",
          "name": "operatorIds",
          "type": "uint32[]"
        },
        {
          "internalType": "bytes[]",
          "name": "sharesPublicKeys",
          "type": "bytes[]"
        },
        {
          "internalType": "bytes[]",
          "name": "sharesEncrypted",
          "type": "bytes[]"
        }
      ],
      "name": "registerValidator",
      "outputs": [],
      "stateMutability": "nonpayable",
      "type": "function"
    },
    {
      "inputs": [
        {
          "internalType": "bytes",
          "name": "publicKey",
          "type": "bytes"
        }
      ],
      "name": "removeValidator",
      "outputs": [],
      "stateMutability": "nonpayable",
      "type": "function"
    },
    {
      "inputs": [
        {
          "internalType": "address",
          "name": "ownerAddress",
          "type": "address"
        },
        {
          "internalType": "uint32[]",
          "name": "operatorIds",
          "type": "uint32[]"
        }
      ],
      "name": "registerInitializer",
      "outputs": [
        {
          "internalType": "uint32",
          "name": "initializerId",
          "type": "uint32"
        }
      ],
      "stateMutability": "nonpayable",
      "type": "function"
    },
    {
      "inputs": [
        {
          "internalType": "address",
          "name": "ownerAddress",
          "type": "address"
        }
      ],
      "name": "enableOwnerValidators",
      "outputs": [],
      "stateMutability": "nonpayable",
      "type": "function"
    },
    {
      "inputs": [
        {
          "internalType": "address",
          "name": "ownerAddress",
          "type": "address"
        }
      ],
      "name": "disableOwnerValidators",
      "outputs": [],
      "stateMutability": "nonpayable",
      "type": "function"
    },
    {
      "inputs": [
        {
          "internalType": "address",
          "name": "ownerAddress",
          "type": "address"
        }
      ],
      "name": "isLiquidated",
      "outputs": [
        {
          "internalType": "bool",
          "name": "",
          "type": "bool"
        }
      ],
      "stateMutability": "view",
      "type": "function",
      "constant": true
    },
    {
      "inputs": [
        {
          "internalType": "uint32",
          "name": "operatorId",
          "type": "uint32"
        }
      ],
      "name": "getOperatorById",
      "outputs": [
        {
          "internalType": "string",
          "name": "",
          "type": "string"
        },
        {
          "internalType": "address",
          "name": "",
          "type": "address"
        },
        {
          "internalType": "bytes",
          "name": "",
          "type": "bytes"
        },
        {
          "internalType": "uint256",
          "name": "",
          "type": "uint256"
        },
        {
          "internalType": "uint256",
          "name": "",
          "type": "uint256"
        },
        {
          "internalType": "uint256",
          "name": "",
          "type": "uint256"
        },
        {
          "internalType": "bool",
          "name": "",
          "type": "bool"
        }
      ],
      "stateMutability": "view",
      "type": "function",
      "constant": true
    },
    {
      "inputs": [
        {
          "internalType": "address",
          "name": "ownerAddress",
          "type": "address"
        }
      ],
      "name": "getOperatorsByOwnerAddress",
      "outputs": [
        {
          "internalType": "uint32[]",
          "name": "",
          "type": "uint32[]"
        }
      ],
      "stateMutability": "view",
      "type": "function",
      "constant": true
    },
    {
      "inputs": [
        {
          "internalType": "bytes",
          "name": "validatorPublicKey",
          "type": "bytes"
        }
      ],
      "name": "getOperatorsByValidator",
      "outputs": [
        {
          "internalType": "uint32[]",
          "name": "operatorIds",
          "type": "uint32[]"
        }
      ],
      "stateMutability": "view",
      "type": "function",
      "constant": true
    },
    {
      "inputs": [
        {
          "internalType": "uint32",
          "name": "operatorId",
          "type": "uint32"
        }
      ],
      "name": "getOperatorOwner",
      "outputs": [
        {
          "internalType": "address",
          "name": "",
          "type": "address"
        }
      ],
      "stateMutability": "view",
      "type": "function",
      "constant": true
    },
    {
      "inputs": [],
      "name": "getOperatorFee",
      "outputs": [
        {
          "internalType": "uint64",
          "name": "",
          "type": "uint64"
        }
      ],
      "stateMutability": "view",
      "type": "function",
      "constant": true
    },
    {
      "inputs": [],
      "name": "activeValidatorCount",
      "outputs": [
        {
          "internalType": "uint32",
          "name": "",
          "type": "uint32"
        }
      ],
      "stateMutability": "view",
      "type": "function",
      "constant": true
    },
    {
      "inputs": [
        {
          "internalType": "bytes",
          "name": "publicKey",
          "type": "bytes"
        }
      ],
      "name": "validators",
      "outputs": [
        {
          "internalType": "address",
          "name": "",
          "type": "address"
        },
        {
          "internalType": "bytes",
          "name": "",
          "type": "bytes"
        },
        {
          "internalType": "bool",
          "name": "",
          "type": "bool"
        }
      ],
      "stateMutability": "view",
      "type": "function",
      "constant": true
    },
    {
      "inputs": [
        {
          "internalType": "address",
          "name": "ownerAddress",
          "type": "address"
        }
      ],
      "name": "getValidatorsByAddress",
      "outputs": [
        {
          "internalType": "bytes[]",
          "name": "",
          "type": "bytes[]"
        }
      ],
      "stateMutability": "view",
      "type": "function",
      "constant": true
    },
    {
      "inputs": [
        {
          "internalType": "bytes",
          "name": "publicKey",
          "type": "bytes"
        }
      ],
      "name": "getValidatorOwner",
      "outputs": [
        {
          "internalType": "address",
          "name": "",
          "type": "address"
        }
      ],
      "stateMutability": "view",
      "type": "function",
      "constant": true
    },
    {
      "inputs": [
        {
          "internalType": "uint32",
          "name": "operatorId",
          "type": "uint32"
        }
      ],
      "name": "validatorsPerOperatorCount",
      "outputs": [
        {
          "internalType": "uint32",
          "name": "",
          "type": "uint32"
        }
      ],
      "stateMutability": "view",
      "type": "function",
      "constant": true
    },
    {
      "inputs": [],
      "name": "version",
      "outputs": [
        {
          "internalType": "uint32",
          "name": "",
          "type": "uint32"
        }
      ],
      "stateMutability": "pure",
      "type": "function",
      "constant": true
    },
    {
      "inputs": [
        {
          "internalType": "uint32",
          "name": "operatorId",
          "type": "uint32"
        }
      ],
      "name": "ifOperatorFromParaStateDao",
      "outputs": [
        {
          "internalType": "bool",
          "name": "",
          "type": "bool"
        }
      ],
      "stateMutability": "view",
      "type": "function",
      "constant": true
    },
    {
      "inputs": [
        {
          "internalType": "uint32",
          "name": "initializerId",
          "type": "uint32"
        }
      ],
      "name": "getInitializerById",
      "outputs": [
        {
          "internalType": "address",
          "name": "ownerAddress",
          "type": "address"
        },
        {
          "internalType": "uint32[]",
          "name": "operatorIds",
          "type": "uint32[]"
        },
        {
          "internalType": "bytes",
          "name": "validatorPublicKey",
          "type": "bytes"
        },
        {
          "internalType": "address",
          "name": "minipoolAddress",
          "type": "address"
        },
        {
          "internalType": "enum ISafeStakeRegistry.InitializerStatus",
          "name": "status",
          "type": "uint8"
        },
        {
          "internalType": "bool",
          "name": "active",
          "type": "bool"
        }
      ],
      "stateMutability": "view",
      "type": "function",
      "constant": true
    },
    {
      "inputs": [
        {
          "internalType": "uint32",
          "name": "initializerId",
          "type": "uint32"
        },
        {
          "internalType": "bytes",
          "name": "validatorPublicKey",
          "type": "bytes"
        },
        {
          "internalType": "address",
          "name": "miniPoolAddress",
          "type": "address"
        }
      ],
      "name": "initializerPreStatke",
      "outputs": [],
      "stateMutability": "nonpayable",
      "type": "function"
    },
    {
      "inputs": [
        {
          "internalType": "uint32",
          "name": "initializerId",
          "type": "uint32"
        }
      ],
      "name": "initializerReady",
      "outputs": [],
      "stateMutability": "nonpayable",
      "type": "function"
    },
    {
      "inputs": [
        {
          "internalType": "uint32",
          "name": "initializerId",
          "type": "uint32"
        }
      ],
      "name": "initializerStake",
      "outputs": [],
      "stateMutability": "nonpayable",
      "type": "function"
    },
    {
      "inputs": [
        {
          "internalType": "uint32",
          "name": "initializerId",
          "type": "uint32"
        }
      ],
      "name": "getInitializerOwner",
      "outputs": [
        {
          "internalType": "address",
          "name": "ownerAddress",
          "type": "address"
        }
      ],
      "stateMutability": "view",
      "type": "function",
      "constant": true
    },
    {
      "inputs": [
        {
          "internalType": "address",
          "name": "ownerAddress",
          "type": "address"
        }
      ],
      "name": "getInitalizerByOwner",
      "outputs": [
        {
          "internalType": "uint32[]",
          "name": "initializerIds",
          "type": "uint32[]"
        }
      ],
      "stateMutability": "view",
      "type": "function",
      "constant": true
    }
  ],
  "bytecode": "0x608060405234801561001057600080fd5b506147ef806100206000396000f3fe608060405234801561001057600080fd5b50600436106101fb5760003560e01c80635f10ac301161011a578063c87b3038116100ad578063e6491ecf1161007c578063e6491ecf14610612578063e7b2174814610647578063eb92db2714610677578063f2fde38b14610693578063f362dfd9146106af576101fb565b8063c87b30381461057a578063d379a5f2146105aa578063d85edef2146105da578063e3b0715e146105f6576101fb565b80638da5cb5b116100e95780638da5cb5b146104f45780639b4ddb5d14610512578063a3b3f6061461052e578063b2f569c51461055e576101fb565b80635f10ac301461046c5780636c36511a14610488578063715018a6146104ba5780638c353138146104c4576101fb565b806327467a181161019257806345413bf41161016157806345413bf4146103e6578063459e8b411461040257806354fd4d501461041e578063593996961461043c576101fb565b806327467a181461037457806328696608146103905780632e1d2f05146103ae57806341d2c0cd146103ca576101fb565b80630e32066a116101ce5780630e32066a146102c6578063121cf7df146102f65780631940d387146103265780632340e8d314610356576101fb565b80630260d44314610200578063053e8349146102365780630906cbc2146102665780630dc1eeff14610296575b600080fd5b61021a60048036038101906102159190613113565b6106cb565b60405161022d979695949392919061329a565b60405180910390f35b610250600480360381019061024b919061337c565b6108f0565b60405161025d9190613487565b60405180910390f35b610280600480360381019061027b919061352b565b61099e565b60405161028d919061359a565b60405180910390f35b6102b060048036038101906102ab91906135b5565b610cf5565b6040516102bd9190613487565b60405180910390f35b6102e060048036038101906102db91906135b5565b610db8565b6040516102ed91906136ee565b60405180910390f35b610310600480360381019061030b91906135b5565b610ed3565b60405161031d9190613487565b60405180910390f35b610340600480360381019061033b9190613766565b610f96565b60405161034d919061359a565b60405180910390f35b61035e6113ff565b60405161036b919061359a565b60405180910390f35b61038e600480360381019061038991906135b5565b611419565b005b610398611584565b6040516103a5919061381e565b60405180910390f35b6103c860048036038101906103c39190613113565b6115a2565b005b6103e460048036038101906103df9190613865565b6116aa565b005b61040060048036038101906103fb91906135b5565b611732565b005b61041c60048036038101906104179190613113565b61189d565b005b6104266119a5565b604051610433919061359a565b60405180910390f35b61045660048036038101906104519190613113565b6119ae565b6040516104639190613892565b60405180910390f35b610486600480360381019061048191906138ad565b6119e7565b005b6104a2600480360381019061049d919061337c565b611aae565b6040516104b1939291906138ed565b60405180910390f35b6104c2611b68565b005b6104de60048036038101906104d99190613113565b611bf0565b6040516104eb919061392b565b60405180910390f35b6104fc611c3c565b604051610509919061392b565b60405180910390f35b61052c6004803603810190610527919061399c565b611c66565b005b610548600480360381019061054391906135b5565b61217c565b6040516105559190613892565b60405180910390f35b6105786004803603810190610573919061337c565b6121d5565b005b610594600480360381019061058f919061337c565b612597565b6040516105a1919061392b565b60405180910390f35b6105c460048036038101906105bf9190613113565b6125e5565b6040516105d1919061359a565b60405180910390f35b6105f460048036038101906105ef9190613a98565b612621565b005b610610600480360381019061060b9190613113565b612705565b005b61062c60048036038101906106279190613113565b612753565b60405161063e96959493929190613b83565b60405180910390f35b610661600480360381019061065c9190613113565b612915565b60405161066e919061392b565b60405180910390f35b610691600480360381019061068c9190613865565b612961565b005b6106ad60048036038101906106a891906135b5565b6129f7565b005b6106c960048036038101906106c49190613113565b612aee565b005b6060600060606000806000806000606760008a63ffffffff1663ffffffff1681526020019081526020016000209050806000018160020160089054906101000a900473ffffffffffffffffffffffffffffffffffffffff1682600101606760008d63ffffffff1663ffffffff16815260200190815260200160002060030160049054906101000a900463ffffffff166107858560020160009054906101000a900467ffffffffffffffff1667ffffffffffffffff16612b3c565b85600201601c9054906101000a900463ffffffff168660030160089054906101000a900460ff168680546107b890613c21565b80601f01602080910402602001604051908101604052809291908181526020018280546107e490613c21565b80156108315780601f1061080657610100808354040283529160200191610831565b820191906000526020600020905b81548152906001019060200180831161081457829003601f168201915b5050505050965084805461084490613c21565b80601f016020809104026020016040519081016040528092919081815260200182805461087090613c21565b80156108bd5780601f10610892576101008083540402835291602001916108bd565b820191906000526020600020905b8154815290600101906020018083116108a057829003601f168201915b505050505094508363ffffffff1693508163ffffffff169150975097509750975097509750975050919395979092949650565b6060600060688484604051610906929190613c91565b908152602001604051809103902090508060000180548060200260200160405190810160405280929190818152602001828054801561099057602002820191906000526020600020906000905b82829054906101000a900463ffffffff1663ffffffff16815260200190600401906020826003010492830192600103820291508084116109535790505b505050505091505092915050565b60006109a8612b68565b73ffffffffffffffffffffffffffffffffffffffff166109c6611c3c565b73ffffffffffffffffffffffffffffffffffffffff1614610a1c576040517f08c379a0000000000000000000000000000000000000000000000000000000008152600401610a1390613cf6565b60405180910390fd5b610a266066612b70565b610a306066612b86565b90506040518060c001604052808573ffffffffffffffffffffffffffffffffffffffff168152602001848480806020026020016040519081016040528093929190818152602001838360200280828437600081840152601f19601f820116905080830192505050505050508152602001600067ffffffffffffffff811115610abb57610aba613d16565b5b6040519080825280601f01601f191660200182016040528015610aed5781602001600182028036833780820191505090505b508152602001600073ffffffffffffffffffffffffffffffffffffffff16815260200160006003811115610b2457610b23613b0c565b5b815260200160011515815250606c60008363ffffffff1663ffffffff16815260200190815260200160002060008201518160000160006101000a81548173ffffffffffffffffffffffffffffffffffffffff021916908373ffffffffffffffffffffffffffffffffffffffff1602179055506020820151816001019080519060200190610bb2929190612f98565b506040820151816002019081610bc89190613ef1565b5060608201518160030160006101000a81548173ffffffffffffffffffffffffffffffffffffffff021916908373ffffffffffffffffffffffffffffffffffffffff16021790555060808201518160030160146101000a81548160ff02191690836003811115610c3b57610c3a613b0c565b5b021790555060a08201518160030160156101000a81548160ff021916908315150217905550905050606b60008573ffffffffffffffffffffffffffffffffffffffff1673ffffffffffffffffffffffffffffffffffffffff1681526020019081526020016000208190806001815401808255809150506001900390600052602060002090600891828204019190066004029091909190916101000a81548163ffffffff021916908363ffffffff1602179055509392505050565b6060606960008373ffffffffffffffffffffffffffffffffffffffff1673ffffffffffffffffffffffffffffffffffffffff168152602001908152602001600020805480602002602001604051908101604052809291908181526020018280548015610dac57602002820191906000526020600020906000905b82829054906101000a900463ffffffff1663ffffffff1681526020019060040190602082600301049283019260010382029150808411610d6f5790505b50505050509050919050565b6060606a60008373ffffffffffffffffffffffffffffffffffffffff1673ffffffffffffffffffffffffffffffffffffffff168152602001908152602001600020600101805480602002602001604051908101604052809291908181526020016000905b82821015610ec8578382906000526020600020018054610e3b90613c21565b80601f0160208091040260200160405190810160405280929190818152602001828054610e6790613c21565b8015610eb45780601f10610e8957610100808354040283529160200191610eb4565b820191906000526020600020905b815481529060010190602001808311610e9757829003601f168201915b505050505081526020019060010190610e1c565b505050509050919050565b6060606b60008373ffffffffffffffffffffffffffffffffffffffff1673ffffffffffffffffffffffffffffffffffffffff168152602001908152602001600020805480602002602001604051908101604052809291908181526020018280548015610f8a57602002820191906000526020600020906000905b82829054906101000a900463ffffffff1663ffffffff1681526020019060040190602082600301049283019260010382029150808411610f4d5790505b50505050509050919050565b6000610fa0612b68565b73ffffffffffffffffffffffffffffffffffffffff16610fbe611c3c565b73ffffffffffffffffffffffffffffffffffffffff1614611014576040517f08c379a000000000000000000000000000000000000000000000000000000000815260040161100b90613cf6565b60405180910390fd5b600a63ffffffff16606960008673ffffffffffffffffffffffffffffffffffffffff1673ffffffffffffffffffffffffffffffffffffffff1681526020019081526020016000208054905010611096576040517f69765c9500000000000000000000000000000000000000000000000000000000815260040160405180910390fd5b6110a06065612b70565b6110aa6065612b86565b905060405180610120016040528087878080601f016020809104026020016040519081016040528093929190818152602001838380828437600081840152601f19601f82011690508083019250505050505050815260200184848080601f016020809104026020016040519081016040528093929190818152602001838380828437600081840152601f19601f820116905080830192505050505050508152602001600067ffffffffffffffff1681526020018573ffffffffffffffffffffffffffffffffffffffff168152602001600063ffffffff168152602001606960008773ffffffffffffffffffffffffffffffffffffffff1673ffffffffffffffffffffffffffffffffffffffff1681526020019081526020016000208054905063ffffffff168152602001600063ffffffff16815260200160011515815260200160001515815250606760008363ffffffff1663ffffffff1681526020019081526020016000206000820151816000019081611225919061401e565b50602082015181600101908161123b9190613ef1565b5060408201518160020160006101000a81548167ffffffffffffffff021916908367ffffffffffffffff16021790555060608201518160020160086101000a81548173ffffffffffffffffffffffffffffffffffffffff021916908373ffffffffffffffffffffffffffffffffffffffff160217905550608082015181600201601c6101000a81548163ffffffff021916908363ffffffff16021790555060a08201518160030160006101000a81548163ffffffff021916908363ffffffff16021790555060c08201518160030160046101000a81548163ffffffff021916908363ffffffff16021790555060e08201518160030160086101000a81548160ff0219169083151502179055506101008201518160030160096101000a81548160ff021916908315150217905550905050606960008573ffffffffffffffffffffffffffffffffffffffff1673ffffffffffffffffffffffffffffffffffffffff1681526020019081526020016000208190806001815401808255809150506001900390600052602060002090600891828204019190066004029091909190916101000a81548163ffffffff021916908363ffffffff16021790555095945050505050565b6000606d60009054906101000a900463ffffffff16905090565b611421612b68565b73ffffffffffffffffffffffffffffffffffffffff1661143f611c3c565b73ffffffffffffffffffffffffffffffffffffffff1614611495576040517f08c379a000000000000000000000000000000000000000000000000000000000815260040161148c90613cf6565b60405180910390fd5b606a60008273ffffffffffffffffffffffffffffffffffffffff1673ffffffffffffffffffffffffffffffffffffffff16815260200190815260200160002060000160009054906101000a900463ffffffff16606d60008282829054906101000a900463ffffffff16611508919061411f565b92506101000a81548163ffffffff021916908363ffffffff1602179055506001606a60008373ffffffffffffffffffffffffffffffffffffffff1673ffffffffffffffffffffffffffffffffffffffff16815260200190815260200160002060000160046101000a81548160ff02191690831515021790555050565b6000606d60049054906101000a900467ffffffffffffffff16905090565b6115aa612b68565b73ffffffffffffffffffffffffffffffffffffffff166115c8611c3c565b73ffffffffffffffffffffffffffffffffffffffff161461161e576040517f08c379a000000000000000000000000000000000000000000000000000000000815260040161161590613cf6565b60405180910390fd5b6000606760008363ffffffff1663ffffffff16815260200190815260200160002090508060030160089054906101000a900460ff16611689576040517f0f861bc000000000000000000000000000000000000000000000000000000000815260040160405180910390fd5b60008160030160086101000a81548160ff0219169083151502179055505050565b6116b2612b68565b73ffffffffffffffffffffffffffffffffffffffff166116d0611c3c565b73ffffffffffffffffffffffffffffffffffffffff1614611726576040517f08c379a000000000000000000000000000000000000000000000000000000000815260040161171d90613cf6565b60405180910390fd5b61172f81612b94565b50565b61173a612b68565b73ffffffffffffffffffffffffffffffffffffffff16611758611c3c565b73ffffffffffffffffffffffffffffffffffffffff16146117ae576040517f08c379a00000000000000000000000000000000000000000000000000000000081526004016117a590613cf6565b60405180910390fd5b606a60008273ffffffffffffffffffffffffffffffffffffffff1673ffffffffffffffffffffffffffffffffffffffff16815260200190815260200160002060000160009054906101000a900463ffffffff16606d60008282829054906101000a900463ffffffff166118219190614157565b92506101000a81548163ffffffff021916908363ffffffff1602179055506000606a60008373ffffffffffffffffffffffffffffffffffffffff1673ffffffffffffffffffffffffffffffffffffffff16815260200190815260200160002060000160046101000a81548160ff02191690831515021790555050565b6118a5612b68565b73ffffffffffffffffffffffffffffffffffffffff166118c3611c3c565b73ffffffffffffffffffffffffffffffffffffffff1614611919576040517f08c379a000000000000000000000000000000000000000000000000000000000815260040161191090613cf6565b60405180910390fd5b6000606760008363ffffffff1663ffffffff16815260200190815260200160002090508060030160089054906101000a900460ff16611984576040517f0f861bc000000000000000000000000000000000000000000000000000000000815260040160405180910390fd5b60018160030160096101000a81548160ff0219169083151502179055505050565b60006001905090565b6000606760008363ffffffff1663ffffffff16815260200190815260200160002060030160099054906101000a900460ff169050919050565b6119ef612b68565b73ffffffffffffffffffffffffffffffffffffffff16611a0d611c3c565b73ffffffffffffffffffffffffffffffffffffffff1614611a63576040517f08c379a0000000000000000000000000000000000000000000000000000000008152600401611a5a90613cf6565b60405180910390fd5b6000606760008463ffffffff1663ffffffff16815260200190815260200160002090508181600201601c6101000a81548163ffffffff021916908363ffffffff160217905550505050565b6000606060008060688686604051611ac7929190613c91565b908152602001604051809103902090508060010160009054906101000a900473ffffffffffffffffffffffffffffffffffffffff1686868360010160189054906101000a900460ff1682828080601f016020809104026020016040519081016040528093929190818152602001838380828437600081840152601f19601f820116905080830192505050505050509150909150935093509350509250925092565b611b70612b68565b73ffffffffffffffffffffffffffffffffffffffff16611b8e611c3c565b73ffffffffffffffffffffffffffffffffffffffff1614611be4576040517f08c379a0000000000000000000000000000000000000000000000000000000008152600401611bdb90613cf6565b60405180910390fd5b611bee6000612bc0565b565b6000606c60008363ffffffff1663ffffffff16815260200190815260200160002060000160009054906101000a900473ffffffffffffffffffffffffffffffffffffffff169050919050565b6000603360009054906101000a900473ffffffffffffffffffffffffffffffffffffffff16905090565b611c6e612b68565b73ffffffffffffffffffffffffffffffffffffffff16611c8c611c3c565b73ffffffffffffffffffffffffffffffffffffffff1614611ce2576040517f08c379a0000000000000000000000000000000000000000000000000000000008152600401611cd990613cf6565b60405180910390fd5b611cf28888888888888888612c86565b600073ffffffffffffffffffffffffffffffffffffffff1660688989604051611d1c929190613c91565b908152602001604051809103902060010160009054906101000a900473ffffffffffffffffffffffffffffffffffffffff1673ffffffffffffffffffffffffffffffffffffffff1614611d9b576040517f8d09a73e00000000000000000000000000000000000000000000000000000000815260040160405180910390fd5b6040518060800160405280878780806020026020016040519081016040528093929190818152602001838360200280828437600081840152601f19601f8201169050808301925050505050505081526020018a73ffffffffffffffffffffffffffffffffffffffff168152602001606a60008c73ffffffffffffffffffffffffffffffffffffffff1673ffffffffffffffffffffffffffffffffffffffff1681526020019081526020016000206001018054905063ffffffff1681526020016001151581525060688989604051611e73929190613c91565b90815260200160405180910390206000820151816000019080519060200190611e9d929190612f98565b5060208201518160010160006101000a81548173ffffffffffffffffffffffffffffffffffffffff021916908373ffffffffffffffffffffffffffffffffffffffff16021790555060408201518160010160146101000a81548163ffffffff021916908363ffffffff16021790555060608201518160010160186101000a81548160ff021916908315150217905550905050606a60008a73ffffffffffffffffffffffffffffffffffffffff1673ffffffffffffffffffffffffffffffffffffffff168152602001908152602001600020600101888890918060018154018082558091505060019003906000526020600020016000909192909192909192909192509182611fac92919061419a565b5060005b868690508163ffffffff161015612134576067600088888463ffffffff16818110611fde57611fdd61426a565b5b9050602002016020810190611ff39190613113565b63ffffffff1663ffffffff16815260200190815260200160002060030160089054906101000a900460ff16612054576040517f0f861bc000000000000000000000000000000000000000000000000000000000815260040160405180910390fd5b6107d063ffffffff166067600089898563ffffffff1681811061207a5761207961426a565b5b905060200201602081019061208f9190613113565b63ffffffff1663ffffffff168152602001908152602001600020600301600481819054906101000a900463ffffffff166120c890614299565b91906101000a81548163ffffffff021916908363ffffffff160217905563ffffffff161115612123576040517f6df5ab7600000000000000000000000000000000000000000000000000000000815260040160405180910390fd5b8061212d90614299565b9050611fb0565b50606d600081819054906101000a900463ffffffff1661215390614299565b91906101000a81548163ffffffff021916908363ffffffff160217905550505050505050505050565b6000606a60008373ffffffffffffffffffffffffffffffffffffffff1673ffffffffffffffffffffffffffffffffffffffff16815260200190815260200160002060000160049054906101000a900460ff169050919050565b6121dd612b68565b73ffffffffffffffffffffffffffffffffffffffff166121fb611c3c565b73ffffffffffffffffffffffffffffffffffffffff1614612251576040517f08c379a000000000000000000000000000000000000000000000000000000000815260040161224890613cf6565b60405180910390fd5b600060688383604051612265929190613c91565b9081526020016040518091039020905060005b81600001805490508163ffffffff16101561233b5760676000836000018363ffffffff16815481106122ad576122ac61426a565b5b90600052602060002090600891828204019190066004029054906101000a900463ffffffff1663ffffffff1663ffffffff168152602001908152602001600020600301600481819054906101000a900463ffffffff1661230c906142c5565b91906101000a81548163ffffffff021916908363ffffffff1602179055508061233490614299565b9050612278565b506000606a60008360010160009054906101000a900473ffffffffffffffffffffffffffffffffffffffff1673ffffffffffffffffffffffffffffffffffffffff1673ffffffffffffffffffffffffffffffffffffffff168152602001908152602001600020600101905080600182805490506123b891906142ee565b815481106123c9576123c861426a565b5b90600052602060002001818360010160149054906101000a900463ffffffff1663ffffffff1681548110612400576123ff61426a565b5b906000526020600020019081612416919061434d565b508160010160149054906101000a900463ffffffff166068828460010160149054906101000a900463ffffffff1663ffffffff168154811061245b5761245a61426a565b5b9060005260206000200160405161247291906144b8565b908152602001604051809103902060010160146101000a81548163ffffffff021916908363ffffffff160217905550808054806124b2576124b16144cf565b5b6001900381819060005260206000200160006124ce9190613048565b9055606d600081819054906101000a900463ffffffff166124ee906142c5565b91906101000a81548163ffffffff021916908363ffffffff1602179055506068848460405161251e929190613c91565b90815260200160405180910390206000808201600061253d9190613088565b6001820160006101000a81549073ffffffffffffffffffffffffffffffffffffffff02191690556001820160146101000a81549063ffffffff02191690556001820160186101000a81549060ff0219169055505050505050565b6000606883836040516125ab929190613c91565b908152602001604051809103902060010160009054906101000a900473ffffffffffffffffffffffffffffffffffffffff16905092915050565b6000606760008363ffffffff1663ffffffff16815260200190815260200160002060030160049054906101000a900463ffffffff169050919050565b8282606c60008763ffffffff1663ffffffff168152602001908152602001600020600201918261265292919061419a565b5080606c60008663ffffffff1663ffffffff16815260200190815260200160002060030160006101000a81548173ffffffffffffffffffffffffffffffffffffffff021916908373ffffffffffffffffffffffffffffffffffffffff1602179055506001606c60008663ffffffff1663ffffffff16815260200190815260200160002060030160146101000a81548160ff021916908360038111156126fa576126f9613b0c565b5b021790555050505050565b6002606c60008363ffffffff1663ffffffff16815260200190815260200160002060030160146101000a81548160ff0219169083600381111561274b5761274a613b0c565b5b021790555050565b6000606080600080600080606c60008963ffffffff1663ffffffff16815260200190815260200160002090508060000160009054906101000a900473ffffffffffffffffffffffffffffffffffffffff1681600101826002018360030160009054906101000a900473ffffffffffffffffffffffffffffffffffffffff168460030160149054906101000a900460ff168560030160159054906101000a900460ff168480548060200260200160405190810160405280929190818152602001828054801561286c57602002820191906000526020600020906000905b82829054906101000a900463ffffffff1663ffffffff168152602001906004019060208260030104928301926001038202915080841161282f5790505b5050505050945083805461287f90613c21565b80601f01602080910402602001604051908101604052809291908181526020018280546128ab90613c21565b80156128f85780601f106128cd576101008083540402835291602001916128f8565b820191906000526020600020905b8154815290600101906020018083116128db57829003601f168201915b505050505093509650965096509650965096505091939550919395565b6000606760008363ffffffff1663ffffffff16815260200190815260200160002060020160089054906101000a900473ffffffffffffffffffffffffffffffffffffffff169050919050565b600061296d6001612d48565b90508015612991576001600060016101000a81548160ff0219169083151502179055505b61299a82612e38565b80156129f35760008060016101000a81548160ff0219169083151502179055507f7f26b83ff96e1f2b6a682f133852f6798a09c465da95921460cefb384740249860016040516129ea9190614546565b60405180910390a15b5050565b6129ff612b68565b73ffffffffffffffffffffffffffffffffffffffff16612a1d611c3c565b73ffffffffffffffffffffffffffffffffffffffff1614612a73576040517f08c379a0000000000000000000000000000000000000000000000000000000008152600401612a6a90613cf6565b60405180910390fd5b600073ffffffffffffffffffffffffffffffffffffffff168173ffffffffffffffffffffffffffffffffffffffff1603612ae2576040517f08c379a0000000000000000000000000000000000000000000000000000000008152600401612ad9906145d3565b60405180910390fd5b612aeb81612bc0565b50565b6003606c60008363ffffffff1663ffffffff16815260200190815260200160002060030160146101000a81548160ff02191690836003811115612b3457612b33613b0c565b5b021790555050565b60006298968067ffffffffffffffff168267ffffffffffffffff16612b6191906145f3565b9050919050565b600033905090565b6001816000016000828254019250508190555050565b600081600001549050919050565b80606d60046101000a81548167ffffffffffffffff021916908367ffffffffffffffff16021790555050565b6000603360009054906101000a900473ffffffffffffffffffffffffffffffffffffffff16905081603360006101000a81548173ffffffffffffffffffffffffffffffffffffffff021916908373ffffffffffffffffffffffffffffffffffffffff1602179055508173ffffffffffffffffffffffffffffffffffffffff168173ffffffffffffffffffffffffffffffffffffffff167f8be0079c531659141344cd1fd0a4f28419497f9722a3daafe3b4186f6b6457e060405160405180910390a35050565b60308888905014612cc3576040517f637297a400000000000000000000000000000000000000000000000000000000815260040160405180910390fd5b8383905086869050141580612cde5750818190508686905014155b80612cec5750600486869050105b80612d0757506001600387879050612d049190614664565b14155b15612d3e576040517f9c920ce000000000000000000000000000000000000000000000000000000000815260040160405180910390fd5b5050505050505050565b60008060019054906101000a900460ff1615612dbf5760018260ff16148015612d775750612d7530612ec3565b155b612db6576040517f08c379a0000000000000000000000000000000000000000000000000000000008152600401612dad90614707565b60405180910390fd5b60009050612e33565b8160ff1660008054906101000a900460ff1660ff1610612e14576040517f08c379a0000000000000000000000000000000000000000000000000000000008152600401612e0b90614707565b60405180910390fd5b816000806101000a81548160ff021916908360ff160217905550600190505b919050565b600060019054906101000a900460ff16612e87576040517f08c379a0000000000000000000000000000000000000000000000000000000008152600401612e7e90614799565b60405180910390fd5b612e8f612ee6565b612e97612f47565b80606d60046101000a81548167ffffffffffffffff021916908367ffffffffffffffff16021790555050565b6000808273ffffffffffffffffffffffffffffffffffffffff163b119050919050565b600060019054906101000a900460ff16612f35576040517f08c379a0000000000000000000000000000000000000000000000000000000008152600401612f2c90614799565b60405180910390fd5b612f45612f40612b68565b612bc0565b565b600060019054906101000a900460ff16612f96576040517f08c379a0000000000000000000000000000000000000000000000000000000008152600401612f8d90614799565b60405180910390fd5b565b828054828255906000526020600020906007016008900481019282156130375791602002820160005b8382111561300557835183826101000a81548163ffffffff021916908363ffffffff1602179055509260200192600401602081600301049283019260010302612fc1565b80156130355782816101000a81549063ffffffff0219169055600401602081600301049283019260010302613005565b505b50905061304491906130b0565b5090565b50805461305490613c21565b6000825580601f106130665750613085565b601f01602090049060005260206000209081019061308491906130b0565b5b50565b5080546000825560070160089004906000526020600020908101906130ad91906130b0565b50565b5b808211156130c95760008160009055506001016130b1565b5090565b600080fd5b600080fd5b600063ffffffff82169050919050565b6130f0816130d7565b81146130fb57600080fd5b50565b60008135905061310d816130e7565b92915050565b600060208284031215613129576131286130cd565b5b6000613137848285016130fe565b91505092915050565b600081519050919050565b600082825260208201905092915050565b60005b8381101561317a57808201518184015260208101905061315f565b60008484015250505050565b6000601f19601f8301169050919050565b60006131a282613140565b6131ac818561314b565b93506131bc81856020860161315c565b6131c581613186565b840191505092915050565b600073ffffffffffffffffffffffffffffffffffffffff82169050919050565b60006131fb826131d0565b9050919050565b61320b816131f0565b82525050565b600081519050919050565b600082825260208201905092915050565b600061323882613211565b613242818561321c565b935061325281856020860161315c565b61325b81613186565b840191505092915050565b6000819050919050565b61327981613266565b82525050565b60008115159050919050565b6132948161327f565b82525050565b600060e08201905081810360008301526132b4818a613197565b90506132c36020830189613202565b81810360408301526132d5818861322d565b90506132e46060830187613270565b6132f16080830186613270565b6132fe60a0830185613270565b61330b60c083018461328b565b98975050505050505050565b600080fd5b600080fd5b600080fd5b60008083601f84011261333c5761333b613317565b5b8235905067ffffffffffffffff8111156133595761335861331c565b5b60208301915083600182028301111561337557613374613321565b5b9250929050565b60008060208385031215613393576133926130cd565b5b600083013567ffffffffffffffff8111156133b1576133b06130d2565b5b6133bd85828601613326565b92509250509250929050565b600081519050919050565b600082825260208201905092915050565b6000819050602082019050919050565b6133fe816130d7565b82525050565b600061341083836133f5565b60208301905092915050565b6000602082019050919050565b6000613434826133c9565b61343e81856133d4565b9350613449836133e5565b8060005b8381101561347a5781516134618882613404565b975061346c8361341c565b92505060018101905061344d565b5085935050505092915050565b600060208201905081810360008301526134a18184613429565b905092915050565b6134b2816131f0565b81146134bd57600080fd5b50565b6000813590506134cf816134a9565b92915050565b60008083601f8401126134eb576134ea613317565b5b8235905067ffffffffffffffff8111156135085761350761331c565b5b60208301915083602082028301111561352457613523613321565b5b9250929050565b600080600060408486031215613544576135436130cd565b5b6000613552868287016134c0565b935050602084013567ffffffffffffffff811115613573576135726130d2565b5b61357f868287016134d5565b92509250509250925092565b613594816130d7565b82525050565b60006020820190506135af600083018461358b565b92915050565b6000602082840312156135cb576135ca6130cd565b5b60006135d9848285016134c0565b91505092915050565b600081519050919050565b600082825260208201905092915050565b6000819050602082019050919050565b600082825260208201905092915050565b600061362a82613211565b613634818561360e565b935061364481856020860161315c565b61364d81613186565b840191505092915050565b6000613664838361361f565b905092915050565b6000602082019050919050565b6000613684826135e2565b61368e81856135ed565b9350836020820285016136a0856135fe565b8060005b858110156136dc57848403895281516136bd8582613658565b94506136c88361366c565b925060208a019950506001810190506136a4565b50829750879550505050505092915050565b600060208201905081810360008301526137088184613679565b905092915050565b60008083601f84011261372657613725613317565b5b8235905067ffffffffffffffff8111156137435761374261331c565b5b60208301915083600182028301111561375f5761375e613321565b5b9250929050565b600080600080600060608688031215613782576137816130cd565b5b600086013567ffffffffffffffff8111156137a05761379f6130d2565b5b6137ac88828901613710565b955095505060206137bf888289016134c0565b935050604086013567ffffffffffffffff8111156137e0576137df6130d2565b5b6137ec88828901613326565b92509250509295509295909350565b600067ffffffffffffffff82169050919050565b613818816137fb565b82525050565b6000602082019050613833600083018461380f565b92915050565b613842816137fb565b811461384d57600080fd5b50565b60008135905061385f81613839565b92915050565b60006020828403121561387b5761387a6130cd565b5b600061388984828501613850565b91505092915050565b60006020820190506138a7600083018461328b565b92915050565b600080604083850312156138c4576138c36130cd565b5b60006138d2858286016130fe565b92505060206138e3858286016130fe565b9150509250929050565b60006060820190506139026000830186613202565b8181036020830152613914818561322d565b9050613923604083018461328b565b949350505050565b60006020820190506139406000830184613202565b92915050565b60008083601f84011261395c5761395b613317565b5b8235905067ffffffffffffffff8111156139795761397861331c565b5b60208301915083602082028301111561399557613994613321565b5b9250929050565b600080600080600080600080600060a08a8c0312156139be576139bd6130cd565b5b60006139cc8c828d016134c0565b99505060208a013567ffffffffffffffff8111156139ed576139ec6130d2565b5b6139f98c828d01613326565b985098505060408a013567ffffffffffffffff811115613a1c57613a1b6130d2565b5b613a288c828d016134d5565b965096505060608a013567ffffffffffffffff811115613a4b57613a4a6130d2565b5b613a578c828d01613946565b945094505060808a013567ffffffffffffffff811115613a7a57613a796130d2565b5b613a868c828d01613946565b92509250509295985092959850929598565b60008060008060608587031215613ab257613ab16130cd565b5b6000613ac0878288016130fe565b945050602085013567ffffffffffffffff811115613ae157613ae06130d2565b5b613aed87828801613326565b93509350506040613b00878288016134c0565b91505092959194509250565b7f4e487b7100000000000000000000000000000000000000000000000000000000600052602160045260246000fd5b60048110613b4c57613b4b613b0c565b5b50565b6000819050613b5d82613b3b565b919050565b6000613b6d82613b4f565b9050919050565b613b7d81613b62565b82525050565b600060c082019050613b986000830189613202565b8181036020830152613baa8188613429565b90508181036040830152613bbe818761322d565b9050613bcd6060830186613202565b613bda6080830185613b74565b613be760a083018461328b565b979650505050505050565b7f4e487b7100000000000000000000000000000000000000000000000000000000600052602260045260246000fd5b60006002820490506001821680613c3957607f821691505b602082108103613c4c57613c4b613bf2565b5b50919050565b600081905092915050565b82818337600083830152505050565b6000613c788385613c52565b9350613c85838584613c5d565b82840190509392505050565b6000613c9e828486613c6c565b91508190509392505050565b7f4f776e61626c653a2063616c6c6572206973206e6f7420746865206f776e6572600082015250565b6000613ce060208361314b565b9150613ceb82613caa565b602082019050919050565b60006020820190508181036000830152613d0f81613cd3565b9050919050565b7f4e487b7100000000000000000000000000000000000000000000000000000000600052604160045260246000fd5b60008190508160005260206000209050919050565b60006020601f8301049050919050565b600082821b905092915050565b600060088302613da77fffffffffffffffffffffffffffffffffffffffffffffffffffffffffffffffff82613d6a565b613db18683613d6a565b95508019841693508086168417925050509392505050565b6000819050919050565b6000613dee613de9613de484613266565b613dc9565b613266565b9050919050565b6000819050919050565b613e0883613dd3565b613e1c613e1482613df5565b848454613d77565b825550505050565b600090565b613e31613e24565b613e3c818484613dff565b505050565b5b81811015613e6057613e55600082613e29565b600181019050613e42565b5050565b601f821115613ea557613e7681613d45565b613e7f84613d5a565b81016020851015613e8e578190505b613ea2613e9a85613d5a565b830182613e41565b50505b505050565b600082821c905092915050565b6000613ec860001984600802613eaa565b1980831691505092915050565b6000613ee18383613eb7565b9150826002028217905092915050565b613efa82613211565b67ffffffffffffffff811115613f1357613f12613d16565b5b613f1d8254613c21565b613f28828285613e64565b600060209050601f831160018114613f5b5760008415613f49578287015190505b613f538582613ed5565b865550613fbb565b601f198416613f6986613d45565b60005b82811015613f9157848901518255600182019150602085019450602081019050613f6c565b86831015613fae5784890151613faa601f891682613eb7565b8355505b6001600288020188555050505b505050505050565b60008190508160005260206000209050919050565b601f82111561401957613fea81613fc3565b613ff384613d5a565b81016020851015614002578190505b61401661400e85613d5a565b830182613e41565b50505b505050565b61402782613140565b67ffffffffffffffff8111156140405761403f613d16565b5b61404a8254613c21565b614055828285613fd8565b600060209050601f8311600181146140885760008415614076578287015190505b6140808582613ed5565b8655506140e8565b601f19841661409686613fc3565b60005b828110156140be57848901518255600182019150602085019450602081019050614099565b868310156140db57848901516140d7601f891682613eb7565b8355505b6001600288020188555050505b505050505050565b7f4e487b7100000000000000000000000000000000000000000000000000000000600052601160045260246000fd5b600061412a826130d7565b9150614135836130d7565b9250828203905063ffffffff811115614151576141506140f0565b5b92915050565b6000614162826130d7565b915061416d836130d7565b9250828201905063ffffffff811115614189576141886140f0565b5b92915050565b600082905092915050565b6141a4838361418f565b67ffffffffffffffff8111156141bd576141bc613d16565b5b6141c78254613c21565b6141d2828285613e64565b6000601f83116001811461420157600084156141ef578287013590505b6141f98582613ed5565b865550614261565b601f19841661420f86613d45565b60005b8281101561423757848901358255600182019150602085019450602081019050614212565b868310156142545784890135614250601f891682613eb7565b8355505b6001600288020188555050505b50505050505050565b7f4e487b7100000000000000000000000000000000000000000000000000000000600052603260045260246000fd5b60006142a4826130d7565b915063ffffffff82036142ba576142b96140f0565b5b600182019050919050565b60006142d0826130d7565b9150600082036142e3576142e26140f0565b5b600182039050919050565b60006142f982613266565b915061430483613266565b925082820390508181111561431c5761431b6140f0565b5b92915050565b60008154905061433181613c21565b9050919050565b60008190508160005260206000209050919050565b81810361435b575050614433565b61436482614322565b67ffffffffffffffff81111561437d5761437c613d16565b5b6143878254613c21565b614392828285613e64565b6000601f8311600181146143c157600084156143af578287015490505b6143b98582613ed5565b86555061442c565b601f1984166143cf87614338565b96506143da86613d45565b60005b82811015614402578489015482556001820191506001850194506020810190506143dd565b8683101561441f578489015461441b601f891682613eb7565b8355505b6001600288020188555050505b5050505050505b565b6000815461444281613c21565b61444c8186613c52565b94506001821660008114614467576001811461447c576144af565b60ff19831686528115158202860193506144af565b61448585613d45565b60005b838110156144a757815481890152600182019150602081019050614488565b838801955050505b50505092915050565b60006144c48284614435565b915081905092915050565b7f4e487b7100000000000000000000000000000000000000000000000000000000600052603160045260246000fd5b6000819050919050565b600060ff82169050919050565b600061453061452b614526846144fe565b613dc9565b614508565b9050919050565b61454081614515565b82525050565b600060208201905061455b6000830184614537565b92915050565b7f4f776e61626c653a206e6577206f776e657220697320746865207a65726f206160008201527f6464726573730000000000000000000000000000000000000000000000000000602082015250565b60006145bd60268361314b565b91506145c882614561565b604082019050919050565b600060208201905081810360008301526145ec816145b0565b9050919050565b60006145fe82613266565b915061460983613266565b925082820261461781613266565b9150828204841483151761462e5761462d6140f0565b5b5092915050565b7f4e487b7100000000000000000000000000000000000000000000000000000000600052601260045260246000fd5b600061466f82613266565b915061467a83613266565b92508261468a57614689614635565b5b828206905092915050565b7f496e697469616c697a61626c653a20636f6e747261637420697320616c72656160008201527f647920696e697469616c697a6564000000000000000000000000000000000000602082015250565b60006146f1602e8361314b565b91506146fc82614695565b604082019050919050565b60006020820190508181036000830152614720816146e4565b9050919050565b7f496e697469616c697a61626c653a20636f6e7472616374206973206e6f74206960008201527f6e697469616c697a696e67000000000000000000000000000000000000000000602082015250565b6000614783602b8361314b565b915061478e82614727565b604082019050919050565b600060208201905081810360008301526147b281614776565b905091905056fea2646970667358221220a05de8bcb08995fa6a0efdb0b894ca4ced120f9c2f8d5c685e905704cca17dec64736f6c63430008110033",
  "immutableReferences": {},
  "source": "// File: contracts/SafeStakeRegistry.sol\n// SPDX-License-Identifier: GPL-3.0-or-later\npragma solidity ^0.8.2;\n\nimport \"@openzeppelin/contracts/utils/Counters.sol\";\nimport \"@openzeppelin/contracts-upgradeable/access/OwnableUpgradeable.sol\";\nimport \"./utils/VersionedContract.sol\";\nimport \"./utils/Types.sol\";\nimport \"./ISafeStakeRegistry.sol\";\n\ncontract SafeStakeRegistry is Initializable, OwnableUpgradeable, ISafeStakeRegistry, VersionedContract {\n    using Counters for Counters.Counter;\n    using Types256 for uint256;\n    using Types64 for uint64;\n    \n    struct Operator {\n        string name;\n        bytes publicKey;\n        uint64 fee;\n        address ownerAddress;\n        uint32 score;\n        uint32 indexInOwner;\n        uint32 validatorCount;\n        bool active;\n        bool fromParaStateDao;\n    }\n\n    struct Validator {\n        uint32[] operatorIds;\n        address ownerAddress;\n        uint32 indexInOwner;\n        bool active;\n    }\n\n    struct OwnerData {\n        uint32 activeValidatorCount;\n        bool validatorsDisabled;\n        bytes[] validators;\n    }\n\n    struct Initializer {\n        address ownerAddress;\n        uint32[] operatorIds;\n        bytes validatorPublicKey;\n        address miniPoolAddress;\n        InitializerStatus status;\n        bool active;\n    }\n\n    Counters.Counter private _lastOperatorId;\n    Counters.Counter private _lastInitializerId;\n\n    mapping(uint32 => Operator) private _operators;\n    mapping(bytes => Validator) private _validators;\n    mapping(address => uint32[]) private _operatorsByOwnerAddress;\n    mapping(address => OwnerData) private _owners;\n    mapping(address => uint32[]) private _initializersByOwnerAddress;\n    mapping(uint32 => Initializer) private _initializers;\n\n    uint32 private _activeValidatorCount;\n\n    uint32 constant private VALIDATORS_PER_OPERATOR_LIMIT = 2000;\n    uint32 constant private REGISTERED_OPERATORS_PER_ACCOUNT_LIMIT = 10;\n\n    uint64 private _operatorFee;\n    /**\n     * @dev See {ISafeStakeRegistry-initialize}.\n     */\n    function initialize(uint64 operatorFee) external override initializer {\n        __SafeStakeRegistry_init(operatorFee);\n    }\n\n    function __SafeStakeRegistry_init(uint64 operatorFee) internal onlyInitializing {\n        __Ownable_init_unchained();\n        __SafeStakeRegistry_init_unchained();\n        _operatorFee = operatorFee;\n    }\n\n    function __SafeStakeRegistry_init_unchained() internal onlyInitializing {\n    }\n\n    /**\n     * @dev See {ISafeStakeRegistry-registerOperator}.\n     */\n    function registerOperator(\n        string calldata name,\n        address ownerAddress,\n        bytes calldata publicKey\n    ) external onlyOwner override returns (uint32 operatorId) {\n\n        if (_operatorsByOwnerAddress[ownerAddress].length >= REGISTERED_OPERATORS_PER_ACCOUNT_LIMIT) {\n            revert ExceedRegisteredOperatorsByAccountLimit();\n        }\n\n        _lastOperatorId.increment();\n        operatorId = uint32(_lastOperatorId.current());\n        _operators[operatorId] = Operator({name: name, ownerAddress: ownerAddress, publicKey: publicKey, score: 0, fee: 0, active: true, indexInOwner: uint32(_operatorsByOwnerAddress[ownerAddress].length), validatorCount: 0, fromParaStateDao: false});\n        _operatorsByOwnerAddress[ownerAddress].push(operatorId);\n    }\n\n    /**\n     * @dev See {ISafeStakeRegistry-removeOperator}.\n     */\n    function removeOperator(\n        uint32 operatorId\n    ) external onlyOwner override {\n        Operator storage operator = _operators[operatorId];\n\n        if (!operator.active) {\n            revert OperatorDeleted();\n        }\n\n        operator.active = false;\n    }\n\n    /**\n     * @dev See {ISafeStakeRegistry-certifyOperatorFromDao}.\n     */\n    function certifyOperatorFromDao(uint32 operatorId) external onlyOwner override {\n        Operator storage operator = _operators[operatorId];\n        if (!operator.active) {\n            revert OperatorDeleted();\n        }\n\n        operator.fromParaStateDao = true;\n    }\n\n    /**\n     * @dev See {ISafeStakeRegistry-updateOperatorFee}.\n     */\n    function updateOperatorFee(uint64 fee) external onlyOwner override {\n        _updateOperatorFeeUnsafe(fee);\n    }\n\n    /**\n     * @dev See {ISafeStakeRegistry-updateOperatorScore}.\n     */\n    function updateOperatorScore(uint32 operatorId, uint32 score) external onlyOwner override {\n        Operator storage operator = _operators[operatorId];\n        operator.score = score;\n    }\n\n    /**\n     * @dev See {ISafeStakeRegistry-registerValidator}.\n     */\n    function registerValidator(\n        address ownerAddress,\n        bytes calldata publicKey,\n        uint32[] calldata operatorIds,\n        bytes[] calldata sharesPublicKeys,\n        bytes[] calldata sharesEncrypted\n    ) external onlyOwner override {\n        _validateValidatorParams(\n            publicKey,\n            operatorIds,\n            sharesPublicKeys,\n            sharesEncrypted\n        );\n\n        if (_validators[publicKey].ownerAddress != address(0)) {\n            revert ValidatorAlreadyExists();\n        }\n\n        _validators[publicKey] = Validator({\n            operatorIds: operatorIds,\n            ownerAddress: ownerAddress,\n            indexInOwner: uint32(_owners[ownerAddress].validators.length),\n            active: true\n        });\n\n        _owners[ownerAddress].validators.push(publicKey);\n\n        for (uint32 index = 0; index < operatorIds.length; ++index) {\n            if (!_operators[operatorIds[index]].active) {\n                revert OperatorDeleted();\n            }\n\n            if (++_operators[operatorIds[index]].validatorCount > VALIDATORS_PER_OPERATOR_LIMIT) {\n                revert ExceedValidatorLimit();\n            }\n        }\n        ++_activeValidatorCount;\n    }\n\n    /**\n     * @dev See {ISafeStakeRegistry-removeValidator}.\n     */\n    function removeValidator(\n        bytes calldata publicKey\n    ) external onlyOwner override {\n        Validator storage validator = _validators[publicKey];\n\n        for (uint32 index = 0; index < validator.operatorIds.length; ++index) {\n            --_operators[validator.operatorIds[index]].validatorCount;\n        }\n\n        bytes[] storage ownerValidators = _owners[validator.ownerAddress].validators;\n\n        ownerValidators[validator.indexInOwner] = ownerValidators[ownerValidators.length - 1];\n        _validators[ownerValidators[validator.indexInOwner]].indexInOwner = validator.indexInOwner;\n        ownerValidators.pop();\n\n        --_activeValidatorCount;\n\n        delete _validators[publicKey];\n    }\n\n    /**\n     * @dev See {ISafeStakeRegistry-registerInitializer}.\n     */\n    function registerInitializer(\n        address ownerAddress, \n        uint32[] calldata operatorIds\n    ) external onlyOwner override returns (uint32 initializerId) {\n        _lastInitializerId.increment();\n        initializerId = uint32(_lastInitializerId.current());\n        _initializers[initializerId] = Initializer({\n            ownerAddress: ownerAddress,\n            operatorIds: operatorIds,\n            validatorPublicKey: new bytes(0),\n            miniPoolAddress: address(0),\n            status: InitializerStatus.INITIALIZING,\n            active: true\n        });\n        _initializersByOwnerAddress[ownerAddress].push(initializerId);\n    }\n\n    function enableOwnerValidators(address ownerAddress) external onlyOwner override {\n        _activeValidatorCount += _owners[ownerAddress].activeValidatorCount;\n        _owners[ownerAddress].validatorsDisabled = false;\n    }\n\n    function disableOwnerValidators(address ownerAddress) external onlyOwner override {\n        _activeValidatorCount -= _owners[ownerAddress].activeValidatorCount;\n        _owners[ownerAddress].validatorsDisabled = true;\n    }\n\n    function isLiquidated(address ownerAddress) external view override returns (bool) {\n        return _owners[ownerAddress].validatorsDisabled;\n    }\n\n    /**\n     * @dev See {ISafeStakeRegistry-operators}.\n     */\n    function getOperatorById(uint32 operatorId) external view override returns (string memory, address, bytes memory, uint256, uint256, uint256, bool) {\n        Operator storage operator = _operators[operatorId];\n        return (operator.name, operator.ownerAddress, operator.publicKey, _operators[operatorId].validatorCount, operator.fee.expand(), operator.score, operator.active);\n    }\n\n    /**\n     * @dev See {ISafeStakeRegistry-getOperatorsByOwnerAddress}.\n     */\n    function getOperatorsByOwnerAddress(address ownerAddress) external view override returns (uint32[] memory) {\n        return _operatorsByOwnerAddress[ownerAddress];\n    }\n\n    /**\n     * @dev See {ISafeStakeRegistry-getOperatorsByValidator}.\n     */\n    function getOperatorsByValidator(bytes calldata validatorPublicKey) external view override returns (uint32[] memory operatorIds) {\n        Validator storage validator = _validators[validatorPublicKey];\n\n        return validator.operatorIds;\n    }\n\n    /**\n     * @dev See {ISafeStakeRegistry-getOperatorOwner}.\n     */\n    function getOperatorOwner(uint32 operatorId) external view override returns (address) {\n        return _operators[operatorId].ownerAddress;\n    }\n\n    /**\n     * @dev See {ISafeStakeRegistry-getOperatorFee}.\n     */\n    function getOperatorFee() external view override returns (uint64) {\n        return _operatorFee;\n    }\n\n    /**\n     * @dev See {ISafeStakeRegistry-activeValidatorCount}.\n     */\n    function activeValidatorCount() external view override returns (uint32) {\n        return _activeValidatorCount;\n    }\n\n    /**\n     * @dev See {ISafeStakeRegistry-validators}.\n     */\n    function validators(bytes calldata publicKey) external view override returns (address, bytes memory, bool) {\n        Validator storage validator = _validators[publicKey];\n\n        return (validator.ownerAddress, publicKey, validator.active);\n    }\n\n    /**\n     * @dev See {ISafeStakeRegistry-getValidatorsByAddress}.\n     */\n    function getValidatorsByAddress(address ownerAddress) external view override returns (bytes[] memory) {\n        return _owners[ownerAddress].validators;\n    }\n\n    /**\n     * @dev See {ISafeStakeRegistry-getValidatorOwner}.\n     */\n    function getValidatorOwner(bytes calldata publicKey) external view override returns (address) {\n        return _validators[publicKey].ownerAddress;\n    }\n\n    /**\n     * @dev See {ISafeStakeRegistry-validatorsPerOperatorCount}.\n     */\n    function validatorsPerOperatorCount(uint32 operatorId) external view override returns (uint32) {\n        return _operators[operatorId].validatorCount;\n    }\n\n    /**\n     * @dev See {ISafeStakeRegistry-updateOperatorFee}.\n     */\n    function _updateOperatorFeeUnsafe(uint64 fee) private {\n        _operatorFee = fee;\n    }\n\n    /**\n     * @dev Validates the paramss for a validator.\n     * @param publicKey Validator public key.\n     * @param operatorIds Operator operatorIds.\n     * @param sharesPublicKeys Shares public keys.\n     * @param encryptedKeys Encrypted private keys.\n     */\n    function _validateValidatorParams(\n        bytes calldata publicKey,\n        uint32[] calldata operatorIds,\n        bytes[] calldata sharesPublicKeys,\n        bytes[] calldata encryptedKeys\n    ) private pure {\n        if (publicKey.length != 48) {\n            revert InvalidPublicKeyLength();\n        }\n        if (\n            operatorIds.length != sharesPublicKeys.length ||\n            operatorIds.length != encryptedKeys.length ||\n            operatorIds.length < 4 || operatorIds.length % 3 != 1\n        ) {\n            revert OessDataStructureInvalid();\n        }\n    }\n\n    function version() external pure override returns (uint32) {\n        return 1;\n    }\n\n    /**\n     * @dev See {ISafeStakeRegistry-ifOperatorFromParaStateDao}.\n     */\n    function ifOperatorFromParaStateDao(uint32 operatorId) external view override returns (bool) {\n        return _operators[operatorId].fromParaStateDao;\n    }\n\n    /**\n     * @dev See {ISafeStakeRegistry-updateOperatorFee}.\n     */\n    function getInitializerById(uint32 initializerId) external view override returns (address ownerAddress, uint32[] memory operatorIds, bytes memory validatorPublicKey, address minipoolAddress, InitializerStatus status, bool active) {\n        Initializer storage initializer =  _initializers[initializerId];\n        return (initializer.ownerAddress, initializer.operatorIds, initializer.validatorPublicKey, initializer.miniPoolAddress, initializer.status, initializer.active);\n    }\n\n    /**\n     * @dev See {ISafeStakeRegistry-initializerPreStatke}.\n     */\n    function initializerPreStatke(\n        uint32 initializerId,\n        bytes calldata validatorPublicKey,\n        address miniPoolAddress\n    ) external override {\n        _initializers[initializerId].validatorPublicKey = validatorPublicKey;\n        _initializers[initializerId].miniPoolAddress = miniPoolAddress;\n        _initializers[initializerId].status = InitializerStatus.WAITING;\n    }\n\n    function initializerReady(\n        uint32 initializerId\n    ) external override {\n        _initializers[initializerId].status = InitializerStatus.READY;\n    }\n\n    function initializerStake(\n        uint32 initializerId\n    ) external override {\n        _initializers[initializerId].status = InitializerStatus.FINISHED;\n    }\n\n    function getInitializerOwner(uint32 initializerId) external view override returns (address ownerAddress) {\n        return _initializers[initializerId].ownerAddress;\n    }\n\n    function getInitalizerByOwner(address ownerAddress) external view override returns (uint32[] memory initializerIds) {\n        return _initializersByOwnerAddress[ownerAddress];\n    }\n\n    uint256[50] ______gap;\n}\n",
  "sourcePath": "/Users/jiangjianlin/Github/safestake-tokenomics/contracts/SafeStakeRegistry.sol",
  "compiler": {
    "name": "solc",
    "version": "0.8.17+commit.8df45f5f.Emscripten.clang"
  },
  "schemaVersion": "3.4.10",
  "updatedAt": "2022-11-25T13:50:27.075Z",
  "networkType": "ethereum",
  "devdoc": {
    "kind": "dev",
    "methods": {
      "activeValidatorCount()": {
        "details": "See {ISafeStakeRegistry-activeValidatorCount}."
      },
      "certifyOperatorFromDao(uint32)": {
        "details": "See {ISafeStakeRegistry-certifyOperatorFromDao}."
      },
      "getInitializerById(uint32)": {
        "details": "See {ISafeStakeRegistry-updateOperatorFee}."
      },
      "getOperatorById(uint32)": {
        "details": "See {ISafeStakeRegistry-operators}."
      },
      "getOperatorFee()": {
        "details": "See {ISafeStakeRegistry-getOperatorFee}."
      },
      "getOperatorOwner(uint32)": {
        "details": "See {ISafeStakeRegistry-getOperatorOwner}."
      },
      "getOperatorsByOwnerAddress(address)": {
        "details": "See {ISafeStakeRegistry-getOperatorsByOwnerAddress}."
      },
      "getOperatorsByValidator(bytes)": {
        "details": "See {ISafeStakeRegistry-getOperatorsByValidator}."
      },
      "getValidatorOwner(bytes)": {
        "details": "See {ISafeStakeRegistry-getValidatorOwner}."
      },
      "getValidatorsByAddress(address)": {
        "details": "See {ISafeStakeRegistry-getValidatorsByAddress}."
      },
      "ifOperatorFromParaStateDao(uint32)": {
        "details": "See {ISafeStakeRegistry-ifOperatorFromParaStateDao}."
      },
      "initialize(uint64)": {
        "details": "See {ISafeStakeRegistry-initialize}."
      },
      "initializerPreStatke(uint32,bytes,address)": {
        "details": "See {ISafeStakeRegistry-initializerPreStatke}."
      },
      "owner()": {
        "details": "Returns the address of the current owner."
      },
      "registerInitializer(address,uint32[])": {
        "details": "See {ISafeStakeRegistry-registerInitializer}."
      },
      "registerOperator(string,address,bytes)": {
        "details": "See {ISafeStakeRegistry-registerOperator}."
      },
      "registerValidator(address,bytes,uint32[],bytes[],bytes[])": {
        "details": "See {ISafeStakeRegistry-registerValidator}."
      },
      "removeOperator(uint32)": {
        "details": "See {ISafeStakeRegistry-removeOperator}."
      },
      "removeValidator(bytes)": {
        "details": "See {ISafeStakeRegistry-removeValidator}."
      },
      "renounceOwnership()": {
        "details": "Leaves the contract without owner. It will not be possible to call `onlyOwner` functions anymore. Can only be called by the current owner. NOTE: Renouncing ownership will leave the contract without an owner, thereby removing any functionality that is only available to the owner."
      },
      "transferOwnership(address)": {
        "details": "Transfers ownership of the contract to a new account (`newOwner`). Can only be called by the current owner."
      },
      "updateOperatorFee(uint64)": {
        "details": "See {ISafeStakeRegistry-updateOperatorFee}."
      },
      "updateOperatorScore(uint32,uint32)": {
        "details": "See {ISafeStakeRegistry-updateOperatorScore}."
      },
      "validators(bytes)": {
        "details": "See {ISafeStakeRegistry-validators}."
      },
      "validatorsPerOperatorCount(uint32)": {
        "details": "See {ISafeStakeRegistry-validatorsPerOperatorCount}."
      }
    },
    "version": 1
  },
  "userdoc": {
    "errors": {
      "ExceedRegisteredOperatorsByAccountLimit()": [
        {
          "notice": "errors "
        }
      ]
    },
    "kind": "user",
    "methods": {},
    "version": 1
  },
  "db": {
    "callBytecode": {
      "id": "0x9983bf35a0553b9adf5c02adc4f2aebe8c6bde39649e64651af7ae39cc7a8ab3"
    },
    "createBytecode": {
      "id": "0x1cf60d2559208861a5fcea0e0cef0285d297a649618355dea16dfafc7e4cb40d"
    },
    "contract": {
      "id": "0x62be0d044aadf930c31d906f74cfe175417054f05956035455e5e801a888fae3"
    }
  }
}