{
  "contractName": "SafeStakeRegistry",
  "abi": [
    {
      "inputs": [],
      "name": "ExceedRegisteredOperatorsByAccountLimit",
      "type": "error"
    },
    {
      "inputs": [],
      "name": "ExceedValidatorLimit",
      "type": "error"
    },
    {
      "inputs": [],
      "name": "InvalidPublicKeyLength",
      "type": "error"
    },
    {
      "inputs": [],
      "name": "NoEnoughParaStateDaoOperator",
      "type": "error"
    },
    {
      "inputs": [],
      "name": "OessDataStructureInvalid",
      "type": "error"
    },
    {
      "inputs": [],
      "name": "OperatorDeleted",
      "type": "error"
    },
    {
      "inputs": [],
      "name": "OperatorNotFound",
      "type": "error"
    },
    {
      "inputs": [],
      "name": "ValidatorAlreadyExists",
      "type": "error"
    },
    {
      "anonymous": false,
      "inputs": [
        {
          "indexed": false,
          "internalType": "uint8",
          "name": "version",
          "type": "uint8"
        }
      ],
      "name": "Initialized",
      "type": "event"
    },
    {
      "anonymous": false,
      "inputs": [
        {
          "indexed": true,
          "internalType": "address",
          "name": "previousOwner",
          "type": "address"
        },
        {
          "indexed": true,
          "internalType": "address",
          "name": "newOwner",
          "type": "address"
        }
      ],
      "name": "OwnershipTransferred",
      "type": "event"
    },
    {
      "inputs": [],
      "name": "owner",
      "outputs": [
        {
          "internalType": "address",
          "name": "",
          "type": "address"
        }
      ],
      "stateMutability": "view",
      "type": "function",
      "constant": true
    },
    {
      "inputs": [],
      "name": "renounceOwnership",
      "outputs": [],
      "stateMutability": "nonpayable",
      "type": "function"
    },
    {
      "inputs": [
        {
          "internalType": "address",
          "name": "newOwner",
          "type": "address"
        }
      ],
      "name": "transferOwnership",
      "outputs": [],
      "stateMutability": "nonpayable",
      "type": "function"
    },
    {
      "inputs": [
        {
          "internalType": "uint256",
          "name": "operatorFee",
          "type": "uint256"
        }
      ],
      "name": "initialize",
      "outputs": [],
      "stateMutability": "nonpayable",
      "type": "function"
    },
    {
      "inputs": [
        {
          "internalType": "string",
          "name": "name",
          "type": "string"
        },
        {
          "internalType": "address",
          "name": "ownerAddress",
          "type": "address"
        },
        {
          "internalType": "bytes",
          "name": "publicKey",
          "type": "bytes"
        }
      ],
      "name": "registerOperator",
      "outputs": [
        {
          "internalType": "uint32",
          "name": "operatorId",
          "type": "uint32"
        }
      ],
      "stateMutability": "nonpayable",
      "type": "function"
    },
    {
      "inputs": [
        {
          "internalType": "uint32",
          "name": "operatorId",
          "type": "uint32"
        }
      ],
      "name": "removeOperator",
      "outputs": [],
      "stateMutability": "nonpayable",
      "type": "function"
    },
    {
      "inputs": [
        {
          "internalType": "uint32",
          "name": "operatorId",
          "type": "uint32"
        }
      ],
      "name": "certifyOperatorFromDao",
      "outputs": [],
      "stateMutability": "nonpayable",
      "type": "function"
    },
    {
      "inputs": [
        {
          "internalType": "uint64",
          "name": "fee",
          "type": "uint64"
        }
      ],
      "name": "updateOperatorFee",
      "outputs": [],
      "stateMutability": "nonpayable",
      "type": "function"
    },
    {
      "inputs": [
        {
          "internalType": "uint32",
          "name": "operatorId",
          "type": "uint32"
        },
        {
          "internalType": "uint32",
          "name": "score",
          "type": "uint32"
        }
      ],
      "name": "updateOperatorScore",
      "outputs": [],
      "stateMutability": "nonpayable",
      "type": "function"
    },
    {
      "inputs": [
        {
          "internalType": "address",
          "name": "ownerAddress",
          "type": "address"
        },
        {
          "internalType": "bytes",
          "name": "publicKey",
          "type": "bytes"
        },
        {
          "internalType": "uint32[]",
          "name": "operatorIds",
          "type": "uint32[]"
        },
        {
          "internalType": "bytes[]",
          "name": "sharesPublicKeys",
          "type": "bytes[]"
        },
        {
          "internalType": "bytes[]",
          "name": "sharesEncrypted",
          "type": "bytes[]"
        }
      ],
      "name": "registerValidator",
      "outputs": [],
      "stateMutability": "nonpayable",
      "type": "function"
    },
    {
      "inputs": [
        {
          "internalType": "bytes",
          "name": "publicKey",
          "type": "bytes"
        }
      ],
      "name": "removeValidator",
      "outputs": [],
      "stateMutability": "nonpayable",
      "type": "function"
    },
    {
      "inputs": [
        {
          "internalType": "address",
          "name": "ownerAddress",
          "type": "address"
        }
      ],
      "name": "enableOwnerValidators",
      "outputs": [],
      "stateMutability": "nonpayable",
      "type": "function"
    },
    {
      "inputs": [
        {
          "internalType": "address",
          "name": "ownerAddress",
          "type": "address"
        }
      ],
      "name": "disableOwnerValidators",
      "outputs": [],
      "stateMutability": "nonpayable",
      "type": "function"
    },
    {
      "inputs": [
        {
          "internalType": "address",
          "name": "ownerAddress",
          "type": "address"
        }
      ],
      "name": "isLiquidated",
      "outputs": [
        {
          "internalType": "bool",
          "name": "",
          "type": "bool"
        }
      ],
      "stateMutability": "view",
      "type": "function",
      "constant": true
    },
    {
      "inputs": [
        {
          "internalType": "uint32",
          "name": "operatorId",
          "type": "uint32"
        }
      ],
      "name": "getOperatorById",
      "outputs": [
        {
          "internalType": "string",
          "name": "",
          "type": "string"
        },
        {
          "internalType": "address",
          "name": "",
          "type": "address"
        },
        {
          "internalType": "bytes",
          "name": "",
          "type": "bytes"
        },
        {
          "internalType": "uint256",
          "name": "",
          "type": "uint256"
        },
        {
          "internalType": "uint256",
          "name": "",
          "type": "uint256"
        },
        {
          "internalType": "uint256",
          "name": "",
          "type": "uint256"
        },
        {
          "internalType": "bool",
          "name": "",
          "type": "bool"
        }
      ],
      "stateMutability": "view",
      "type": "function",
      "constant": true
    },
    {
      "inputs": [
        {
          "internalType": "address",
          "name": "ownerAddress",
          "type": "address"
        }
      ],
      "name": "getOperatorsByOwnerAddress",
      "outputs": [
        {
          "internalType": "uint32[]",
          "name": "",
          "type": "uint32[]"
        }
      ],
      "stateMutability": "view",
      "type": "function",
      "constant": true
    },
    {
      "inputs": [
        {
          "internalType": "bytes",
          "name": "validatorPublicKey",
          "type": "bytes"
        }
      ],
      "name": "getOperatorsByValidator",
      "outputs": [
        {
          "internalType": "uint32[]",
          "name": "operatorIds",
          "type": "uint32[]"
        }
      ],
      "stateMutability": "view",
      "type": "function",
      "constant": true
    },
    {
      "inputs": [
        {
          "internalType": "uint32",
          "name": "operatorId",
          "type": "uint32"
        }
      ],
      "name": "getOperatorOwner",
      "outputs": [
        {
          "internalType": "address",
          "name": "",
          "type": "address"
        }
      ],
      "stateMutability": "view",
      "type": "function",
      "constant": true
    },
    {
      "inputs": [],
      "name": "getOperatorFee",
      "outputs": [
        {
          "internalType": "uint256",
          "name": "",
          "type": "uint256"
        }
      ],
      "stateMutability": "view",
      "type": "function",
      "constant": true
    },
    {
      "inputs": [],
      "name": "activeValidatorCount",
      "outputs": [
        {
          "internalType": "uint32",
          "name": "",
          "type": "uint32"
        }
      ],
      "stateMutability": "view",
      "type": "function",
      "constant": true
    },
    {
      "inputs": [
        {
          "internalType": "bytes",
          "name": "publicKey",
          "type": "bytes"
        }
      ],
      "name": "validators",
      "outputs": [
        {
          "internalType": "address",
          "name": "",
          "type": "address"
        },
        {
          "internalType": "bytes",
          "name": "",
          "type": "bytes"
        },
        {
          "internalType": "bool",
          "name": "",
          "type": "bool"
        }
      ],
      "stateMutability": "view",
      "type": "function",
      "constant": true
    },
    {
      "inputs": [
        {
          "internalType": "address",
          "name": "ownerAddress",
          "type": "address"
        }
      ],
      "name": "getValidatorsByAddress",
      "outputs": [
        {
          "internalType": "bytes[]",
          "name": "",
          "type": "bytes[]"
        }
      ],
      "stateMutability": "view",
      "type": "function",
      "constant": true
    },
    {
      "inputs": [
        {
          "internalType": "bytes",
          "name": "publicKey",
          "type": "bytes"
        }
      ],
      "name": "getValidatorOwner",
      "outputs": [
        {
          "internalType": "address",
          "name": "",
          "type": "address"
        }
      ],
      "stateMutability": "view",
      "type": "function",
      "constant": true
    },
    {
      "inputs": [
        {
          "internalType": "uint32",
          "name": "operatorId",
          "type": "uint32"
        }
      ],
      "name": "validatorsPerOperatorCount",
      "outputs": [
        {
          "internalType": "uint32",
          "name": "",
          "type": "uint32"
        }
      ],
      "stateMutability": "view",
      "type": "function",
      "constant": true
    },
    {
      "inputs": [],
      "name": "version",
      "outputs": [
        {
          "internalType": "uint32",
          "name": "",
          "type": "uint32"
        }
      ],
      "stateMutability": "pure",
      "type": "function",
      "constant": true
    },
    {
      "inputs": [
        {
          "internalType": "uint32[]",
          "name": "operatorIds",
          "type": "uint32[]"
        }
      ],
      "name": "ifEnoughOperatorsFromParaStateDao",
      "outputs": [
        {
          "internalType": "bool",
          "name": "",
          "type": "bool"
        }
      ],
      "stateMutability": "view",
      "type": "function",
      "constant": true
    }
  ],
  "bytecode": "0x608060405234801561001057600080fd5b50613df3806100206000396000f3fe608060405234801561001057600080fd5b506004361061018e5760003560e01c80635f10ac30116100de578063b2f569c511610097578063e7b2174811610071578063e7b21748146104ad578063f2fde38b146104dd578063faa64552146104f9578063fe4b84df146105295761018e565b8063b2f569c514610431578063c87b30381461044d578063d379a5f21461047d5761018e565b80635f10ac301461036f5780636c36511a1461038b578063715018a6146103bd5780638da5cb5b146103c75780639b4ddb5d146103e5578063a3b3f606146104015761018e565b806327467a181161014b57806341d2c0cd1161012557806341d2c0cd146102fd57806345413bf414610319578063459e8b411461033557806354fd4d50146103515761018e565b806327467a18146102a757806328696608146102c35780632e1d2f05146102e15761018e565b80630260d44314610193578063053e8349146101c95780630dc1eeff146101f95780630e32066a146102295780631940d387146102595780632340e8d314610289575b600080fd5b6101ad60048036038101906101a89190612811565b610545565b6040516101c09796959493929190612998565b60405180910390f35b6101e360048036038101906101de9190612a7a565b61076a565b6040516101f09190612b85565b60405180910390f35b610213600480360381019061020e9190612bd3565b610818565b6040516102209190612b85565b60405180910390f35b610243600480360381019061023e9190612bd3565b6108db565b6040516102509190612d0c565b60405180910390f35b610273600480360381019061026e9190612d84565b6109f6565b6040516102809190612e28565b60405180910390f35b610291610e5f565b60405161029e9190612e28565b60405180910390f35b6102c160048036038101906102bc9190612bd3565b610e79565b005b6102cb610fe4565b6040516102d89190612e43565b60405180910390f35b6102fb60048036038101906102f69190612811565b610fee565b005b61031760048036038101906103129190612e9e565b6110f6565b005b610333600480360381019061032e9190612bd3565b61117e565b005b61034f600480360381019061034a9190612811565b6112e9565b005b6103596113f1565b6040516103669190612e28565b60405180910390f35b61038960048036038101906103849190612ecb565b6113fa565b005b6103a560048036038101906103a09190612a7a565b6114c1565b6040516103b493929190612f0b565b60405180910390f35b6103c561157b565b005b6103cf611603565b6040516103dc9190612f49565b60405180910390f35b6103ff60048036038101906103fa9190613010565b61162d565b005b61041b60048036038101906104169190612bd3565b611b43565b604051610428919061310c565b60405180910390f35b61044b60048036038101906104469190612a7a565b611b9c565b005b61046760048036038101906104629190612a7a565b611f5e565b6040516104749190612f49565b60405180910390f35b61049760048036038101906104929190612811565b611fac565b6040516104a49190612e28565b60405180910390f35b6104c760048036038101906104c29190612811565b611fe8565b6040516104d49190612f49565b60405180910390f35b6104f760048036038101906104f29190612bd3565b612034565b005b610513600480360381019061050e9190613127565b61212b565b604051610520919061310c565b60405180910390f35b610543600480360381019061053e91906131a0565b6121de565b005b6060600060606000806000806000606660008a63ffffffff1663ffffffff1681526020019081526020016000209050806000018160020160089054906101000a900473ffffffffffffffffffffffffffffffffffffffff1682600101606660008d63ffffffff1663ffffffff16815260200190815260200160002060030160049054906101000a900463ffffffff166105ff8560020160009054906101000a900467ffffffffffffffff1667ffffffffffffffff16612274565b85600201601c9054906101000a900463ffffffff168660030160089054906101000a900460ff16868054610632906131fc565b80601f016020809104026020016040519081016040528092919081815260200182805461065e906131fc565b80156106ab5780601f10610680576101008083540402835291602001916106ab565b820191906000526020600020905b81548152906001019060200180831161068e57829003601f168201915b505050505096508480546106be906131fc565b80601f01602080910402602001604051908101604052809291908181526020018280546106ea906131fc565b80156107375780601f1061070c57610100808354040283529160200191610737565b820191906000526020600020905b81548152906001019060200180831161071a57829003601f168201915b505050505094508363ffffffff1693508163ffffffff169150975097509750975097509750975050919395979092949650565b606060006067848460405161078092919061326c565b908152602001604051809103902090508060000180548060200260200160405190810160405280929190818152602001828054801561080a57602002820191906000526020600020906000905b82829054906101000a900463ffffffff1663ffffffff16815260200190600401906020826003010492830192600103820291508084116107cd5790505b505050505091505092915050565b6060606860008373ffffffffffffffffffffffffffffffffffffffff1673ffffffffffffffffffffffffffffffffffffffff1681526020019081526020016000208054806020026020016040519081016040528092919081815260200182805480156108cf57602002820191906000526020600020906000905b82829054906101000a900463ffffffff1663ffffffff16815260200190600401906020826003010492830192600103820291508084116108925790505b50505050509050919050565b6060606960008373ffffffffffffffffffffffffffffffffffffffff1673ffffffffffffffffffffffffffffffffffffffff168152602001908152602001600020600101805480602002602001604051908101604052809291908181526020016000905b828210156109eb57838290600052602060002001805461095e906131fc565b80601f016020809104026020016040519081016040528092919081815260200182805461098a906131fc565b80156109d75780601f106109ac576101008083540402835291602001916109d7565b820191906000526020600020905b8154815290600101906020018083116109ba57829003601f168201915b50505050508152602001906001019061093f565b505050509050919050565b6000610a006122a0565b73ffffffffffffffffffffffffffffffffffffffff16610a1e611603565b73ffffffffffffffffffffffffffffffffffffffff1614610a74576040517f08c379a0000000000000000000000000000000000000000000000000000000008152600401610a6b906132d1565b60405180910390fd5b600a63ffffffff16606860008673ffffffffffffffffffffffffffffffffffffffff1673ffffffffffffffffffffffffffffffffffffffff1681526020019081526020016000208054905010610af6576040517f69765c9500000000000000000000000000000000000000000000000000000000815260040160405180910390fd5b610b0060656122a8565b610b0a60656122be565b905060405180610120016040528087878080601f016020809104026020016040519081016040528093929190818152602001838380828437600081840152601f19601f82011690508083019250505050505050815260200184848080601f016020809104026020016040519081016040528093929190818152602001838380828437600081840152601f19601f820116905080830192505050505050508152602001600067ffffffffffffffff1681526020018573ffffffffffffffffffffffffffffffffffffffff168152602001600063ffffffff168152602001606860008773ffffffffffffffffffffffffffffffffffffffff1673ffffffffffffffffffffffffffffffffffffffff1681526020019081526020016000208054905063ffffffff168152602001600063ffffffff16815260200160011515815260200160001515815250606660008363ffffffff1663ffffffff1681526020019081526020016000206000820151816000019081610c8591906134cc565b506020820151816001019081610c9b91906135f9565b5060408201518160020160006101000a81548167ffffffffffffffff021916908367ffffffffffffffff16021790555060608201518160020160086101000a81548173ffffffffffffffffffffffffffffffffffffffff021916908373ffffffffffffffffffffffffffffffffffffffff160217905550608082015181600201601c6101000a81548163ffffffff021916908363ffffffff16021790555060a08201518160030160006101000a81548163ffffffff021916908363ffffffff16021790555060c08201518160030160046101000a81548163ffffffff021916908363ffffffff16021790555060e08201518160030160086101000a81548160ff0219169083151502179055506101008201518160030160096101000a81548160ff021916908315150217905550905050606860008573ffffffffffffffffffffffffffffffffffffffff1673ffffffffffffffffffffffffffffffffffffffff1681526020019081526020016000208190806001815401808255809150506001900390600052602060002090600891828204019190066004029091909190916101000a81548163ffffffff021916908363ffffffff16021790555095945050505050565b6000606a60009054906101000a900463ffffffff16905090565b610e816122a0565b73ffffffffffffffffffffffffffffffffffffffff16610e9f611603565b73ffffffffffffffffffffffffffffffffffffffff1614610ef5576040517f08c379a0000000000000000000000000000000000000000000000000000000008152600401610eec906132d1565b60405180910390fd5b606960008273ffffffffffffffffffffffffffffffffffffffff1673ffffffffffffffffffffffffffffffffffffffff16815260200190815260200160002060000160009054906101000a900463ffffffff16606a60008282829054906101000a900463ffffffff16610f6891906136fa565b92506101000a81548163ffffffff021916908363ffffffff1602179055506001606960008373ffffffffffffffffffffffffffffffffffffffff1673ffffffffffffffffffffffffffffffffffffffff16815260200190815260200160002060000160046101000a81548160ff02191690831515021790555050565b6000606b54905090565b610ff66122a0565b73ffffffffffffffffffffffffffffffffffffffff16611014611603565b73ffffffffffffffffffffffffffffffffffffffff161461106a576040517f08c379a0000000000000000000000000000000000000000000000000000000008152600401611061906132d1565b60405180910390fd5b6000606660008363ffffffff1663ffffffff16815260200190815260200160002090508060030160089054906101000a900460ff166110d5576040517f0f861bc000000000000000000000000000000000000000000000000000000000815260040160405180910390fd5b60008160030160086101000a81548160ff0219169083151502179055505050565b6110fe6122a0565b73ffffffffffffffffffffffffffffffffffffffff1661111c611603565b73ffffffffffffffffffffffffffffffffffffffff1614611172576040517f08c379a0000000000000000000000000000000000000000000000000000000008152600401611169906132d1565b60405180910390fd5b61117b816122cc565b50565b6111866122a0565b73ffffffffffffffffffffffffffffffffffffffff166111a4611603565b73ffffffffffffffffffffffffffffffffffffffff16146111fa576040517f08c379a00000000000000000000000000000000000000000000000000000000081526004016111f1906132d1565b60405180910390fd5b606960008273ffffffffffffffffffffffffffffffffffffffff1673ffffffffffffffffffffffffffffffffffffffff16815260200190815260200160002060000160009054906101000a900463ffffffff16606a60008282829054906101000a900463ffffffff1661126d9190613732565b92506101000a81548163ffffffff021916908363ffffffff1602179055506000606960008373ffffffffffffffffffffffffffffffffffffffff1673ffffffffffffffffffffffffffffffffffffffff16815260200190815260200160002060000160046101000a81548160ff02191690831515021790555050565b6112f16122a0565b73ffffffffffffffffffffffffffffffffffffffff1661130f611603565b73ffffffffffffffffffffffffffffffffffffffff1614611365576040517f08c379a000000000000000000000000000000000000000000000000000000000815260040161135c906132d1565b60405180910390fd5b6000606660008363ffffffff1663ffffffff16815260200190815260200160002090508060030160089054906101000a900460ff166113d0576040517f0f861bc000000000000000000000000000000000000000000000000000000000815260040160405180910390fd5b60018160030160096101000a81548160ff0219169083151502179055505050565b60006001905090565b6114026122a0565b73ffffffffffffffffffffffffffffffffffffffff16611420611603565b73ffffffffffffffffffffffffffffffffffffffff1614611476576040517f08c379a000000000000000000000000000000000000000000000000000000000815260040161146d906132d1565b60405180910390fd5b6000606660008463ffffffff1663ffffffff16815260200190815260200160002090508181600201601c6101000a81548163ffffffff021916908363ffffffff160217905550505050565b60006060600080606786866040516114da92919061326c565b908152602001604051809103902090508060010160009054906101000a900473ffffffffffffffffffffffffffffffffffffffff1686868360010160189054906101000a900460ff1682828080601f016020809104026020016040519081016040528093929190818152602001838380828437600081840152601f19601f820116905080830192505050505050509150909150935093509350509250925092565b6115836122a0565b73ffffffffffffffffffffffffffffffffffffffff166115a1611603565b73ffffffffffffffffffffffffffffffffffffffff16146115f7576040517f08c379a00000000000000000000000000000000000000000000000000000000081526004016115ee906132d1565b60405180910390fd5b61160160006122e0565b565b6000603360009054906101000a900473ffffffffffffffffffffffffffffffffffffffff16905090565b6116356122a0565b73ffffffffffffffffffffffffffffffffffffffff16611653611603565b73ffffffffffffffffffffffffffffffffffffffff16146116a9576040517f08c379a00000000000000000000000000000000000000000000000000000000081526004016116a0906132d1565b60405180910390fd5b6116b988888888888888886123a6565b600073ffffffffffffffffffffffffffffffffffffffff16606789896040516116e392919061326c565b908152602001604051809103902060010160009054906101000a900473ffffffffffffffffffffffffffffffffffffffff1673ffffffffffffffffffffffffffffffffffffffff1614611762576040517f8d09a73e00000000000000000000000000000000000000000000000000000000815260040160405180910390fd5b6040518060800160405280878780806020026020016040519081016040528093929190818152602001838360200280828437600081840152601f19601f8201169050808301925050505050505081526020018a73ffffffffffffffffffffffffffffffffffffffff168152602001606960008c73ffffffffffffffffffffffffffffffffffffffff1673ffffffffffffffffffffffffffffffffffffffff1681526020019081526020016000206001018054905063ffffffff168152602001600115158152506067898960405161183a92919061326c565b90815260200160405180910390206000820151816000019080519060200190611864929190612696565b5060208201518160010160006101000a81548173ffffffffffffffffffffffffffffffffffffffff021916908373ffffffffffffffffffffffffffffffffffffffff16021790555060408201518160010160146101000a81548163ffffffff021916908363ffffffff16021790555060608201518160010160186101000a81548160ff021916908315150217905550905050606960008a73ffffffffffffffffffffffffffffffffffffffff1673ffffffffffffffffffffffffffffffffffffffff168152602001908152602001600020600101888890918060018154018082558091505060019003906000526020600020016000909192909192909192909192509182611973929190613775565b5060005b868690508163ffffffff161015611afb576066600088888463ffffffff168181106119a5576119a4613845565b5b90506020020160208101906119ba9190612811565b63ffffffff1663ffffffff16815260200190815260200160002060030160089054906101000a900460ff16611a1b576040517f0f861bc000000000000000000000000000000000000000000000000000000000815260040160405180910390fd5b6107d063ffffffff166066600089898563ffffffff16818110611a4157611a40613845565b5b9050602002016020810190611a569190612811565b63ffffffff1663ffffffff168152602001908152602001600020600301600481819054906101000a900463ffffffff16611a8f90613874565b91906101000a81548163ffffffff021916908363ffffffff160217905563ffffffff161115611aea576040517f6df5ab7600000000000000000000000000000000000000000000000000000000815260040160405180910390fd5b80611af490613874565b9050611977565b50606a600081819054906101000a900463ffffffff16611b1a90613874565b91906101000a81548163ffffffff021916908363ffffffff160217905550505050505050505050565b6000606960008373ffffffffffffffffffffffffffffffffffffffff1673ffffffffffffffffffffffffffffffffffffffff16815260200190815260200160002060000160049054906101000a900460ff169050919050565b611ba46122a0565b73ffffffffffffffffffffffffffffffffffffffff16611bc2611603565b73ffffffffffffffffffffffffffffffffffffffff1614611c18576040517f08c379a0000000000000000000000000000000000000000000000000000000008152600401611c0f906132d1565b60405180910390fd5b600060678383604051611c2c92919061326c565b9081526020016040518091039020905060005b81600001805490508163ffffffff161015611d025760666000836000018363ffffffff1681548110611c7457611c73613845565b5b90600052602060002090600891828204019190066004029054906101000a900463ffffffff1663ffffffff1663ffffffff168152602001908152602001600020600301600481819054906101000a900463ffffffff16611cd3906138a0565b91906101000a81548163ffffffff021916908363ffffffff16021790555080611cfb90613874565b9050611c3f565b506000606960008360010160009054906101000a900473ffffffffffffffffffffffffffffffffffffffff1673ffffffffffffffffffffffffffffffffffffffff1673ffffffffffffffffffffffffffffffffffffffff16815260200190815260200160002060010190508060018280549050611d7f91906138c9565b81548110611d9057611d8f613845565b5b90600052602060002001818360010160149054906101000a900463ffffffff1663ffffffff1681548110611dc757611dc6613845565b5b906000526020600020019081611ddd9190613928565b508160010160149054906101000a900463ffffffff166067828460010160149054906101000a900463ffffffff1663ffffffff1681548110611e2257611e21613845565b5b90600052602060002001604051611e399190613a93565b908152602001604051809103902060010160146101000a81548163ffffffff021916908363ffffffff16021790555080805480611e7957611e78613aaa565b5b600190038181906000526020600020016000611e959190612746565b9055606a600081819054906101000a900463ffffffff16611eb5906138a0565b91906101000a81548163ffffffff021916908363ffffffff16021790555060678484604051611ee592919061326c565b908152602001604051809103902060008082016000611f049190612786565b6001820160006101000a81549073ffffffffffffffffffffffffffffffffffffffff02191690556001820160146101000a81549063ffffffff02191690556001820160186101000a81549060ff0219169055505050505050565b600060678383604051611f7292919061326c565b908152602001604051809103902060010160009054906101000a900473ffffffffffffffffffffffffffffffffffffffff16905092915050565b6000606660008363ffffffff1663ffffffff16815260200190815260200160002060030160049054906101000a900463ffffffff169050919050565b6000606660008363ffffffff1663ffffffff16815260200190815260200160002060020160089054906101000a900473ffffffffffffffffffffffffffffffffffffffff169050919050565b61203c6122a0565b73ffffffffffffffffffffffffffffffffffffffff1661205a611603565b73ffffffffffffffffffffffffffffffffffffffff16146120b0576040517f08c379a00000000000000000000000000000000000000000000000000000000081526004016120a7906132d1565b60405180910390fd5b600073ffffffffffffffffffffffffffffffffffffffff168173ffffffffffffffffffffffffffffffffffffffff160361211f576040517f08c379a000000000000000000000000000000000000000000000000000000000815260040161211690613b4b565b60405180910390fd5b612128816122e0565b50565b6000806000905060005b848490508163ffffffff1610156121cc57600085858363ffffffff1681811061216157612160613845565b5b90506020020160208101906121769190612811565b9050606660008263ffffffff1663ffffffff16815260200190815260200160002060030160099054906101000a900460ff16156121ba57826121b790613b78565b92505b50806121c590613874565b9050612135565b5060028160ff16101591505092915050565b60006121ea6001612468565b9050801561220e576001600060016101000a81548160ff0219169083151502179055505b61221782612558565b80156122705760008060016101000a81548160ff0219169083151502179055507f7f26b83ff96e1f2b6a682f133852f6798a09c465da95921460cefb384740249860016040516122679190613bdc565b60405180910390a15b5050565b60006298968067ffffffffffffffff168267ffffffffffffffff166122999190613bf7565b9050919050565b600033905090565b6001816000016000828254019250508190555050565b600081600001549050919050565b8067ffffffffffffffff16606b8190555050565b6000603360009054906101000a900473ffffffffffffffffffffffffffffffffffffffff16905081603360006101000a81548173ffffffffffffffffffffffffffffffffffffffff021916908373ffffffffffffffffffffffffffffffffffffffff1602179055508173ffffffffffffffffffffffffffffffffffffffff168173ffffffffffffffffffffffffffffffffffffffff167f8be0079c531659141344cd1fd0a4f28419497f9722a3daafe3b4186f6b6457e060405160405180910390a35050565b603088889050146123e3576040517f637297a400000000000000000000000000000000000000000000000000000000815260040160405180910390fd5b83839050868690501415806123fe5750818190508686905014155b8061240c5750600486869050105b80612427575060016003878790506124249190613c68565b14155b1561245e576040517f9c920ce000000000000000000000000000000000000000000000000000000000815260040160405180910390fd5b5050505050505050565b60008060019054906101000a900460ff16156124df5760018260ff161480156124975750612495306125c1565b155b6124d6576040517f08c379a00000000000000000000000000000000000000000000000000000000081526004016124cd90613d0b565b60405180910390fd5b60009050612553565b8160ff1660008054906101000a900460ff1660ff1610612534576040517f08c379a000000000000000000000000000000000000000000000000000000000815260040161252b90613d0b565b60405180910390fd5b816000806101000a81548160ff021916908360ff160217905550600190505b919050565b600060019054906101000a900460ff166125a7576040517f08c379a000000000000000000000000000000000000000000000000000000000815260040161259e90613d9d565b60405180910390fd5b6125af6125e4565b6125b7612645565b80606b8190555050565b6000808273ffffffffffffffffffffffffffffffffffffffff163b119050919050565b600060019054906101000a900460ff16612633576040517f08c379a000000000000000000000000000000000000000000000000000000000815260040161262a90613d9d565b60405180910390fd5b61264361263e6122a0565b6122e0565b565b600060019054906101000a900460ff16612694576040517f08c379a000000000000000000000000000000000000000000000000000000000815260040161268b90613d9d565b60405180910390fd5b565b828054828255906000526020600020906007016008900481019282156127355791602002820160005b8382111561270357835183826101000a81548163ffffffff021916908363ffffffff16021790555092602001926004016020816003010492830192600103026126bf565b80156127335782816101000a81549063ffffffff0219169055600401602081600301049283019260010302612703565b505b50905061274291906127ae565b5090565b508054612752906131fc565b6000825580601f106127645750612783565b601f01602090049060005260206000209081019061278291906127ae565b5b50565b5080546000825560070160089004906000526020600020908101906127ab91906127ae565b50565b5b808211156127c75760008160009055506001016127af565b5090565b600080fd5b600080fd5b600063ffffffff82169050919050565b6127ee816127d5565b81146127f957600080fd5b50565b60008135905061280b816127e5565b92915050565b600060208284031215612827576128266127cb565b5b6000612835848285016127fc565b91505092915050565b600081519050919050565b600082825260208201905092915050565b60005b8381101561287857808201518184015260208101905061285d565b60008484015250505050565b6000601f19601f8301169050919050565b60006128a08261283e565b6128aa8185612849565b93506128ba81856020860161285a565b6128c381612884565b840191505092915050565b600073ffffffffffffffffffffffffffffffffffffffff82169050919050565b60006128f9826128ce565b9050919050565b612909816128ee565b82525050565b600081519050919050565b600082825260208201905092915050565b60006129368261290f565b612940818561291a565b935061295081856020860161285a565b61295981612884565b840191505092915050565b6000819050919050565b61297781612964565b82525050565b60008115159050919050565b6129928161297d565b82525050565b600060e08201905081810360008301526129b2818a612895565b90506129c16020830189612900565b81810360408301526129d3818861292b565b90506129e2606083018761296e565b6129ef608083018661296e565b6129fc60a083018561296e565b612a0960c0830184612989565b98975050505050505050565b600080fd5b600080fd5b600080fd5b60008083601f840112612a3a57612a39612a15565b5b8235905067ffffffffffffffff811115612a5757612a56612a1a565b5b602083019150836001820283011115612a7357612a72612a1f565b5b9250929050565b60008060208385031215612a9157612a906127cb565b5b600083013567ffffffffffffffff811115612aaf57612aae6127d0565b5b612abb85828601612a24565b92509250509250929050565b600081519050919050565b600082825260208201905092915050565b6000819050602082019050919050565b612afc816127d5565b82525050565b6000612b0e8383612af3565b60208301905092915050565b6000602082019050919050565b6000612b3282612ac7565b612b3c8185612ad2565b9350612b4783612ae3565b8060005b83811015612b78578151612b5f8882612b02565b9750612b6a83612b1a565b925050600181019050612b4b565b5085935050505092915050565b60006020820190508181036000830152612b9f8184612b27565b905092915050565b612bb0816128ee565b8114612bbb57600080fd5b50565b600081359050612bcd81612ba7565b92915050565b600060208284031215612be957612be86127cb565b5b6000612bf784828501612bbe565b91505092915050565b600081519050919050565b600082825260208201905092915050565b6000819050602082019050919050565b600082825260208201905092915050565b6000612c488261290f565b612c528185612c2c565b9350612c6281856020860161285a565b612c6b81612884565b840191505092915050565b6000612c828383612c3d565b905092915050565b6000602082019050919050565b6000612ca282612c00565b612cac8185612c0b565b935083602082028501612cbe85612c1c565b8060005b85811015612cfa5784840389528151612cdb8582612c76565b9450612ce683612c8a565b925060208a01995050600181019050612cc2565b50829750879550505050505092915050565b60006020820190508181036000830152612d268184612c97565b905092915050565b60008083601f840112612d4457612d43612a15565b5b8235905067ffffffffffffffff811115612d6157612d60612a1a565b5b602083019150836001820283011115612d7d57612d7c612a1f565b5b9250929050565b600080600080600060608688031215612da057612d9f6127cb565b5b600086013567ffffffffffffffff811115612dbe57612dbd6127d0565b5b612dca88828901612d2e565b95509550506020612ddd88828901612bbe565b935050604086013567ffffffffffffffff811115612dfe57612dfd6127d0565b5b612e0a88828901612a24565b92509250509295509295909350565b612e22816127d5565b82525050565b6000602082019050612e3d6000830184612e19565b92915050565b6000602082019050612e58600083018461296e565b92915050565b600067ffffffffffffffff82169050919050565b612e7b81612e5e565b8114612e8657600080fd5b50565b600081359050612e9881612e72565b92915050565b600060208284031215612eb457612eb36127cb565b5b6000612ec284828501612e89565b91505092915050565b60008060408385031215612ee257612ee16127cb565b5b6000612ef0858286016127fc565b9250506020612f01858286016127fc565b9150509250929050565b6000606082019050612f206000830186612900565b8181036020830152612f32818561292b565b9050612f416040830184612989565b949350505050565b6000602082019050612f5e6000830184612900565b92915050565b60008083601f840112612f7a57612f79612a15565b5b8235905067ffffffffffffffff811115612f9757612f96612a1a565b5b602083019150836020820283011115612fb357612fb2612a1f565b5b9250929050565b60008083601f840112612fd057612fcf612a15565b5b8235905067ffffffffffffffff811115612fed57612fec612a1a565b5b60208301915083602082028301111561300957613008612a1f565b5b9250929050565b600080600080600080600080600060a08a8c031215613032576130316127cb565b5b60006130408c828d01612bbe565b99505060208a013567ffffffffffffffff811115613061576130606127d0565b5b61306d8c828d01612a24565b985098505060408a013567ffffffffffffffff8111156130905761308f6127d0565b5b61309c8c828d01612f64565b965096505060608a013567ffffffffffffffff8111156130bf576130be6127d0565b5b6130cb8c828d01612fba565b945094505060808a013567ffffffffffffffff8111156130ee576130ed6127d0565b5b6130fa8c828d01612fba565b92509250509295985092959850929598565b60006020820190506131216000830184612989565b92915050565b6000806020838503121561313e5761313d6127cb565b5b600083013567ffffffffffffffff81111561315c5761315b6127d0565b5b61316885828601612f64565b92509250509250929050565b61317d81612964565b811461318857600080fd5b50565b60008135905061319a81613174565b92915050565b6000602082840312156131b6576131b56127cb565b5b60006131c48482850161318b565b91505092915050565b7f4e487b7100000000000000000000000000000000000000000000000000000000600052602260045260246000fd5b6000600282049050600182168061321457607f821691505b602082108103613227576132266131cd565b5b50919050565b600081905092915050565b82818337600083830152505050565b6000613253838561322d565b9350613260838584613238565b82840190509392505050565b6000613279828486613247565b91508190509392505050565b7f4f776e61626c653a2063616c6c6572206973206e6f7420746865206f776e6572600082015250565b60006132bb602083612849565b91506132c682613285565b602082019050919050565b600060208201905081810360008301526132ea816132ae565b9050919050565b7f4e487b7100000000000000000000000000000000000000000000000000000000600052604160045260246000fd5b60008190508160005260206000209050919050565b60006020601f8301049050919050565b600082821b905092915050565b6000600883026133827fffffffffffffffffffffffffffffffffffffffffffffffffffffffffffffffff82613345565b61338c8683613345565b95508019841693508086168417925050509392505050565b6000819050919050565b60006133c96133c46133bf84612964565b6133a4565b612964565b9050919050565b6000819050919050565b6133e3836133ae565b6133f76133ef826133d0565b848454613352565b825550505050565b600090565b61340c6133ff565b6134178184846133da565b505050565b5b8181101561343b57613430600082613404565b60018101905061341d565b5050565b601f8211156134805761345181613320565b61345a84613335565b81016020851015613469578190505b61347d61347585613335565b83018261341c565b50505b505050565b600082821c905092915050565b60006134a360001984600802613485565b1980831691505092915050565b60006134bc8383613492565b9150826002028217905092915050565b6134d58261283e565b67ffffffffffffffff8111156134ee576134ed6132f1565b5b6134f882546131fc565b61350382828561343f565b600060209050601f8311600181146135365760008415613524578287015190505b61352e85826134b0565b865550613596565b601f19841661354486613320565b60005b8281101561356c57848901518255600182019150602085019450602081019050613547565b868310156135895784890151613585601f891682613492565b8355505b6001600288020188555050505b505050505050565b60008190508160005260206000209050919050565b601f8211156135f4576135c58161359e565b6135ce84613335565b810160208510156135dd578190505b6135f16135e985613335565b83018261341c565b50505b505050565b6136028261290f565b67ffffffffffffffff81111561361b5761361a6132f1565b5b61362582546131fc565b6136308282856135b3565b600060209050601f8311600181146136635760008415613651578287015190505b61365b85826134b0565b8655506136c3565b601f1984166136718661359e565b60005b8281101561369957848901518255600182019150602085019450602081019050613674565b868310156136b657848901516136b2601f891682613492565b8355505b6001600288020188555050505b505050505050565b7f4e487b7100000000000000000000000000000000000000000000000000000000600052601160045260246000fd5b6000613705826127d5565b9150613710836127d5565b9250828203905063ffffffff81111561372c5761372b6136cb565b5b92915050565b600061373d826127d5565b9150613748836127d5565b9250828201905063ffffffff811115613764576137636136cb565b5b92915050565b600082905092915050565b61377f838361376a565b67ffffffffffffffff811115613798576137976132f1565b5b6137a282546131fc565b6137ad8282856135b3565b6000601f8311600181146137dc57600084156137ca578287013590505b6137d485826134b0565b86555061383c565b601f1984166137ea8661359e565b60005b82811015613812578489013582556001820191506020850194506020810190506137ed565b8683101561382f578489013561382b601f891682613492565b8355505b6001600288020188555050505b50505050505050565b7f4e487b7100000000000000000000000000000000000000000000000000000000600052603260045260246000fd5b600061387f826127d5565b915063ffffffff8203613895576138946136cb565b5b600182019050919050565b60006138ab826127d5565b9150600082036138be576138bd6136cb565b5b600182039050919050565b60006138d482612964565b91506138df83612964565b92508282039050818111156138f7576138f66136cb565b5b92915050565b60008154905061390c816131fc565b9050919050565b60008190508160005260206000209050919050565b818103613936575050613a0e565b61393f826138fd565b67ffffffffffffffff811115613958576139576132f1565b5b61396282546131fc565b61396d8282856135b3565b6000601f83116001811461399c576000841561398a578287015490505b61399485826134b0565b865550613a07565b601f1984166139aa87613913565b96506139b58661359e565b60005b828110156139dd578489015482556001820191506001850194506020810190506139b8565b868310156139fa57848901546139f6601f891682613492565b8355505b6001600288020188555050505b5050505050505b565b60008154613a1d816131fc565b613a27818661322d565b94506001821660008114613a425760018114613a5757613a8a565b60ff1983168652811515820286019350613a8a565b613a608561359e565b60005b83811015613a8257815481890152600182019150602081019050613a63565b838801955050505b50505092915050565b6000613a9f8284613a10565b915081905092915050565b7f4e487b7100000000000000000000000000000000000000000000000000000000600052603160045260246000fd5b7f4f776e61626c653a206e6577206f776e657220697320746865207a65726f206160008201527f6464726573730000000000000000000000000000000000000000000000000000602082015250565b6000613b35602683612849565b9150613b4082613ad9565b604082019050919050565b60006020820190508181036000830152613b6481613b28565b9050919050565b600060ff82169050919050565b6000613b8382613b6b565b915060ff8203613b9657613b956136cb565b5b600182019050919050565b6000819050919050565b6000613bc6613bc1613bbc84613ba1565b6133a4565b613b6b565b9050919050565b613bd681613bab565b82525050565b6000602082019050613bf16000830184613bcd565b92915050565b6000613c0282612964565b9150613c0d83612964565b9250828202613c1b81612964565b91508282048414831517613c3257613c316136cb565b5b5092915050565b7f4e487b7100000000000000000000000000000000000000000000000000000000600052601260045260246000fd5b6000613c7382612964565b9150613c7e83612964565b925082613c8e57613c8d613c39565b5b828206905092915050565b7f496e697469616c697a61626c653a20636f6e747261637420697320616c72656160008201527f647920696e697469616c697a6564000000000000000000000000000000000000602082015250565b6000613cf5602e83612849565b9150613d0082613c99565b604082019050919050565b60006020820190508181036000830152613d2481613ce8565b9050919050565b7f496e697469616c697a61626c653a20636f6e7472616374206973206e6f74206960008201527f6e697469616c697a696e67000000000000000000000000000000000000000000602082015250565b6000613d87602b83612849565b9150613d9282613d2b565b604082019050919050565b60006020820190508181036000830152613db681613d7a565b905091905056fea26469706673582212209eac837a36b320be5d0970b98ee481fff55a8179b18ca451cbb3ba24352c268964736f6c63430008110033",
  "immutableReferences": {},
  "source": "// File: contracts/SafeStakeRegistry.sol\n// SPDX-License-Identifier: GPL-3.0-or-later\npragma solidity ^0.8.2;\n\nimport \"@openzeppelin/contracts/utils/Counters.sol\";\nimport \"@openzeppelin/contracts-upgradeable/access/OwnableUpgradeable.sol\";\nimport \"./utils/VersionedContract.sol\";\nimport \"./utils/Types.sol\";\nimport \"./ISafeStakeRegistry.sol\";\n\ncontract SafeStakeRegistry is Initializable, OwnableUpgradeable, ISafeStakeRegistry, VersionedContract {\n    using Counters for Counters.Counter;\n    using Types256 for uint256;\n    using Types64 for uint64;\n    \n    struct Operator {\n        string name;\n        bytes publicKey;\n        uint64 fee;\n        address ownerAddress;\n        uint32 score;\n        uint32 indexInOwner;\n        uint32 validatorCount;\n        bool active;\n        bool fromParaStateDao;\n    }\n\n    struct Validator {\n        uint32[] operatorIds;\n        address ownerAddress;\n        uint32 indexInOwner;\n        bool active;\n    }\n\n    struct OwnerData {\n        uint32 activeValidatorCount;\n        bool validatorsDisabled;\n        bytes[] validators;\n    }\n\n    // struct Initializer {\n    //     address ownerAddress;\n    //     uint32[] operatorIds;\n    //     bytes validatorPublicKey;\n    //     address miniPoolAddress;\n    //     InitializerStatus status;\n    //     bool active;\n    // }\n\n    Counters.Counter private _lastOperatorId;\n    // Counters.Counter private _lastInitializerId;\n\n    mapping(uint32 => Operator) private _operators;\n    mapping(bytes => Validator) private _validators;\n    mapping(address => uint32[]) private _operatorsByOwnerAddress;\n    mapping(address => OwnerData) private _owners;\n    // mapping(address => uint32[]) private _initializersByOwnerAddress;\n    // mapping(uint32 => Initializer) private _initializers;\n\n    uint32 private _activeValidatorCount;\n\n    uint32 constant private VALIDATORS_PER_OPERATOR_LIMIT = 2000;\n    uint32 constant private REGISTERED_OPERATORS_PER_ACCOUNT_LIMIT = 10;\n\n    uint256 private _operatorFee;\n    /**\n     * @dev See {ISafeStakeRegistry-initialize}.\n     */\n    function initialize(uint256 operatorFee) external override initializer {\n        __SafeStakeRegistry_init(operatorFee);\n    }\n\n    function __SafeStakeRegistry_init(uint256 operatorFee) internal onlyInitializing {\n        __Ownable_init_unchained();\n        __SafeStakeRegistry_init_unchained();\n        _operatorFee = operatorFee;\n    }\n\n    function __SafeStakeRegistry_init_unchained() internal onlyInitializing {\n    }\n\n    /**\n     * @dev See {ISafeStakeRegistry-registerOperator}.\n     */\n    function registerOperator(\n        string calldata name,\n        address ownerAddress,\n        bytes calldata publicKey\n    ) external onlyOwner override returns (uint32 operatorId) {\n\n        if (_operatorsByOwnerAddress[ownerAddress].length >= REGISTERED_OPERATORS_PER_ACCOUNT_LIMIT) {\n            revert ExceedRegisteredOperatorsByAccountLimit();\n        }\n\n        _lastOperatorId.increment();\n        operatorId = uint32(_lastOperatorId.current());\n        _operators[operatorId] = Operator({name: name, ownerAddress: ownerAddress, publicKey: publicKey, score: 0, fee: 0, active: true, indexInOwner: uint32(_operatorsByOwnerAddress[ownerAddress].length), validatorCount: 0, fromParaStateDao: false});\n        _operatorsByOwnerAddress[ownerAddress].push(operatorId);\n         \n    }\n\n    /**\n     * @dev See {ISafeStakeRegistry-removeOperator}.\n     */\n    function removeOperator(\n        uint32 operatorId\n    ) external onlyOwner override {\n        Operator storage operator = _operators[operatorId];\n\n        if (!operator.active) {\n            revert OperatorDeleted();\n        }\n\n        operator.active = false;\n    }\n\n    /**\n     * @dev See {ISafeStakeRegistry-certifyOperatorFromDao}.\n     */\n    function certifyOperatorFromDao(uint32 operatorId) external onlyOwner override {\n        Operator storage operator = _operators[operatorId];\n        if (!operator.active) {\n            revert OperatorDeleted();\n        }\n\n        operator.fromParaStateDao = true;\n    }\n\n    /**\n     * @dev See {ISafeStakeRegistry-updateOperatorFee}.\n     */\n    function updateOperatorFee(uint64 fee) external onlyOwner override {\n        _updateOperatorFeeUnsafe(fee);\n    }\n\n    /**\n     * @dev See {ISafeStakeRegistry-updateOperatorScore}.\n     */\n    function updateOperatorScore(uint32 operatorId, uint32 score) external onlyOwner override {\n        Operator storage operator = _operators[operatorId];\n        operator.score = score;\n    }\n\n    /**\n     * @dev See {ISafeStakeRegistry-registerValidator}.\n     */\n    function registerValidator(\n        address ownerAddress,\n        bytes calldata publicKey,\n        uint32[] calldata operatorIds,\n        bytes[] calldata sharesPublicKeys,\n        bytes[] calldata sharesEncrypted\n    ) external onlyOwner override {\n        _validateValidatorParams(\n            publicKey,\n            operatorIds,\n            sharesPublicKeys,\n            sharesEncrypted\n        );\n\n        if (_validators[publicKey].ownerAddress != address(0)) {\n            revert ValidatorAlreadyExists();\n        }\n\n        _validators[publicKey] = Validator({\n            operatorIds: operatorIds,\n            ownerAddress: ownerAddress,\n            indexInOwner: uint32(_owners[ownerAddress].validators.length),\n            active: true\n        });\n\n        _owners[ownerAddress].validators.push(publicKey);\n\n        for (uint32 index = 0; index < operatorIds.length; ++index) {\n            if (!_operators[operatorIds[index]].active) {\n                revert OperatorDeleted();\n            }\n\n            if (++_operators[operatorIds[index]].validatorCount > VALIDATORS_PER_OPERATOR_LIMIT) {\n                revert ExceedValidatorLimit();\n            }\n        }\n        ++_activeValidatorCount;\n    }\n\n    /**\n     * @dev See {ISafeStakeRegistry-removeValidator}.\n     */\n    function removeValidator(\n        bytes calldata publicKey\n    ) external onlyOwner override {\n        Validator storage validator = _validators[publicKey];\n\n        for (uint32 index = 0; index < validator.operatorIds.length; ++index) {\n            --_operators[validator.operatorIds[index]].validatorCount;\n        }\n\n        bytes[] storage ownerValidators = _owners[validator.ownerAddress].validators;\n\n        ownerValidators[validator.indexInOwner] = ownerValidators[ownerValidators.length - 1];\n        _validators[ownerValidators[validator.indexInOwner]].indexInOwner = validator.indexInOwner;\n        ownerValidators.pop();\n\n        --_activeValidatorCount;\n\n        delete _validators[publicKey];\n    }\n\n    /**\n     * @dev See {ISafeStakeRegistry-registerInitializer}.\n     */\n    // function registerInitializer(\n    //     address ownerAddress, \n    //     uint32[] calldata operatorIds\n    // ) external onlyOwner override returns (uint32 initializerId) {\n    //     _lastInitializerId.increment();\n    //     initializerId = uint32(_lastInitializerId.current());\n    //     _initializers[initializerId] = Initializer({\n    //         ownerAddress: ownerAddress,\n    //         operatorIds: operatorIds,\n    //         validatorPublicKey: new bytes(0),\n    //         miniPoolAddress: address(0),\n    //         status: InitializerStatus.INITIALIZING,\n    //         active: true\n    //     });\n    //     _initializersByOwnerAddress[ownerAddress].push(initializerId);\n    // }\n\n    function enableOwnerValidators(address ownerAddress) external onlyOwner override {\n        _activeValidatorCount += _owners[ownerAddress].activeValidatorCount;\n        _owners[ownerAddress].validatorsDisabled = false;\n    }\n\n    function disableOwnerValidators(address ownerAddress) external onlyOwner override {\n        _activeValidatorCount -= _owners[ownerAddress].activeValidatorCount;\n        _owners[ownerAddress].validatorsDisabled = true;\n    }\n\n    function isLiquidated(address ownerAddress) external view override returns (bool) {\n        return _owners[ownerAddress].validatorsDisabled;\n    }\n\n    /**\n     * @dev See {ISafeStakeRegistry-operators}.\n     */\n    function getOperatorById(uint32 operatorId) external view override returns (string memory, address, bytes memory, uint256, uint256, uint256, bool) {\n        Operator storage operator = _operators[operatorId];\n        return (operator.name, operator.ownerAddress, operator.publicKey, _operators[operatorId].validatorCount, operator.fee.expand(), operator.score, operator.active);\n    }\n\n    /**\n     * @dev See {ISafeStakeRegistry-getOperatorsByOwnerAddress}.\n     */\n    function getOperatorsByOwnerAddress(address ownerAddress) external view override returns (uint32[] memory) {\n        return _operatorsByOwnerAddress[ownerAddress];\n    }\n\n    /**\n     * @dev See {ISafeStakeRegistry-getOperatorsByValidator}.\n     */\n    function getOperatorsByValidator(bytes calldata validatorPublicKey) external view override returns (uint32[] memory operatorIds) {\n        Validator storage validator = _validators[validatorPublicKey];\n\n        return validator.operatorIds;\n    }\n\n    /**\n     * @dev See {ISafeStakeRegistry-getOperatorOwner}.\n     */\n    function getOperatorOwner(uint32 operatorId) external view override returns (address) {\n        return _operators[operatorId].ownerAddress;\n    }\n\n    /**\n     * @dev See {ISafeStakeRegistry-getOperatorFee}.\n     */\n    function getOperatorFee() external view override returns (uint256) {\n        return _operatorFee;\n    }\n\n    /**\n     * @dev See {ISafeStakeRegistry-activeValidatorCount}.\n     */\n    function activeValidatorCount() external view override returns (uint32) {\n        return _activeValidatorCount;\n    }\n\n    /**\n     * @dev See {ISafeStakeRegistry-validators}.\n     */\n    function validators(bytes calldata publicKey) external view override returns (address, bytes memory, bool) {\n        Validator storage validator = _validators[publicKey];\n\n        return (validator.ownerAddress, publicKey, validator.active);\n    }\n\n    /**\n     * @dev See {ISafeStakeRegistry-getValidatorsByAddress}.\n     */\n    function getValidatorsByAddress(address ownerAddress) external view override returns (bytes[] memory) {\n        return _owners[ownerAddress].validators;\n    }\n\n    /**\n     * @dev See {ISafeStakeRegistry-getValidatorOwner}.\n     */\n    function getValidatorOwner(bytes calldata publicKey) external view override returns (address) {\n        return _validators[publicKey].ownerAddress;\n    }\n\n    /**\n     * @dev See {ISafeStakeRegistry-validatorsPerOperatorCount}.\n     */\n    function validatorsPerOperatorCount(uint32 operatorId) external view override returns (uint32) {\n        return _operators[operatorId].validatorCount;\n    }\n\n    /**\n     * @dev See {ISafeStakeRegistry-updateOperatorFee}.\n     */\n    function _updateOperatorFeeUnsafe(uint64 fee) private {\n        _operatorFee = fee;\n    }\n\n    /**\n     * @dev Validates the paramss for a validator.\n     * @param publicKey Validator public key.\n     * @param operatorIds Operator operatorIds.\n     * @param sharesPublicKeys Shares public keys.\n     * @param encryptedKeys Encrypted private keys.\n     */\n    function _validateValidatorParams(\n        bytes calldata publicKey,\n        uint32[] calldata operatorIds,\n        bytes[] calldata sharesPublicKeys,\n        bytes[] calldata encryptedKeys\n    ) private pure {\n        if (publicKey.length != 48) {\n            revert InvalidPublicKeyLength();\n        }\n        if (\n            operatorIds.length != sharesPublicKeys.length ||\n            operatorIds.length != encryptedKeys.length ||\n            operatorIds.length < 4 || operatorIds.length % 3 != 1\n        ) {\n            revert OessDataStructureInvalid();\n        }\n    }\n\n    function version() external pure override returns (uint32) {\n        return 1;\n    }\n\n    /**\n     * @dev See {ISafeStakeRegistry-ifOperatorFromParaStateDao}.\n     */\n    function ifEnoughOperatorsFromParaStateDao(uint32[] calldata operatorIds) external view override returns (bool) {\n        uint8 count = 0; \n        for (uint32 index = 0; index < operatorIds.length; ++index) {\n            uint32 operatorId = operatorIds[index];\n            if (_operators[operatorId].fromParaStateDao) {\n                ++count;\n            }\n        }\n        return count >= 2;\n    }\n\n    /**\n     * @dev See {ISafeStakeRegistry-updateOperatorFee}.\n     */\n    // function getInitializerById(uint32 initializerId) external view override returns (address ownerAddress, uint32[] memory operatorIds, bytes memory validatorPublicKey, address minipoolAddress, InitializerStatus status, bool active) {\n    //     Initializer storage initializer =  _initializers[initializerId];\n    //     return (initializer.ownerAddress, initializer.operatorIds, initializer.validatorPublicKey, initializer.miniPoolAddress, initializer.status, initializer.active);\n    // }\n\n    /**\n     * @dev See {ISafeStakeRegistry-initializerPreStatke}.\n     */\n    // function initializerPreStatke(\n    //     uint32 initializerId,\n    //     bytes calldata validatorPublicKey,\n    //     address miniPoolAddress\n    // ) external override {\n    //     _initializers[initializerId].validatorPublicKey = validatorPublicKey;\n    //     _initializers[initializerId].miniPoolAddress = miniPoolAddress;\n    //     _initializers[initializerId].status = InitializerStatus.WAITING;\n    // }\n\n    // function initializerReady(\n    //     uint32 initializerId\n    // ) external override {\n    //     _initializers[initializerId].status = InitializerStatus.READY;\n    // }\n\n    // function initializerStake(\n    //     uint32 initializerId\n    // ) external override {\n    //     _initializers[initializerId].status = InitializerStatus.FINISHED;\n    // }\n\n    // function getInitializerOwner(uint32 initializerId) external view override returns (address ownerAddress) {\n    //     return _initializers[initializerId].ownerAddress;\n    // }\n\n    // function getInitalizerByOwner(address ownerAddress) external view override returns (uint32[] memory initializerIds) {\n    //     return _initializersByOwnerAddress[ownerAddress];\n    // }\n\n    uint256[50] ______gap;\n}\n",
  "sourcePath": "/Users/jiangjianlin/Github/safestake-tokenomics/contracts/SafeStakeRegistry.sol",
  "compiler": {
    "name": "solc",
    "version": "0.8.17+commit.8df45f5f.Emscripten.clang"
  },
  "schemaVersion": "3.4.10",
  "updatedAt": "2023-01-14T11:57:48.729Z",
  "networkType": "ethereum",
  "devdoc": {
    "kind": "dev",
    "methods": {
      "activeValidatorCount()": {
        "details": "See {ISafeStakeRegistry-activeValidatorCount}."
      },
      "certifyOperatorFromDao(uint32)": {
        "details": "See {ISafeStakeRegistry-certifyOperatorFromDao}."
      },
      "enableOwnerValidators(address)": {
        "details": "See {ISafeStakeRegistry-registerInitializer}."
      },
      "getOperatorById(uint32)": {
        "details": "See {ISafeStakeRegistry-operators}."
      },
      "getOperatorFee()": {
        "details": "See {ISafeStakeRegistry-getOperatorFee}."
      },
      "getOperatorOwner(uint32)": {
        "details": "See {ISafeStakeRegistry-getOperatorOwner}."
      },
      "getOperatorsByOwnerAddress(address)": {
        "details": "See {ISafeStakeRegistry-getOperatorsByOwnerAddress}."
      },
      "getOperatorsByValidator(bytes)": {
        "details": "See {ISafeStakeRegistry-getOperatorsByValidator}."
      },
      "getValidatorOwner(bytes)": {
        "details": "See {ISafeStakeRegistry-getValidatorOwner}."
      },
      "getValidatorsByAddress(address)": {
        "details": "See {ISafeStakeRegistry-getValidatorsByAddress}."
      },
      "ifEnoughOperatorsFromParaStateDao(uint32[])": {
        "details": "See {ISafeStakeRegistry-ifOperatorFromParaStateDao}."
      },
      "initialize(uint256)": {
        "details": "See {ISafeStakeRegistry-initialize}."
      },
      "owner()": {
        "details": "Returns the address of the current owner."
      },
      "registerOperator(string,address,bytes)": {
        "details": "See {ISafeStakeRegistry-registerOperator}."
      },
      "registerValidator(address,bytes,uint32[],bytes[],bytes[])": {
        "details": "See {ISafeStakeRegistry-registerValidator}."
      },
      "removeOperator(uint32)": {
        "details": "See {ISafeStakeRegistry-removeOperator}."
      },
      "removeValidator(bytes)": {
        "details": "See {ISafeStakeRegistry-removeValidator}."
      },
      "renounceOwnership()": {
        "details": "Leaves the contract without owner. It will not be possible to call `onlyOwner` functions anymore. Can only be called by the current owner. NOTE: Renouncing ownership will leave the contract without an owner, thereby removing any functionality that is only available to the owner."
      },
      "transferOwnership(address)": {
        "details": "Transfers ownership of the contract to a new account (`newOwner`). Can only be called by the current owner."
      },
      "updateOperatorFee(uint64)": {
        "details": "See {ISafeStakeRegistry-updateOperatorFee}."
      },
      "updateOperatorScore(uint32,uint32)": {
        "details": "See {ISafeStakeRegistry-updateOperatorScore}."
      },
      "validators(bytes)": {
        "details": "See {ISafeStakeRegistry-validators}."
      },
      "validatorsPerOperatorCount(uint32)": {
        "details": "See {ISafeStakeRegistry-validatorsPerOperatorCount}."
      }
    },
    "stateVariables": {
      "______gap": {
        "details": "See {ISafeStakeRegistry-initializerPreStatke}."
      }
    },
    "version": 1
  },
  "userdoc": {
    "errors": {
      "ExceedRegisteredOperatorsByAccountLimit()": [
        {
          "notice": "errors "
        }
      ]
    },
    "kind": "user",
    "methods": {},
    "version": 1
  },
  "db": {
    "callBytecode": {
      "id": "0x89f40e1f0f49eb01b07b2f0095c9ec56b3ec85e1483536c4b33c5831d003a1f2"
    },
    "createBytecode": {
      "id": "0xa48778f256ea3575b3b9346193bfe53f79bb4b19a67a8661ab436bf7f044c67a"
    },
    "contract": {
      "id": "0x034a4e3f6f41af7b89884d92ff9d7300685a2c404a04bcd5d5eca639f3f1c8da"
    }
  }
}