{
  "contractName": "SafeStakeNetwork",
  "abi": [
    {
      "inputs": [],
      "name": "AccountAlreadyEnabled",
      "type": "error"
    },
    {
      "inputs": [],
      "name": "ApprovalNotWithinTimeframe",
      "type": "error"
    },
    {
      "inputs": [],
      "name": "BelowMinimumBlockPeriod",
      "type": "error"
    },
    {
      "inputs": [],
      "name": "BurnRatePositive",
      "type": "error"
    },
    {
      "inputs": [],
      "name": "CallerNotOperatorOwner",
      "type": "error"
    },
    {
      "inputs": [],
      "name": "CallerNotValidatorOwner",
      "type": "error"
    },
    {
      "inputs": [],
      "name": "ExceedManagingOperatorsPerAccountLimit",
      "type": "error"
    },
    {
      "inputs": [],
      "name": "FeeExceedsIncreaseLimit",
      "type": "error"
    },
    {
      "inputs": [],
      "name": "FeeTooLow",
      "type": "error"
    },
    {
      "inputs": [],
      "name": "NegativeBalance",
      "type": "error"
    },
    {
      "inputs": [],
      "name": "NoEnoughParaStateDaoOperators",
      "type": "error"
    },
    {
      "inputs": [],
      "name": "NoPendingFeeChangeRequest",
      "type": "error"
    },
    {
      "inputs": [],
      "name": "NotEnoughBalance",
      "type": "error"
    },
    {
      "inputs": [],
      "name": "OperatorWithPublicKeyNotExist",
      "type": "error"
    },
    {
      "inputs": [],
      "name": "ValidatorWithPublicKeyNotExist",
      "type": "error"
    },
    {
      "anonymous": false,
      "inputs": [
        {
          "indexed": true,
          "internalType": "address",
          "name": "ownerAddress",
          "type": "address"
        }
      ],
      "name": "AccountDisable",
      "type": "event"
    },
    {
      "anonymous": false,
      "inputs": [
        {
          "indexed": true,
          "internalType": "address",
          "name": "ownerAddress",
          "type": "address"
        }
      ],
      "name": "AccountEnable",
      "type": "event"
    },
    {
      "anonymous": false,
      "inputs": [
        {
          "indexed": false,
          "internalType": "uint256",
          "name": "value",
          "type": "uint256"
        },
        {
          "indexed": true,
          "internalType": "address",
          "name": "ownerAddress",
          "type": "address"
        },
        {
          "indexed": true,
          "internalType": "address",
          "name": "senderAddress",
          "type": "address"
        }
      ],
      "name": "FundsDeposit",
      "type": "event"
    },
    {
      "anonymous": false,
      "inputs": [
        {
          "indexed": false,
          "internalType": "uint256",
          "name": "value",
          "type": "uint256"
        },
        {
          "indexed": true,
          "internalType": "address",
          "name": "ownerAddress",
          "type": "address"
        }
      ],
      "name": "FundsWithdrawal",
      "type": "event"
    },
    {
      "anonymous": false,
      "inputs": [
        {
          "indexed": false,
          "internalType": "uint8",
          "name": "version",
          "type": "uint8"
        }
      ],
      "name": "Initialized",
      "type": "event"
    },
    {
      "anonymous": false,
      "inputs": [
        {
          "indexed": false,
          "internalType": "uint256",
          "name": "oldFee",
          "type": "uint256"
        },
        {
          "indexed": false,
          "internalType": "uint256",
          "name": "newFee",
          "type": "uint256"
        }
      ],
      "name": "NetworkFeeUpdate",
      "type": "event"
    },
    {
      "anonymous": false,
      "inputs": [
        {
          "indexed": false,
          "internalType": "uint256",
          "name": "value",
          "type": "uint256"
        },
        {
          "indexed": false,
          "internalType": "address",
          "name": "recipient",
          "type": "address"
        }
      ],
      "name": "NetworkFeesWithdrawal",
      "type": "event"
    },
    {
      "anonymous": false,
      "inputs": [
        {
          "indexed": true,
          "internalType": "uint32",
          "name": "id",
          "type": "uint32"
        },
        {
          "indexed": false,
          "internalType": "string",
          "name": "name",
          "type": "string"
        },
        {
          "indexed": true,
          "internalType": "address",
          "name": "ownerAddress",
          "type": "address"
        },
        {
          "indexed": false,
          "internalType": "bytes",
          "name": "publicKey",
          "type": "bytes"
        }
      ],
      "name": "OperatorRegistration",
      "type": "event"
    },
    {
      "anonymous": false,
      "inputs": [
        {
          "indexed": false,
          "internalType": "uint32",
          "name": "operatorId",
          "type": "uint32"
        },
        {
          "indexed": true,
          "internalType": "address",
          "name": "ownerAddress",
          "type": "address"
        }
      ],
      "name": "OperatorRemoval",
      "type": "event"
    },
    {
      "anonymous": false,
      "inputs": [
        {
          "indexed": false,
          "internalType": "uint32",
          "name": "operatorId",
          "type": "uint32"
        },
        {
          "indexed": true,
          "internalType": "address",
          "name": "ownerAddress",
          "type": "address"
        },
        {
          "indexed": false,
          "internalType": "uint256",
          "name": "blockNumber",
          "type": "uint256"
        },
        {
          "indexed": false,
          "internalType": "uint256",
          "name": "score",
          "type": "uint256"
        }
      ],
      "name": "OperatorScoreUpdate",
      "type": "event"
    },
    {
      "anonymous": false,
      "inputs": [
        {
          "indexed": true,
          "internalType": "address",
          "name": "previousOwner",
          "type": "address"
        },
        {
          "indexed": true,
          "internalType": "address",
          "name": "newOwner",
          "type": "address"
        }
      ],
      "name": "OwnershipTransferred",
      "type": "event"
    },
    {
      "anonymous": false,
      "inputs": [
        {
          "indexed": true,
          "internalType": "address",
          "name": "ownerAddress",
          "type": "address"
        },
        {
          "indexed": false,
          "internalType": "bytes",
          "name": "publicKey",
          "type": "bytes"
        },
        {
          "indexed": false,
          "internalType": "uint32[]",
          "name": "operatorIds",
          "type": "uint32[]"
        },
        {
          "indexed": false,
          "internalType": "bytes[]",
          "name": "sharesPublicKeys",
          "type": "bytes[]"
        },
        {
          "indexed": false,
          "internalType": "bytes[]",
          "name": "encryptedKeys",
          "type": "bytes[]"
        },
        {
          "indexed": false,
          "internalType": "uint256",
          "name": "paidBlockNumber",
          "type": "uint256"
        }
      ],
      "name": "ValidatorRegistration",
      "type": "event"
    },
    {
      "anonymous": false,
      "inputs": [
        {
          "indexed": true,
          "internalType": "address",
          "name": "ownerAddress",
          "type": "address"
        },
        {
          "indexed": false,
          "internalType": "bytes",
          "name": "publicKey",
          "type": "bytes"
        }
      ],
      "name": "ValidatorRemoval",
      "type": "event"
    },
    {
      "inputs": [],
      "name": "owner",
      "outputs": [
        {
          "internalType": "address",
          "name": "",
          "type": "address"
        }
      ],
      "stateMutability": "view",
      "type": "function",
      "constant": true
    },
    {
      "inputs": [],
      "name": "renounceOwnership",
      "outputs": [],
      "stateMutability": "nonpayable",
      "type": "function"
    },
    {
      "inputs": [
        {
          "internalType": "address",
          "name": "newOwner",
          "type": "address"
        }
      ],
      "name": "transferOwnership",
      "outputs": [],
      "stateMutability": "nonpayable",
      "type": "function"
    },
    {
      "inputs": [
        {
          "internalType": "contract ISafeStakeRegistry",
          "name": "registryAddress_",
          "type": "address"
        },
        {
          "internalType": "contract IERC20",
          "name": "token_",
          "type": "address"
        },
        {
          "internalType": "uint64",
          "name": "minimumBlocksBeforeLiquidation_",
          "type": "uint64"
        },
        {
          "internalType": "uint64",
          "name": "operatorFee",
          "type": "uint64"
        }
      ],
      "name": "initialize",
      "outputs": [],
      "stateMutability": "nonpayable",
      "type": "function"
    },
    {
      "inputs": [
        {
          "internalType": "string",
          "name": "name",
          "type": "string"
        },
        {
          "internalType": "bytes",
          "name": "publicKey",
          "type": "bytes"
        }
      ],
      "name": "registerOperator",
      "outputs": [
        {
          "internalType": "uint32",
          "name": "operatorId",
          "type": "uint32"
        }
      ],
      "stateMutability": "nonpayable",
      "type": "function"
    },
    {
      "inputs": [
        {
          "internalType": "uint32",
          "name": "operatorId",
          "type": "uint32"
        }
      ],
      "name": "removeOperator",
      "outputs": [],
      "stateMutability": "nonpayable",
      "type": "function"
    },
    {
      "inputs": [
        {
          "internalType": "bytes",
          "name": "publicKey",
          "type": "bytes"
        },
        {
          "internalType": "uint32[]",
          "name": "operatorIds",
          "type": "uint32[]"
        },
        {
          "internalType": "bytes[]",
          "name": "sharesPublicKeys",
          "type": "bytes[]"
        },
        {
          "internalType": "bytes[]",
          "name": "sharesEncrypted",
          "type": "bytes[]"
        },
        {
          "internalType": "uint256",
          "name": "amount",
          "type": "uint256"
        }
      ],
      "name": "registerValidator",
      "outputs": [],
      "stateMutability": "nonpayable",
      "type": "function"
    },
    {
      "inputs": [
        {
          "internalType": "bytes",
          "name": "publicKey",
          "type": "bytes"
        }
      ],
      "name": "removeValidator",
      "outputs": [],
      "stateMutability": "nonpayable",
      "type": "function"
    },
    {
      "inputs": [
        {
          "internalType": "address",
          "name": "ownerAddress",
          "type": "address"
        },
        {
          "internalType": "uint256",
          "name": "amount",
          "type": "uint256"
        }
      ],
      "name": "deposit",
      "outputs": [],
      "stateMutability": "nonpayable",
      "type": "function"
    },
    {
      "inputs": [
        {
          "internalType": "uint256",
          "name": "amount",
          "type": "uint256"
        }
      ],
      "name": "withdraw",
      "outputs": [],
      "stateMutability": "nonpayable",
      "type": "function"
    },
    {
      "inputs": [
        {
          "internalType": "address",
          "name": "ownerAddress",
          "type": "address"
        }
      ],
      "name": "disableAddress",
      "outputs": [],
      "stateMutability": "nonpayable",
      "type": "function"
    },
    {
      "inputs": [
        {
          "internalType": "uint256",
          "name": "amount",
          "type": "uint256"
        }
      ],
      "name": "reactivateAccount",
      "outputs": [],
      "stateMutability": "nonpayable",
      "type": "function"
    },
    {
      "inputs": [
        {
          "internalType": "uint256",
          "name": "fee",
          "type": "uint256"
        }
      ],
      "name": "updateNetworkFee",
      "outputs": [],
      "stateMutability": "nonpayable",
      "type": "function"
    },
    {
      "inputs": [
        {
          "internalType": "address",
          "name": "ownerAddress",
          "type": "address"
        }
      ],
      "name": "getAddressBalance",
      "outputs": [
        {
          "internalType": "uint256",
          "name": "",
          "type": "uint256"
        }
      ],
      "stateMutability": "view",
      "type": "function",
      "constant": true
    },
    {
      "inputs": [
        {
          "internalType": "address",
          "name": "ownerAddress",
          "type": "address"
        }
      ],
      "name": "addressNetworkFee",
      "outputs": [
        {
          "internalType": "uint256",
          "name": "",
          "type": "uint256"
        }
      ],
      "stateMutability": "view",
      "type": "function",
      "constant": true
    },
    {
      "inputs": [
        {
          "internalType": "address",
          "name": "ownerAddress",
          "type": "address"
        }
      ],
      "name": "getAddressBurnRate",
      "outputs": [
        {
          "internalType": "uint256",
          "name": "",
          "type": "uint256"
        }
      ],
      "stateMutability": "view",
      "type": "function",
      "constant": true
    },
    {
      "inputs": [
        {
          "internalType": "address",
          "name": "ownerAddress",
          "type": "address"
        }
      ],
      "name": "isLiquidatable",
      "outputs": [
        {
          "internalType": "bool",
          "name": "",
          "type": "bool"
        }
      ],
      "stateMutability": "view",
      "type": "function",
      "constant": true
    },
    {
      "inputs": [],
      "name": "getNetworkFee",
      "outputs": [
        {
          "internalType": "uint256",
          "name": "",
          "type": "uint256"
        }
      ],
      "stateMutability": "view",
      "type": "function",
      "constant": true
    },
    {
      "inputs": [],
      "name": "getMinimumBlocksValidatorShouldPay",
      "outputs": [
        {
          "internalType": "uint256",
          "name": "",
          "type": "uint256"
        }
      ],
      "stateMutability": "view",
      "type": "function",
      "constant": true
    },
    {
      "inputs": [
        {
          "internalType": "address",
          "name": "account",
          "type": "address"
        },
        {
          "internalType": "uint32[]",
          "name": "operatorIds",
          "type": "uint32[]"
        },
        {
          "internalType": "uint32[]",
          "name": "performances",
          "type": "uint32[]"
        }
      ],
      "name": "accountClaimFee",
      "outputs": [],
      "stateMutability": "nonpayable",
      "type": "function"
    },
    {
      "inputs": [
        {
          "internalType": "uint64",
          "name": "fee",
          "type": "uint64"
        }
      ],
      "name": "updateOperatorFee",
      "outputs": [],
      "stateMutability": "nonpayable",
      "type": "function"
    },
    {
      "inputs": [],
      "name": "version",
      "outputs": [
        {
          "internalType": "uint32",
          "name": "",
          "type": "uint32"
        }
      ],
      "stateMutability": "pure",
      "type": "function",
      "constant": true
    },
    {
      "inputs": [
        {
          "internalType": "address",
          "name": "ownerAddress",
          "type": "address"
        }
      ],
      "name": "getOperatorsInUseByOwnerAddress",
      "outputs": [
        {
          "internalType": "uint32[]",
          "name": "",
          "type": "uint32[]"
        }
      ],
      "stateMutability": "view",
      "type": "function",
      "constant": true
    },
    {
      "inputs": [
        {
          "internalType": "uint32",
          "name": "operatorId",
          "type": "uint32"
        }
      ],
      "name": "getOperatorClaimBlock",
      "outputs": [
        {
          "internalType": "uint256",
          "name": "",
          "type": "uint256"
        }
      ],
      "stateMutability": "view",
      "type": "function",
      "constant": true
    },
    {
      "inputs": [
        {
          "internalType": "address",
          "name": "account",
          "type": "address"
        }
      ],
      "name": "getAccountPaidBlockNumber",
      "outputs": [
        {
          "internalType": "uint256",
          "name": "",
          "type": "uint256"
        }
      ],
      "stateMutability": "view",
      "type": "function",
      "constant": true
    }
  ],
  "bytecode": "0x608060405234801561001057600080fd5b50615bd880620000216000396000f3fe608060405234801561001057600080fd5b50600436106101735760003560e01c80635036258b116100de5780638da5cb5b11610097578063e40cb19d11610071578063e40cb19d14610444578063ead1bc5914610460578063f2fde38b14610490578063fc043830146104ac57610173565b80638da5cb5b146103ee5780639b4400dd1461040c578063b2f569c51461042857610173565b80635036258b1461032c57806354fd4d501461034857806356d9a2cc1461036657806357e2b0e214610396578063715018a6146103b457806385f79d61146103be57610173565b80632e1a7d4d116101305780632e1a7d4d1461025c5780632e1d2f0514610278578063350467221461029457806341d2c0cd146102c457806347e7ef24146102e0578063492e8410146102fc57610173565b8063042e02cf146101785780630ec62fe9146101a85780631f1f9fd5146101c45780632563c64e146101e057806327bfcabd146102105780632afe872f14610240575b600080fd5b610192600480360381019061018d9190614521565b6104ca565b60405161019f9190614569565b60405180910390f35b6101c260048036038101906101bd91906145e9565b6104dc565b005b6101de60048036038101906101d991906146b4565b61069b565b005b6101fa60048036038101906101f59190614521565b6107bc565b60405161020791906146f0565b60405180910390f35b61022a60048036038101906102259190614521565b6107e0565b60405161023791906147d9565b60405180910390f35b61025a600480360381019061025591906146b4565b6108a3565b005b610276600480360381019061027191906146b4565b6109c2565b005b610292600480360381019061028d9190614827565b610a6a565b005b6102ae60048036038101906102a99190614521565b610bf4565b6040516102bb91906146f0565b60405180910390f35b6102de60048036038101906102d99190614894565b610c06565b005b6102fa60048036038101906102f591906148c1565b610c96565b005b61031660048036038101906103119190614827565b610ca4565b60405161032391906146f0565b60405180910390f35b61034660048036038101906103419190614521565b610cd0565b005b610350610e03565b60405161035d9190614910565b60405180910390f35b610380600480360381019061037b9190614521565b610e0d565b60405161038d91906146f0565b60405180910390f35b61039e610e1f565b6040516103ab91906146f0565b60405180910390f35b6103bc610e47565b005b6103d860048036038101906103d391906149d7565b610ecf565b6040516103e59190614910565b60405180910390f35b6103f661108d565b6040516104039190614a67565b60405180910390f35b61042660048036038101906104219190614afe565b6110b7565b005b610442600480360381019061043d9190614b65565b611153565b005b61045e60048036038101906104599190614c08565b6111ce565b005b61047a60048036038101906104759190614521565b6111fc565b60405161048791906146f0565b60405180910390f35b6104aa60048036038101906104a59190614521565b611248565b005b6104b461133f565b6040516104c191906146f0565b60405180910390f35b60006104d58261136f565b9050919050565b6104e46113da565b73ffffffffffffffffffffffffffffffffffffffff1661050261108d565b73ffffffffffffffffffffffffffffffffffffffff1614610558576040517f08c379a000000000000000000000000000000000000000000000000000000000815260040161054f90614d61565b60405180910390fd5b6000805b858590508163ffffffff1610156105f1576105d186868363ffffffff1681811061058957610588614d81565b5b905060200201602081019061059e9190614827565b85858463ffffffff168181106105b7576105b6614d81565b5b90506020020160208101906105cc9190614827565b6113e2565b826105dc9190614ddf565b915080806105e990614e13565b91505061055c565b50606760009054906101000a900473ffffffffffffffffffffffffffffffffffffffff1673ffffffffffffffffffffffffffffffffffffffff1663a9059cbb87836040518363ffffffff1660e01b815260040161064f929190614e3f565b6020604051808303816000875af115801561066e573d6000803e3d6000fd5b505050506040513d601f19601f820116820180604052508101906106929190614e94565b50505050505050565b6106a36113da565b73ffffffffffffffffffffffffffffffffffffffff166106c161108d565b73ffffffffffffffffffffffffffffffffffffffff1614610717576040517f08c379a000000000000000000000000000000000000000000000000000000000815260040161070e90614d61565b60405180910390fd5b7fb12de2022a8c992455195d1cdfe49c528c96a325adc99e12b6eab59d56654ea2610761606860009054906101000a900467ffffffffffffffff1667ffffffffffffffff1661144a565b82604051610770929190614ec1565b60405180910390a1610780611476565b6107886114af565b610791816114e8565b606860006101000a81548167ffffffffffffffff021916908367ffffffffffffffff16021790555050565b60006107d96107ca83611564565b67ffffffffffffffff1661144a565b9050919050565b6060607060008373ffffffffffffffffffffffffffffffffffffffff1673ffffffffffffffffffffffffffffffffffffffff16815260200190815260200160002080548060200260200160405190810160405280929190818152602001828054801561089757602002820191906000526020600020906000905b82829054906101000a900463ffffffff1663ffffffff168152602001906004019060208260030104928301926001038202915080841161085a5790505b50505050509050919050565b606e60003373ffffffffffffffffffffffffffffffffffffffff1673ffffffffffffffffffffffffffffffffffffffff16815260200190815260200160002060050160049054906101000a900460ff16610929576040517f44fab0e000000000000000000000000000000000000000000000000000000000815260040160405180910390fd5b6109333382611897565b61093c33611a0e565b6109453361136f565b1561097c576040517fad3a8b9e00000000000000000000000000000000000000000000000000000000815260040160405180910390fd5b3373ffffffffffffffffffffffffffffffffffffffff167fd2cad6abfa380a10a84c0e561544f8deb6eea7dd29a411fa306f902aa6ac5eca60405160405180910390a250565b6109cb816114e8565b67ffffffffffffffff166109de33611cd9565b1015610a16576040517fad3a8b9e00000000000000000000000000000000000000000000000000000000815260040160405180910390fd5b610a27610a22826114e8565b611ddd565b610a303361136f565b15610a67576040517fad3a8b9e00000000000000000000000000000000000000000000000000000000815260040160405180910390fd5b50565b80610a7481611f56565b6000606660009054906101000a900473ffffffffffffffffffffffffffffffffffffffff1673ffffffffffffffffffffffffffffffffffffffff1663e7b21748846040518263ffffffff1660e01b8152600401610ad19190614910565b602060405180830381865afa158015610aee573d6000803e3d6000fd5b505050506040513d601f19601f82011682018060405250810190610b129190614eff565b9050606660009054906101000a900473ffffffffffffffffffffffffffffffffffffffff1673ffffffffffffffffffffffffffffffffffffffff16632e1d2f05846040518263ffffffff1660e01b8152600401610b6f9190614910565b600060405180830381600087803b158015610b8957600080fd5b505af1158015610b9d573d6000803e3d6000fd5b505050508073ffffffffffffffffffffffffffffffffffffffff167f10b90e3d042178ee9b3e99a849224b4bf4145b9855274073c0c6bca9c5113b7b84604051610be79190614910565b60405180910390a2505050565b6000610bff82611cd9565b9050919050565b606660009054906101000a900473ffffffffffffffffffffffffffffffffffffffff1673ffffffffffffffffffffffffffffffffffffffff166341d2c0cd826040518263ffffffff1660e01b8152600401610c619190614f3b565b600060405180830381600087803b158015610c7b57600080fd5b505af1158015610c8f573d6000803e3d6000fd5b5050505050565b610ca08282611897565b5050565b6000606d60008363ffffffff1663ffffffff168152602001908152602001600020600101549050919050565b610cd86113da565b73ffffffffffffffffffffffffffffffffffffffff16610cf661108d565b73ffffffffffffffffffffffffffffffffffffffff1614610d4c576040517f08c379a0000000000000000000000000000000000000000000000000000000008152600401610d4390614d61565b60405180910390fd5b606e60008273ffffffffffffffffffffffffffffffffffffffff1673ffffffffffffffffffffffffffffffffffffffff16815260200190815260200160002060050160049054906101000a900460ff16158015610dae5750610dad81612106565b5b15610e0057610dbc8161214d565b8073ffffffffffffffffffffffffffffffffffffffff167fbcdf297ed7902fea73305fee14ec4d4704e2588ceffffef11e2543ef396cd79860405160405180910390a25b50565b6000614e20905090565b6000610e1882612418565b9050919050565b6000606760149054906101000a900467ffffffffffffffff1667ffffffffffffffff16905090565b610e4f6113da565b73ffffffffffffffffffffffffffffffffffffffff16610e6d61108d565b73ffffffffffffffffffffffffffffffffffffffff1614610ec3576040517f08c379a0000000000000000000000000000000000000000000000000000000008152600401610eba90614d61565b60405180910390fd5b610ecd6000612530565b565b6000606660009054906101000a900473ffffffffffffffffffffffffffffffffffffffff1673ffffffffffffffffffffffffffffffffffffffff16631940d38786863387876040518663ffffffff1660e01b8152600401610f34959493929190614fe1565b6020604051808303816000875af1158015610f53573d6000803e3d6000fd5b505050506040513d601f19601f82011682018060405250810190610f77919061503f565b90506040518060c001604052804381526020014381526020016000815260200160008152602001438152602001600063ffffffff16815250606d60008363ffffffff1663ffffffff168152602001908152602001600020600082015181600001556020820151816001015560408201518160020155606082015181600301556080820151816004015560a08201518160050160006101000a81548163ffffffff021916908363ffffffff1602179055509050503373ffffffffffffffffffffffffffffffffffffffff168163ffffffff167fa837adf7db87879179d994c48f4275ae84c6ea7ba2ff625b1e121b5a6f42317d8787878760405161107d949392919061506c565b60405180910390a3949350505050565b6000603360009054906101000a900473ffffffffffffffffffffffffffffffffffffffff16905090565b60006110c360016125f6565b905080156110e7576001600060016101000a81548160ff0219169083151502179055505b6110f3858585856126e6565b801561114c5760008060016101000a81548160ff0219169083151502179055507f7f26b83ff96e1f2b6a682f133852f6798a09c465da95921460cefb3847402498600160405161114391906150f9565b60405180910390a15b5050505050565b818161115f828261278a565b611167611476565b6111703361293d565b6111be3385858080601f016020809104026020016040519081016040528093929190818152602001838380828437600081840152601f19601f820116905080830192505050505050506129e7565b6111c733611cd9565b5050505050565b6111d6611476565b6111df3361293d565b6111f1338a8a8a8a8a8a8a8a8a612baa565b505050505050505050565b6000606e60008373ffffffffffffffffffffffffffffffffffffffff1673ffffffffffffffffffffffffffffffffffffffff168152602001908152602001600020600601549050919050565b6112506113da565b73ffffffffffffffffffffffffffffffffffffffff1661126e61108d565b73ffffffffffffffffffffffffffffffffffffffff16146112c4576040517f08c379a00000000000000000000000000000000000000000000000000000000081526004016112bb90614d61565b60405180910390fd5b600073ffffffffffffffffffffffffffffffffffffffff168173ffffffffffffffffffffffffffffffffffffffff1603611333576040517f08c379a000000000000000000000000000000000000000000000000000000000815260040161132a90615186565b60405180910390fd5b61133c81612530565b50565b600061136a606860009054906101000a900467ffffffffffffffff1667ffffffffffffffff1661144a565b905090565b6000606e60008373ffffffffffffffffffffffffffffffffffffffff1673ffffffffffffffffffffffffffffffffffffffff16815260200190815260200160002060050160049054906101000a900460ff161580156113d357506113d282612106565b5b9050919050565b600033905090565b600080606d60008563ffffffff1663ffffffff1681526020019081526020016000209050600060648463ffffffff16836002015461142091906151a6565b61142a9190615217565b905060008260020181905550438260010181905550809250505092915050565b60006298968067ffffffffffffffff168267ffffffffffffffff1661146f91906151a6565b9050919050565b61147e612e93565b606a60006101000a81548167ffffffffffffffff021916908367ffffffffffffffff16021790555043606b81905550565b6114b7612fa4565b606860086101000a81548167ffffffffffffffff021916908367ffffffffffffffff16021790555043606981905550565b6000806298968067ffffffffffffffff16836115049190615248565b14611544576040517f08c379a000000000000000000000000000000000000000000000000000000000815260040161153b906152eb565b60405180910390fd5b6298968067ffffffffffffffff168261155d9190615217565b9050919050565b6000606e60008373ffffffffffffffffffffffffffffffffffffffff1673ffffffffffffffffffffffffffffffffffffffff16815260200190815260200160002060050160049054906101000a900460ff16156115c45760009050611892565b60005b607060008473ffffffffffffffffffffffffffffffffffffffff1673ffffffffffffffffffffffffffffffffffffffff168152602001908152602001600020805490508163ffffffff1610156116bb5761169d83607060008673ffffffffffffffffffffffffffffffffffffffff1673ffffffffffffffffffffffffffffffffffffffff1681526020019081526020016000208363ffffffff168154811061167257611671614d81565b5b90600052602060002090600891828204019190066004029054906101000a900463ffffffff16612ffb565b826116a8919061530b565b9150806116b490614e13565b90506115c7565b50606860009054906101000a900467ffffffffffffffff16606e60008473ffffffffffffffffffffffffffffffffffffffff1673ffffffffffffffffffffffffffffffffffffffff16815260200190815260200160002060050160009054906101000a900463ffffffff1663ffffffff166117369190615347565b81611741919061530b565b90506000606660009054906101000a900473ffffffffffffffffffffffffffffffffffffffff1673ffffffffffffffffffffffffffffffffffffffff16630dc1eeff846040518263ffffffff1660e01b81526004016117a09190614a67565b600060405180830381865afa1580156117bd573d6000803e3d6000fd5b505050506040513d6000823e3d601f19601f820116820180604052508101906117e691906154c2565b905060005b81518163ffffffff16101561188f57611823828263ffffffff168151811061181657611815614d81565b5b6020026020010151613116565b67ffffffffffffffff168367ffffffffffffffff161161184857600092505050611892565b611871828263ffffffff168151811061186457611863614d81565b5b6020026020010151613116565b8361187c919061550b565b92508061188890614e13565b90506117eb565b50505b919050565b606760009054906101000a900473ffffffffffffffffffffffffffffffffffffffff1673ffffffffffffffffffffffffffffffffffffffff166323b872dd3330846040518463ffffffff1660e01b81526004016118f693929190615547565b6020604051808303816000875af1158015611915573d6000803e3d6000fd5b505050506040513d601f19601f820116820180604052508101906119399190614e94565b50611943816114e8565b67ffffffffffffffff16606e60008473ffffffffffffffffffffffffffffffffffffffff1673ffffffffffffffffffffffffffffffffffffffff168152602001908152602001600020600001600082825461199e9190614ddf565b925050819055503373ffffffffffffffffffffffffffffffffffffffff168273ffffffffffffffffffffffffffffffffffffffff167fb91f78378ad1ce7b5c12301896eac25f50d4603d0301406595e6fdfa6ffd641983604051611a0291906146f0565b60405180910390a35050565b611a16611476565b611a1f8161293d565b60005b607060008373ffffffffffffffffffffffffffffffffffffffff1673ffffffffffffffffffffffffffffffffffffffff168152602001908152602001600020805490508163ffffffff161015611bed576000607060008473ffffffffffffffffffffffffffffffffffffffff1673ffffffffffffffffffffffffffffffffffffffff1681526020019081526020016000208263ffffffff1681548110611acb57611aca614d81565b5b90600052602060002090600891828204019190066004029054906101000a900463ffffffff169050611afc816131f3565b6000606f60008573ffffffffffffffffffffffffffffffffffffffff1673ffffffffffffffffffffffffffffffffffffffff16815260200190815260200160002060008363ffffffff1663ffffffff1681526020019081526020016000209050611b67818584613234565b8060020160009054906101000a900463ffffffff16606d60008463ffffffff1663ffffffff16815260200190815260200160002060050160008282829054906101000a900463ffffffff16611bbc919061557e565b92506101000a81548163ffffffff021916908363ffffffff160217905550505080611be690614e13565b9050611a22565b50606660009054906101000a900473ffffffffffffffffffffffffffffffffffffffff1673ffffffffffffffffffffffffffffffffffffffff166345413bf4826040518263ffffffff1660e01b8152600401611c499190614a67565b600060405180830381600087803b158015611c6357600080fd5b505af1158015611c77573d6000803e3d6000fd5b505050506000606e60008373ffffffffffffffffffffffffffffffffffffffff1673ffffffffffffffffffffffffffffffffffffffff16815260200190815260200160002060050160046101000a81548160ff02191690831515021790555050565b600080611ce58361325d565b606e60008573ffffffffffffffffffffffffffffffffffffffff1673ffffffffffffffffffffffffffffffffffffffff16815260200190815260200160002060000154611d329190614ddf565b90506000611d3f8461336d565b606e60008673ffffffffffffffffffffffffffffffffffffffff1673ffffffffffffffffffffffffffffffffffffffff16815260200190815260200160002060010154611d8c9190614ddf565b905080821015611dc8576040517f5e13ed3100000000000000000000000000000000000000000000000000000000815260040160405180910390fd5b8082611dd491906155b6565b92505050919050565b8067ffffffffffffffff16606e60003373ffffffffffffffffffffffffffffffffffffffff1673ffffffffffffffffffffffffffffffffffffffff1681526020019081526020016000206001016000828254611e399190614ddf565b92505081905550606760009054906101000a900473ffffffffffffffffffffffffffffffffffffffff1673ffffffffffffffffffffffffffffffffffffffff1663a9059cbb33611e928467ffffffffffffffff1661144a565b6040518363ffffffff1660e01b8152600401611eaf929190614e3f565b6020604051808303816000875af1158015611ece573d6000803e3d6000fd5b505050506040513d601f19601f82011682018060405250810190611ef29190614e94565b503373ffffffffffffffffffffffffffffffffffffffff167f233f5518707099d7be7f52de7c8094100dae65f0c896a762ebcc5900370d66bc611f3e8367ffffffffffffffff1661144a565b604051611f4b91906146f0565b60405180910390a250565b6000606660009054906101000a900473ffffffffffffffffffffffffffffffffffffffff1673ffffffffffffffffffffffffffffffffffffffff1663e7b21748836040518263ffffffff1660e01b8152600401611fb39190614910565b602060405180830381865afa158015611fd0573d6000803e3d6000fd5b505050506040513d601f19601f82011682018060405250810190611ff49190614eff565b9050600073ffffffffffffffffffffffffffffffffffffffff168173ffffffffffffffffffffffffffffffffffffffff160361205c576040517fd5528c8600000000000000000000000000000000000000000000000000000000815260040160405180910390fd5b8073ffffffffffffffffffffffffffffffffffffffff163373ffffffffffffffffffffffffffffffffffffffff16141580156120cb575061209b61108d565b73ffffffffffffffffffffffffffffffffffffffff163373ffffffffffffffffffffffffffffffffffffffff1614155b15612102576040517fec4de4c900000000000000000000000000000000000000000000000000000000815260040160405180910390fd5b5050565b600061211182611564565b606760149054906101000a900467ffffffffffffffff166121329190615347565b67ffffffffffffffff1661214583611cd9565b109050919050565b612155611476565b61215e8161293d565b60005b607060008373ffffffffffffffffffffffffffffffffffffffff1673ffffffffffffffffffffffffffffffffffffffff168152602001908152602001600020805490508163ffffffff16101561232c576000607060008473ffffffffffffffffffffffffffffffffffffffff1673ffffffffffffffffffffffffffffffffffffffff1681526020019081526020016000208263ffffffff168154811061220a57612209614d81565b5b90600052602060002090600891828204019190066004029054906101000a900463ffffffff16905061223b816131f3565b6000606f60008573ffffffffffffffffffffffffffffffffffffffff1673ffffffffffffffffffffffffffffffffffffffff16815260200190815260200160002060008363ffffffff1663ffffffff16815260200190815260200160002090506122a6818584613234565b8060020160009054906101000a900463ffffffff16606d60008463ffffffff1663ffffffff16815260200190815260200160002060050160008282829054906101000a900463ffffffff166122fb91906155ea565b92506101000a81548163ffffffff021916908363ffffffff16021790555050508061232590614e13565b9050612161565b50606660009054906101000a900473ffffffffffffffffffffffffffffffffffffffff1673ffffffffffffffffffffffffffffffffffffffff166327467a18826040518263ffffffff1660e01b81526004016123889190614a67565b600060405180830381600087803b1580156123a257600080fd5b505af11580156123b6573d6000803e3d6000fd5b505050506001606e60008373ffffffffffffffffffffffffffffffffffffffff1673ffffffffffffffffffffffffffffffffffffffff16815260200190815260200160002060050160046101000a81548160ff02191690831515021790555050565b6000606e60008373ffffffffffffffffffffffffffffffffffffffff1673ffffffffffffffffffffffffffffffffffffffff16815260200190815260200160002060050160009054906101000a900463ffffffff1663ffffffff16606e60008473ffffffffffffffffffffffffffffffffffffffff1673ffffffffffffffffffffffffffffffffffffffff168152602001908152602001600020600401546124be612fa4565b67ffffffffffffffff166124d291906155b6565b6124dc91906151a6565b606e60008473ffffffffffffffffffffffffffffffffffffffff1673ffffffffffffffffffffffffffffffffffffffff168152602001908152602001600020600301546125299190614ddf565b9050919050565b6000603360009054906101000a900473ffffffffffffffffffffffffffffffffffffffff16905081603360006101000a81548173ffffffffffffffffffffffffffffffffffffffff021916908373ffffffffffffffffffffffffffffffffffffffff1602179055508173ffffffffffffffffffffffffffffffffffffffff168173ffffffffffffffffffffffffffffffffffffffff167f8be0079c531659141344cd1fd0a4f28419497f9722a3daafe3b4186f6b6457e060405160405180910390a35050565b60008060019054906101000a900460ff161561266d5760018260ff161480156126255750612623306135a7565b155b612664576040517f08c379a000000000000000000000000000000000000000000000000000000000815260040161265b90615694565b60405180910390fd5b600090506126e1565b8160ff1660008054906101000a900460ff1660ff16106126c2576040517f08c379a00000000000000000000000000000000000000000000000000000000081526004016126b990615694565b60405180910390fd5b816000806101000a81548160ff021916908360ff160217905550600190505b919050565b60006126f260016125f6565b90508015612716576001600060016101000a81548160ff0219169083151502179055505b61271e6135ca565b61272a8585858561362b565b80156127835760008060016101000a81548160ff0219169083151502179055507f7f26b83ff96e1f2b6a682f133852f6798a09c465da95921460cefb3847402498600160405161277a91906150f9565b60405180910390a15b5050505050565b6000606660009054906101000a900473ffffffffffffffffffffffffffffffffffffffff1673ffffffffffffffffffffffffffffffffffffffff1663c87b303884846040518363ffffffff1660e01b81526004016127e99291906156b4565b602060405180830381865afa158015612806573d6000803e3d6000fd5b505050506040513d601f19601f8201168201806040525081019061282a9190614eff565b9050600073ffffffffffffffffffffffffffffffffffffffff168173ffffffffffffffffffffffffffffffffffffffff1603612892576040517f8791c3b400000000000000000000000000000000000000000000000000000000815260040160405180910390fd5b8073ffffffffffffffffffffffffffffffffffffffff163373ffffffffffffffffffffffffffffffffffffffff161415801561290157506128d161108d565b73ffffffffffffffffffffffffffffffffffffffff163373ffffffffffffffffffffffffffffffffffffffff1614155b15612938576040517f11ecf9f200000000000000000000000000000000000000000000000000000000815260040160405180910390fd5b505050565b61294681612418565b606e60008373ffffffffffffffffffffffffffffffffffffffff1673ffffffffffffffffffffffffffffffffffffffff16815260200190815260200160002060030181905550612994612fa4565b67ffffffffffffffff16606e60008373ffffffffffffffffffffffffffffffffffffffff1673ffffffffffffffffffffffffffffffffffffffff1681526020019081526020016000206004018190555050565b6129f182826137e9565b606660009054906101000a900473ffffffffffffffffffffffffffffffffffffffff1673ffffffffffffffffffffffffffffffffffffffff1663b2f569c5826040518263ffffffff1660e01b8152600401612a4c9190615746565b600060405180830381600087803b158015612a6657600080fd5b505af1158015612a7a573d6000803e3d6000fd5b50505050606e60008373ffffffffffffffffffffffffffffffffffffffff1673ffffffffffffffffffffffffffffffffffffffff16815260200190815260200160002060050160049054906101000a900460ff16612b4f57606e60008373ffffffffffffffffffffffffffffffffffffffff1673ffffffffffffffffffffffffffffffffffffffff168152602001908152602001600020600501600081819054906101000a900463ffffffff16612b3090615768565b91906101000a81548163ffffffff021916908363ffffffff1602179055505b612b58826139a1565b8173ffffffffffffffffffffffffffffffffffffffff167f671ada3835502b9498e4a3116c344293ec3a4ef43f90bb42283d7d66a3f772b282604051612b9e9190615746565b60405180910390a25050565b606660009054906101000a900473ffffffffffffffffffffffffffffffffffffffff1673ffffffffffffffffffffffffffffffffffffffff16639b4ddb5d8b8b8b8b8b8b8b8b8b6040518a63ffffffff1660e01b8152600401612c1599989796959493929190615980565b600060405180830381600087803b158015612c2f57600080fd5b505af1158015612c43573d6000803e3d6000fd5b505050506000606e60008c73ffffffffffffffffffffffffffffffffffffffff1673ffffffffffffffffffffffffffffffffffffffff16815260200190815260200160002090504381600601819055508060050160049054906101000a900460ff16612ce85780600501600081819054906101000a900463ffffffff16612cc990614e13565b91906101000a81548163ffffffff021916908363ffffffff1602179055505b60005b888890508163ffffffff161015612dc657600089898363ffffffff16818110612d1757612d16614d81565b5b9050602002016020810190612d2c9190614827565b9050612d37816131f3565b8260050160049054906101000a900460ff16612daa57606d60008263ffffffff1663ffffffff168152602001908152602001600020600501600081819054906101000a900463ffffffff16612d8b90614e13565b91906101000a81548163ffffffff021916908363ffffffff1602179055505b612db48d82613a82565b5080612dbf90614e13565b9050612ceb565b506000821115612ddb57612dda3383611897565b5b612de48b61136f565b15612e1b576040517fad3a8b9e00000000000000000000000000000000000000000000000000000000815260040160405180910390fd5b612e248b6139a1565b8a73ffffffffffffffffffffffffffffffffffffffff167f610eb3c1fafe229af536e91b7e00486902d54d54d8d3f0de283a467ac8f985bf8b8b8b8b8b8b8b8b8a60060154604051612e7e999897969594939291906159f7565b60405180910390a25050505050505050505050565b600080606660009054906101000a900473ffffffffffffffffffffffffffffffffffffffff1673ffffffffffffffffffffffffffffffffffffffff16632340e8d36040518163ffffffff1660e01b8152600401602060405180830381865afa158015612f03573d6000803e3d6000fd5b505050506040513d601f19601f82011682018060405250810190612f27919061503f565b63ffffffff16606860009054906101000a900467ffffffffffffffff1667ffffffffffffffff16606b5443612f5c91906155b6565b612f6691906151a6565b612f7091906151a6565b606a60009054906101000a900467ffffffffffffffff1667ffffffffffffffff16612f9b9190614ddf565b90508091505090565b6000606860009054906101000a900467ffffffffffffffff1660695443612fcb91906155b6565b612fd59190615347565b606860089054906101000a900467ffffffffffffffff16612ff6919061530b565b905090565b6000606f60008473ffffffffffffffffffffffffffffffffffffffff1673ffffffffffffffffffffffffffffffffffffffff16815260200190815260200160002060008363ffffffff1663ffffffff16815260200190815260200160002060020160009054906101000a900463ffffffff1663ffffffff16606660009054906101000a900473ffffffffffffffffffffffffffffffffffffffff1673ffffffffffffffffffffffffffffffffffffffff1663286966086040518163ffffffff1660e01b8152600401602060405180830381865afa1580156130e0573d6000803e3d6000fd5b505050506040513d601f19601f820116820180604052508101906131049190615a83565b61310e9190615347565b905092915050565b6000606d60008363ffffffff1663ffffffff16815260200190815260200160002060050160009054906101000a900463ffffffff1663ffffffff16606660009054906101000a900473ffffffffffffffffffffffffffffffffffffffff1673ffffffffffffffffffffffffffffffffffffffff1663286966086040518163ffffffff1660e01b8152600401602060405180830381865afa1580156131be573d6000803e3d6000fd5b505050506040513d601f19601f820116820180604052508101906131e29190615a83565b6131ec9190615347565b9050919050565b6000606d60008363ffffffff1663ffffffff168152602001908152602001600020905061321f82613a92565b81600201819055504381600001819055505050565b61323f838383613b13565b836001018190555061325081613bc6565b8360000181905550505050565b600080600090506000606660009054906101000a900473ffffffffffffffffffffffffffffffffffffffff1673ffffffffffffffffffffffffffffffffffffffff16630dc1eeff856040518263ffffffff1660e01b81526004016132c19190614a67565b600060405180830381865afa1580156132de573d6000803e3d6000fd5b505050506040513d6000823e3d601f19601f8201168201806040525081019061330791906154c2565b905060005b81518163ffffffff16101561336257613344828263ffffffff168151811061333757613336614d81565b5b6020026020010151613a92565b8361334f9190614ddf565b92508061335b90614e13565b905061330c565b508192505050919050565b60008061337983612418565b606e60008573ffffffffffffffffffffffffffffffffffffffff1673ffffffffffffffffffffffffffffffffffffffff168152602001908152602001600020600201546133c69190614ddf565b905060005b607060008573ffffffffffffffffffffffffffffffffffffffff1673ffffffffffffffffffffffffffffffffffffffff168152602001908152602001600020805490508163ffffffff16101561359d576000606f60008673ffffffffffffffffffffffffffffffffffffffff1673ffffffffffffffffffffffffffffffffffffffff1681526020019081526020016000206000607060008873ffffffffffffffffffffffffffffffffffffffff1673ffffffffffffffffffffffffffffffffffffffff1681526020019081526020016000208463ffffffff16815481106134b5576134b4614d81565b5b90600052602060002090600891828204019190066004029054906101000a900463ffffffff1663ffffffff1663ffffffff168152602001908152602001600020905061357e8186607060008973ffffffffffffffffffffffffffffffffffffffff1673ffffffffffffffffffffffffffffffffffffffff1681526020019081526020016000208563ffffffff168154811061355357613552614d81565b5b90600052602060002090600891828204019190066004029054906101000a900463ffffffff16613b13565b836135899190614ddf565b9250508061359690614e13565b90506133cb565b5080915050919050565b6000808273ffffffffffffffffffffffffffffffffffffffff163b119050919050565b600060019054906101000a900460ff16613619576040517f08c379a000000000000000000000000000000000000000000000000000000000815260040161361090615b22565b60405180910390fd5b6136296136246113da565b612530565b565b600060019054906101000a900460ff1661367a576040517f08c379a000000000000000000000000000000000000000000000000000000000815260040161367190615b22565b60405180910390fd5b83606660006101000a81548173ffffffffffffffffffffffffffffffffffffffff021916908373ffffffffffffffffffffffffffffffffffffffff16021790555082606760006101000a81548173ffffffffffffffffffffffffffffffffffffffff021916908373ffffffffffffffffffffffffffffffffffffffff16021790555061370582613ccf565b606660009054906101000a900473ffffffffffffffffffffffffffffffffffffffff1673ffffffffffffffffffffffffffffffffffffffff1663eb92db27826040518263ffffffff1660e01b81526004016137609190614f3b565b600060405180830381600087803b15801561377a57600080fd5b505af115801561378e573d6000803e3d6000fd5b5050505061379a611476565b6137a26114af565b6064600a826137b19190615347565b6137bb9190615b42565b606860006101000a81548167ffffffffffffffff021916908367ffffffffffffffff16021790555050505050565b6000606660009054906101000a900473ffffffffffffffffffffffffffffffffffffffff1673ffffffffffffffffffffffffffffffffffffffff1663053e8349836040518263ffffffff1660e01b81526004016138469190615746565b600060405180830381865afa158015613863573d6000803e3d6000fd5b505050506040513d6000823e3d601f19601f8201168201806040525081019061388c91906154c2565b905060005b81518163ffffffff16101561399b576000828263ffffffff16815181106138bb576138ba614d81565b5b602002602001015190506138ce816131f3565b606e60008673ffffffffffffffffffffffffffffffffffffffff1673ffffffffffffffffffffffffffffffffffffffff16815260200190815260200160002060050160049054906101000a900460ff1661397f57606d60008263ffffffff1663ffffffff168152602001908152602001600020600501600081819054906101000a900463ffffffff1661396090615768565b91906101000a81548163ffffffff021916908363ffffffff1602179055505b6139898582613cfb565b508061399490614e13565b9050613891565b50505050565b60006139ac82611564565b67ffffffffffffffff1603613a075743606e60008373ffffffffffffffffffffffffffffffffffffffff1673ffffffffffffffffffffffffffffffffffffffff16815260200190815260200160002060060181905550613a7f565b613a1081611564565b67ffffffffffffffff16613a2382611cd9565b613a2d9190615217565b43613a389190614ddf565b606e60008373ffffffffffffffffffffffffffffffffffffffff1673ffffffffffffffffffffffffffffffffffffffff168152602001908152602001600020600601819055505b50565b613a8e82826001613d0b565b5050565b6000613a9d82613116565b67ffffffffffffffff16606d60008463ffffffff1663ffffffff1681526020019081526020016000206000015443613ad591906155b6565b613adf91906151a6565b606d60008463ffffffff1663ffffffff16815260200190815260200160002060020154613b0c9190614ddf565b9050919050565b6000606e60008473ffffffffffffffffffffffffffffffffffffffff1673ffffffffffffffffffffffffffffffffffffffff16815260200190815260200160002060050160049054906101000a900460ff16613bab578360020160009054906101000a900463ffffffff1663ffffffff168460000154613b9284613bc6565b613b9c91906155b6565b613ba691906151a6565b613bae565b60005b8460010154613bbd9190614ddf565b90509392505050565b6000606d60008363ffffffff1663ffffffff1681526020019081526020016000206004015443613bf691906155b6565b606660009054906101000a900473ffffffffffffffffffffffffffffffffffffffff1673ffffffffffffffffffffffffffffffffffffffff1663286966086040518163ffffffff1660e01b8152600401602060405180830381865afa158015613c63573d6000803e3d6000fd5b505050506040513d601f19601f82011682018060405250810190613c879190615a83565b67ffffffffffffffff16613c9b91906151a6565b606d60008463ffffffff1663ffffffff16815260200190815260200160002060030154613cc89190614ddf565b9050919050565b80606760146101000a81548167ffffffffffffffff021916908367ffffffffffffffff16021790555050565b613d0782826000613d0b565b5050565b6000606f60008573ffffffffffffffffffffffffffffffffffffffff1673ffffffffffffffffffffffffffffffffffffffff16815260200190815260200160002060008463ffffffff1663ffffffff16815260200190815260200160002090508060020160089054906101000a900460ff161561423957613d8d818585613234565b8115613dd65780600201600081819054906101000a900463ffffffff16613db390614e13565b91906101000a81548163ffffffff021916908363ffffffff160217905550614234565b600081600201600081819054906101000a900463ffffffff16613df890615768565b91906101000a81548163ffffffff021916908363ffffffff160217905563ffffffff1603614233578060010154606e60008673ffffffffffffffffffffffffffffffffffffffff1673ffffffffffffffffffffffffffffffffffffffff1681526020019081526020016000206002016000828254613e769190614ddf565b92505081905550607060008573ffffffffffffffffffffffffffffffffffffffff1673ffffffffffffffffffffffffffffffffffffffff1681526020019081526020016000206001607060008773ffffffffffffffffffffffffffffffffffffffff1673ffffffffffffffffffffffffffffffffffffffff16815260200190815260200160002080549050613f0b91906155b6565b81548110613f1c57613f1b614d81565b5b90600052602060002090600891828204019190066004029054906101000a900463ffffffff16607060008673ffffffffffffffffffffffffffffffffffffffff1673ffffffffffffffffffffffffffffffffffffffff1681526020019081526020016000208260020160049054906101000a900463ffffffff1663ffffffff1681548110613fad57613fac614d81565b5b90600052602060002090600891828204019190066004026101000a81548163ffffffff021916908363ffffffff1602179055508060020160049054906101000a900463ffffffff16606f60008673ffffffffffffffffffffffffffffffffffffffff1673ffffffffffffffffffffffffffffffffffffffff1681526020019081526020016000206000607060008873ffffffffffffffffffffffffffffffffffffffff1673ffffffffffffffffffffffffffffffffffffffff1681526020019081526020016000208460020160049054906101000a900463ffffffff1663ffffffff16815481106140a1576140a0614d81565b5b90600052602060002090600891828204019190066004029054906101000a900463ffffffff1663ffffffff1663ffffffff16815260200190815260200160002060020160046101000a81548163ffffffff021916908363ffffffff160217905550607060008573ffffffffffffffffffffffffffffffffffffffff1673ffffffffffffffffffffffffffffffffffffffff16815260200190815260200160002080548061415157614150615b73565b5b60019003818190600052602060002090600891828204019190066004026101000a81549063ffffffff02191690559055606f60008573ffffffffffffffffffffffffffffffffffffffff1673ffffffffffffffffffffffffffffffffffffffff16815260200190815260200160002060008463ffffffff1663ffffffff16815260200190815260200160002060008082016000905560018201600090556002820160006101000a81549063ffffffff02191690556002820160046101000a81549063ffffffff02191690556002820160086101000a81549060ff021916905550505b5b6144a9565b603261ffff16607060008673ffffffffffffffffffffffffffffffffffffffff1673ffffffffffffffffffffffffffffffffffffffff1681526020019081526020016000208054905011156142ba576040517f9722180300000000000000000000000000000000000000000000000000000000815260040160405180910390fd5b6040518060a001604052806142ce85613bc6565b815260200160008152602001600163ffffffff168152602001607060008773ffffffffffffffffffffffffffffffffffffffff1673ffffffffffffffffffffffffffffffffffffffff1681526020019081526020016000208054905063ffffffff16815260200160011515815250606f60008673ffffffffffffffffffffffffffffffffffffffff1673ffffffffffffffffffffffffffffffffffffffff16815260200190815260200160002060008563ffffffff1663ffffffff168152602001908152602001600020600082015181600001556020820151816001015560408201518160020160006101000a81548163ffffffff021916908363ffffffff16021790555060608201518160020160046101000a81548163ffffffff021916908363ffffffff16021790555060808201518160020160086101000a81548160ff021916908315150217905550905050607060008573ffffffffffffffffffffffffffffffffffffffff1673ffffffffffffffffffffffffffffffffffffffff1681526020019081526020016000208390806001815401808255809150506001900390600052602060002090600891828204019190066004029091909190916101000a81548163ffffffff021916908363ffffffff1602179055505b50505050565b6000604051905090565b600080fd5b600080fd5b600073ffffffffffffffffffffffffffffffffffffffff82169050919050565b60006144ee826144c3565b9050919050565b6144fe816144e3565b811461450957600080fd5b50565b60008135905061451b816144f5565b92915050565b600060208284031215614537576145366144b9565b5b60006145458482850161450c565b91505092915050565b60008115159050919050565b6145638161454e565b82525050565b600060208201905061457e600083018461455a565b92915050565b600080fd5b600080fd5b600080fd5b60008083601f8401126145a9576145a8614584565b5b8235905067ffffffffffffffff8111156145c6576145c5614589565b5b6020830191508360208202830111156145e2576145e161458e565b5b9250929050565b600080600080600060608688031215614605576146046144b9565b5b60006146138882890161450c565b955050602086013567ffffffffffffffff811115614634576146336144be565b5b61464088828901614593565b9450945050604086013567ffffffffffffffff811115614663576146626144be565b5b61466f88828901614593565b92509250509295509295909350565b6000819050919050565b6146918161467e565b811461469c57600080fd5b50565b6000813590506146ae81614688565b92915050565b6000602082840312156146ca576146c96144b9565b5b60006146d88482850161469f565b91505092915050565b6146ea8161467e565b82525050565b600060208201905061470560008301846146e1565b92915050565b600081519050919050565b600082825260208201905092915050565b6000819050602082019050919050565b600063ffffffff82169050919050565b61475081614737565b82525050565b60006147628383614747565b60208301905092915050565b6000602082019050919050565b60006147868261470b565b6147908185614716565b935061479b83614727565b8060005b838110156147cc5781516147b38882614756565b97506147be8361476e565b92505060018101905061479f565b5085935050505092915050565b600060208201905081810360008301526147f3818461477b565b905092915050565b61480481614737565b811461480f57600080fd5b50565b600081359050614821816147fb565b92915050565b60006020828403121561483d5761483c6144b9565b5b600061484b84828501614812565b91505092915050565b600067ffffffffffffffff82169050919050565b61487181614854565b811461487c57600080fd5b50565b60008135905061488e81614868565b92915050565b6000602082840312156148aa576148a96144b9565b5b60006148b88482850161487f565b91505092915050565b600080604083850312156148d8576148d76144b9565b5b60006148e68582860161450c565b92505060206148f78582860161469f565b9150509250929050565b61490a81614737565b82525050565b60006020820190506149256000830184614901565b92915050565b60008083601f84011261494157614940614584565b5b8235905067ffffffffffffffff81111561495e5761495d614589565b5b60208301915083600182028301111561497a5761497961458e565b5b9250929050565b60008083601f84011261499757614996614584565b5b8235905067ffffffffffffffff8111156149b4576149b3614589565b5b6020830191508360018202830111156149d0576149cf61458e565b5b9250929050565b600080600080604085870312156149f1576149f06144b9565b5b600085013567ffffffffffffffff811115614a0f57614a0e6144be565b5b614a1b8782880161492b565b9450945050602085013567ffffffffffffffff811115614a3e57614a3d6144be565b5b614a4a87828801614981565b925092505092959194509250565b614a61816144e3565b82525050565b6000602082019050614a7c6000830184614a58565b92915050565b6000614a8d826144e3565b9050919050565b614a9d81614a82565b8114614aa857600080fd5b50565b600081359050614aba81614a94565b92915050565b6000614acb826144e3565b9050919050565b614adb81614ac0565b8114614ae657600080fd5b50565b600081359050614af881614ad2565b92915050565b60008060008060808587031215614b1857614b176144b9565b5b6000614b2687828801614aab565b9450506020614b3787828801614ae9565b9350506040614b488782880161487f565b9250506060614b598782880161487f565b91505092959194509250565b60008060208385031215614b7c57614b7b6144b9565b5b600083013567ffffffffffffffff811115614b9a57614b996144be565b5b614ba685828601614981565b92509250509250929050565b60008083601f840112614bc857614bc7614584565b5b8235905067ffffffffffffffff811115614be557614be4614589565b5b602083019150836020820283011115614c0157614c0061458e565b5b9250929050565b600080600080600080600080600060a08a8c031215614c2a57614c296144b9565b5b60008a013567ffffffffffffffff811115614c4857614c476144be565b5b614c548c828d01614981565b995099505060208a013567ffffffffffffffff811115614c7757614c766144be565b5b614c838c828d01614593565b975097505060408a013567ffffffffffffffff811115614ca657614ca56144be565b5b614cb28c828d01614bb2565b955095505060608a013567ffffffffffffffff811115614cd557614cd46144be565b5b614ce18c828d01614bb2565b93509350506080614cf48c828d0161469f565b9150509295985092959850929598565b600082825260208201905092915050565b7f4f776e61626c653a2063616c6c6572206973206e6f7420746865206f776e6572600082015250565b6000614d4b602083614d04565b9150614d5682614d15565b602082019050919050565b60006020820190508181036000830152614d7a81614d3e565b9050919050565b7f4e487b7100000000000000000000000000000000000000000000000000000000600052603260045260246000fd5b7f4e487b7100000000000000000000000000000000000000000000000000000000600052601160045260246000fd5b6000614dea8261467e565b9150614df58361467e565b9250828201905080821115614e0d57614e0c614db0565b5b92915050565b6000614e1e82614737565b915063ffffffff8203614e3457614e33614db0565b5b600182019050919050565b6000604082019050614e546000830185614a58565b614e6160208301846146e1565b9392505050565b614e718161454e565b8114614e7c57600080fd5b50565b600081519050614e8e81614e68565b92915050565b600060208284031215614eaa57614ea96144b9565b5b6000614eb884828501614e7f565b91505092915050565b6000604082019050614ed660008301856146e1565b614ee360208301846146e1565b9392505050565b600081519050614ef9816144f5565b92915050565b600060208284031215614f1557614f146144b9565b5b6000614f2384828501614eea565b91505092915050565b614f3581614854565b82525050565b6000602082019050614f506000830184614f2c565b92915050565b82818337600083830152505050565b6000601f19601f8301169050919050565b6000614f828385614d04565b9350614f8f838584614f56565b614f9883614f65565b840190509392505050565b600082825260208201905092915050565b6000614fc08385614fa3565b9350614fcd838584614f56565b614fd683614f65565b840190509392505050565b60006060820190508181036000830152614ffc818789614f76565b905061500b6020830186614a58565b818103604083015261501e818486614fb4565b90509695505050505050565b600081519050615039816147fb565b92915050565b600060208284031215615055576150546144b9565b5b60006150638482850161502a565b91505092915050565b60006040820190508181036000830152615087818688614f76565b9050818103602083015261509c818486614fb4565b905095945050505050565b6000819050919050565b600060ff82169050919050565b6000819050919050565b60006150e36150de6150d9846150a7565b6150be565b6150b1565b9050919050565b6150f3816150c8565b82525050565b600060208201905061510e60008301846150ea565b92915050565b7f4f776e61626c653a206e6577206f776e657220697320746865207a65726f206160008201527f6464726573730000000000000000000000000000000000000000000000000000602082015250565b6000615170602683614d04565b915061517b82615114565b604082019050919050565b6000602082019050818103600083015261519f81615163565b9050919050565b60006151b18261467e565b91506151bc8361467e565b92508282026151ca8161467e565b915082820484148315176151e1576151e0614db0565b5b5092915050565b7f4e487b7100000000000000000000000000000000000000000000000000000000600052601260045260246000fd5b60006152228261467e565b915061522d8361467e565b92508261523d5761523c6151e8565b5b828204905092915050565b60006152538261467e565b915061525e8361467e565b92508261526e5761526d6151e8565b5b828206905092915050565b7f507265636973696f6e206973206f76657220746865206d6178696d756d20646560008201527f66696e6564000000000000000000000000000000000000000000000000000000602082015250565b60006152d5602583614d04565b91506152e082615279565b604082019050919050565b60006020820190508181036000830152615304816152c8565b9050919050565b600061531682614854565b915061532183614854565b9250828201905067ffffffffffffffff81111561534157615340614db0565b5b92915050565b600061535282614854565b915061535d83614854565b925082820261536b81614854565b915080821461537d5761537c614db0565b5b5092915050565b7f4e487b7100000000000000000000000000000000000000000000000000000000600052604160045260246000fd5b6153bc82614f65565b810181811067ffffffffffffffff821117156153db576153da615384565b5b80604052505050565b60006153ee6144af565b90506153fa82826153b3565b919050565b600067ffffffffffffffff82111561541a57615419615384565b5b602082029050602081019050919050565b600061543e615439846153ff565b6153e4565b905080838252602082019050602084028301858111156154615761546061458e565b5b835b8181101561548a5780615476888261502a565b845260208401935050602081019050615463565b5050509392505050565b600082601f8301126154a9576154a8614584565b5b81516154b984826020860161542b565b91505092915050565b6000602082840312156154d8576154d76144b9565b5b600082015167ffffffffffffffff8111156154f6576154f56144be565b5b61550284828501615494565b91505092915050565b600061551682614854565b915061552183614854565b9250828203905067ffffffffffffffff81111561554157615540614db0565b5b92915050565b600060608201905061555c6000830186614a58565b6155696020830185614a58565b61557660408301846146e1565b949350505050565b600061558982614737565b915061559483614737565b9250828201905063ffffffff8111156155b0576155af614db0565b5b92915050565b60006155c18261467e565b91506155cc8361467e565b92508282039050818111156155e4576155e3614db0565b5b92915050565b60006155f582614737565b915061560083614737565b9250828203905063ffffffff81111561561c5761561b614db0565b5b92915050565b7f496e697469616c697a61626c653a20636f6e747261637420697320616c72656160008201527f647920696e697469616c697a6564000000000000000000000000000000000000602082015250565b600061567e602e83614d04565b915061568982615622565b604082019050919050565b600060208201905081810360008301526156ad81615671565b9050919050565b600060208201905081810360008301526156cf818486614fb4565b90509392505050565b600081519050919050565b60005b838110156157015780820151818401526020810190506156e6565b60008484015250505050565b6000615718826156d8565b6157228185614fa3565b93506157328185602086016156e3565b61573b81614f65565b840191505092915050565b60006020820190508181036000830152615760818461570d565b905092915050565b600061577382614737565b91506000820361578657615785614db0565b5b600182039050919050565b6000819050919050565b60006157aa6020840184614812565b905092915050565b6000602082019050919050565b60006157cb8385614716565b93506157d682615791565b8060005b8581101561580f576157ec828461579b565b6157f68882614756565b9750615801836157b2565b9250506001810190506157da565b5085925050509392505050565b600082825260208201905092915050565b6000819050919050565b600082825260208201905092915050565b60006158548385615837565b9350615861838584614f56565b61586a83614f65565b840190509392505050565b6000615882848484615848565b90509392505050565b600080fd5b600080fd5b600080fd5b600080833560016020038436030381126158b7576158b6615895565b5b83810192508235915060208301925067ffffffffffffffff8211156158df576158de61588b565b5b6001820236038313156158f5576158f4615890565b5b509250929050565b6000602082019050919050565b6000615916838561581c565b9350836020840285016159288461582d565b8060005b8781101561596e578484038952615943828461589a565b61594e868284615875565b9550615959846158fd565b935060208b019a50505060018101905061592c565b50829750879450505050509392505050565b600060a082019050615995600083018c614a58565b81810360208301526159a8818a8c614fb4565b905081810360408301526159bd81888a6157bf565b905081810360608301526159d281868861590a565b905081810360808301526159e781848661590a565b90509a9950505050505050505050565b600060a0820190508181036000830152615a12818b8d614fb4565b90508181036020830152615a2781898b6157bf565b90508181036040830152615a3c81878961590a565b90508181036060830152615a5181858761590a565b9050615a6060808301846146e1565b9a9950505050505050505050565b600081519050615a7d81614868565b92915050565b600060208284031215615a9957615a986144b9565b5b6000615aa784828501615a6e565b91505092915050565b7f496e697469616c697a61626c653a20636f6e7472616374206973206e6f74206960008201527f6e697469616c697a696e67000000000000000000000000000000000000000000602082015250565b6000615b0c602b83614d04565b9150615b1782615ab0565b604082019050919050565b60006020820190508181036000830152615b3b81615aff565b9050919050565b6000615b4d82614854565b9150615b5883614854565b925082615b6857615b676151e8565b5b828204905092915050565b7f4e487b7100000000000000000000000000000000000000000000000000000000600052603160045260246000fdfea2646970667358221220fe6bb667766f908e9b4a61649064145ad0c583d9dd67228c0b05c012f1a5f72264736f6c63430008110033",
  "immutableReferences": {},
  "source": "// File: contracts/SafeStakeNetwork.sol\n// SPDX-License-Identifier: GPL-3.0-or-later\npragma solidity ^0.8.2;\n\nimport \"@openzeppelin/contracts/token/ERC20/IERC20.sol\";\nimport \"@openzeppelin/contracts-upgradeable/access/OwnableUpgradeable.sol\";\nimport \"./utils/VersionedContract.sol\";\nimport \"./utils/Types.sol\";\nimport \"./ISafeStakeNetwork.sol\";\nimport \"./ISafeStakeCount.sol\";\n\ncontract SafeStakeNetwork is OwnableUpgradeable, ISafeStakeNetwork, VersionedContract {\n    using Types256 for uint256;\n    using Types64 for uint64;\n\n    struct OperatorData {\n        uint256 blockNumber;\n        uint256 claimBlockNumber;\n        uint256 earnings;\n        uint256 index;\n        uint256 indexBlockNumber;\n        uint32 activeValidatorCount;\n    }\n\n    struct OwnerData {\n        uint256 deposited;\n        uint256 withdrawn;\n        uint256 used;\n        uint256 networkFee;\n        uint256 networkFeeIndex;\n        uint32 activeValidatorCount;\n        bool validatorsDisabled;\n        uint256 paidBlockNumber;\n    }\n\n    struct OperatorInUse {\n        uint256 index;\n        uint256 used;\n        uint32 validatorCount;\n        uint32 indexInArray;\n        bool exists;\n    }\n\n    // struct FeeChangeRequest {\n    //     uint64 fee;\n    //     uint256 approvalBeginTime;\n    //     uint256 approvalEndTime;\n    // }\n    ISafeStakeCount private _SafeStakeCountContract;\n    ISafeStakeRegistry private _SafeStakeRegistryContract;\n    IERC20 private _token;\n    // uint64 private _minimumBlocksBeforeLiquidation;\n    // uint64 private _operatorMaxFeeIncrease;\n\n    uint64 private _minimumBlocksValidatorPay;\n\n    uint64 private _networkFee;\n    uint64 private _networkFeeIndex;\n    uint256 private _networkFeeIndexBlockNumber;\n    uint64 private _networkEarnings;\n    uint256 private _networkEarningsBlockNumber;\n    uint64 private _withdrawnFromTreasury;\n\n    mapping(uint32 => OperatorData) private _operatorDatas;\n    mapping(address => OwnerData) private _owners;\n    mapping(address => mapping(uint32 => OperatorInUse)) private _operatorsInUseByAddress;\n    mapping(address => uint32[]) private _operatorsInUseList;\n\n    // uint64 private _declareOperatorFeePeriod;\n    // uint64 private _executeOperatorFeePeriod;\n    // mapping(uint32 => FeeChangeRequest) private _feeChangeRequests;\n\n    // uint16 constant private MINIMAL_OPERATOR_FEE = 1000;\n    uint16 constant private MANAGING_OPERATORS_PER_ACCOUNT_LIMIT = 50;\n    // uint16 constant private MINIMAL_LIQUIDATION_THRESHOLD = 6570;\n\n\n    function initialize(\n        ISafeStakeRegistry registryAddress_,\n        IERC20 token_,\n        uint64 minimumBlocksBeforeLiquidation_,\n        // uint64 operatorMaxFeeIncrease_,\n        // uint64 declareOperatorFeePeriod_,\n        // uint64 executeOperatorFeePeriod_,\n        uint64 operatorFee\n    ) external initializer override {\n        // __SafeStakeNetwork_init(registryAddress_, token_, minimumBlocksBeforeLiquidation_, operatorMaxFeeIncrease_, declareOperatorFeePeriod_, executeOperatorFeePeriod_, operatorFee);\n        __SafeStakeNetwork_init(registryAddress_, token_, minimumBlocksBeforeLiquidation_, operatorFee);\n    }\n\n    function __SafeStakeNetwork_init(\n        ISafeStakeRegistry registryAddress_,\n        IERC20 token_,\n        uint64 minimumBlocksBeforeLiquidation_,\n        // uint64 operatorMaxFeeIncrease_,\n        // uint64 declareOperatorFeePeriod_,\n        // uint64 executeOperatorFeePeriod_,\n        uint64 operatorFee\n    ) internal initializer {\n        __Ownable_init_unchained();\n        // __SafeStakeNetwork_init_unchained(registryAddress_, token_, minimumBlocksBeforeLiquidation_, operatorMaxFeeIncrease_, declareOperatorFeePeriod_, executeOperatorFeePeriod_, operatorFee);\n        __SafeStakeNetwork_init_unchained(registryAddress_, token_, minimumBlocksBeforeLiquidation_, operatorFee);\n    }\n\n    function __SafeStakeNetwork_init_unchained(\n        ISafeStakeRegistry registryAddress_,\n        IERC20 token_,\n        uint64 minimumBlocksBeforeLiquidation_,\n        // uint64 operatorMaxFeeIncrease_,\n        // uint64 declareOperatorFeePeriod_,\n        // uint64 executeOperatorFeePeriod_,\n        uint64 operatorFee\n    ) internal onlyInitializing {\n        _SafeStakeRegistryContract = registryAddress_;\n        _token = token_;\n        _updateLiquidationThresholdPeriod(minimumBlocksBeforeLiquidation_);\n        // _updateOperatorFeeIncreaseLimit(operatorMaxFeeIncrease_);\n        // _updateDeclareOperatorFeePeriod(declareOperatorFeePeriod_);\n        // _updateExecuteOperatorFeePeriod(executeOperatorFeePeriod_);\n        _SafeStakeRegistryContract.initialize(operatorFee);\n        _updateNetworkEarnings();\n        _updateNetworkFeeIndex();\n        _networkFee = operatorFee * 10 / 100;\n    }\n\n    modifier onlyValidatorOwnerOrContractOwner(bytes calldata publicKey) {\n        _onlyValidatorOwnerOrContractOwner(publicKey);\n        _;\n    }\n\n    modifier onlyOperatorOwnerOrContractOwner(uint32 operatorId) {\n        _onlyOperatorOwnerOrContractOwner(operatorId);\n        _;\n    }\n\n    // modifier ensureMinimalOperatorFee(uint256 fee) {\n    //     _ensureMinimalOperatorFee(fee.shrink());\n    //     _;\n    // }\n\n    /**\n     * @dev See {ISafeStakeNetwork-registerOperator}.\n     */\n    function registerOperator(\n        string calldata name,\n        bytes calldata publicKey\n    ) external override returns (uint32 operatorId) {\n        operatorId = _SafeStakeRegistryContract.registerOperator(\n            name,\n            msg.sender,\n            publicKey\n        );\n\n        _operatorDatas[operatorId] = OperatorData({ blockNumber: block.number, earnings: 0, index: 0, indexBlockNumber: block.number, claimBlockNumber: block.number, activeValidatorCount: 0 });\n        emit OperatorRegistration(operatorId, name, msg.sender, publicKey);\n    }\n\n    /**\n     * @dev See {ISafeStakeNetwork-removeOperator}.\n     */\n    function removeOperator(uint32 operatorId) onlyOperatorOwnerOrContractOwner(operatorId) external override {\n        address owner = _SafeStakeRegistryContract.getOperatorOwner(operatorId);\n\n        _SafeStakeRegistryContract.removeOperator(operatorId);\n\n        emit OperatorRemoval(operatorId, owner);\n    }\n\n    // function declareOperatorFee(uint32 operatorId, uint256 operatorFee) onlyOperatorOwnerOrContractOwner(operatorId) ensureMinimalOperatorFee(operatorFee) external override {\n    //     if (operatorFee.shrink() > _SafeStakeRegistryContract.getOperatorFee() * (10000 + _operatorMaxFeeIncrease) / 10000) {\n    //         revert FeeExceedsIncreaseLimit();\n    //     }\n    //     _feeChangeRequests[operatorId] = FeeChangeRequest(operatorFee.shrink(), block.timestamp + _declareOperatorFeePeriod, block.timestamp + _declareOperatorFeePeriod + _executeOperatorFeePeriod);\n\n    //     emit OperatorFeeDeclaration(msg.sender, operatorId, block.number, operatorFee);\n    // }\n\n    // function cancelDeclaredOperatorFee(uint32 operatorId) onlyOperatorOwnerOrContractOwner(operatorId) external override {\n    //     delete _feeChangeRequests[operatorId];\n\n    //     emit DeclaredOperatorFeeCancelation(msg.sender, operatorId);\n    // }\n\n    // function executeOperatorFee(uint32 operatorId) onlyOperatorOwnerOrContractOwner(operatorId) external override {\n    //     FeeChangeRequest storage feeChangeRequest = _feeChangeRequests[operatorId];\n\n    //     if(feeChangeRequest.fee == 0) {\n    //         revert NoPendingFeeChangeRequest();\n    //     }\n    //     if(block.timestamp < feeChangeRequest.approvalBeginTime || block.timestamp > feeChangeRequest.approvalEndTime) {\n    //         revert ApprovalNotWithinTimeframe();\n    //     }\n\n    //     _updateOperatorFeeUnsafe(operatorId, feeChangeRequest.fee);\n\n    //     emit OperatorFeeExecution(msg.sender, operatorId, block.number, feeChangeRequest.fee.expand());\n\n    //     delete _feeChangeRequests[operatorId];\n    // }\n\n    // function updateOperatorScore(uint32 operatorId, uint32 score) onlyOwner external override {\n    //     _SafeStakeRegistryContract.updateOperatorScore(operatorId, score);\n\n    //     emit OperatorScoreUpdate(operatorId, msg.sender, block.number, score);\n    // }\n\n    /**\n     * @dev See {ISafeStakeNetwork-registerValidator}.\n     */\n    function registerValidator(\n        bytes calldata publicKey,\n        uint32[] calldata operatorIds,\n        bytes[] calldata sharesPublicKeys,\n        bytes[] calldata sharesEncrypted,\n        uint256 amount\n    ) external override {\n        _updateNetworkEarnings();\n        _updateAddressNetworkFee(msg.sender);\n        _registerValidatorUnsafe(msg.sender, publicKey, operatorIds, sharesPublicKeys, sharesEncrypted, amount);\n    }\n\n    /**\n     * @dev See {ISafeStakeNetwork-registerInitializer}.\n     */\n    // function registerInitializer(\n    //     uint32[] calldata operatorIds\n    // ) external override returns(uint32 initializerId) {\n    //     if (!_checkTwoOperatorsFromParaDao(operatorIds)) {\n    //         revert NoEnoughParaStateDaoOperators();\n    //     }\n    //     initializerId = _SafeStakeRegistryContract.registerInitializer(msg.sender, operatorIds);\n\n    //     emit InitializerRegistration(initializerId, msg.sender, operatorIds);\n    // }\n\n    /**\n     * @dev See {ISafeStakeNetwork-initializerPreStake}.\n     */\n    // function initializerPreStake(\n    //     uint32 initializerId,\n    //     bytes calldata validatorPublicKey,\n    //     address miniPoolAddress\n    // ) external override{\n    //     _onlyInitializerOwner(initializerId);\n    //     _SafeStakeRegistryContract.initializerPreStatke(initializerId, validatorPublicKey, miniPoolAddress);\n    //     emit InitializerMiniPoolCreated(initializerId, validatorPublicKey, miniPoolAddress);\n    // }\n\n    /**\n     * @dev See {ISafeStakeNetwork-initializerMiniPoolReady}.\n     */\n    // function initializerMiniPoolReady(\n    //     uint32 initializerId\n    // ) external override {\n    //     _onlyInitializerOwner(initializerId);\n    //     _SafeStakeRegistryContract.initializerReady(initializerId);\n    //     emit InitializerMiniPoolReady(initializerId);\n    // }\n\n    // function initializerStake(\n    //     uint32 initializerId\n    // ) external override {\n    //     _onlyInitializerOwner(initializerId);\n    //     _SafeStakeRegistryContract.initializerStake(initializerId);\n    // }\n\n\n    /**\n     * @dev See {ISafeStakeNetwork-updateValidator}.\n     */\n    // function updateValidator(\n    //     bytes calldata publicKey,\n    //     uint32[] calldata operatorIds,\n    //     bytes[] calldata sharesPublicKeys,\n    //     bytes[] calldata sharesEncrypted,\n    //     uint256 amount\n    // ) onlyValidatorOwnerOrContractOwner(publicKey) external override {\n    //     _removeValidatorUnsafe(msg.sender, publicKey);\n    //     _registerValidatorUnsafe(msg.sender, publicKey, operatorIds, sharesPublicKeys, sharesEncrypted, amount);\n    // }\n\n    /**\n     * @dev See {ISafeStakeNetwork-removeValidator}.\n     */\n    function removeValidator(bytes calldata publicKey) onlyValidatorOwnerOrContractOwner(publicKey) external override {\n        _updateNetworkEarnings();\n        _updateAddressNetworkFee(msg.sender);\n        _removeValidatorUnsafe(msg.sender, publicKey);\n        _totalBalanceOf(msg.sender); // For assertion\n    }\n\n    function deposit(address ownerAddress, uint256 amount) external override {\n        _deposit(ownerAddress, amount);\n    }\n\n    function withdraw(uint256 amount) external override {\n        if(_totalBalanceOf(msg.sender) < amount.shrink()) {\n            revert NotEnoughBalance();\n        }\n\n        _withdrawUnsafe(amount.shrink());\n\n        if(_liquidatable(msg.sender)) {\n            revert NotEnoughBalance();\n        }\n    }\n\n    // function withdrawAll() external override {\n    //     if(_burnRate(msg.sender) > 0) {\n    //         revert BurnRatePositive();\n    //     }\n\n    //     _withdrawUnsafe(_totalBalanceOf(msg.sender));\n    // }\n\n    // function liquidate(address[] calldata ownerAddresses) external override {\n    //     uint64 balanceToTransfer = 0;\n\n    //     for (uint32 index = 0; index < ownerAddresses.length; ++index) {\n    //         if (_canLiquidate(ownerAddresses[index])) {\n    //             balanceToTransfer += _liquidateUnsafe(ownerAddresses[index]);\n    //         }\n    //     }\n\n    //     _token.transfer(msg.sender, balanceToTransfer.expand());\n    // }\n\n    /**\n     * @dev See {ISafeStakeNetwork-disableAddress}.\n     */\n    function disableAddress(address ownerAddress) onlyOwner external override {\n        if (!_owners[ownerAddress].validatorsDisabled && _overdue(ownerAddress)) {\n            _disableOwnerValidatorsUnsafe(ownerAddress);\n            emit AccountDisable(ownerAddress);\n        }\n    }\n\n    function reactivateAccount(uint256 amount) external override {\n        if (!_owners[msg.sender].validatorsDisabled) {\n            revert AccountAlreadyEnabled();\n        }\n        _deposit(msg.sender, amount);\n        // _SafeStakeCountContract.deposit(msg.sender, amount);\n\n        _enableOwnerValidatorsUnsafe(msg.sender);\n\n        if(_liquidatable(msg.sender)) {\n            revert NotEnoughBalance();\n        }\n\n        emit AccountEnable(msg.sender);\n    }\n\n    // function updateLiquidationThresholdPeriod(uint64 blocks) external onlyOwner override {\n    //     if(blocks < MINIMAL_LIQUIDATION_THRESHOLD) {\n    //         revert BelowMinimumBlockPeriod();\n    //     }\n\n    //     _updateLiquidationThresholdPeriod(blocks);\n    // }\n\n    // function updateOperatorFeeIncreaseLimit(uint64 newOperatorMaxFeeIncrease) external onlyOwner override {\n    //     _updateOperatorFeeIncreaseLimit(newOperatorMaxFeeIncrease);\n    // }\n\n    // function updateDeclareOperatorFeePeriod(uint64 newDeclareOperatorFeePeriod) external onlyOwner override {\n    //     _updateDeclareOperatorFeePeriod(newDeclareOperatorFeePeriod);\n    // }\n\n    // function updateExecuteOperatorFeePeriod(uint64 newExecuteOperatorFeePeriod) external onlyOwner override {\n    //     _updateExecuteOperatorFeePeriod(newExecuteOperatorFeePeriod);\n    // }\n\n    /**\n     * @dev See {ISafeStakeNetwork-updateNetworkFee}.\n     */\n    function updateNetworkFee(uint256 fee) external onlyOwner override {\n        emit NetworkFeeUpdate(_networkFee.expand(), fee);\n        _updateNetworkEarnings();\n        _updateNetworkFeeIndex();\n        _networkFee = fee.shrink();\n    }\n\n    // function withdrawNetworkEarnings(uint256 amount) external onlyOwner override {\n    //     if(amount.shrink() > _getNetworkEarnings()) {\n    //         revert NotEnoughBalance();\n    //     }\n\n    //     _withdrawnFromTreasury += amount.shrink();\n    //     _token.transfer(msg.sender, amount);\n\n    //     emit NetworkFeesWithdrawal(amount, msg.sender);\n    // }\n\n    function getAddressBalance(address ownerAddress) external override view returns (uint256) {\n        return _totalBalanceOf(ownerAddress);\n    }\n\n    // function isLiquidated(address ownerAddress) external view override returns (bool) {\n    //     return _owners[ownerAddress].validatorsDisabled;\n    // }\n\n    /**\n     * @dev See {ISafeStakeNetwork-getOperatorById}.\n     */\n    // function getOperatorById(uint32 operatorId) external view override returns (string memory, address, bytes memory, uint256, uint256, uint256, bool) {\n    //     return _SafeStakeRegistryContract.getOperatorById(operatorId);\n    // }\n\n    // function getOperatorDeclaredFee(uint32 operatorId) external view override returns (uint256, uint256, uint256) {\n    //     FeeChangeRequest storage feeChangeRequest = _feeChangeRequests[operatorId];\n\n    //     return (feeChangeRequest.fee.expand(), feeChangeRequest.approvalBeginTime, feeChangeRequest.approvalEndTime);\n    // }\n\n    /**\n     * @dev See {ISafeStakeNetwork-getOperatorFee}.\n     */\n    // function getOperatorFee() external view override returns (uint256) {\n    //     return _SafeStakeRegistryContract.getOperatorFee().expand();\n    // }\n\n    /**\n     * @dev See {ISafeStakeNetwork-getOperatorsByValidator}.\n     */\n    // function getOperatorsByValidator(bytes memory publicKey) external view override returns (uint32[] memory) {\n    //     return _SafeStakeRegistryContract.getOperatorsByValidator(publicKey);\n    // }\n\n    /**\n     * @dev See {ISafeStakeNetwork-getValidatorsByAddress}.\n     */\n    // function getValidatorsByOwnerAddress(address ownerAddress) external view override returns (bytes[] memory) {\n    //     return _SafeStakeRegistryContract.getValidatorsByAddress(ownerAddress);\n    // }\n\n    /**\n     * @dev See {ISafeStakeNetwork-addressNetworkFee}.\n     */\n    function addressNetworkFee(address ownerAddress) external view override returns (uint256) {\n        return _addressNetworkFee(ownerAddress);\n    }\n\n    function getAddressBurnRate(address ownerAddress) external view override returns (uint256) {\n        return _burnRate(ownerAddress).expand();\n    }\n\n    function isLiquidatable(address ownerAddress) external view override returns (bool) {\n        return _liquidatable(ownerAddress);\n    }\n\n    function getNetworkFee() external view override returns (uint256) {\n        return _networkFee.expand();\n    }\n\n    // function getNetworkEarnings() external view override returns (uint256) {\n    //     return _getNetworkEarnings().expand();\n    // }\n\n    function getMinimumBlocksValidatorShouldPay() external view override returns (uint256) {\n        return _minimumBlocksValidatorPay;\n    }\n\n    // function getOperatorFeeIncreaseLimit() external view override returns (uint256) {\n    //     return _operatorMaxFeeIncrease;\n    // }\n\n    // function getExecuteOperatorFeePeriod() external view override returns (uint256) {\n    //     return _executeOperatorFeePeriod;\n    // }\n\n    // function getDeclaredOperatorFeePeriod() external view override returns (uint256) {\n    //     return _declareOperatorFeePeriod;\n    // }\n\n    // function validatorsPerOperatorCount(uint32 operatorId) external view returns (uint32) {\n    //     return _SafeStakeRegistryContract.validatorsPerOperatorCount(operatorId);\n    // }\n\n    function _deposit(address ownerAddress, uint256 amount) private {\n        _token.transferFrom(msg.sender, address(this), amount);\n        _owners[ownerAddress].deposited += amount.shrink();\n\n        emit FundsDeposit(amount, ownerAddress, msg.sender);\n    }\n\n    function _withdrawUnsafe(uint64 amount) private {\n        _owners[msg.sender].withdrawn += amount;\n        _token.transfer(msg.sender, amount.expand());\n\n        emit FundsWithdrawal(amount.expand(), msg.sender);\n    }\n\n    /**\n     * @dev Update paid block number for the address.\n     * @param ownerAddress Owner address.\n     */\n    function _updatePaidBlockNumber(address ownerAddress) private {\n        if (_burnRate(ownerAddress) == 0) {\n            _owners[ownerAddress].paidBlockNumber = block.number;\n        } else {\n            _owners[ownerAddress].paidBlockNumber =  block.number + _totalBalanceOf(ownerAddress) / _burnRate(ownerAddress);\n        }\n        \n    } \n\n    /**\n     * @dev Update network fee for the address.\n     * @param ownerAddress Owner address.\n     */\n    function _updateAddressNetworkFee(address ownerAddress) private {\n        _owners[ownerAddress].networkFee = _addressNetworkFee(ownerAddress);\n        _owners[ownerAddress].networkFeeIndex = _currentNetworkFeeIndex();\n    }\n\n    function _updateOperatorIndex(uint32 operatorId) private {\n        _operatorDatas[operatorId].index = _operatorIndexOf(operatorId);\n    }\n\n    /**\n     * @dev Updates operators's balance.\n     */\n    function _updateOperatorBalance(uint32 operatorId) private {\n        OperatorData storage operatorData = _operatorDatas[operatorId];\n        operatorData.earnings = _operatorEarningsOf(operatorId);\n        operatorData.blockNumber = block.number;\n    }\n\n    function _operatorClaimFee(uint32 operatorId, uint32 performance) private returns (uint256){\n        OperatorData storage operatorData = _operatorDatas[operatorId];\n        uint256 claimed = operatorData.earnings * performance / 100;\n        operatorData.earnings = 0;\n        operatorData.claimBlockNumber = block.number;\n        return claimed;\n    }\n\n    function accountClaimFee(address account, uint32[] calldata operatorIds, uint32[] calldata performances) external onlyOwner override {\n        uint256 total = 0;\n        for(uint32 index = 0; index < operatorIds.length; index++ ) {\n            total += _operatorClaimFee(operatorIds[index], performances[index]);\n        }\n        _token.transfer(account, total);\n    }\n\n    // function _liquidateUnsafe(address ownerAddress) private returns (uint64) {\n    //     _disableOwnerValidatorsUnsafe(ownerAddress);\n\n    //     uint64 balanceToTransfer = _totalBalanceOf(ownerAddress);\n\n    //     _owners[ownerAddress].used += balanceToTransfer;\n\n    //     emit AccountLiquidation(ownerAddress);\n\n    //     return balanceToTransfer;\n    // }\n\n    function _updateNetworkEarnings() private {\n        _networkEarnings = _getTotalNetworkEarnings();\n        _networkEarningsBlockNumber = block.number;\n    }\n\n    function _updateNetworkFeeIndex() private {\n        _networkFeeIndex = _currentNetworkFeeIndex();\n        _networkFeeIndexBlockNumber = block.number;\n    }\n\n    function _registerValidatorUnsafe(\n        address ownerAddress,\n        bytes calldata publicKey,\n        uint32[] calldata operatorIds,\n        bytes[] calldata sharesPublicKeys,\n        bytes[] calldata encryptedKeys,\n        uint256 tokenAmount) private {\n\n        _SafeStakeRegistryContract.registerValidator(\n            ownerAddress,\n            publicKey,\n            operatorIds,\n            sharesPublicKeys,\n            encryptedKeys\n        );\n\n        OwnerData storage owner = _owners[ownerAddress];\n        owner.paidBlockNumber = block.number;\n\n        if (!owner.validatorsDisabled) {\n            ++owner.activeValidatorCount;\n        }\n\n        for (uint32 index = 0; index < operatorIds.length; ++index) {\n            uint32 operatorId = operatorIds[index];\n            _updateOperatorBalance(operatorId);\n\n            if (!owner.validatorsDisabled) {\n                ++_operatorDatas[operatorId].activeValidatorCount;\n            }\n\n            _useOperatorByOwner(ownerAddress, operatorId);\n        }\n        if (tokenAmount > 0) {\n            _deposit(msg.sender, tokenAmount);\n        }\n\n        if(_liquidatable(ownerAddress)) {\n            revert NotEnoughBalance();\n        }\n\n        _updatePaidBlockNumber(ownerAddress);\n\n        emit ValidatorRegistration(ownerAddress, publicKey, operatorIds, sharesPublicKeys, encryptedKeys, owner.paidBlockNumber);\n    }\n\n    function _removeValidatorUnsafe(address ownerAddress, bytes memory publicKey) private {\n        _unregisterValidator(ownerAddress, publicKey);\n        _SafeStakeRegistryContract.removeValidator(publicKey);\n\n        if (!_owners[ownerAddress].validatorsDisabled) {\n            --_owners[ownerAddress].activeValidatorCount;\n        }\n        _updatePaidBlockNumber(ownerAddress);\n        emit ValidatorRemoval(ownerAddress, publicKey);\n    }\n\n    function _unregisterValidator(address ownerAddress, bytes memory publicKey) private {\n        // calculate balances for current operators in use and update their balances\n        uint32[] memory currentOperatorIds = _SafeStakeRegistryContract.getOperatorsByValidator(publicKey);\n        for (uint32 index = 0; index < currentOperatorIds.length; ++index) {\n            uint32 operatorId = currentOperatorIds[index];\n            _updateOperatorBalance(operatorId);\n\n            if (!_owners[ownerAddress].validatorsDisabled) {\n                --_operatorDatas[operatorId].activeValidatorCount;\n            }\n\n            _stopUsingOperatorByOwner(ownerAddress, operatorId);\n        }\n    }\n\n    function _useOperatorByOwner(address ownerAddress, uint32 operatorId) private {\n        _updateUsingOperatorByOwner(ownerAddress, operatorId, true);\n    }\n\n    function _stopUsingOperatorByOwner(address ownerAddress, uint32 operatorId) private {\n        _updateUsingOperatorByOwner(ownerAddress, operatorId, false);\n    }\n\n    // function _updateOperatorFeeUnsafe(uint32 operatorId, uint64 fee) private {\n    //     // OperatorData storage operatorData = _operatorDatas[operatorId];\n    //     _updateOperatorIndex(operatorId);\n    //     _operatorDatas[operatorId].indexBlockNumber = block.number;\n    //     _updateOperatorBalance(operatorId);\n    //     // _SafeStakeRegistryContract.updateOperatorFee(fee);\n    // }\n\n    function updateOperatorFee(uint64 fee) external override {\n        _SafeStakeRegistryContract.updateOperatorFee(fee);\n    }\n\n    /**\n     * @dev Updates the relation between operator and owner\n     * @param ownerAddress Owner address.\n     * @param increase Change value for validators amount.\n     */\n    function _updateUsingOperatorByOwner(address ownerAddress, uint32 operatorId, bool increase) private {\n        OperatorInUse storage operatorInUseData = _operatorsInUseByAddress[ownerAddress][operatorId];\n\n        if (operatorInUseData.exists) {\n            _updateOperatorUsageByOwner(operatorInUseData, ownerAddress, operatorId);\n\n            if (increase) {\n                ++operatorInUseData.validatorCount;\n            } else {\n                if (--operatorInUseData.validatorCount == 0) {\n                    _owners[ownerAddress].used += operatorInUseData.used;\n\n                    // remove from mapping and list;\n\n                    _operatorsInUseList[ownerAddress][operatorInUseData.indexInArray] = _operatorsInUseList[ownerAddress][_operatorsInUseList[ownerAddress].length - 1];\n                    _operatorsInUseByAddress[ownerAddress][_operatorsInUseList[ownerAddress][operatorInUseData.indexInArray]].indexInArray = operatorInUseData.indexInArray;\n                    _operatorsInUseList[ownerAddress].pop();\n\n                    delete _operatorsInUseByAddress[ownerAddress][operatorId];\n                }\n            }\n        } else {\n            if (_operatorsInUseList[ownerAddress].length > MANAGING_OPERATORS_PER_ACCOUNT_LIMIT) {\n                revert ExceedManagingOperatorsPerAccountLimit();\n            }\n\n            _operatorsInUseByAddress[ownerAddress][operatorId] = OperatorInUse({ index: _operatorIndexOf(operatorId), validatorCount: 1, used: 0, exists: true, indexInArray: uint32(_operatorsInUseList[ownerAddress].length) });\n            _operatorsInUseList[ownerAddress].push(operatorId);\n        }\n    }\n\n    function _disableOwnerValidatorsUnsafe(address ownerAddress) private {\n        _updateNetworkEarnings();\n        _updateAddressNetworkFee(ownerAddress);\n\n        for (uint32 index = 0; index < _operatorsInUseList[ownerAddress].length; ++index) {\n            uint32 operatorId = _operatorsInUseList[ownerAddress][index];\n            _updateOperatorBalance(operatorId);\n            OperatorInUse storage operatorInUseData = _operatorsInUseByAddress[ownerAddress][operatorId];\n            _updateOperatorUsageByOwner(operatorInUseData, ownerAddress, operatorId);\n            _operatorDatas[operatorId].activeValidatorCount -= operatorInUseData.validatorCount;\n        }\n\n        _SafeStakeRegistryContract.disableOwnerValidators(ownerAddress);\n\n        _owners[ownerAddress].validatorsDisabled = true;\n    }\n\n    function _enableOwnerValidatorsUnsafe(address ownerAddress) private {\n        _updateNetworkEarnings();\n        _updateAddressNetworkFee(ownerAddress);\n\n        for (uint32 index = 0; index < _operatorsInUseList[ownerAddress].length; ++index) {\n            uint32 operatorId = _operatorsInUseList[ownerAddress][index];\n            _updateOperatorBalance(operatorId);\n            OperatorInUse storage operatorInUseData = _operatorsInUseByAddress[ownerAddress][operatorId];\n            _updateOperatorUsageByOwner(operatorInUseData, ownerAddress, operatorId);\n            _operatorDatas[operatorId].activeValidatorCount += operatorInUseData.validatorCount;\n        }\n\n        _SafeStakeRegistryContract.enableOwnerValidators(ownerAddress);\n\n        _owners[ownerAddress].validatorsDisabled = false;\n    }\n\n    function _updateOperatorUsageByOwner(OperatorInUse storage operatorInUseData, address ownerAddress, uint32 operatorId) private {\n        operatorInUseData.used = _operatorInUseUsageOf(operatorInUseData, ownerAddress, operatorId);\n        operatorInUseData.index = _operatorIndexOf(operatorId);\n    }\n\n    function _updateLiquidationThresholdPeriod(uint64 newMinimumBlocksBeforeLiquidation) private {\n        _minimumBlocksValidatorPay = newMinimumBlocksBeforeLiquidation;\n\n        // emit LiquidationThresholdPeriodUpdate(_minimumBlocksValidatorPay);\n    }\n\n    // function _updateOperatorFeeIncreaseLimit(uint64 newOperatorMaxFeeIncrease) private {\n    //     _operatorMaxFeeIncrease = newOperatorMaxFeeIncrease;\n\n    //     emit OperatorFeeIncreaseLimitUpdate(_operatorMaxFeeIncrease);\n\n    // }\n\n    // function _updateDeclareOperatorFeePeriod(uint64 newDeclareOperatorFeePeriod) private {\n    //     _declareOperatorFeePeriod = newDeclareOperatorFeePeriod;\n\n    //     emit DeclareOperatorFeePeriodUpdate(newDeclareOperatorFeePeriod);\n    // }\n\n    // function _updateExecuteOperatorFeePeriod(uint64 newExecuteOperatorFeePeriod) private {\n    //     _executeOperatorFeePeriod = newExecuteOperatorFeePeriod;\n\n    //     emit ExecuteOperatorFeePeriodUpdate(newExecuteOperatorFeePeriod);\n    // }\n\n    function _expensesOf(address ownerAddress) private view returns(uint256) {\n        uint256 usage =  _owners[ownerAddress].used + _addressNetworkFee(ownerAddress);\n        for (uint32 index = 0; index < _operatorsInUseList[ownerAddress].length; ++index) {\n            OperatorInUse storage operatorInUseData = _operatorsInUseByAddress[ownerAddress][_operatorsInUseList[ownerAddress][index]];\n            usage += _operatorInUseUsageOf(operatorInUseData, ownerAddress, _operatorsInUseList[ownerAddress][index]);\n        }\n\n        return usage;\n    }\n\n    function _totalEarningsOf(address ownerAddress) private view returns (uint256) {\n        uint256 earnings = 0;\n        uint32[] memory operatorsByOwner = _SafeStakeRegistryContract.getOperatorsByOwnerAddress(ownerAddress);\n        for (uint32 index = 0; index < operatorsByOwner.length; ++index) {\n            earnings += _operatorEarningsOf(operatorsByOwner[index]);\n        }\n\n        return earnings;\n    }\n\n    function _totalBalanceOf(address ownerAddress) private view returns (uint256) {\n        uint256 balance = _owners[ownerAddress].deposited + _totalEarningsOf(ownerAddress);\n\n        uint256 usage = _owners[ownerAddress].withdrawn + _expensesOf(ownerAddress);\n\n        if(balance < usage) {\n            revert NegativeBalance();\n        }\n\n        return balance - usage;\n    }\n\n    function _operatorEarnRate(uint32 operatorId) private view returns (uint64) {\n        return _SafeStakeRegistryContract.getOperatorFee() * _operatorDatas[operatorId].activeValidatorCount;\n    }\n\n    /**\n     * @dev See {ISafeStakeNetwork-operatorEarningsOf}.\n     */\n    function _operatorEarningsOf(uint32 operatorId) private view returns (uint256) {\n        return _operatorDatas[operatorId].earnings +\n               uint256(block.number - _operatorDatas[operatorId].blockNumber) *\n               _operatorEarnRate(operatorId);\n    }\n\n    function _addressNetworkFee(address ownerAddress) private view returns (uint256) {\n        return _owners[ownerAddress].networkFee +\n              uint256(_currentNetworkFeeIndex() - _owners[ownerAddress].networkFeeIndex) *\n              _owners[ownerAddress].activeValidatorCount;\n    }\n\n    function _burnRate(address ownerAddress) private view returns (uint64 ownerBurnRate) {\n        if (_owners[ownerAddress].validatorsDisabled) {\n            return 0;\n        }\n\n        for (uint32 index = 0; index < _operatorsInUseList[ownerAddress].length; ++index) {\n            ownerBurnRate += _operatorInUseBurnRateWithNetworkFeeUnsafe(ownerAddress, _operatorsInUseList[ownerAddress][index]);\n        }\n\n        ownerBurnRate += _owners[ownerAddress].activeValidatorCount * _networkFee;\n\n        uint32[] memory operatorsByOwner = _SafeStakeRegistryContract.getOperatorsByOwnerAddress(ownerAddress);\n\n        for (uint32 index = 0; index < operatorsByOwner.length; ++index) {\n            if (ownerBurnRate <= _operatorEarnRate(operatorsByOwner[index])) {\n                return 0;\n            } else {\n                ownerBurnRate -= _operatorEarnRate(operatorsByOwner[index]);\n            }\n        }\n    }\n\n    function _overdue(address ownerAddress) private view returns (bool) {\n        return _totalBalanceOf(ownerAddress) < _minimumBlocksValidatorPay * _burnRate(ownerAddress);\n    }\n\n    /**\n     * @dev liquidatable means whether the validator can pay for the minimal fee.\n     */\n    function _liquidatable(address ownerAddress) private view returns (bool) {\n        return !_owners[ownerAddress].validatorsDisabled && _overdue(ownerAddress);\n    }\n\n    // function _canLiquidate(address ownerAddress) private view returns (bool) {\n    //     return !_owners[ownerAddress].validatorsDisabled && (msg.sender == ownerAddress || _overdue(ownerAddress));\n    // }\n\n    function _getTotalNetworkEarnings() private view returns (uint64) {\n        uint256 result = _networkEarnings + (block.number - _networkEarningsBlockNumber) * _networkFee * _SafeStakeRegistryContract.activeValidatorCount();\n        return uint64(result);\n    }\n\n    function _getNetworkEarnings() private view returns (uint64) {\n        return _getTotalNetworkEarnings() - _withdrawnFromTreasury;\n    }\n\n    /**\n     * @dev Get operator index by address.\n     */\n    function _operatorIndexOf(uint32 operatorId) private view returns (uint256) {\n        return _operatorDatas[operatorId].index +\n               _SafeStakeRegistryContract.getOperatorFee() *\n               (block.number - _operatorDatas[operatorId].indexBlockNumber);\n    }\n\n    function _operatorInUseUsageOf(OperatorInUse storage operatorInUseData, address ownerAddress, uint32 operatorId) private view returns (uint256) {\n        return operatorInUseData.used + (\n                _owners[ownerAddress].validatorsDisabled ? 0 :\n                (_operatorIndexOf(operatorId) - operatorInUseData.index) * operatorInUseData.validatorCount\n               );\n    }\n\n    function _operatorInUseBurnRateWithNetworkFeeUnsafe(address ownerAddress, uint32 operatorId) private view returns (uint64) {\n        // OperatorInUse storage operatorInUseData = _operatorsInUseByAddress[ownerAddress][operatorId];\n        return _SafeStakeRegistryContract.getOperatorFee() * _operatorsInUseByAddress[ownerAddress][operatorId].validatorCount;\n    }\n\n    /**\n     * @dev Returns the current network fee index\n     */\n    function _currentNetworkFeeIndex() private view returns(uint64) {\n        return _networkFeeIndex + uint64(block.number - _networkFeeIndexBlockNumber) * _networkFee;\n    }\n\n    function _onlyValidatorOwnerOrContractOwner(bytes calldata publicKey) private view {\n        address validatorOwner = _SafeStakeRegistryContract.getValidatorOwner(publicKey);\n        if (validatorOwner == address(0)) {\n            revert ValidatorWithPublicKeyNotExist();\n        }\n        if (msg.sender != validatorOwner && msg.sender != owner()) {\n            revert CallerNotValidatorOwner();\n        }\n    }\n\n    function _onlyOperatorOwnerOrContractOwner(uint32 operatorId) private view {\n        address operatorOwner = _SafeStakeRegistryContract.getOperatorOwner(operatorId);\n\n        if(operatorOwner == address(0)) {\n            revert OperatorWithPublicKeyNotExist();\n        }\n\n        if(msg.sender != operatorOwner && msg.sender != owner()) {\n            revert CallerNotOperatorOwner();\n        }\n    }\n\n    // function _onlyInitializerOwner(uint32 initializerId) private view {\n    //     address initializerOwner = _SafeStakeRegistryContract.getInitializerOwner(initializerId);\n\n    //     if (initializerOwner == address(0)) {\n    //         revert InitializerNotExist();\n    //     }\n\n    //     if (msg.sender != initializerOwner) {\n    //         revert CallerNotInitializerOwner();\n    //     }\n    // }\n\n    // function _ensureMinimalOperatorFee(uint64 fee) private pure {\n    //     if (fee < MINIMAL_OPERATOR_FEE) {\n    //         revert FeeTooLow();\n    //     }\n    // }\n\n    // function _checkTwoOperatorsFromParaDao(uint32[] calldata operatorIds) private view returns (bool) {\n    //     return  _SafeStakeRegistryContract.ifEnoughOperatorsFromParaStateDao(operatorIds);\n    // }\n\n\n    function version() external pure override returns (uint32) {\n        return 20000;\n    }\n\n    // function certifyOperatorFromDao(uint32 operatorId) external onlyOwner override {\n    //     _SafeStakeRegistryContract.certifyOperatorFromDao(operatorId);\n    // }\n\n    function getOperatorsInUseByOwnerAddress(address ownerAddress)\n        external override view\n        returns (uint32[] memory) {\n            return _operatorsInUseList[ownerAddress];\n    }\n\n    function getOperatorClaimBlock(uint32 operatorId) external view override returns (uint256) {\n        return _operatorDatas[operatorId].claimBlockNumber;\n    }\n\n    function getAccountPaidBlockNumber(address account) external view override returns (uint256) {\n        return _owners[account].paidBlockNumber;\n    }\n\n    uint256[50] ______gap;\n}",
  "sourcePath": "/Users/jiangjianlin/Github/safestake-tokenomics/contracts/SafeStakeNetwork.sol",
  "compiler": {
    "name": "solc",
    "version": "0.8.17+commit.8df45f5f.Emscripten.clang"
  },
  "schemaVersion": "3.4.10",
  "updatedAt": "2023-01-14T09:42:48.090Z",
  "networkType": "ethereum",
  "devdoc": {
    "kind": "dev",
    "methods": {
      "addressNetworkFee(address)": {
        "details": "See {ISafeStakeNetwork-addressNetworkFee}."
      },
      "disableAddress(address)": {
        "details": "See {ISafeStakeNetwork-disableAddress}."
      },
      "getAddressBalance(address)": {
        "details": "Gets total balance for an owner.",
        "params": {
          "ownerAddress": "Owner's address."
        }
      },
      "getMinimumBlocksValidatorShouldPay()": {
        "details": "Returns the number of blocks left for an owner before they can be liquidated."
      },
      "getOperatorsInUseByOwnerAddress(address)": {
        "details": "Returns operators for owner which are in use.",
        "params": {
          "ownerAddress": "Owner's address."
        }
      },
      "initialize(address,address,uint64,uint64)": {
        "details": "Initializes the contract.",
        "params": {
          "minimumBlocksBeforeLiquidation_": "The minimum blocks before liquidation.",
          "registryAddress_": "The registry address.",
          "token_": "The network token."
        }
      },
      "isLiquidatable(address)": {
        "details": "Check if an owner is liquidatable.",
        "params": {
          "ownerAddress": "Owner's address."
        }
      },
      "owner()": {
        "details": "Returns the address of the current owner."
      },
      "reactivateAccount(uint256)": {
        "details": "Enables msg.sender account.",
        "params": {
          "amount": "Tokens amount."
        }
      },
      "registerOperator(string,bytes)": {
        "details": "See {ISafeStakeNetwork-registerOperator}."
      },
      "registerValidator(bytes,uint32[],bytes[],bytes[],uint256)": {
        "details": "See {ISafeStakeNetwork-registerValidator}."
      },
      "removeOperator(uint32)": {
        "details": "See {ISafeStakeNetwork-removeOperator}."
      },
      "removeValidator(bytes)": {
        "details": "See {ISafeStakeNetwork-removeValidator}."
      },
      "renounceOwnership()": {
        "details": "Leaves the contract without owner. It will not be possible to call `onlyOwner` functions anymore. Can only be called by the current owner. NOTE: Renouncing ownership will leave the contract without an owner, thereby removing any functionality that is only available to the owner."
      },
      "transferOwnership(address)": {
        "details": "Transfers ownership of the contract to a new account (`newOwner`). Can only be called by the current owner."
      },
      "updateNetworkFee(uint256)": {
        "details": "See {ISafeStakeNetwork-updateNetworkFee}."
      }
    },
    "version": 1
  },
  "userdoc": {
    "errors": {
      "ValidatorWithPublicKeyNotExist()": [
        {
          "notice": "errors "
        }
      ]
    },
    "kind": "user",
    "methods": {},
    "version": 1
  },
  "db": {
    "callBytecode": {
      "id": "0x349219c3d3131fd760c80ca94458cf4b47996f85cf9751a97b2655d89b0681d2"
    },
    "createBytecode": {
      "id": "0x09b961970939342b1cc238945b42083a3bb9db926d5debb570ac5d9c914092aa"
    },
    "contract": {
      "id": "0x459b45649819210223fc56b894498e74f4951e5734250fb1b12276cd757ebbb8"
    }
  }
}