{
  "contractName": "SafeStakeNetwork",
  "abi": [
    {
      "inputs": [],
      "name": "AccountAlreadyEnabled",
      "type": "error"
    },
    {
      "inputs": [],
      "name": "ApprovalNotWithinTimeframe",
      "type": "error"
    },
    {
      "inputs": [],
      "name": "BelowMinimumBlockPeriod",
      "type": "error"
    },
    {
      "inputs": [],
      "name": "BurnRatePositive",
      "type": "error"
    },
    {
      "inputs": [],
      "name": "CallerNotInitializerOwner",
      "type": "error"
    },
    {
      "inputs": [],
      "name": "CallerNotOperatorOwner",
      "type": "error"
    },
    {
      "inputs": [],
      "name": "CallerNotValidatorOwner",
      "type": "error"
    },
    {
      "inputs": [],
      "name": "ExceedManagingOperatorsPerAccountLimit",
      "type": "error"
    },
    {
      "inputs": [],
      "name": "FeeExceedsIncreaseLimit",
      "type": "error"
    },
    {
      "inputs": [],
      "name": "FeeTooLow",
      "type": "error"
    },
    {
      "inputs": [],
      "name": "InitializerNotExist",
      "type": "error"
    },
    {
      "inputs": [],
      "name": "NegativeBalance",
      "type": "error"
    },
    {
      "inputs": [],
      "name": "NoEnoughParaStateDaoOperators",
      "type": "error"
    },
    {
      "inputs": [],
      "name": "NoPendingFeeChangeRequest",
      "type": "error"
    },
    {
      "inputs": [],
      "name": "NotEnoughBalance",
      "type": "error"
    },
    {
      "inputs": [],
      "name": "OperatorWithPublicKeyNotExist",
      "type": "error"
    },
    {
      "inputs": [],
      "name": "ValidatorWithPublicKeyNotExist",
      "type": "error"
    },
    {
      "anonymous": false,
      "inputs": [
        {
          "indexed": true,
          "internalType": "address",
          "name": "ownerAddress",
          "type": "address"
        }
      ],
      "name": "AccountDisable",
      "type": "event"
    },
    {
      "anonymous": false,
      "inputs": [
        {
          "indexed": true,
          "internalType": "address",
          "name": "ownerAddress",
          "type": "address"
        }
      ],
      "name": "AccountEnable",
      "type": "event"
    },
    {
      "anonymous": false,
      "inputs": [
        {
          "indexed": false,
          "internalType": "uint256",
          "name": "value",
          "type": "uint256"
        },
        {
          "indexed": true,
          "internalType": "address",
          "name": "ownerAddress",
          "type": "address"
        },
        {
          "indexed": true,
          "internalType": "address",
          "name": "senderAddress",
          "type": "address"
        }
      ],
      "name": "FundsDeposit",
      "type": "event"
    },
    {
      "anonymous": false,
      "inputs": [
        {
          "indexed": false,
          "internalType": "uint256",
          "name": "value",
          "type": "uint256"
        },
        {
          "indexed": true,
          "internalType": "address",
          "name": "ownerAddress",
          "type": "address"
        }
      ],
      "name": "FundsWithdrawal",
      "type": "event"
    },
    {
      "anonymous": false,
      "inputs": [
        {
          "indexed": false,
          "internalType": "uint8",
          "name": "version",
          "type": "uint8"
        }
      ],
      "name": "Initialized",
      "type": "event"
    },
    {
      "anonymous": false,
      "inputs": [
        {
          "indexed": false,
          "internalType": "uint32",
          "name": "initializerId",
          "type": "uint32"
        },
        {
          "indexed": false,
          "internalType": "bytes",
          "name": "validatorPublicKey",
          "type": "bytes"
        },
        {
          "indexed": false,
          "internalType": "address",
          "name": "minipoolAddress",
          "type": "address"
        }
      ],
      "name": "InitializerMiniPoolCreated",
      "type": "event"
    },
    {
      "anonymous": false,
      "inputs": [
        {
          "indexed": false,
          "internalType": "uint32",
          "name": "initializerId",
          "type": "uint32"
        }
      ],
      "name": "InitializerMiniPoolReady",
      "type": "event"
    },
    {
      "anonymous": false,
      "inputs": [
        {
          "indexed": false,
          "internalType": "uint32",
          "name": "initializerId",
          "type": "uint32"
        },
        {
          "indexed": true,
          "internalType": "address",
          "name": "ownerAddress",
          "type": "address"
        },
        {
          "indexed": false,
          "internalType": "uint32[]",
          "name": "operatorIds",
          "type": "uint32[]"
        }
      ],
      "name": "InitializerRegistration",
      "type": "event"
    },
    {
      "anonymous": false,
      "inputs": [
        {
          "indexed": false,
          "internalType": "uint256",
          "name": "value",
          "type": "uint256"
        }
      ],
      "name": "LiquidationThresholdPeriodUpdate",
      "type": "event"
    },
    {
      "anonymous": false,
      "inputs": [
        {
          "indexed": false,
          "internalType": "uint256",
          "name": "value",
          "type": "uint256"
        }
      ],
      "name": "MinimumBlocksBeforeLiquidationUpdate",
      "type": "event"
    },
    {
      "anonymous": false,
      "inputs": [
        {
          "indexed": false,
          "internalType": "uint256",
          "name": "oldFee",
          "type": "uint256"
        },
        {
          "indexed": false,
          "internalType": "uint256",
          "name": "newFee",
          "type": "uint256"
        }
      ],
      "name": "NetworkFeeUpdate",
      "type": "event"
    },
    {
      "anonymous": false,
      "inputs": [
        {
          "indexed": false,
          "internalType": "uint256",
          "name": "value",
          "type": "uint256"
        },
        {
          "indexed": false,
          "internalType": "address",
          "name": "recipient",
          "type": "address"
        }
      ],
      "name": "NetworkFeesWithdrawal",
      "type": "event"
    },
    {
      "anonymous": false,
      "inputs": [
        {
          "indexed": false,
          "internalType": "uint256",
          "name": "value",
          "type": "uint256"
        }
      ],
      "name": "OperatorMaxFeeIncreaseUpdate",
      "type": "event"
    },
    {
      "anonymous": false,
      "inputs": [
        {
          "indexed": true,
          "internalType": "uint32",
          "name": "id",
          "type": "uint32"
        },
        {
          "indexed": false,
          "internalType": "string",
          "name": "name",
          "type": "string"
        },
        {
          "indexed": true,
          "internalType": "address",
          "name": "ownerAddress",
          "type": "address"
        },
        {
          "indexed": false,
          "internalType": "bytes",
          "name": "publicKey",
          "type": "bytes"
        }
      ],
      "name": "OperatorRegistration",
      "type": "event"
    },
    {
      "anonymous": false,
      "inputs": [
        {
          "indexed": false,
          "internalType": "uint32",
          "name": "operatorId",
          "type": "uint32"
        },
        {
          "indexed": true,
          "internalType": "address",
          "name": "ownerAddress",
          "type": "address"
        }
      ],
      "name": "OperatorRemoval",
      "type": "event"
    },
    {
      "anonymous": false,
      "inputs": [
        {
          "indexed": false,
          "internalType": "uint32",
          "name": "operatorId",
          "type": "uint32"
        },
        {
          "indexed": true,
          "internalType": "address",
          "name": "ownerAddress",
          "type": "address"
        },
        {
          "indexed": false,
          "internalType": "uint256",
          "name": "blockNumber",
          "type": "uint256"
        },
        {
          "indexed": false,
          "internalType": "uint256",
          "name": "score",
          "type": "uint256"
        }
      ],
      "name": "OperatorScoreUpdate",
      "type": "event"
    },
    {
      "anonymous": false,
      "inputs": [
        {
          "indexed": true,
          "internalType": "address",
          "name": "previousOwner",
          "type": "address"
        },
        {
          "indexed": true,
          "internalType": "address",
          "name": "newOwner",
          "type": "address"
        }
      ],
      "name": "OwnershipTransferred",
      "type": "event"
    },
    {
      "anonymous": false,
      "inputs": [
        {
          "indexed": false,
          "internalType": "uint256",
          "name": "value",
          "type": "uint256"
        }
      ],
      "name": "RegisteredOperatorsPerAccountLimitUpdate",
      "type": "event"
    },
    {
      "anonymous": false,
      "inputs": [
        {
          "indexed": true,
          "internalType": "address",
          "name": "ownerAddress",
          "type": "address"
        },
        {
          "indexed": false,
          "internalType": "bytes",
          "name": "publicKey",
          "type": "bytes"
        },
        {
          "indexed": false,
          "internalType": "uint32[]",
          "name": "operatorIds",
          "type": "uint32[]"
        },
        {
          "indexed": false,
          "internalType": "bytes[]",
          "name": "sharesPublicKeys",
          "type": "bytes[]"
        },
        {
          "indexed": false,
          "internalType": "bytes[]",
          "name": "encryptedKeys",
          "type": "bytes[]"
        },
        {
          "indexed": false,
          "internalType": "uint256",
          "name": "paidBlockNumber",
          "type": "uint256"
        }
      ],
      "name": "ValidatorRegistration",
      "type": "event"
    },
    {
      "anonymous": false,
      "inputs": [
        {
          "indexed": true,
          "internalType": "address",
          "name": "ownerAddress",
          "type": "address"
        },
        {
          "indexed": false,
          "internalType": "bytes",
          "name": "publicKey",
          "type": "bytes"
        }
      ],
      "name": "ValidatorRemoval",
      "type": "event"
    },
    {
      "anonymous": false,
      "inputs": [
        {
          "indexed": false,
          "internalType": "uint256",
          "name": "value",
          "type": "uint256"
        }
      ],
      "name": "ValidatorsPerOperatorLimitUpdate",
      "type": "event"
    },
    {
      "inputs": [],
      "name": "owner",
      "outputs": [
        {
          "internalType": "address",
          "name": "",
          "type": "address"
        }
      ],
      "stateMutability": "view",
      "type": "function",
      "constant": true
    },
    {
      "inputs": [],
      "name": "renounceOwnership",
      "outputs": [],
      "stateMutability": "nonpayable",
      "type": "function"
    },
    {
      "inputs": [
        {
          "internalType": "address",
          "name": "newOwner",
          "type": "address"
        }
      ],
      "name": "transferOwnership",
      "outputs": [],
      "stateMutability": "nonpayable",
      "type": "function"
    },
    {
      "inputs": [
        {
          "internalType": "contract ISafeStakeRegistry",
          "name": "registryAddress_",
          "type": "address"
        },
        {
          "internalType": "contract IERC20",
          "name": "token_",
          "type": "address"
        },
        {
          "internalType": "uint64",
          "name": "minimumBlocksBeforeLiquidation_",
          "type": "uint64"
        },
        {
          "internalType": "uint64",
          "name": "operatorFee",
          "type": "uint64"
        }
      ],
      "name": "initialize",
      "outputs": [],
      "stateMutability": "nonpayable",
      "type": "function"
    },
    {
      "inputs": [
        {
          "internalType": "string",
          "name": "name",
          "type": "string"
        },
        {
          "internalType": "bytes",
          "name": "publicKey",
          "type": "bytes"
        }
      ],
      "name": "registerOperator",
      "outputs": [
        {
          "internalType": "uint32",
          "name": "operatorId",
          "type": "uint32"
        }
      ],
      "stateMutability": "nonpayable",
      "type": "function"
    },
    {
      "inputs": [
        {
          "internalType": "uint32",
          "name": "operatorId",
          "type": "uint32"
        }
      ],
      "name": "removeOperator",
      "outputs": [],
      "stateMutability": "nonpayable",
      "type": "function"
    },
    {
      "inputs": [
        {
          "internalType": "bytes",
          "name": "publicKey",
          "type": "bytes"
        },
        {
          "internalType": "uint32[]",
          "name": "operatorIds",
          "type": "uint32[]"
        },
        {
          "internalType": "bytes[]",
          "name": "sharesPublicKeys",
          "type": "bytes[]"
        },
        {
          "internalType": "bytes[]",
          "name": "sharesEncrypted",
          "type": "bytes[]"
        },
        {
          "internalType": "uint256",
          "name": "amount",
          "type": "uint256"
        }
      ],
      "name": "registerValidator",
      "outputs": [],
      "stateMutability": "nonpayable",
      "type": "function"
    },
    {
      "inputs": [
        {
          "internalType": "uint32[]",
          "name": "operatorIds",
          "type": "uint32[]"
        }
      ],
      "name": "registerInitializer",
      "outputs": [
        {
          "internalType": "uint32",
          "name": "initializerId",
          "type": "uint32"
        }
      ],
      "stateMutability": "nonpayable",
      "type": "function"
    },
    {
      "inputs": [
        {
          "internalType": "uint32",
          "name": "initializerId",
          "type": "uint32"
        },
        {
          "internalType": "bytes",
          "name": "validatorPublicKey",
          "type": "bytes"
        },
        {
          "internalType": "address",
          "name": "miniPoolAddress",
          "type": "address"
        }
      ],
      "name": "initializerPreStake",
      "outputs": [],
      "stateMutability": "nonpayable",
      "type": "function"
    },
    {
      "inputs": [
        {
          "internalType": "uint32",
          "name": "initializerId",
          "type": "uint32"
        }
      ],
      "name": "initializerMiniPoolReady",
      "outputs": [],
      "stateMutability": "nonpayable",
      "type": "function"
    },
    {
      "inputs": [
        {
          "internalType": "uint32",
          "name": "initializerId",
          "type": "uint32"
        }
      ],
      "name": "initializerStake",
      "outputs": [],
      "stateMutability": "nonpayable",
      "type": "function"
    },
    {
      "inputs": [
        {
          "internalType": "bytes",
          "name": "publicKey",
          "type": "bytes"
        }
      ],
      "name": "removeValidator",
      "outputs": [],
      "stateMutability": "nonpayable",
      "type": "function"
    },
    {
      "inputs": [
        {
          "internalType": "address",
          "name": "ownerAddress",
          "type": "address"
        }
      ],
      "name": "disableAddress",
      "outputs": [],
      "stateMutability": "nonpayable",
      "type": "function"
    },
    {
      "inputs": [
        {
          "internalType": "uint256",
          "name": "amount",
          "type": "uint256"
        }
      ],
      "name": "reactivateAccount",
      "outputs": [],
      "stateMutability": "nonpayable",
      "type": "function"
    },
    {
      "inputs": [
        {
          "internalType": "uint256",
          "name": "fee",
          "type": "uint256"
        }
      ],
      "name": "updateNetworkFee",
      "outputs": [],
      "stateMutability": "nonpayable",
      "type": "function"
    },
    {
      "inputs": [
        {
          "internalType": "uint256",
          "name": "amount",
          "type": "uint256"
        }
      ],
      "name": "withdrawNetworkEarnings",
      "outputs": [],
      "stateMutability": "nonpayable",
      "type": "function"
    },
    {
      "inputs": [],
      "name": "version",
      "outputs": [
        {
          "internalType": "uint32",
          "name": "",
          "type": "uint32"
        }
      ],
      "stateMutability": "pure",
      "type": "function",
      "constant": true
    }
  ],
  "bytecode": "0x608060405234801561001057600080fd5b50615f7680620000216000396000f3fe608060405234801561001057600080fd5b506004361061010b5760003560e01c806385f79d61116100a2578063d223174111610071578063d22317411461027a578063e40cb19d14610296578063f2fde38b146102b2578063f362dfd9146102ce578063ff131354146102ea5761010b565b806385f79d61146101f45780638da5cb5b146102245780639b4400dd14610242578063b2f569c51461025e5761010b565b806354fd4d50116100de57806354fd4d501461018057806364bf3eef1461019e578063715018a6146101ba5780637fa93ede146101c45761010b565b80631f1f9fd5146101105780632afe872f1461012c5780632e1d2f05146101485780635036258b14610164575b600080fd5b61012a60048036038101906101259190614868565b610306565b005b61014660048036038101906101419190614868565b610427565b005b610162600480360381019061015d91906148d1565b610546565b005b61017e6004803603810190610179919061495c565b6106db565b005b61018861080e565b6040516101959190614998565b60405180910390f35b6101b860048036038101906101b391906148d1565b610818565b005b6101c26108e8565b005b6101de60048036038101906101d99190614a18565b610970565b6040516101eb9190614998565b60405180910390f35b61020e60048036038101906102099190614b11565b610aae565b60405161021b9190614998565b60405180910390f35b61022c610cba565b6040516102399190614ba1565b60405180910390f35b61025c60048036038101906102579190614c78565b610ce4565b005b61027860048036038101906102739190614cdf565b610d80565b005b610294600480360381019061028f9190614868565b610dfb565b005b6102b060048036038101906102ab9190614d82565b611004565b005b6102cc60048036038101906102c7919061495c565b611032565b005b6102e860048036038101906102e391906148d1565b611129565b005b61030460048036038101906102ff9190614e7e565b6111c2565b005b61030e6112a1565b73ffffffffffffffffffffffffffffffffffffffff1661032c610cba565b73ffffffffffffffffffffffffffffffffffffffff1614610382576040517f08c379a000000000000000000000000000000000000000000000000000000000815260040161037990614f4f565b60405180910390fd5b7fb12de2022a8c992455195d1cdfe49c528c96a325adc99e12b6eab59d56654ea26103cc606760009054906101000a900467ffffffffffffffff1667ffffffffffffffff166112a9565b826040516103db929190614f7e565b60405180910390a16103eb6112d5565b6103f361130e565b6103fc81611347565b606760006101000a81548167ffffffffffffffff021916908367ffffffffffffffff16021790555050565b606d60003373ffffffffffffffffffffffffffffffffffffffff1673ffffffffffffffffffffffffffffffffffffffff168152602001908152602001600020600101600c9054906101000a900460ff166104ad576040517f44fab0e000000000000000000000000000000000000000000000000000000000815260040160405180910390fd5b6104b733826113c3565b6104c033611562565b6104c93361182d565b15610500576040517fad3a8b9e00000000000000000000000000000000000000000000000000000000815260040160405180910390fd5b3373ffffffffffffffffffffffffffffffffffffffff167fd2cad6abfa380a10a84c0e561544f8deb6eea7dd29a411fa306f902aa6ac5eca60405160405180910390a250565b8061055081611898565b6000606560009054906101000a900473ffffffffffffffffffffffffffffffffffffffff1673ffffffffffffffffffffffffffffffffffffffff1663e7b21748846040518263ffffffff1660e01b81526004016105ad9190614998565b602060405180830381865afa1580156105ca573d6000803e3d6000fd5b505050506040513d601f19601f820116820180604052508101906105ee9190614fbc565b90506105fb836000611a48565b606560009054906101000a900473ffffffffffffffffffffffffffffffffffffffff1673ffffffffffffffffffffffffffffffffffffffff16632e1d2f05846040518263ffffffff1660e01b81526004016106569190614998565b600060405180830381600087803b15801561067057600080fd5b505af1158015610684573d6000803e3d6000fd5b505050508073ffffffffffffffffffffffffffffffffffffffff167f10b90e3d042178ee9b3e99a849224b4bf4145b9855274073c0c6bca9c5113b7b846040516106ce9190614998565b60405180910390a2505050565b6106e36112a1565b73ffffffffffffffffffffffffffffffffffffffff16610701610cba565b73ffffffffffffffffffffffffffffffffffffffff1614610757576040517f08c379a000000000000000000000000000000000000000000000000000000000815260040161074e90614f4f565b60405180910390fd5b606d60008273ffffffffffffffffffffffffffffffffffffffff1673ffffffffffffffffffffffffffffffffffffffff168152602001908152602001600020600101600c9054906101000a900460ff161580156107b957506107b881611b12565b5b1561080b576107c781611b63565b8073ffffffffffffffffffffffffffffffffffffffff167fbcdf297ed7902fea73305fee14ec4d4704e2588ceffffef11e2543ef396cd79860405160405180910390a25b50565b6000614e20905090565b61082181611e2e565b606560009054906101000a900473ffffffffffffffffffffffffffffffffffffffff1673ffffffffffffffffffffffffffffffffffffffff1663e3b0715e826040518263ffffffff1660e01b815260040161087c9190614998565b600060405180830381600087803b15801561089657600080fd5b505af11580156108aa573d6000803e3d6000fd5b505050507fa7a1f49e9189b6d804b1d64265af8d15d337dd88b38a8e4e06a31931b726f7f5816040516108dd9190614998565b60405180910390a150565b6108f06112a1565b73ffffffffffffffffffffffffffffffffffffffff1661090e610cba565b73ffffffffffffffffffffffffffffffffffffffff1614610964576040517f08c379a000000000000000000000000000000000000000000000000000000000815260040161095b90614f4f565b60405180910390fd5b61096e6000611f9d565b565b600061097c8383612063565b6109b2576040517fb7a5938000000000000000000000000000000000000000000000000000000000815260040160405180910390fd5b606560009054906101000a900473ffffffffffffffffffffffffffffffffffffffff1673ffffffffffffffffffffffffffffffffffffffff16630906cbc23385856040518463ffffffff1660e01b8152600401610a11939291906150ac565b6020604051808303816000875af1158015610a30573d6000803e3d6000fd5b505050506040513d601f19601f82011682018060405250810190610a5491906150f3565b90503373ffffffffffffffffffffffffffffffffffffffff167f4f4c981e441ec7803ad8fd83e89f9b4cc199f7eebb543b8bda1b629260b510c0828585604051610aa093929190615120565b60405180910390a292915050565b6000606560009054906101000a900473ffffffffffffffffffffffffffffffffffffffff1673ffffffffffffffffffffffffffffffffffffffff16631940d38786863387876040518663ffffffff1660e01b8152600401610b139594939291906151dd565b6020604051808303816000875af1158015610b32573d6000803e3d6000fd5b505050506040513d601f19601f82011682018060405250810190610b5691906150f3565b90506040518060a00160405280438152602001600067ffffffffffffffff168152602001600067ffffffffffffffff168152602001438152602001600063ffffffff16815250606c60008363ffffffff1663ffffffff1681526020019081526020016000206000820151816000015560208201518160010160006101000a81548167ffffffffffffffff021916908367ffffffffffffffff16021790555060408201518160010160086101000a81548167ffffffffffffffff021916908367ffffffffffffffff1602179055506060820151816002015560808201518160030160006101000a81548163ffffffff021916908363ffffffff1602179055509050503373ffffffffffffffffffffffffffffffffffffffff168163ffffffff167fa837adf7db87879179d994c48f4275ae84c6ea7ba2ff625b1e121b5a6f42317d87878787604051610caa9493929190615226565b60405180910390a3949350505050565b6000603360009054906101000a900473ffffffffffffffffffffffffffffffffffffffff16905090565b6000610cf06001612182565b90508015610d14576001600060016101000a81548160ff0219169083151502179055505b610d2085858585612272565b8015610d795760008060016101000a81548160ff0219169083151502179055507f7f26b83ff96e1f2b6a682f133852f6798a09c465da95921460cefb38474024986001604051610d7091906152b3565b60405180910390a15b5050505050565b8181610d8c8282612316565b610d946112d5565b610d9d336124c9565b610deb3385858080601f016020809104026020016040519081016040528093929190818152602001838380828437600081840152601f19601f820116905080830192505050505050506125ad565b610df433612770565b5050505050565b610e036112a1565b73ffffffffffffffffffffffffffffffffffffffff16610e21610cba565b73ffffffffffffffffffffffffffffffffffffffff1614610e77576040517f08c379a0000000000000000000000000000000000000000000000000000000008152600401610e6e90614f4f565b60405180910390fd5b610e7f6128b0565b67ffffffffffffffff16610e9282611347565b67ffffffffffffffff161115610ed4576040517fad3a8b9e00000000000000000000000000000000000000000000000000000000815260040160405180910390fd5b610edd81611347565b606b60008282829054906101000a900467ffffffffffffffff16610f0191906152fd565b92506101000a81548167ffffffffffffffff021916908367ffffffffffffffff160217905550606660009054906101000a900473ffffffffffffffffffffffffffffffffffffffff1673ffffffffffffffffffffffffffffffffffffffff1663a9059cbb33836040518363ffffffff1660e01b8152600401610f84929190615339565b6020604051808303816000875af1158015610fa3573d6000803e3d6000fd5b505050506040513d601f19601f82011682018060405250810190610fc7919061539a565b507f5564de4b05294182a45c60836e9c0ba86d5c351cf1c0db79e4fe5dd04786de1a8133604051610ff99291906153c7565b60405180910390a150565b61100c6112d5565b611015336124c9565b611027338a8a8a8a8a8a8a8a8a6128e0565b505050505050505050565b61103a6112a1565b73ffffffffffffffffffffffffffffffffffffffff16611058610cba565b73ffffffffffffffffffffffffffffffffffffffff16146110ae576040517f08c379a00000000000000000000000000000000000000000000000000000000081526004016110a590614f4f565b60405180910390fd5b600073ffffffffffffffffffffffffffffffffffffffff168173ffffffffffffffffffffffffffffffffffffffff160361111d576040517f08c379a000000000000000000000000000000000000000000000000000000000815260040161111490615462565b60405180910390fd5b61112681611f9d565b50565b61113281611e2e565b606560009054906101000a900473ffffffffffffffffffffffffffffffffffffffff1673ffffffffffffffffffffffffffffffffffffffff1663f362dfd9826040518263ffffffff1660e01b815260040161118d9190614998565b600060405180830381600087803b1580156111a757600080fd5b505af11580156111bb573d6000803e3d6000fd5b5050505050565b6111cb84611e2e565b606560009054906101000a900473ffffffffffffffffffffffffffffffffffffffff1673ffffffffffffffffffffffffffffffffffffffff1663d85edef2858585856040518563ffffffff1660e01b815260040161122c9493929190615482565b600060405180830381600087803b15801561124657600080fd5b505af115801561125a573d6000803e3d6000fd5b505050507f6f65862ac449fcf43e1ddb6cf87fc8eaadc97be16c1a9328ea091c074baed7d0848484846040516112939493929190615482565b60405180910390a150505050565b600033905090565b60006298968067ffffffffffffffff168267ffffffffffffffff166112ce91906154c2565b9050919050565b6112dd612bc9565b606960006101000a81548167ffffffffffffffff021916908367ffffffffffffffff16021790555043606a81905550565b611316612cda565b606760086101000a81548167ffffffffffffffff021916908367ffffffffffffffff16021790555043606881905550565b6000806298968067ffffffffffffffff16836113639190615533565b146113a3576040517f08c379a000000000000000000000000000000000000000000000000000000000815260040161139a906155d6565b60405180910390fd5b6298968067ffffffffffffffff16826113bc91906155f6565b9050919050565b606660009054906101000a900473ffffffffffffffffffffffffffffffffffffffff1673ffffffffffffffffffffffffffffffffffffffff166323b872dd3330846040518463ffffffff1660e01b815260040161142293929190615627565b6020604051808303816000875af1158015611441573d6000803e3d6000fd5b505050506040513d601f19601f82011682018060405250810190611465919061539a565b5061146f81611347565b606d60008473ffffffffffffffffffffffffffffffffffffffff1673ffffffffffffffffffffffffffffffffffffffff16815260200190815260200160002060000160008282829054906101000a900467ffffffffffffffff166114d391906152fd565b92506101000a81548167ffffffffffffffff021916908367ffffffffffffffff1602179055503373ffffffffffffffffffffffffffffffffffffffff168273ffffffffffffffffffffffffffffffffffffffff167fb91f78378ad1ce7b5c12301896eac25f50d4603d0301406595e6fdfa6ffd641983604051611556919061565e565b60405180910390a35050565b61156a6112d5565b611573816124c9565b60005b606f60008373ffffffffffffffffffffffffffffffffffffffff1673ffffffffffffffffffffffffffffffffffffffff168152602001908152602001600020805490508163ffffffff161015611741576000606f60008473ffffffffffffffffffffffffffffffffffffffff1673ffffffffffffffffffffffffffffffffffffffff1681526020019081526020016000208263ffffffff168154811061161f5761161e615679565b5b90600052602060002090600891828204019190066004029054906101000a900463ffffffff16905061165081612d31565b6000606e60008573ffffffffffffffffffffffffffffffffffffffff1673ffffffffffffffffffffffffffffffffffffffff16815260200190815260200160002060008363ffffffff1663ffffffff16815260200190815260200160002090506116bb818584612d94565b8060000160109054906101000a900463ffffffff16606c60008463ffffffff1663ffffffff16815260200190815260200160002060030160008282829054906101000a900463ffffffff1661171091906156a8565b92506101000a81548163ffffffff021916908363ffffffff16021790555050508061173a906156e0565b9050611576565b50606560009054906101000a900473ffffffffffffffffffffffffffffffffffffffff1673ffffffffffffffffffffffffffffffffffffffff166345413bf4826040518263ffffffff1660e01b815260040161179d9190614ba1565b600060405180830381600087803b1580156117b757600080fd5b505af11580156117cb573d6000803e3d6000fd5b505050506000606d60008373ffffffffffffffffffffffffffffffffffffffff1673ffffffffffffffffffffffffffffffffffffffff168152602001908152602001600020600101600c6101000a81548160ff02191690831515021790555050565b6000606d60008373ffffffffffffffffffffffffffffffffffffffff1673ffffffffffffffffffffffffffffffffffffffff168152602001908152602001600020600101600c9054906101000a900460ff16158015611891575061189082611b12565b5b9050919050565b6000606560009054906101000a900473ffffffffffffffffffffffffffffffffffffffff1673ffffffffffffffffffffffffffffffffffffffff1663e7b21748836040518263ffffffff1660e01b81526004016118f59190614998565b602060405180830381865afa158015611912573d6000803e3d6000fd5b505050506040513d601f19601f820116820180604052508101906119369190614fbc565b9050600073ffffffffffffffffffffffffffffffffffffffff168173ffffffffffffffffffffffffffffffffffffffff160361199e576040517fd5528c8600000000000000000000000000000000000000000000000000000000815260040160405180910390fd5b8073ffffffffffffffffffffffffffffffffffffffff163373ffffffffffffffffffffffffffffffffffffffff1614158015611a0d57506119dd610cba565b73ffffffffffffffffffffffffffffffffffffffff163373ffffffffffffffffffffffffffffffffffffffff1614155b15611a44576040517fec4de4c900000000000000000000000000000000000000000000000000000000815260040160405180910390fd5b5050565b611a5182612e01565b43606c60008463ffffffff1663ffffffff16815260200190815260200160002060020181905550611a8182612d31565b606560009054906101000a900473ffffffffffffffffffffffffffffffffffffffff1673ffffffffffffffffffffffffffffffffffffffff166341d2c0cd826040518263ffffffff1660e01b8152600401611adc919061571b565b600060405180830381600087803b158015611af657600080fd5b505af1158015611b0a573d6000803e3d6000fd5b505050505050565b6000611b1d82612e55565b606660149054906101000a900467ffffffffffffffff16611b3e9190615736565b67ffffffffffffffff16611b5183612770565b67ffffffffffffffff16109050919050565b611b6b6112d5565b611b74816124c9565b60005b606f60008373ffffffffffffffffffffffffffffffffffffffff1673ffffffffffffffffffffffffffffffffffffffff168152602001908152602001600020805490508163ffffffff161015611d42576000606f60008473ffffffffffffffffffffffffffffffffffffffff1673ffffffffffffffffffffffffffffffffffffffff1681526020019081526020016000208263ffffffff1681548110611c2057611c1f615679565b5b90600052602060002090600891828204019190066004029054906101000a900463ffffffff169050611c5181612d31565b6000606e60008573ffffffffffffffffffffffffffffffffffffffff1673ffffffffffffffffffffffffffffffffffffffff16815260200190815260200160002060008363ffffffff1663ffffffff1681526020019081526020016000209050611cbc818584612d94565b8060000160109054906101000a900463ffffffff16606c60008463ffffffff1663ffffffff16815260200190815260200160002060030160008282829054906101000a900463ffffffff16611d119190615773565b92506101000a81548163ffffffff021916908363ffffffff160217905550505080611d3b906156e0565b9050611b77565b50606560009054906101000a900473ffffffffffffffffffffffffffffffffffffffff1673ffffffffffffffffffffffffffffffffffffffff166327467a18826040518263ffffffff1660e01b8152600401611d9e9190614ba1565b600060405180830381600087803b158015611db857600080fd5b505af1158015611dcc573d6000803e3d6000fd5b505050506001606d60008373ffffffffffffffffffffffffffffffffffffffff1673ffffffffffffffffffffffffffffffffffffffff168152602001908152602001600020600101600c6101000a81548160ff02191690831515021790555050565b6000606560009054906101000a900473ffffffffffffffffffffffffffffffffffffffff1673ffffffffffffffffffffffffffffffffffffffff16638c353138836040518263ffffffff1660e01b8152600401611e8b9190614998565b602060405180830381865afa158015611ea8573d6000803e3d6000fd5b505050506040513d601f19601f82011682018060405250810190611ecc9190614fbc565b9050600073ffffffffffffffffffffffffffffffffffffffff168173ffffffffffffffffffffffffffffffffffffffff1603611f34576040517fa9d3e6de00000000000000000000000000000000000000000000000000000000815260040160405180910390fd5b8073ffffffffffffffffffffffffffffffffffffffff163373ffffffffffffffffffffffffffffffffffffffff1614611f99576040517f3c7d82c300000000000000000000000000000000000000000000000000000000815260040160405180910390fd5b5050565b6000603360009054906101000a900473ffffffffffffffffffffffffffffffffffffffff16905081603360006101000a81548173ffffffffffffffffffffffffffffffffffffffff021916908373ffffffffffffffffffffffffffffffffffffffff1602179055508173ffffffffffffffffffffffffffffffffffffffff168173ffffffffffffffffffffffffffffffffffffffff167f8be0079c531659141344cd1fd0a4f28419497f9722a3daafe3b4186f6b6457e060405160405180910390a35050565b6000806000905060005b848490508163ffffffff16101561217057600085858363ffffffff1681811061209957612098615679565b5b90506020020160208101906120ae91906148d1565b9050606560009054906101000a900473ffffffffffffffffffffffffffffffffffffffff1673ffffffffffffffffffffffffffffffffffffffff166359399696826040518263ffffffff1660e01b815260040161210b9190614998565b602060405180830381865afa158015612128573d6000803e3d6000fd5b505050506040513d601f19601f8201168201806040525081019061214c919061539a565b1561215e578261215b906157ab565b92505b5080612169906156e0565b905061206d565b5060028160ff16101591505092915050565b60008060019054906101000a900460ff16156121f95760018260ff161480156121b157506121af30613188565b155b6121f0576040517f08c379a00000000000000000000000000000000000000000000000000000000081526004016121e790615846565b60405180910390fd5b6000905061226d565b8160ff1660008054906101000a900460ff1660ff161061224e576040517f08c379a000000000000000000000000000000000000000000000000000000000815260040161224590615846565b60405180910390fd5b816000806101000a81548160ff021916908360ff160217905550600190505b919050565b600061227e6001612182565b905080156122a2576001600060016101000a81548160ff0219169083151502179055505b6122aa6131ab565b6122b68585858561320c565b801561230f5760008060016101000a81548160ff0219169083151502179055507f7f26b83ff96e1f2b6a682f133852f6798a09c465da95921460cefb3847402498600160405161230691906152b3565b60405180910390a15b5050505050565b6000606560009054906101000a900473ffffffffffffffffffffffffffffffffffffffff1673ffffffffffffffffffffffffffffffffffffffff1663c87b303884846040518363ffffffff1660e01b8152600401612375929190615866565b602060405180830381865afa158015612392573d6000803e3d6000fd5b505050506040513d601f19601f820116820180604052508101906123b69190614fbc565b9050600073ffffffffffffffffffffffffffffffffffffffff168173ffffffffffffffffffffffffffffffffffffffff160361241e576040517f8791c3b400000000000000000000000000000000000000000000000000000000815260040160405180910390fd5b8073ffffffffffffffffffffffffffffffffffffffff163373ffffffffffffffffffffffffffffffffffffffff161415801561248d575061245d610cba565b73ffffffffffffffffffffffffffffffffffffffff163373ffffffffffffffffffffffffffffffffffffffff1614155b156124c4576040517f11ecf9f200000000000000000000000000000000000000000000000000000000815260040160405180910390fd5b505050565b6124d281613379565b606d60008373ffffffffffffffffffffffffffffffffffffffff1673ffffffffffffffffffffffffffffffffffffffff16815260200190815260200160002060000160186101000a81548167ffffffffffffffff021916908367ffffffffffffffff160217905550612542612cda565b606d60008373ffffffffffffffffffffffffffffffffffffffff1673ffffffffffffffffffffffffffffffffffffffff16815260200190815260200160002060010160006101000a81548167ffffffffffffffff021916908367ffffffffffffffff16021790555050565b6125b782826134af565b606560009054906101000a900473ffffffffffffffffffffffffffffffffffffffff1673ffffffffffffffffffffffffffffffffffffffff1663b2f569c5826040518263ffffffff1660e01b815260040161261291906158f8565b600060405180830381600087803b15801561262c57600080fd5b505af1158015612640573d6000803e3d6000fd5b50505050606d60008373ffffffffffffffffffffffffffffffffffffffff1673ffffffffffffffffffffffffffffffffffffffff168152602001908152602001600020600101600c9054906101000a900460ff1661271557606d60008373ffffffffffffffffffffffffffffffffffffffff1673ffffffffffffffffffffffffffffffffffffffff168152602001908152602001600020600101600881819054906101000a900463ffffffff166126f69061591a565b91906101000a81548163ffffffff021916908363ffffffff1602179055505b61271e82613667565b8173ffffffffffffffffffffffffffffffffffffffff167f671ada3835502b9498e4a3116c344293ec3a4ef43f90bb42283d7d66a3f772b28260405161276491906158f8565b60405180910390a25050565b60008061277c83613748565b606d60008573ffffffffffffffffffffffffffffffffffffffff1673ffffffffffffffffffffffffffffffffffffffff16815260200190815260200160002060000160009054906101000a900467ffffffffffffffff166127dd91906152fd565b905060006127ea84613858565b606d60008673ffffffffffffffffffffffffffffffffffffffff1673ffffffffffffffffffffffffffffffffffffffff16815260200190815260200160002060000160089054906101000a900467ffffffffffffffff1661284b91906152fd565b90508067ffffffffffffffff168267ffffffffffffffff16101561289b576040517f5e13ed3100000000000000000000000000000000000000000000000000000000815260040160405180910390fd5b80826128a79190615943565b92505050919050565b6000606b60009054906101000a900467ffffffffffffffff166128d1612bc9565b6128db9190615943565b905090565b606560009054906101000a900473ffffffffffffffffffffffffffffffffffffffff1673ffffffffffffffffffffffffffffffffffffffff16639b4ddb5d8b8b8b8b8b8b8b8b8b6040518a63ffffffff1660e01b815260040161294b99989796959493929190615ae3565b600060405180830381600087803b15801561296557600080fd5b505af1158015612979573d6000803e3d6000fd5b505050506000606d60008c73ffffffffffffffffffffffffffffffffffffffff1673ffffffffffffffffffffffffffffffffffffffff168152602001908152602001600020905043816002018190555080600101600c9054906101000a900460ff16612a1e5780600101600881819054906101000a900463ffffffff166129ff906156e0565b91906101000a81548163ffffffff021916908363ffffffff1602179055505b60005b888890508163ffffffff161015612afc57600089898363ffffffff16818110612a4d57612a4c615679565b5b9050602002016020810190612a6291906148d1565b9050612a6d81612d31565b82600101600c9054906101000a900460ff16612ae057606c60008263ffffffff1663ffffffff168152602001908152602001600020600301600081819054906101000a900463ffffffff16612ac1906156e0565b91906101000a81548163ffffffff021916908363ffffffff1602179055505b612aea8d82613aa6565b5080612af5906156e0565b9050612a21565b506000821115612b1157612b1033836113c3565b5b612b1a8b61182d565b15612b51576040517fad3a8b9e00000000000000000000000000000000000000000000000000000000815260040160405180910390fd5b612b5a8b613667565b8a73ffffffffffffffffffffffffffffffffffffffff167f610eb3c1fafe229af536e91b7e00486902d54d54d8d3f0de283a467ac8f985bf8b8b8b8b8b8b8b8b8a60020154604051612bb499989796959493929190615b5a565b60405180910390a25050505050505050505050565b600080606560009054906101000a900473ffffffffffffffffffffffffffffffffffffffff1673ffffffffffffffffffffffffffffffffffffffff16632340e8d36040518163ffffffff1660e01b8152600401602060405180830381865afa158015612c39573d6000803e3d6000fd5b505050506040513d601f19601f82011682018060405250810190612c5d91906150f3565b63ffffffff16606760009054906101000a900467ffffffffffffffff1667ffffffffffffffff16606a5443612c929190615bd1565b612c9c91906154c2565b612ca691906154c2565b606960009054906101000a900467ffffffffffffffff1667ffffffffffffffff16612cd19190615c05565b90508091505090565b6000606760009054906101000a900467ffffffffffffffff1660685443612d019190615bd1565b612d0b9190615736565b606760089054906101000a900467ffffffffffffffff16612d2c91906152fd565b905090565b6000606c60008363ffffffff1663ffffffff1681526020019081526020016000209050612d5d82613ab6565b8160010160006101000a81548167ffffffffffffffff021916908367ffffffffffffffff1602179055504381600001819055505050565b612d9f838383613b41565b8360000160086101000a81548167ffffffffffffffff021916908367ffffffffffffffff160217905550612dd281613c1c565b8360000160006101000a81548167ffffffffffffffff021916908367ffffffffffffffff160217905550505050565b612e0a81613c1c565b606c60008363ffffffff1663ffffffff16815260200190815260200160002060010160086101000a81548167ffffffffffffffff021916908367ffffffffffffffff16021790555050565b6000606d60008373ffffffffffffffffffffffffffffffffffffffff1673ffffffffffffffffffffffffffffffffffffffff168152602001908152602001600020600101600c9054906101000a900460ff1615612eb55760009050613183565b60005b606f60008473ffffffffffffffffffffffffffffffffffffffff1673ffffffffffffffffffffffffffffffffffffffff168152602001908152602001600020805490508163ffffffff161015612fac57612f8e83606f60008673ffffffffffffffffffffffffffffffffffffffff1673ffffffffffffffffffffffffffffffffffffffff1681526020019081526020016000208363ffffffff1681548110612f6357612f62615679565b5b90600052602060002090600891828204019190066004029054906101000a900463ffffffff16613d2f565b82612f9991906152fd565b915080612fa5906156e0565b9050612eb8565b50606760009054906101000a900467ffffffffffffffff16606d60008473ffffffffffffffffffffffffffffffffffffffff1673ffffffffffffffffffffffffffffffffffffffff16815260200190815260200160002060010160089054906101000a900463ffffffff1663ffffffff166130279190615736565b8161303291906152fd565b90506000606560009054906101000a900473ffffffffffffffffffffffffffffffffffffffff1673ffffffffffffffffffffffffffffffffffffffff16630dc1eeff846040518263ffffffff1660e01b81526004016130919190614ba1565b600060405180830381865afa1580156130ae573d6000803e3d6000fd5b505050506040513d6000823e3d601f19601f820116820180604052508101906130d79190615d77565b905060005b81518163ffffffff16101561318057613114828263ffffffff168151811061310757613106615679565b5b6020026020010151613e4a565b67ffffffffffffffff168367ffffffffffffffff161161313957600092505050613183565b613162828263ffffffff168151811061315557613154615679565b5b6020026020010151613e4a565b8361316d9190615943565b925080613179906156e0565b90506130dc565b50505b919050565b6000808273ffffffffffffffffffffffffffffffffffffffff163b119050919050565b600060019054906101000a900460ff166131fa576040517f08c379a00000000000000000000000000000000000000000000000000000000081526004016131f190615e32565b60405180910390fd5b61320a6132056112a1565b611f9d565b565b600060019054906101000a900460ff1661325b576040517f08c379a000000000000000000000000000000000000000000000000000000000815260040161325290615e32565b60405180910390fd5b83606560006101000a81548173ffffffffffffffffffffffffffffffffffffffff021916908373ffffffffffffffffffffffffffffffffffffffff16021790555082606660006101000a81548173ffffffffffffffffffffffffffffffffffffffff021916908373ffffffffffffffffffffffffffffffffffffffff1602179055506132e682613f27565b606560009054906101000a900473ffffffffffffffffffffffffffffffffffffffff1673ffffffffffffffffffffffffffffffffffffffff1663eb92db27826040518263ffffffff1660e01b8152600401613341919061571b565b600060405180830381600087803b15801561335b57600080fd5b505af115801561336f573d6000803e3d6000fd5b5050505050505050565b6000606d60008373ffffffffffffffffffffffffffffffffffffffff1673ffffffffffffffffffffffffffffffffffffffff16815260200190815260200160002060010160089054906101000a900463ffffffff1663ffffffff16606d60008473ffffffffffffffffffffffffffffffffffffffff1673ffffffffffffffffffffffffffffffffffffffff16815260200190815260200160002060010160009054906101000a900467ffffffffffffffff16613433612cda565b61343d9190615943565b6134479190615736565b606d60008473ffffffffffffffffffffffffffffffffffffffff1673ffffffffffffffffffffffffffffffffffffffff16815260200190815260200160002060000160189054906101000a900467ffffffffffffffff166134a891906152fd565b9050919050565b6000606560009054906101000a900473ffffffffffffffffffffffffffffffffffffffff1673ffffffffffffffffffffffffffffffffffffffff1663053e8349836040518263ffffffff1660e01b815260040161350c91906158f8565b600060405180830381865afa158015613529573d6000803e3d6000fd5b505050506040513d6000823e3d601f19601f820116820180604052508101906135529190615d77565b905060005b81518163ffffffff161015613661576000828263ffffffff168151811061358157613580615679565b5b6020026020010151905061359481612d31565b606d60008673ffffffffffffffffffffffffffffffffffffffff1673ffffffffffffffffffffffffffffffffffffffff168152602001908152602001600020600101600c9054906101000a900460ff1661364557606c60008263ffffffff1663ffffffff168152602001908152602001600020600301600081819054906101000a900463ffffffff166136269061591a565b91906101000a81548163ffffffff021916908363ffffffff1602179055505b61364f8582613fa0565b508061365a906156e0565b9050613557565b50505050565b600061367282612e55565b67ffffffffffffffff16036136cd5743606d60008373ffffffffffffffffffffffffffffffffffffffff1673ffffffffffffffffffffffffffffffffffffffff16815260200190815260200160002060020181905550613745565b6136d681612e55565b6136df82612770565b6136e99190615e52565b67ffffffffffffffff16436136fe9190615c05565b606d60008373ffffffffffffffffffffffffffffffffffffffff1673ffffffffffffffffffffffffffffffffffffffff168152602001908152602001600020600201819055505b50565b600080600090506000606560009054906101000a900473ffffffffffffffffffffffffffffffffffffffff1673ffffffffffffffffffffffffffffffffffffffff16630dc1eeff856040518263ffffffff1660e01b81526004016137ac9190614ba1565b600060405180830381865afa1580156137c9573d6000803e3d6000fd5b505050506040513d6000823e3d601f19601f820116820180604052508101906137f29190615d77565b905060005b81518163ffffffff16101561384d5761382f828263ffffffff168151811061382257613821615679565b5b6020026020010151613ab6565b8361383a91906152fd565b925080613846906156e0565b90506137f7565b508192505050919050565b60008061386483613379565b606d60008573ffffffffffffffffffffffffffffffffffffffff1673ffffffffffffffffffffffffffffffffffffffff16815260200190815260200160002060000160109054906101000a900467ffffffffffffffff166138c591906152fd565b905060005b606f60008573ffffffffffffffffffffffffffffffffffffffff1673ffffffffffffffffffffffffffffffffffffffff168152602001908152602001600020805490508163ffffffff161015613a9c576000606e60008673ffffffffffffffffffffffffffffffffffffffff1673ffffffffffffffffffffffffffffffffffffffff1681526020019081526020016000206000606f60008873ffffffffffffffffffffffffffffffffffffffff1673ffffffffffffffffffffffffffffffffffffffff1681526020019081526020016000208463ffffffff16815481106139b4576139b3615679565b5b90600052602060002090600891828204019190066004029054906101000a900463ffffffff1663ffffffff1663ffffffff1681526020019081526020016000209050613a7d8186606f60008973ffffffffffffffffffffffffffffffffffffffff1673ffffffffffffffffffffffffffffffffffffffff1681526020019081526020016000208563ffffffff1681548110613a5257613a51615679565b5b90600052602060002090600891828204019190066004029054906101000a900463ffffffff16613b41565b83613a8891906152fd565b92505080613a95906156e0565b90506138ca565b5080915050919050565b613ab282826001613fb0565b5050565b6000613ac182613e4a565b606c60008463ffffffff1663ffffffff1681526020019081526020016000206000015443613aef9190615bd1565b613af99190615736565b606c60008463ffffffff1663ffffffff16815260200190815260200160002060010160009054906101000a900467ffffffffffffffff16613b3a91906152fd565b9050919050565b6000606d60008473ffffffffffffffffffffffffffffffffffffffff1673ffffffffffffffffffffffffffffffffffffffff168152602001908152602001600020600101600c9054906101000a900460ff16613bed578360000160109054906101000a900463ffffffff1663ffffffff168460000160009054906101000a900467ffffffffffffffff16613bd484613c1c565b613bde9190615943565b613be89190615736565b613bf0565b60005b8460000160089054906101000a900467ffffffffffffffff16613c1391906152fd565b90509392505050565b6000606c60008363ffffffff1663ffffffff1681526020019081526020016000206002015443613c4c9190615bd1565b606560009054906101000a900473ffffffffffffffffffffffffffffffffffffffff1673ffffffffffffffffffffffffffffffffffffffff1663286966086040518163ffffffff1660e01b8152600401602060405180830381865afa158015613cb9573d6000803e3d6000fd5b505050506040513d601f19601f82011682018060405250810190613cdd9190615e98565b613ce79190615736565b606c60008463ffffffff1663ffffffff16815260200190815260200160002060010160089054906101000a900467ffffffffffffffff16613d2891906152fd565b9050919050565b6000606e60008473ffffffffffffffffffffffffffffffffffffffff1673ffffffffffffffffffffffffffffffffffffffff16815260200190815260200160002060008363ffffffff1663ffffffff16815260200190815260200160002060000160109054906101000a900463ffffffff1663ffffffff16606560009054906101000a900473ffffffffffffffffffffffffffffffffffffffff1673ffffffffffffffffffffffffffffffffffffffff1663286966086040518163ffffffff1660e01b8152600401602060405180830381865afa158015613e14573d6000803e3d6000fd5b505050506040513d601f19601f82011682018060405250810190613e389190615e98565b613e429190615736565b905092915050565b6000606c60008363ffffffff1663ffffffff16815260200190815260200160002060030160009054906101000a900463ffffffff1663ffffffff16606560009054906101000a900473ffffffffffffffffffffffffffffffffffffffff1673ffffffffffffffffffffffffffffffffffffffff1663286966086040518163ffffffff1660e01b8152600401602060405180830381865afa158015613ef2573d6000803e3d6000fd5b505050506040513d601f19601f82011682018060405250810190613f169190615e98565b613f209190615736565b9050919050565b80606660146101000a81548167ffffffffffffffff021916908367ffffffffffffffff1602179055507f0ba69538f9785fc112824ff736c1e58ccf880282e09e53d7eef96598e282d3fa606660149054906101000a900467ffffffffffffffff16604051613f959190615ef6565b60405180910390a150565b613fac82826000613fb0565b5050565b6000606e60008573ffffffffffffffffffffffffffffffffffffffff1673ffffffffffffffffffffffffffffffffffffffff16815260200190815260200160002060008463ffffffff1663ffffffff16815260200190815260200160002090508060000160189054906101000a900460ff161561454a57614032818585612d94565b811561407b5780600001601081819054906101000a900463ffffffff16614058906156e0565b91906101000a81548163ffffffff021916908363ffffffff160217905550614545565b600081600001601081819054906101000a900463ffffffff1661409d9061591a565b91906101000a81548163ffffffff021916908363ffffffff160217905563ffffffff1603614544578060000160089054906101000a900467ffffffffffffffff16606d60008673ffffffffffffffffffffffffffffffffffffffff1673ffffffffffffffffffffffffffffffffffffffff16815260200190815260200160002060000160108282829054906101000a900467ffffffffffffffff1661414291906152fd565b92506101000a81548167ffffffffffffffff021916908367ffffffffffffffff160217905550606f60008573ffffffffffffffffffffffffffffffffffffffff1673ffffffffffffffffffffffffffffffffffffffff1681526020019081526020016000206001606f60008773ffffffffffffffffffffffffffffffffffffffff1673ffffffffffffffffffffffffffffffffffffffff168152602001908152602001600020805490506141f69190615bd1565b8154811061420757614206615679565b5b90600052602060002090600891828204019190066004029054906101000a900463ffffffff16606f60008673ffffffffffffffffffffffffffffffffffffffff1673ffffffffffffffffffffffffffffffffffffffff1681526020019081526020016000208260000160149054906101000a900463ffffffff1663ffffffff168154811061429857614297615679565b5b90600052602060002090600891828204019190066004026101000a81548163ffffffff021916908363ffffffff1602179055508060000160149054906101000a900463ffffffff16606e60008673ffffffffffffffffffffffffffffffffffffffff1673ffffffffffffffffffffffffffffffffffffffff1681526020019081526020016000206000606f60008873ffffffffffffffffffffffffffffffffffffffff1673ffffffffffffffffffffffffffffffffffffffff1681526020019081526020016000208460000160149054906101000a900463ffffffff1663ffffffff168154811061438c5761438b615679565b5b90600052602060002090600891828204019190066004029054906101000a900463ffffffff1663ffffffff1663ffffffff16815260200190815260200160002060000160146101000a81548163ffffffff021916908363ffffffff160217905550606f60008573ffffffffffffffffffffffffffffffffffffffff1673ffffffffffffffffffffffffffffffffffffffff16815260200190815260200160002080548061443c5761443b615f11565b5b60019003818190600052602060002090600891828204019190066004026101000a81549063ffffffff02191690559055606e60008573ffffffffffffffffffffffffffffffffffffffff1673ffffffffffffffffffffffffffffffffffffffff16815260200190815260200160002060008463ffffffff1663ffffffff168152602001908152602001600020600080820160006101000a81549067ffffffffffffffff02191690556000820160086101000a81549067ffffffffffffffff02191690556000820160106101000a81549063ffffffff02191690556000820160146101000a81549063ffffffff02191690556000820160186101000a81549060ff021916905550505b5b614818565b603261ffff16606f60008673ffffffffffffffffffffffffffffffffffffffff1673ffffffffffffffffffffffffffffffffffffffff1681526020019081526020016000208054905011156145cb576040517f9722180300000000000000000000000000000000000000000000000000000000815260040160405180910390fd5b6040518060a001604052806145df85613c1c565b67ffffffffffffffff168152602001600067ffffffffffffffff168152602001600163ffffffff168152602001606f60008773ffffffffffffffffffffffffffffffffffffffff1673ffffffffffffffffffffffffffffffffffffffff1681526020019081526020016000208054905063ffffffff16815260200160011515815250606e60008673ffffffffffffffffffffffffffffffffffffffff1673ffffffffffffffffffffffffffffffffffffffff16815260200190815260200160002060008563ffffffff1663ffffffff16815260200190815260200160002060008201518160000160006101000a81548167ffffffffffffffff021916908367ffffffffffffffff16021790555060208201518160000160086101000a81548167ffffffffffffffff021916908367ffffffffffffffff16021790555060408201518160000160106101000a81548163ffffffff021916908363ffffffff16021790555060608201518160000160146101000a81548163ffffffff021916908363ffffffff16021790555060808201518160000160186101000a81548160ff021916908315150217905550905050606f60008573ffffffffffffffffffffffffffffffffffffffff1673ffffffffffffffffffffffffffffffffffffffff1681526020019081526020016000208390806001815401808255809150506001900390600052602060002090600891828204019190066004029091909190916101000a81548163ffffffff021916908363ffffffff1602179055505b50505050565b6000604051905090565b600080fd5b600080fd5b6000819050919050565b61484581614832565b811461485057600080fd5b50565b6000813590506148628161483c565b92915050565b60006020828403121561487e5761487d614828565b5b600061488c84828501614853565b91505092915050565b600063ffffffff82169050919050565b6148ae81614895565b81146148b957600080fd5b50565b6000813590506148cb816148a5565b92915050565b6000602082840312156148e7576148e6614828565b5b60006148f5848285016148bc565b91505092915050565b600073ffffffffffffffffffffffffffffffffffffffff82169050919050565b6000614929826148fe565b9050919050565b6149398161491e565b811461494457600080fd5b50565b60008135905061495681614930565b92915050565b60006020828403121561497257614971614828565b5b600061498084828501614947565b91505092915050565b61499281614895565b82525050565b60006020820190506149ad6000830184614989565b92915050565b600080fd5b600080fd5b600080fd5b60008083601f8401126149d8576149d76149b3565b5b8235905067ffffffffffffffff8111156149f5576149f46149b8565b5b602083019150836020820283011115614a1157614a106149bd565b5b9250929050565b60008060208385031215614a2f57614a2e614828565b5b600083013567ffffffffffffffff811115614a4d57614a4c61482d565b5b614a59858286016149c2565b92509250509250929050565b60008083601f840112614a7b57614a7a6149b3565b5b8235905067ffffffffffffffff811115614a9857614a976149b8565b5b602083019150836001820283011115614ab457614ab36149bd565b5b9250929050565b60008083601f840112614ad157614ad06149b3565b5b8235905067ffffffffffffffff811115614aee57614aed6149b8565b5b602083019150836001820283011115614b0a57614b096149bd565b5b9250929050565b60008060008060408587031215614b2b57614b2a614828565b5b600085013567ffffffffffffffff811115614b4957614b4861482d565b5b614b5587828801614a65565b9450945050602085013567ffffffffffffffff811115614b7857614b7761482d565b5b614b8487828801614abb565b925092505092959194509250565b614b9b8161491e565b82525050565b6000602082019050614bb66000830184614b92565b92915050565b6000614bc78261491e565b9050919050565b614bd781614bbc565b8114614be257600080fd5b50565b600081359050614bf481614bce565b92915050565b6000614c058261491e565b9050919050565b614c1581614bfa565b8114614c2057600080fd5b50565b600081359050614c3281614c0c565b92915050565b600067ffffffffffffffff82169050919050565b614c5581614c38565b8114614c6057600080fd5b50565b600081359050614c7281614c4c565b92915050565b60008060008060808587031215614c9257614c91614828565b5b6000614ca087828801614be5565b9450506020614cb187828801614c23565b9350506040614cc287828801614c63565b9250506060614cd387828801614c63565b91505092959194509250565b60008060208385031215614cf657614cf5614828565b5b600083013567ffffffffffffffff811115614d1457614d1361482d565b5b614d2085828601614abb565b92509250509250929050565b60008083601f840112614d4257614d416149b3565b5b8235905067ffffffffffffffff811115614d5f57614d5e6149b8565b5b602083019150836020820283011115614d7b57614d7a6149bd565b5b9250929050565b600080600080600080600080600060a08a8c031215614da457614da3614828565b5b60008a013567ffffffffffffffff811115614dc257614dc161482d565b5b614dce8c828d01614abb565b995099505060208a013567ffffffffffffffff811115614df157614df061482d565b5b614dfd8c828d016149c2565b975097505060408a013567ffffffffffffffff811115614e2057614e1f61482d565b5b614e2c8c828d01614d2c565b955095505060608a013567ffffffffffffffff811115614e4f57614e4e61482d565b5b614e5b8c828d01614d2c565b93509350506080614e6e8c828d01614853565b9150509295985092959850929598565b60008060008060608587031215614e9857614e97614828565b5b6000614ea6878288016148bc565b945050602085013567ffffffffffffffff811115614ec757614ec661482d565b5b614ed387828801614abb565b93509350506040614ee687828801614947565b91505092959194509250565b600082825260208201905092915050565b7f4f776e61626c653a2063616c6c6572206973206e6f7420746865206f776e6572600082015250565b6000614f39602083614ef2565b9150614f4482614f03565b602082019050919050565b60006020820190508181036000830152614f6881614f2c565b9050919050565b614f7881614832565b82525050565b6000604082019050614f936000830185614f6f565b614fa06020830184614f6f565b9392505050565b600081519050614fb681614930565b92915050565b600060208284031215614fd257614fd1614828565b5b6000614fe084828501614fa7565b91505092915050565b600082825260208201905092915050565b6000819050919050565b61500d81614895565b82525050565b600061501f8383615004565b60208301905092915050565b600061503a60208401846148bc565b905092915050565b6000602082019050919050565b600061505b8385614fe9565b935061506682614ffa565b8060005b8581101561509f5761507c828461502b565b6150868882615013565b975061509183615042565b92505060018101905061506a565b5085925050509392505050565b60006040820190506150c16000830186614b92565b81810360208301526150d481848661504f565b9050949350505050565b6000815190506150ed816148a5565b92915050565b60006020828403121561510957615108614828565b5b6000615117848285016150de565b91505092915050565b60006040820190506151356000830186614989565b818103602083015261514881848661504f565b9050949350505050565b82818337600083830152505050565b6000601f19601f8301169050919050565b600061517e8385614ef2565b935061518b838584615152565b61519483615161565b840190509392505050565b600082825260208201905092915050565b60006151bc838561519f565b93506151c9838584615152565b6151d283615161565b840190509392505050565b600060608201905081810360008301526151f8818789615172565b90506152076020830186614b92565b818103604083015261521a8184866151b0565b90509695505050505050565b60006040820190508181036000830152615241818688615172565b905081810360208301526152568184866151b0565b905095945050505050565b6000819050919050565b600060ff82169050919050565b6000819050919050565b600061529d61529861529384615261565b615278565b61526b565b9050919050565b6152ad81615282565b82525050565b60006020820190506152c860008301846152a4565b92915050565b7f4e487b7100000000000000000000000000000000000000000000000000000000600052601160045260246000fd5b600061530882614c38565b915061531383614c38565b9250828201905067ffffffffffffffff811115615333576153326152ce565b5b92915050565b600060408201905061534e6000830185614b92565b61535b6020830184614f6f565b9392505050565b60008115159050919050565b61537781615362565b811461538257600080fd5b50565b6000815190506153948161536e565b92915050565b6000602082840312156153b0576153af614828565b5b60006153be84828501615385565b91505092915050565b60006040820190506153dc6000830185614f6f565b6153e96020830184614b92565b9392505050565b7f4f776e61626c653a206e6577206f776e657220697320746865207a65726f206160008201527f6464726573730000000000000000000000000000000000000000000000000000602082015250565b600061544c602683614ef2565b9150615457826153f0565b604082019050919050565b6000602082019050818103600083015261547b8161543f565b9050919050565b60006060820190506154976000830187614989565b81810360208301526154aa8185876151b0565b90506154b96040830184614b92565b95945050505050565b60006154cd82614832565b91506154d883614832565b92508282026154e681614832565b915082820484148315176154fd576154fc6152ce565b5b5092915050565b7f4e487b7100000000000000000000000000000000000000000000000000000000600052601260045260246000fd5b600061553e82614832565b915061554983614832565b92508261555957615558615504565b5b828206905092915050565b7f507265636973696f6e206973206f76657220746865206d6178696d756d20646560008201527f66696e6564000000000000000000000000000000000000000000000000000000602082015250565b60006155c0602583614ef2565b91506155cb82615564565b604082019050919050565b600060208201905081810360008301526155ef816155b3565b9050919050565b600061560182614832565b915061560c83614832565b92508261561c5761561b615504565b5b828204905092915050565b600060608201905061563c6000830186614b92565b6156496020830185614b92565b6156566040830184614f6f565b949350505050565b60006020820190506156736000830184614f6f565b92915050565b7f4e487b7100000000000000000000000000000000000000000000000000000000600052603260045260246000fd5b60006156b382614895565b91506156be83614895565b9250828201905063ffffffff8111156156da576156d96152ce565b5b92915050565b60006156eb82614895565b915063ffffffff8203615701576157006152ce565b5b600182019050919050565b61571581614c38565b82525050565b6000602082019050615730600083018461570c565b92915050565b600061574182614c38565b915061574c83614c38565b925082820261575a81614c38565b915080821461576c5761576b6152ce565b5b5092915050565b600061577e82614895565b915061578983614895565b9250828203905063ffffffff8111156157a5576157a46152ce565b5b92915050565b60006157b68261526b565b915060ff82036157c9576157c86152ce565b5b600182019050919050565b7f496e697469616c697a61626c653a20636f6e747261637420697320616c72656160008201527f647920696e697469616c697a6564000000000000000000000000000000000000602082015250565b6000615830602e83614ef2565b915061583b826157d4565b604082019050919050565b6000602082019050818103600083015261585f81615823565b9050919050565b600060208201905081810360008301526158818184866151b0565b90509392505050565b600081519050919050565b60005b838110156158b3578082015181840152602081019050615898565b60008484015250505050565b60006158ca8261588a565b6158d4818561519f565b93506158e4818560208601615895565b6158ed81615161565b840191505092915050565b6000602082019050818103600083015261591281846158bf565b905092915050565b600061592582614895565b915060008203615938576159376152ce565b5b600182039050919050565b600061594e82614c38565b915061595983614c38565b9250828203905067ffffffffffffffff811115615979576159786152ce565b5b92915050565b600082825260208201905092915050565b6000819050919050565b600082825260208201905092915050565b60006159b7838561599a565b93506159c4838584615152565b6159cd83615161565b840190509392505050565b60006159e58484846159ab565b90509392505050565b600080fd5b600080fd5b600080fd5b60008083356001602003843603038112615a1a57615a196159f8565b5b83810192508235915060208301925067ffffffffffffffff821115615a4257615a416159ee565b5b600182023603831315615a5857615a576159f3565b5b509250929050565b6000602082019050919050565b6000615a79838561597f565b935083602084028501615a8b84615990565b8060005b87811015615ad1578484038952615aa682846159fd565b615ab18682846159d8565b9550615abc84615a60565b935060208b019a505050600181019050615a8f565b50829750879450505050509392505050565b600060a082019050615af8600083018c614b92565b8181036020830152615b0b818a8c6151b0565b90508181036040830152615b2081888a61504f565b90508181036060830152615b35818688615a6d565b90508181036080830152615b4a818486615a6d565b90509a9950505050505050505050565b600060a0820190508181036000830152615b75818b8d6151b0565b90508181036020830152615b8a81898b61504f565b90508181036040830152615b9f818789615a6d565b90508181036060830152615bb4818587615a6d565b9050615bc36080830184614f6f565b9a9950505050505050505050565b6000615bdc82614832565b9150615be783614832565b9250828203905081811115615bff57615bfe6152ce565b5b92915050565b6000615c1082614832565b9150615c1b83614832565b9250828201905080821115615c3357615c326152ce565b5b92915050565b7f4e487b7100000000000000000000000000000000000000000000000000000000600052604160045260246000fd5b615c7182615161565b810181811067ffffffffffffffff82111715615c9057615c8f615c39565b5b80604052505050565b6000615ca361481e565b9050615caf8282615c68565b919050565b600067ffffffffffffffff821115615ccf57615cce615c39565b5b602082029050602081019050919050565b6000615cf3615cee84615cb4565b615c99565b90508083825260208201905060208402830185811115615d1657615d156149bd565b5b835b81811015615d3f5780615d2b88826150de565b845260208401935050602081019050615d18565b5050509392505050565b600082601f830112615d5e57615d5d6149b3565b5b8151615d6e848260208601615ce0565b91505092915050565b600060208284031215615d8d57615d8c614828565b5b600082015167ffffffffffffffff811115615dab57615daa61482d565b5b615db784828501615d49565b91505092915050565b7f496e697469616c697a61626c653a20636f6e7472616374206973206e6f74206960008201527f6e697469616c697a696e67000000000000000000000000000000000000000000602082015250565b6000615e1c602b83614ef2565b9150615e2782615dc0565b604082019050919050565b60006020820190508181036000830152615e4b81615e0f565b9050919050565b6000615e5d82614c38565b9150615e6883614c38565b925082615e7857615e77615504565b5b828204905092915050565b600081519050615e9281614c4c565b92915050565b600060208284031215615eae57615ead614828565b5b6000615ebc84828501615e83565b91505092915050565b6000615ee0615edb615ed684614c38565b615278565b614832565b9050919050565b615ef081615ec5565b82525050565b6000602082019050615f0b6000830184615ee7565b92915050565b7f4e487b7100000000000000000000000000000000000000000000000000000000600052603160045260246000fdfea26469706673582212209d3e3d65875e486a77f7247d17866ca022926e65f19b8f3c64e569f74061af6664736f6c63430008110033",
  "immutableReferences": {},
  "source": "// File: contracts/SafeStakeNetwork.sol\n// SPDX-License-Identifier: GPL-3.0-or-later\npragma solidity ^0.8.2;\n\nimport \"@openzeppelin/contracts/token/ERC20/IERC20.sol\";\nimport \"@openzeppelin/contracts-upgradeable/access/OwnableUpgradeable.sol\";\nimport \"./utils/VersionedContract.sol\";\nimport \"./utils/Types.sol\";\nimport \"./ISafeStakeNetwork.sol\";\n\ncontract SafeStakeNetwork is OwnableUpgradeable, ISafeStakeNetwork, VersionedContract {\n    using Types256 for uint256;\n    using Types64 for uint64;\n\n    struct OperatorData {\n        uint256 blockNumber;\n        uint64 earnings;\n        uint64 index;\n        uint256 indexBlockNumber;\n        uint32 activeValidatorCount;\n    }\n\n    struct OwnerData {\n        uint64 deposited;\n        uint64 withdrawn;\n        uint64 used;\n        uint64 networkFee;\n        uint64 networkFeeIndex;\n        uint32 activeValidatorCount;\n        bool validatorsDisabled;\n        uint256 paidBlockNumber;\n    }\n\n    struct OperatorInUse {\n        uint64 index;\n        uint64 used;\n        uint32 validatorCount;\n        uint32 indexInArray;\n        bool exists;\n    }\n\n    // struct FeeChangeRequest {\n    //     uint64 fee;\n    //     uint256 approvalBeginTime;\n    //     uint256 approvalEndTime;\n    // }\n\n    ISafeStakeRegistry private _SafeStakeRegistryContract;\n    IERC20 private _token;\n    // uint64 private _minimumBlocksBeforeLiquidation;\n    // uint64 private _operatorMaxFeeIncrease;\n\n    uint64 private _minimumBlocksValidatorPay;\n\n    uint64 private _networkFee;\n    uint64 private _networkFeeIndex;\n    uint256 private _networkFeeIndexBlockNumber;\n    uint64 private _networkEarnings;\n    uint256 private _networkEarningsBlockNumber;\n    uint64 private _withdrawnFromTreasury;\n\n    mapping(uint32 => OperatorData) private _operatorDatas;\n    mapping(address => OwnerData) private _owners;\n    mapping(address => mapping(uint32 => OperatorInUse)) private _operatorsInUseByAddress;\n    mapping(address => uint32[]) private _operatorsInUseList;\n\n    // uint64 private _declareOperatorFeePeriod;\n    // uint64 private _executeOperatorFeePeriod;\n    // mapping(uint32 => FeeChangeRequest) private _feeChangeRequests;\n\n    // uint16 constant private MINIMAL_OPERATOR_FEE = 1000;\n    uint16 constant private MANAGING_OPERATORS_PER_ACCOUNT_LIMIT = 50;\n    // uint16 constant private MINIMAL_LIQUIDATION_THRESHOLD = 6570;\n\n\n    function initialize(\n        ISafeStakeRegistry registryAddress_,\n        IERC20 token_,\n        uint64 minimumBlocksBeforeLiquidation_,\n        // uint64 operatorMaxFeeIncrease_,\n        // uint64 declareOperatorFeePeriod_,\n        // uint64 executeOperatorFeePeriod_,\n        uint64 operatorFee\n    ) external initializer override {\n        // __SafeStakeNetwork_init(registryAddress_, token_, minimumBlocksBeforeLiquidation_, operatorMaxFeeIncrease_, declareOperatorFeePeriod_, executeOperatorFeePeriod_, operatorFee);\n        __SafeStakeNetwork_init(registryAddress_, token_, minimumBlocksBeforeLiquidation_, operatorFee);\n    }\n\n    function __SafeStakeNetwork_init(\n        ISafeStakeRegistry registryAddress_,\n        IERC20 token_,\n        uint64 minimumBlocksBeforeLiquidation_,\n        // uint64 operatorMaxFeeIncrease_,\n        // uint64 declareOperatorFeePeriod_,\n        // uint64 executeOperatorFeePeriod_,\n        uint64 operatorFee\n    ) internal initializer {\n        __Ownable_init_unchained();\n        // __SafeStakeNetwork_init_unchained(registryAddress_, token_, minimumBlocksBeforeLiquidation_, operatorMaxFeeIncrease_, declareOperatorFeePeriod_, executeOperatorFeePeriod_, operatorFee);\n        __SafeStakeNetwork_init_unchained(registryAddress_, token_, minimumBlocksBeforeLiquidation_, operatorFee);\n    }\n\n    function __SafeStakeNetwork_init_unchained(\n        ISafeStakeRegistry registryAddress_,\n        IERC20 token_,\n        uint64 minimumBlocksBeforeLiquidation_,\n        // uint64 operatorMaxFeeIncrease_,\n        // uint64 declareOperatorFeePeriod_,\n        // uint64 executeOperatorFeePeriod_,\n        uint64 operatorFee\n    ) internal onlyInitializing {\n        _SafeStakeRegistryContract = registryAddress_;\n        _token = token_;\n        _updateLiquidationThresholdPeriod(minimumBlocksBeforeLiquidation_);\n        // _updateOperatorFeeIncreaseLimit(operatorMaxFeeIncrease_);\n        // _updateDeclareOperatorFeePeriod(declareOperatorFeePeriod_);\n        // _updateExecuteOperatorFeePeriod(executeOperatorFeePeriod_);\n        _SafeStakeRegistryContract.initialize(operatorFee);\n    }\n\n    modifier onlyValidatorOwnerOrContractOwner(bytes calldata publicKey) {\n        _onlyValidatorOwnerOrContractOwner(publicKey);\n        _;\n    }\n\n    modifier onlyOperatorOwnerOrContractOwner(uint32 operatorId) {\n        _onlyOperatorOwnerOrContractOwner(operatorId);\n        _;\n    }\n\n    // modifier ensureMinimalOperatorFee(uint256 fee) {\n    //     _ensureMinimalOperatorFee(fee.shrink());\n    //     _;\n    // }\n\n    /**\n     * @dev See {ISafeStakeNetwork-registerOperator}.\n     */\n    function registerOperator(\n        string calldata name,\n        bytes calldata publicKey\n    ) external override returns (uint32 operatorId) {\n        operatorId = _SafeStakeRegistryContract.registerOperator(\n            name,\n            msg.sender,\n            publicKey\n        );\n\n        _operatorDatas[operatorId] = OperatorData({ blockNumber: block.number, earnings: 0, index: 0, indexBlockNumber: block.number, activeValidatorCount: 0 });\n        emit OperatorRegistration(operatorId, name, msg.sender, publicKey);\n    }\n\n    /**\n     * @dev See {ISafeStakeNetwork-removeOperator}.\n     */\n    function removeOperator(uint32 operatorId) onlyOperatorOwnerOrContractOwner(operatorId) external override {\n        address owner = _SafeStakeRegistryContract.getOperatorOwner(operatorId);\n\n        _updateOperatorFeeUnsafe(operatorId, 0);\n        _SafeStakeRegistryContract.removeOperator(operatorId);\n\n        emit OperatorRemoval(operatorId, owner);\n    }\n\n    // function declareOperatorFee(uint32 operatorId, uint256 operatorFee) onlyOperatorOwnerOrContractOwner(operatorId) ensureMinimalOperatorFee(operatorFee) external override {\n    //     if (operatorFee.shrink() > _SafeStakeRegistryContract.getOperatorFee() * (10000 + _operatorMaxFeeIncrease) / 10000) {\n    //         revert FeeExceedsIncreaseLimit();\n    //     }\n    //     _feeChangeRequests[operatorId] = FeeChangeRequest(operatorFee.shrink(), block.timestamp + _declareOperatorFeePeriod, block.timestamp + _declareOperatorFeePeriod + _executeOperatorFeePeriod);\n\n    //     emit OperatorFeeDeclaration(msg.sender, operatorId, block.number, operatorFee);\n    // }\n\n    // function cancelDeclaredOperatorFee(uint32 operatorId) onlyOperatorOwnerOrContractOwner(operatorId) external override {\n    //     delete _feeChangeRequests[operatorId];\n\n    //     emit DeclaredOperatorFeeCancelation(msg.sender, operatorId);\n    // }\n\n    // function executeOperatorFee(uint32 operatorId) onlyOperatorOwnerOrContractOwner(operatorId) external override {\n    //     FeeChangeRequest storage feeChangeRequest = _feeChangeRequests[operatorId];\n\n    //     if(feeChangeRequest.fee == 0) {\n    //         revert NoPendingFeeChangeRequest();\n    //     }\n    //     if(block.timestamp < feeChangeRequest.approvalBeginTime || block.timestamp > feeChangeRequest.approvalEndTime) {\n    //         revert ApprovalNotWithinTimeframe();\n    //     }\n\n    //     _updateOperatorFeeUnsafe(operatorId, feeChangeRequest.fee);\n\n    //     emit OperatorFeeExecution(msg.sender, operatorId, block.number, feeChangeRequest.fee.expand());\n\n    //     delete _feeChangeRequests[operatorId];\n    // }\n\n    // function updateOperatorScore(uint32 operatorId, uint32 score) onlyOwner external override {\n    //     _SafeStakeRegistryContract.updateOperatorScore(operatorId, score);\n\n    //     emit OperatorScoreUpdate(operatorId, msg.sender, block.number, score);\n    // }\n\n    /**\n     * @dev See {ISafeStakeNetwork-registerValidator}.\n     */\n    function registerValidator(\n        bytes calldata publicKey,\n        uint32[] calldata operatorIds,\n        bytes[] calldata sharesPublicKeys,\n        bytes[] calldata sharesEncrypted,\n        uint256 amount\n    ) external override {\n        _updateNetworkEarnings();\n        _updateAddressNetworkFee(msg.sender);\n        _registerValidatorUnsafe(msg.sender, publicKey, operatorIds, sharesPublicKeys, sharesEncrypted, amount);\n    }\n\n    /**\n     * @dev See {ISafeStakeNetwork-registerInitializer}.\n     */\n    function registerInitializer(\n        uint32[] calldata operatorIds\n    ) external override returns(uint32 initializerId) {\n        if (!_checkTwoOperatorsFromParaDao(operatorIds)) {\n            revert NoEnoughParaStateDaoOperators();\n        }\n        initializerId = _SafeStakeRegistryContract.registerInitializer(msg.sender, operatorIds);\n\n        emit InitializerRegistration(initializerId, msg.sender, operatorIds);\n    }\n\n    /**\n     * @dev See {ISafeStakeNetwork-initializerPreStake}.\n     */\n    function initializerPreStake(\n        uint32 initializerId,\n        bytes calldata validatorPublicKey,\n        address miniPoolAddress\n    ) external override{\n        _onlyInitializerOwner(initializerId);\n        _SafeStakeRegistryContract.initializerPreStatke(initializerId, validatorPublicKey, miniPoolAddress);\n        emit InitializerMiniPoolCreated(initializerId, validatorPublicKey, miniPoolAddress);\n    }\n\n    /**\n     * @dev See {ISafeStakeNetwork-initializerMiniPoolReady}.\n     */\n    function initializerMiniPoolReady(\n        uint32 initializerId\n    ) external override {\n        // TODO query minipool is ready\n        _onlyInitializerOwner(initializerId);\n        _SafeStakeRegistryContract.initializerReady(initializerId);\n        emit InitializerMiniPoolReady(initializerId);\n    }\n\n    function initializerStake(\n        uint32 initializerId\n    ) external override {\n        _onlyInitializerOwner(initializerId);\n        _SafeStakeRegistryContract.initializerStake(initializerId);\n    }\n\n\n    /**\n     * @dev See {ISafeStakeNetwork-updateValidator}.\n     */\n    // function updateValidator(\n    //     bytes calldata publicKey,\n    //     uint32[] calldata operatorIds,\n    //     bytes[] calldata sharesPublicKeys,\n    //     bytes[] calldata sharesEncrypted,\n    //     uint256 amount\n    // ) onlyValidatorOwnerOrContractOwner(publicKey) external override {\n    //     _removeValidatorUnsafe(msg.sender, publicKey);\n    //     _registerValidatorUnsafe(msg.sender, publicKey, operatorIds, sharesPublicKeys, sharesEncrypted, amount);\n    // }\n\n    /**\n     * @dev See {ISafeStakeNetwork-removeValidator}.\n     */\n    function removeValidator(bytes calldata publicKey) onlyValidatorOwnerOrContractOwner(publicKey) external override {\n        _updateNetworkEarnings();\n        _updateAddressNetworkFee(msg.sender);\n        _removeValidatorUnsafe(msg.sender, publicKey);\n        _totalBalanceOf(msg.sender); // For assertion\n    }\n\n    // function deposit(address ownerAddress, uint256 amount) external override {\n    //     _deposit(ownerAddress, amount);\n    // }\n\n    // function withdraw(uint256 amount) external override {\n    //     if(_totalBalanceOf(msg.sender) < amount.shrink()) {\n    //         revert NotEnoughBalance();\n    //     }\n\n    //     _withdrawUnsafe(amount.shrink());\n\n    //     if(_liquidatable(msg.sender)) {\n    //         revert NotEnoughBalance();\n    //     }\n    // }\n\n    // function withdrawAll() external override {\n    //     if(_burnRate(msg.sender) > 0) {\n    //         revert BurnRatePositive();\n    //     }\n\n    //     _withdrawUnsafe(_totalBalanceOf(msg.sender));\n    // }\n\n    // function liquidate(address[] calldata ownerAddresses) external override {\n    //     uint64 balanceToTransfer = 0;\n\n    //     for (uint32 index = 0; index < ownerAddresses.length; ++index) {\n    //         if (_canLiquidate(ownerAddresses[index])) {\n    //             balanceToTransfer += _liquidateUnsafe(ownerAddresses[index]);\n    //         }\n    //     }\n\n    //     _token.transfer(msg.sender, balanceToTransfer.expand());\n    // }\n\n    /**\n     * @dev See {ISafeStakeNetwork-disableAddress}.\n     */\n    function disableAddress(address ownerAddress) onlyOwner external override {\n        if (!_owners[ownerAddress].validatorsDisabled && _overdue(ownerAddress)) {\n            _disableOwnerValidatorsUnsafe(ownerAddress);\n            emit AccountDisable(ownerAddress);\n        }\n    }\n\n    function reactivateAccount(uint256 amount) external override {\n        if (!_owners[msg.sender].validatorsDisabled) {\n            revert AccountAlreadyEnabled();\n        }\n\n        _deposit(msg.sender, amount);\n\n        _enableOwnerValidatorsUnsafe(msg.sender);\n\n        if(_liquidatable(msg.sender)) {\n            revert NotEnoughBalance();\n        }\n\n        emit AccountEnable(msg.sender);\n    }\n\n    // function updateLiquidationThresholdPeriod(uint64 blocks) external onlyOwner override {\n    //     if(blocks < MINIMAL_LIQUIDATION_THRESHOLD) {\n    //         revert BelowMinimumBlockPeriod();\n    //     }\n\n    //     _updateLiquidationThresholdPeriod(blocks);\n    // }\n\n    // function updateOperatorFeeIncreaseLimit(uint64 newOperatorMaxFeeIncrease) external onlyOwner override {\n    //     _updateOperatorFeeIncreaseLimit(newOperatorMaxFeeIncrease);\n    // }\n\n    // function updateDeclareOperatorFeePeriod(uint64 newDeclareOperatorFeePeriod) external onlyOwner override {\n    //     _updateDeclareOperatorFeePeriod(newDeclareOperatorFeePeriod);\n    // }\n\n    // function updateExecuteOperatorFeePeriod(uint64 newExecuteOperatorFeePeriod) external onlyOwner override {\n    //     _updateExecuteOperatorFeePeriod(newExecuteOperatorFeePeriod);\n    // }\n\n    /**\n     * @dev See {ISafeStakeNetwork-updateNetworkFee}.\n     */\n    function updateNetworkFee(uint256 fee) external onlyOwner override {\n        emit NetworkFeeUpdate(_networkFee.expand(), fee);\n        _updateNetworkEarnings();\n        _updateNetworkFeeIndex();\n        _networkFee = fee.shrink();\n    }\n\n    function withdrawNetworkEarnings(uint256 amount) external onlyOwner override {\n        if(amount.shrink() > _getNetworkEarnings()) {\n            revert NotEnoughBalance();\n        }\n\n        _withdrawnFromTreasury += amount.shrink();\n        _token.transfer(msg.sender, amount);\n\n        emit NetworkFeesWithdrawal(amount, msg.sender);\n    }\n\n    // function getAddressBalance(address ownerAddress) external override view returns (uint256) {\n    //     return _totalBalanceOf(ownerAddress).expand();\n    // }\n\n    // function isLiquidated(address ownerAddress) external view override returns (bool) {\n    //     return _owners[ownerAddress].validatorsDisabled;\n    // }\n\n    /**\n     * @dev See {ISafeStakeNetwork-getOperatorById}.\n     */\n    // function getOperatorById(uint32 operatorId) external view override returns (string memory, address, bytes memory, uint256, uint256, uint256, bool) {\n    //     return _SafeStakeRegistryContract.getOperatorById(operatorId);\n    // }\n\n    // function getOperatorDeclaredFee(uint32 operatorId) external view override returns (uint256, uint256, uint256) {\n    //     FeeChangeRequest storage feeChangeRequest = _feeChangeRequests[operatorId];\n\n    //     return (feeChangeRequest.fee.expand(), feeChangeRequest.approvalBeginTime, feeChangeRequest.approvalEndTime);\n    // }\n\n    /**\n     * @dev See {ISafeStakeNetwork-getOperatorFee}.\n     */\n    // function getOperatorFee() external view override returns (uint256) {\n    //     return _SafeStakeRegistryContract.getOperatorFee().expand();\n    // }\n\n    /**\n     * @dev See {ISafeStakeNetwork-getOperatorsByValidator}.\n     */\n    // function getOperatorsByValidator(bytes memory publicKey) external view override returns (uint32[] memory) {\n    //     return _SafeStakeRegistryContract.getOperatorsByValidator(publicKey);\n    // }\n\n    /**\n     * @dev See {ISafeStakeNetwork-getValidatorsByAddress}.\n     */\n    // function getValidatorsByOwnerAddress(address ownerAddress) external view override returns (bytes[] memory) {\n    //     return _SafeStakeRegistryContract.getValidatorsByAddress(ownerAddress);\n    // }\n\n    /**\n     * @dev See {ISafeStakeNetwork-addressNetworkFee}.\n     */\n    // function addressNetworkFee(address ownerAddress) external view override returns (uint256) {\n    //     return _addressNetworkFee(ownerAddress);\n    // }\n\n    // function getAddressBurnRate(address ownerAddress) external view override returns (uint256) {\n    //     return _burnRate(ownerAddress).expand();\n    // }\n\n    // function isLiquidatable(address ownerAddress) external view override returns (bool) {\n    //     return _liquidatable(ownerAddress);\n    // }\n\n    // function getNetworkFee() external view override returns (uint256) {\n    //     return _networkFee.expand();\n    // }\n\n    // function getNetworkEarnings() external view override returns (uint256) {\n    //     return _getNetworkEarnings().expand();\n    // }\n\n    // function getMinimumBlocksValidatorShouldPay() external view override returns (uint256) {\n    //     return _minimumBlocksValidatorPay;\n    // }\n\n    // function getOperatorFeeIncreaseLimit() external view override returns (uint256) {\n    //     return _operatorMaxFeeIncrease;\n    // }\n\n    // function getExecuteOperatorFeePeriod() external view override returns (uint256) {\n    //     return _executeOperatorFeePeriod;\n    // }\n\n    // function getDeclaredOperatorFeePeriod() external view override returns (uint256) {\n    //     return _declareOperatorFeePeriod;\n    // }\n\n    // function validatorsPerOperatorCount(uint32 operatorId) external view returns (uint32) {\n    //     return _SafeStakeRegistryContract.validatorsPerOperatorCount(operatorId);\n    // }\n\n    function _deposit(address ownerAddress, uint256 amount) private {\n        _token.transferFrom(msg.sender, address(this), amount);\n        _owners[ownerAddress].deposited += amount.shrink();\n\n        emit FundsDeposit(amount, ownerAddress, msg.sender);\n    }\n\n    function _withdrawUnsafe(uint64 amount) private {\n        _owners[msg.sender].withdrawn += amount;\n        _token.transfer(msg.sender, amount.expand());\n\n        emit FundsWithdrawal(amount.expand(), msg.sender);\n    }\n\n    /**\n     * @dev Update paid block number for the address.\n     * @param ownerAddress Owner address.\n     */\n    function _updatePaidBlockNumber(address ownerAddress) private {\n        if (_burnRate(ownerAddress) == 0) {\n            _owners[ownerAddress].paidBlockNumber = block.number;\n        } else {\n            _owners[ownerAddress].paidBlockNumber =  block.number + _totalBalanceOf(ownerAddress) / _burnRate(ownerAddress);\n        }\n        \n    } \n\n    /**\n     * @dev Update network fee for the address.\n     * @param ownerAddress Owner address.\n     */\n    function _updateAddressNetworkFee(address ownerAddress) private {\n        _owners[ownerAddress].networkFee = _addressNetworkFee(ownerAddress);\n        _owners[ownerAddress].networkFeeIndex = _currentNetworkFeeIndex();\n    }\n\n    function _updateOperatorIndex(uint32 operatorId) private {\n        _operatorDatas[operatorId].index = _operatorIndexOf(operatorId);\n    }\n\n    /**\n     * @dev Updates operators's balance.\n     */\n    function _updateOperatorBalance(uint32 operatorId) private {\n        OperatorData storage operatorData = _operatorDatas[operatorId];\n        operatorData.earnings = _operatorEarningsOf(operatorId);\n        operatorData.blockNumber = block.number;\n    }\n\n    // function _liquidateUnsafe(address ownerAddress) private returns (uint64) {\n    //     _disableOwnerValidatorsUnsafe(ownerAddress);\n\n    //     uint64 balanceToTransfer = _totalBalanceOf(ownerAddress);\n\n    //     _owners[ownerAddress].used += balanceToTransfer;\n\n    //     emit AccountLiquidation(ownerAddress);\n\n    //     return balanceToTransfer;\n    // }\n\n    function _updateNetworkEarnings() private {\n        _networkEarnings = _getTotalNetworkEarnings();\n        _networkEarningsBlockNumber = block.number;\n    }\n\n    function _updateNetworkFeeIndex() private {\n        _networkFeeIndex = _currentNetworkFeeIndex();\n        _networkFeeIndexBlockNumber = block.number;\n    }\n\n    function _registerValidatorUnsafe(\n        address ownerAddress,\n        bytes calldata publicKey,\n        uint32[] calldata operatorIds,\n        bytes[] calldata sharesPublicKeys,\n        bytes[] calldata encryptedKeys,\n        uint256 tokenAmount) private {\n\n        _SafeStakeRegistryContract.registerValidator(\n            ownerAddress,\n            publicKey,\n            operatorIds,\n            sharesPublicKeys,\n            encryptedKeys\n        );\n\n        OwnerData storage owner = _owners[ownerAddress];\n        owner.paidBlockNumber = block.number;\n\n        if (!owner.validatorsDisabled) {\n            ++owner.activeValidatorCount;\n        }\n\n        for (uint32 index = 0; index < operatorIds.length; ++index) {\n            uint32 operatorId = operatorIds[index];\n            _updateOperatorBalance(operatorId);\n\n            if (!owner.validatorsDisabled) {\n                ++_operatorDatas[operatorId].activeValidatorCount;\n            }\n\n            _useOperatorByOwner(ownerAddress, operatorId);\n        }\n        if (tokenAmount > 0) {\n            _deposit(msg.sender, tokenAmount);\n        }\n\n        if(_liquidatable(ownerAddress)) {\n            revert NotEnoughBalance();\n        }\n\n        _updatePaidBlockNumber(ownerAddress);\n\n        emit ValidatorRegistration(ownerAddress, publicKey, operatorIds, sharesPublicKeys, encryptedKeys, owner.paidBlockNumber);\n    }\n\n    function _removeValidatorUnsafe(address ownerAddress, bytes memory publicKey) private {\n        _unregisterValidator(ownerAddress, publicKey);\n        _SafeStakeRegistryContract.removeValidator(publicKey);\n\n        if (!_owners[ownerAddress].validatorsDisabled) {\n            --_owners[ownerAddress].activeValidatorCount;\n        }\n        _updatePaidBlockNumber(ownerAddress);\n        emit ValidatorRemoval(ownerAddress, publicKey);\n    }\n\n    function _unregisterValidator(address ownerAddress, bytes memory publicKey) private {\n        // calculate balances for current operators in use and update their balances\n        uint32[] memory currentOperatorIds = _SafeStakeRegistryContract.getOperatorsByValidator(publicKey);\n        for (uint32 index = 0; index < currentOperatorIds.length; ++index) {\n            uint32 operatorId = currentOperatorIds[index];\n            _updateOperatorBalance(operatorId);\n\n            if (!_owners[ownerAddress].validatorsDisabled) {\n                --_operatorDatas[operatorId].activeValidatorCount;\n            }\n\n            _stopUsingOperatorByOwner(ownerAddress, operatorId);\n        }\n    }\n\n    function _useOperatorByOwner(address ownerAddress, uint32 operatorId) private {\n        _updateUsingOperatorByOwner(ownerAddress, operatorId, true);\n    }\n\n    function _stopUsingOperatorByOwner(address ownerAddress, uint32 operatorId) private {\n        _updateUsingOperatorByOwner(ownerAddress, operatorId, false);\n    }\n\n    function _updateOperatorFeeUnsafe(uint32 operatorId, uint64 fee) private {\n        // OperatorData storage operatorData = _operatorDatas[operatorId];\n        _updateOperatorIndex(operatorId);\n        _operatorDatas[operatorId].indexBlockNumber = block.number;\n        _updateOperatorBalance(operatorId);\n        _SafeStakeRegistryContract.updateOperatorFee(fee);\n    }\n\n    /**\n     * @dev Updates the relation between operator and owner\n     * @param ownerAddress Owner address.\n     * @param increase Change value for validators amount.\n     */\n    function _updateUsingOperatorByOwner(address ownerAddress, uint32 operatorId, bool increase) private {\n        OperatorInUse storage operatorInUseData = _operatorsInUseByAddress[ownerAddress][operatorId];\n\n        if (operatorInUseData.exists) {\n            _updateOperatorUsageByOwner(operatorInUseData, ownerAddress, operatorId);\n\n            if (increase) {\n                ++operatorInUseData.validatorCount;\n            } else {\n                if (--operatorInUseData.validatorCount == 0) {\n                    _owners[ownerAddress].used += operatorInUseData.used;\n\n                    // remove from mapping and list;\n\n                    _operatorsInUseList[ownerAddress][operatorInUseData.indexInArray] = _operatorsInUseList[ownerAddress][_operatorsInUseList[ownerAddress].length - 1];\n                    _operatorsInUseByAddress[ownerAddress][_operatorsInUseList[ownerAddress][operatorInUseData.indexInArray]].indexInArray = operatorInUseData.indexInArray;\n                    _operatorsInUseList[ownerAddress].pop();\n\n                    delete _operatorsInUseByAddress[ownerAddress][operatorId];\n                }\n            }\n        } else {\n            if (_operatorsInUseList[ownerAddress].length > MANAGING_OPERATORS_PER_ACCOUNT_LIMIT) {\n                revert ExceedManagingOperatorsPerAccountLimit();\n            }\n\n            _operatorsInUseByAddress[ownerAddress][operatorId] = OperatorInUse({ index: _operatorIndexOf(operatorId), validatorCount: 1, used: 0, exists: true, indexInArray: uint32(_operatorsInUseList[ownerAddress].length) });\n            _operatorsInUseList[ownerAddress].push(operatorId);\n        }\n    }\n\n    function _disableOwnerValidatorsUnsafe(address ownerAddress) private {\n        _updateNetworkEarnings();\n        _updateAddressNetworkFee(ownerAddress);\n\n        for (uint32 index = 0; index < _operatorsInUseList[ownerAddress].length; ++index) {\n            uint32 operatorId = _operatorsInUseList[ownerAddress][index];\n            _updateOperatorBalance(operatorId);\n            OperatorInUse storage operatorInUseData = _operatorsInUseByAddress[ownerAddress][operatorId];\n            _updateOperatorUsageByOwner(operatorInUseData, ownerAddress, operatorId);\n            _operatorDatas[operatorId].activeValidatorCount -= operatorInUseData.validatorCount;\n        }\n\n        _SafeStakeRegistryContract.disableOwnerValidators(ownerAddress);\n\n        _owners[ownerAddress].validatorsDisabled = true;\n    }\n\n    function _enableOwnerValidatorsUnsafe(address ownerAddress) private {\n        _updateNetworkEarnings();\n        _updateAddressNetworkFee(ownerAddress);\n\n        for (uint32 index = 0; index < _operatorsInUseList[ownerAddress].length; ++index) {\n            uint32 operatorId = _operatorsInUseList[ownerAddress][index];\n            _updateOperatorBalance(operatorId);\n            OperatorInUse storage operatorInUseData = _operatorsInUseByAddress[ownerAddress][operatorId];\n            _updateOperatorUsageByOwner(operatorInUseData, ownerAddress, operatorId);\n            _operatorDatas[operatorId].activeValidatorCount += operatorInUseData.validatorCount;\n        }\n\n        _SafeStakeRegistryContract.enableOwnerValidators(ownerAddress);\n\n        _owners[ownerAddress].validatorsDisabled = false;\n    }\n\n    function _updateOperatorUsageByOwner(OperatorInUse storage operatorInUseData, address ownerAddress, uint32 operatorId) private {\n        operatorInUseData.used = _operatorInUseUsageOf(operatorInUseData, ownerAddress, operatorId);\n        operatorInUseData.index = _operatorIndexOf(operatorId);\n    }\n\n    function _updateLiquidationThresholdPeriod(uint64 newMinimumBlocksBeforeLiquidation) private {\n        _minimumBlocksValidatorPay = newMinimumBlocksBeforeLiquidation;\n\n        emit LiquidationThresholdPeriodUpdate(_minimumBlocksValidatorPay);\n    }\n\n    // function _updateOperatorFeeIncreaseLimit(uint64 newOperatorMaxFeeIncrease) private {\n    //     _operatorMaxFeeIncrease = newOperatorMaxFeeIncrease;\n\n    //     emit OperatorFeeIncreaseLimitUpdate(_operatorMaxFeeIncrease);\n\n    // }\n\n    // function _updateDeclareOperatorFeePeriod(uint64 newDeclareOperatorFeePeriod) private {\n    //     _declareOperatorFeePeriod = newDeclareOperatorFeePeriod;\n\n    //     emit DeclareOperatorFeePeriodUpdate(newDeclareOperatorFeePeriod);\n    // }\n\n    // function _updateExecuteOperatorFeePeriod(uint64 newExecuteOperatorFeePeriod) private {\n    //     _executeOperatorFeePeriod = newExecuteOperatorFeePeriod;\n\n    //     emit ExecuteOperatorFeePeriodUpdate(newExecuteOperatorFeePeriod);\n    // }\n\n    function _expensesOf(address ownerAddress) private view returns(uint64) {\n        uint64 usage =  _owners[ownerAddress].used + _addressNetworkFee(ownerAddress);\n        for (uint32 index = 0; index < _operatorsInUseList[ownerAddress].length; ++index) {\n            OperatorInUse storage operatorInUseData = _operatorsInUseByAddress[ownerAddress][_operatorsInUseList[ownerAddress][index]];\n            usage += _operatorInUseUsageOf(operatorInUseData, ownerAddress, _operatorsInUseList[ownerAddress][index]);\n        }\n\n        return usage;\n    }\n\n    function _totalEarningsOf(address ownerAddress) private view returns (uint64) {\n        uint64 earnings = 0;\n        uint32[] memory operatorsByOwner = _SafeStakeRegistryContract.getOperatorsByOwnerAddress(ownerAddress);\n        for (uint32 index = 0; index < operatorsByOwner.length; ++index) {\n            earnings += _operatorEarningsOf(operatorsByOwner[index]);\n        }\n\n        return earnings;\n    }\n\n    function _totalBalanceOf(address ownerAddress) private view returns (uint64) {\n        uint64 balance = _owners[ownerAddress].deposited + _totalEarningsOf(ownerAddress);\n\n        uint64 usage = _owners[ownerAddress].withdrawn + _expensesOf(ownerAddress);\n\n        if(balance < usage) {\n            revert NegativeBalance();\n        }\n\n        return balance - usage;\n    }\n\n    function _operatorEarnRate(uint32 operatorId) private view returns (uint64) {\n        return _SafeStakeRegistryContract.getOperatorFee() * _operatorDatas[operatorId].activeValidatorCount;\n    }\n\n    /**\n     * @dev See {ISafeStakeNetwork-operatorEarningsOf}.\n     */\n    function _operatorEarningsOf(uint32 operatorId) private view returns (uint64) {\n        return _operatorDatas[operatorId].earnings +\n               uint64(block.number - _operatorDatas[operatorId].blockNumber) *\n               _operatorEarnRate(operatorId);\n    }\n\n    function _addressNetworkFee(address ownerAddress) private view returns (uint64) {\n        return _owners[ownerAddress].networkFee +\n              uint64(_currentNetworkFeeIndex() - _owners[ownerAddress].networkFeeIndex) *\n              _owners[ownerAddress].activeValidatorCount;\n    }\n\n    function _burnRate(address ownerAddress) private view returns (uint64 ownerBurnRate) {\n        if (_owners[ownerAddress].validatorsDisabled) {\n            return 0;\n        }\n\n        for (uint32 index = 0; index < _operatorsInUseList[ownerAddress].length; ++index) {\n            ownerBurnRate += _operatorInUseBurnRateWithNetworkFeeUnsafe(ownerAddress, _operatorsInUseList[ownerAddress][index]);\n        }\n\n        ownerBurnRate += _owners[ownerAddress].activeValidatorCount * _networkFee;\n\n        uint32[] memory operatorsByOwner = _SafeStakeRegistryContract.getOperatorsByOwnerAddress(ownerAddress);\n\n        for (uint32 index = 0; index < operatorsByOwner.length; ++index) {\n            if (ownerBurnRate <= _operatorEarnRate(operatorsByOwner[index])) {\n                return 0;\n            } else {\n                ownerBurnRate -= _operatorEarnRate(operatorsByOwner[index]);\n            }\n        }\n    }\n\n    function _overdue(address ownerAddress) private view returns (bool) {\n        return _totalBalanceOf(ownerAddress) < _minimumBlocksValidatorPay * _burnRate(ownerAddress);\n    }\n\n    /**\n     * @dev liquidatable means whether the validator can pay for the minimal fee.\n     */\n    function _liquidatable(address ownerAddress) private view returns (bool) {\n        return !_owners[ownerAddress].validatorsDisabled && _overdue(ownerAddress);\n    }\n\n    // function _canLiquidate(address ownerAddress) private view returns (bool) {\n    //     return !_owners[ownerAddress].validatorsDisabled && (msg.sender == ownerAddress || _overdue(ownerAddress));\n    // }\n\n    function _getTotalNetworkEarnings() private view returns (uint64) {\n        uint256 result = _networkEarnings + (block.number - _networkEarningsBlockNumber) * _networkFee * _SafeStakeRegistryContract.activeValidatorCount();\n        return uint64(result);\n    }\n\n    function _getNetworkEarnings() private view returns (uint64) {\n        return _getTotalNetworkEarnings() - _withdrawnFromTreasury;\n    }\n\n    /**\n     * @dev Get operator index by address.\n     */\n    function _operatorIndexOf(uint32 operatorId) private view returns (uint64) {\n        return _operatorDatas[operatorId].index +\n               _SafeStakeRegistryContract.getOperatorFee() *\n               uint64(block.number - _operatorDatas[operatorId].indexBlockNumber);\n    }\n\n    function _operatorInUseUsageOf(OperatorInUse storage operatorInUseData, address ownerAddress, uint32 operatorId) private view returns (uint64) {\n        return operatorInUseData.used + (\n                _owners[ownerAddress].validatorsDisabled ? 0 :\n                uint64(_operatorIndexOf(operatorId) - operatorInUseData.index) * operatorInUseData.validatorCount\n               );\n    }\n\n    function _operatorInUseBurnRateWithNetworkFeeUnsafe(address ownerAddress, uint32 operatorId) private view returns (uint64) {\n        // OperatorInUse storage operatorInUseData = _operatorsInUseByAddress[ownerAddress][operatorId];\n        return _SafeStakeRegistryContract.getOperatorFee() * _operatorsInUseByAddress[ownerAddress][operatorId].validatorCount;\n    }\n\n    /**\n     * @dev Returns the current network fee index\n     */\n    function _currentNetworkFeeIndex() private view returns(uint64) {\n        return _networkFeeIndex + uint64(block.number - _networkFeeIndexBlockNumber) * _networkFee;\n    }\n\n    function _onlyValidatorOwnerOrContractOwner(bytes calldata publicKey) private view {\n        address validatorOwner = _SafeStakeRegistryContract.getValidatorOwner(publicKey);\n        if (validatorOwner == address(0)) {\n            revert ValidatorWithPublicKeyNotExist();\n        }\n        if (msg.sender != validatorOwner && msg.sender != owner()) {\n            revert CallerNotValidatorOwner();\n        }\n    }\n\n    function _onlyOperatorOwnerOrContractOwner(uint32 operatorId) private view {\n        address operatorOwner = _SafeStakeRegistryContract.getOperatorOwner(operatorId);\n\n        if(operatorOwner == address(0)) {\n            revert OperatorWithPublicKeyNotExist();\n        }\n\n        if(msg.sender != operatorOwner && msg.sender != owner()) {\n            revert CallerNotOperatorOwner();\n        }\n    }\n\n    function _onlyInitializerOwner(uint32 initializerId) private view {\n        address initializerOwner = _SafeStakeRegistryContract.getInitializerOwner(initializerId);\n\n        if (initializerOwner == address(0)) {\n            revert InitializerNotExist();\n        }\n\n        if (msg.sender != initializerOwner) {\n            revert CallerNotInitializerOwner();\n        }\n    }\n\n    // function _ensureMinimalOperatorFee(uint64 fee) private pure {\n    //     if (fee < MINIMAL_OPERATOR_FEE) {\n    //         revert FeeTooLow();\n    //     }\n    // }\n\n    function _checkTwoOperatorsFromParaDao(uint32[] calldata operatorIds) private view returns (bool) {\n        uint8 count = 0; \n        for (uint32 index = 0; index < operatorIds.length; ++index) {\n            uint32 operatorId = operatorIds[index];\n            if (_SafeStakeRegistryContract.ifOperatorFromParaStateDao(operatorId)) {\n                ++count;\n            }\n        }\n        return count >= 2;\n    }\n\n\n    function version() external pure override returns (uint32) {\n        return 20000;\n    }\n\n    uint256[50] ______gap;\n}",
  "sourcePath": "/Users/jiangjianlin/Github/safestake-tokenomics/contracts/SafeStakeNetwork.sol",
  "compiler": {
    "name": "solc",
    "version": "0.8.17+commit.8df45f5f.Emscripten.clang"
  },
  "schemaVersion": "3.4.10",
  "updatedAt": "2022-11-25T13:51:30.216Z",
  "networkType": "ethereum",
  "devdoc": {
    "kind": "dev",
    "methods": {
      "disableAddress(address)": {
        "details": "See {ISafeStakeNetwork-disableAddress}."
      },
      "initialize(address,address,uint64,uint64)": {
        "details": "Initializes the contract.",
        "params": {
          "minimumBlocksBeforeLiquidation_": "The minimum blocks before liquidation.",
          "registryAddress_": "The registry address.",
          "token_": "The network token."
        }
      },
      "initializerMiniPoolReady(uint32)": {
        "details": "See {ISafeStakeNetwork-initializerMiniPoolReady}."
      },
      "initializerPreStake(uint32,bytes,address)": {
        "details": "See {ISafeStakeNetwork-initializerPreStake}."
      },
      "owner()": {
        "details": "Returns the address of the current owner."
      },
      "reactivateAccount(uint256)": {
        "details": "Enables msg.sender account.",
        "params": {
          "amount": "Tokens amount."
        }
      },
      "registerInitializer(uint32[])": {
        "details": "See {ISafeStakeNetwork-registerInitializer}."
      },
      "registerOperator(string,bytes)": {
        "details": "See {ISafeStakeNetwork-registerOperator}."
      },
      "registerValidator(bytes,uint32[],bytes[],bytes[],uint256)": {
        "details": "See {ISafeStakeNetwork-registerValidator}."
      },
      "removeOperator(uint32)": {
        "details": "See {ISafeStakeNetwork-removeOperator}."
      },
      "removeValidator(bytes)": {
        "details": "See {ISafeStakeNetwork-removeValidator}."
      },
      "renounceOwnership()": {
        "details": "Leaves the contract without owner. It will not be possible to call `onlyOwner` functions anymore. Can only be called by the current owner. NOTE: Renouncing ownership will leave the contract without an owner, thereby removing any functionality that is only available to the owner."
      },
      "transferOwnership(address)": {
        "details": "Transfers ownership of the contract to a new account (`newOwner`). Can only be called by the current owner."
      },
      "updateNetworkFee(uint256)": {
        "details": "See {ISafeStakeNetwork-updateNetworkFee}."
      },
      "withdrawNetworkEarnings(uint256)": {
        "details": "Withdraws network fees.",
        "params": {
          "amount": "Amount to withdraw"
        }
      }
    },
    "version": 1
  },
  "userdoc": {
    "errors": {
      "ValidatorWithPublicKeyNotExist()": [
        {
          "notice": "errors "
        }
      ]
    },
    "kind": "user",
    "methods": {},
    "version": 1
  },
  "db": {
    "callBytecode": {
      "id": "0xa484498bd68a9fe7d63e25e70c7010b44364d9134045c9399a2fc96c176464d8"
    },
    "createBytecode": {
      "id": "0x3a3ea478e2302cc063c7ae33e8bea900c3d5ed1abb28b1dfc8e6a2206c2f27da"
    },
    "contract": {
      "id": "0xa8877b90e44ac5e9ee1dc09f81a30da4021011acf3bba6cab67925a637ee25b9"
    }
  }
}