{
  "contractName": "SafeStakeRegistry",
  "abi": [
    {
      "inputs": [],
      "name": "ExceedRegisteredOperatorsByAccountLimit",
      "type": "error"
    },
    {
      "inputs": [],
      "name": "ExceedValidatorLimit",
      "type": "error"
    },
    {
      "inputs": [],
      "name": "InvalidPublicKeyLength",
      "type": "error"
    },
    {
      "inputs": [],
      "name": "NoEnoughParaStateDaoOperator",
      "type": "error"
    },
    {
      "inputs": [],
      "name": "OessDataStructureInvalid",
      "type": "error"
    },
    {
      "inputs": [],
      "name": "OperatorDeleted",
      "type": "error"
    },
    {
      "inputs": [],
      "name": "OperatorNotFound",
      "type": "error"
    },
    {
      "inputs": [],
      "name": "ValidatorAlreadyExists",
      "type": "error"
    },
    {
      "anonymous": false,
      "inputs": [
        {
          "indexed": false,
          "internalType": "uint8",
          "name": "version",
          "type": "uint8"
        }
      ],
      "name": "Initialized",
      "type": "event"
    },
    {
      "anonymous": false,
      "inputs": [
        {
          "indexed": true,
          "internalType": "address",
          "name": "previousOwner",
          "type": "address"
        },
        {
          "indexed": true,
          "internalType": "address",
          "name": "newOwner",
          "type": "address"
        }
      ],
      "name": "OwnershipTransferred",
      "type": "event"
    },
    {
      "inputs": [],
      "name": "owner",
      "outputs": [
        {
          "internalType": "address",
          "name": "",
          "type": "address"
        }
      ],
      "stateMutability": "view",
      "type": "function",
      "constant": true
    },
    {
      "inputs": [],
      "name": "renounceOwnership",
      "outputs": [],
      "stateMutability": "nonpayable",
      "type": "function"
    },
    {
      "inputs": [
        {
          "internalType": "address",
          "name": "newOwner",
          "type": "address"
        }
      ],
      "name": "transferOwnership",
      "outputs": [],
      "stateMutability": "nonpayable",
      "type": "function"
    },
    {
      "inputs": [
        {
          "internalType": "uint64",
          "name": "operatorFee",
          "type": "uint64"
        }
      ],
      "name": "initialize",
      "outputs": [],
      "stateMutability": "nonpayable",
      "type": "function"
    },
    {
      "inputs": [
        {
          "internalType": "string",
          "name": "name",
          "type": "string"
        },
        {
          "internalType": "address",
          "name": "ownerAddress",
          "type": "address"
        },
        {
          "internalType": "bytes",
          "name": "publicKey",
          "type": "bytes"
        }
      ],
      "name": "registerOperator",
      "outputs": [
        {
          "internalType": "uint32",
          "name": "operatorId",
          "type": "uint32"
        }
      ],
      "stateMutability": "nonpayable",
      "type": "function"
    },
    {
      "inputs": [
        {
          "internalType": "uint32",
          "name": "operatorId",
          "type": "uint32"
        }
      ],
      "name": "removeOperator",
      "outputs": [],
      "stateMutability": "nonpayable",
      "type": "function"
    },
    {
      "inputs": [
        {
          "internalType": "uint32",
          "name": "operatorId",
          "type": "uint32"
        }
      ],
      "name": "certifyOperatorFromDao",
      "outputs": [],
      "stateMutability": "nonpayable",
      "type": "function"
    },
    {
      "inputs": [
        {
          "internalType": "uint64",
          "name": "fee",
          "type": "uint64"
        }
      ],
      "name": "updateOperatorFee",
      "outputs": [],
      "stateMutability": "nonpayable",
      "type": "function"
    },
    {
      "inputs": [
        {
          "internalType": "uint32",
          "name": "operatorId",
          "type": "uint32"
        },
        {
          "internalType": "uint32",
          "name": "score",
          "type": "uint32"
        }
      ],
      "name": "updateOperatorScore",
      "outputs": [],
      "stateMutability": "nonpayable",
      "type": "function"
    },
    {
      "inputs": [
        {
          "internalType": "address",
          "name": "ownerAddress",
          "type": "address"
        },
        {
          "internalType": "bytes",
          "name": "publicKey",
          "type": "bytes"
        },
        {
          "internalType": "uint32[]",
          "name": "operatorIds",
          "type": "uint32[]"
        },
        {
          "internalType": "bytes[]",
          "name": "sharesPublicKeys",
          "type": "bytes[]"
        },
        {
          "internalType": "bytes[]",
          "name": "sharesEncrypted",
          "type": "bytes[]"
        }
      ],
      "name": "registerValidator",
      "outputs": [],
      "stateMutability": "nonpayable",
      "type": "function"
    },
    {
      "inputs": [
        {
          "internalType": "bytes",
          "name": "publicKey",
          "type": "bytes"
        }
      ],
      "name": "removeValidator",
      "outputs": [],
      "stateMutability": "nonpayable",
      "type": "function"
    },
    {
      "inputs": [
        {
          "internalType": "address",
          "name": "ownerAddress",
          "type": "address"
        }
      ],
      "name": "enableOwnerValidators",
      "outputs": [],
      "stateMutability": "nonpayable",
      "type": "function"
    },
    {
      "inputs": [
        {
          "internalType": "address",
          "name": "ownerAddress",
          "type": "address"
        }
      ],
      "name": "disableOwnerValidators",
      "outputs": [],
      "stateMutability": "nonpayable",
      "type": "function"
    },
    {
      "inputs": [
        {
          "internalType": "address",
          "name": "ownerAddress",
          "type": "address"
        }
      ],
      "name": "isLiquidated",
      "outputs": [
        {
          "internalType": "bool",
          "name": "",
          "type": "bool"
        }
      ],
      "stateMutability": "view",
      "type": "function",
      "constant": true
    },
    {
      "inputs": [
        {
          "internalType": "uint32",
          "name": "operatorId",
          "type": "uint32"
        }
      ],
      "name": "getOperatorById",
      "outputs": [
        {
          "internalType": "string",
          "name": "",
          "type": "string"
        },
        {
          "internalType": "address",
          "name": "",
          "type": "address"
        },
        {
          "internalType": "bytes",
          "name": "",
          "type": "bytes"
        },
        {
          "internalType": "uint256",
          "name": "",
          "type": "uint256"
        },
        {
          "internalType": "uint256",
          "name": "",
          "type": "uint256"
        },
        {
          "internalType": "uint256",
          "name": "",
          "type": "uint256"
        },
        {
          "internalType": "bool",
          "name": "",
          "type": "bool"
        }
      ],
      "stateMutability": "view",
      "type": "function",
      "constant": true
    },
    {
      "inputs": [
        {
          "internalType": "address",
          "name": "ownerAddress",
          "type": "address"
        }
      ],
      "name": "getOperatorsByOwnerAddress",
      "outputs": [
        {
          "internalType": "uint32[]",
          "name": "",
          "type": "uint32[]"
        }
      ],
      "stateMutability": "view",
      "type": "function",
      "constant": true
    },
    {
      "inputs": [
        {
          "internalType": "bytes",
          "name": "validatorPublicKey",
          "type": "bytes"
        }
      ],
      "name": "getOperatorsByValidator",
      "outputs": [
        {
          "internalType": "uint32[]",
          "name": "operatorIds",
          "type": "uint32[]"
        }
      ],
      "stateMutability": "view",
      "type": "function",
      "constant": true
    },
    {
      "inputs": [
        {
          "internalType": "uint32",
          "name": "operatorId",
          "type": "uint32"
        }
      ],
      "name": "getOperatorOwner",
      "outputs": [
        {
          "internalType": "address",
          "name": "",
          "type": "address"
        }
      ],
      "stateMutability": "view",
      "type": "function",
      "constant": true
    },
    {
      "inputs": [],
      "name": "getOperatorFee",
      "outputs": [
        {
          "internalType": "uint64",
          "name": "",
          "type": "uint64"
        }
      ],
      "stateMutability": "view",
      "type": "function",
      "constant": true
    },
    {
      "inputs": [],
      "name": "activeValidatorCount",
      "outputs": [
        {
          "internalType": "uint32",
          "name": "",
          "type": "uint32"
        }
      ],
      "stateMutability": "view",
      "type": "function",
      "constant": true
    },
    {
      "inputs": [
        {
          "internalType": "bytes",
          "name": "publicKey",
          "type": "bytes"
        }
      ],
      "name": "validators",
      "outputs": [
        {
          "internalType": "address",
          "name": "",
          "type": "address"
        },
        {
          "internalType": "bytes",
          "name": "",
          "type": "bytes"
        },
        {
          "internalType": "bool",
          "name": "",
          "type": "bool"
        }
      ],
      "stateMutability": "view",
      "type": "function",
      "constant": true
    },
    {
      "inputs": [
        {
          "internalType": "address",
          "name": "ownerAddress",
          "type": "address"
        }
      ],
      "name": "getValidatorsByAddress",
      "outputs": [
        {
          "internalType": "bytes[]",
          "name": "",
          "type": "bytes[]"
        }
      ],
      "stateMutability": "view",
      "type": "function",
      "constant": true
    },
    {
      "inputs": [
        {
          "internalType": "bytes",
          "name": "publicKey",
          "type": "bytes"
        }
      ],
      "name": "getValidatorOwner",
      "outputs": [
        {
          "internalType": "address",
          "name": "",
          "type": "address"
        }
      ],
      "stateMutability": "view",
      "type": "function",
      "constant": true
    },
    {
      "inputs": [
        {
          "internalType": "uint32",
          "name": "operatorId",
          "type": "uint32"
        }
      ],
      "name": "validatorsPerOperatorCount",
      "outputs": [
        {
          "internalType": "uint32",
          "name": "",
          "type": "uint32"
        }
      ],
      "stateMutability": "view",
      "type": "function",
      "constant": true
    },
    {
      "inputs": [],
      "name": "version",
      "outputs": [
        {
          "internalType": "uint32",
          "name": "",
          "type": "uint32"
        }
      ],
      "stateMutability": "pure",
      "type": "function",
      "constant": true
    },
    {
      "inputs": [
        {
          "internalType": "uint32[]",
          "name": "operatorIds",
          "type": "uint32[]"
        }
      ],
      "name": "ifEnoughOperatorsFromParaStateDao",
      "outputs": [
        {
          "internalType": "bool",
          "name": "",
          "type": "bool"
        }
      ],
      "stateMutability": "view",
      "type": "function",
      "constant": true
    }
  ],
  "bytecode": "0x608060405234801561001057600080fd5b50613df7806100206000396000f3fe608060405234801561001057600080fd5b506004361061018e5760003560e01c80635f10ac30116100de578063b2f569c511610097578063e7b2174811610071578063e7b21748146104ad578063eb92db27146104dd578063f2fde38b146104f9578063faa64552146105155761018e565b8063b2f569c514610431578063c87b30381461044d578063d379a5f21461047d5761018e565b80635f10ac301461036f5780636c36511a1461038b578063715018a6146103bd5780638da5cb5b146103c75780639b4ddb5d146103e5578063a3b3f606146104015761018e565b806327467a181161014b57806341d2c0cd1161012557806341d2c0cd146102fd57806345413bf414610319578063459e8b411461033557806354fd4d50146103515761018e565b806327467a18146102a757806328696608146102c35780632e1d2f05146102e15761018e565b80630260d44314610193578063053e8349146101c95780630dc1eeff146101f95780630e32066a146102295780631940d387146102595780632340e8d314610289575b600080fd5b6101ad60048036038101906101a8919061285f565b610545565b6040516101c097969594939291906129e6565b60405180910390f35b6101e360048036038101906101de9190612ac8565b61076a565b6040516101f09190612bd3565b60405180910390f35b610213600480360381019061020e9190612c21565b610818565b6040516102209190612bd3565b60405180910390f35b610243600480360381019061023e9190612c21565b6108db565b6040516102509190612d5a565b60405180910390f35b610273600480360381019061026e9190612dd2565b6109f6565b6040516102809190612e76565b60405180910390f35b610291610e5f565b60405161029e9190612e76565b60405180910390f35b6102c160048036038101906102bc9190612c21565b610e79565b005b6102cb610fe4565b6040516102d89190612eb4565b60405180910390f35b6102fb60048036038101906102f6919061285f565b611002565b005b61031760048036038101906103129190612efb565b61110a565b005b610333600480360381019061032e9190612c21565b611192565b005b61034f600480360381019061034a919061285f565b6112fd565b005b610359611405565b6040516103669190612e76565b60405180910390f35b61038960048036038101906103849190612f28565b61140e565b005b6103a560048036038101906103a09190612ac8565b6114d5565b6040516103b493929190612f68565b60405180910390f35b6103c561158f565b005b6103cf611617565b6040516103dc9190612fa6565b60405180910390f35b6103ff60048036038101906103fa919061306d565b611641565b005b61041b60048036038101906104169190612c21565b611b57565b6040516104289190613169565b60405180910390f35b61044b60048036038101906104469190612ac8565b611bb0565b005b61046760048036038101906104629190612ac8565b611f72565b6040516104749190612fa6565b60405180910390f35b6104976004803603810190610492919061285f565b611fc0565b6040516104a49190612e76565b60405180910390f35b6104c760048036038101906104c2919061285f565b611ffc565b6040516104d49190612fa6565b60405180910390f35b6104f760048036038101906104f29190612efb565b612048565b005b610513600480360381019061050e9190612c21565b6120de565b005b61052f600480360381019061052a9190613184565b6121d5565b60405161053c9190613169565b60405180910390f35b6060600060606000806000806000606660008a63ffffffff1663ffffffff1681526020019081526020016000209050806000018160020160089054906101000a900473ffffffffffffffffffffffffffffffffffffffff1682600101606660008d63ffffffff1663ffffffff16815260200190815260200160002060030160049054906101000a900463ffffffff166105ff8560020160009054906101000a900467ffffffffffffffff1667ffffffffffffffff16612288565b85600201601c9054906101000a900463ffffffff168660030160089054906101000a900460ff1686805461063290613200565b80601f016020809104026020016040519081016040528092919081815260200182805461065e90613200565b80156106ab5780601f10610680576101008083540402835291602001916106ab565b820191906000526020600020905b81548152906001019060200180831161068e57829003601f168201915b505050505096508480546106be90613200565b80601f01602080910402602001604051908101604052809291908181526020018280546106ea90613200565b80156107375780601f1061070c57610100808354040283529160200191610737565b820191906000526020600020905b81548152906001019060200180831161071a57829003601f168201915b505050505094508363ffffffff1693508163ffffffff169150975097509750975097509750975050919395979092949650565b6060600060678484604051610780929190613270565b908152602001604051809103902090508060000180548060200260200160405190810160405280929190818152602001828054801561080a57602002820191906000526020600020906000905b82829054906101000a900463ffffffff1663ffffffff16815260200190600401906020826003010492830192600103820291508084116107cd5790505b505050505091505092915050565b6060606860008373ffffffffffffffffffffffffffffffffffffffff1673ffffffffffffffffffffffffffffffffffffffff1681526020019081526020016000208054806020026020016040519081016040528092919081815260200182805480156108cf57602002820191906000526020600020906000905b82829054906101000a900463ffffffff1663ffffffff16815260200190600401906020826003010492830192600103820291508084116108925790505b50505050509050919050565b6060606960008373ffffffffffffffffffffffffffffffffffffffff1673ffffffffffffffffffffffffffffffffffffffff168152602001908152602001600020600101805480602002602001604051908101604052809291908181526020016000905b828210156109eb57838290600052602060002001805461095e90613200565b80601f016020809104026020016040519081016040528092919081815260200182805461098a90613200565b80156109d75780601f106109ac576101008083540402835291602001916109d7565b820191906000526020600020905b8154815290600101906020018083116109ba57829003601f168201915b50505050508152602001906001019061093f565b505050509050919050565b6000610a006122b4565b73ffffffffffffffffffffffffffffffffffffffff16610a1e611617565b73ffffffffffffffffffffffffffffffffffffffff1614610a74576040517f08c379a0000000000000000000000000000000000000000000000000000000008152600401610a6b906132d5565b60405180910390fd5b600a63ffffffff16606860008673ffffffffffffffffffffffffffffffffffffffff1673ffffffffffffffffffffffffffffffffffffffff1681526020019081526020016000208054905010610af6576040517f69765c9500000000000000000000000000000000000000000000000000000000815260040160405180910390fd5b610b0060656122bc565b610b0a60656122d2565b905060405180610120016040528087878080601f016020809104026020016040519081016040528093929190818152602001838380828437600081840152601f19601f82011690508083019250505050505050815260200184848080601f016020809104026020016040519081016040528093929190818152602001838380828437600081840152601f19601f820116905080830192505050505050508152602001600067ffffffffffffffff1681526020018573ffffffffffffffffffffffffffffffffffffffff168152602001600063ffffffff168152602001606860008773ffffffffffffffffffffffffffffffffffffffff1673ffffffffffffffffffffffffffffffffffffffff1681526020019081526020016000208054905063ffffffff168152602001600063ffffffff16815260200160011515815260200160001515815250606660008363ffffffff1663ffffffff1681526020019081526020016000206000820151816000019081610c8591906134d0565b506020820151816001019081610c9b91906135fd565b5060408201518160020160006101000a81548167ffffffffffffffff021916908367ffffffffffffffff16021790555060608201518160020160086101000a81548173ffffffffffffffffffffffffffffffffffffffff021916908373ffffffffffffffffffffffffffffffffffffffff160217905550608082015181600201601c6101000a81548163ffffffff021916908363ffffffff16021790555060a08201518160030160006101000a81548163ffffffff021916908363ffffffff16021790555060c08201518160030160046101000a81548163ffffffff021916908363ffffffff16021790555060e08201518160030160086101000a81548160ff0219169083151502179055506101008201518160030160096101000a81548160ff021916908315150217905550905050606860008573ffffffffffffffffffffffffffffffffffffffff1673ffffffffffffffffffffffffffffffffffffffff1681526020019081526020016000208190806001815401808255809150506001900390600052602060002090600891828204019190066004029091909190916101000a81548163ffffffff021916908363ffffffff16021790555095945050505050565b6000606a60009054906101000a900463ffffffff16905090565b610e816122b4565b73ffffffffffffffffffffffffffffffffffffffff16610e9f611617565b73ffffffffffffffffffffffffffffffffffffffff1614610ef5576040517f08c379a0000000000000000000000000000000000000000000000000000000008152600401610eec906132d5565b60405180910390fd5b606960008273ffffffffffffffffffffffffffffffffffffffff1673ffffffffffffffffffffffffffffffffffffffff16815260200190815260200160002060000160009054906101000a900463ffffffff16606a60008282829054906101000a900463ffffffff16610f6891906136fe565b92506101000a81548163ffffffff021916908363ffffffff1602179055506001606960008373ffffffffffffffffffffffffffffffffffffffff1673ffffffffffffffffffffffffffffffffffffffff16815260200190815260200160002060000160046101000a81548160ff02191690831515021790555050565b6000606a60049054906101000a900467ffffffffffffffff16905090565b61100a6122b4565b73ffffffffffffffffffffffffffffffffffffffff16611028611617565b73ffffffffffffffffffffffffffffffffffffffff161461107e576040517f08c379a0000000000000000000000000000000000000000000000000000000008152600401611075906132d5565b60405180910390fd5b6000606660008363ffffffff1663ffffffff16815260200190815260200160002090508060030160089054906101000a900460ff166110e9576040517f0f861bc000000000000000000000000000000000000000000000000000000000815260040160405180910390fd5b60008160030160086101000a81548160ff0219169083151502179055505050565b6111126122b4565b73ffffffffffffffffffffffffffffffffffffffff16611130611617565b73ffffffffffffffffffffffffffffffffffffffff1614611186576040517f08c379a000000000000000000000000000000000000000000000000000000000815260040161117d906132d5565b60405180910390fd5b61118f816122e0565b50565b61119a6122b4565b73ffffffffffffffffffffffffffffffffffffffff166111b8611617565b73ffffffffffffffffffffffffffffffffffffffff161461120e576040517f08c379a0000000000000000000000000000000000000000000000000000000008152600401611205906132d5565b60405180910390fd5b606960008273ffffffffffffffffffffffffffffffffffffffff1673ffffffffffffffffffffffffffffffffffffffff16815260200190815260200160002060000160009054906101000a900463ffffffff16606a60008282829054906101000a900463ffffffff166112819190613736565b92506101000a81548163ffffffff021916908363ffffffff1602179055506000606960008373ffffffffffffffffffffffffffffffffffffffff1673ffffffffffffffffffffffffffffffffffffffff16815260200190815260200160002060000160046101000a81548160ff02191690831515021790555050565b6113056122b4565b73ffffffffffffffffffffffffffffffffffffffff16611323611617565b73ffffffffffffffffffffffffffffffffffffffff1614611379576040517f08c379a0000000000000000000000000000000000000000000000000000000008152600401611370906132d5565b60405180910390fd5b6000606660008363ffffffff1663ffffffff16815260200190815260200160002090508060030160089054906101000a900460ff166113e4576040517f0f861bc000000000000000000000000000000000000000000000000000000000815260040160405180910390fd5b60018160030160096101000a81548160ff0219169083151502179055505050565b60006001905090565b6114166122b4565b73ffffffffffffffffffffffffffffffffffffffff16611434611617565b73ffffffffffffffffffffffffffffffffffffffff161461148a576040517f08c379a0000000000000000000000000000000000000000000000000000000008152600401611481906132d5565b60405180910390fd5b6000606660008463ffffffff1663ffffffff16815260200190815260200160002090508181600201601c6101000a81548163ffffffff021916908363ffffffff160217905550505050565b60006060600080606786866040516114ee929190613270565b908152602001604051809103902090508060010160009054906101000a900473ffffffffffffffffffffffffffffffffffffffff1686868360010160189054906101000a900460ff1682828080601f016020809104026020016040519081016040528093929190818152602001838380828437600081840152601f19601f820116905080830192505050505050509150909150935093509350509250925092565b6115976122b4565b73ffffffffffffffffffffffffffffffffffffffff166115b5611617565b73ffffffffffffffffffffffffffffffffffffffff161461160b576040517f08c379a0000000000000000000000000000000000000000000000000000000008152600401611602906132d5565b60405180910390fd5b611615600061230c565b565b6000603360009054906101000a900473ffffffffffffffffffffffffffffffffffffffff16905090565b6116496122b4565b73ffffffffffffffffffffffffffffffffffffffff16611667611617565b73ffffffffffffffffffffffffffffffffffffffff16146116bd576040517f08c379a00000000000000000000000000000000000000000000000000000000081526004016116b4906132d5565b60405180910390fd5b6116cd88888888888888886123d2565b600073ffffffffffffffffffffffffffffffffffffffff16606789896040516116f7929190613270565b908152602001604051809103902060010160009054906101000a900473ffffffffffffffffffffffffffffffffffffffff1673ffffffffffffffffffffffffffffffffffffffff1614611776576040517f8d09a73e00000000000000000000000000000000000000000000000000000000815260040160405180910390fd5b6040518060800160405280878780806020026020016040519081016040528093929190818152602001838360200280828437600081840152601f19601f8201169050808301925050505050505081526020018a73ffffffffffffffffffffffffffffffffffffffff168152602001606960008c73ffffffffffffffffffffffffffffffffffffffff1673ffffffffffffffffffffffffffffffffffffffff1681526020019081526020016000206001018054905063ffffffff168152602001600115158152506067898960405161184e929190613270565b908152602001604051809103902060008201518160000190805190602001906118789291906126e4565b5060208201518160010160006101000a81548173ffffffffffffffffffffffffffffffffffffffff021916908373ffffffffffffffffffffffffffffffffffffffff16021790555060408201518160010160146101000a81548163ffffffff021916908363ffffffff16021790555060608201518160010160186101000a81548160ff021916908315150217905550905050606960008a73ffffffffffffffffffffffffffffffffffffffff1673ffffffffffffffffffffffffffffffffffffffff168152602001908152602001600020600101888890918060018154018082558091505060019003906000526020600020016000909192909192909192909192509182611987929190613779565b5060005b868690508163ffffffff161015611b0f576066600088888463ffffffff168181106119b9576119b8613849565b5b90506020020160208101906119ce919061285f565b63ffffffff1663ffffffff16815260200190815260200160002060030160089054906101000a900460ff16611a2f576040517f0f861bc000000000000000000000000000000000000000000000000000000000815260040160405180910390fd5b6107d063ffffffff166066600089898563ffffffff16818110611a5557611a54613849565b5b9050602002016020810190611a6a919061285f565b63ffffffff1663ffffffff168152602001908152602001600020600301600481819054906101000a900463ffffffff16611aa390613878565b91906101000a81548163ffffffff021916908363ffffffff160217905563ffffffff161115611afe576040517f6df5ab7600000000000000000000000000000000000000000000000000000000815260040160405180910390fd5b80611b0890613878565b905061198b565b50606a600081819054906101000a900463ffffffff16611b2e90613878565b91906101000a81548163ffffffff021916908363ffffffff160217905550505050505050505050565b6000606960008373ffffffffffffffffffffffffffffffffffffffff1673ffffffffffffffffffffffffffffffffffffffff16815260200190815260200160002060000160049054906101000a900460ff169050919050565b611bb86122b4565b73ffffffffffffffffffffffffffffffffffffffff16611bd6611617565b73ffffffffffffffffffffffffffffffffffffffff1614611c2c576040517f08c379a0000000000000000000000000000000000000000000000000000000008152600401611c23906132d5565b60405180910390fd5b600060678383604051611c40929190613270565b9081526020016040518091039020905060005b81600001805490508163ffffffff161015611d165760666000836000018363ffffffff1681548110611c8857611c87613849565b5b90600052602060002090600891828204019190066004029054906101000a900463ffffffff1663ffffffff1663ffffffff168152602001908152602001600020600301600481819054906101000a900463ffffffff16611ce7906138a4565b91906101000a81548163ffffffff021916908363ffffffff16021790555080611d0f90613878565b9050611c53565b506000606960008360010160009054906101000a900473ffffffffffffffffffffffffffffffffffffffff1673ffffffffffffffffffffffffffffffffffffffff1673ffffffffffffffffffffffffffffffffffffffff16815260200190815260200160002060010190508060018280549050611d9391906138cd565b81548110611da457611da3613849565b5b90600052602060002001818360010160149054906101000a900463ffffffff1663ffffffff1681548110611ddb57611dda613849565b5b906000526020600020019081611df1919061392c565b508160010160149054906101000a900463ffffffff166067828460010160149054906101000a900463ffffffff1663ffffffff1681548110611e3657611e35613849565b5b90600052602060002001604051611e4d9190613a97565b908152602001604051809103902060010160146101000a81548163ffffffff021916908363ffffffff16021790555080805480611e8d57611e8c613aae565b5b600190038181906000526020600020016000611ea99190612794565b9055606a600081819054906101000a900463ffffffff16611ec9906138a4565b91906101000a81548163ffffffff021916908363ffffffff16021790555060678484604051611ef9929190613270565b908152602001604051809103902060008082016000611f1891906127d4565b6001820160006101000a81549073ffffffffffffffffffffffffffffffffffffffff02191690556001820160146101000a81549063ffffffff02191690556001820160186101000a81549060ff0219169055505050505050565b600060678383604051611f86929190613270565b908152602001604051809103902060010160009054906101000a900473ffffffffffffffffffffffffffffffffffffffff16905092915050565b6000606660008363ffffffff1663ffffffff16815260200190815260200160002060030160049054906101000a900463ffffffff169050919050565b6000606660008363ffffffff1663ffffffff16815260200190815260200160002060020160089054906101000a900473ffffffffffffffffffffffffffffffffffffffff169050919050565b60006120546001612494565b90508015612078576001600060016101000a81548160ff0219169083151502179055505b61208182612584565b80156120da5760008060016101000a81548160ff0219169083151502179055507f7f26b83ff96e1f2b6a682f133852f6798a09c465da95921460cefb384740249860016040516120d19190613b25565b60405180910390a15b5050565b6120e66122b4565b73ffffffffffffffffffffffffffffffffffffffff16612104611617565b73ffffffffffffffffffffffffffffffffffffffff161461215a576040517f08c379a0000000000000000000000000000000000000000000000000000000008152600401612151906132d5565b60405180910390fd5b600073ffffffffffffffffffffffffffffffffffffffff168173ffffffffffffffffffffffffffffffffffffffff16036121c9576040517f08c379a00000000000000000000000000000000000000000000000000000000081526004016121c090613bb2565b60405180910390fd5b6121d28161230c565b50565b6000806000905060005b848490508163ffffffff16101561227657600085858363ffffffff1681811061220b5761220a613849565b5b9050602002016020810190612220919061285f565b9050606660008263ffffffff1663ffffffff16815260200190815260200160002060030160099054906101000a900460ff1615612264578261226190613bd2565b92505b508061226f90613878565b90506121df565b5060028160ff16101591505092915050565b60006298968067ffffffffffffffff168267ffffffffffffffff166122ad9190613bfb565b9050919050565b600033905090565b6001816000016000828254019250508190555050565b600081600001549050919050565b80606a60046101000a81548167ffffffffffffffff021916908367ffffffffffffffff16021790555050565b6000603360009054906101000a900473ffffffffffffffffffffffffffffffffffffffff16905081603360006101000a81548173ffffffffffffffffffffffffffffffffffffffff021916908373ffffffffffffffffffffffffffffffffffffffff1602179055508173ffffffffffffffffffffffffffffffffffffffff168173ffffffffffffffffffffffffffffffffffffffff167f8be0079c531659141344cd1fd0a4f28419497f9722a3daafe3b4186f6b6457e060405160405180910390a35050565b6030888890501461240f576040517f637297a400000000000000000000000000000000000000000000000000000000815260040160405180910390fd5b838390508686905014158061242a5750818190508686905014155b806124385750600486869050105b80612453575060016003878790506124509190613c6c565b14155b1561248a576040517f9c920ce000000000000000000000000000000000000000000000000000000000815260040160405180910390fd5b5050505050505050565b60008060019054906101000a900460ff161561250b5760018260ff161480156124c357506124c13061260f565b155b612502576040517f08c379a00000000000000000000000000000000000000000000000000000000081526004016124f990613d0f565b60405180910390fd5b6000905061257f565b8160ff1660008054906101000a900460ff1660ff1610612560576040517f08c379a000000000000000000000000000000000000000000000000000000000815260040161255790613d0f565b60405180910390fd5b816000806101000a81548160ff021916908360ff160217905550600190505b919050565b600060019054906101000a900460ff166125d3576040517f08c379a00000000000000000000000000000000000000000000000000000000081526004016125ca90613da1565b60405180910390fd5b6125db612632565b6125e3612693565b80606a60046101000a81548167ffffffffffffffff021916908367ffffffffffffffff16021790555050565b6000808273ffffffffffffffffffffffffffffffffffffffff163b119050919050565b600060019054906101000a900460ff16612681576040517f08c379a000000000000000000000000000000000000000000000000000000000815260040161267890613da1565b60405180910390fd5b61269161268c6122b4565b61230c565b565b600060019054906101000a900460ff166126e2576040517f08c379a00000000000000000000000000000000000000000000000000000000081526004016126d990613da1565b60405180910390fd5b565b828054828255906000526020600020906007016008900481019282156127835791602002820160005b8382111561275157835183826101000a81548163ffffffff021916908363ffffffff160217905550926020019260040160208160030104928301926001030261270d565b80156127815782816101000a81549063ffffffff0219169055600401602081600301049283019260010302612751565b505b50905061279091906127fc565b5090565b5080546127a090613200565b6000825580601f106127b257506127d1565b601f0160209004906000526020600020908101906127d091906127fc565b5b50565b5080546000825560070160089004906000526020600020908101906127f991906127fc565b50565b5b808211156128155760008160009055506001016127fd565b5090565b600080fd5b600080fd5b600063ffffffff82169050919050565b61283c81612823565b811461284757600080fd5b50565b60008135905061285981612833565b92915050565b60006020828403121561287557612874612819565b5b60006128838482850161284a565b91505092915050565b600081519050919050565b600082825260208201905092915050565b60005b838110156128c65780820151818401526020810190506128ab565b60008484015250505050565b6000601f19601f8301169050919050565b60006128ee8261288c565b6128f88185612897565b93506129088185602086016128a8565b612911816128d2565b840191505092915050565b600073ffffffffffffffffffffffffffffffffffffffff82169050919050565b60006129478261291c565b9050919050565b6129578161293c565b82525050565b600081519050919050565b600082825260208201905092915050565b60006129848261295d565b61298e8185612968565b935061299e8185602086016128a8565b6129a7816128d2565b840191505092915050565b6000819050919050565b6129c5816129b2565b82525050565b60008115159050919050565b6129e0816129cb565b82525050565b600060e0820190508181036000830152612a00818a6128e3565b9050612a0f602083018961294e565b8181036040830152612a218188612979565b9050612a3060608301876129bc565b612a3d60808301866129bc565b612a4a60a08301856129bc565b612a5760c08301846129d7565b98975050505050505050565b600080fd5b600080fd5b600080fd5b60008083601f840112612a8857612a87612a63565b5b8235905067ffffffffffffffff811115612aa557612aa4612a68565b5b602083019150836001820283011115612ac157612ac0612a6d565b5b9250929050565b60008060208385031215612adf57612ade612819565b5b600083013567ffffffffffffffff811115612afd57612afc61281e565b5b612b0985828601612a72565b92509250509250929050565b600081519050919050565b600082825260208201905092915050565b6000819050602082019050919050565b612b4a81612823565b82525050565b6000612b5c8383612b41565b60208301905092915050565b6000602082019050919050565b6000612b8082612b15565b612b8a8185612b20565b9350612b9583612b31565b8060005b83811015612bc6578151612bad8882612b50565b9750612bb883612b68565b925050600181019050612b99565b5085935050505092915050565b60006020820190508181036000830152612bed8184612b75565b905092915050565b612bfe8161293c565b8114612c0957600080fd5b50565b600081359050612c1b81612bf5565b92915050565b600060208284031215612c3757612c36612819565b5b6000612c4584828501612c0c565b91505092915050565b600081519050919050565b600082825260208201905092915050565b6000819050602082019050919050565b600082825260208201905092915050565b6000612c968261295d565b612ca08185612c7a565b9350612cb08185602086016128a8565b612cb9816128d2565b840191505092915050565b6000612cd08383612c8b565b905092915050565b6000602082019050919050565b6000612cf082612c4e565b612cfa8185612c59565b935083602082028501612d0c85612c6a565b8060005b85811015612d485784840389528151612d298582612cc4565b9450612d3483612cd8565b925060208a01995050600181019050612d10565b50829750879550505050505092915050565b60006020820190508181036000830152612d748184612ce5565b905092915050565b60008083601f840112612d9257612d91612a63565b5b8235905067ffffffffffffffff811115612daf57612dae612a68565b5b602083019150836001820283011115612dcb57612dca612a6d565b5b9250929050565b600080600080600060608688031215612dee57612ded612819565b5b600086013567ffffffffffffffff811115612e0c57612e0b61281e565b5b612e1888828901612d7c565b95509550506020612e2b88828901612c0c565b935050604086013567ffffffffffffffff811115612e4c57612e4b61281e565b5b612e5888828901612a72565b92509250509295509295909350565b612e7081612823565b82525050565b6000602082019050612e8b6000830184612e67565b92915050565b600067ffffffffffffffff82169050919050565b612eae81612e91565b82525050565b6000602082019050612ec96000830184612ea5565b92915050565b612ed881612e91565b8114612ee357600080fd5b50565b600081359050612ef581612ecf565b92915050565b600060208284031215612f1157612f10612819565b5b6000612f1f84828501612ee6565b91505092915050565b60008060408385031215612f3f57612f3e612819565b5b6000612f4d8582860161284a565b9250506020612f5e8582860161284a565b9150509250929050565b6000606082019050612f7d600083018661294e565b8181036020830152612f8f8185612979565b9050612f9e60408301846129d7565b949350505050565b6000602082019050612fbb600083018461294e565b92915050565b60008083601f840112612fd757612fd6612a63565b5b8235905067ffffffffffffffff811115612ff457612ff3612a68565b5b6020830191508360208202830111156130105761300f612a6d565b5b9250929050565b60008083601f84011261302d5761302c612a63565b5b8235905067ffffffffffffffff81111561304a57613049612a68565b5b60208301915083602082028301111561306657613065612a6d565b5b9250929050565b600080600080600080600080600060a08a8c03121561308f5761308e612819565b5b600061309d8c828d01612c0c565b99505060208a013567ffffffffffffffff8111156130be576130bd61281e565b5b6130ca8c828d01612a72565b985098505060408a013567ffffffffffffffff8111156130ed576130ec61281e565b5b6130f98c828d01612fc1565b965096505060608a013567ffffffffffffffff81111561311c5761311b61281e565b5b6131288c828d01613017565b945094505060808a013567ffffffffffffffff81111561314b5761314a61281e565b5b6131578c828d01613017565b92509250509295985092959850929598565b600060208201905061317e60008301846129d7565b92915050565b6000806020838503121561319b5761319a612819565b5b600083013567ffffffffffffffff8111156131b9576131b861281e565b5b6131c585828601612fc1565b92509250509250929050565b7f4e487b7100000000000000000000000000000000000000000000000000000000600052602260045260246000fd5b6000600282049050600182168061321857607f821691505b60208210810361322b5761322a6131d1565b5b50919050565b600081905092915050565b82818337600083830152505050565b60006132578385613231565b935061326483858461323c565b82840190509392505050565b600061327d82848661324b565b91508190509392505050565b7f4f776e61626c653a2063616c6c6572206973206e6f7420746865206f776e6572600082015250565b60006132bf602083612897565b91506132ca82613289565b602082019050919050565b600060208201905081810360008301526132ee816132b2565b9050919050565b7f4e487b7100000000000000000000000000000000000000000000000000000000600052604160045260246000fd5b60008190508160005260206000209050919050565b60006020601f8301049050919050565b600082821b905092915050565b6000600883026133867fffffffffffffffffffffffffffffffffffffffffffffffffffffffffffffffff82613349565b6133908683613349565b95508019841693508086168417925050509392505050565b6000819050919050565b60006133cd6133c86133c3846129b2565b6133a8565b6129b2565b9050919050565b6000819050919050565b6133e7836133b2565b6133fb6133f3826133d4565b848454613356565b825550505050565b600090565b613410613403565b61341b8184846133de565b505050565b5b8181101561343f57613434600082613408565b600181019050613421565b5050565b601f8211156134845761345581613324565b61345e84613339565b8101602085101561346d578190505b61348161347985613339565b830182613420565b50505b505050565b600082821c905092915050565b60006134a760001984600802613489565b1980831691505092915050565b60006134c08383613496565b9150826002028217905092915050565b6134d98261288c565b67ffffffffffffffff8111156134f2576134f16132f5565b5b6134fc8254613200565b613507828285613443565b600060209050601f83116001811461353a5760008415613528578287015190505b61353285826134b4565b86555061359a565b601f19841661354886613324565b60005b828110156135705784890151825560018201915060208501945060208101905061354b565b8683101561358d5784890151613589601f891682613496565b8355505b6001600288020188555050505b505050505050565b60008190508160005260206000209050919050565b601f8211156135f8576135c9816135a2565b6135d284613339565b810160208510156135e1578190505b6135f56135ed85613339565b830182613420565b50505b505050565b6136068261295d565b67ffffffffffffffff81111561361f5761361e6132f5565b5b6136298254613200565b6136348282856135b7565b600060209050601f8311600181146136675760008415613655578287015190505b61365f85826134b4565b8655506136c7565b601f198416613675866135a2565b60005b8281101561369d57848901518255600182019150602085019450602081019050613678565b868310156136ba57848901516136b6601f891682613496565b8355505b6001600288020188555050505b505050505050565b7f4e487b7100000000000000000000000000000000000000000000000000000000600052601160045260246000fd5b600061370982612823565b915061371483612823565b9250828203905063ffffffff8111156137305761372f6136cf565b5b92915050565b600061374182612823565b915061374c83612823565b9250828201905063ffffffff811115613768576137676136cf565b5b92915050565b600082905092915050565b613783838361376e565b67ffffffffffffffff81111561379c5761379b6132f5565b5b6137a68254613200565b6137b18282856135b7565b6000601f8311600181146137e057600084156137ce578287013590505b6137d885826134b4565b865550613840565b601f1984166137ee866135a2565b60005b82811015613816578489013582556001820191506020850194506020810190506137f1565b86831015613833578489013561382f601f891682613496565b8355505b6001600288020188555050505b50505050505050565b7f4e487b7100000000000000000000000000000000000000000000000000000000600052603260045260246000fd5b600061388382612823565b915063ffffffff8203613899576138986136cf565b5b600182019050919050565b60006138af82612823565b9150600082036138c2576138c16136cf565b5b600182039050919050565b60006138d8826129b2565b91506138e3836129b2565b92508282039050818111156138fb576138fa6136cf565b5b92915050565b60008154905061391081613200565b9050919050565b60008190508160005260206000209050919050565b81810361393a575050613a12565b61394382613901565b67ffffffffffffffff81111561395c5761395b6132f5565b5b6139668254613200565b6139718282856135b7565b6000601f8311600181146139a0576000841561398e578287015490505b61399885826134b4565b865550613a0b565b601f1984166139ae87613917565b96506139b9866135a2565b60005b828110156139e1578489015482556001820191506001850194506020810190506139bc565b868310156139fe57848901546139fa601f891682613496565b8355505b6001600288020188555050505b5050505050505b565b60008154613a2181613200565b613a2b8186613231565b94506001821660008114613a465760018114613a5b57613a8e565b60ff1983168652811515820286019350613a8e565b613a64856135a2565b60005b83811015613a8657815481890152600182019150602081019050613a67565b838801955050505b50505092915050565b6000613aa38284613a14565b915081905092915050565b7f4e487b7100000000000000000000000000000000000000000000000000000000600052603160045260246000fd5b6000819050919050565b600060ff82169050919050565b6000613b0f613b0a613b0584613add565b6133a8565b613ae7565b9050919050565b613b1f81613af4565b82525050565b6000602082019050613b3a6000830184613b16565b92915050565b7f4f776e61626c653a206e6577206f776e657220697320746865207a65726f206160008201527f6464726573730000000000000000000000000000000000000000000000000000602082015250565b6000613b9c602683612897565b9150613ba782613b40565b604082019050919050565b60006020820190508181036000830152613bcb81613b8f565b9050919050565b6000613bdd82613ae7565b915060ff8203613bf057613bef6136cf565b5b600182019050919050565b6000613c06826129b2565b9150613c11836129b2565b9250828202613c1f816129b2565b91508282048414831517613c3657613c356136cf565b5b5092915050565b7f4e487b7100000000000000000000000000000000000000000000000000000000600052601260045260246000fd5b6000613c77826129b2565b9150613c82836129b2565b925082613c9257613c91613c3d565b5b828206905092915050565b7f496e697469616c697a61626c653a20636f6e747261637420697320616c72656160008201527f647920696e697469616c697a6564000000000000000000000000000000000000602082015250565b6000613cf9602e83612897565b9150613d0482613c9d565b604082019050919050565b60006020820190508181036000830152613d2881613cec565b9050919050565b7f496e697469616c697a61626c653a20636f6e7472616374206973206e6f74206960008201527f6e697469616c697a696e67000000000000000000000000000000000000000000602082015250565b6000613d8b602b83612897565b9150613d9682613d2f565b604082019050919050565b60006020820190508181036000830152613dba81613d7e565b905091905056fea2646970667358221220de72ff69dc7fd19bc85ba35e6e215ee392b483d390fcc7acf0e5662d499b634b64736f6c63430008110033",
  "immutableReferences": {},
  "source": "// File: contracts/SafeStakeRegistry.sol\n// SPDX-License-Identifier: GPL-3.0-or-later\npragma solidity ^0.8.2;\n\nimport \"@openzeppelin/contracts/utils/Counters.sol\";\nimport \"@openzeppelin/contracts-upgradeable/access/OwnableUpgradeable.sol\";\nimport \"./utils/VersionedContract.sol\";\nimport \"./utils/Types.sol\";\nimport \"./ISafeStakeRegistry.sol\";\n\ncontract SafeStakeRegistry is Initializable, OwnableUpgradeable, ISafeStakeRegistry, VersionedContract {\n    using Counters for Counters.Counter;\n    using Types256 for uint256;\n    using Types64 for uint64;\n    \n    struct Operator {\n        string name;\n        bytes publicKey;\n        uint64 fee;\n        address ownerAddress;\n        uint32 score;\n        uint32 indexInOwner;\n        uint32 validatorCount;\n        bool active;\n        bool fromParaStateDao;\n    }\n\n    struct Validator {\n        uint32[] operatorIds;\n        address ownerAddress;\n        uint32 indexInOwner;\n        bool active;\n    }\n\n    struct OwnerData {\n        uint32 activeValidatorCount;\n        bool validatorsDisabled;\n        bytes[] validators;\n    }\n\n    // struct Initializer {\n    //     address ownerAddress;\n    //     uint32[] operatorIds;\n    //     bytes validatorPublicKey;\n    //     address miniPoolAddress;\n    //     InitializerStatus status;\n    //     bool active;\n    // }\n\n    Counters.Counter private _lastOperatorId;\n    // Counters.Counter private _lastInitializerId;\n\n    mapping(uint32 => Operator) private _operators;\n    mapping(bytes => Validator) private _validators;\n    mapping(address => uint32[]) private _operatorsByOwnerAddress;\n    mapping(address => OwnerData) private _owners;\n    // mapping(address => uint32[]) private _initializersByOwnerAddress;\n    // mapping(uint32 => Initializer) private _initializers;\n\n    uint32 private _activeValidatorCount;\n\n    uint32 constant private VALIDATORS_PER_OPERATOR_LIMIT = 2000;\n    uint32 constant private REGISTERED_OPERATORS_PER_ACCOUNT_LIMIT = 10;\n\n    uint64 private _operatorFee;\n    /**\n     * @dev See {ISafeStakeRegistry-initialize}.\n     */\n    function initialize(uint64 operatorFee) external override initializer {\n        __SafeStakeRegistry_init(operatorFee);\n    }\n\n    function __SafeStakeRegistry_init(uint64 operatorFee) internal onlyInitializing {\n        __Ownable_init_unchained();\n        __SafeStakeRegistry_init_unchained();\n        _operatorFee = operatorFee;\n    }\n\n    function __SafeStakeRegistry_init_unchained() internal onlyInitializing {\n    }\n\n    /**\n     * @dev See {ISafeStakeRegistry-registerOperator}.\n     */\n    function registerOperator(\n        string calldata name,\n        address ownerAddress,\n        bytes calldata publicKey\n    ) external onlyOwner override returns (uint32 operatorId) {\n\n        if (_operatorsByOwnerAddress[ownerAddress].length >= REGISTERED_OPERATORS_PER_ACCOUNT_LIMIT) {\n            revert ExceedRegisteredOperatorsByAccountLimit();\n        }\n\n        _lastOperatorId.increment();\n        operatorId = uint32(_lastOperatorId.current());\n        _operators[operatorId] = Operator({name: name, ownerAddress: ownerAddress, publicKey: publicKey, score: 0, fee: 0, active: true, indexInOwner: uint32(_operatorsByOwnerAddress[ownerAddress].length), validatorCount: 0, fromParaStateDao: false});\n        _operatorsByOwnerAddress[ownerAddress].push(operatorId);\n         \n    }\n\n    /**\n     * @dev See {ISafeStakeRegistry-removeOperator}.\n     */\n    function removeOperator(\n        uint32 operatorId\n    ) external onlyOwner override {\n        Operator storage operator = _operators[operatorId];\n\n        if (!operator.active) {\n            revert OperatorDeleted();\n        }\n\n        operator.active = false;\n    }\n\n    /**\n     * @dev See {ISafeStakeRegistry-certifyOperatorFromDao}.\n     */\n    function certifyOperatorFromDao(uint32 operatorId) external onlyOwner override {\n        Operator storage operator = _operators[operatorId];\n        if (!operator.active) {\n            revert OperatorDeleted();\n        }\n\n        operator.fromParaStateDao = true;\n    }\n\n    /**\n     * @dev See {ISafeStakeRegistry-updateOperatorFee}.\n     */\n    function updateOperatorFee(uint64 fee) external onlyOwner override {\n        _updateOperatorFeeUnsafe(fee);\n    }\n\n    /**\n     * @dev See {ISafeStakeRegistry-updateOperatorScore}.\n     */\n    function updateOperatorScore(uint32 operatorId, uint32 score) external onlyOwner override {\n        Operator storage operator = _operators[operatorId];\n        operator.score = score;\n    }\n\n    /**\n     * @dev See {ISafeStakeRegistry-registerValidator}.\n     */\n    function registerValidator(\n        address ownerAddress,\n        bytes calldata publicKey,\n        uint32[] calldata operatorIds,\n        bytes[] calldata sharesPublicKeys,\n        bytes[] calldata sharesEncrypted\n    ) external onlyOwner override {\n        _validateValidatorParams(\n            publicKey,\n            operatorIds,\n            sharesPublicKeys,\n            sharesEncrypted\n        );\n\n        if (_validators[publicKey].ownerAddress != address(0)) {\n            revert ValidatorAlreadyExists();\n        }\n\n        _validators[publicKey] = Validator({\n            operatorIds: operatorIds,\n            ownerAddress: ownerAddress,\n            indexInOwner: uint32(_owners[ownerAddress].validators.length),\n            active: true\n        });\n\n        _owners[ownerAddress].validators.push(publicKey);\n\n        for (uint32 index = 0; index < operatorIds.length; ++index) {\n            if (!_operators[operatorIds[index]].active) {\n                revert OperatorDeleted();\n            }\n\n            if (++_operators[operatorIds[index]].validatorCount > VALIDATORS_PER_OPERATOR_LIMIT) {\n                revert ExceedValidatorLimit();\n            }\n        }\n        ++_activeValidatorCount;\n    }\n\n    /**\n     * @dev See {ISafeStakeRegistry-removeValidator}.\n     */\n    function removeValidator(\n        bytes calldata publicKey\n    ) external onlyOwner override {\n        Validator storage validator = _validators[publicKey];\n\n        for (uint32 index = 0; index < validator.operatorIds.length; ++index) {\n            --_operators[validator.operatorIds[index]].validatorCount;\n        }\n\n        bytes[] storage ownerValidators = _owners[validator.ownerAddress].validators;\n\n        ownerValidators[validator.indexInOwner] = ownerValidators[ownerValidators.length - 1];\n        _validators[ownerValidators[validator.indexInOwner]].indexInOwner = validator.indexInOwner;\n        ownerValidators.pop();\n\n        --_activeValidatorCount;\n\n        delete _validators[publicKey];\n    }\n\n    /**\n     * @dev See {ISafeStakeRegistry-registerInitializer}.\n     */\n    // function registerInitializer(\n    //     address ownerAddress, \n    //     uint32[] calldata operatorIds\n    // ) external onlyOwner override returns (uint32 initializerId) {\n    //     _lastInitializerId.increment();\n    //     initializerId = uint32(_lastInitializerId.current());\n    //     _initializers[initializerId] = Initializer({\n    //         ownerAddress: ownerAddress,\n    //         operatorIds: operatorIds,\n    //         validatorPublicKey: new bytes(0),\n    //         miniPoolAddress: address(0),\n    //         status: InitializerStatus.INITIALIZING,\n    //         active: true\n    //     });\n    //     _initializersByOwnerAddress[ownerAddress].push(initializerId);\n    // }\n\n    function enableOwnerValidators(address ownerAddress) external onlyOwner override {\n        _activeValidatorCount += _owners[ownerAddress].activeValidatorCount;\n        _owners[ownerAddress].validatorsDisabled = false;\n    }\n\n    function disableOwnerValidators(address ownerAddress) external onlyOwner override {\n        _activeValidatorCount -= _owners[ownerAddress].activeValidatorCount;\n        _owners[ownerAddress].validatorsDisabled = true;\n    }\n\n    function isLiquidated(address ownerAddress) external view override returns (bool) {\n        return _owners[ownerAddress].validatorsDisabled;\n    }\n\n    /**\n     * @dev See {ISafeStakeRegistry-operators}.\n     */\n    function getOperatorById(uint32 operatorId) external view override returns (string memory, address, bytes memory, uint256, uint256, uint256, bool) {\n        Operator storage operator = _operators[operatorId];\n        return (operator.name, operator.ownerAddress, operator.publicKey, _operators[operatorId].validatorCount, operator.fee.expand(), operator.score, operator.active);\n    }\n\n    /**\n     * @dev See {ISafeStakeRegistry-getOperatorsByOwnerAddress}.\n     */\n    function getOperatorsByOwnerAddress(address ownerAddress) external view override returns (uint32[] memory) {\n        return _operatorsByOwnerAddress[ownerAddress];\n    }\n\n    /**\n     * @dev See {ISafeStakeRegistry-getOperatorsByValidator}.\n     */\n    function getOperatorsByValidator(bytes calldata validatorPublicKey) external view override returns (uint32[] memory operatorIds) {\n        Validator storage validator = _validators[validatorPublicKey];\n\n        return validator.operatorIds;\n    }\n\n    /**\n     * @dev See {ISafeStakeRegistry-getOperatorOwner}.\n     */\n    function getOperatorOwner(uint32 operatorId) external view override returns (address) {\n        return _operators[operatorId].ownerAddress;\n    }\n\n    /**\n     * @dev See {ISafeStakeRegistry-getOperatorFee}.\n     */\n    function getOperatorFee() external view override returns (uint64) {\n        return _operatorFee;\n    }\n\n    /**\n     * @dev See {ISafeStakeRegistry-activeValidatorCount}.\n     */\n    function activeValidatorCount() external view override returns (uint32) {\n        return _activeValidatorCount;\n    }\n\n    /**\n     * @dev See {ISafeStakeRegistry-validators}.\n     */\n    function validators(bytes calldata publicKey) external view override returns (address, bytes memory, bool) {\n        Validator storage validator = _validators[publicKey];\n\n        return (validator.ownerAddress, publicKey, validator.active);\n    }\n\n    /**\n     * @dev See {ISafeStakeRegistry-getValidatorsByAddress}.\n     */\n    function getValidatorsByAddress(address ownerAddress) external view override returns (bytes[] memory) {\n        return _owners[ownerAddress].validators;\n    }\n\n    /**\n     * @dev See {ISafeStakeRegistry-getValidatorOwner}.\n     */\n    function getValidatorOwner(bytes calldata publicKey) external view override returns (address) {\n        return _validators[publicKey].ownerAddress;\n    }\n\n    /**\n     * @dev See {ISafeStakeRegistry-validatorsPerOperatorCount}.\n     */\n    function validatorsPerOperatorCount(uint32 operatorId) external view override returns (uint32) {\n        return _operators[operatorId].validatorCount;\n    }\n\n    /**\n     * @dev See {ISafeStakeRegistry-updateOperatorFee}.\n     */\n    function _updateOperatorFeeUnsafe(uint64 fee) private {\n        _operatorFee = fee;\n    }\n\n    /**\n     * @dev Validates the paramss for a validator.\n     * @param publicKey Validator public key.\n     * @param operatorIds Operator operatorIds.\n     * @param sharesPublicKeys Shares public keys.\n     * @param encryptedKeys Encrypted private keys.\n     */\n    function _validateValidatorParams(\n        bytes calldata publicKey,\n        uint32[] calldata operatorIds,\n        bytes[] calldata sharesPublicKeys,\n        bytes[] calldata encryptedKeys\n    ) private pure {\n        if (publicKey.length != 48) {\n            revert InvalidPublicKeyLength();\n        }\n        if (\n            operatorIds.length != sharesPublicKeys.length ||\n            operatorIds.length != encryptedKeys.length ||\n            operatorIds.length < 4 || operatorIds.length % 3 != 1\n        ) {\n            revert OessDataStructureInvalid();\n        }\n    }\n\n    function version() external pure override returns (uint32) {\n        return 1;\n    }\n\n    /**\n     * @dev See {ISafeStakeRegistry-ifOperatorFromParaStateDao}.\n     */\n    function ifEnoughOperatorsFromParaStateDao(uint32[] calldata operatorIds) external view override returns (bool) {\n        uint8 count = 0; \n        for (uint32 index = 0; index < operatorIds.length; ++index) {\n            uint32 operatorId = operatorIds[index];\n            if (_operators[operatorId].fromParaStateDao) {\n                ++count;\n            }\n        }\n        return count >= 2;\n    }\n\n    /**\n     * @dev See {ISafeStakeRegistry-updateOperatorFee}.\n     */\n    // function getInitializerById(uint32 initializerId) external view override returns (address ownerAddress, uint32[] memory operatorIds, bytes memory validatorPublicKey, address minipoolAddress, InitializerStatus status, bool active) {\n    //     Initializer storage initializer =  _initializers[initializerId];\n    //     return (initializer.ownerAddress, initializer.operatorIds, initializer.validatorPublicKey, initializer.miniPoolAddress, initializer.status, initializer.active);\n    // }\n\n    /**\n     * @dev See {ISafeStakeRegistry-initializerPreStatke}.\n     */\n    // function initializerPreStatke(\n    //     uint32 initializerId,\n    //     bytes calldata validatorPublicKey,\n    //     address miniPoolAddress\n    // ) external override {\n    //     _initializers[initializerId].validatorPublicKey = validatorPublicKey;\n    //     _initializers[initializerId].miniPoolAddress = miniPoolAddress;\n    //     _initializers[initializerId].status = InitializerStatus.WAITING;\n    // }\n\n    // function initializerReady(\n    //     uint32 initializerId\n    // ) external override {\n    //     _initializers[initializerId].status = InitializerStatus.READY;\n    // }\n\n    // function initializerStake(\n    //     uint32 initializerId\n    // ) external override {\n    //     _initializers[initializerId].status = InitializerStatus.FINISHED;\n    // }\n\n    // function getInitializerOwner(uint32 initializerId) external view override returns (address ownerAddress) {\n    //     return _initializers[initializerId].ownerAddress;\n    // }\n\n    // function getInitalizerByOwner(address ownerAddress) external view override returns (uint32[] memory initializerIds) {\n    //     return _initializersByOwnerAddress[ownerAddress];\n    // }\n\n    uint256[50] ______gap;\n}\n",
  "sourcePath": "/Users/jiangjianlin/Github/safestake-tokenomics/contracts/SafeStakeRegistry.sol",
  "compiler": {
    "name": "solc",
    "version": "0.8.17+commit.8df45f5f.Emscripten.clang"
  },
  "schemaVersion": "3.4.10",
  "updatedAt": "2023-01-07T06:17:22.405Z",
  "networkType": "ethereum",
  "devdoc": {
    "kind": "dev",
    "methods": {
      "activeValidatorCount()": {
        "details": "See {ISafeStakeRegistry-activeValidatorCount}."
      },
      "certifyOperatorFromDao(uint32)": {
        "details": "See {ISafeStakeRegistry-certifyOperatorFromDao}."
      },
      "enableOwnerValidators(address)": {
        "details": "See {ISafeStakeRegistry-registerInitializer}."
      },
      "getOperatorById(uint32)": {
        "details": "See {ISafeStakeRegistry-operators}."
      },
      "getOperatorFee()": {
        "details": "See {ISafeStakeRegistry-getOperatorFee}."
      },
      "getOperatorOwner(uint32)": {
        "details": "See {ISafeStakeRegistry-getOperatorOwner}."
      },
      "getOperatorsByOwnerAddress(address)": {
        "details": "See {ISafeStakeRegistry-getOperatorsByOwnerAddress}."
      },
      "getOperatorsByValidator(bytes)": {
        "details": "See {ISafeStakeRegistry-getOperatorsByValidator}."
      },
      "getValidatorOwner(bytes)": {
        "details": "See {ISafeStakeRegistry-getValidatorOwner}."
      },
      "getValidatorsByAddress(address)": {
        "details": "See {ISafeStakeRegistry-getValidatorsByAddress}."
      },
      "ifEnoughOperatorsFromParaStateDao(uint32[])": {
        "details": "See {ISafeStakeRegistry-ifOperatorFromParaStateDao}."
      },
      "initialize(uint64)": {
        "details": "See {ISafeStakeRegistry-initialize}."
      },
      "owner()": {
        "details": "Returns the address of the current owner."
      },
      "registerOperator(string,address,bytes)": {
        "details": "See {ISafeStakeRegistry-registerOperator}."
      },
      "registerValidator(address,bytes,uint32[],bytes[],bytes[])": {
        "details": "See {ISafeStakeRegistry-registerValidator}."
      },
      "removeOperator(uint32)": {
        "details": "See {ISafeStakeRegistry-removeOperator}."
      },
      "removeValidator(bytes)": {
        "details": "See {ISafeStakeRegistry-removeValidator}."
      },
      "renounceOwnership()": {
        "details": "Leaves the contract without owner. It will not be possible to call `onlyOwner` functions anymore. Can only be called by the current owner. NOTE: Renouncing ownership will leave the contract without an owner, thereby removing any functionality that is only available to the owner."
      },
      "transferOwnership(address)": {
        "details": "Transfers ownership of the contract to a new account (`newOwner`). Can only be called by the current owner."
      },
      "updateOperatorFee(uint64)": {
        "details": "See {ISafeStakeRegistry-updateOperatorFee}."
      },
      "updateOperatorScore(uint32,uint32)": {
        "details": "See {ISafeStakeRegistry-updateOperatorScore}."
      },
      "validators(bytes)": {
        "details": "See {ISafeStakeRegistry-validators}."
      },
      "validatorsPerOperatorCount(uint32)": {
        "details": "See {ISafeStakeRegistry-validatorsPerOperatorCount}."
      }
    },
    "stateVariables": {
      "______gap": {
        "details": "See {ISafeStakeRegistry-initializerPreStatke}."
      }
    },
    "version": 1
  },
  "userdoc": {
    "errors": {
      "ExceedRegisteredOperatorsByAccountLimit()": [
        {
          "notice": "errors "
        }
      ]
    },
    "kind": "user",
    "methods": {},
    "version": 1
  },
  "db": {
    "callBytecode": {
      "id": "0x9611465a5a3b5f170b8034e398ef1a688e68a897302cde60ccdb096499fef932"
    },
    "createBytecode": {
      "id": "0x34cd79c5fba195e66ddf78785e19cd0494f4b694187023f6ce800b11973a6e8b"
    },
    "contract": {
      "id": "0xbca6a17ff6afc32ed65e59423bc2ffd42182c755c20ebb3bf2f1ed85949a85a1"
    }
  }
}